:1000000047C7000057C7000055C7000053C700008E
:1000100051C700000C9445344DC700000C947E106D
:1000200049C7000047C700000C949D280C94293450
:100030000C9437340C9477283DC700003BC7000070
:100040000C94033437C7000035C7000033C70000E5
:1000500031C700000C947F102DC700002BC7000093
:1000600029C7000027C700004C0D4E0D640D520D2E
:10007000640D560D560D580D620D620D640D640D24
:100080005C0D5A0DE62FF72F903009F49395E5B8E3
:10009000C4B8B6EFB0937A00A5E0A0937B00A8E0C7
:1000A000A093810010928000AFEFA0938500A093F1
:1000B0008400A6E0A093360010928B0010928A0074
:1000C000B3E0AFE3A91B51E0392F33302AF0A05C35
:1000D000BC4F53953350F9CFB0938900A09388005B
:1000E000A0917A00A4FFFCCFB6EBB0937A00A2E017
:1000F000A0936F00A9E0A093810062E0A0E0A0932C
:100100007B00A1E0A09353008895E5B8C4B884FFB4
:100110001AC0A8E10000AA95F1F7EF93FF93E7B1A9
:10012000F8B1A4E0C2FCA2E0C0FCA1E0BF2FBA2B52
:10013000AE2BB8B904B9A7B9E7B9F8B9FF91EF91F7
:100140000BC00C948100ACE100000000AA95F1F70F
:1001500025B9E5B8000004B9A0918400A0918500FC
:10016000B0918900A395AB1760F7A0917A00A4FF26
:10017000F3CFB6EBB0937A006A9571F7609178008F
:1001800070917900308186FD630F6193308186FD27
:10019000731F80FF7193652F4A9579F710926F0056
:1001A00010928100B6E0B0937A000895E001D90181
:1001B000D20118000720080808F80000002060A0FD
:1001C0003FA06020020202FF0202021010101F0076
:1001D0000000050842818989760508C2A1918986B7
:1001E0000508000402FF0010100508F87838588848
:1001F000091003081C3E7F0D080710FF818181F163
:10020000E1C1FF4040404743410D080110FFFF118D
:10021000080310F1E1C14743410E000820212112DB
:100220002060E0E0E0FEFE0402010001037F7F2188
:10023000C2C4C4C04094840007030102040E080233
:1002400010FEFE7F7F00000000110005202060E00E
:10025000E0E00201000103C2C4C4C0400703010280
:1002600004010410090A0C4E6F742063616C69620A
:1002700072617465642120466F72FF63616C69620C
:10028000726174696F6E20636C616D702074686553
:100290002033FF70696E7320746F676574686572D0
:1002A00020616E64207374617274207769746820B1
:1002B000746865FF6B65792E2041636B6E6F776C98
:1002C00065646765207468652073656C662D746568
:1002D0007374207769746820746865206B65792071
:1002E00077697468696EFF32732E20446973636F97
:1002F0006E6E6563742070696E73206166746572DA
:1003000020746865FF6D657373616765202269738A
:100310006F6C617465FF50726F6265212220697392
:100320002073686F776E2E20536F667477617265E5
:1003300020616E6420646F63756D656E74617469AD
:100340006F6E2069732061742073766E3A2F2F20B0
:100350006D696B726F636F6E74726F6C6C65722E09
:10036000206E65742F7472616E736973746F72207E
:100370007465737465722000B903870358032E03F4
:100380000703E402C302A40288020000140029004B
:100390003E005300690080009700AE00C600DF00F9
:1003A000F80012012D01490165018201A001BE0181
:1003B000DE01FF012102440268028E02B502DE0264
:1003C0000903350364039403C803FE03370473046D
:1003D000B404F90443059305EA054906B306290761
:1003E000AE074808FF08DE09FD0A930C480F991B69
:1003F00000000000000000000000000000000000FD
:100400001E2121211200807F0000007E4A4A4A34CA
:10041000000000000000FC40201008040201000061
:1004200000010101010101010101010101017F043C
:1004300088D0E0F0F800000000000000000000009C
:1004400000000000000000FC94948400000102FC05
:100450000000000000000000000000001E2121211B
:1004600012E0C0804020100F000000C0202020407B
:10047000000000FC00009E9E040303030302000032
:1004800000202023242525232020203F00007B7BE3
:100490002142840480C00000000000000000000031
:1004A00000000000FC94948400040607070708F08D
:1004B00000000000000000000000000000803F215C
:1004C00021120C00000000FF000000F0084848C89E
:1004D0000000FE0000E7818181C1E1F1818181019D
:1004E000002020202121212020203F0000F3404037
:1004F0004041434740407FC0000000000000000032
:10050000000000000000489494946400000000FF84
:1005100000000000000000000000000000000000DB
:100520003F2121120C0000FF000000F0084848D0D5
:10053000000000000000FEFE04040404040404079C
:100540000008080809090908087F3E1C08087F7F81
:1005500020202020202020E00000000000000000DB
:10056000000000000000000048949494640000FF24
:100570000000000000000000000000FF003C0A092D
:100580000A3C002231292926000082868E9EBEFE6A
:10059000FEBEDEEFF6FAFEFEFAF2E2C282000000D4
:1005A00008080804027984A4A46800FF0000000081
:1005B000000000000000000000000000000000003B
:1005C000000000FF0000F0282428F0001008FC00C4
:1005D00000000000000000000000003C0A090A3C86
:1005E00000FF00000000000000000000000000000C
:1005F00000000000040C1C3C7CFF7C3C1C0C040034
:1006000000000000009EA1A9A99A804323130B07B4
:1006100003FF0303030303030000000000000000C6
:10062000000000788484844800FF0000000000007F
:10063000000000F00804E211090909090909090983
:10064000091121C2040810E000000001020404079F
:10065000000000000080402010884423100804039C
:100660000000000000000000000000FE0100FC028D
:100670000100000000000000000000000000000079
:1006800000000079494979000000000000000000E6
:1006900040F010101010F0400001010101010100B4
:1006A00040FCF8F0E040FC400007030100000700B8
:1006B00040FC40E0F0F8FC400007000001030700A8
:1006C000000000000000000000000000000000002A
:1006D00040FCFC0000FCFC4000070700000707008E
:1006E000000000000000000000000000000000000A
:1006F00040F8080808080808000302020202020283
:10070000080808080808F840020202020202030072
:1007100040404040404040400000000000000000D9
:10072000C0000080000080000102020102020102FC
:1007300000800000800000C00201020201020201EC
:1007400000000000000000000000000000000000A9
:1007500000F8040222548800101F10020201000059
:100760007884820282847800060407000704060069
:1007700000FC000000F01000100F0204020704004B
:100780000000000000000000000000000000000069
:1007900008F8080088F808000000010104070400B8
:1007A00008F808C008F80800040704070407040054
:1007B0003808F8482020C0000004070404020100A3
:1007C00008F84820C000F8000407040403000700EC
:1007D00008F84820204080000407040404020100B7
:1007E000381008E84850E000010204040402010047
:1007F00008F840F00808F0000407000304040300B0
:100800006090080808F808000004050305070400C4
:100810000000F80402FE02000C06050404070C00A8
:1008200002FE020002FE02000407040404170C008A
:1008300002FE02F002FE02000407040704170C0087
:100840000000E01008F808000C06050404070C007E
:10085000804028F8284080000102141F1402010083
:1008600008F8080008F808000407040404170C003E
:1008700008F808C008F808000407040704170C006B
:100880000C3CFCFCFC3C0C000000000000000000E4
:100890000000000000000000000000000000000058
:1008A000000000FE000000000000000D000000003D
:1008B00000160E0000160E000000000000000000F0
:1008C0000010FC1010FC10000001070101070100DE
:1008D000001824FE448800000003040F04030000F5
:1008E0000C12924C201008000201000609090600B3
:1008F0008C5222528C40C000010204040401020008
:10090000000000160E0000000000000000000000C3
:100910000000F008040200000000010204080000CA
:100920000000020408F000000000080402010000BA
:100930004850E0FCE05048000201000700010200BE
:10094000404040F84040400000000003000000002C
:100950000000000000000000000000160E00000073
:1009600040404040404040000000000000000000C7
:10097000000000000000000000000006060000006B
:10098000000080402010080002010000000000006C
:10099000F80402020204F800010204040402010047
:1009A000000804FE02000000000404070404000024
:1009B0000804028242241800040605040404060008
:1009C00006020202122AC600010204040402010007
:1009D000C0A09E8080FC800000000000040704008E
:1009E0003E120A0A0A12E60001020404040201008F
:1009F000F84422121224C00001020404040201007F
:100A00000E02C262321A0E00000007000000000051
:100A100088542222225488000102040404020100A6
:100A2000384482824224F8000002040404020100D7
:100A3000000000181800000000000006060000007A
:100A40000000001818000000000000160E00000052
:100A50000040A01008040200000000010204080089
:100A600000202020202020000001010101010100C0
:100A70000002040810A04000000804020100000069
:100A800018040282422418000000000D000000003B
:100A9000F804D252E204F80001020505040504023C
:100AA00000F0080402FE0200040705010507040027
:100AB00002FE2222225488000407040404020100DA
:100AC000F804020202048E00010204040402010080
:100AD00002FE02020204F8000407040404020100FA
:100AE00002FE222272020E0004070404040407001E
:100AF00002FE222272020E0004070404000000001D
:100B0000F80402C24244DE000102040402010700AC
:100B100002FE222022FE0200040704000407040053
:100B2000000202FE020200000004040704040000A8
:100B30000000000202FE020000030404040300009F
:100B400002FE62900804020004070400010604008B
:100B500002FE020000000000040704040404070071
:100B600002FE38E038FE0200040704000407040017
:100B700002FE1A6082FE020004070400050704005A
:100B8000F80402020204F800010204040402010055
:100B900002FE424242241800040704000000000044
:100BA000F80402028204F8000102040404050204AD
:100BB00002FE42C242241800040704000106040099
:100BC0008814222222448E0001020404040201003F
:100BD0000E0202FE02020E000004040704040000DC
:100BE00002FE020002FE02000003040404030000EF
:100BF00002FE820082FE02000000030603000000E5
:100C000002FE02F002FE02000001070307010000DD
:100C100002DE722072DE02000407040004070400F2
:100C2000027EC280C27E02000000040704000000B1
:100C30000E824222120A060007040404040407007C
:100C400000FE02020200000000070404040000008D
:100C50000810204080000000000000000001020099
:100C60000000020202FE000000000404040700006D
:100C7000100804020408100000000000000000003A
:100C8000000000000000000008080808080808002C
:100C90000000000E16000000000000000000000030
:100CA000904828284890E00001020404040207004C
:100CB00002FE10080810E00004070204040201000C
:100CC000E0100808081038000102040404020100C2
:100CD000E010080810FE02000102040402070400EC
:100CE000E05048484850600001020404040201003A
:100CF00020F82422020C0000040704040000000075
:100D0000E010080810F80800000912120907000096
:100D100002FE100808F000000407040004070400A5
:100D2000001016F600000000000404070404000090
:100D30000000101616F00000000C1010100F00003C
:100D400002FEC02010081800040704010204040079
:100D500000000202FE00000000000404070404007A
:100D600008F808F008F00000040700070007040076
:100D700008F8201008F0000004070400040704002D
:100D8000E01008080810E000010204040402010059
:100D900008F810080810E000101F120404020100F7
:100DA000E010080810F8080001020404121F1000E7
:100DB00008F82010080830000407040000000000B4
:100DC0001028484848903800010204040402010039
:100DD0000808FE08080000000000030404040200E4
:100DE00008F8080008F808000003040402070400DB
:100DF00008F8880088F808000000030603000000D7
:100E000008F808C008F808000003060306030000FD
:100E100008B8E040E0B8080004070000000704003C
:100E200008F8080008F8080000091212110F000065
:100E30001808884828180800060504040404060059
:100E400040B01C020200000000010708080000007A
:100E5000000000FE000000000000001F0000000075
:100E6000000002021CB0400000000808070100005A
:100E70000C02020408080402000000000000000048
:100E8000C02010081020C000010101010101010073
:100E900011241FBECFEFD8E0DEBFCDBF21E0A0E020
:100EA000B1E001C01D92AE3BB207E1F70E942E15E2
:100EB0000C942F3DA5C85D98559A80FD599A80FFE6
:100EC0005998519A539A5A9867FD5B9A67FF5B98B5
:100ED0005A9A5A9866FD5B9A66FF5B985A9A5A9896
:100EE00065FD5B9A65FF5B985A9A5A9864FD5B9A18
:100EF00064FF5B985A9A5A9863FD5B9A63FF5B980C
:100F00005A9A5A9862FD5B9A62FF5B985A9A5A986D
:100F100061FD5B9A61FF5B985A9A5A9860FD5B9AF3
:100F200060FF5B985A9A5D9A5A985B98089597FF6C
:100F300009C08F939F938DE284D59F918F91909557
:100F400081959F4F6BE171E04AE050E00E94CE3CFA
:100F5000C5C50895ECDF01C0EADF80E272C58DE20D
:100F600070C58DE36EC50F93082FE6EAF1E0880F98
:100F7000880FE80FF11D6081718182819381643651
:100F800071058105910568F42091190127FD09C0BB
:100F9000802F29D6692F0BD26EEF23E04DE01AD7B0
:100FA00004C04FEF04E02DE02CD6D7DF0F91089559
:100FB000863058F4E5E9F1E0E80FF11DE80FF11D86
:100FC0008081918163E011D7C8CF08951F93182FB6
:100FD00080916F01882319F0C0DF80E032D513D4EF
:100FE00089E591E086D5812F82958F70E1DF812F91
:100FF0008F70DEDF1F9108958091060182958F70BA
:1010000019D08091060183701CD080910601DECF3B
:101010000895E9E8F1E0E80FF11D0895CF93F9DFB5
:101020009081C681C91710F405D001C013D095DF97
:10103000CF910895EEDF8F9380814DD58F9101C0C0
:1010400008958F9387E291E054D58F91E2DF8681F6
:1010500042C50895DEDF8F9386813DD58F9101C013
:1010600008958F9383E291E044D58F91D2DF808100
:1010700032C508958F932F932AE080953B9A089468
:1010800010F4439802C0439A000020D027D08695E0
:101090002A95B1F72F918F91089503D002D001D0F6
:1010A00000D000D003D002D001D000D000D003D0B7
:1010B00002D001D000D000D0A89503D002D001D03A
:1010C00000D000D003D002D001D000D000D003D097
:1010D00002D001D000D000D003D002D001D000D087
:1010E0000000089590E0893C28F0885C48EC849FDB
:1010F000C0011124009709F4089520918100277000
:1011000019F0DADF0197F6CF8130910519F00297D7
:101110003EE303C037E180E090E02091B200230F6E
:101120002093B30042E04093700027E023BF8895EE
:1011300026E023BF10927000A895DCCF8F9384E047
:10114000D1DF07C08F9382E0CDDF03C08F9381E0B2
:10115000C9DF8F911F93182F106410937C00E12F2B
:10116000E07880912601E81759F0E0932601AEDF80
:101170008EE980937A0083E083BF889582E083BF05
:1011800020E030E0A901E0E01FC08EE980937A0002
:1011900083E083BF889582E083BF6091780070917F
:1011A0007900260F371F411D511DE43061F48091F5
:1011B0002801803041F084E02030380720F417FD0A
:1011C00002C01068CACFEF5F80912501E817E8F2EE
:1011D0006091290170912A0117FF04C060912701D5
:1011E0007091280180E090E00E943E3B2FEF33E0B9
:1011F00040E050E00E94803BB901CA0120912501E6
:1012000030E040E050E00E94803BC9011F9108950A
:101210009B01281B390B50F0C9010895BC01809136
:10122000290190912A016817790718F4861B970BFA
:10123000089580E090E0089583E493E00E94013DEA
:10124000382F84E493E00E94013D20912D01230F6B
:1012500030912E01381F20930F013093100183E04D
:10126000283E380720F0C901885E934002C080E024
:1012700090E062E370E00E94593B683008F067E05C
:10128000E8E7F3E0E60FF11DE60FF11D45915591FA
:101290002591359162E3681B421B530B649FC0018B
:1012A000659F900D1124499662E370E00E94593BBE
:1012B000620F731F709372016093710185E493E074
:1012C0000E94013D992787FD909560912D017091B5
:1012D0002E01860F971F90932801809327019093EA
:1012E0006E0180936D0108950F9221E08C32920778
:1012F00010F48CE291E08C52914069E170E00E9420
:10130000593B99E16B3210F0982F6BE2981BE0EC9F
:10131000F2E0E60FF11DE60FF11D9F93CF010E9451
:10132000013D482F3196CF010E94013D582F319643
:10133000CF010E94013D282F3196CF010E94013D2F
:10134000382F6F91421B530B649FC001659F900D16
:1013500011240C9669E170E00E94593B620F731FE3
:10136000CB010F900895CF93DF9324E130E0B901D2
:101370000E94593BDC01EAE8F3E0E60FF71FE60FB5
:10138000F71FC591D591459155914C1B5D0B4A9F17
:10139000C0014B9F900D5A9F900D1124B9010E94DE
:1013A000593B6C0F7D1FCB01DF91CF910895AEE1CA
:1013B000B0E0EDEDF9E00C946E3C662EB82E860F91
:1013C000898320911301283059F5209177013091BC
:1013D00078014091790150917A0157FD15C0109123
:1013E000860109C0CA01B9012AE0312D412D512DD4
:1013F0000E94803B1F5F173FACF391F4243160E003
:1014000036074105510518F48FEF9FEF42C1173F92
:1014100039F480E028178DE738074105410510F0C1
:1014200020E03DE72C8B3D8B26EDA22EE4E6F2E09A
:10143000E60DF11D859188608E87E4E6F2E0EB0D04
:10144000F11D859188608F87E1E6F2E0E60DF11DE0
:101450007590E1E6F2E0EB0DF11DC59090EC692A84
:10146000B92A81E0E82EF12C012D112D8E831F82E7
:10147000188619861A861B861C861D86188E198E5C
:101480001B8E1A8E0E94DE2488E088B960927C0050
:101490001DDE3F8537B975B874B852E05A95F1F73B
:1014A0000000000014B815B8DD243E8537B975B8C2
:1014B00074B860927C00A895A0927A0080917A001E
:1014C00086FDFCCF2090780030907900B0927C00AF
:1014D0004C2DE3D02091780030917900288B398B06
:1014E0003F8537B9C5B8C4B8A895B0927C00A09222
:1014F0007A0080917A0086FDFCCF6091780070912F
:10150000790060927C00472DC8D0409178005091BE
:10151000790014B8CB01820D931DE80EF91E011D50
:10152000111DEA82FB820C831D8388899989840FAF
:10153000951F2E813F8168857985280F391F611D90
:10154000711D2E833F836887798722E32417150650
:1015500048F075B874B8C4DD14B815B8888D839593
:10156000888F07C0483E73E0570718F08A8D83952F
:101570008A8F888999892817190658F03E8537B9C6
:10158000C5B8C4B8ADDD14B815B8898D8395898FF9
:1015900007C0883E73E0970718F08B8D83958B8F7B
:1015A000D3945D2D5F3F49F05F3731F45C2D550FCB
:1015B000C50E572D550F750E78CF409032015090C3
:1015C0003301440C551C9201E4E0240D351DEA95CD
:1015D000E1F72901570168016E807F808884998432
:1015E000209113012830C1F46C897D89812D912DC2
:1015F00065507040804090409B01AC010E943E3B92
:101600009B01AC0160E779E786E190E00E94803BB6
:10161000621A730A840A950AA614B704C804D90486
:1016200028F46A187B088C089D0803C06624772478
:101630004301B20180E090E09301A4010E943E3B8F
:101640009501A6010E94803B8BE193E07981870F91
:10165000911D0E94013D682EC90160E170E00E9469
:10166000593B260F371FC9016816190618F4861949
:1016700091090FC08C5E9F4F8615910540F48C89AF
:101680009D89843981E1980710F00E94D314812D3F
:10169000912D6E96E2E10C948A3C1092810010929A
:1016A000800010926F0010928B0010928A0057E019
:1016B00056BB5FEF509385005093840055E05093E4
:1016C0007B0056EB50937A0051E05093810058E232
:1016D0005A95F1F7000045B944B955E05A95F1F72C
:1016E000000014B815B81092810080917A0084FF30
:1016F000FCCF80937A000895CF93C82F1C161CF45A
:101700002CDCC150FBCFCF910895609335018093BD
:10171000030186958093A501660F660F660F60939F
:101720000401089580913501809301018091A50104
:101730008093020108958091020160910101880F58
:10174000E4CF0895682F80E0B6CB08958EEAFADFE3
:1017500085EAF8CF08958DE08DDC8AE08BCC089582
:101760001092A50160E080E0D0DFF5CF0895CF931F
:10177000DF93C0E080E1E6DF80E0E4DF8C2F806B68
:10178000E1DFD4E860E081E096DBD150D9F7CF5FAC
:10179000C83081F7E5DFDF91CF91089558985A98C6
:1017A0005B985D98509A529A539A559A94DC5D9A38
:1017B000559A5998519A84E195DC589A84E192DCC3
:1017C0008EEAC0DF82EEBEDF82EABCDF80EABADFEB
:1017D00080ECB8DF8FE2B6DF84E2B4DF81E8B2DF0D
:1017E0008AE193E00E94013D8F73ACDF80E4AADFC1
:1017F00084EAA8DF86EAA6DFBADF8FEAA3DF60E02B
:1018000080E083CF089581E08093A50160E082E0CD
:101810007CDFA1CF089582E08093A50160E084E0A1
:1018200074DF99CF089583E08093A50160E086E09E
:101830006CDF91CF08959091350180E1891B5CCFD9
:101840000895CF93C82FF7DF8091A5018F5F809314
:10185000A501843038F083E08093A50181E0809376
:10186000380102C0109238018091A5016C2F880FB9
:101870004CDF71DFCF910895E4DF1DD48091A50185
:10188000833008F068CF08956BDFD5DF69CF089506
:10189000BADFD1DFB8CF0895582F28E030E090E8C4
:1018A00041E080E0652F642309F0892B440F969571
:1018B00021503109B9F70895A0E0B0E0E2E6FCE07C
:1018C0000C946F3CEC0110E0C801860F911D81382B
:1018D00091050CF06CC0F12CE40EF11C31E4E31620
:1018E000F1040CF064C0742E76947694769481E0C2
:1018F000E81AF10893E0F594E7949A95E1F7E22F5E
:10190000E2704E2E21FF0DC0C7019927871991095A
:10191000809FA001819F500D909F500D1124C40FF6
:10192000D51FF7E0FE1510F487E0E82E862F82958C
:101930008F708061382E87E0F82EF7186F70662E52
:101940002170522EE71468F18F2D806BFBDE832D02
:10195000F9DE862DF7DE5E01A00EB11EC5014E0137
:10196000C817D907A9F09C012150310969015520F8
:1019700011F0F90101C0F4018491411001C08CDF24
:10198000682F81E098DAC601FFEF8F1A9F0AE8CF2F
:10199000442019F05E01A01AB10A7394FA94E5018B
:1019A000D1CF9091030187E0891B806BCBDECDB74F
:1019B000DEB7E1E10C948B3CEF920F93482F282F78
:1019C0002F7380E6289F90011124C90180519C4FFC
:1019D00046FF02C028E001C028E42093050147FF2C
:1019E00003C01092000108C020E220930001209162
:1019F00005012D5E2093050120E2E22E08E120E0A2
:101A0000409100016091050157DF0F91EF9008951B
:101A1000EF920F93262FFC016491319644913196F9
:101A200004913196E49030910001430F309105010B
:101A3000630F049641DF0F91EF90089560E0E8CFC7
:101A40000895EF920F93CF93C82F809135018F5F48
:101A50008093350140910301440F440F440F20E16E
:101A6000C29FC001112420E1E22E08E020E0609135
:101A700004018057994F20DF80910401885F809393
:101A800004018C2F90E0FC013197EE30F105E0F479
:101A9000EC5CFF4F0C94BE3B8EE305C08CE7EADAAA
:101AA0008CE313C08CE7E6DA8CE70FC082E50DC04B
:101AB0008DE20BC085E709C08FE4DCDA88E6DADA6C
:101AC0008DE603C08CE401C08C2FD4DAA895CF91A9
:101AD0000F91EF9008958F5CB4CF0895CF93DF936B
:101AE000EC018991882311F0ACDFFBCFDF91CF911E
:101AF0000895CF93DF93EC01CE010E94013D982F12
:101B00009F7719F09EDF2196F7CFDF91CF9108954F
:101B1000EF920F93FC0104913196E4900296CCDE93
:101B20000F91EF9008950F9380E891E0E2DF4091EC
:101B300085014D3F64F4609173017091740180914F
:101B400075019091760103E026E45BD002C08FE33B
:101B500078DF0F910895909112019F70923071F487
:101B60008BDE84E690E0C5DFE0913601F09137012D
:101B700022E04DE06FEF848195812CC108950F9391
:101B80001F93CF93DF93D82F162F042F80E074DE9E
:101B900088E691E0AEDFC0E08C2F9DDFE2D9E091D6
:101BA0003601F091370186858C1302C08D2F49DFF5
:101BB000E0913601F091370184858C1302C0812FAA
:101BC00040DFE0913601F091370185858C1302C02A
:101BD000802F37DFC2D9CF5FC330F1F6DF91CF91CD
:101BE0001F910F910895882331F091E0823009F020
:101BF00090E022E002C021E090E0892F90E0922B5B
:101C00000895AEE0B0E0E7E0FEE00C946E3C142FE7
:101C1000622E702E6B017C010F7080E389838A83B2
:101C20008B838C838D838E83F7FE0AC098D9F094C2
:101C3000E094D094C094C11CD11CE11CF11C04C0E0
:101C400075FE02C08BE2FDDE033071F0043099F0C6
:101C50000530C1F00630F1F0073021F174E6872E2F
:101C6000912CA12CB12C25C068EE862E63E0962E17
:101C7000A12CB12C1EC050E1852E57E2952EA12C2F
:101C8000B12C17C040EA842E46E8942EAA24A394CF
:101C9000B12C0FC030E4832E32E4932E3FE0A32E0C
:101CA000B12C07C020E8822E26E9922E28E9A22E28
:101CB000B12C9AE0292E312C412C512CC814D90476
:101CC000EA04FB0470F0C701B6016B5F7F4F8F4FD2
:101CD0009F4FA20191010E94803B69017A011F5F21
:101CE000EDCF81E1810F9BEA899F812D1124A82EE0
:101CF000A69486E0811B899F112D11241695912FA2
:101D0000990F190F811B182F4E0187E0880E911C27
:101D10002AE0A401C701B6010E94AD3CF401019084
:101D20000020E9F731977F01E818F9089E2C670138
:101D3000DD24812F90E004968C159D0514F4A39466
:101D40001D5F8A2D90E0845D9F4F0E94013DA82E6B
:101D500074FE04C0901610F40E1901C000E08E2C21
:101D6000811A800E181424F08EE26BDE012F0E19FA
:101D7000111102C088EF882E912C10E0C00ED11EE8
:101D8000E82C082C000CFF08892D90E08C159D058F
:101D9000ACF4FC013696E01BF10B81E090E08C0F77
:101DA0009D1FE80FF91F80814CDE9394892D90E0F0
:101DB0008E159F0549F78EE244DEE6CFAA2011F08A
:101DC0008A2D3FDE662011F0862D3BDE2E96E2E165
:101DD0000C948A3C0F93362FBC0180E090E0022FD8
:101DE000242F432F0EDF0F9108950F93062FBC0170
:101DF00080E090E026E54DEF04DF0F9108950F930A
:101E0000042F28E440E0FDDE8AE71BDEA6D80F9110
:101E10000895E82FF0E0EE0FFF1FE455FE4FA59167
:101E2000B49190910001490F90910501690F20E054
:101E3000CD016ECE0895CF93DF93C82FD62FE091BA
:101E40003601F091370148E16EE18685E2DFE091ED
:101E50003601F09137014D2F6C2F8485DADFE09148
:101E60003601F091370140E06EE18585D2DFDF91E8
:101E7000CF910895CF93DF937ADC80EC9DDD62E013
:101E800082EB91E0C5DD80E897DD87EE91E0D6DD5D
:101E900060E085E03ADC85E791E02BDE68E085E0F4
:101EA00034DC8DE691E025DE88E99AE3C8D05FDC7A
:101EB00083E482DD83E080DD80EF91E0BFDD61E0DF
:101EC00082E023DC8EE4BDDD4AD88FE891E011DEAC
:101ED00069E082E01ADC80E5B4DD41D88FE891E06A
:101EE00008DE88E99AE3ABD042DC81EC65DD81E86D
:101EF00063DD89E492E0A2DD60E085E006DC8EE44B
:101F0000A0DD2DD885E49DDD89E891E0F2DD68E073
:101F100086E0FBDB80E595DD22D885E492DD89E86B
:101F200091E0E7DD88E99AE38AD021DC81E444DDB1
:101F30008DE392E083DD81E03FDD89E192E07EDDAB
:101F400060E081E0E2DB8EE47CDD09D884E479DDC9
:101F500089E891E0CEDD68E082E0D7DB80E571DDE5
:101F60000E94AF0784E46DDD89E891E0C2DD88E975
:101F70009AE365D0FCDB82EC1FDD82E81DDD8FE09B
:101F800092E05CDD60E085E0C0DB8EE45ADD0E941B
:101F9000AF0785E456DD84E991E0ABDD68E086E0DB
:101FA000B4DB80E54EDD0E94AF0785E44ADD84E9BD
:101FB00091E09FDD88E99AE342D0D9DB82E4FCDC42
:101FC00089E092E03BDD82E0F7DC87EF91E036DDEF
:101FD00061E081E09ADB8EE434DD0E94AF0784E4A7
:101FE00030DD84E991E085DD69E082E08EDB80E52B
:101FF00028DD0E94AF0784E424DD84E991E079DDE7
:1020000088E99AE31CD0C0E08C2F8F7061F4DC2F3C
:10201000D295D37021F488E99AE311D0A8DB60E06F
:102020008D2F880F72DB8C2F0CDDCF5FC03861F7EE
:1020300088E99AE304D09BDBDF91CF910895EF927A
:10204000FF920F931F93CF93DF93F82EE92EC5E6EF
:102050004F9B05C0CF2DDE2D15E500E019C081E0B6
:1020600041D8C150A9F7F6CF82E03CD8110F4F9B61
:102070001F5F1F731F3379F4011103C0CF2DDE2DB5
:1020800004E00F5F083C88F4A8951C161D0644F078
:10209000D7FFEACF0AC01111F7CF0023A9F305C07B
:1020A0002A97B1F7CFEFDFEFF3CF802FCDB7DEB7B1
:1020B000E6E00C94963CCF9335DBC82F8091380135
:1020C0008823D1F0813051F4C33041F46FE086E0D1
:1020D0001CDB8BE2B6DC6FE086E017DB80E49FE17F
:1020E000AEDFC33041F480913801813021F460E0EB
:1020F00086E00BDBA0DB1FDBCF91089518951895C8
:1021000030911101A0913601B0913701E9E8F1E079
:1021100080E090E08317B0F441911C962C911C97BD
:10212000421719F04581241302C00196F3CFFC0138
:10213000EE0FFF1FEB56FE4F20813181293E3340C9
:1021400008F4089584E1089510921301109211018A
:1021500010926801109248011092120110923401FD
:1021600010926F01E3E5F1E0108211821282E3E741
:10217000F1E0108A82E0818B109219011786168691
:10218000148215821682178281EF838B08958FE463
:102190000E943A0886E40E943A0886E40E943A08BF
:1021A000DADAD4DA5E980E94500880E090E047CFF7
:1021B00008951F93CF93DF93162F98E097B998B99E
:1021C000E82FF0E0EF59FD4F949195B9262F281B89
:1021D000E20FF11D27FDFA95E491E92BE4B90E9485
:1021E000AA08EC01812F0E94AA08AC0120912901C4
:1021F00030912A0136952795C9010397BE01625E89
:102200007F4F8617970778F4255E3F4FC217D30795
:1022100050F4BA01625E7F4F8617970720F481E081
:102220004217530708F080E014B8DF91CF911F9157
:102230000895CF9361E080E0BCDFC82F62E080E0CA
:10224000B8DFC80F62E081E0B4DF8C0FCF91089552
:10225000AFE0B0E0EEE2F1E10C946E3CB82E1092EB
:102260001301807FA9F4E5DF833009F098C37FDA9A
:1022700082E592E03EDCC7DA8FE3E3DB80ED97E0B6
:10228000DEDE8B30C8F473DA85EF90E032DC87C392
:1022900006E910E06CDA81EC91E02BDCCADF8330D8
:1022A00021F41F5F143010F007C010E088E20E9494
:1022B0007208015079F760C0A6DA0E94BF2881EB4E
:1022C00090E017DC60E08DE193E00E940E3D60E05D
:1022D0008EE193E00E940E3D60E08CE193E00E946D
:1022E0000E3D60E082E063D86C019A83898361E0EF
:1022F00082E05DD87C019C838B8360E081E057D8CD
:102300008C019E838D8323E040E26EEFC60162DD87
:1023100023E040E26EEFC7015DDD23E04DE06EEFAC
:10232000C80158DD2AE5C216D10424F084E190E00A
:102330009A83898369818DE193E00E940E3D8AE54D
:10234000E816F10424F084E190E09C838B836B8198
:102350008EE193E00E940E3D0A35110524F084E1E0
:1023600090E09E838D836D818CE193E00E940E3D11
:1023700082E0809338019FDEEB2DEF70EF87E13034
:1023800011F018E749C1EE24E394F12C78EB872E85
:1023900072ED972E77E4A72EB12CE2E0DE2E08E056
:1023A000F0E23F2EC12C1E2D52E2252E71DA6CDA9E
:1023B00084E547DBC7010E94A2070E94AD071130E8
:1023C000B9F484EE90E095DB64E080912D0190916A
:1023D0002E010BDD18DA8FED90E08BDB809171011F
:1023E000909172010E94A2078EEB80932501F0C0AC
:1023F000123091F52091290130912A01A8E5BBE125
:102400000E94C43B24EC36E340E050E00E94A23B33
:1024100029013A0181E085B9F5E0F4B980E00E9434
:102420009E08841995099A83898381E184B980E0A3
:102430000E949E08841995099C838B8384E085B94A
:1024400084E184B981E00E949E08841995099E83E5
:102450008D8389EC90E0AAC0133059F5D5B82AE0F5
:1024600024B980E00E949E082091290130912A0120
:102470003695279538872F83821B930B9A83898300
:1024800024B880E00E949E082F813885821B930B20
:102490009C838B8305B988E284B981E00E949E0801
:1024A0002F813885821B930B9E838D838BEB90E06D
:1024B0007DC0143039F482E492E01BDBBADE811176
:1024C0006BC275C01530B1F415B8D4B880E00E9465
:1024D0009E089A83898304B981E00E949E089C83A8
:1024E0008B8334B882E00E949E089E838D838BED9F
:1024F00090E05CC0163051F5D4B8D5B880E00E94A9
:102500009E082091290130912A01821B930B9A8306
:10251000898304B905B981E00E949E0820912901B0
:1025200030912A01821B930B9C838B8334B835B87E
:1025300082E00E949E082091290130912A01821B8D
:10254000930B9E838D8387ED90E030C0173079F533
:102550002091290130912A01A8E5BBE10E94C43BEA
:10256000A50194010E94803B29013A01D5B8E3E01E
:10257000E4B980E00E949E08841995099A838983B2
:1025800005B9FCE0F4B981E00E949E088419950920
:102590009C838B8335B820E324B982E00E949E0897
:1025A000841995099E838D8385EB90E0A2DA2BD95F
:1025B00089819A810E9497070E94AD078B819C8137
:1025C0000E9497070E94AD078D819E810E94970708
:1025D00007B908B914B815B888EE93E030DD1430A7
:1025E00011F08B3020F4C39484E0C812DFCE88EE63
:1025F00093E025DDEFEFEE1AFE0AF8E0EF16F104A6
:1026000009F0D0CEBECE44D982E492E072DA84E6FC
:102610000E947208115019F00CDE8111F4CFA7D876
:102620008AEA90E066DA23E04DE06FEF80912B01BB
:1026300090912C01CFDBE7D883EA90E05ADA23E0CF
:102640004DE06FEF8091320190913301C3DB82E066
:102650008093380130DD1092130189D88FE990E022
:1026600048DA60E082E00E94AE2540907B01509005
:102670007C0160907D0170907E015C864B8661E0FC
:1026800082E00E94AE2580907B0190907C01A0901A
:102690007D01B0907E019E868D8660E081E00E9483
:1026A000AE2500917B0110917C011E830D8362E0B9
:1026B00080E00E94AE2580917B0190917C019C83FB
:1026C0008B8362E081E00E94AE2580917B01909136
:1026D0007C019A87898761E080E00E94AE25E090C6
:1026E0007B01F0907C01FA82E982C2010E94AC0772
:1026F000C4010E94AC07B801110F880B990B03E0CD
:1027000026E444EF7EDA2F85213021F080913101DB
:10271000823031F482E0E80EF11CF886EF8204C0CA
:10272000F886EF82109231018E010F5F1F4F6E010C
:10273000EFE0CE0ED11CF801819191910A97853B73
:102740009105C8F4EC15FD05B9F74CE3E42E43E020
:10275000F42EF80160810E5F1F4F6E5EC7010E946C
:102760000E3DFFEFEF1AFF0A0C151D0591F74BD830
:1027700085EA91E0BED982E0809338019CDC0E941A
:10278000E3372F85213029F080913101823009F023
:10279000ECC00E94B70B80E09ED98BE491E0A9D9F0
:1027A00082E099D984E290E0A4D920E4F22E10E0EE
:1027B0003AE0832E912CA12CB12CC6DC109213018F
:1027C00060E082E00E94AE250091850120917301B6
:1027D000309174014091750150917601073F44F4A6
:1027E0000F5FCA01B901A50194010E94803BF6CF99
:1027F0000093850120937301309374014093750118
:1028000050937601073F09F098C0DA01C90180565C
:102810009109A109B10980399545A105B10508F0D3
:102820008CC06091870170918801CB018B569F4FBE
:102830008B32914008F081C01F5F153008F47EC0D4
:1028400083E493E00E941C3D0E94B70B8DE190E071
:1028500050D980918701909188010E9497070E942A
:102860001C0988E088B989E087B980E284B982E0F0
:102870000E94AA08853D9340D4F714B8109228010D
:102880001092270182E00E94AA088C0180916D01BC
:1028900090916E01909328018093270182E00E941D
:1028A000AA087C01EE0CFF1C10922801109227014F
:1028B00082E00E94AA08A0906D01B0906E01B092D3
:1028C0002801A0922701800F911F8C010E191F096A
:1028D0000E94030C86E190E00CD985E493E00E940D
:1028E000013DD82E9501D8010E94D33B97010F2CB2
:1028F000000C440B550B0E94A23B13E01D0D120F60
:10290000612F85E493E00E940E3D812F012E000C83
:10291000990B0E9497070E941C0982E0809338015E
:10292000CADB109231018CE393E00E94013D682FD5
:102930008FE393E00E940E3D18C010E00E94030C4C
:10294000609173017091740180917501909176018D
:1029500004E026E44091850154D90E941B0C88E2D2
:102960000E947208FA94F11028CF89E18093250122
:1029700080E00E94F83A0E94B70B85EF90E0B9D84A
:102980000E94030C89E392E0B4D81092130182E014
:102990008093380190DB03C082E0C82E08CE2F96CA
:1029A000E2E10C948A3C8091310181110DC08CE3ED
:1029B00093E00E94013D61E0680F8FE393E00E9485
:1029C0000E3D81E0809331010895EF92FF920F93C5
:1029D0001F93CF93DF93D62FE82FF0E0EC59FD4FF4
:1029E000E491E8B9E860E7B915B8E62FF0E0EF59EF
:1029F000FD4FE491E4B988E8E82E83E1F82ECE2F6C
:102A0000CC0F8D2F0E949E088C01C4B98E159F0596
:102A100010F47801F6CF892BE1F00E94130C8BE2C1
:102A200091E067D8D80120EA36E841E050E00E9402
:102A3000D93B28E937EB40E050E00E94803BDA01C7
:102A4000C90122E041E467EFC5D988E087B988B9B8
:102A500014B8CDB7DEB7E6E00C94963CA0E0B0E049
:102A6000E4E3F5E10C946E3C80E48AB98BB9C6E8E6
:102A7000C0937A001092C1000E945208D4B784B764
:102A8000877F84BF0FB6F894A89580916000886115
:102A900080936000109260000FBEC093640088E3D2
:102AA00080937E001092B00087E08093B10078940C
:102AB0000E94CE0BD3FD99C580E185BFC0E04F9940
:102AC00006C082E00E947208CF5FCC33C1F78FE569
:102AD0009DE690930C0180930B01CF3130F080E69E
:102AE0009DE690930C0180930B01109226010E94A9
:102AF000BF289FE088E10FB6F894A8958093600006
:102B00000FBE90936000CC3399F038E0932E40E1F3
:102B1000842E58E1752E69E5E62E61E0F62E7DE003
:102B2000272EE0EF3E2EF3E36F2EA1E25A2E37C0A0
:102B30000E94FB318111FCCFE8CF823009F458C1EB
:102B4000833009F482C18DE992E00E94790D85E815
:102B500092E00E94790D0E94030C80911101805D2A
:102B60000E94210D8AE20E94210D87E291E00E94DD
:102B7000790D8BE692E00E94790D0E94AB0B86E006
:102B80000E94DC0C80E49FE177B84F9BFECF57DAC0
:102B9000823308F4C0C40E94FB318111FCCF8FEA5C
:102BA0000E94A20B84EA0E94A20B0E94B70B97B866
:102BB000CBDA0E94BF280E94B00B29D58091340146
:102BC000882379F00E94030C80E491E00E94790D43
:102BD00063E08091290190912A0107D988EC0E9435
:102BE00072080E94030C0E94DE2480911301893038
:102BF00021F50E94B70B85E491E00E94790D0E94B7
:102C0000030C63E080914D0190914E01EED80E943B
:102C1000AD0763E080914F0190915001E6D80E948A
:102C2000AD0763E08091510190915201DED88AECAA
:102C30000E94720881E10CDB69C48FE393E00E947B
:102C4000013DC82F8CE393E00E94013DC81BC09357
:102C5000310180E0FDDA0E94480C87EB92E00E948F
:102C6000790D83E00E943A080E94AB0B42E061E0DC
:102C700080E03ED542E060E081E03AD541E062E0AC
:102C800080E036D541E060E082E032D540E062E0AD
:102C900081E02ED540E061E082E02AD580911301E9
:102CA00081110EC00E94DE2460E082E00E94AE2509
:102CB00061E082E00E94AE2560E081E00E94AE25E6
:102CC0000E94B70B89E391E090933701809336011E
:102CD00080911301863069F485EC0E94DC0C60E180
:102CE00088EFA9D866E080E00E94850B8EE892E02C
:102CF0000EC08730E9F484EC0E94DC0C60E188EFC0
:102D00009AD866E080E00E94850B87E992E00E94F5
:102D1000790D66E082E00E94850B89E591E00E94D2
:102D2000790D62E080913D0190913E015ED8ECC347
:102D3000883081F4209183018091840190E0820F9A
:102D4000911D029719F40E941A2BE7C380E00E949C
:102D50004D2ADCC3833009F0B4C080911101813069
:102D600009F0EBCE80E00E940E086091890180910D
:102D70008F012BDE80E70E94E60740E06091890129
:102D800080918F010E9405376093730170937401E5
:102D9000809375019093760180E00E943C0C6091D5
:102DA000730170917401809175019091760102E038
:102DB00026E442EF0E94010E0E94AF0741E06091BD
:102DC000890180918F010E94053760937301709390
:102DD0007401809375019093760126E442EF0E947E
:102DE000010E8DE191E00E94790D0E94AB0BEFC2C4
:102DF00082E30E94210D8DE091E00E94790D909177
:102E0000890130918A01931307C080E00E942A084B
:102E100081E00E9421080CC020918F0180919001D7
:102E2000281308C080E00E941A0881E00E9431083F
:102E300081E0A1CF321304C081E08093060134C049
:102E4000981381CE809206012FC060920601809176
:102E50008F0190918A01891303C021E0209306011C
:102E60004091890130919001431302C08092060184
:102E700020918B01821303C082E080930601809130
:102E80009101481303C040E24093060132130FC082
:102E900022E120930601981761F083E30E94210D3F
:102EA0008DE091E00E94790D0E94FC0790C298137A
:102EB00002C05092060180910601823208F043CE92
:102EC000ECCF843009F053C180916801882309F464
:102ED0005EC080914801882309F459C06091450182
:102EE000809147010E94AE25A0907301B0907401BB
:102EF000C0907501D0907601C09185016091670105
:102F0000809165010E94AE258091390190913A012E
:102F1000A0913B01B0913C014091590150915A015F
:102F200060915B0170915C01843F21E09207A105F3
:102F3000B10538F4443F21E052076105710508F0FE
:102F4000C0EF443F51406105710538F4843F914022
:102F5000A105B10510F03092850180918501C8135B
:102F60000EC08091730190917401A0917501B09190
:102F70007601A816B906CA06DB0618F005C0C81700
:102F80001CF42092120103C08CE080931201809106
:102F90006801882361F080914801882341F04F99AE
:102FA00006C09091120181E089278093120166E0AA
:102FB00080E00E94850B80EC0E94DC0C8091120165
:102FC0008C3051F485E791E00E94790D8091680181
:102FD0008823A9F080E711C0F0923701E092360112
:102FE00087EE91E00E941E0D8DE691E00E94790D22
:102FF00080914801882319F08EE60E94210D80D827
:10300000C82F8530A0F4A0913601B0913701E82F88
:10301000F0E0E757FE4F1D969C918081981711F0C4
:1030200062E001C060E082EB91E00E94080D60E187
:1030300089EF0E941B0F86E00E94210C84E891E03A
:103040000E94790DE0913601F09137016081718124
:103050008281938103E020E04EEF0E94010E87E021
:103060000E94210C89E40E94210DE0913601F0912B
:103070003701868197818031974270F085E60E9402
:10308000210DE0913601F0913701868197818051C1
:1030900097429783868303C083E60E94210D0E9496
:1030A000B107E0913601F091370122E041E46AEF87
:1030B000868197810E94EA0E86E00E94210C8DE5B0
:1030C00091E00E94790DE0913601F091370163E0C3
:1030D000848195810E94F50E81E080933801E09112
:1030E0003601F091370180859185892B91F085E03B
:1030F0000E943C0C8FEE90E00E94790DE091360129
:10310000F091370122E041E46AEF808591850E94C9
:10311000EA0EE0913601F091370182859385892B83
:1031200091F085E00E943C0C89EE90E00E94790DC0
:10313000E0913601F091370122E041E46AEF8285A7
:1031400093850E94EA0EC53078F480E00E943C0C22
:103150008C2F0E940E0889E591E00E94790D8C2F3A
:103160000E94D8070E94AB0B43E462E42CC1853077
:1031700009F039C166E080E00E94850B8091120160
:1031800084FF09C080E50E94210DF0923701E09292
:103190003601C2E004C08EE40E94210DC0E00E940E
:1031A000AF0780911201D82FDF70D43061F48FE81F
:1031B00091E00E94790D83EC0E94DC0CCC23E1F1BC
:1031C00080EF91E037C085FF05C084E40E94210DA7
:1031D000CF5F03C085E40E94210DD330B1F489E8AC
:1031E00091E00E94790D81EC0E94DC0CC13019F451
:1031F0008DE392E01FC0C23019F489E492E01AC056
:10320000C330D1F489E192E015C084E991E00E94D5
:10321000790D82EC0E94DC0CC13019F489E092E057
:1032200009C0C23019F48FE092E004C0C33021F429
:1032300087EF91E00E941E0D0E9480108530A0F45F
:10324000A0913601B0913701E82FF0E0E757FE4F2B
:103250001D969C918081981711F062E001C060E09A
:1032600082EB91E00E94080D60E189EF0E941B0F44
:1032700086E00E94210C8091120185FD1CC085E52D
:1032800091E00E94790DE0913601F091370162E002
:10329000828593850E94F50EE0913601F091370109
:1032A000668584850E94AE2586E00E94210C0E94DE
:1032B000930D85E068C08F70E0913601F091370181
:1032C000843039F0668584850E94AE250E94930D76
:1032D00013C084819581892B79F080E090E00E9471
:1032E000790DE0913601F091370122E041E46AEF77
:1032F000848195810E94EA0E60E084E00E94850B43
:1033000089E40E94210D0E94B107E0913601F091FD
:10331000370122E041E46AEF868197810E94EA0E3C
:103320008FE491E00E94790DE0913601F091370130
:1033300062E0828593850E94F50EE0913601F0915E
:10334000370180859185803C9241E0F480E00E94C5
:103350003C0C89E40E94210D0E94B10722E041E467
:103360006BEF80E090E00E94EA0E8FE491E00E9413
:10337000790DE0913601F091370162E08085918509
:103380000E94F50E80E00E94AB0DD43009F425C1F7
:10339000C0E080911101C81788F480E00E943C0CC5
:1033A0008C2F0E940E0889E591E00E94790D8C2FE8
:1033B0000E94D8070E94AB0BCF5FEBCFD33009F050
:1033C00010C143E467E485E40E94BF0D9DC00E94E4
:1033D000AB0B80916F01882309F498C077B897B838
:1033E00080E00E943C0CD0916F01DD2309F47FC086
:1033F000D130A1F4809156010E94F30D2091560125
:10340000213039F420911101211103C00E94D52AE5
:1034100084C040E0692F0E94902978C090915601A5
:103420008091570124E0829FD0011124AA55BE4FFC
:1034300024E0929FF0011124EA55FE4F0D911D9159
:103440002D913C91408151816281738140175107D8
:103450006207730710F4C82F01C0C92FD23021F4BE
:10346000890FC3E0C81B1CC08091580194E0899F5C
:10347000D0011124AA55BE4F24E0C29FF0011124AF
:10348000EA55FE4F0D911D912D913C914081518146
:1034900062817381401751076207730708F4C82FD0
:1034A0001C2F1695D2E0DC1BC11102C001E001C047
:1034B00002E0812F0E946B0D88E091E00E94790D5F
:1034C0008D2F0E946B0D88E091E00E94790D802F76
:1034D0000E946B0D80E00E94210C81E0C11180E010
:1034E0000E94B30782E0811B0E94B3070FC085E7EB
:1034F00092E00E94790D0E94030C82EA92E00E9401
:10350000790D8DE992E037CB0E94AB0B80910B01D6
:1035100090910C0139CB811142CB809131018823EC
:1035200009F458C0D4E000E010E080E090E020E131
:10353000422EFC01E00FF11FE959FD4FC491C0324A
:1035400009F4482E01968131910599F7DD2339F070
:103550008D2F8370B82E51F40E94B70B07C080E204
:103560009EE40E941F10882399F330C060E08B2DE9
:10357000880F0E94850B0E94AB0BA895DF5FD3706C
:10358000A12CB12CA414A0F4F801EA0DFB1DE959FB
:10359000FD4FC491CC23D1F0CF3F19F40E94AD0769
:1035A00003C08C2F0E94210D9FEFA91AB90AEACF00
:1035B000CC2361F0040D111DF801E959FD4FE49190
:1035C000E03209F0B2CF0F5F1F4FAFCF80E29EE431
:1035D0000E941F100E94C710E2CA4FE367E48FE306
:1035E000F3CE44E467E483E5EFCE0E94B00B82E6BD
:1035F00092E00E94790D8BEC0E9472080E94C71025
:1036000080E090E0CDB7DEB7E2E10C948A3C0F9306
:103610001F93CF93DF9385E00E94AA0885E00E9464
:10362000A6088C01EC012596CC0FDD1F10922F010E
:10363000C43883E0D80750F489E991E00E94790DFD
:103640000E941B0C81E080932F0126C088EA91E044
:103650000E94790D62E0CE010E94F50E0E94AD0736
:103660000C3D85E0180790F40837154060F48BEAAC
:1036700092E00E94790D0E941B0C8DEC0E94720852
:103680000E94C71009C082EB92E002C085EA91E077
:103690000E94790D0E941B0CDF91CF911F910F9119
:1036A0000895CF93DF93DC019C01261B370BE0E0EC
:1036B00090E0B901690F711D672F7727920F260FD0
:1036C000371FBA016E0F711D672F7727E40FEB01CB
:1036D000CC0FDD1F4C0F5D1F6B3E28F4A217B30704
:1036E00040F7CA0102C080E090E0DF91CF910895D9
:1036F000A8E1B0E0EEE7FBE10C946E3C582E462EBC
:10370000342EA895E62FF0E0EF59FD4F24912C8739
:10371000220F2B8B339634913A8BE42FF0E0EF5944
:10372000FD4F44914983339654915F83E82FF0E035
:10373000EF59FD4F2490822D880F8F8733969491F7
:103740009B8398609C8338603A8345B9AC84A42AF3
:10375000A4B897B9EB81E8B9862F0E94A6089E8786
:103760008D87FC85F4B9842D0E94A6083C0114B80D
:103770000E945B0815B8A4B8842D0E94A6086D8528
:103780007E850E9408096C012A8127B988E088B9E2
:10379000398132293D8335B934B9852D0E94A60877
:1037A0000E940E097C0115B80E945B0825B8852D82
:1037B0000E94A6080E940E098C0124B8852D0E9443
:1037C000A6080E940E09B82E9987B801C7010E9469
:1037D0000809803241E0940730F450E2C51651E008
:1037E000D50608F4B6C5C00ED11EED85FE858E0F38
:1037F0009F1FC816D90620F41E870D876B2C79846D
:103800002091480130916801822F90E0830F911D33
:1038100002974CF0213009F09CC5909145018091B0
:103820006501981396C5F981FF0FF88FF229FB8780
:103830002D853E852437310508F4A5C1C901880FBF
:10384000991F44966816790608F09DC13C8137B9E6
:103850004B8148B98C85588D852B84B9842D0E9465
:10386000A2088C01832D0E94AA087C01888D85B94D
:10387000842D0E94A2089801295A3D4F2817390724
:1038800008F0B4C088E088B99A8197B9EB85E4B9AB
:10389000E5B9832D0E94A20888349F4028F085E076
:1038A0008093130182E204C085E08093130184E2D7
:1038B0008093120110933E0100933D01B701C801AE
:1038C0000E94130990934401809343019801A0E161
:1038D000B7E20E94C43B20910D0130910E0140E0FF
:1038E00050E00E94803B3093400120933F018B8940
:1038F000288D822B84B915B83C8137B94B8148B9E2
:10390000832D0E94AA088C01842D0E94A208B80170
:103910000E9413099C019093420180934101909170
:1039200012019F70943081F540913F015091400108
:103930006091430170914401C901B3DE009701F128
:10394000588D54B9EA898C81E82BE7B9842D0E94FF
:10395000A2088C0188E087B99801A0E1B7E20E9433
:10396000C43B209132013091330140E050E00E948D
:10397000803BA901B801809141019091420191DE03
:1039800090933E0180933D01809112018F708430AD
:1039900009F4D6C488E088B99F81EA819E2B97B943
:1039A00024B8FD81F5B9852D0E94A6088C010E94DE
:1039B0000E099E838D83842D0E94AA08E090140135
:1039C000F0901501BC01C8010E9413099701DC01A8
:1039D0000E94C43BED81FE819F0140E050E00E94C7
:1039E000803B30933E0120933D01AAC488E088B912
:1039F000FA81F7B92B8524B925B9852D0E94A20833
:103A00008C01832D0E94AA087C0125B8852D0E9477
:103A1000A208895A9D4F8017910708F09AC43B81EC
:103A200038B94C8147B9832D0E94A208813D93404B
:103A300028F485E08093130182E304C085E080933D
:103A4000130184E380931201B801C7010E94130996
:103A50009093640180936301C8010E940E099C0148
:103A6000A0E1B7E20E94C43B2091140130911501FE
:103A700040E050E00E94803B3093600120935F0162
:103A8000F8E0FF2EF8B88A8187B98F85988D892B49
:103A900084B985B9852D0E94AA088C01832D0E94C6
:103AA000A208B8010E9413099C01909362018093BF
:103AB0006101909112019F709430A1F540915F01D6
:103AC000509160016091630170916401C901E9DD69
:103AD000009721F1E88DE5B9E4B9FB81F8B9EC81F3
:103AE0002A81E22BE7B9852D0E94A2080E940E09C7
:103AF0008C01F7B89C01A0E1B7E20E94C43B209181
:103B00002B0130912C0140E050E00E94803BA90144
:103B1000B8018091610190916201C3DD90935E01D3
:103B200080935D01809112018F70843009F4E0C1AF
:103B3000EB813F81E32BE8B94C81342B37B915B8C1
:103B40005D8154B9852D0E94A6087C01842D0E94B8
:103B5000AA089E838D8300910D0110910E01BC0176
:103B6000C7010E9413099801DC010E94C43BED814A
:103B7000FE819F0140E050E00E94803B30935E0157
:103B800020935D01B5C188E088B9FA81F7B925B8FD
:103B90002B8524B9852D0E94A608998B888B0E94BD
:103BA0000E0998878F83832D0E94AA089A87898798
:103BB000430134E6830E911C4F815885B30184166E
:103BC0009506D8F4CA010E9413098C0120911401B2
:103BD0003091150140E050E060E871EA83E09CE13B
:103BE0000E94803BD8010E94D93BE985FA858F016C
:103BF00020E030E0A901980123C08F8198850E94C0
:103C000013098C01FD81F4B9852D0E94A608998BBA
:103C1000888B0E940E0998878F83832D0E94AA08A3
:103C20009A878987BC01C8010E9413099C01A4E6F8
:103C3000B0E00E94C43BE985FA859F0140E050E076
:103C40000E94803B69017A0114B815B8FB81F8B96C
:103C50002C8127B981E00E947208A4B8842D0E94AB
:103C6000A608BC84388DB32A8F359D4008F446C120
:103C7000B4B8842D0E94A2088C01832D0E94AA084A
:103C80009D8B8C8B852D0E94AA089F8B8E8B8C8997
:103C90009D89813D974008F4B7C084E0809313016B
:103CA0008DE0809312016016710630F49801261998
:103CB00037093E832D8302C01E830D8380900D0142
:103CC00090900E01A12CB12C60E871EA83E09CE198
:103CD000A50194010E94803BAD81BE810E94D93B29
:103CE000EC89FD899F0140E050E00E94803B80917B
:103CF0006801882369F08091590190915A01A0913F
:103D00005B01B0915C0182179307A407B50708F522
:103D10002093590130935A0140935B0150935C0109
:103D20009801A0E1B7E20E94C43BA50194010E9462
:103D3000803B3093600120935F016C897D898E897F
:103D40009F890E94130990935E0180935D0181E039
:103D500001C080E04091590150915A0160915B018E
:103D600070915C014C155D056E057F0538F5C092BC
:103D70005901D0925A01E0925B01F0925C01698591
:103D80007A85888999890E94130990935E018093AE
:103D90005D012F813885A0E1B7E20E94C43B2091EC
:103DA00014013091150140E050E00E94803B205FFB
:103DB000384D3093600120935F0103C0882309F4DC
:103DC000B1C3C0900D01D0900E01E12CF12C9301F4
:103DD000A0E1B7E20E94C43BA70196010E94803B8C
:103DE00030936201209361012D853E85A0E1B7E209
:103DF0000E94C43BA70196010E94803B309364015E
:103E00002093630181E08EC3F1E66F16710408F020
:103E100075C0013D27E0120708F470C085E080936B
:103E2000130182E180931201C80186509F4F4E8991
:103E30005F898417950720F483E18093120119C0EC
:103E400080910D0190910E019E838D83B8018E8922
:103E50009F890E9413092D813E81DC010E94C43B91
:103E6000980140E050E00E94803B30935E01209337
:103E70005D019A899770E92E832D806480937C0080
:103E8000EBE0FE2EE1E0F0E0FE83ED830FEF13E0C8
:103E9000A89561E089817AD5B4B886B18E21E9F31D
:103EA000FC85F4B980917A00806480937A008091D7
:103EB0007A0086FDFCCF809178009091790098017E
:103EC000281B390B4D815E81420F531F5E834D834A
:103ED000FA94F110DDCFCA01880F991F880F991F3E
:103EE00069E070E00E94593B709364016093630144
:103EF000809168018F5F8093680184CFB4B8588D3A
:103F000055B9842D0E94A6086C01832D0E94AA0831
:103F100098878F830E940E099A8789878C149D0445
:103F2000A8F4B301C6010E9413098C0120910D0170
:103F300030910E0140E050E060E871EA83E09CE1DE
:103F40000E94803BD8010E94D93B1FC0A4B8F981D0
:103F5000F5B9842D0E94A6086C01832D0E94AA0841
:103F600098878F830E940E099A878987C6016C14EF
:103F70007D0410F48619970969857A850E941309D2
:103F80009C01A4E6B0E00E94C43BE985FA859F014C
:103F900040E050E00E94803B49015A01FA81F7B9A4
:103FA00088E088B92D8124B925B9852D0E94A608FD
:103FB0008C01832D0E94AA089A878987842D0E94EC
:103FC000AA087C01003331E1130708F0BFC125B80E
:103FD000852D0E94A608998B888B24B8852D0E9478
:103FE000A6089D8B8C8B15B881E00E94720825B8BD
:103FF000852D0E94A6084C895D894034564008F002
:104000005DC08133914108F459C0C8018A569F4F61
:10401000288939892817390708F050C086E080932D
:104020001301809148018F5F80934801B701898512
:104030009A850E94130990933E0180933D01B70138
:10404000C8010E941309909344018093430114B85E
:1040500015B83A8938B981E00E94720824B8852DD4
:104060000E94A608853F910508F06AC24D8144B9B7
:10407000832D0E94A608813D934008F461C2852DDE
:104080000E94AA088D3D924008F45AC224B8852D9A
:104090000E94A6088D3D924008F452C225B881E0E6
:1040A0000E94720815B8852D0E94A608853F9105CB
:1040B00008F046C287E08093130142C22A8127B9E3
:1040C000398134B935B981E00E9472084B8544B911
:1040D00045B9852D0E94A6088C010E940E09998B76
:1040E000888B832D0E94AA089E838D830E940E09CF
:1040F0009A878987842D0E94AA087C0189859A85E0
:104100008E3F994008F4B2C084E0809313018CE0A4
:1041100080931201B301888999890E9413098C0147
:10412000209114013091150140E050E060E871EAFF
:1041300083E09CE10E94803BD8010E94D93BE98545
:10414000FA859F0140E050E00E94803B8091480149
:10415000882369F08091390190913A01A0913B0147
:10416000B0913C0182179307A407B50728F5209367
:10417000390130933A0140933B0150933C01B70120
:104180008D819E810E94130990933E0180933D0191
:1041900028893989A0E1B7E20E94C43B209114012B
:1041A0003091150140E050E00E94803B3093400187
:1041B00020933F0181E001C080E04091390150919E
:1041C0003A0160913B0170913C01481559056A051F
:1041D0007B0528F58092390190923A01A0923B012B
:1041E000B0923C01B6018F8198850E94130990938B
:1041F0003E0180933D019601A0E1B7E20E94C43BDD
:1042000020910D0130910E0140E050E00E94803B72
:10421000205F384D3093400120933F0103C0882335
:1042200009F48FC19301A0E1B7E20E94C43B209141
:104230000D0130910E0140E050E00E94803B309330
:104240004201209341012D853E85A0E1B7E20E9405
:10425000C43B209114013091150140E050E00E94D0
:10426000803B30934401209343016AC1F1E66F160D
:10427000710408F06BC02889398929343D4008F45D
:1042800065C085E08093130182E080931201C7012D
:1042900086509F4F8017910720F483E0809312018E
:1042A00017C0C0901401D0901501B701C8010E9439
:1042B00013099601DC010E94C43BE889F9899F013A
:1042C00040E050E00E94803B30933E0120933D014E
:1042D0000B810770832D806480937C001BE021E0BC
:1042E00030E03E832D83A89560E089814FD33B85E4
:1042F00034B935B986B18023E9F724B880917A00C2
:10430000806480937A0080917A0086FDFCCF809152
:104310007800909179004D815E81480F591F5E832E
:104320004D83115001F7CA01880F991F880F991FFB
:1043300069E070E00E94593B70934401609343012F
:10434000809148018F5F80934801FAC088E087B967
:1043500088B914B815B888E087B957EC651651E0EC
:10436000750608F4D0C088B98F8584B998EC9D8310
:10437000EC81FA81EF2BEF832F8127B981E00E9436
:1043800072083A8137B9852D0E94AA08429728F011
:104390004D8141504D834111EFCF5F8554B955B9DF
:1043A00061E08981F3D2852D0E94A6086C018B897A
:1043B00084B915B89C8197B9EB81E8B960E089812F
:1043C000E5D2842D0E94A6080E940E099E838D834B
:1043D000FC85F4B9842D0E94AA088C01852D0E94C9
:1043E000A608B8010E9413097C01842D0E94AA0826
:1043F0008C01852D0E94A608B8010E94130997011F
:104400002C5E3F4F2817390708F480C088E088B930
:104410002A8127B924B825B861E08981B7D2842DD3
:104420000E94AA088C01852D0E94A608B8010E944E
:1044300013098C01E816F90658F43F8534B935B9EB
:10444000852D0E94A6089C01CD82DE82780110C0D5
:104450004B8944B915B85C8157B98B8188B960E044
:10446000898194D2842D0E94A6080E940E099C0185
:1044700098EEE91693E0F90630F4C70164E670E0BF
:104480000E94593B06C0B70154E0769567955A954E
:10449000E1F7C7018759910989389141A0F52E1597
:1044A0003F0588F58D819E8143E0969587954A95D5
:1044B000E1F7893C910510F088EC90E02D813E8178
:1044C000820F931F8E159F05F0F462177307D8F4BF
:1044D00080911301833018F483E0809313012091BD
:1044E0001101822F90E0FC01E757FE4F5082468277
:1044F000880F991FFC01EB56FE4FF182E0822F5F7F
:104500002093110103C0642D852D29D088E087B93F
:1045100088B914B815B88EE20E94210D6896E2E1C0
:104520000C948A3C909168019F5F90936801882366
:1045300069F3309265014092660150926701E6CFBF
:1045400081E0909148019F5F909348018823F1F2A8
:10455000309245015092460140924701D7CFA0E0EA
:10456000B0E0E5EBF2E20C94703CA895462F50E0E9
:10457000FA01EF59FD4F949033969491A82FB0E033
:10458000FD01EF59FD4FE4903396F490709168016E
:104590002091480130E0270F311D232B09F0F1C194
:1045A000A8952091170130911801220F331F220F77
:1045B000331F30932A012093290120916D013091FE
:1045C0006E01220F331F220F331F309328012093D7
:1045D00027012EEB20932501C0911101E9E8F1E0BC
:1045E00070E04A0F5B1F7C1759F02191A58130E0E4
:1045F0002A0F311D2417350709F456C07F5FF3CF0A
:10460000D62FC82F88E088B9E92FE860E7B9E4B869
:10461000E5B8B8E1BB2EC12CD12C8D2F0E94A60885
:10462000782E692E8C2F0E94AA088C018C199D0966
:1046300097FF03C0919581959109039734F0A89550
:10464000BA946801B110E9CF2FC0EE0C15B8E4B8E8
:104650008C2F0E94A6088135910530F5E5B88C2F86
:104660000E94A6086C018F2D886087B9F8B815B82C
:1046700094B8A8E18A2EA12CB12C8C2F0E94A608F8
:10468000582E492E8D2F0E94AA087C018A199B0959
:1046900097FF03C09195819591090397CCF0A89558
:1046A0008A9457018110E9CF8091170190911801E8
:1046B00090932A018093290180916D0190916E0160
:1046C000909328018093270189E18093250159C1A6
:1046D000990C94B88D2F0E94A6085C01003C84E4DC
:1046E000180730F425E8C21621E0D206E8F605C026
:1046F00080EBC8168DE4D806B8F624EAE21622E06C
:10470000F20608F06CC088E9A816B10468F2C60188
:104710000E940E09AC019601A8E9B7EB0E94C43BC8
:104720009A0140E050E00E94803B29013A01C50116
:104730000E940E099C01A8E9B7EB0E94C43B8501C9
:1047400020E030E0A90198010E94803B88E7C8166C
:104750008FE0D80680F4D301C201F2E0880F991FE0
:10476000AA1FBB1FFA95D1F7BC01CD01620F731FC1
:10477000841F951F14C088E7A8168FE0B806B0F410
:10478000DA01C901E2E0880F991FAA1FBB1FEA9551
:10479000D1F7BC01CD01640D751D861D971D25E067
:1047A00030E040E050E00E94803B0CC0D301C201E9
:1047B000820F931FA41FB51F9C01AD01569547950D
:1047C00037952795A4E6B0E00E94D93B2B013C0128
:1047D0002CEA420E2DE0521E611C711C79C0672D1F
:1047E000762D0617170708F4B801C52CD42CCE1463
:1047F000DF0408F467010617170708F48B01A0907F
:104800001401B0901501C8010E9413099501DC0143
:104810000E94C43B2B013C01C8010E940E099C016F
:1048200040E050E0C301B2010E94803B29013A01FF
:10483000CE14DF0408F47601A0900D01B0900E01B3
:10484000B701C6010E9413099501DC010E94C43B17
:104850004701A12CB12CA50194010E94803B08378F
:104860008FE0180780F4D301C20162E0880F991F1E
:10487000AA1FBB1F6A95D1F7BC01CD01620F731F40
:10488000841F951F14C088E7E8168FE0F806C0F46F
:10489000DA01C90132E0880F991FAA1FBB1F3A95A0
:1048A000D1F7BC01CD01640D751D861D971D25E056
:1048B00030E040E050E00E94803B29013A0108C00E
:1048C000420E531E641E751E769467945794479447
:1048D00010911301143008F0E7CEC1500C2F0D0FCA
:1048E000202F30E0E901CD5ADE4F8881220F331F9F
:1048F000220F331FF901EA55FE4F8823D9F1C080FA
:10490000D180E280F380A30192012C193D094E0968
:104910005F0957FF07C050954095309521953F4F4F
:104920004F4F5F4FAAE0B0E00E94D93B24E6C20E91
:10493000D11CE11CF11CA7019601240D351D461D5B
:10494000571D0E94803B232B242B252B09F0ACCE36
:10495000133019F081E08093130182E08883809105
:104960006F01E82FF0E0EA5AFE4F00838F5F8093DB
:104970006F019ACE408251826282738281E0888385
:1049800093CECDB7DEB7E0E10C948C3CCF93C82F2B
:10499000C09595B160FF02C0982B01C09C2395B9CA
:1049A00094B1892B84B982E00E94720884B18C236F
:1049B00084B985B1C823C5B9CF910895A0E0B0E00E
:1049C000E4EEF4E20C94763C1AE008E08FE3C82EA3
:1049D00099E0D92E07B908B915B8C4B880E00E948B
:1049E000A6087C0181E00E94AA08EC0182E00E94F6
:1049F000AA089C0180911301893081F488E087B96D
:104A000014B8F0924E01E0924D01D0935001C09342
:104A10004F0130935201209351015BC084E0E816AE
:104A2000F10440F4C430D10560F42430310530F392
:104A300099E00BC088EEE81683E0F80610F098E0E5
:104A400001C099E0C83ED34008F49260283E33404C
:104A500008F4946097B9C0E0D0E0A89580E00E9487
:104A60009E085C0181E00E94AA087C0182E00E940D
:104A7000AA0824E1A21625E0B20608F4389A24E137
:104A8000E21625E0F20608F4399A843125E092070F
:104A900008F43A9A26E0A216B10430F426E0E216B1
:104AA000F10410F4069738F02196C43F81E0D8074E
:104AB000A1F6D0921301E12CF12CEC16FD0631F099
:104AC0000E9461082FEFE21AF20AF7CF115009F0A5
:104AD00081CFCDB7DEB7EAE00C94923CCF92DF9263
:104AE000EF92FF92CF932091730130917401409126
:104AF000750150917601C09185018AE0C82ED12CB4
:104B0000E12CF12C8C2FCF5F213A96E8390791E008
:104B10004907510538F0CA01B901A70196010E9461
:104B2000803BF0CF80938501A0912901B0912A01AB
:104B30000E94D93B28E833E140E050E00E94803BEE
:104B40002093730130937401409375015093760163
:104B5000CF91FF90EF90DF90CF900895A0E0B0E06C
:104B6000E4EBF5E20C94743C982F990F980F2FEF1B
:104B7000260F920F90934A01E82FF0E0EF59FD4F76
:104B80001491262F30E0F901EF59FD4FF490F9010F
:104B9000EC59FD4FD49190911301913009F4A2C2C8
:104BA00020911101A9E8B1E0FD0190E0921791F088
:104BB000368163130BC03081831308C01C964D915E
:104BC0005C911D974C3D554008F48CC29F5F319617
:104BD0001296ECCF062FC82FD86010928001109249
:104BE0007F0181EF8093850110927301109274010F
:104BF0001092750110927601E1DE88E088B9D7B98C
:104C0000F4B8F5B88C2F0E94AA085C01802F0E948E
:104C1000AA08A81AB90A14B810924C0110924B01B4
:104C200080914B0190914C01843F914008F0AAC0C3
:104C300015B914B90E945B0814B815B80E9462082F
:104C4000A8958C2F0E94AA087C01EA18FB08809185
:104C50004B0190914C018E37910528F08BE4E816BA
:104C6000F1040CF48FC080914B0190914C012DE226
:104C7000E21621E0F20634F4019690934C01809301
:104C80004B01CECF892B09F0A4C185E1E81685E060
:104C9000F8060CF49EC192DE15B88FE087B988E063
:104CA00088B9F12EFF0CF4B880E480937B0084E592
:104CB00080BF8C2F806480937C0086E180937A0093
:104CC0000E94650810924C0110924B0110928000D6
:104CD000109285001092840087E286BB81E2809367
:104CE0006F0081E080937001F5B89091130180937B
:104CF0008100953009F04CC081E090E00C2E01C09D
:104D0000880F0A94EAF780958F7087B9F89483B773
:104D1000817F83BF80917001882389F083B7816090
:104D200083BF7894889583B78E7F83BFF894A895C6
:104D300080914B0190914C018034964059F77894C2
:104D400010928100E0908600F090870010926F0032
:104D500086E980937A0014B815B88C2F0E94AA08AF
:104D600020912D0130912E01821B930B0C96909374
:104D700088018093870180914B0190914C01803292
:104D8000934040F088E087B988B914B815B8AAC133
:104D9000D7B9BCCF80914B0190914C0190937E018B
:104DA00080937D01F0927C01E0927B0184EF8093FF
:104DB000850180914B0190914C0182349105C8F09E
:104DC00060917B0170917C0180917D0190917E01C9
:104DD00024E630E040E050E00E94803B20937B01DD
:104DE00030937C0140937D0150937E0186EF809348
:104DF0008501A0917101B091720120917B013091E8
:104E00007C0140917D0150917E010E94D93B20E2BE
:104E100033E040E050E00E94803B20937B013093E0
:104E20007C0140937D0150937E0120937301309368
:104E30007401409375015093760150DE8091850195
:104E4000843F09F071C0C0907301D0907401E0906C
:104E50007501F090760180EAC8168FE0D806E1046B
:104E6000F104C0F4A70196012C543F4F4F4F5F4F00
:104E700060EA7FE080E090E00E94803BC20ED31E9B
:104E8000E41EF51EC0927301D0927401E092750188
:104E9000F0927601C0907301D0907401E09075019A
:104EA000F0907601C114D10421E0E206F10428F467
:104EB000D092B701C092B60106C081E090E0909315
:104EC000B7018093B60180914A0190E0845C9C4FC9
:104ED0000E94013D90E0A0E0B0E0B701A6018C1572
:104EE0009D05AE05BF0568F4481B590B6A0B7B0B8B
:104EF0004093730150937401609375017093760130
:104F000013C04C5E5F4F6F4F7F4F481759076A07BA
:104F10007B0710F40E94D314109273011092740155
:104F2000109275011092760114B9809173019091DD
:104F30007401A0917501B09176014997A105B10561
:104F400008F420CFC12CD12C80911101882329F0A5
:104F500080911301853009F015CF88E0809313010B
:104F600080918501909186019817C4F089130ACF2A
:104F70008090730190907401A0907501B0907601BB
:104F800040917701509178016091790170917A0197
:104F9000481559056A057B0508F0F4CE4091730168
:104FA0005091740160917501709176014093770181
:104FB000509378016093790170937A018093860110
:104FC000D0928201C092810100938301C093840139
:104FD000D9CEC701C12CD12C20914B0130914C016D
:104FE0002C153D0560F00E945C088C2F0E94AA08D9
:104FF0008A199B09A8952FEFC21AD20AEDCF570143
:10500000A81AB90A1A141B049CF439ECA316B104AB
:105010000CF0B8CE28EE33E0D5010E94D33B9701C7
:105020000F2C000C440B550B0E94803B690102C001
:10503000C12CD12C80914B0190914C010196A0E0A4
:10504000B0E080937B0190937C01A0937D01B093AD
:105050007E01C7018A0D9B1D0E94740920917B016E
:1050600030917C0140917D0150917E01DC010E94D4
:10507000D93B60937B0170937C0180937D01909379
:105080007E01609373017093740180937501909316
:10509000760187EF8093850121DD809073019090E8
:1050A0007401A0907501B09076018FE193E00E94A9
:1050B000013DA8EEB3E0A81BB10987FDB395A5019A
:1050C00094010E94E33B24E630E040E050E00E947F
:1050D000803B20937301309374014093750150938A
:1050E000760132CFCDB7DEB7ECE00C94903C1F9246
:1050F0000F920FB60F9211248F939F93B59904C00E
:1051000080917001811109C0B59B10C0809186000B
:10511000909187008A3F910548F480914B019091CE
:105120004C01019690934C0180934B019F918F917C
:105130000F900FBE0F901F9018951F920F920FB6F1
:105140000F9211248F939F9310927001B09B10C007
:1051500080918600909187008A3F910548F4809164
:105160004B0190914C01019690934C0180934B011F
:105170009F918F910F900FBE0F901F901895A0E0F8
:10518000B0E0E5ECF8E20C94743C88E893E190938D
:1051900018018093170190932A01809329018EEBC7
:1051A00080932501C8E0C8B988E187B90E946A08E0
:1051B000C7B984E00E94A608AC018B5C9840833F8D
:1051C0009140A0F481E08093340120912901309135
:1051D0002A01AFEBB9E00E94C43B9A0140E050E0E5
:1051E0000E94803B30931801209317018091170192
:1051F0009091180190932A01809329018EE00E94DA
:10520000AA088EE00E94A60890932E0180932D019B
:105210000E941C09D3DB88E0F82EF8B8C9E0C7B9B2
:1052200085E185B9D1E0D4B980E00E94A6088C015F
:105230009AE0D92ED7B824E0B22EB4B881E00E940B
:10524000A608080F191F3CE0E32EE7B840E1C42E82
:10525000C4B882E00E94A608080F191F15B8C8B983
:10526000C7B9D4B980E00E94A6080E940E09EC01DB
:10527000D8B8D7B8B4B881E00E94A6080E940E0939
:10528000C80FD91FE8B8E7B8C4B882E00E94A608E2
:105290000E940E09C80FD91FF7B8F8B814B82091AA
:1052A000290130912A016901CC0CDD1CC20ED31EEC
:1052B000C01AD10ACC1ADD0AE12CF12C9801A0E920
:1052C000BAE10E94C43BA70196010E94803B4901BC
:1052D0005A0130933301209332019E01A0E9BAE1D3
:1052E0000E94C43BA70196010E94803B30932C0191
:1052F00020932B012057354E309315012093140134
:1053000080E7881A85EE980A90920E0180920D012E
:1053100089E180932501CDB7DEB7ECE00C94903C99
:10532000CF92DF92EF92FF920F93CF93DF93F82EFD
:10533000C62FD42F0E946B0D88E091E00E94790D5A
:10534000F2D16C2F8F2D0E947639C090BA01D09087
:10535000BB01E090BC01F090BD018091190187FD77
:1053600005C0C114D104E104F10421F084E091E00E
:105370000E94790D8C2F0E946B0DC114D104E104A1
:10538000F10431F00E94AD07809156010E94B307ED
:10539000DD2351F0809135018D3030F490E0805C58
:1053A0009C4F0E94790D02C00E941B0C80E00E945D
:1053B0003C0CCD28CE28CF28D9F06091BA0170914D
:1053C000BB018091BC019091BD0103E028E447EF4F
:1053D0000E94010E87E191E00E94790D81E593E042
:1053E0000E94093D23E046E464EF0E94EA0E1AC0E1
:1053F000809156010E94B307809119018E3F94F469
:105400008FE291E00E94790D6091A1017091A2015B
:105410008091A3019091A40103E028E44091190137
:105420000E94010E8091B2019091B301A091B4014C
:10543000B091B501892B8A2B8B2BF1F080E00E9473
:105440003C0C6091B2017091B3018091B4019091D4
:10545000B50104E028E440E00E94010E82E191E001
:105460000E94790D23E040E26FEF8091B8019091A6
:10547000B9010E94EA0E07C080E00E94210C8091D1
:105480003801811102C00E941B0CDF91CF910F9156
:10549000FF90EF90DF90CF900895EF92FF920F93DF
:1054A0001F93CF93DF93182F0E94B00B809183013D
:1054B0000E946B0D8BE491E00E94790D6CD360919A
:1054C0008301809184010E94D709EC0190938001AF
:1054D00080937F01E0908101F0908201CA3F8FEFBD
:1054E000D80720F489E091E00E94790D8091840131
:1054F0000E946B0D112359F0909135018DE0891BAD
:105500000E947C0B89E690E00E94790D02C00E9407
:105510001B0C0E94030C60917701709178018091BF
:10552000790190917A0104E026E4409186010E947D
:10553000010ECA3FDF4F68F48AE391E00E94790DC3
:1055400022E04DE06EEF80917F01909180010E94FA
:10555000EA0E0E941B0C0E940B0CE114F10469F08E
:1055600083E391E00E94790D22E045E26FEF8091A4
:105570008101909182010E94EA0E0E941B0CCDB71E
:10558000DEB7E6E00C94963C8F7021F40E94130C79
:105590000C94071B08958F3021F490912F019130C6
:1055A00011F08F5F089580E00895CF9384E790E035
:1055B0006ED76AE080E00E94850B8AE493E00E9447
:1055C000790DC0E00E94A41060E082E00E94AF224A
:1055D00062E080E00E94AF220E94B00B80916F01D8
:1055E000882329F041E062E080E09ADE12C084E77F
:1055F00090E00E94790D8AE493E00E94790D0E9468
:10560000030C8FE30E94210D80E00E94210C0E9478
:105610001B0C8C2FB9DF88EE93E00E941F108111C4
:1056200005C08C2FB8DFC82F8A3F60F20E94B70BED
:10563000CF9108950F931F93CF93DF93C0E0D8E0ED
:1056400012EF0DE00E94A41060E082E087DAD093B0
:10565000130180918501843FE1F480917301909161
:105660007401A0917501B091760184369105A10570
:10567000B10578F440E060E082E00E940537609375
:105680007301709374018093750190937601109368
:10569000850180918501823FACF0809386018091E5
:1056A000730190917401A0917501B091760180937E
:1056B000770190937801A0937901B0937A0181E00A
:1056C000ECDE1CC00E94B00B8DE690E00E94790DCC
:1056D00080913501902F981B892F0E947C0B89E6C1
:1056E00090E00E94790D0E94030C8FE30E94210D2F
:1056F0000E941B0C0E940B0C0E941B0C8C2F44DF81
:1057000088EE93E00E941F10811106C08C2F43DFAA
:10571000C82F8A3F08F496CF0E94B70BDF91CF9134
:105720001F910F910895A4E1B0E0E9E9FBE20C9428
:105730006E3C82E08093190180911301813009F061
:1057400026C280916F01813009F021C2009156017B
:1057500024E0029FF0011124EA55FE4F80819181DF
:10576000A281B381893032E59307A105B10508F024
:105770000EC24C0110E0802F123028F40E94F30D6D
:10578000582E492E03C00E94F30D2C01E42DF0E0A9
:10579000EC59FD4F2490852D90E0FC01EF59FD4F11
:1057A000E49115B828E028B930EF83169104B8F4D5
:1057B00010FD15C0A0900D01B0900E0120E9A21AB5
:1057C0002AE1B20A21E030E0052C02C0220F331F8B
:1057D0000A94E2F7C9018860822987B908C0E4B950
:1057E000822D886087B9A0900D01B0900E01F4E180
:1057F0003F2E852D0E94A2083C01842D0E94AA08FC
:1058000034E06316710410F4049718F03A943110E0
:10581000F0CF80E480937B0094E590BF852D806479
:1058200080937C0026E120937A00E12CF12C1092E9
:105830008000109285001092840087E286BB0E944F
:105840006508312F3170332E10FD05C081E880933B
:10585000810028B808C028B80E946E0880E286BB84
:1058600081E88093810086B385FF13C098E098B9E2
:105870001092810020E226BB2091860030918700A3
:10588000690140918400509185002417350770F01C
:1058900014C080FFE8CF31E036BBA89597012F5F99
:1058A0003F4F790120353105F1F6E0CF80FF05C08B
:1058B00081E086BB9FEFE91AF90A86E980937A00B6
:1058C000E4E12E2E852D0E94A2083C01842D0E9429
:1058D000AA0824E06216710410F4049718F02A94C0
:1058E0002110F0CF4090320150903301480C591CE8
:1058F0004A0C5B1C20910F013091100180E9A81621
:105900008AE1B806B0F491EEC916D104E104F104BD
:1059100038F4C60165E070E00E94593B645101C053
:1059200069E128523109261B310967FD339586E06C
:1059300009C0C20160EB76E30E94593B87E0860F05
:10594000285D3F4F90E0A0E0B0E08C159D05AE05CE
:10595000BF0528F4C81AD90AEA0AFB0A03C0C12CF9
:10596000D12C7601332029F082E2C80ED11CE11C33
:10597000F11C90E5E916F10418F0C12CD12C760148
:105980008BE0C816D104E104F10428F091E0C91AB3
:10599000D108E108F1084091290150912A01612CB8
:1059A000712CA8EEB3E00E94C43B698B7A8B8B8B81
:1059B0009C8B9501DA010E94C43BA30192010E94D5
:1059C000803B4427552769897A898B899C890E9465
:1059D000803BC9010E94B309FC01A3019201C701E8
:1059E000B6010E943E3B2B013C01CF01A0E0B0E09C
:1059F00073E0880F991FAA1FBB1F7A95D1F7BC01CE
:105A0000CD016B5F7F4F8F4F9F4F2AE030E040E02A
:105A100050E00E94803BC301B2010E94803BE12F15
:105A2000F0E0A1E0B0E0AC0FBD1F84E0189FA00D36
:105A3000B11D11242D933D934D935C931397311019
:105A400016C09CE0C916D104E104F10480F031963F
:105A5000EE0FFF1FEE0FFF1F81E090E08C0F9D1FE8
:105A6000E80FF91F20833183428353831F5FA8957A
:105A70001F5F143008F47FCE88E088B984E00E946C
:105A8000720891E00D811E812F81388549815A81EC
:105A90006B817C81401751076207730708F090E023
:105AA0000D851E852F85388949855A856B857C85AE
:105AB000401751076207730710F483E001C082E0CA
:105AC000E92FF0E0EE0FFF1FEE0FFF1F21E030E0A7
:105AD0002C0F3D1FE20FF31FD90134E0839FA00D6F
