:1000000078C1000088C1000086C1000084C10000E2
:1000100082C100000C9465287EC100000C94750814
:100020007AC1000078C100000C9481200C9449280A
:100030000C9457280C945B206EC100006CC100002A
:100040000C94232868C1000066C1000064C1000050
:1000500062C100000C9476085EC100005CC1000023
:100060005AC1000058C10000E62FF72F903009F464
:100070009395E5B8C4B8B6EFB0937A00A5E0A09325
:100080007B00A8E0A093810010928000AFEFA093C6
:100090008500A0938400A6E0A093360010928B0008
:1000A00010928A00B3E0AFE3A91B51E0392F33303F
:1000B0002AF0A05CBC4F53953350F9CFB093890020
:1000C000A0938800A0917A00A4FFFCCFB6EBB09378
:1000D0007A00A2E0A0936F00A9E0A093810062E003
:1000E000A0E0A0937B00A1E0A09353008895E5B821
:1000F000C4B884FF1AC0A8E10000AA95F1F7EF93F5
:10010000FF93E7B1F8B1A4E0C2FCA2E0C0FCA1E01B
:10011000BF2FBA2BAE2BB8B904B9A7B9E7B9F8B954
:10012000FF91EF910BC00C947300ACE10000000054
:10013000AA95F1F725B9E5B8000004B9A0918400AB
:10014000A0918500B0918900A395AB1760F7A091AD
:100150007A00A4FFF3CFB6EBB0937A006A9571F7FB
:100160006091780070917900308186FD630F619312
:10017000308186FD731F80FF7193652F4A9579F753
:1001800010926F0010928100B6E0B0937A0008954B
:10019000010410090A0C556E6B616C696272696525
:1001A000727421205A756DFF4B616C6962726965CA
:1001B00072656E206B6C656D6D652033FF50696EE6
:1001C0006E65207A7573616D6D656E20756E642045
:1001D000737461727465206D697420646572205453
:1001E000617374652E204265737461657469676517
:1001F0002064656E2053656C62737474657374203B
:100200006D69742064657220546173746520696E31
:100210002032732E205472656E6E652064696520ED
:1002200050696E6E652E20536F667477617265201B
:10023000756E6420446F6B756D656E746174696F63
:100240006E20697374206175662073766E3A2F2F65
:10025000206D696B726F636F6E74726F6C6C657218
:100260002E206E65742F7472616E736973746F7271
:10027000207465737465722000B903870358032ED8
:10028000030703E402C302A4028802000014002949
:10029000003E005300690080009700AE00C600DFFA
:1002A00000F80012012D01490165018201A001BE83
:1002B00001DE01FF012102440268028E02B502DE66
:1002C000020903350364039403C803FE0337047370
:1002D00004B404F90443059305EA054906B3062965
:1002E00007AE074808FF08DE09FD0A930C480F997E
:1002F0001B0011241FBECFEFD8E0DEBFCDBF21E031
:10030000A0E0B1E001C01D92AA3BB207E1F70E9454
:10031000070D0C94883574CE80FD5C9A80FF5C9844
:10032000549A00005D9A559A589859985A985B9833
:1003300064FD589A509A65FD599A519A66FD5A9AE9
:10034000529A67FD5B9A539A00005D9819D187FD18
:1003500010C05D9A589859985A985B9860FD589AC1
:1003600061FD599A62FD5A9A63FD5B9A00005D989F
:1003700007C1089597FF09C08F939F938DE214D40E
:100380009F918F91909581959F4F67E171E04AE031
:1003900050E00E94273581C40895ECDF01C0EADFF8
:1003A0003CC40895EF92FF920F931F93182F062FCE
:1003B000F42E82E791E07CD4EE24E0913201F091BA
:1003C00033018685E81611F4812F09C08485E8166B
:1003D00011F4802F04C08585E81611F48F2DE4D325
:1003E000E3948E2D833049F71F910F91FF90EF908A
:1003F0000895682F80E092E0662309F491E062306E
:1004000009F481E008950F93082FE2EAF1E0880FE4
:10041000880FE80FF11D60817181828193816436BC
:1004200071058105910568F42091150127FD09C02A
:10043000802FDFDF692F0BD26EEF23E044EFD9D599
:1004400004C04FEF04E024EFEAD4E7D30F910895FE
:10045000863058F4E1E9F1E0E80FF11DE80FF11DF5
:100460008081918163E0D0D5D8C308951F93182F60
:1004700080916B01882319F0D0D380E095D304D408
:1004800089E691E015D4812F82958F70E1DF812F6D
:100490008F70DEDF1F9108958091020182958F7029
:1004A00019D08091020183701CD080910201DECFAF
:1004B0000895E5E8F1E0E80FF11D0895CF93F9DF25
:1004C0009081C681C91710F405D001C013D0A5D3FF
:1004D000CF910895EEDF8F9380819CD38F9101C0DF
:1004E00008958F9385E391E0E3D38F91E2DF8681D6
:1004F00091C30895DEDF8F9386818CD38F9101C0E5
:1005000008958F9381E391E0D3D38F91D2DF8081DF
:1005100081C308958F932F932AE080953B9A089486
:1005200010F4439802C0439A000020D027D086954B
:100530002A95B1F72F918F91089503D002D001D061
:1005400000D000D003D002D001D000D000D003D022
:1005500002D001D000D000D0A89503D002D001D0A5
:1005600000D000D003D002D001D000D000D003D002
:1005700002D001D000D000D003D002D001D000D0F2
:100580000000089590E0893C28F0885C48EC849F46
:10059000C0011124009709F408952091810027706B
:1005A00019F0DADF0197F6CF8130910519F0029743
:1005B0003EE303C037E180E090E02091B200230FDA
:1005C0002093B30042E04093700027E023BF88955A
:1005D00026E023BF10927000A895DCCF8F9384E0B3
:1005E000D1DF07C08F9382E0CDDF03C08F9381E01E
:1005F000C9DF8F911F93182F106410937C00E12F97
:10060000E07880912201E81759F0E0932201AEDFF3
:100610008EE980937A0083E083BF889582E083BF70
:1006200020E030E0A901E0E01FC08EE980937A006D
:1006300083E083BF889582E083BF609178007091EA
:100640007900260F371F411D511DE43061F4809160
:100650002401803041F084E02030380720F417FD79
:1006600002C01068CACFEF5F80912101E817E8F25D
:10067000609125017091260117FF04C0609123014C
:100680007091240180E090E00E949D332FEF33E0D1
:1006900040E050E00E94DF33B901CA0120912101FE
:1006A00030E040E050E00E94DF33C9011F9108951F
:1006B0009B01281B390B50F0C9010895BC018091A2
:1006C0002501909126016817790718F4861B970B6E
:1006D000089580E090E0089580E493E00E945A3508
:1006E000382F81E493E00E945A3520912901230F8D
:1006F00030912A01381F20930B0130930C0183E0C5
:10070000283E380720F0C901885E934002C080E08F
:1007100090E062E370E00E94B833683008F067E070
:10072000E9E7F2E0E60FF11DE60FF11D4591559165
:100730002591359162E3681B421B530B649FC001F6
:10074000659F900D1124499662E370E00E94B833D2
:10075000620F731F70936E0160936D0182E493E0EA
:100760000E945A35992787FD9095609129017091D3
:100770002A01860F971F9093240180932301909361
:100780006A01809369010895CF93DF9324E130E0FB
:10079000B9010E94B833DC01EBE8F2E0E60FF71F85
:1007A000E60FF71FC591D591459155914C1B5D0BF7
:1007B0004A9FC0014B9F900D5A9F900D1124B90183
:1007C0000E94B8336C0F7D1FCB01DF91CF9108954C
:1007D0000F9221E08C32920710F48CE291E08C525F
:1007E000914069E170E00E94B83399E16B3210F0FA
:1007F000982F6BE2981BEEEBF2E0E60FF11DE60F8F
:10080000F11D9F93CF010E945A35482F3196CF0199
:100810000E945A35582F3196CF010E945A35282F01
:100820003196CF010E945A35382F6F91421B530BDE
:10083000649FC001659F900D11240C9669E170E0E2
:100840000E94B833620F731FCB010F900895AEE181
:10085000B0E0EDE2F4E00C94C734662EB82E860FBB
:10086000898320910F01283059F52091730130912F
:100870007401409175015091760157FD15C010919A
:10088000820109C0CA01B9012AE0312D412D512D43
:100890000E94DF331F5F173FACF391F4243160E017
:1008A00036074105510518F48FEF9FEF41C1173FFF
:1008B00039F480E028178DE738074105410510F02D
:1008C00020E03DE72C8B3D8B26EDA22EE3E9F1E005
:1008D000E60DF11D859188608E87E3E9F1E0EB0D6F
:1008E000F11D859188608F87E0E9F1E0E60DF11D4B
:1008F0007590E0E9F1E0EB0DF11DC59090EC692AEF
:10090000B92A81E0E82EF12C012D112D8E831F8252
:10091000188619861A861B861C861D86188E198EC7
:100920001B8E1A8E0E94C21C88E088B960927C00DF
:100930001DDE3F8537B975B874B852E05A95F1F7A6
:100940000000000014B815B8DD243E8537B975B82D
:1009500074B860927C00A895A0927A0080917A0089
:1009600086FDFCCF2090780030907900B0927C001A
:100970004C2DE2D02091780030917900288B398B72
:100980003F8537B9C5B8C4B8A895B0927C00A0928D
:100990007A0080917A0086FDFCCF6091780070919A
:1009A000790060927C00472DC7D04091780050912B
:1009B000790014B8CB01820D931DE80EF91E011DBC
:1009C000111DEA82FB820C831D8388899989840F1B
:1009D000951F2E813F8168857985280F391F611DFC
:1009E000711D2E833F836887798722E324171506BC
:1009F00048F075B874B8C4DD14B815B8888D8395FF
:100A0000888F07C0483E73E0570718F08A8D83959A
:100A10008A8F888999892817190658F03E8537B931
:100A2000C5B8C4B8ADDD14B815B8898D8395898F64
:100A300007C0883E73E0970718F08B8D83958B8FE6
:100A4000D3945D2D5F3F49F05F3731F45C2D550F36
:100A5000C50E572D550F750E78CF40902E01509032
:100A60002F01440C551C9201E4E0240D351DEA953C
:100A7000E1F72901570168016E807F80888499849D
:100A800020910F012830C1F46C897D89812D912D31
:100A900065507040804090409B01AC010E949D33A6
:100AA0009B01AC0160E779E786E190E00E94DF33CB
:100AB000621A730A840A950AA614B704C804D904F2
:100AC00028F46A187B088C089D0803C066247724E4
:100AD0004301B20180E090E09301A4010E949D33A4
:100AE0009501A6010E94DF3388E193E07981870FA9
:100AF000911D0E945A35682EC90160E170E00E9484
:100B0000B833260F371FC9016816190618F486195D
:100B100091090EC08C5E9F4F8615910538F48C8923
:100B20009D89843981E1980708F018D7812D912D8E
:100B30006E96E2E10C94E3341092810010928000F2
:100B400010926F0010928B0010928A0057E056BBF3
:100B50005FEF509385005093840055E050937B00E5
:100B600056EB50937A0051E05093810058E25A9529
:100B7000F1F7000045B944B955E05A95F1F7000086
:100B800014B815B81092810080917A0084FFFCCFD0
:100B900080937A00089580913101809300018091C3
:100BA000A101809301010895CF93C82F8091310155
:100BB0008F5F809331016C2F81E0AEDBD8DCC830D1
:100BC00050F4C630C0F4C23071F0C33081F0C1308F
:100BD000E1F48EE30DC0C43E81F0C43F81F0CD321C
:100BE000A1F48DE213C08CE795DC8CE30FC08CE799
:100BF00091DC8CE70BC082E509C085E707C08FE474
:100C000089DC88E687DC8DE601C08C2F83DCA89523
:100C1000CF9108958F5CC8CF089580E2C5CF089525
:100C2000CF93C82F1C161CF4F8DFC150FBCFCF9117
:100C300008958DE3B9CF0895682F80E06DDB97CCE0
:100C4000089560933101813011F480EC01C080E897
:100C5000860FF2CF08956091000180910101F1CFDC
:100C600008958DE057DC8AE055CC08951092A101DB
:100C700080E8E2DF10923101F4CF089581E0DCDFFB
:100C800082E080DCF3CF089581E08093A10180ECC5
:100C9000D3DF10923101E5CF0895CF93DF93EC01BC
:100CA0008991882311F080DFFBCFDF91CF910895E8
:100CB000CF93DF93EC01CE010E945A35982F9F7796
:100CC00019F072DF2196F7CFDF91CF9108950F933E
:100CD0001F93CF93DF93EC0128968C010F5F1F4F7A
:100CE0000E945A3561DFC8010C171D07B1F7DF916B
:100CF000CF911F910F91089584E144DC83E39CDF41
:100D000082E39ADF82E03EDC80E296DF80E294DFDD
:100D10008AE292DF88E090DF86E08EDF82E08CDF7F
:100D2000ADDF81E02FDC8CE087DF88E485DF82E6C1
:100D300090E0CDDF80E580DF8AE590E0C8DF88E5E0
:100D40007BDF8AE690E0C3DF88E776DF82E590E02C
:100D5000BEDF80E771DF8AE490E0B9DF80E46CDF1A
:100D600082E490E0B4CF08959091310180E1891B35
:100D700057CF0895CF93C82FF7DF8091A1018F5FE0
:100D80008093A101823030F081E08093A1018093B3
:100D9000340102C0109234016C2F8091A10151DF07
:100DA00060DFCF910895E6DF7FD18091A10183308C
:100DB00008F057CF08955ADFD7DF58CF089564DF82
:100DC000D3DF62CF08950F9383E891E071DF409104
:100DD00081014D3F64F460916F01709170018091C9
:100DE00071019091720103E026E419D002C08FE3F3
:100DF000DBDE0F91089590910E019F70923071F497
:100E0000D2DF82E790E054DFE0913201F0913301CC
:100E100022E044EF6FEF84819581EBC00895AEE04E
:100E2000B0E0E5E1F7E00C94C734142F622E702E89
:100E30006B017C010F7080E389838A838B838C83B1
:100E40008D838E83F7FE0BC08DE2AEDEF094E094CE
:100E5000D094C094C11CD11CE11CF11C04C075FECF
:100E600002C08BE2A1DE033071F0043099F005304E
:100E7000C1F00630F1F0073021F174E6872E912C95
:100E8000A12CB12C25C068EE862E63E0962EA12CF5
:100E9000B12C1EC050E1852E57E2952EA12CB12C0D
:100EA00017C040EA842E46E8942EAA24A394B12CBD
:100EB0000FC030E4832E32E4932E3FE0A32EB12CFA
:100EC00007C020E8822E26E9922E28E9A22EB12C16
:100ED0009AE0292E312C412C512CC814D904EA0453
:100EE000FB0470F0C701B6016B5F7F4F8F4F9F4FC0
:100EF000A20191010E94DF3369017A011F5FEDCFEA
:100F000081E1810F9BEA899F812D1124A82EA6944F
:100F100086E0811B899F112D11241695912F990F21
:100F2000190F811B182F4E0187E0880E911C2AE0B3
:100F3000A401C701B6010E940635F401019000200A
:100F4000E9F731977F01E818F9089E2C6701DD2445
:100F5000812F90E004968C159D0514F4A3941D5FD9
:100F60008A2D90E0865C9F4F0E945A35A82E74FE11
:100F700004C0901610F40E1901C000E08E2C811AE6
:100F8000800E181424F08EE20FDE012F0E191111BD
:100F900002C088EF882E912C10E0C00ED11EE82CE4
:100FA000082C000CFF08892D90E08C159D05ACF4F1
:100FB000FC013696E01BF10B81E090E08C0F9D1F49
:100FC000E80FF91F8081F0DD9394892D90E08E1554
:100FD0009F0549F78EE2E8DDE6CFAA2011F08A2DC1
:100FE000E3DD662011F0862DDFDD2E96E2E10C9424
:100FF000E3340F93362FBC0180E090E0022F242FC2
:10100000432F0DDF0F9108950F93062FBC0180E051
:1010100090E026E54DEF03DF0F9108950F93042F25
:1010200028E440E0FCDE8AE7BFDDF7DD0F9108959C
:10103000EF92FF920F931F93CF93DF93F82EE92E39
:10104000C5E64F9B05C0CF2DDE2D15E500E019C08C
:1010500081E098DAC150A9F7F6CF82E093DA110F58
:101060004F9B1F5F1F731F3379F4011103C0CF2DF6
:10107000DE2D04E00F5F083C88F4A8951C161D06C1
:1010800044F0D7FFEACF0AC01111F7CF0023A9F32C
:1010900005C02A97B1F7CFEFDFEFF3CF802FCDB7A1
:1010A000DEB7E6E00C94EF34CF9375DDC82F809166
:1010B00034018823C1F0813049F4C13039F46FE044
:1010C000C0DD8BE271DD6FE081E0BBDD80E49FE19C
:1010D000AFDFC13039F480913401813019F460E020
:1010E000B0DD42DEB8DDCF910895189518953091A6
:1010F0000D01A0913201B0913301E5E8F1E080E00B
:1011000090E08317B0F441911C962C911C974217E4
:1011100019F04581241302C00196F3CFFC01EE0FB4
:10112000FF1FEF56FE4F20813181293E334008F4E6
:10113000089584E1089510920F0110920D0110920C
:1011400064011092440110920E011092300110922D
:101150006B01EFE4F1E0108211821282EFE6F1E020
:10116000108A82E0818B10921501178616861482F0
:1011700015821682178281EF838B08958FE4CAD976
:1011800086E4C8D986E4C6D96CDD5E98D9D980E0FA
:1011900090E04ECF08951F93CF93DF93162F98E0E2
:1011A00097B998B9E82FF0E0E057FE4F949195B9C0
:1011B000262F281BE20FF11D27FDFA95E491E92B5C
:1011C000E4B918DAEC01812F15DAAC012091250180
:1011D0003091260136952795C9010397BE01625EBD
:1011E0007F4F8617970778F4255E3F4FC217D307C6
:1011F00050F4BA01625E7F4F8617970720F481E0B2
:101200004217530708F080E014B8DF91CF911F9187
:101210000895CF9361E080E0BEDFC82F62E080E0F8
:10122000BADFC80F62E081E0B6DF8C0FCF9108957E
:10123000AFE0B0E0EEE1F9E00C94C734B82E1092C4
:101240000F01807FA9F4E5DF833009F083C316DD49
:101250008CE492E02DDD18DD8FE3A6DC80ED97E0D5
:10126000E7DE8B30C0F40ADD83E091E021DD72C35C
:1012700006E910E003DD8EEA91E01ADDCADF833073
:1012800021F41F5F143010F006C010E088E27AD914
:10129000015081F760C0F8DC0E94A3208FEB90E042
:1012A00007DD60E08AE193E00E94673560E08BE152
:1012B00093E00E94673560E089E193E00E94673522
:1012C00060E082E0C4DA6C019A83898361E082E0A5
:1012D000BEDA7C019C838B8360E081E0B8DA8C010C
:1012E0009E838D8323E040E26EEFC60182DE23E021
:1012F00040E26EEFC7017DDE23E044EF6EEFC801F0
:1013000078DE2AE5C216D10424F084E190E09A83C5
:10131000898369818AE193E00E9467358AE5E8164E
:10132000F10424F084E190E09C838B836B818BE15A
:1013300093E00E9467350A35110524F084E190E0BE
:101340009E838D836D8189E193E00E94673582E001
:1013500080933401A9DEEB2DEF70EF87E13011F0BF
:1013600018E73AC1EE24E394F12C78EB872E72ED66
:10137000972E77E4A72EB12CE2E0DE2E08E0F0E213
:101380003F2EC12C1E2D52E2252E19DD14DD84E5E1
:101390000BDCC7010E94C50140DC1130B9F482EFBB
:1013A00090E086DC64E08091290190912A012CDE96
:1013B0006BDC8DEE90E07CDC80916D0190916E0194
:1013C0000E94C5018EEB80932101E2C0123079F5B5
:1013D0002091250130912601A8E5BBE10E941D3432
:1013E00024EC36E340E050E00E94013429013A0148
:1013F00081E085B9F5E0F4B980E0F0D88419950969
:101400009A83898381E184B980E0E8D884199509B9
:101410009C838B8384E085B984E184B981E0DED844
:10142000841995099E838D8387ED90E09EC01330CB
:1014300041F5D5B82AE024B980E0D0D82091250123
:10144000309126013695279538872F83821B930B81
:101450009A83898324B880E0C1D82F813885821B84
:10146000930B9C838B8305B988E284B981E0B6D85D
:101470002F813885821B930B9E838D8389EC90E0AE
:1014800074C0143039F48FE392E012DCC2DE8111B3
:101490005EC26FC0153099F415B8D4B880E09ED8FC
:1014A0009A83898304B981E099D89C838B8334B86B
:1014B00082E094D89E838D8389EE90E056C01630EA
:1014C00039F5D4B8D5B880E089D82091250130917C
:1014D0002601821B930B9A83898304B905B981E0A5
:1014E0007DD82091250130912601821B930B9C838E
:1014F0008B8334B835B882E071D8209125013091C2
:101500002601821B930B9E838D8385EE90E02DC078
:10151000173069F52091250130912601A8E5BBE13E
:101520000E941D34A50194010E94DF3329013A0174
:10153000D5B8E3E0E4B980E051D8841995099A83DD
:10154000898305B9FCE0F4B981E048D8841995098C
:101550009C838B8335B820E324B982E03FD884197B
:1015600095099E838D8383EC90E0A2DB02C011304D
:1015700079F08ADB89819A810E94BA014EDB8B81E6
:101580009C810E94BA0149DB8D819E810E94BA0133
:1015900007B908B914B815B888EE93E049DD1430DE
:1015A00011F08B3020F4C39484E0C812EECE88EEA4
:1015B00093E03EDDEFEFEE1AFE0AF8E0EF16F104DD
:1015C00009F0DFCECDCEFBDB8FE392E071DB84E66A
:1015D0000E94C202115019F01CDE8111F4CF4EDBC3
:1015E00088EB90E065DB23E044EF6FEF809127010B
:1015F00090912801FEDC48DB81EB90E059DB23E091
:1016000044EF6FEF80912E0190912F01F2DC82E088
:101610008093340149DD10920F0130DB8DEA90E0B8
:1016200047DB60E082E00E94921D809077019090FD
:101630007801A0907901B0907A019C868B8661E058
:1016400082E00E94921DC0907701D0907801E090D6
:101650007901F0907A01DE86CD8660E081E00E941B
:10166000921D00917701109178011E830D8362E035
:1016700080E00E94921D80917701909178019C8377
:101680008B8362E081E00E94921D809177019091AE
:1016900078019A87898761E080E00E94921D80919D
:1016A0007701909178019A8389832F85213021F0E9
:1016B00020912D01223021F4029698878F8306C055
:1016C00098878F8310922D018CE0B6DAC4010E94B6
:1016D000CF01C6010E94CF01B801110F880B990BF1
:1016E00003E026E444EF9BDB8E010F5F1F4F6E018A
:1016F0008FE0C80ED11CF801819191910A97853B2A
:101700009105C8F4CE16DF06B9F749E3E42E43E0AD
:10171000F42EF80160810E5F1F4F6E5EC7010E94BC
:101720006735FFEFEF1AFF0AC016D10691F7ACDA62
:1017300085EA91E0BDDA82E080933401B5DC0E9455
:1017400042302F85213029F080912D01823009F01F
:10175000E9C094DA80E05EDA8BE591E0A9DA82E014
:1017600059DA82E390E0A4DA20E4F22E10E03AE0C5
:10177000832E912CA12CB12CDEDC10920F0160E0A5
:1017800082E00E94921D0091810120916F013091B1
:1017900070014091710150917201073F44F40F5F55
:1017A000CA01B901A50194010E94DF33F6CF00936D
:1017B000810120936F013093700140937101509328
:1017C0007201073F09F098C0DA01C90180569109FA
:1017D000A109B10980399545A105B10508F08CC072
:1017E0006091830170918401CB018B569F4F8B32A6
:1017F000914008F081C01F5F153008F47EC080E47E
:1018000093E00E9475353ADA8BE290E051DA8091EC
:101810008301909184010E94BA010E946C0388E0C8
:1018200088B989E087B980E284B982E00E94FA022F
:10183000853D9340D4F714B81092240110922301EF
:1018400082E00E94FA028C018091690190916A0104
:10185000909324018093230182E00E94FA027C018C
:10186000EE0CFF1C109224011092230182E00E94D2
:10187000FA02A0906901B0906A01B0922401A0928E
:101880002301800F911F8C010E191F09FDD984E2DD
:1018900090E00EDA82E493E00E945A35D82E95014A
:1018A000D8010E942C3497010F2C000C440B550BCF
:1018B0000E94013413E01D0D120F612F82E493E0AA
:1018C0000E946735812F012E000C990B0E94BA01EE
:1018D0000E946C0382E080933401E6DB10922D01BC
:1018E0008CE0AAD989E393E00E945A35682F8CE3F3
:1018F00093E00E94673516C010E0C6D960916F0171
:1019000070917001809171019091720104E026E460
:101910004091810184DA28DA88E20E94C202FA94B6
:10192000F1102ACF89E18093210180E00E94573392
:10193000A5D983E091E0BCD9A7D985E392E0B8D9D5
:1019400010920F0182E080933401AEDB03C082E08D
:10195000C82E0FCE2F96E2E10C94E33480912D0136
:1019600081110DC089E393E00E945A3561E0680F50
:101970008CE393E00E94673581E080932D01089508
:10198000EF92FF920F931F93CF93DF93D62FE82F01
:10199000F0E0ED56FE4FE491E8B9E860E7B915B81C
:1019A000E62FF0E0E057FE4FE491E4B988E8E82E36
:1019B00083E1F82ECE2FCC0F8D2F0E94EE028C01EA
:1019C000C4B98E159F0510F47801F6CF892BD1F09C
:1019D00089E391E06DD9D80120EA36E841E050E092
:1019E0000E94323428E937EB40E050E00E94DF33B8
:1019F000DA01C90122E041E467EFFBDA88E087B948
:101A000088B914B8CDB7DEB7E6E00C94EF34A0E0A7
:101A1000B0E0EDE0FDE00C94C73480E48AB98BB906
:101A2000C6E8C0937A001092C1000E94A202D4B707
:101A300084B7877F84BF0FB6F894A8958091600023
:101A4000886180936000109260000FBEC0936400B4
:101A500088E380937E001092B00087E08093B1000D
:101A600078944AD9D3FD87C580E185BFC0E04F99FE
:101A700006C082E00E94C202CF5FCC33C1F78FE57F
:101A80009DE69093080180930701CF3130F080E606
:101A90009DE69093080180930701109222010E9415
:101AA000A3209FE088E10FB6F894A895809360008A
:101AB0000FBE90936000CC3399F048E0842E52E042
:101AC000952E60E1762E78E1672EE5E5EE2EE1E0D9
:101AD000FE2EF0EF2F2EA3E33A2EB1E25B2E2CC0A8
:101AE0000E94D82B8111FCCFE8CF823009F48FC13E
:101AF000833009F4B9C187E992E0DAD880E892E04E
:101B0000D7D8C2D880910D01805D4ED88AE24CD8DA
:101B100085E391E0CDD883E692E0CAD8A2D880E4EC
:101B20009FE167B84F9BFECF83DA823308F4B6C4D7
:101B30000E94D82B8111FCCFA1D887B8FCDA0E9473
:101B4000A32094D82AD580913001882369F09CD8AD
:101B500080E591E0ADD863E0809125019091260168
:101B600053DA88EC0E94C2028FD80E94C21C809176
:101B70000F018930F9F482D885E591E099D884D8AD
:101B800063E08091490190914A013EDA46D863E0D2
:101B900080914B0190914C0137DA3FD863E08091FE
:101BA0004D0190914E0130DA8AEC0E94C20281E12F
:101BB0003FDB6FC48CE040D88CE393E00E945A3541
:101BC000C82F89E393E00E945A35C81BC0932D01AA
:101BD000CC2311F08EE030D880E02ADBF0D886EB01
:101BE00092E066D883E00E948A023BD842E061E03E
:101BF00080E045D542E060E081E041D541E062E02F
:101C000080E03DD541E060E082E039D540E062E02F
:101C100081E035D540E061E082E031D580910F016F
:101C200081110EC00E94C21C60E082E00E94921DE1
:101C300061E082E00E94921D60E081E00E94921DBE
:101C400080910F01833061F480910D01823041F465
:101C50009091850180918601981302C00E94552EB3
:101C60000DD885E391E09093330180933201809108
:101C70000F01863039F488E892E01AD841E467E42D
:101C80008BE415C0873039F481E992E011D842E342
:101C900067E481E30CC08A30D9F480E190E008D891
:101CA000F0923301E09232014BE467E481E40E9458
:101CB000D2010E94440689E691E00E945806E09114
:101CC0003201F091330162E0848195819DD9DFC3B7
:101CD000823009F03DC08CE090E00E94580642E35B
:101CE00065E481E30E94D20180E044D86091430121
:101CF00080914201E62FF0E0E15BFE4FE80FF11D1D
:101D0000319710820E94931A80914301E091420121
:101D1000F0E0E80FF11DEE0FFF1FEE0FFF1FE25680
:101D2000FE4F608171818281938102E024EF4FEF49
:101D300076D886E090E00E94580660913F0170914D
:101D4000400180E090E003E025E240E068D8A1C3D4
:101D5000883081F420917F018091800190E0820F92
:101D6000911D029719F40E9427239AC380E00E94D4
:101D700039228FC3833009F0B2C080910D018130C8
:101D800009F0B3CE80E00E945E02609185018091EF
:101D90008B01F6DD80E70E94360240E0609185010C
:101DA00080918B010E94642F60936F01709370018A
:101DB000809371019093720180E00E94D30660913C
:101DC0006F0170917001809171019091720102E038
:101DD00026E442EF24D88DE20E94D40541E06091D0
:101DE000850180918B010E94642F60936F01709335
:101DF0007001809371019093720126E442EF0FD835
:101E00008BE291E00E9458060E94310695C282E35F
:101E10000E94D4058BE191E00E94580690918501C3
:101E200030918601931307C080E00E947A0281E01E
:101E30000E9471020CC020918B0180918C012813AB
:101E400008C080E00E946A0281E00E94810281E075
:101E5000A2CF321304C081E08093020133C09813F3
:101E60004ACE709202012EC03092020180918B0105
:101E700090918601891303C021E0209302014091D3
:101E8000850130918C01431302C0709202012091B0
:101E90008701821302C09092020180918D01481344
:101EA00003C040E24093020132130FC022E12093AD
:101EB0000201981761F083E30E94D4058BE191E061
:101EC0000E9458060E944C0237C2981302C05092DA
:101ED000020180910201823208F00DCEECCF8430F5
:101EE00009F04BC180916401882309F45DC08091A1
:101EF0004401882309F458C0609141018091430155
:101F00000E94921DA0906F01B0907001C09071016D
:101F1000D0907201C0918101609163018091610153
:101F20000E94921D8091350190913601A091370158
:101F3000B09138014091550150915601609157017F
:101F400070915801843F21E09207A105B10538F452
:101F5000443F21E052076105710508F0C0EF443F9E
:101F600051406105710538F4843F9140A105B105E8
:101F700010F02092810180918101C8130EC08091E0
:101F80006F0190917001A0917101B0917201A8163A
:101F9000B906CA06DB0618F004C0C81714F48DE0B1
:101FA00001C08CE080930E0180916401882361F070
:101FB00080914401882341F04F9906C090910E0111
:101FC00081E0892780930E0180910E018C3051F4BD
:101FD0008CE791E00E94580680916401882389F083
:101FE00080E70DC0F0923301E092320188E791E082
:101FF0000E94580680914401882319F08EE60E94C1
:10200000D4050E940D0673D8C82F8530E8F480915E
:102010000E018C3041F481E0209142019091430106
:10202000921748F007C081E020916201909163010E
:10203000291708F080E0882319F085E391E002C0B9
:1020400081E391E00E94580643E462E485E40E9443
:10205000D2010E94440686E891E00E945806E09171
:102060003201F0913301608171818281938103E0BB
:1020700020E04EEF0E940F070E940D0689E40E94A7
:10208000D405E0913201F09133018681978180314E
:10209000974270F085E60E94D405E0913201F091FC
:1020A000330186819781805197429783868303C04D
:1020B00083E60E94D4050E941906E0913201F09156
:1020C000330122E041E46AEF868197810E94F9079B
:1020D00080E00E94D3068DE691E00E945806E091D0
:1020E0003201F091330163E0848195810E940408FC
:1020F000E0913201F091330180859185892B91F037
:1021000080E00E94D3068DEF90E00E945806E09197
:102110003201F091330123E041E46AEF808591853B
:102120000E94F907E0913201F09133018285938595
:10213000892B91F080E00E94D30687EF90E00E9407
:102140005806E0913201F091330123E041E46AEF57
:10215000828593850E94F907C53008F09AC180E016
:102160000E94D3068C2F0E945E0289E691E00E94B5
:1021700058068C2F0E9428028AC1853009F0F6C0CB
:1021800080910E0184FF08C080E50E94D405F09282
:102190003301E092320103C08EE40E94D4058DE247
:1021A0000E94D40580910E01C82FCF70C43041F435
:1021B0008FE891E00E9458064FE367E48FE311C077
:1021C00085FF02C084E401C085E40E94D405C330C9
:1021D00009F0C9C189E891E00E94580643E467E428
:1021E00085E40E94D20180910E0185FD18C00E94F5
:1021F0004406E0913201F0913301668584850E94A6
:10220000921D0E94E30684E691E00E945806E09148
:102210003201F091330162E0828593856EC08F7048
:10222000843071F080E00E94BA06E0913201F091B2
:102230003301668584850E94921D0E94E3061AC0C0
:10224000E0913201F091330184819581892B91F0E5
:1022500080E00E94BA0680E090E00E945806E0917B
:102260003201F091330122E041E46AEF84819581EB
:102270000E94F90780E00E94D30689E40E94D405F9
:102280000E941906E0913201F091330122E041E40D
:102290006AEF868197810E94F9078FE591E00E949D
:1022A0005806E0913201F091330162E08285938516
:1022B0000E940408E0913201F091330180859185FC
:1022C000803C9241E0F480E00E94D30689E40E94C1
:1022D000D4050E94190622E041E46BEF80E090E013
:1022E0000E94F9078FE591E00E945806E0913201C3
:1022F000F091330162E0808591850E94040880E0BE
:102300000E94FB06C43009F4C4C0C0E080910D01F6
:10231000C81708F0BEC080E00E94D3068C2F0E9430
:102320005E0289E691E00E9458068C2F0E942802E6
:102330000E943106CF5FEACF0E94310680916B0187
:10234000882309F4A6C067B880910701909108011D
:102350000E94180887B80E943E0680910D01805D9A
:102360000E94D4058BE191E00E945806D0916B0148
:10237000DD2309F47FC0D130A1F4809152010E9485
:10238000F90120915201213039F420910D012111E0
:1023900003C00E94EC2284C040E0692F0E94742197
:1023A00078C0909152018091530124E0829FD00126
:1023B0001124AE55BE4F24E0929FF0011124EE553A
:1023C000FE4F0D911D912D913C9140815181628173
:1023D0007381401751076207730710F4C82F01C0BB
:1023E000C92FD23021F4890FC3E0C81B1CC08091D3
:1023F000540194E0899FD0011124AE55BE4F24E0D2
:10240000C29FF0011124EE55FE4F0D911D912D91AB
:102410003C9140815181628173814017510762076D
:10242000730708F4C82FDC2FD695092D0C1BC1119A
:1024300002C011E001C012E08D2F0E940A0686E161
:1024400091E00E945806802F0E940A0686E191E0E2
:102450000E945806812F0E940A0680E00E94BA0658
:1024600081E0C11180E00E940302892D8D1B0E9432
:1024700003020FC08FE692E00E9458060E944406B5
:102480008FE992E00E94580687E992E046CB0E94CD
:102490003106809107019091080143CB81114CCB0B
:1024A0008CE00E941C0680912D01882309F458C0FD
:1024B000D2E000E010E080E090E020E1422EFC015C
:1024C000E00FF11FEA56FE4FC491C03209F4482EC6
:1024D00001968131910599F7DD2341F08D2F8170AF
:1024E000B82ED0FD0AC00E943E0607C080E197E2E8
:1024F0000E941808882391F32FC060E08B2D0E9462
:1025000021060E943106A895DF5FD170A12CB12C65
:10251000A414A0F4F801EA0DFB1DEA56FE4FC49185
:10252000CC23D1F0CF3F19F40E940D0603C08C2FAD
:102530000E94D4059FEFA91AB90AEACFCC2361F013
:10254000040D111DF801EA56FE4FE491E03209F046
:10255000B2CF0F5F1F4FAFCF80E197E20E94180804
:102560000E94BE08E9CA84E991E00E94580644E44A
:1025700067E483E536CE0E9436068AE592E00E9443
:1025800058068BEC0E94C2020E94BE0880E090E0D8
:10259000CDB7DEB7E2E10C94E3340F931F93CF93F2
:1025A000DF9385E00E94FA0285E00E94F602EC01CA
:1025B0008C01000F111F000F111F10922B01043806
:1025C00083E0180750F489E991E00E9458060E94C0
:1025D000B40681E080932B0126C088EA91E00E9436
:1025E000580662E0C8010E9404080E940D06C93026
:1025F00082E0D80790F4C73DD14060F489EA92E0C8
:102600000E9458060E94B4068DEC0E94C2020E94ED
:10261000BE0809C08FEA92E002C085EA91E00E94FC
:1026200058060E94B406DF91CF911F910F91089533
:10263000CF93DF93DC019C01261B370BE0E090E099
:10264000B901690F711D672F7727920F260F371F6A
:10265000BA016E0F711D672F7727E40FEB01CC0FC6
:10266000DD1F4C0F5D1F6B3E28F4A217B30740F728
:10267000CA0102C080E090E0DF91CF910895A8E107
:10268000B0E0E5E4F3E10C94C734582E462E342E26
:10269000A895E62FF0E0E057FE4F24912E87220FF9
:1026A0002F8B339634913A8BE42FF0E0E057FE4FB6
:1026B00044914983440F488F339654915F83E82FA8
:1026C000F0E0E057FE4F2490822D880F8F873396DD
:1026D00094919B8398609C8338603A83E981E5B943
:1026E0008E848E2A84B897B9FB81F8B9862F0E9410
:1026F000F6029D878C878981288D822B85B99E84DF
:10270000922A94B8842D0E94F6023E8534B9842D15
:102710000E94F6023C0114B80E94AB0215B884B8BE
:10272000842D0E94F6026C857D850E9458036C0101
:102730004A8147B988E088B9598152295D8355B9E2
:1027400054B9852D0E94F6020E945E037C0115B8E3
:102750000E94AB0225B8852D0E94F6020E945E03FE
:102760008C0124B8852D0E94F6020E945E035C0154
:10277000B801C7010E9458038032E1E09E0730F49F
:10278000F0E2CF16F1E0DF0608F4C7C5C00ED11E97
:102790002C853D85820F931FC816D90618F41D8716
:1027A0000C8735012091440130916401822F90E023
:1027B000830F911D02974CF0213009F0AEC5909126
:1027C0004101809161019813A8C5388D32293B875A
:1027D0004C855D854437510508F4A2C1CA01880FB4
:1027E000991F44966816790608F09AC15C8157B91A
:1027F0008B8188B994B8842D0E94F2028C01832DBC
:102800000E94FA027C01988D95B9842D0E94F202F3
:102810009801295A3D4F2817390708F0B4C088E0BD
:1028200088B9EA81E7B9FB85F4B9F5B9832D0E942F
:10283000F20288349F4028F085E080930F0182E205
:1028400004C085E080930F0184E280930E01109311
:102850003A0100933901B701C8010E9463039093C4
:10286000400180933F019801A0E1B7E20E941D342E
:102870002091090130910A0140E050E00E94DF33CD
:1028800030933C0120933B018F89388D832B84B991
:1028900015B84C8147B95B8158B9832D0E94FA0263
:1028A0008C01842D0E94F202B8010E9463039C01F6
:1028B00090933E0180933D0190910E019F70943062
:1028C00081F540913B0150913C0160913F01709135
:1028D0004001C901ADDE009701F1888D84B9EA8914
:1028E0009C81E92BE7B9842D0E94F2028C0188E0DB
:1028F00087B99801A0E1B7E20E941D3420912E0112
:1029000030912F0140E050E00E94DF33A901B8016F
:1029100080913D0190913E018BDE90933A0180932E
:10292000390180910E018F70843009F4EDC488E084
:1029300088B9EF81FA81EF2BE7B924B82D8125B949
:10294000852D0E94F6028C010E945E039E838D837A
:10295000842D0E94FA02E0901001F0901101BC0158
:10296000C8010E9463039701DC010E941D34ED81C0
:10297000FE819F0140E050E00E94DF3330933A0136
:1029800020933901C1C488E088B9FA81F7B92B8551
:1029900024B925B9852D0E94F2028C01832D0E9455
:1029A000FA027C0125B8852D0E94F202895A9D4FBA
:1029B0008017910708F0B1C43B8138B94C8147B901
:1029C000832D0E94F202813D934028F485E080939C
:1029D0000F0182E304C085E080930F0184E38093BC
:1029E0000E01B801C7010E946303909360018093B8
:1029F0005F01C8010E945E039C01A0E1B7E20E9452
:102A00001D34209110013091110140E050E00E94EE
:102A1000DF3330935C0120935B01F8E0FF2EF8B8C0
:102A20008A8187B98F85988D892B84B985B9852D41
:102A30000E94FA028C01832D0E94F202B8010E94CA
:102A400063039C0190935E0180935D0190910E0160
:102A50009F709430A1F540915B0150915C016091B1
:102A60005F0170916001C901E3DD009721F1E88DFC
:102A7000E5B9E4B9FB81F8B9EC812A81E22BE7B929
:102A8000852D0E94F2020E945E038C01F7B89C0122
:102A9000A0E1B7E20E941D34209127013091280166
:102AA00040E050E00E94DF33A901B80180915D0150
:102AB00090915E01BDDD90935A0180935901809100
:102AC0000E018F70843009F4F7C1EB813F81E32B55
:102AD000E8B94C81342B37B915B85D8154B9852DCF
:102AE0000E94F6027C01842D0E94FA029E838D834F
:102AF0000091090110910A01BC01C7010E94630302
:102B00009801DC010E941D34ED81FE819F0140E0AF
:102B100050E00E94DF3330935A0120935901CCC119
:102B200088E088B9FA81F7B925B82B8524B9852DB5
:102B30000E94F602998B888B0E945E0398878F8390
:102B4000832D0E94FA029A878987530134E6A30EE7
:102B5000B11C4F815885B301A416B506D8F4CA013B
:102B60000E9463038C01209110013091110140E01B
:102B700050E060E871EA83E09CE10E94DF33D80115
:102B80000E943234E985FA858F0120E030E0A90106
:102B9000980123C08F8198850E9463038C01FD8179
:102BA000F4B9852D0E94F602998B888B0E945E03F2
:102BB00098878F83832D0E94FA029A878987BC01A8
:102BC000C8010E9463039C01A4E6B0E00E941D348A
:102BD000E985FA859F0140E050E00E94DF336901FA
:102BE0007A0114B815B8FB81F8B92C8127B981E0B6
:102BF0000E94C20284B8842D0E94F6028F359D4047
:102C000008F460C194B8842D0E94F2028C01832DD7
:102C10000E94FA029C8B8B8B852D0E94FA029E8B60
:102C20008D8B4B895C89413D574008F4D1C0988D0C
:102C300095B9842D0E94F2028115944098F08091FC
:102C40000F01843078F48AE080930F016B897C89CE
:102C50008D899E890E94630390935A018093590144
:102C600081E044C484E080930F018DE080930E01E5
:102C70006016710630F49801261937093E832D83BA
:102C800002C01E830D838090090190900A01A12C3F
:102C9000B12C60E871EA83E09CE1A50194010E94F7
:102CA000DF33AD81BE810E943234EB89FC899F0104
:102CB00040E050E00E94DF3380916401882369F096
:102CC0008091550190915601A0915701B091580102
:102CD00082179307A407B50708F520935501309391
:102CE000560140935701509358019801A0E1B7E273
:102CF0000E941D34A50194010E94DF3330935C01D2
:102D000020935B016B897C898D899E890E94630376
:102D100090935A018093590181E001C080E0409175
:102D200055015091560160915701709158014C1511
:102D30005D056E057F0538F5C0925501D0925601AC
:102D4000E0925701F092580169857A8588899989BE
:102D50000E94630390935A01809359012F81388513
:102D6000A0E1B7E20E941D342091100130911101C1
:102D700040E050E00E94DF33205F384D30935C012B
:102D800020935B0103C0882309F4B0C3C0900901FC
:102D9000D0900A01E12CF12C9301A0E1B7E20E944E
:102DA0001D34A70196010E94DF3330935E0120930A
:102DB0005D012C853D85A0E1B7E20E941D34A7018D
:102DC00096010E94DF333093600120935F0148CF6A
:102DD000F1E66F16710408F075C0013D27E0120797
:102DE00008F470C085E080930F0182E180930E01AA
:102DF000C80186509F4F4D895E898417950720F43E
:102E000083E180930E0119C08091090190910A011C
:102E10009E838D83B8018D899E890E9463032D81D5
:102E20003E81DC010E941D34980140E050E00E9488
:102E3000DF3330935A01209359019A899770E92E14
:102E4000832D806480937C00EBE0FE2EE1E0F0E0D7
:102E5000FE83ED830FEF13E0A89561E089817AD5B9
:102E600094B886B18E21E9F3FE85F4B980917A0099
:102E7000806480937A0080917A0086FDFCCF8091F7
:102E80007800909179009801281B390B4D815E8163
:102E9000420F531F5E834D83FA94F110DDCFCA01B8
:102EA000880F991F880F991F69E070E00E94B8335E
:102EB0007093600160935F01809164018F5F8093E4
:102EC0006401CECE94B8588D55B9842D0E94F60277
:102ED0006C01832D0E94FA0298878F830E945E0303
:102EE0009A878987AC14BD04A8F4B301C6010E9477
:102EF00063038C012091090130910A0140E050E008
:102F000060E871EA83E09CE10E94DF33D8010E940F
:102F100032341FC084B8F981F5B9842D0E94F602BD
:102F20006C01832D0E94FA0298878F830E945E03B2
:102F30009A878987C6016C147D0410F48619970955
:102F400069857A850E9463039C01A4E6B0E00E9433
:102F50001D34E985FA859F0140E050E00E94DF338F
:102F600049015A01FA81F7B988E088B92D8124B95D
:102F700025B9852D0E94F6028C01832D0E94FA024C
:102F80009A878987842D0E94FA027C01003331E1FF
:102F9000130708F0BFC125B8852D0E94F602998B52
:102FA000888B24B8852D0E94F6029C8B8B8B15B8DC
:102FB00081E00E94C20225B8852D0E94F6024B894D
:102FC0005C894034564008F05DC08133914108F47B
:102FD00059C0C8018A569F4F28893989281739074F
:102FE00008F050C086E080930F01809144018F5F0C
:102FF00080934401B70189859A850E946303909369
:103000003A0180933901B701C8010E94630390938C
:10301000400180933F0114B815B83A8938B981E06E
:103020000E94C20224B8852D0E94F602853F9105B8
:1030300008F06AC24D8144B9832D0E94F602813D99
:10304000934008F461C2852D0E94FA028D3D9240A2
:1030500008F45AC224B8852D0E94F6028D3D924094
:1030600008F452C225B881E00E94C20215B8852D2D
:103070000E94F602853F910508F046C287E08093E2
:103080000F0142C22A8127B9398134B935B981E0AB
:103090000E94C2024B8544B945B9852D0E94F602B3
:1030A0008C010E945E03998B888B832D0E94FA020B
:1030B0009E838D830E945E039A878987842D0E9458
:1030C000FA027C0189859A858E3F994008F4B2C046
:1030D00084E080930F018CE080930E01B301888916
:1030E00099890E9463038C01209110013091110194
:1030F00040E050E060E871EA83E09CE10E94DF3349
:10310000D8010E943234E985FA859F0140E050E001
:103110000E94DF3380914401882369F0809135015A
:1031200090913601A0913701B09138018217930731
:10313000A407B50728F52093350130933601409355
:10314000370150933801B7018D819E810E9463033E
:1031500090933A018093390128893989A0E1B7E237
:103160000E941D34209110013091110140E050E087
:103170000E94DF3330933C0120933B0181E001C08A
:1031800080E0409135015091360160913701709196
:103190003801481559056A057B0528F580923501E7
:1031A00090923601A0923701B0923801B6018F811A
:1031B00098850E94630390933A01809339019601A8
:1031C000A0E1B7E20E941D342091090130910A016B
:1031D00040E050E00E94DF33205F384D30933C01E7
:1031E00020933B0103C0882309F48FC19301A0E120
:1031F000B7E20E941D342091090130910A0140E09C
:1032000050E00E94DF3330933E0120933D012C8536
:103210003D85A0E1B7E20E941D342091100130915C
:10322000110140E050E00E94DF33309340012093D1
:103230003F016AC1F1E66F16710408F06BC028897E
:10324000398929343D4008F465C085E080930F0139
:1032500082E080930E01C70186509F4F801791072F
:1032600020F483E080930E0117C0C0901001D0902D
:103270001101B701C8010E9463039601DC010E949D
:103280001D34E889F9899F0140E050E00E94DF3356
:1032900030933A01209339010B810770832D8064AC
:1032A00080937C001BE021E030E03E832D83A895D5
:1032B00060E089814FD33B8534B935B986B180232D
:1032C000E9F724B880917A00806480937A00809135
:1032D0007A0086FDFCCF80917800909179004D8135
:1032E0005E81480F591F5E834D83115001F7CA015B
:1032F000880F991F880F991F69E070E00E94B8330A
:103300007093400160933F01809144018F5F8093EF
:103310004401FAC088E087B988B914B815B888E0C4
:1033200087B957EC651651E0750608F4D0C088B926
:103330008F8584B998EC9D83EC81FA81EF2BEF8324
:103340002F8127B981E00E94C2023A8137B9852DC9
:103350000E94FA02429728F04D8141504D8341115D
:10336000EFCF5F8554B955B961E08981F3D2852DDE
:103370000E94F6026C018F8984B915B89C8197B9B7
:10338000EB81E8B960E08981E5D2842D0E94F602E4
:103390000E945E039E838D83FE85F4B9842D0E9476
:1033A000FA028C01852D0E94F602B8010E94630387
:1033B0007C01842D0E94FA028C01852D0E94F60268
:1033C000B8010E94630397012C5E3F4F281739070D
:1033D00008F480C088E088B92A8127B924B825B8C4
:1033E00061E08981B7D2842D0E94FA028C01852D7B
:1033F0000E94F602B8010E9463038C01E816F906E8
:1034000058F43F8534B935B9852D0E94F6029C01E8
:10341000CD82DE82780110C04F8944B915B85C8135
:1034200057B98B8188B960E0898194D2842D0E943C
:10343000F6020E945E039C0198EEE91693E0F906FD
:1034400030F4C70164E670E00E94B83306C0B701EB
:1034500054E0769567955A95E1F7C7018759910928
:1034600089389141A0F52E153F0588F58D819E8103
:1034700043E0969587954A95E1F7893C910510F0D0
:1034800088EC90E02D813E81820F931F8E159F0561
:10349000F0F462177307D8F480910F01833018F4A9
:1034A00083E080930F0120910D01822F90E0FC01B9
:1034B000EB57FE4F50824682880F991FFC01EF5652
:1034C000FE4FF182E0822F5F20930D0103C0642D37
:1034D000852D29D088E087B988B914B815B88EE24F
:1034E0000E94D4056896E2E10C94E3349091640163
:1034F0009F5F90936401882369F330926101409249
:10350000620150926301E6CF81E0909144019F5F98
:10351000909344018823F1F230924101509242018C
:1035200040924301D7CFA0E0B0E0E9E9FAE10C9482
:10353000C934A895462F50E0FA01E057FE4F949009
:1035400033969491A82FB0E0FD01E057FE4FE49030
:103550003396F490709164012091440130E0270F7C
:10356000311D232B09F0F1C1A89520911301309151
:103570001401220F331F220F331F30932601209393
:1035800025012091690130916A01220F331F220F1A
:10359000331F30932401209323012EEB209321012C
:1035A000C0910D01E5E8F1E070E04A0F5B1F7C1768
:1035B00059F02191A58130E02A0F311D24173507DC
:1035C00009F456C07F5FF3CFD62FC82F88E088B9A3
:1035D000E92FE860E7B9E4B8E5B8B8E1BB2EC12C43
:1035E000D12C8D2F0E94F602782E692E8C2F0E94EE
:1035F000FA028C018C199D0997FF03C09195819562
:103600009109039734F0A895BA946801B110E9CFF5
:103610002FC0EE0C15B8E4B88C2F0E94F60281354D
:10362000910530F5E5B88C2F0E94F6026C018F2DC4
:10363000886087B9F8B815B894B8A8E18A2EA12C8B
:10364000B12C8C2F0E94F602582E492E8D2F0E94ED
:10365000FA027C018A199B0997FF03C09195819515
:1036600091090397CCF0A8958A9457018110E9CF6E
:10367000809113019091140190932601809325016C
:103680008091690190916A019093240180932301B4
:1036900089E18093210159C1990C94B88D2F0E9422
:1036A000F6025C01003C84E4180730F425E8C216F9
:1036B00021E0D206E8F605C080EBC8168DE4D806F6
:1036C000B8F624EAE21622E0F20608F06CC088E9B7
:1036D000A816B10468F2C6010E945E03AC0196010F
:1036E000A8E9B7EB0E941D349A0140E050E00E9427
:1036F000DF3329013A01C5010E945E039C01A8E95C
:10370000B7EB0E941D34850120E030E0A90198014B
:103710000E94DF3388E7C8168FE0D80680F4D30113
:10372000C201F2E0880F991FAA1FBB1FFA95D1F7BB
:10373000BC01CD01620F731F841F951F14C088E761
:10374000A8168FE0B806B0F4DA01C901E2E0880FEC
:10375000991FAA1FBB1FEA95D1F7BC01CD01640DCB
:10376000751D861D971D25E030E040E050E00E9469
:10377000DF330CC0D301C201820F931FA41FB51FFA
:103780009C01AD015695479537952795A4E6B0E085
:103790000E9432342B013C012CEA420E2DE0521ED5
:1037A000611C711C79C0672D762D0617170708F468
:1037B000B801C52CD42CCE14DF0408F46701061719
:1037C000170708F48B01A0901001B0901101C801F7
:1037D0000E9463039501DC010E941D342B013C0112
:1037E000C8010E945E039C0140E050E0C301B201A9
:1037F0000E94DF3329013A01CE14DF0408F4760178
:10380000A0900901B0900A01B701C6010E946303AC
:103810009501DC010E941D344701A12CB12CA501AA
:1038200094010E94DF3308378FE0180780F4D3013A
:10383000C20162E0880F991FAA1FBB1F6A95D1F7CA
:10384000BC01CD01620F731F841F951F14C088E750
:10385000E8168FE0F806C0F4DA01C90132E0880FFB
:10386000991FAA1FBB1F3A95D1F7BC01CD01640D6A
:10387000751D861D971D25E030E040E050E00E9458
:10388000DF3329013A0108C0420E531E641E751E23
:10389000769467945794479410910F01143008F070
:1038A000E7CEC1500C2F0D0F202F30E0E901C15B96
:1038B000DE4F8881220F331F220F331FF901EE558F
:1038C000FE4F8823D9F1C080D180E280F380A3012C
:1038D00092012C193D094E095F0957FF07C0509509
:1038E0004095309521953F4F4F4F5F4FAAE0B0E094
:1038F0000E94323424E6C20ED11CE11CF11CA70147
:103900009601240D351D461D571D0E94DF33232BC4
:10391000242B252B09F0ACCE133019F081E08093D5
:103920000F0182E0888380916B01E82FF0E0EE5A6E
:10393000FE4F00838F5F80936B019ACE408251824D
:103940006282738281E0888393CECDB7DEB7E0E1F7
:103950000C94E534CF93C82FC09595B160FF02C099
:10396000982B01C09C2395B994B1892B84B982E02E
:103970000E94C20284B18C2384B985B1C823C5B921
:10398000CF910895A0E0B0E0E8ECFCE10C94CF34D6
:103990001AE008E08FE3C82E99E0D92E07B908B9DC
:1039A00015B8C4B880E00E94F6027C0181E00E9454
:1039B000FA02EC0182E00E94FA029C0180910F0160
:1039C000893081F488E087B914B8F0924A01E09216
:1039D0004901D0934C01C0934B0130934E01209389
:1039E0004D015BC084E0E816F10440F4C430D10519
:1039F00060F42430310530F399E00BC088EEE8160E
:103A000083E0F80610F098E001C099E0C83ED3408A
:103A100008F49260283E334008F4946097B9C0E0FF
:103A2000D0E0A89580E00E94EE025C0181E00E9457
:103A3000FA027C0182E00E94FA0224E1A21625E04B
:103A4000B20608F4389A24E1E21625E0F20608F4FA
:103A5000399A843125E0920708F43A9A26E0A216B2
:103A6000B10430F426E0E216F10410F4069738F0C1
:103A70002196C43F81E0D807A1F6D0920F01E12C36
:103A8000F12CEC16FD0631F00E94B1022FEFE21A84
:103A9000F20AF7CF115009F081CFCDB7DEB7EAE0D7
:103AA0000C94EB34CF92DF92EF92FF92CF93209160
:103AB0006F01309170014091710150917201C0917C
:103AC00081018AE0C82ED12CE12CF12C8C2FCF5F04
:103AD000213A96E8390791E04907510538F0CA01C3
:103AE000B901A70196010E94DF33F0CF80938101D5
:103AF000A0912501B09126010E94323428E833E1DB
:103B000040E050E00E94DF3320936F01309370015A
:103B10004093710150937201CF91FF90EF90DF902D
:103B2000CF900895A0E0B0E0E8E9FDE10C94CD3439
:103B3000982F990F980F2FEF260F920F9093460111
:103B4000E82FF0E0E057FE4F1491262F30E0F90106
:103B5000E057FE4FF490F901ED56FE4FD49190914D
:103B60000F01913009F4A2C220910D01A5E8B1E046
:103B7000FD0190E0921791F0368163130BC0308104
:103B8000831308C01C964D915C911D974C3D554088
:103B900008F48CC29F5F31961296ECCF062FC82F87
:103BA000D86010927C0110927B0181EF809381019B
:103BB00010926F01109270011092710110927201B7
:103BC000E1DE88E088B9D7B9F4B8F5B88C2F0E9447
:103BD000FA025C01802F0E94FA02A81AB90A14B8EE
:103BE000109248011092470180914701909148013D
:103BF000843F914008F0AAC015B914B90E94AB02E5
:103C000014B815B80E94B202A8958C2F0E94FA022F
:103C10007C01EA18FB0880914701909148018E379A
:103C2000910528F08BE4E816F1040CF48FC0809124
:103C30004701909148012DE2E21621E0F20634F4AA
:103C400001969093480180934701CECF892B09F0CC
:103C5000A4C185E1E81685E0F8060CF49EC192DE69
:103C600015B88FE087B988E088B9F12EFF0CF4B859
:103C700080E480937B0084E580BF8C2F80648093F8
:103C80007C0086E180937A000E94B5021092480180
:103C900010924701109280001092850010928400CB
:103CA00087E286BB81E280936F0081E080936C01A4
:103CB000F5B890910F0180938100953009F04CC0C8
:103CC00081E090E00C2E01C0880F0A94EAF78095FD
:103CD0008F7087B9F89483B7817F83BF80916C011F
:103CE000882389F083B7816083BF7894889583B7F0
:103CF0008E7F83BFF894A8958091470190914801E9
:103D00008034964059F7789410928100E0908600B4
:103D1000F090870010926F0086E980937A0014B8C3
:103D200015B88C2F0E94FA022091290130912A01A6
:103D3000821B930B0C969093840180938301809156
:103D40004701909148018032934040F088E087B964
:103D500088B914B815B8AAC1D7B9BCCF80914701AA
:103D60009091480190937A0180937901F0927801C3
:103D7000E092770184EF80938101809147019091D7
:103D8000480182349105C8F0609177017091780103
:103D90008091790190917A0124E630E040E050E092
:103DA0000E94DF33209377013093780140937901AB
:103DB00050937A0186EF80938101A0916D01B091BB
:103DC0006E012091770130917801409179015091F5
:103DD0007A010E94323420E233E040E050E00E9459
:103DE000DF3320937701309378014093790150932A
:103DF0007A0120936F0130937001409371015093C9
:103E0000720150DE80918101843F09F071C0C09041
:103E10006F01D0907001E0907101F090720180EA22
:103E2000C8168FE0D806E104F104C0F4A70196019A
:103E30002C543F4F4F4F5F4F60EA7FE080E090E0AF
:103E40000E94DF33C20ED31EE41EF51EC0926F0126
:103E5000D0927001E0927101F0927201C0906F01F6
:103E6000D0907001E0907101F0907201C114D10402
:103E700021E0E206F10428F4D092B301C092B2012D
:103E800006C081E090E09093B3018093B2018091ED
:103E9000460190E0875C9C4F0E945A3590E0A0E07C
:103EA000B0E0B701A6018C159D05AE05BF0568F40D
:103EB000481B590B6A0B7B0B40936F0150937001A9
:103EC000609371017093720113C04C5E5F4F6F4F2E
:103ED0007F4F481759076A077B0710F40E94AE0C02
:103EE00010926F0110927001109271011092720184
:103EF00014B980916F0190917001A0917101B091FE
:103F000072014997A105B10508F420CFC12CD12C2D
:103F100080910D01882329F080910F01853009F0EF
:103F200015CF88E080930F018091810190918201EB
:103F30009817C4F089130ACF80906F019090700198
:103F4000A0907101B0907201409173015091740181
:103F50006091750170917601481559056A057B05D8
:103F600008F0F4CE40916F015091700160917101A1
:103F700070917201409373015093740160937501C5
:103F80007093760180938201D0927E01C0927D0170
:103F900000937F01C0938001D9CEC701C12CD12CE1
:103FA00020914701309148012C153D0560F00E9499
:103FB000AC028C2F0E94FA028A199B09A8952FEF58
:103FC000C21AD20AEDCF5701A81AB90A1A141B0453
:103FD0009CF439ECA316B1040CF0B8CE28EE33E013
:103FE000D5010E942C3497010F2C000C440B550B6B
:103FF0000E94DF33690102C0C12CD12C809147019E
:10400000909148010196A0E0B0E0809377019093F1
:104010007801A0937901B0937A01C7018A0D9B1DA5
:104020000E94E80320917701309178014091790155
:1040300050917A01DC010E943234609377017093D1
:1040400078018093790190937A0160936F01709366
:104050007001809371019093720187EF80938101C9
:1040600021DD80906F0190907001A0907101B0905F
:1040700072018CE193E00E945A35A8EEB3E0A81BD0
:10408000B10987FDB395A50194010E943C3424E653
:1040900030E040E050E00E94DF3320936F01309326
:1040A0007001409371015093720132CFCDB7DEB7EA
:1040B000ECE00C94E9341F920F920FB60F9211248A
:1040C0008F939F93B59904C080916C01811109C0B1
:1040D000B59B10C080918600909187008A3F910522
:1040E00048F48091470190914801019690934801CE
:1040F000809347019F918F910F900FBE0F901F905B
:1041000018951F920F920FB60F9211248F939F93C1
:1041100010926C01B09B10C0809186009091870036
:104120008A3F910548F4809147019091480101969A
:1041300090934801809347019F918F910F900FBEFC
:104140000F901F901895A0E0B0E0E9EAF0E20C941F
:10415000CD3488E893E190931401809313019093F8
:104160002601809325018EEB80932101C8E0C8B918
:1041700088E187B90E94BA02C7B984E00E94F602BA
:10418000AC018B5C9840833F9140A0F481E0809328
:1041900030012091250130912601AFEBB9E00E945A
:1041A0001D349A0140E050E00E94DF333093140147
:1041B0002093130180911301909114019093260193
:1041C000809325018EE00E94FA028EE00E94F602A2
:1041D00090932A01809329010E946C03D3DB88E02D
:1041E000F82EF8B8C9E0C7B985E185B9D1E0D4B9EE
:1041F00080E00E94F6028C019AE0D92ED7B824E024
:10420000B22EB4B881E00E94F602080F191F3CE0FC
:10421000E32EE7B840E1C42EC4B882E00E94F60263
:10422000080F191F15B8C8B9C7B9D4B980E00E94E2
:10423000F6020E945E03EC01D8B8D7B8B4B881E0AA
:104240000E94F6020E945E03C80FD91FE8B8E7B8C3
:10425000C4B882E00E94F6020E945E03C80FD91F14
:10426000F7B8F8B814B820912501309126016901FA
:10427000CC0CDD1CC20ED31EC01AD10ACC1ADD0A2A
:10428000E12CF12C9801A0E9BAE10E941D34A701AC
:1042900096010E94DF3349015A0130932F01209388
:1042A0002E019E01A0E9BAE10E941D34A7019601EA
:1042B0000E94DF3330932801209327012057354E89
:1042C000309311012093100180E7881A85EE980A37
:1042D00090920A018092090189E180932101CDB772
:1042E000DEB7ECE00C94E934CF92DF92EF92FF92CC
:1042F0000F93CF93DF93F82ED62FC42F0E940A0678
:1043000086E191E00E94580617D26D2F8F2D0E94F2
:10431000D531C090B601D090B701E090B801F090CF
:10432000B9018091150187FD05C0C114D104E104D4
:10433000F10421F082E191E00E9458068D2F0E9445
:104340000A06C114D104E104F104A1F10E940D0692
:10435000809152010E940302CC2309F47EC0809117
:1043600031018D3028F490E0835C9C4F0E94580608
:1043700080E00E94D306CD28CE28CF2801F160919D
:10438000B6017091B7018091B8019091B90103E035
:1043900028E447EF0E940F0785E291E00E9458064B
:1043A0008EE493E00E94623522E046E464EF0E94CE
:1043B000F9071FC0C111D3CF80E00E94D3068091BE
:1043C00052010E940302809115018E3F94F48FE305
:1043D00091E00E94580660919D0170919E0180912C
:1043E0009F019091A00103E028E4409115010E94F3
:1043F0000F078091AE019091AF01A091B001B091F3
:10440000B101892B8A2B8B2BF1F080E00E94D3061F
:104410006091AE017091AF018091B0019091B101B6
:1044200004E028E440E00E940F0780E291E00E944F
:10443000580623E040E26FEF8091B4019091B501FE
:104440000E94F90707C080E00E94BA0680913401FB
:10445000811107C00E94B40604C080E00E94D30608
:104460008ECFDF91CF910F91FF90EF90DF90CF90A3
:104470000895CF92DF92EF92FF920F93CF93C82FC0
:104480000E94360680917F010E940A068BE591E02A
:104490000E94580689D360917F01809180010E941B
:1044A00027047C0190937C0180937B01C0907D0167
:1044B000D0907E018AEFE8168FEFF80678F4C114E9
:1044C000D10441F081E090E0C11102C080E090E0B1
:1044D000892B21F087E191E00E94580680918001AC
:1044E0000E940A06CC2359F0909131018DE0891B7E
:1044F0000E94100687E790E00E94580615C0809140
:104500007D0190917E01892B69F082E491E00E9407
:10451000580622E045E26FEF80917D0190917E0187
:104520000E94F9070E94B4060E944406609173013C
:1045300070917401809175019091760104E026E4F8
:10454000409182010E940F078AEFE8168FEFF8066C
:1045500068F48AE491E00E94580622E044EF6EEF8E
:1045600080917B0190917C010E94F9070E94B40622
:10457000CC2391F0CD2881F080E00E94D30683E423
:1045800091E00E94580622E045E26FEF80917D01A4
:1045900090917E010E94F9070E94B406CF910F917D
:1045A000FF90EF90DF90CF9008958F7051F488ECDA
:1045B0000E94C2020E9444060E94CD1288EC0C9414
:1045C000C20208958F3021F490912B01913011F0A7
:1045D0008F5F089580E00895CF9382E890E00E9475
:1045E000052CC0E00E949B0860E082E00E94931AC4
:1045F00062E080E00E94931A0E94360680916B016F
:10460000882329F041E062E080E06EDE0FC082E89E
:1046100090E00E94580687E493E00E9458060E94AA
:1046200044068FE30E94D4050E94B4068C2FBDDFA0
:1046300088EE93E00E941808811105C08C2FC2DF1C
:10464000C82F8A3F78F20E943E06CF9108950F93BB
:104650001F93CF93DF93C0E0D8E012EF0DE00E94EC
:104660009B0860E082E05EDAD0930F0180918101C7
:10467000843FE1F480916F0190917001A0917101EC
:10468000B091720184369105A105B10578F440E03E
:1046900060E082E00E94642F60936F01709370016C
:1046A0008093710190937201109381018091810137
:1046B000823FACF08093820180916F0190917001F4
:1046C000A0917101B0917201809373019093740174
:1046D000A0937501B093760181E0CBDE18C00E94F3
:1046E00036068BE790E00E94580680913101902FAA
:1046F000981B892F0E94100687E790E00E945806B9
:104700000E9444068FE30E94D4050E94B4068C2FB9
:104710004CDF80ED97E00E941808811106C08C2FB5
:1047200051DFC82F8A3F08F49ACF0E943E06DF91DE
:10473000CF911F910F910895A4E1B0E0E2EAF3E276
:104740000C94C73482E08093150180910F01813071
:1047500009F026C280916B01813009F021C20091DD
:10476000520124E0029FF0011124EE55FE4F80819A
:104770009181A281B381893032E59307A105B1050A
:1047800008F00EC24C0110E0802F123028F40E9475
:10479000F901582E492E03C00E94F9012C01E42D85
:1047A000F0E0ED56FE4F2490852D90E0FC01E0579F
:1047B000FE4FE49115B828E028B930EF8316910434
:1047C000B8F410FD15C0A0900901B0900A0120E9CD
:1047D000A21A2AE1B20A21E030E0052C02C0220F21
:1047E000331F0A94E2F7C9018860822987B908C09B
:1047F000E4B9822D886087B9A0900901B0900A01C0
:10480000F4E13F2E852D0E94F2023C01842D0E948E
:10481000FA0234E06316710410F4049718F03A9425
:104820003110F0CF80E480937B0094E590BF852D1C
:10483000806480937C0026E120937A00E12CF12CA7
:1048400010928000109285001092840087E286BB4F
:104850000E94B502312F3170332E10FD05C081E862
:104860008093810028B808C028B80E94BE0280E268
:1048700086BB81E88093810086B385FF13C098E0F2
:1048800098B91092810020E226BB209186003091D9
:1048900087006901409184005091850024173507F5
:1048A00070F014C080FFE8CF31E036BBA8959701C7
:1048B0002F5F3F4F790120353105F1F6E0CF80FFC2
:1048C00005C081E086BB9FEFE91AF90A86E980936B
:1048D0007A00E4E12E2E852D0E94F2023C01842D07
:1048E0000E94FA0224E06216710410F4049718F092
:1048F0002A942110F0CF40902E0150902F01480CA7
:10490000591C4A0C5B1C20910B0130910C0180E971
:10491000A8168AE1B806B0F491EEC916D104E104F4
:10492000F10438F4C60165E070E00E94B8336451C8
:1049300001C069E128523109261B310967FD339511
:1049400086E009C0C20160EB76E30E94B83387E0DD
:10495000860F285D3F4F90E0A0E0B0E08C159D05EC
:10496000AE05BF0528F4C81AD90AEA0AFB0A03C033
:10497000C12CD12C7601332029F082E2C80ED11C43
:10498000E11CF11C90E5E916F10418F0C12CD12CC2
:1049900076018BE0C816D104E104F10428F091E01F
:1049A000C91AD108E108F10840912501509126016A
:1049B000612C712CA8EEB3E00E941D34698B7A8BB8
:1049C0008B8B9C8B9501DA010E941D34A30192010F
:1049D0000E94DF334427552769897A898B899C890E
:1049E0000E94DF33C9010E94C403FC01A3019201AC
:1049F000C701B6010E949D332B013C01CF01A0E00D
:104A0000B0E073E0880F991FAA1FBB1F7A95D1F7FA
:104A1000BC01CD016B5F7F4F8F4F9F4F2AE030E08D
:104A200040E050E00E94DF33C301B2010E94DF3357
:104A3000E12FF0E0A1E0B0E0AC0FBD1F84E0189FD3
:104A4000A00DB11D11242D933D934D935C931397AD
:104A5000311016C09CE0C916D104E104F10480F0C5
:104A60003196EE0FFF1FEE0FFF1F81E090E08C0FDD
:104A70009D1FE80FF91F20833183428353831F5FFB
:104A8000A8951F5F143008F47FCE88E088B984E0D1
:104A90000E94C20291E00D811E812F8138854981DB
:104AA0005A816B817C81401751076207730708F0B8
:104AB00090E00D851E852F85388949855A856B853F
:104AC0007C85401751076207730710F483E001C02B
:104AD00082E0E92FF0E0EE0FFF1FEE0FFF1F21E055
:104AE00030E02C0F3D1FE20FF31FD90134E0839F0C
:104AF000A00DB11D11240D911D912D913C9140816E
:104B0000518162817381041715072607370708F062
:104B1000892FE1E0F0E0EC0FFD1F94E0899FE00DAC
:104B2000F11D1124408151816281738140939D0167
:104B300050939E0160939F017093A00180FD08C077
:104B400020EF8216910420F48BEF8093150117C09B
:104B50008CEF80931501CB01BA016B5F7F4F8F4FB4
:104B60009F4F2AE030E040E050E00E94DF33209386
:104B70009D0130939E0140939F015093A00180912D
:104B80009D0190919E01A0919F01B091A001892B60
:104B90008A2B8B2B11F41092150188E087B914B879
:104BA0006496E2E10C94E334A0E0B0E0EAEDF5E2D3
:104BB0000C94CD3480917D0190917E01892B09F078
:104BC0009EC0E0917F01F0E0ED56FE4FD491D86099
:104BD000E0918001F0E0E057FE4FC4910E94C21CBA
:104BE00088E088B915B8D7B9C4B9809180010E940E
:104BF000FA028C01D09182018CE08D0F843008F094
:104C00007EC08091730190917401A0917501B09163
:104C10007601D15F2AE0822E912CA12CB12CBC010F
:104C2000CD016B5F7F4F8F4F9F4FA50194010E9475
:104C3000DF3369017A01DA01C901DF5FD73079F723
:104C400029E8C21623E1D206E104F10408F057C0B6
:104C5000059708F454C0C5B9C4B9C0E0D0E0CC157C
:104C6000DD0520F40E94BC022296F9CF14B815B8D5
:104C7000A89585E080932101809180010E94FA022D
:104C80000817190720F4EC01C01BD10B02C0C0E0CB
:104C9000D0E0A12CB12CAC14BD0430F40E94BC02B5
:104CA0008FEFA81AB80AF7CF809180010E94FA020C
:104CB00029E120932101A8950817190718F4801BF2
:104CC000910B02C080E090E08C179D0788F49E0154
:104CD000281B390B69F0A4EFB1E00E941D349E013E
:104CE00040E050E00E94DF3330937E0120937D014D
:104CF0000E94C21C88E087B988B914B815B8CDB72E
:104D0000DEB7ECE00C94E934A7E0B0E0EAE8F6E2C4
:104D10000C94C73488E192E078D520EF2B83549827
:104D20000E94B10214BC16BC10920301109204013F
:104D3000109205011092060131E035BB30936E00F0
:104D40001092800083E19AE790938B0080938A0011
:104D5000E1E0F0E0F0938900E09388001092850094
:104D60001092840083B5816083BDF6E0F6BBF093BA
:104D70006F00789424E02093810032E339831A8213
:104D80000E94AA02A8954F9902C061E06A8385B586
:104D900081111FC015BC86B5809303010E943E0699
:104DA00086E60E94D4050E94190660910301709165
:104DB0000401809105019091060147E00E940E08D0
:104DC000549880918100882351F08FE30E94D4058C
:104DD00006C08981815089838111D2CFDBCF1092A7
:104DE000810010926F0020910301309104014091E5
:104DF000050150910601DA01C9010197A109B10924
:104E0000813F9048A105B10508F00BC1AAE0B0E0D0
:104E10000E943234DC01CB010896A11DB11D23E0B4
:104E2000B695A795979587952A95D1F7BC01660FFA
:104E3000771F709366016093650154980E94B102D8
:104E400016BC1092030110920401109205011092F9
:104E50000601F1E0F5BBF0936E001092680110922C
:104E6000670124E02BBB8091680084608093680018
:104E7000789480916D00806180936D0019820E940A
:104E8000AA02A8954F9902C031E03A8380916D0043
:104E900084FF05C069816F5F69836A3F81F715BC34
:104EA00080916D008F7E80936D00809168008B7F74
:104EB0008093680086B5809303010E94440684E5D0
:104EC0000E94D4050E9419066091030170910401AB
:104ED0008091050190910601E0916501F0916601D4
:104EE000FD83EC8328EA31E640E050E00E94423442
:104EF000EC81FD81612C712C43015F01C12CD12C0F
:104F0000E12CF12C00E010E00E946B3449014F834A
:104F10005E831B012C012C813D812038310530F04E
:104F200007E023E745EFB4018F8117C084E6A82E80
:104F3000B12CC12CD12CE12CF12C00E010E094011B
:104F40004F815E81C2010E946B34F22FE42F07E093
:104F500023E747EF6F2F732F8E2F952F0E940F0798
:104F600039813A3F21F48FE30E94D4055AC094015D
:104F70004F815E81B101C201263E354B410551058D
:104F8000610571058105910509F008F44AC00E9488
:104F9000360686E60E94D4050E94190694014F81C8
:104FA0005E81B101C20154012115FAEC3F07FAE913
:104FB0004F07FBE35F076105710581059105A1F0CE
:104FC00098F06A017101820120E030E04AE85DE575
:104FD00068E775E483E691E00E946B34F22FE42FDA
:104FE00007E028E44AEF13C0CF80DE807101820120
:104FF00020E030E44AE750E163EF7AE580E090E0BA
:105000000E946B34F22FE42F07E028E44DEF6F2F5E
:10501000732F8E2F952F0E940F078AE70E94D405C9
:10502000549810926E0080ED97E00E9418082A8133
:10503000820F29F43B8131503B83311170CE27968A
:10504000E2E10C94E3341F920F920FB60F921124F9
:105050008F939F93AF93BF93789480910301909126
:105060000401A0910501B09106019F5FAF4FBF4FB2
:105070008093030190930401A0930501B09306016E
:10508000BF91AF919F918F910F900FBE0F901F9086
:1050900018951F920F920FB60F9211248F9386E0EE
:1050A00085BD8F910F900FBE0F901F9018951F9286
:1050B0000F920FB60F921124A8951092810015BC83
:1050C0000F900FBE0F901F9018951F920F920FB662
:1050D0000F9211242F933F938F939F938091670199
:1050E00090916801892B11F481E085BD20916701C1
:1050F0003091680180916501909166012817390708
:1051000030F015BC80916D008F7E80936D00809192
:1051100067019091680101969093680180936701FF
:105120009F918F913F912F910F900FBE0F901F90E5
:1051300018958B3008F08B50811103C081E292E00A
:1051400031C0813019F488E192E02CC0823019F42A
:105150008BEE91E027C0833019F480EE91E022C0FD
:10516000843019F48DE890E01DC0853019F482E890
:1051700090E018C0863019F48BE790E013C08730B8
:1051800019F480ED91E00EC0883019F48DEB91E0B8
:1051900009C0893019F483E092E004C08A3021F418
:1051A00087EF91E00E9458060E94B4060C943106E5
:1051B00008950F93CF938DE890E027D3C0E010922D
:1051C0000F0160E082E036D380910F018830D9F57D
:1051D0000E94360683E40E94D4050E94190660915D
:1051E000730170917401809175019091760103E0D3
:1051F00026E4409182010E940F070E94B40660914C
:105200007F01809180010E94270490937C0180930C
:105210007B010E9444068BE491E00E945806809135
:105220007B0190917C018A3F2FEF920730F422E0BE
:1052300044EF6EEF0E94F90703C08FE30E94D4058C
:105240000E94B4060AC00E9436068DE890E00E94D3
:1052500058060E94B4060E94DF068C2FA6D988EE5D
:1052600093E00E941808811106C08C2FABD9C82F7B
:105270008A3F08F4A4CFCF910F910895A4E0B0E045
:10528000E4E4F9E20C94C7348BEE91E0BED280E105
:105290008093800010926F0081E090E090938900ED
:1052A0008093880010928B0010928A0083E086BB66
:1052B0001092820088E08093810015B891E194B942
:1052C00088B989E087B9229A80938100312C20E047
:1052D000FAE02F2E31E03B83812C912C54018394F2
:1052E00041E14C83832D90E00A966EE170E00E94CC
:1052F000CC336A83062F621781F00E9436068BEE4C
:1053000091E00E94580610E0101728F48EE20E94E7
:10531000D4051F5FF9CF0E94B4065C815231B8F00A
:10532000C701B601A50194010E94DF336B017C0126
:105330008B81622D0E94AC33A92FB0E0A5019401AE
:105340000E943234C60ED71EE81EF91E0CC08B8197
:10535000622D0E94AC33A92FB0E0A50194010E94F8
:1053600032346B017C010E9444068B81821109C09A
:1053700081E09C81923108F480E08983811107C02B
:1053800001C019822C81263120F082E503C08CE314
:1053900001C08EE30E94D4054C81C701B6010E9472
:1053A0000E08C701B6017E5E85489F4FA701960192
:1053B000220F331F441F551F0E94DF33CA014F3F86
:1053C000510539F030F08DE08093810080E094E069
:1053D0001FC04034510530F08CE08093810080E0A4
:1053E00091E016C04830510530F08BE08093810089
:1053F00080E490E00DC0892B31F09AE09093810019
:1054000088E090E005C089E08093810081E090E031
:105410002C01612C712CCA01B901A30192010E94D7
:10542000DF33215031093093890020938800809127
:10543000880090918900892B31F421E030E030938D
:10544000890020938800009188001091890060E015
:1054500079E08DE390E0A30192010E94DF33A4E69E
:10546000B0E00E94323498012F5F3F4F40E050E09F
:105470000E94DF3329013A01A4E6B0E0A7019601BA
:105480000E943234A3019201261B370B480B590BA3
:10549000CA01B90102E228E44EEF0E940F078AE731
:1054A0000E94D4050E94B40680ED97E00E9418087F
:1054B000882309F449C0883C60F010928100109262
:1054C000800088E087B914B822982496E2E10C9411
:1054D000E334813598F139813323E9F04C8141502F
:1054E0004C83C501B4012AE030E040E050E00E9466
:1054F000DF3349015A01C701B6010E94DF33CA01F7
:10550000B9012AE030E040E050E00E94DF336B83D5
:105510003AE0232E36C05C81563148F55F5F5C83EC
:10552000563111F425E1222EAAE0B0E0A501940144
:105530000E9432344B015C011B8223C08B3018F077
:105540008B818F5F8B83312C2B81822F90E0622D9A
:1055500070E06F5F7F4F0E94CC338B83832D32D8F6
:10556000382E3FEE381708F4A8CF2A81BBCE8AE048
:10557000282E41E04B83812C912C5401839451E1DE
:105580005C83312CF2CFA0E0B0E0E9ECFAE20C94BD
:10559000C93480EE91E039D183E28093800010928B
:1055A0006F008FEF90E090938B0080938A0083E0F0
:1055B00086BB1092820015B881E184B988E088B971
:1055C00089E087B9229A21E030E030938900209366
:1055D00088008093810010E0C0E0D2E300E084E620
:1055E000C82ED12CE12CF12C88248A9493E0992E9A
:1055F000A12CB12CDC17C1F1D43618F0CCE9CD0FB9
:1056000001C0CD2F2C2F30E0AFEFB3E00E941D344E
:105610006E5C7F4F8F4F9F4FA70196010E94DF3333
:1056200029013A0130938B0020938A000E9444069E
:10563000A8EEB3E0A30192010E94323461507E4F84
:105640008F4F9F4FA50194010E94DF33DA01C901FA
:1056500025E045E26FEF0E94F9070E94B406093287
:1056600018F08CE30E94C20280E496E00E941808C1
:10567000082F833868F088E087B910928100109273
:10568000800014B82298CDB7DEB7E0E10C94E53481
:10569000833310F0DAE003C0882321F0D1E0DC0F7F
:1056A00010E001C0DC2F812F0E94E222182F803FE2
:1056B00008F4A0CFE0CF0F931F93CF93DF9380ED3B
:1056C00091E0A3D08CE193E00E945A35C82FD0E03E
:1056D0000E9444060C2F0C2E000C110BC7FF0BC0B0
:1056E0008DE20E94D40523E045E26FEF88279927D9
:1056F000801B910B04C023E045E26FEFC8010E94BC
:10570000F9070E94B40680E496E00E9418088823F6
:1057100031F0823888F48932C8F0CF5FD0E0C135EB
:1057200014F0C55603C0CC3E0CF4CB598D2F0E940B
:10573000E222D82F803F60F26C2F8CE193E00E9430
:105740006735DF91CF911F910F910895C150E6CF3A
:10575000813019F480E0D8CA0895823011F48ECDDA
:105760000895833011F40FCF0895843011F421CDC2
:105770000895853019F40C94EC220895863029F4AC
:105780000E943E060C9427230895873011F493CF8E
:105790000895883021F481E10C9418090895893026
:1057A00011F47EC108958A3011F40C94BE08089556
:1057B000CF93DF938CE292E028D0D0E0C0E00E944B
:1057C00044068C2FB6DC80E49FE10E94180881110A
:1057D000D0E090912B01913009F4D0E0823340F079
:1057E000CC2379F08C2FB4DF8CE292E00ED002C093
:1057F0008111CF5FDF5FDE3620F4CB3000F3CB507A
:10580000DECF80E0DF91CF910895CF93DF93EC015D
:105810000E943E06CE010E945806C4E682E00E9425
:10582000C2024F9902C0C150C9F70E944406DF91DD
:10583000CF910895A0E0B0E0E0E2FCE20C94D03417
:10584000182F062F862F90E0FC01ED56FE4FE491B5
:10585000E860FE2EE12FF0E0E057FE4FC491FC011E
:10586000E057FE4FD49110927C0110927B01109270
:105870006F0110927001109271011092720187EF06
:10588000809381010E94C21C88E088B9F7B8D4B91E
:10589000D5B9812F0E94FA027C01802F0E94FA0262
:1058A000E81AF90A14B8109248011092470120E052
:1058B00030E05CE2C52EDD24D394DAE064E6B62E57
:1058C0008091470190914801843D904308F06FC05A
:1058D000C5B98091470190914801892B81F0F6016B
:1058E000E21BF30B6091470170914801D29FC00108
:1058F000D39F900D11243CD7E617F70750F4C4B995
:105900000E94B50214B88091470190914801019618
:1059100027C080914701909148010B97C0F060919A
:10592000470170914801B29EC001B39E900D1124B1
:105930001FD76E177F0758F4C4B90E94AA0214B883
:1059400080914701909148018C599F4F09C0C4B97B
:105950000E94B00214B880914701909148010A96C4
:10596000909348018093470115B80E94B702A8950B
:10597000812F0E94FA029C012E193F098091470154
:10598000909148018B31964018F0253231057CF01A
:105990002D3281E038070CF493CF8091470190912C
:1059A0004801019771F4253185E0380754F088E00B
:1059B00087B988B914B815B8CDB7DEB7E9E00C944B
:1059C000EC348091470190914801880F991FA0E025
:1059D000B0E08093770190937801A0937901B09320
:1059E0007A01C90168E270E0D7D6CB01820F931F1C
:1059F0000E94E8032091770130917801409179016C
:105A000050917A01DC012ED7609377017093780171
:105A10008093790190937A0160936F017093700184
:105A200080937101909372010E94521DC0906F018A
:105A3000D0907001E0907101F09072018CE193E0E0
:105A40000E945A35A8EEB3E0A81BB10987FDB395B3
:105A5000A701960111D720E137E240E050E0AFD630
:105A600020936F0130937001409371015093720144
:105A700088E080930F012093730130937401409369
:105A8000750150937601809181018093820110927B
:105A90007E0110927D0100937F011093800187CFDA
:105AA000CF92DF92FF920F931F93CF93DF930E94C9
:105AB0003E0683E091E00E9458060E9444068FEB68
:105AC00090E00E9458068AE193E0F4D723E040E298
:105AD0006EEF90E00E94F9078BE193E0EBD723E0B3
