:100000007AC100008AC1000088C1000086C10000DA
:1000100084C100000C94D62B80C100000C946A08A7
:100020007CC100007AC100000C9478200C94BA2B9B
:100030000C94C82B0C94522070C100006EC10000BB
:100040000C94942B6AC1000068C1000066C10000D6
:1000500064C100000C946B0860C100005EC1000028
:100060005CC100005AC10000E62FF72F903009F460
:100070009395E5B8C4B8B6EFB0937A00A5E0A09325
:100080007B00A8E0A093810010928000AFEFA093C6
:100090008500A0938400A6E0A093360010928B0008
:1000A00010928A00B3E0AFE3A91B51E0392F33303F
:1000B0002AF0A05CBC4F53953350F9CFB093890020
:1000C000A0938800A0917A00A4FFFCCFB6EBB09378
:1000D0007A00A2E0A0936F00A9E0A093810062E003
:1000E000A0E0A0937B00A1E0A09353008895E5B821
:1000F000C4B884FF1AC0A8E10000AA95F1F7EF93F5
:10010000FF93E7B1F8B1A4E0C2FCA2E0C0FCA1E01B
:10011000BF2FBA2BAE2BB8B904B9A7B9E7B9F8B954
:10012000FF91EF910BC00C947300ACE10000000054
:10013000AA95F1F725B9E5B8000004B9A0918400AB
:10014000A0918500B0918900A395AB1760F7A091AD
:100150007A00A4FFF3CFB6EBB0937A006A9571F7FB
:100160006091780070917900308186FD630F619312
:10017000308186FD731F80FF7193652F4A9579F753
:1001800010926F0010928100B6E0B0937A0008954B
:10019000010410090A0C556E6B616C696272696525
:1001A000727421205A756DFF4B616C6962726965CA
:1001B00072656E206B6C656D6D652033FF50696EE6
:1001C0006E65207A7573616D6D656E20756E642045
:1001D000737461727465206D697420646572205453
:1001E000617374652E204265737461657469676517
:1001F0002064656E2053656C62737474657374203B
:100200006D69742064657220546173746520696E31
:100210002032732E205472656E6E652064696520ED
:1002200050696E6E652E20536F667477617265201B
:10023000756E6420446F6B756D656E746174696F63
:100240006E206973742061756620676974687562D1
:100250002E636F6D2FFE6D696B726F636F6E7472BC
:100260006F6C6C6572FE2D6E65742F7472616E73A7
:100270006973746F72FE7465737465722000B903DC
:10028000870358032E030703E402C302A402880273
:100290000000140029003E00530069008000970010
:1002A000AE00C600DF00F80012012D014901650112
:1002B0008201A001BE01DE01FF01210244026802A9
:1002C0008E02B502DE020903350364039403C803FA
:1002D000FE0337047304B404F90443059305EA05E7
:1002E0004906B3062907AE074808FF08DE09FD0ADC
:1002F000930C480F991B11241FBECFEFD8E0DEBF2F
:10030000CDBF21E0A0E0B1E001C01D92AA3BB20741
:10031000E1F70E94FC0C0C94783572CE80FD5C9A5B
:1003200080FF5C98549A00005D9A559A58985998A5
:100330005A985B9864FD589A509A65FD599A519A5B
:1003400066FD5A9A529A67FD5B9A539A00005D982F
:100350001DD187FD10C05D9A589859985A985B989E
:1003600060FD589A61FD599A62FD5A9A63FD5B9A45
:1003700000005D980BC1089597FF09C08F939F936C
:100380008DE21CD49F918F91909581959F4F67E14D
:1003900071E04AE050E00E94173578C40895ECDF20
:1003A00001C0EADF80E20AC48DE208C48DE306C41E
:1003B000EF92FF920F931F93182F062FF42E82E7D0
:1003C00091E06FD4EE24E0913201F0913301868503
:1003D000E81611F4812F09C08485E81611F4802FE6
:1003E00004C08585E81611F48F2DE8D3E3948E2D93
:1003F000833049F71F910F91FF90EF900895682F78
:1004000080E092E0662309F491E0623009F481E033
:1004100008950F93082FE2EAF1E0880F880FE80FA4
:10042000F11D60817181828193816436710581053E
:10043000910568F42091150127FD09C0802FDFDFA9
:10044000692F06D26EEF23E044EFC9D504C04FEF09
:1004500004E024EFDBD4A6DF0F910895863058F432
:10046000E1E9F1E0E80FF11DE80FF11D80819181D4
:1004700063E0C0D597CF08951F93182F80916B012B
:10048000882319F08FDF80E099D3F7D389E691E0D4
:1004900008D4812F82958F70E1DF812F8F70DEDF8E
:1004A0001F9108958091020182958F7019D08091DB
:1004B000020183701CD080910201DECF0895E5E82F
:1004C000F1E0E80FF11D0895CF93F9DF9081C68127
:1004D000C91710F405D001C013D064DFCF9108957F
:1004E000EEDF8F9380819FD38F9101C008958F930A
:1004F00085E391E0D6D38F91E2DF868194C308959E
:10050000DEDF8F9386818FD38F9101C008958F9303
:1005100081E391E0C6D38F91D2DF808184C30895B7
:100520008F932F932AE080953B9A089410F4439878
:1005300002C0439A000020D027D086952A95B1F7B3
:100540002F918F91089503D002D001D000D000D018
:1005500003D002D001D000D000D003D002D001D00F
:1005600000D000D0A89503D002D001D000D000D098
:1005700003D002D001D000D000D003D002D001D0EF
:1005800000D000D003D002D001D000D000000895E8
:1005900082E090E0893C28F0885C48EC849FC001B0
:1005A0001124009709F4089540918100477019F0D3
:1005B000D9DF0197F6CF8130910519F002975EE3FC
:1005C00003C057E180E090E04091B200450F4093B6
:1005D000B30042E04093700047E043BF889546E097
:1005E00043BF10927000A895DCCF8F9384E0D1DFD9
:1005F00006C08F93CDDF03C08F9381E0CADF8F9158
:100600001F93182F106410937C00E12FE0788091E5
:100610002201E81759F0E0932201AEDF8EE98093C2
:100620007A0083E083BF889582E083BF20E030E0DA
:10063000A901E0E01FC08EE980937A0083E083BFC8
:10064000889582E083BF6091780070917900260FD1
:10065000371F411D511DE43061F480912401803029
:1006600041F084E02030380720F417FD02C0106804
:10067000CACFEF5F80912101E817E8F26091250170
:100680007091260117FF04C060912301709124012D
:1006900080E090E00E948D332FEF33E040E050E0A7
:1006A0000E94CF33B901CA012091210130E040E01E
:1006B00050E00E94CF33C9011F9108959B01281B70
:1006C000390B50F0C9010895BC018091250190912A
:1006D00026016817790718F4861B970B089580E0A8
:1006E00090E0089580E493E00E9452352091290122
:1006F00030912A01280F391F20930B0130930C01F0
:1007000083E0283E380720F0C901885E934002C08C
:1007100080E090E062E370E00E94A833683008F067
:1007200067E0EEE7F2E0E60FF11DE60FF11D4591FF
:1007300055912591359162E3681B421B530B649FD1
:10074000C001659F900D1124499662E370E00E94FC
:10075000A833620F731F70936E0160936D0182E482
:1007600093E00E944A35992787FD90956091290171
:1007700070912A01860F971F909324018093230183
:1007800090936A018093690108950F9221E08C3261
:10079000920710F48CE291E08C52914069E170E094
:1007A0000E94A83399E16B3210F0982F6BE2981BEE
:1007B000EEEBF2E0E60FF11DE60FF11D9F93CF0186
:1007C0000E944A35482F3196CF010E944A35582F52
:1007D0003196CF010E944A35282F3196CF010E94D1
:1007E0004A35382F6F91421B530B649FC001659FA0
:1007F000900D11240C9669E170E00E94A833620FFD
:10080000731FCB010F900895CF93DF9324E130E065
:10081000B9010E94A833DC01E0E9F2E0E60FF71F1E
:10082000E60FF71FC591D591459155914C1B5D0B76
:100830004A9FC0014B9F900D5A9F900D1124B90102
:100840000E94A8336C0F7D1FCB01DF91CF910895DB
:10085000AEE1B0E0EEE2F4E00C94B734662EB82ED0
:10086000860F898320910F01283059F5209173015B
:1008700030917401409175015091760157FD15C07A
:100880001091820109C0CA01B9012AE0312D412D20
:10089000512D0E94CF331F5F173FACF391F42431E9
:1008A00060E036074105510518F48FEF9FEF41C115
:1008B000173F39F480E028178DE7380741054105D7
:1008C00010F020E03DE72C8B3D8B26EDA22EE3E9D6
:1008D000F1E0E60DF11D859188608E87E3E9F1E096
:1008E000EB0DF11D859188608F87E0E9F1E0E60D61
:1008F000F11D7590E0E9F1E0EB0DF11DC59090EC74
:10090000692AB92A81E0E82EF12C012D112D8E8360
:100910001F82188619861A861B861C861D86188ECD
:10092000198E1B8E1A8E0E94B91C88E088B96092BD
:100930007C0022DE3F8537B975B874B852E05A950D
:10094000F1F70000000014B815B8DD243E8537B972
:1009500075B874B860927C00A895A0927A008091D6
:100960007A0086FDFCCF2090780030907900B0921C
:100970007C004C2DE2D02091780030917900288BBA
:10098000398B3F8537B9C5B8C4B8A895B0927C00FB
:10099000A0927A0080917A0086FDFCCF6091780069
:1009A0007091790060927C00472DC7D0409178000B
:1009B0005091790014B8CB01820D931DE80EF91EF9
:1009C000011D111DEA82FB820C831D838889998990
:1009D000840F951F2E813F8168857985280F391FE7
:1009E000611D711D2E833F836887798722E3241759
:1009F000150648F075B874B8C9DD14B815B8888DF7
:100A00008395888F07C0483E73E0570718F08A8D9A
:100A100083958A8F888999892817190658F03E8509
:100A200037B9C5B8C4B8B2DD14B815B8898D839587
:100A3000898F07C0883E73E0970718F08B8D8395E8
:100A40008B8FD3945D2D5F3F49F05F3731F45C2D80
:100A5000550FC50E572D550F750E78CF40902E01AE
:100A600050902F01440C551C9201E4E0240D351DDB
:100A7000EA95E1F72901570168016E807F8088843B
:100A8000998420910F012830C1F46C897D89812DD2
:100A9000912D65507040804090409B01AC010E94B8
:100AA0008D339B01AC0160E779E786E190E00E941D
:100AB000CF33621A730A840A950AA614B704C804CD
:100AC000D90428F46A187B088C089D0803C06624A2
:100AD00077244301B20180E090E09301A4010E94D9
:100AE0008D339501A6010E94CF3388E193E079818F
:100AF000870F911D0E944A35682EC90160E170E0A0
:100B00000E94A833260F371FC9016816190618F46A
:100B1000861991090EC08C5E9F4F8615910538F499
:100B20008C899D89843981E1980708F00CD7812D43
:100B3000912D6E96E2E10C94D334109281001092C4
:100B4000800010926F0010928B0010928A0057E084
:100B500056BB5FEF509385005093840055E050934F
:100B60007B0056EB50937A0051E05093810058E29D
:100B70005A95F1F7000045B944B955E05A95F1F797
:100B8000000014B815B81092810080917A0084FF9B
:100B9000FCCF80937A000895CF93C82F1C161CF4C5
:100BA00001DCC150FBCFCF9108958091310180933A
:100BB00000018091A101809301010895CF93C82F76
:100BC000809131018F5F809331016C2F81E0A6DB32
:100BD000D4DCC63048F4C430B8F4C23069F080F4D4
:100BE000C130E1F48EE30DC0C43E81F0C43F81F01A
:100BF000CD32A1F48DE213C08CE792DC8CE30FC000
:100C00008CE78EDC8CE70BC082E509C085E707C066
:100C10008FE486DC88E684DC8DE601C08C2F80DCE6
:100C2000A895CF9108958F5CC9CF0895682F80E073
:100C300075DBA3CC089560933101813011F480EC11
:100C400001C080E8860FF2CF089560910001809185
:100C50000101F1CF08958DE063DC8AE061CC089555
:100C60001092A10180E8E2DF10923101F4CF0895E3
:100C700081E0DCDF8DDCF4CF089581E08093A10179
:100C800080ECD4DF10923101E6CF0895CF93DF934B
:100C9000EC018991882311F091DFFBCFDF91CF9197
:100CA0000895CF93DF93EC01CE010E944A3588234B
:100CB00019F084DF2196F8CFDF91CF9108950F933B
:100CC0001F93CF93DF93EC0128968C010F5F1F4F8A
:100CD0000E944A3573DFC8010C171D07B1F7DF9179
:100CE000CF911F910F91089584E153DC83E39EDF40
:100CF00082E39CDF4DDC80E299DF80E297DF8AE2CD
:100D000095DF88E093DF86E091DF82E08FDFB0DF60
:100D100081E03FDC8CE08ADF88E488DF82E690E0D7
:100D2000CEDF80E583DF8AE590E0C9DF88E57EDFFE
:100D30008AE690E0C4DF80E679DF82E590E0BFDFFD
:100D400088E674DF8AE490E0BADF80E46FDF82E453
:100D500090E0B5CF08959091310180E1891B1CCFBF
:100D60000895CF93C82FF7DF8091A1018F5F809303
:100D7000A101823030F081E08093A10180933401A1
:100D800002C0109234016C2F8091A10154DF63DF07
:100D9000CF910895E6DF7DD18091A101833008F0E5
:100DA0005ACF08955DDFD7DF5BCF089566DFD3DFCD
:100DB00064CF08950F9383E891E073DF4091810140
:100DC0004D3F64F460916F017091700180917101E9
:100DD0009091720103E026E419D002C08FE3EEDEA9
:100DE0000F91089590910E019F70923071F4D2DFAF
:100DF00082E790E056DFE0913201F091330122E08A
:100E000044EF6FEF84819581EAC00895AEE0B0E0D1
:100E1000ECE0F7E00C94B734142F622E702E6B01C7
:100E20007C010F7080E389838A838B838C838D831D
:100E30008E83F7FE0AC0B8DAF094E094D094C094A0
:100E4000C11CD11CE11CF11C04C075FE02C08BE268
:100E5000B5DE033071F0043099F00530C1F0063092
:100E6000F1F0073021F174E6872E912CA12CB12CE2
:100E700025C068EE862E63E0962EA12CB12C1EC0F4
:100E800050E1852E57E2952EA12CB12C17C040EAD7
:100E9000842E46E8942EAA24A394B12C0FC030E4EB
:100EA000832E32E4932E3FE0A32EB12C07C020E81E
:100EB000822E26E9922E28E9A22EB12C9AE0292E24
:100EC000312C412C512CC814D904EA04FB0470F0D5
:100ED000C701B6016B5F7F4F8F4F9F4FA2019101FA
:100EE0000E94CF3369017A011F5FEDCF81E1810F4D
:100EF0009BEA899F812D1124A82EA69486E0811B50
:100F0000899F112D11241695912F990F190F811B6F
:100F1000182F4E0187E0880E911C2AE0A401C7011A
:100F2000B6010E94F634F40101900020E9F73197F0
:100F30007F01E818F9089E2C6701DD24812F90E0DD
:100F400004968C159D0514F4A3941D5F8A2D90E0E2
:100F5000865C9F4F0E944A35A82E74FE04C09016EE
:100F600010F40E1901C000E08E2C811A800E1814A6
:100F700024F08EE223DE012F0E19111102C088EF3A
:100F8000882E912C10E0C00ED11EE82C082C000CED
:100F9000FF08892D90E08C159D05ACF4FC01369678
:100FA000E01BF10B81E090E08C0F9D1FE80FF91F13
:100FB000808104DE9394892D90E08E159F0549F77A
:100FC0008EE2FCDDE6CFAA2011F08A2DF7DD662047
:100FD00011F0862DF3DD2E96E2E10C94D3340F93BD
:100FE000362FBC0180E090E0022F242F432F0EDF2C
:100FF0000F9108950F93062FBC0180E090E026E545
:101000004DEF04DF0F9108950F93042F28E440E083
:10101000FDDE8AE7D3DDC6D90F910895EF92FF92E6
:101020000F931F93CF93DF93F82EE92EC5E64F9BC6
:1010300005C0CF2DDE2D15E500E018C081E0A9DA4E
:10104000C150A9F7F6CFA4DA110F4F9B1F5F1F7392
:101050001F3379F4011103C0CF2DDE2D04E00F5FA3
:10106000083C88F4A8951C161D0644F0D7FFEBCF6A
:101070000AC01111F7CF0023A9F305C02A97B1F7D1
:10108000CFEFDFEFF3CF802FCDB7DEB7E6E00C94E4
:10109000DF34CF938ADDC82F809134018823C1F0DB
:1010A000813049F4C13039F46FE0C5DD8BE286DD73
:1010B0006FE081E0C0DD80E49FE1B0DFC13039F452
:1010C00080913401813019F460E0B5DD44DEBDDD8E
:1010D000CF9108951895189530910D01A091320186
:1010E000B0913301E5E8F1E080E090E08317B0F4DF
:1010F00041911C962C911C97421719F0458124139D
:1011000002C00196F3CFFC01EE0FFF1FEF56FE4F1A
:1011100020813181293E334008F4089584E1089507
:1011200010920F0110920D0110926401109244016F
:1011300010920E011092300110926B01EFE4F1E079
:10114000108211821282EFE6F1E0108A82E0818B38
:101150001092150117861686148215821682178240
:1011600081EF838B08958FE4DBD986E4D9D986E4B7
:10117000D7D971DD5E98EAD980E090E04FCF08952D
:101180001F93CF93DF93162F98E097B998B9E82F64
:10119000F0E0E057FE4F949195B9262F281BE20FFF
:1011A000F11D27FDFA95E491E92BE4B929DAEC0168
:1011B000812F26DAAC012091250130912601369548
:1011C0002795C9010397BE01625E7F4F8617970777
:1011D00078F4255E3F4FC217D30750F4BA01625E20
:1011E0007F4F8617970720F481E04217530708F0D6
:1011F00080E014B8DF91CF911F910895CF9361E003
:1012000080E0BEDFC82F62E080E0BADFC80F62E096
:1012100081E0B6DF8C0FCF910895AFE0B0E0E3E15D
:10122000F9E00C94B734B82E10920F01807FA9F426
:10123000E5DF833009F083C31BDD8CE492E031DD10
:101240001CDD8FE3BBDC80ED97E0E8DE8B30C0F483
:101250000FDD83E091E025DD72C306E910E008DDD3
:101260008EEA91E01EDDCADF833021F41F5F143067
:1012700010F006C010E088E28CD9015081F760C000
:10128000FCDC0E949A208FEB90E00BDD60E08AE1AD
:1012900093E00E94573560E08BE193E00E94573560
:1012A00060E089E193E00E94573560E082E0D0DAA7
:1012B0006C019A83898361E082E0CADA7C019C83B5
:1012C0008B8360E081E0C4DA8C019E838D8323E010
:1012D00040E26EEFC60183DE23E040E26EEFC7011D
:1012E0007EDE23E044EF6EEFC80179DE2AE5C21608
:1012F000D10424F084E190E09A83898369818AE1B2
:1013000093E00E9457358AE5E816F10424F084E161
:1013100090E09C838B836B818BE193E00E94573537
:101320000A35110524F084E190E09E838D836D8160
:1013300089E193E00E94573582E080933401A9DE71
:10134000EB2DEF70EF87E13011F018E738C1EE2494
:10135000E394F12C78EB872E72ED972E77E4A72E8D
:10136000B12CE2E0DE2E08E0F0E23F2EC12C1E2D73
:1013700052E2252E1BDD16DD84E520DCC70107D8EF
:1013800011D81130B9F482EF90E08BDC64E08091E9
:10139000290190912A012EDE70DC8DEE90E081DC37
:1013A00080916D0190916E010E94C7018EEB809338
:1013B0002101E1C0123079F52091250130912601FB
:1013C000A8E5BBE10E940D3424EC36E340E050E098
:1013D0000E94F13329013A0181E085B9F5E0F4B9C1
:1013E00080E003D9841995099A83898381E184B9BE
:1013F00080E0FBD8841995099C838B8384E085B9B0
:1014000084E184B981E0F1D8841995099E838D83A4
:1014100087ED90E09EC0133041F5D5B82AE024B99D
:1014200080E0E3D82091250130912601369527955B
:1014300038872F83821B930B9A83898324B880E09B
:10144000D4D82F813885821B930B9C838B8305B95D
:1014500088E284B981E0C9D82F813885821B930B3B
:101460009E838D8389EC90E074C0143039F48FE34F
:1014700092E017DCC3DE81115FC26CC0153099F4B5
:1014800015B8D4B880E0B1D89A83898304B981E0D3
:10149000ACD89C838B8334B882E0A7D89E838D839D
:1014A00089EE90E056C0163039F5D4B8D5B880E052
:1014B0009CD82091250130912601821B930B9A83A1
:1014C000898304B905B981E090D820912501309134
:1014D0002601821B930B9C838B8334B835B882E042
:1014E00084D82091250130912601821B930B9E8385
:1014F0008D8385EE90E02DC0173061F52091250198
:1015000030912601A8E5BBE10E940D34A5019401AC
:101510000E94CF3329013A01D5B8E3E0E4B980E075
:1015200064D8841995099A83898305B9FCE0F4B9D4
:1015300081E05BD8841995099C838B8335B820E3BF
:1015400024B982E052D8841995099E838D8383EC57
:1015500090E0A7DB92DB89819A810E94BC010E9406
:10156000D2018B819C810E94BC010E94D2018D819D
:101570009E810E94BC0107B908B914B815B888EE5D
:1015800093E04CDD143011F08B3020F4C39484E0F0
:10159000C812F0CE88EE93E041DDEFEFEE1AFE0ABE
:1015A000F8E0EF16F10409F0E1CECFCEFFDB8FE3D8
:1015B00092E077DB84E60E94C902115019F01EDE2A
:1015C0008111F4CF55DB88EB90E06BDB23E044EF37
:1015D0006FEF809127019091280101DD4EDB81EBB7
:1015E00090E05FDB23E044EF6FEF80912E0190915C
:1015F0002F01F5DC82E0809334014BDD10920F0166
:1016000037DB8DEA90E04DDB60E082E00E94891DCF
:1016100040907701509078016090790170907A0144
:101620005C864B8661E082E00E94891D8090770194
:1016300090907801A0907901B0907A019E868D8675
:1016400060E081E00E94891D00917701109178018E
:101650001E830D8362E080E00E94891D80917701E6
:10166000909178019C838B8362E081E00E94891DC8
:1016700080917701909178019A87898761E080E075
:101680000E94891DE0907701F0907801FA82E9824A
:10169000C2010E94D101C4010E94D101B801110F01
:1016A000880B990B03E026E444EFB0DB2F85213053
:1016B00021F080912D01823031F482E0E80EF11C9E
:1016C000F886EF8206C0F886EF8210922D018CE03A
:1016D000ADDA8E010F5F1F4F6E01EFE0CE0ED11C11
:1016E000F801819191910A97853B9105C8F4EC1519
:1016F000FD05B9F749E3E42E43E0F42EF8016081DB
:101700000E5F1F4F6E5EC7010E945735FFEFEF1A45
:10171000FF0A0C151D0591F7B0DA85EA91E0C1DAF0
:1017200082E080933401B5DC0E9432302F85213075
:1017300029F080912D01823009F0E9C099DA80E02A
:1017400072DA8BE591E0ADDA82E06DDA82E390E067
:10175000A8DA20E4F22E10E03AE0832E912CA12C9E
:10176000B12CDEDC10920F0160E082E00E94891D46
:101770000091810120916F013091700140917101C0
:1017800050917201073F44F40F5FCA01B901A501EE
:1017900094010E94CF33F6CF0093810120936F0113
:1017A000309370014093710150937201073F09F02B
:1017B00098C0DA01C90180569109A109B10980399F
:1017C0009545A105B10508F08CC060918301709129
:1017D0008401CB018B569F4F8B32914008F081C022
:1017E0001F5F153008F47EC080E493E00E946535E9
:1017F0003FDA8BE290E055DA809183019091840189
:101800000E94BC010E94720388E088B989E087B910
:1018100080E284B982E00E940003853D9340D4F7C2
:1018200014B8109224011092230182E00E94000358
:101830008C018091690190916A01909324018093B9
:10184000230182E00E9400037C01EE0CFF1C109239
:1018500024011092230182E00E940003A0906901FC
:10186000B0906A01B0922401A0922301800F911FD1
:101870008C010E191F0901DA84E290E012DA82E489
:1018800093E00E944A35D82E9501D8010E941C345D
:1018900097010F2C000C440B550B0E94F13313E001
:1018A0001D0D120F612F82E493E00E945735812FA6
:1018B000012E000C990B0E94BC010E94720382E071
:1018C00080933401E6DB10922D018CE0AFD989E3DF
:1018D00093E00E944A35682F8CE393E00E945735CD
:1018E00016C010E0CAD960916F01709170018091AB
:1018F00071019091720104E026E44091810186DA41
:101900002ADA88E20E94C902FA94F1102ACF89E10A
:101910008093210180E00E944733AAD983E091E0BF
:10192000C0D9ABD985E392E0BCD910920F0182E017
:1019300080933401AEDB03C082E0C82E0BCE2F961D
:10194000E2E10C94D33480912D0181110DC089E323
:1019500093E00E944A3561E0680F8CE393E00E94B7
:10196000573581E080932D010895EF92FF920F93F8
:101970001F93CF93DF93D62FE82FF0E0ED56FE4F65
:10198000E491E8B9E860E7B915B8E62FF0E0E05770
:10199000FE4FE491E4B988E8E82E83E1F82ECE2FDB
:1019A000CC0F8D2F0E94F5028C01C4B98E159F05B6
:1019B00010F47801F6CF892BD1F089E391E071D949
:1019C000D80120EA36E841E050E00E94223428E9BC
:1019D00037EB40E050E00E94CF33DA01C90122E04A
:1019E00041E467EFFCDA88E087B988B914B8CDB76D
:1019F000DEB7E6E00C94DF34A0E0B0E0E2E0FDE02A
:101A00000C94B73480E48AB98BB9C6E8C0937A00E5
:101A10001092C1000E94A802D4B784B7877F84BF08
:101A20000FB6F894A895809160008861809360005B
:101A3000109260000FBEC093640088E380937E0024
:101A40001092B00087E08093B10078944DD9D3FD17
:101A50008AC580E185BFC0E04F9905C00E94C802D9
:101A6000CF5FCC33C9F78FE59DE690930801809353
:101A70000701CF3130F080E69DE690930801809316
:101A80000701109222010E949A209FE088E10FB680
:101A9000F894A895809360000FBE90936000CC33BB
:101AA00099F048E0842E52E0952E60E1762E78E1A0
:101AB000672EE5E5EE2EE1E0FE2EF0EF2F2EA3E3FC
:101AC0003A2EB1E25B2E2CC00E94B4298111FCCFCA
:101AD000E8CF823009F490C1833009F4BAC187E9B4
:101AE00092E0DFD880E892E0DCD8C7D880910D0181
:101AF000805D64D88AE262D885E391E0D2D883E63B
:101B000092E0CFD8A8D880E49FE167B84F9BFECF82
:101B100085DA823308F4B6C40E94B4298111FCCF5F
:101B2000A7D887B8FDDA0E949A209AD82ED580913E
:101B30003001882369F0A1D880E591E0B2D863E054
:101B4000809125019091260155DA88EC0E94C90206
:101B500094D80E94B91C80910F01893009F588D86A
:101B600085E591E09ED889D863E080914901909104
:101B70004A0140DA0E94D20163E080914B019091CA
:101B80004C0138DA0E94D20163E080914D019091BE
:101B90004E0130DA8AEC0E94C90281E13EDB6DC45D
:101BA0008CE044D88CE393E00E944A35C82F89E347
:101BB00093E00E944A35C81BC0932D01CC2311F03D
:101BC0008EE034D880E029DBF1D886EB92E069D84A
:101BD00083E00E9490023FD842E061E080E047D578
:101BE00042E060E081E043D541E062E080E03FD543
:101BF00041E060E082E03BD540E062E081E037D543
:101C000040E061E082E033D580910F0181110EC088
:101C10000E94B91C60E082E00E94891D61E082E0C0
:101C20000E94891D60E081E00E94891D80910F0162
:101C3000833061F480910D01823041F490918501EF
:101C400080918601981302C00E94402D11D885E32F
:101C500091E0909333018093320180910F0186309F
:101C600039F488E892E01DD841E467E48BE415C0BC
:101C7000873039F481E992E014D842E367E481E3E4
:101C80000CC08A30D9F480E190E00BD8F092330197
:101C9000E09232014BE467E481E40E94D8010E94A3
:101CA0003D0689E691E00E945106E0913201F091F3
:101CB000330162E0848195819DD9DDC3823009F0D2
:101CC0003DC08CE090E00E94510642E365E481E370
:101CD0000E94D80180E045D8609143018091420183
:101CE000E62FF0E0E15BFE4FE80FF11D3197108227
:101CF0000E948B1A80914301E0914201F0E0E80FCD
:101D0000F11DEE0FFF1FEE0FFF1FE256FE4F608129
:101D100071818281938102E024EF4FEF77D886E0D2
:101D200090E00E94510660913F017091400180E077
:101D300090E003E025E240E069D89FC3883081F459
:101D400020917F018091800190E0820F911D029788
:101D500019F40E941D2398C380E00E9428228DC39D
:101D6000833009F0B1C080910D01813009F0B1CE0E
:101D700080E00E9464026091850180918B01F5DD15
:101D800080E70E943C0240E06091850180918B01D8
:101D90000E94542F60936F017093700180937101C2
:101DA0009093720180E00E94CA0660916F01709169
:101DB0007001809171019091720102E026E442EF7E
:101DC00025D80E94D40141E06091850180918B016A
:101DD0000E94542F60936F01709370018093710182
:101DE0009093720126E442EF11D88BE291E00E94B9
:101DF00051060E942B0694C282E30E94DE058BE10D
:101E000091E00E94510690918501309186019313D3
:101E100007C080E00E94800281E00E9477020CC02F
:101E200020918B0180918C01281308C080E00E94D2
:101E3000700281E00E94870281E0A3CF321304C0C8
:101E400081E08093020133C0981349CE7092020161
:101E50002EC03092020180918B01909186018913EE
:101E600003C021E0209302014091850130918C0153
:101E7000431302C07092020120918701821302C0B5
:101E80009092020180918D01481303C040E240937B
:101E9000020132130FC022E120930201981761F072
:101EA00083E30E94DE058BE191E00E9451060E94CF
:101EB000520236C2981302C0509202018091020170
:101EC000823208F00CCEECCF843009F04BC1809107
:101ED0006401882309F45DC080914401882309F4DA
:101EE00058C060914101809143010E94891DA090DA
:101EF0006F01B0907001C0907101D0907201C091DB
:101F0000810160916301809161010E94891D80912E
:101F1000350190913601A0913701B091380140917F
:101F20005501509156016091570170915801843FBD
:101F300021E09207A105B10538F4443F21E05207A2
:101F40006105710508F0C0EF443F5140610571051E
:101F500038F4843F9140A105B10510F02092810131
:101F600080918101C8130EC080916F019091700122
:101F7000A0917101B0917201A816B906CA06DB06DC
:101F800018F004C0C81714F48DE001C08CE08093F1
:101F90000E0180916401882361F0809144018823BF
:101FA00041F04F9906C090910E0181E089278093FE
:101FB0000E0180910E018C3051F48CE791E00E946B
:101FC000510680916401882389F080E70DC0F0926A
:101FD0003301E092320188E791E00E94510680913E
:101FE0004401882319F08EE60E94DE050E94D2018A
:101FF00073D8C82F8530E8F480910E018C3041F4FD
:1020000081E02091420190914301921748F007C06E
:1020100081E02091620190916301291708F080E02E
:10202000882319F085E391E002C081E391E00E94EA
:10203000510643E462E485E40E94D8010E943D0613
:1020400086E891E00E945106E0913201F09133015F
:10205000608171818281938103E020E04EEF0E94D4
:1020600006070E94D20189E40E94DE05E091320158
:10207000F0913301868197818031974270F085E637
:102080000E94DE05E0913201F09133018681978153
:10209000805197429783868303C083E60E94DE05C2
:1020A0000E94D601E0913201F091330122E041E437
:1020B0006AEF868197810E94EF0780E00E94CA063E
:1020C0008DE691E00E945106E0913201F0913301DA
:1020D00063E0848195810E94FA07E0913201F091DA
:1020E000330180859185892B91F080E00E94CA069A
:1020F0008DEF90E00E945106E0913201F0913301A2
:1021000023E041E46AEF808591850E94EF07E0912A
:102110003201F091330182859385892B91F080E023
:102120000E94CA0687EF90E00E945106E0913201BA
:10213000F091330123E041E46AEF828593850E94A8
:10214000EF07C53008F099C180E00E94CA068C2FC5
:102150000E94640289E691E00E9451068C2F0E9441
:102160002E0289C1853009F0F5C080910E0184FFEF
:1021700008C080E50E94DE05F0923301E092320152
:1021800003C08EE40E94DE050E94D40180910E01FE
:10219000C82FCF70C43041F48FE891E00E945106FF
:1021A0004FE367E48FE311C085FF02C084E401C000
:1021B00085E40E94DE05C33009F0CDC189E891E0D5
:1021C0000E94510643E467E485E40E94D8018091AF
:1021D0000E0185FD18C00E943D06E0913201F0918C
:1021E0003301668584850E94891D0E94DA0684E693
:1021F00091E00E945106E0913201F091330162E0DA
:10220000828593856EC08F70843071F080E00E946B
:10221000B106E0913201F0913301668584850E9418
:10222000891D0E94DA061AC0E0913201F091330153
:1022300084819581892B91F080E00E94B10680E035
:1022400090E00E945106E0913201F091330122E0CA
:1022500041E46AEF848195810E94EF0780E00E944B
:10226000CA0689E40E94DE050E94D601E09132018F
:10227000F091330122E041E46AEF868197810E9468
:10228000EF078FE591E00E945106E0913201F09155
:10229000330162E0828593850E94FA07E091320162
:1022A000F091330180859185803C9241E0F480E09B
:1022B0000E94CA0689E40E94DE050E94D60122E03F
:1022C00041E46BEF80E090E00E94EF078FE591E042
:1022D0000E945106E0913201F091330162E0808565
:1022E00091850E94FA0780E00E94F206C43009F44A
:1022F000C4C0C0E080910D01C81708F0BEC080E0E6
:102300000E94CA068C2F0E94640289E691E00E9416
:1023100051068C2F0E942E020E942B06CF5FEACF1F
:102320000E942B0680916B01882309F4A6C067B830
:1023300080910701909108010E940E0887B80E94C1
:10234000380680910D01805D0E94DE058BE191E0F1
:102350000E945106D0916B01DD2309F47FC0D1307A
:10236000A1F4809152010E94FF012091520121307D
:1023700039F420910D01211103C00E94DB2284C099
:1023800040E0692F0E946B2178C0909152018091AA
:10239000530124E0829FD0011124AE55BE4F24E0AA
:1023A000929FF0011124EE55FE4F0D911D912D913C
:1023B0003C914081518162817381401751076207CE
:1023C000730710F4C82F01C0C92FD23021F4890F30
:1023D000C3E0C81B1CC08091540194E0899FD001C8
:1023E0001124AE55BE4F24E0C29FF0011124EE55DA
:1023F000FE4F0D911D912D913C9140815181628143
:102400007381401751076207730708F4C82FDC2F48
:10241000D695092D0C1BC11102C011E001C012E0BC
:102420008D2F0E94130686E191E00E945106802FB5
:102430000E94130686E191E00E945106812F0E94BE
:10244000130680E00E94B10681E0C11180E00E9485
:102450000902892D8D1B0E9409020FC08FE692E0B0
:102460000E9451060E943D068FE992E00E945106AB
:1024700087E992E046CB0E942B068091070190915C
:10248000080143CB81114CCB8CE00E941606809151
:102490002D01882309F45CC0D2E000E010E080E068
:1024A00090E020E1422EFC01E00FF11FEA56FE4FC2
:1024B000C491C03211F0CE3F09F4482E019681310B
:1024C000910589F7DD2341F08D2F8170B82ED0FD65
:1024D0000AC00E94380607C080E197E20E940E08F9
:1024E000882391F331C060E08B2D0E941B060E946F
:1024F0002B06A895DF5FD170A12CB12CA414B0F4E9
:10250000F801EA0DFB1DEA56FE4FC491CC23E1F021
:10251000CF3F19F40E94D20105C0CE3F19F08C2F95
:102520000E94DE059FEFA91AB90AE8CFCC2361F01B
:10253000040D111DF801EA56FE4FE491E03209F056
:10254000AECF0F5F1F4FABCF80E197E20E940E0826
:102550000E94B308E5CA84E991E00E94510644E470
:1025600067E483E532CE0E9430068AE592E00E945D
:1025700051068BEC0E94C9020E94B30880E090E0F3
:10258000CDB7DEB7E2E10C94D3340F931F93CF9312
:10259000DF9385E00E94000385E00E94FC02EC01CD
:1025A0008C01000F111F000F111F10922B01043816
:1025B00083E0180750F489E991E00E9451060E94D7
:1025C000AB0681E080932B0126C088EA91E00E944F
:1025D000510662E0C8010E94FA070E94D201C93088
:1025E00082E0D80790F4C73DD14060F489EA92E0D8
:1025F0000E9451060E94AB068DEC0E94C9020E9407
:10260000B30809C08FEA92E002C085EA91E00E9417
:1026100051060E94AB06DF91CF911F910F91089553
:10262000CF93DF93DC019C01261B370BE0E090E0A9
:10263000B901690F711D672F7727920F260F371F7A
:10264000BA016E0F711D672F7727E40FEB01CC0FD6
:10265000DD1F4C0F5D1F6B3E28F4A217B30740F738
:10266000CA0102C080E090E0DF91CF910895A8E117
:10267000B0E0EDE3F3E10C94B734582E462E342E3F
:10268000A895E62FF0E0E057FE4F24912E87220F09
:102690002F8B339634913A8BE42FF0E0E057FE4FC6
:1026A00044914983440F488F339654915F83E82FB8
:1026B000F0E0E057FE4F2490822D880F8F873396ED
:1026C00094919B8398609C8338603A83E981E5B953
:1026D0008E848E2A84B897B9FB81F8B9862F0E9420
:1026E000FC029D878C878981288D822B85B99E84E9
:1026F000922A94B8842D0E94FC023E8534B9842D20
:102700000E94FC023C0114B80E94B10215B884B8C2
:10271000842D0E94FC026C857D850E945E036C0105
:102720004A8147B988E088B9598152295D8355B9F2
:1027300054B9852D0E94FC020E9464037C0115B8E7
:102740000E94B10225B8852D0E94FC020E946403FC
:102750008C0124B8852D0E94FC020E9464035C0158
:10276000B801C7010E945E038032E1E09E0730F4A9
:10277000F0E2CF16F1E0DF0608F4C7C5C00ED11EA7
:102780002C853D85820F931FC816D90618F41D8726
:102790000C8735012091440130916401822F90E033
:1027A000830F911D02974CF0213009F0AEC5909136
:1027B0004101809161019813A8C5388D32293B876A
:1027C0004C855D854437510508F4A2C1CA01880FC4
:1027D000991F44966816790608F09AC15C8157B92A
:1027E0008B8188B994B8842D0E94F9028C01832DC5
:1027F0000E9400037C01988D95B9842D0E94F902F6
:102800009801295A3D4F2817390708F0B4C088E0CD
:1028100088B9EA81E7B9FB85F4B9F5B9832D0E943F
:10282000F90288349F4028F085E080930F0182E20E
:1028300004C085E080930F0184E280930E01109321
:102840003A0100933901B701C8010E9469039093CE
:10285000400180933F019801A0E1B7E20E940D344E
:102860002091090130910A0140E050E00E94CF33ED
:1028700030933C0120933B018F89388D832B84B9A1
:1028800015B84C8147B95B8158B9832D0E9400036C
:102890008C01842D0E94F902B8010E9469039C01F9
:1028A00090933E0180933D0190910E019F70943072
:1028B00081F540913B0150913C0160913F01709145
:1028C0004001C901ADDE009701F1888D84B9EA8924
:1028D0009C81E92BE7B9842D0E94F9028C0188E0E4
:1028E00087B99801A0E1B7E20E940D3420912E0132
:1028F00030912F0140E050E00E94CF33A901B80190
:1029000080913D0190913E018BDE90933A0180933E
:10291000390180910E018F70843009F4EDC488E094
:1029200088B9EF81FA81EF2BE7B924B82D8125B959
:10293000852D0E94FC028C010E9464039E838D837E
:10294000842D0E940003E0901001F0901101BC0161
:10295000C8010E9469039701DC010E940D34ED81DA
:10296000FE819F0140E050E00E94CF3330933A0156
:1029700020933901C1C488E088B9FA81F7B92B8561
:1029800024B925B9852D0E94F9028C01832D0E945E
:1029900000037C0125B8852D0E94F902895A9D4FBC
:1029A0008017910708F0B1C43B8138B94C8147B911
:1029B000832D0E94F902813D934028F485E08093A5
:1029C0000F0182E304C085E080930F0184E38093CC
:1029D0000E01B801C7010E946903909360018093C2
:1029E0005F01C8010E9464039C01A0E1B7E20E945C
:1029F0000D34209110013091110140E050E00E940F
:102A0000CF3330935C0120935B01F8E0FF2EF8B8E0
:102A10008A8187B98F85988D892B84B985B9852D51
:102A20000E9400038C01832D0E94F902B8010E94CC
:102A300069039C0190935E0180935D0190910E016A
:102A40009F709430A1F540915B0150915C016091C1
:102A50005F0170916001C901E3DD009721F1E88D0C
:102A6000E5B9E4B9FB81F8B9EC812A81E22BE7B939
:102A7000852D0E94F9020E9464038C01F7B89C0125
:102A8000A0E1B7E20E940D34209127013091280186
:102A900040E050E00E94CF33A901B80180915D0170
:102AA00090915E01BDDD90935A0180935901809110
:102AB0000E018F70843009F4F7C1EB813F81E32B65
:102AC000E8B94C81342B37B915B85D8154B9852DDF
:102AD0000E94FC027C01842D0E9400039E838D8352
:102AE0000091090110910A01BC01C7010E9469030C
:102AF0009801DC010E940D34ED81FE819F0140E0D0
:102B000050E00E94CF3330935A0120935901CCC139
:102B100088E088B9FA81F7B925B82B8524B9852DC5
:102B20000E94FC02998B888B0E94640398878F8394
:102B3000832D0E9400039A878987530134E6A30EF0
:102B4000B11C4F815885B301A416B506D8F4CA014B
:102B50000E9469038C01209110013091110140E025
:102B600050E060E871EA83E09CE10E94CF33D80135
:102B70000E942234E985FA858F0120E030E0A90126
:102B8000980123C08F8198850E9469038C01FD8183
:102B9000F4B9852D0E94FC02998B888B0E946403F6
:102BA00098878F83832D0E9400039A878987BC01B1
:102BB000C8010E9469039C01A4E6B0E00E940D34A4
:102BC000E985FA859F0140E050E00E94CF3369011A
:102BD0007A0114B815B8FB81F8B92C8127B981E0C6
:102BE0000E94C90284B8842D0E94FC028F359D404A
:102BF00008F460C194B8842D0E94F9028C01832DE1
:102C00000E9400039C8B8B8B852D0E9400039E8B62
:102C10008D8B4B895C89413D574008F4D1C0988D1C
:102C200095B9842D0E94F9028115944098F0809105
:102C30000F01843078F48AE080930F016B897C89DE
:102C40008D899E890E94690390935A01809359014E
:102C500081E044C484E080930F018DE080930E01F5
:102C60006016710630F49801261937093E832D83CA
:102C700002C01E830D838090090190900A01A12C4F
:102C8000B12C60E871EA83E09CE1A50194010E9407
:102C9000CF33AD81BE810E942234EB89FC899F0134
:102CA00040E050E00E94CF3380916401882369F0B6
:102CB0008091550190915601A0915701B091580112
:102CC00082179307A407B50708F5209355013093A1
:102CD000560140935701509358019801A0E1B7E283
:102CE0000E940D34A50194010E94CF3330935C0102
:102CF00020935B016B897C898D899E890E94690381
:102D000090935A018093590181E001C080E0409185
:102D100055015091560160915701709158014C1521
:102D20005D056E057F0538F5C0925501D0925601BC
:102D3000E0925701F092580169857A8588899989CE
:102D40000E94690390935A01809359012F8138851D
:102D5000A0E1B7E20E940D342091100130911101E1
:102D600040E050E00E94CF33205F384D30935C014B
:102D700020935B0103C0882309F4B0C3C09009010C
:102D8000D0900A01E12CF12C9301A0E1B7E20E945E
:102D90000D34A70196010E94CF3330935E0120933A
:102DA0005D012C853D85A0E1B7E20E940D34A701AD
:102DB00096010E94CF333093600120935F0148CF8A
:102DC000F1E66F16710408F075C0013D27E01207A7
:102DD00008F470C085E080930F0182E180930E01BA
:102DE000C80186509F4F4D895E898417950720F44E
:102DF00083E180930E0119C08091090190910A012D
:102E00009E838D83B8018D899E890E9469032D81DF
:102E10003E81DC010E940D34980140E050E00E94A8
:102E2000CF3330935A01209359019A899770E92E34
:102E3000832D806480937C00EBE0FE2EE1E0F0E0E7
:102E4000FE83ED830FEF13E0A89561E089817AD5C9
:102E500094B886B18E21E9F3FE85F4B980917A00A9
:102E6000806480937A0080917A0086FDFCCF809107
:102E70007800909179009801281B390B4D815E8173
:102E8000420F531F5E834D83FA94F110DDCFCA01C8
:102E9000880F991F880F991F69E070E00E94A8337E
:102EA0007093600160935F01809164018F5F8093F4
:102EB0006401CECE94B8588D55B9842D0E94FC0281
:102EC0006C01832D0E94000398878F830E94640306
:102ED0009A878987AC14BD04A8F4B301C6010E9487
:102EE00069038C012091090130910A0140E050E012
:102EF00060E871EA83E09CE10E94CF33D8010E9430
:102F000022341FC084B8F981F5B9842D0E94FC02D7
:102F10006C01832D0E94000398878F830E946403B5
:102F20009A878987C6016C147D0410F48619970965
:102F300069857A850E9469039C01A4E6B0E00E943D
:102F40000D34E985FA859F0140E050E00E94CF33BF
:102F500049015A01FA81F7B988E088B92D8124B96D
:102F600025B9852D0E94FC028C01832D0E9400034F
:102F70009A878987842D0E9400037C01003331E108
:102F8000130708F0BFC125B8852D0E94FC02998B5C
:102F9000888B24B8852D0E94FC029C8B8B8B15B8E6
:102FA00081E00E94C90225B8852D0E94FC024B8950
:102FB0005C894034564008F05DC08133914108F48B
:102FC00059C0C8018A569F4F28893989281739075F
:102FD00008F050C086E080930F01809144018F5F1C
:102FE00080934401B70189859A850E946903909373
:102FF0003A0180933901B701C8010E946903909397
:10300000400180933F0114B815B83A8938B981E07E
:103010000E94C90224B8852D0E94FC02853F9105BB
:1030200008F06AC24D8144B9832D0E94FC02813DA3
:10303000934008F461C2852D0E9400038D3D9240AB
:1030400008F45AC224B8852D0E94FC028D3D92409E
:1030500008F452C225B881E00E94C90215B8852D36
:103060000E94FC02853F910508F046C287E08093EC
:103070000F0142C22A8127B9398134B935B981E0BB
:103080000E94C9024B8544B945B9852D0E94FC02B6
:103090008C010E946403998B888B832D0E9400030E
:1030A0009E838D830E9464039A878987842D0E9462
:1030B00000037C0189859A858E3F994008F4B2C04F
:1030C00084E080930F018CE080930E01B301888926
:1030D00099890E9469038C0120911001309111019E
:1030E00040E050E060E871EA83E09CE10E94CF3369
:1030F000D8010E942234E985FA859F0140E050E022
:103100000E94CF3380914401882369F0809135017A
:1031100090913601A0913701B09138018217930741
:10312000A407B50728F52093350130933601409365
:10313000370150933801B7018D819E810E94690348
:1031400090933A018093390128893989A0E1B7E247
:103150000E940D34209110013091110140E050E0A7
:103160000E94CF3330933C0120933B0181E001C0AA
:1031700080E04091350150913601609137017091A6
:103180003801481559056A057B0528F580923501F7
:1031900090923601A0923701B0923801B6018F812A
:1031A00098850E94690390933A01809339019601B2
:1031B000A0E1B7E20E940D342091090130910A018B
:1031C00040E050E00E94CF33205F384D30933C0107
:1031D00020933B0103C0882309F48FC19301A0E130
:1031E000B7E20E940D342091090130910A0140E0BC
:1031F00050E00E94CF3330933E0120933D012C8557
:103200003D85A0E1B7E20E940D342091100130917C
:10321000110140E050E00E94CF33309340012093F1
:103220003F016AC1F1E66F16710408F06BC028898E
:10323000398929343D4008F465C085E080930F0149
:1032400082E080930E01C70186509F4F801791073F
:1032500020F483E080930E0117C0C0901001D0903D
:103260001101B701C8010E9469039601DC010E94A7
:103270000D34E889F9899F0140E050E00E94CF3386
:1032800030933A01209339010B810770832D8064BC
:1032900080937C001BE021E030E03E832D83A895E5
:1032A00060E089814FD33B8534B935B986B180233D
:1032B000E9F724B880917A00806480937A00809145
:1032C0007A0086FDFCCF80917800909179004D8145
:1032D0005E81480F591F5E834D83115001F7CA016B
:1032E000880F991F880F991F69E070E00E94A8332A
:1032F0007093400160933F01809144018F5F809300
:103300004401FAC088E087B988B914B815B888E0D4
:1033100087B957EC651651E0750608F4D0C088B936
:103320008F8584B998EC9D83EC81FA81EF2BEF8334
:103330002F8127B981E00E94C9023A8137B9852DD2
:103340000E940003429728F04D8141504D83411166
:10335000EFCF5F8554B955B961E08981F3D2852DEE
:103360000E94FC026C018F8984B915B89C8197B9C1
:10337000EB81E8B960E08981E5D2842D0E94FC02EE
:103380000E9464039E838D83FE85F4B9842D0E9480
:1033900000038C01852D0E94FC02B8010E94690384
:1033A0007C01842D0E9400038C01852D0E94FC026B
:1033B000B8010E94690397012C5E3F4F2817390717
:1033C00008F480C088E088B92A8127B924B825B8D4
:1033D00061E08981B7D2842D0E9400038C01852D84
:1033E0000E94FC02B8010E9469038C01E816F906EC
:1033F00058F43F8534B935B9852D0E94FC029C01F3
:10340000CD82DE82780110C04F8944B915B85C8145
:1034100057B98B8188B960E0898194D2842D0E944C
:10342000FC020E9464039C0198EEE91693E0F90601
:1034300030F4C70164E670E00E94A83306C0B7010B
:1034400054E0769567955A95E1F7C7018759910938
:1034500089389141A0F52E153F0588F58D819E8113
:1034600043E0969587954A95E1F7893C910510F0E0
:1034700088EC90E02D813E81820F931F8E159F0571
:10348000F0F462177307D8F480910F01833018F4B9
:1034900083E080930F0120910D01822F90E0FC01C9
:1034A000EB57FE4F50824682880F991FFC01EF5662
:1034B000FE4FF182E0822F5F20930D0103C0642D47
:1034C000852D29D088E087B988B914B815B88EE25F
:1034D0000E94DE056896E2E10C94D3349091640179
:1034E0009F5F90936401882369F330926101409259
:1034F000620150926301E6CF81E0909144019F5FA9
:10350000909344018823F1F230924101509242019C
:1035100040924301D7CFA0E0B0E0E1E9FAE10C949A
:10352000B934A895462F50E0FA01E057FE4F949029
:1035300033969491A82FB0E0FD01E057FE4FE49040
:103540003396F490709164012091440130E0270F8C
:10355000311D232B09F0F1C1A89520911301309161
:103560001401220F331F220F331F309326012093A3
:1035700025012091690130916A01220F331F220F2A
:10358000331F30932401209323012EEB209321013C
:10359000C0910D01E5E8F1E070E04A0F5B1F7C1778
:1035A00059F02191A58130E02A0F311D24173507EC
:1035B00009F456C07F5FF3CFD62FC82F88E088B9B3
:1035C000E92FE860E7B9E4B8E5B8B8E1BB2EC12C53
:1035D000D12C8D2F0E94FC02782E692E8C2F0E94F8
:1035E00000038C018C199D0997FF03C0919581956B
:1035F0009109039734F0A895BA946801B110E9CF06
:103600002FC0EE0C15B8E4B88C2F0E94FC02813557
:10361000910530F5E5B88C2F0E94FC026C018F2DCE
:10362000886087B9F8B815B894B8A8E18A2EA12C9B
:10363000B12C8C2F0E94FC02582E492E8D2F0E94F7
:1036400000037C018A199B0997FF03C0919581951E
:1036500091090397CCF0A8958A9457018110E9CF7E
:10366000809113019091140190932601809325017C
:103670008091690190916A019093240180932301C4
:1036800089E18093210159C1990C94B88D2F0E9432
:10369000FC025C01003C84E4180730F425E8C21603
:1036A00021E0D206E8F605C080EBC8168DE4D80606
:1036B000B8F624EAE21622E0F20608F06CC088E9C7
:1036C000A816B10468F2C6010E946403AC01960119
:1036D000A8E9B7EB0E940D349A0140E050E00E9447
:1036E000CF3329013A01C5010E9464039C01A8E976
:1036F000B7EB0E940D34850120E030E0A90198016C
:103700000E94CF3388E7C8168FE0D80680F4D30133
:10371000C201F2E0880F991FAA1FBB1FFA95D1F7CB
:10372000BC01CD01620F731F841F951F14C088E771
:10373000A8168FE0B806B0F4DA01C901E2E0880FFC
:10374000991FAA1FBB1FEA95D1F7BC01CD01640DDB
:10375000751D861D971D25E030E040E050E00E9479
:10376000CF330CC0D301C201820F931FA41FB51F1A
:103770009C01AD015695479537952795A4E6B0E095
:103780000E9422342B013C012CEA420E2DE0521EF5
:10379000611C711C79C0672D762D0617170708F478
:1037A000B801C52CD42CCE14DF0408F46701061729
:1037B000170708F48B01A0901001B0901101C80107
:1037C0000E9469039501DC010E940D342B013C012C
:1037D000C8010E9464039C0140E050E0C301B201B3
:1037E0000E94CF3329013A01CE14DF0408F4760198
:1037F000A0900901B0900A01B701C6010E946903B7
:103800009501DC010E940D344701A12CB12CA501CA
:1038100094010E94CF3308378FE0180780F4D3015A
:10382000C20162E0880F991FAA1FBB1F6A95D1F7DA
:10383000BC01CD01620F731F841F951F14C088E760
:10384000E8168FE0F806C0F4DA01C90132E0880F0B
:10385000991FAA1FBB1F3A95D1F7BC01CD01640D7A
:10386000751D861D971D25E030E040E050E00E9468
:10387000CF3329013A0108C0420E531E641E751E43
:10388000769467945794479410910F01143008F080
:10389000E7CEC1500C2F0D0F202F30E0E901C15BA6
:1038A000DE4F8881220F331F220F331FF901EE559F
:1038B000FE4F8823D9F1C080D180E280F380A3013C
:1038C00092012C193D094E095F0957FF07C0509519
:1038D0004095309521953F4F4F4F5F4FAAE0B0E0A4
:1038E0000E94223424E6C20ED11CE11CF11CA70167
:1038F0009601240D351D461D571D0E94CF33232BE5
:10390000242B252B09F0ACCE133019F081E08093E5
:103910000F0182E0888380916B01E82FF0E0EE5A7E
:10392000FE4F00838F5F80936B019ACE408251825D
:103930006282738281E0888393CECDB7DEB7E0E107
:103940000C94D534CF93C82FC09595B160FF02C0B9
:10395000982B01C09C2395B994B1892B84B90E94FE
:10396000C80284B18C2384B985B1C823C5B9CF916D
:103970000895A0E0B0E0EFEBFCE10C94BF341AE056
:1039800008E08FE3C82E99E0D92E07B908B915B819
:10399000C4B880E00E94FC027C0181E00E94000328
:1039A000EC0182E00E9400039C0180910F018930AC
:1039B00081F488E087B914B8F0924A01E092490195
:1039C000D0934C01C0934B0130934E0120934D0195
:1039D0005BC084E0E816F10440F4C430D10560F423
:1039E0002430310530F399E00BC088EEE81683E00F
:1039F000F80610F098E001C099E0C83ED34008F402
:103A00009260283E334008F4946097B9C0E0D0E05B
:103A1000A89580E00E94F5025C0181E00E9400030D
:103A20007C0182E00E94000324E1A21625E0B20698
:103A300008F4389A24E1E21625E0F20608F4399AEF
:103A4000843125E0920708F43A9A26E0A216B104E0
:103A500030F426E0E216F10410F4069738F02196CF
:103A6000C43F81E0D807A1F6D0920F01E12CF12CE0
:103A7000EC16FD0631F00E94B7022FEFE21AF20AAF
:103A8000F7CF115009F081CFCDB7DEB7EAE00C9443
:103A9000DB34CF92DF92EF92FF92CF9320916F01B0
:103AA000309170014091710150917201C09181017A
:103AB0008AE0C82ED12CE12CF12C8C2FCF5F213A3B
:103AC00096E8390791E04907510538F0CA01B90174
:103AD000A70196010E94CF33F0CF80938101A0917E
:103AE0002501B09126010E94223428E833E140E00C
:103AF00050E00E94CF3320936F01309370014093C8
:103B0000710150937201CF91FF90EF90DF90CF90B1
:103B10000895A0E0B0E0EFE8FDE10C94BD34982FEB
:103B2000990F980F2FEF260F920F90934601E82FD1
:103B3000F0E0E057FE4F1491262F30E0F901E057F6
:103B4000FE4FF490F901ED56FE4FD49190910F0184
:103B5000913009F4A2C220910D01A5E8B1E0FD0168
:103B600090E0921791F0368163130BC0308183137C
:103B700008C01C964D915C911D974C3D554008F432
:103B80008CC29F5F31961296ECCF062FC82FD8605B
:103B900010927C0110927B0181EF80938101109241
:103BA0006F01109270011092710110927201E1DEAA
:103BB00088E088B9D7B9F4B8F5B88C2F0E94000313
:103BC0005C01802F0E940003A81AB90A14B8109251
:103BD0004801109247018091470190914801843F2C
:103BE000914008F0AAC015B914B90E94B10214B8E6
:103BF00015B80E94B802A8958C2F0E9400037C0182
:103C0000EA18FB0880914701909148018E37910591
:103C100028F08BE4E816F1040CF48FC08091470182
:103C2000909148012DE2E21621E0F20634F401966B
:103C30009093480180934701CECF892B09F0A4C10E
:103C400085E1E81685E0F8060CF49EC192DE15B811
:103C50008FE087B988E088B9F12EFF0CF4B880E4D2
:103C600080937B0084E580BF8C2F806480937C00F0
:103C700086E180937A000E94BB0210924801109264
:103C8000470110928000109285001092840087E214
:103C900086BB81E280936F0081E080936C01F5B870
:103CA00090910F0180938100953009F04CC081E024
:103CB00090E00C2E01C0880F0A94EAF780958F706F
:103CC00087B9F89483B7817F83BF80916C01882383
:103CD00089F083B7816083BF7894889583B78E7F9E
:103CE00083BFF894A8958091470190914801803452
:103CF000964059F7789410928100E0908600F090F9
:103D0000870010926F0086E980937A0014B815B886
:103D10008C2F0E9400032091290130912A01821BDF
:103D2000930B0C96909384018093830180914701BB
:103D3000909148018032934040F088E087B988B97B
:103D400014B815B8AAC1D7B9BCCF809147019091DA
:103D5000480190937A0180937901F0927801E09282
:103D6000770184EF80938101809147019091480110
:103D700082349105C8F0609177017091780180914B
:103D8000790190917A0124E630E040E050E00E9411
:103D9000CF3320937701309378014093790150938A
:103DA0007A0186EF80938101A0916D01B0916E013F
:103DB00020917701309178014091790150917A01F9
:103DC0000E94223420E233E040E050E00E94CF33F2
:103DD00020937701309378014093790150937A01D1
:103DE00020936F01309370014093710150937201E1
:103DF00050DE80918101843F09F071C0C0906F0155
:103E0000D0907001E0907101F090720180EAC816C4
:103E10008FE0D806E104F104C0F4A70196012C5408
:103E20003F4F4F4F5F4F60EA7FE080E090E00E949D
:103E3000CF33C20ED31EE41EF51EC0926F01D09286
:103E40007001E0927101F0927201C0906F01D09008
:103E50007001E0907101F0907201C114D10421E071
:103E6000E206F10428F4D092B301C092B20106C078
:103E700081E090E09093B3018093B201809146017C
:103E800090E0875C9C4F0E944A3590E0A0E0B0E053
:103E9000B701A6018C159D05AE05BF0568F4481B4A
:103EA000590B6A0B7B0B40936F0150937001609329
:103EB00071017093720113C04C5E5F4F6F4F7F4F63
:103EC000481759076A077B0710F40E94A30C109249
:103ED0006F0110927001109271011092720114B969
:103EE00080916F0190917001A0917101B091720168
:103EF0004997A105B10508F420CFC12CD12C8091A0
:103F00000D01882329F080910F01853009F015CF2C
:103F100088E080930F018091810190918201981730
:103F2000C4F089130ACF80906F0190907001A09027
:103F30007101B090720140917301509174016091D0
:103F4000750170917601481559056A057B0508F0E1
:103F5000F4CE40916F0150917001609171017091A8
:103F600072014093730150937401609375017093D3
:103F7000760180938201D0927E01C0927D010093F0
:103F80007F01C0938001D9CEC701C12CD12C2091D3
:103F90004701309148012C153D0560F00E94B202A6
:103FA0008C2F0E9400038A199B09A8952FEFC21A33
:103FB000D20AEDCF5701A81AB90A1A141B049CF4AF
:103FC00039ECA316B1040CF0B8CE28EE33E0D501DD
:103FD0000E941C3497010F2C000C440B550B0E94BF
:103FE000CF33690102C0C12CD12C8091470190913F
:103FF00048010196A0E0B0E08093770190937801AA
:10400000A0937901B0937A01C7018A0D9B1D0E948C
:10401000C503209177013091780140917901509149
:104020007A01DC010E942234609377017093780159
:104030008093790190937A0160936F01709370017E
:10404000809371019093720187EF8093810121DD4C
:1040500080906F0190907001A0907101B0907201FA
:104060008CE193E00E944A35A8EEB3E0A81BB109A9
:1040700087FDB395A50194010E942C3424E630E01D
:1040800040E050E00E94CF3320936F0130937001E5
:10409000409371015093720132CFCDB7DEB7ECE09F
:1040A0000C94D9341F920F920FB60F9211248F9354
:1040B0009F93B59904C080916C01811109C0B59B93
:1040C00010C080918600909187008A3F910548F446
:1040D0008091470190914801019690934801809307
:1040E00047019F918F910F900FBE0F901F901895D1
:1040F0001F920F920FB60F9211248F939F931092DD
:104100006C01B09B10C080918600909187008A3F1F
:10411000910548F480914701909148010196909350
:104120004801809347019F918F910F900FBE0F9090
:104130001F901895A0E0B0E0E0EAF0E20C94BD34E6
:1041400088E893E1909314018093130190932601E2
:10415000809325018EEB80932101C8E0C8B988E1E6
:1041600087B90E94C002C7B984E00E94FC02AC017A
:104170008B5C9840833F9140A0F481E080933001B4
:104180002091250130912601AFEBB9E00E940D345A
:104190009A0140E050E00E94CF3330931401209305
:1041A0001301809113019091140190932601809343
:1041B00025018EE00E9400038EE00E94FC02909395
:1041C0002A01809329010E947203D3DB88E0F82E34
:1041D000F8B8C9E0C7B985E185B9D1E0D4B980E0C4
:1041E0000E94FC028C019AE0D92ED7B824E0B22EAE
:1041F000B4B881E00E94FC02080F191F3CE0E32ED6
:10420000E7B840E1C42EC4B882E00E94FC02080F67
:10421000191F15B8C8B9C7B9D4B980E00E94FC020B
:104220000E946403EC01D8B8D7B8B4B881E00E940A
:10423000FC020E946403C80FD91FE8B8E7B8C4B8ED
:1042400082E00E94FC020E946403C80FD91FF7B8E5
:10425000F8B814B820912501309126016901CC0CE1
:10426000DD1CC20ED31EC01AD10ACC1ADD0AE12C05
:10427000F12C9801A0E9BAE10E940D34A701960142
:104280000E94CF3349015A0130932F0120932E0110
:104290009E01A0E9BAE10E940D34A70196010E9497
:1042A000CF3330932801209327012057354E309388
:1042B00011012093100180E7881A85EE980A9092E8
:1042C0000A018092090189E180932101CDB7DEB70F
:1042D000ECE00C94D934CF92DF92EF92FF920F93DF
:1042E000CF93DF93F82EC62FD42F0E94130686E1BA
:1042F00091E00E94510616D26C2F8F2D0E94C5317D
:10430000C090B601D090B701E090B801F090B9012B
:104310008091150187FD05C0C114D104E104F104A9
:1043200021F082E191E00E9451068C2F0E94130639
:10433000C114D104E104F10431F00E94D201809152
:1043400052010E940902DD2351F0809131018D302C
:1043500030F490E0835C9C4F0E94510602C00E94A2
:10436000AB0680E00E94CA06CD28CE28CF28D9F01F
:104370006091B6017091B7018091B8019091B90137
:1043800003E028E447EF0E94060785E291E00E94DF
:1043900051068EE493E00E94523522E046E464EF39
:1043A0000E94EF071AC0809152010E940902809179
:1043B00015018E3F94F48FE391E00E9451066091C5
:1043C0009D0170919E0180919F019091A00103E059
:1043D00028E4409115010E9406078091AE0190915A
:1043E000AF01A091B001B091B101892B8A2B8B2B29
:1043F000F1F080E00E94CA066091AE017091AF01B9
:104400008091B0019091B10104E028E440E00E9465
:10441000060780E291E00E94510623E040E26FEF40
:104420008091B4019091B5010E94EF0707C080E030
:104430000E94B10680913401811102C00E94AB0636
:10444000DF91CF910F91FF90EF90DF90CF90089583
:10445000CF92DF92EF92FF920F93CF93C82F0E94DB
:10446000300680917F010E9413068BE591E00E9447
:10447000510690D360917F01809180010E942804B1
:104480007C0190937C0180937B01C0907D01D09052
:104490007E018AEFE8168FEFF80678F4C114D10494
:1044A00041F081E090E0C11102C080E090E0892BF2
:1044B00021F087E191E00E945106809180010E94E5
:1044C0001306CC2359F0909131018DE0891B0E9495
:1044D000CC0587E790E00E94510615C080917D01D0
:1044E00090917E01892B69F082E491E00E9451064F
:1044F00022E045E26FEF80917D0190917E010E9464
:10450000EF070E94AB060E943D0660917301709117
:104510007401809175019091760104E026E4409148
:1045200082010E9406078AEFE8168FEFF80668F40A
:104530008AE491E00E94510622E044EF6EEF809100
:104540007B0190917C010E94EF070E94AB06CC2377
:1045500091F0CD2881F080E00E94CA0683E491E0CA
:104560000E94510622E045E26FEF80917D0190911B
:104570007E010E94EF070E94AB06CF910F91FF9042
:10458000EF90DF90CF9008958F7051F488EC0E94E7
:10459000C9020E943D060E94C51288EC0C94C90213
:1045A00008958F3021F490912B01913011F08F5F9D
:1045B000089580E00895CF9382E890E002D76AE002
:1045C00080E00E941B0687E493E00E945106C0E051
:1045D0000E94900860E082E00E948B1A62E080E016
:1045E0000E948B1A0E94300680916B01882329F06B
:1045F00041E062E080E06FDE0FC082E890E00E9460
:10460000510687E493E00E9451060E943D068FE325
:104610000E94DE050E94AB068C2FB6DF88EE93E089
:104620000E940E08811105C08C2FBBDFC82F8A3F66
:1046300078F20E943806CF9108950F931F93CF937D
:10464000DF93C0E0D8E012EF0DE00E94900860E038
:1046500082E05FDAD0930F0180918101843FE1F421
:1046600080916F0190917001A0917101B0917201E0
:1046700084369105A105B10578F440E060E082E060
:104680000E94542F60936F017093700180937101A9
:10469000909372011093810180918101823FACF06F
:1046A0008093820180916F0190917001A0917101BE
:1046B000B09172018093730190937401A09375017E
:1046C000B093760181E0C4DE18C00E9430068BE70B
:1046D00090E00E94510680913101902F981B892F04
:1046E0000E94CC0587E790E00E9451060E943D069B
:1046F0008FE30E94DE050E94AB068C2F45DF80ED24
:1047000097E00E940E08811106C08C2F4ADFC82F47
:104710008A3F08F49ACF0E943806DF91CF911F910B
:104720000F910895A4E1B0E0E8E9F3E20C94B73406
:1047300082E08093150180910F01813009F026C23B
:1047400080916B01813009F021C20091520124E077
:10475000029FF0011124EE55FE4F80819181A281CC
:10476000B381893032E59307A105B10508F00EC287
:104770004C0110E0802F123028F40E94FF01582EC7
:10478000492E03C00E94FF012C01E42DF0E0ED56FC
:10479000FE4F2490852D90E0FC01E057FE4FE49100
:1047A00015B828E028B930EF83169104B8F410FD4D
:1047B00015C0A0900901B0900A0120E9A21A2AE1CF
:1047C000B20A21E030E0052C02C0220F331F0A9408
:1047D000E2F7C9018860822987B908C0E4B9822D4F
:1047E000886087B9A0900901B0900A01F4E13F2EDA
:1047F000852D0E94F9023C01842D0E94000334E0C3
:104800006316710410F4049718F03A943110F0CF45
:1048100080E480937B0094E590BF852D8064809335
:104820007C0026E120937A00E12CF12C109280008C
:10483000109285001092840087E286BB0E94BB0222
:10484000312F3170332E10FD05C081E88093810037
:1048500028B808C028B80E94C40280E286BB81E85C
:104860008093810086B385FF13C098E098B91092B9
:10487000810020E226BB20918600309187006901EB
:1048800040918400509185002417350770F014C0C2
:1048900080FFE8CF31E036BBA89597012F5F3F4FEF
:1048A000790120353105F1F6E0CF80FF05C081E0C8
:1048B00086BB9FEFE91AF90A86E980937A00E4E162
:1048C0002E2E852D0E94F9023C01842D0E940003AA
:1048D00024E06216710410F4049718F02A94211051
:1048E000F0CF40902E0150902F01480C591C4A0CDB
:1048F0005B1C20910B0130910C0180E9A8168AE124
:10490000B806B0F491EEC916D104E104F10438F40C
:10491000C60165E070E00E94A833645101C069E1FE
:1049200028523109261B310967FD339586E009C0FD
:10493000C20160EB76E30E94A83387E0860F285D12
:104940003F4F90E0A0E0B0E08C159D05AE05BF059F
:1049500028F4C81AD90AEA0AFB0A03C0C12CD12CD0
:104960007601332029F082E2C80ED11CE11CF11C33
:1049700090E5E916F10418F0C12CD12C76018BE0FA
:10498000C816D104E104F10428F091E0C91AD10855
:10499000E108F1084091250150912601612C712C0C
:1049A000A8EEB3E00E940D34698B7A8B8B8B9C8BC5
:1049B0009501DA010E940D34A30192010E94CF33C8
:1049C0004427552769897A898B899C890E94CF332E
:1049D000C9010E940404FC01A3019201C701B601B0
:1049E0000E948D332B013C01CF01A0E0B0E073E0C9
:1049F000880F991FAA1FBB1F7A95D1F7BC01CD0163
:104A00006B5F7F4F8F4F9F4F2AE030E040E050E0D8
:104A10000E94CF33C301B2010E94CF33E12FF0E0F7
:104A2000A1E0B0E0AC0FBD1F84E0189FA00DB11D48
:104A300011242D933D934D935C931397311016C021
:104A40009CE0C916D104E104F10480F03196EE0F28
:104A5000FF1FEE0FFF1F81E090E08C0F9D1FE80FFE
:104A6000F91F20833183428353831F5FA8951F5F03
:104A7000143008F47FCE88E088B984E00E94C9022F
:104A800091E00D811E812F81388549815A816B818A
:104A90007C81401751076207730708F090E00D858D
:104AA0001E852F85388949855A856B857C854017F9
:104AB00051076207730710F483E001C082E0E92F19
:104AC000F0E0EE0FFF1FEE0FFF1F21E030E02C0F94
:104AD0003D1FE20FF31FD90134E0839FA00DB11DEC
:104AE00011240D911D912D913C9140815181628144
:104AF0007381041715072607370708F0892FE1E0AF
:104B0000F0E0EC0FFD1F94E0899FE00DF11D1124F2
:104B1000408151816281738140939D0150939E0138
:104B200060939F017093A00180FD08C020EF821662
:104B3000910420F48BEF8093150117C08CEF8093C4
:104B40001501CB01BA016B5F7F4F8F4F9F4F2AE05A
:104B500030E040E050E00E94CF3320939D0130933D
:104B60009E0140939F015093A00180919D019091DF
:104B70009E01A0919F01B091A001892B8A2B8B2BC4
:104B800011F41092150188E087B914B86496E2E137
:104B90000C94D334A0E0B0E0E0EDF5E20C94BD3429
:104BA00080917D0190917E01892B09F09EC0E0915A
:104BB0007F01F0E0ED56FE4FD491D860E091800186
:104BC000F0E0E057FE4FC4910E94B91C88E088B91C
:104BD00015B8D7B9C4B9809180010E9400038C0137
:104BE000D09182018CE08D0F843008F07EC08091DE
:104BF000730190917401A0917501B0917601D15F1C
:104C00002AE0822E912CA12CB12CBC01CD016B5F2E
:104C10007F4F8F4F9F4FA50194010E94CF336901B1
:104C20007A01DA01C901DF5FD73079F729E8C216C6
:104C300023E1D206E104F10408F057C0059708F417
:104C400054C0C5B9C4B9C0E0D0E0CC15DD0520F42E
:104C50000E94C2022296F9CF14B815B8A89585E033
:104C600080932101809180010E9400030817190799
:104C700020F4EC01C01BD10B02C0C0E0D0E0A12C9D
:104C8000B12CAC14BD0430F40E94C2028FEFA81AFC
:104C9000B80AF7CF809180010E94000329E1209398
:104CA0002101A8950817190718F4801B910B02C061
:104CB00080E090E08C179D0788F49E01281B390B3B
:104CC00069F0A4EFB1E00E940D349E0140E050E095
:104CD0000E94CF3330937E0120937D010E94B91C46
:104CE00088E087B988B914B815B8CDB7DEB7ECE05D
:104CF0000C94D9348B3008F08B50811103C081E2C1
:104D000092E031C0813019F488E192E02CC0823009
:104D100019F48BEE91E027C0833019F480EE91E016
:104D200022C0843019F48DE890E01DC0853019F45C
:104D300082E890E018C0863019F48BE790E013C049
:104D4000873019F480ED91E00EC0883019F48DEBB6
:104D500091E009C0893019F483E092E004C08A3000
:104D600021F487EF91E00E9451060E94AB060C945B
:104D70002B0608950F93CF938DE890E022D3C0E0E7
:104D800010920F0160E082E045D580910F018830DC
:104D9000D9F50E94300683E40E94DE050E94D60108
:104DA0006091730170917401809175019091760109
:104DB00003E026E4409182010E9406070E94AB06B0
:104DC00060917F01809180010E94280490937C0172
:104DD00080937B010E943D068BE491E00E94510686
:104DE00080917B0190917C018A3F2FEF920730F4F4
:104DF00022E044EF6EEF0E94EF0703C08FE30E94B2
:104E0000DE050E94AB060AC00E9430068DE890E0E5
:104E10000E9451060E94AB060E94D6068C2FB4DB7E
:104E200088EE93E00E940E08811106C08C2FB9DB3A
:104E3000C82F8A3F08F4A4CFCF910F910895A4E022
:104E4000B0E0E5E2F7E20C94B7348BEE91E0B9D232
:104E500080E18093800010926F0081E090E0909359
:104E600089008093880010928B0010928A0083E062
:104E700086BB1092820088E08093810015B891E192
:104E800094B988B989E087B9229A80938100312C3E
:104E900020E0FAE02F2E31E03B83812C912C54014D
:104EA000839441E14C83832D90E00A966EE170E09B
:104EB0000E94BC336A83062F621781F00E9430067D
:104EC0008BEE91E00E94510610E0101728F48EE25C
:104ED0000E94DE051F5FF9CF0E94AB065C81523154
:104EE000B8F0C701B601A50194010E94CF336B0150
:104EF0007C018B81622D0E949C33A92FB0E0A5011B
:104F000094010E942234C60ED71EE81EF91E0CC062
:104F10008B81622D0E949C33A92FB0E0A5019401E2
:104F20000E9422346B017C010E943D068B8182111C
:104F300009C081E09C81923108F480E0898381116D
:104F400007C001C019822C81263120F082E503C000
:104F50008CE301C08EE30E94DE054C81C701B601DF
:104F60000E940408C701B6017E5E85489F4FA701D5
:104F70009601220F331F441F551F0E94CF33CA01D1
:104F80004F3F510539F030F08DE08093810080E093
:104F900094E01FC04034510530F08CE080938100D4
:104FA00080E091E016C04830510530F08BE08093EE
:104FB000810080E490E00DC0892B31F09AE090935D
:104FC000810088E090E005C089E08093810081E065
:104FD00090E02C01612C712CCA01B901A30192014E
:104FE0000E94CF33215031093093890020938800EB
:104FF0008091880090918900892B31F421E030E084
:1050000030938900209388000091880010918900D6
:1050100060E079E08DE390E0A30192010E94CF333C
:10502000A4E6B0E00E94223498012F5F3F4F40E099
:1050300050E00E94CF3329013A01A4E6B0E0A70175
:1050400096010E942234A3019201261B370B480BC4
:10505000590BCA01B90102E228E44EEF0E9406078B
:105060008AE70E94DE050E94AB0680ED97E00E9471
:105070000E08882309F449C0883C60F01092810032
:105080001092800088E087B914B822982496E2E153
:105090000C94D334813598F139813323E9F04C8174
:1050A00041504C83C501B4012AE030E040E050E0BB
:1050B0000E94CF3349015A01C701B6010E94CF3384
:1050C000CA01B9012AE030E040E050E00E94CF334D
:1050D0006B833AE0232E36C05C81563148F55F5F22
:1050E0005C83563111F425E1222EAAE0B0E0A5013F
:1050F00094010E9422344B015C011B8223C08B303F
:1051000018F08B818F5F8B83312C2B81822F90E065
:10511000622D70E06F5F7F4F0E94BC338B83832DC5
:1051200040DA382E3FEE381708F4A8CF2A81BBCEDC
:105130008AE0282E41E04B83812C912C54018394EA
:1051400051E15C83312CF2CFA0E0B0E0EAEAF8E272
:105150000C94B93480EE91E034D183E280938000E6
:1051600010926F008FEF90E090938B0080938A00F5
:1051700083E086BB1092820015B881E184B988E093
:1051800088B989E087B9229A21E030E0309389001C
:10519000209388008093810010E0C0E0D2E300E01B
:1051A00084E6C82ED12CE12CF12C88248A9493E03B
:1051B000992EA12CB12CDC17C1F1D43618F0CCE912
:1051C000CD0F01C0CD2F2C2F30E0AFEFB3E00E9408
:1051D0000D346E5C7F4F8F4F9F4FA70196010E9449
:1051E000CF3329013A0130938B0020938A000E942B
:1051F0003D06A8EEB3E0A30192010E942234615063
:105200007E4F8F4F9F4FA50194010E94CF33DA014B
:10521000C90125E045E26FEF0E94EF070E94AB064F
:10522000093218F08CE30E94C90280E496E00E94E3
:105230000E08082F833868F088E087B91092810043
:105240001092800014B82298CDB7DEB7E0E10C943C
:10525000D534833310F0DAE003C0882321F0D1E0A5
:10526000DC0F10E001C0DC2F812F9BD9182F803F6D
:1052700008F4A1CFE1CF0F931F93CF93DF9380ED7D
:1052800091E09FD08CE193E00E944A35C82FD0E096
:105290000E943D060C2F0C2E000C110BC7FF0AC0FC
:1052A0000E94D40123E045E26FEF88279927801BF5
:1052B000910B04C023E045E26FEFC8010E94EF07A5
:1052C0000E94AB0680E496E00E940E08882331F02D
:1052D000823880F48932C0F0CF5FD0E0C13514F05D
:1052E000C55603C0CC3E0CF4CB598D2F5AD9D82FBC
:1052F000803F70F26C2F8CE193E00E945735DF9174
:10530000CF911F910F910895C150E7CF813019F4CB
:1053100080E06BC00895823011F491CD0895833000
:1053200011F412CF0895843011F424CD08958530FE
:1053300011F441C90895863021F40E9438067DC9D0
:105340000895873011F497CF0895883021F481E1D2
:105350000C940D090895893011F447C408958A30DA
:1053600011F40C94B3080895CF93DF938CE292E08C
:1053700028D0D0E0C0E00E943D068C2FBBDC80E44A
:105380009FE10E940E088111D0E090912B01913095
:1053900009F4D0E0823340F0CC2379F08C2FB6DFD3
:1053A0008CE292E00ED002C08111CF5FDF5FDE366B
:1053B00020F4CB3000F3CB50DECF80E0DF91CF91F3
:1053C0000895CF93DF93EC010E943806CE010E942E
:1053D0005106C4E60E94C8024F9902C0C150D1F7DD
:1053E0000E943D06DF91CF910895A7E0B0E0EBEF7A
:1053F000F9E20C94B73488E192E0E3DF20EF2B83ED
:1054000054980E94B70214BC16BC1092030110926B
:105410000401109205011092060131E035BB309372
:105420006E001092800083E19AE790938B00809346
:105430008A00E1E0F0E0F0938900E09388001092A8
:1054400085001092840083B5816083BDF6E0F6BBD1
:10545000F0936F00789424E02093810032E3398345
:105460001A820E94B002A8954F9902C061E06A8337
:1054700085B581111FC015BC86B5809303010E94BC
:10548000380686E60E94DE050E94D601609103017F
:1054900070910401809105019091060147E00E94FE
:1054A0000408549880918100882351F08FE30E9472
:1054B000DE0506C08981815089838111D2CFDBCF7F
:1054C0001092810010926F0020910301309104012D
:1054D0004091050150910601DA01C9010197A10926
:1054E000B109813F9048A105B10508F00BC1AAE0C0
:1054F000B0E00E942234DC01CB010896A11DB11D51
:1055000023E0B695A795979587952A95D1F7BC0185
:10551000660F771F709366016093650154980E942F
:10552000B70216BC109203011092040110920501FB
:1055300010920601F1E0F5BBF0936E001092680145
:105540001092670124E02BBB8091680084608093F7
:105550006800789480916D00806180936D0019825D
:105560000E94B002A8954F9902C031E03A83809121
:105570006D0084FF05C069816F5F69836A3F81F7B1
:1055800015BC80916D008F7E80936D0080916800C6
:105590008B7F8093680086B5809303010E943D064F
:1055A00084E50E94DE050E94D6016091030170919E
:1055B00004018091050190910601E0916501F0914F
:1055C0006601FD83EC8328EA31E640E050E00E946A
:1055D0003234EC81FD81612C712C43015F01C12CBF
:1055E000D12CE12CF12C00E010E00E945B34490149
:1055F0004F835E831B012C012C813D8120383105B6
:1056000030F007E023E745EFB4018F8117C084E64F
:10561000A82EB12CC12CD12CE12CF12C00E010E0F3
:1056200094014F815E81C2010E945B34F22FE42F0E
:1056300007E023E747EF6F2F732F8E2F952F0E94E0
:10564000060739813A3F21F48FE30E94DE055AC0F4
:1056500094014F815E81B101C201263E354B410567
:105660005105610571058105910509F008F44AC0ED
:105670000E94300686E60E94DE050E94D601940153
:105680004F815E81B101C20154012115FAEC3F073F
:10569000FAE94F07FBE35F07610571058105910595
:1056A000A1F098F06A017101820120E030E04AE83F
:1056B0005DE568E775E483E691E00E945B34F22FD4
:1056C000E42F07E028E44AEF13C0CF80DE807101A9
:1056D000820120E030E44AE750E163EF7AE580E0C0
:1056E00090E00E945B34F22FE42F07E028E44DEFB6
:1056F0006F2F732F8E2F952F0E9406078AE70E9427
:10570000DE05549810926E0080ED97E00E940E081E
:105710002A81820F29F43B8131503B83311170CEB5
:105720002796E2E10C94D3341F920F920FB60F929A
:1057300011248F939F93AF93BF937894809103012B
:1057400090910401A0910501B09106019F5FAF4FB8
:10575000BF4F8093030190930401A0930501B09380
:105760000601BF91AF919F918F910F900FBE0F9047
:105770001F9018951F920F920FB60F9211248F93BE
:1057800086E085BD8F910F900FBE0F901F901895EA
:105790001F920F920FB60F921124A89510928100BC
:1057A00015BC0F900FBE0F901F9018951F920F926F
:1057B0000FB60F9211242F933F938F939F93809155
:1057C000670190916801892B11F481E085BD2091DA
:1057D00067013091680180916501909166012817F9
:1057E000390730F015BC80916D008F7E80936D007D
:1057F0008091670190916801019690936801809370
:1058000067019F918F913F912F910F900FBE0F9045
:105810001F901895A0E0B0E0E0E1FCE20C94C034E9
:10582000182F062F862F90E0FC01ED56FE4FE491D5
:10583000E860FE2EE12FF0E0E057FE4FC491FC013E
:10584000E057FE4FD49110927C0110927B01109290
:105850006F0110927001109271011092720187EF26
:10586000809381010E94B91C88E088B9F7B8D4B947
:10587000D5B9812F0E9400037C01802F0E94000374
:10588000E81AF90A14B8109248011092470120E072
:1058900030E05CE2C52EDD24D394DAE064E6B62E77
:1058A0008091470190914801843D904308F06FC07A
:1058B000C5B98091470190914801892B81F0F6018B
:1058C000E21BF30B6091470170914801D29FC00128
:1058D000D39F900D11243CD7E617F70750F4C4B9B5
:1058E0000E94BB0214B88091470190914801019633
:1058F00027C080914701909148010B97C0F06091BB
:10590000470170914801B29EC001B39E900D1124D1
:105910001FD76E177F0758F4C4B90E94B00214B89D
:1059200080914701909148018C599F4F09C0C4B99B
:105930000E94B60214B880914701909148010A96DE
:10594000909348018093470115B80E94BD02A89525
:10595000812F0E9400039C012E193F09809147016D
:10596000909148018B31964018F0253231057CF03A
:105970002D3281E038070CF493CF8091470190914C
:105980004801019771F4253185E0380754F088E02B
:1059900087B988B914B815B8CDB7DEB7E9E00C946B
:1059A000DC348091470190914801880F991FA0E055
:1059B000B0E08093770190937801A0937901B09340
:1059C0007A01C90168E270E0D7D6CB01820F931F3C
:1059D0000E94C503209177013091780140917901AF
:1059E00050917A01DC012ED7609377017093780192
:1059F0008093790190937A0160936F0170937001A5
:105A000080937101909372010E94491DC0906F01B3
:105A1000D0907001E0907101F09072018CE193E000
:105A20000E944A35A8EEB3E0A81BB10987FDB395E3
:105A3000A701960111D720E137E240E050E0AFD650
:105A400020936F0130937001409371015093720164
:105A500088E080930F012093730130937401409389
:105A6000750150937601809181018093820110929B
:105A70007E0110927D0100937F011093800187CFFA
:105A8000A0E8B0E0E5E4FDE273C750908501D09056
:105A90008B01F0908C01852D90E09C0120573E4FAA
:105AA0004901352D3064432E68E0362E6F2C712C61
:105AB000F301E057FE4F8491F401C490C82A149179
:105AC000110F182B40927C00AD2CB12CF501ED5636
:105AD000FE4FE491E860E7B938B815B814B80E94F1
