:10000000F1C2000001C30000FFC20000FDC20000F9
:10001000FBC200000C94FD2DF7C20000F5C20000E9
:10002000F3C20000F1C20000EFC200000C94E12D09
:100030000C94EF2DE9C20000E7C20000E5C2000009
:100040000C94BB2DE1C20000DFC20000DDC2000045
:10005000DBC200000C942E09D7C20000D5C20000FC
:10006000D3C20000D1C20000E62FF72F903009F470
:100070009395E5B8C4B8B7EFB0937A00A5E0A09324
:100080007B00A8E0A093810010928000AFEFA093C6
:100090008500A0938400A6E0A093360010928B0008
:1000A00010928A00B6E0AFE7A91B51E0392F363035
:1000B0002AF0A058B94F53953650F9CFB093890024
:1000C000A0938800A0917A00A4FFFCCFB7EBB09377
:1000D0007A00A2E0A0936F00A9E0A093810062E003
:1000E000A0E0A0937B00A1E0A09353008895E5B821
:1000F000C4B884FF19C0A3E4AA95F1F7EF93FF9366
:10010000E7B1F8B1A4E0C2FCA2E0C0FCA1E0BF2FBF
:10011000BA2BAE2BB8B904B9A7B9E7B9F8B9FF91B2
:10012000EF910AC00C947300A7E40000AA95F1F7C0
:1001300025B9E5B8000004B9A0918400A09185001C
:10014000B0918900A395AB1768F7A0917A00A4FF3E
:10015000F3CFB7EBB0937A006A9571F760917800AE
:1001600070917900308186FD630F6193308186FD47
:10017000731F80FF7193652F4A9579F710926F0076
:1001800010928100B7E0B0937A00089549647373C8
:100190003D00206574613D00554A5400505554009F
:1001A000312D042D3320342D33306E46284C290058
:1001B0005245465F523D005245465F433D00203E5A
:1001C0003130306E460066706EE46D006B4D010498
:1001D00010090A0C5244533D005B435D00312D046D
:1001E0002D332000312D06072D77772D3320004346
:1001F0002B455352405450313A3300433073616DB4
:100200007020004330200052695F4C6F3D005269FE
:100210005F48693D0052303D0052482F524C002B40
:1002200052482D203132203133203233002B524CB2
:100230002D2031322031332032330052482B0052EE
:10024000482D005248663D005265663D00494345D1
:10025000733D00494345303D0056657273696F6ECA
:1002600020312E31336B002D77772D002D06072D91
:10027000002A012020007A20513D002069662000DC
:100280002040302D3556002D022D002D012D004E21
:100290006F742063616C69627261746564212046C9
:1002A0006F72FF63616C6962726174696F6E206363
:1002B0006C616D70207468652033FF70696E732007
:1002C000746F67657468657220616E642073746111
:1002D0007274207769746820746865FF6B65792E85
:1002E0002041636B6E6F776C656467652074686529
:1002F0002073656C662D746573742077697468204B
:10030000746865206B65792077697468696EFF325F
:10031000732E20446973636F6E6E65637420706919
:100320006E7320616674657220746865FF6D657315
:1003300073616765202269736F6C617465FF507229
:100340006F626521222069732073686F776E2E209B
:10035000536F66747761726520616E6420646F63A9
:10036000756D656E746174696F6E20697320617458
:100370002073766E3A2F2F206D696B726F636F6EEC
:1003800074726F6C6C65722E206E65742F7472615E
:100390006E736973746F7220746573746572200074
:1003A00049723D004C3D0020566C6F73733D002038
:1003B0004553523D005643433D0043656C6C21005C
:1003C0002D042D004056673D002056743D005566B3
:1003D0003D005562653D00203132333D00504E50A6
:1003E000004E504E0043673D006846453D002D4994
:1003F000474254004A464554002D4D4F53004F4B41
:1004000000462D5363616C657200467265717565B7
:100410006E63790073686F72742050726F626573D7
:10042000210053656C6674657374004328E44629A3
:100430002D636F7272656374696F6E0031302D6267
:1004400069742050574D00662D47656E6572617462
:100450006F720053686F7720646174610054726139
:100460006E736973746F720053656C656374696F42
:100470006E3A005465737420456E640069736F6C46
:100480006174652050726F626573210053656C66FC
:1004900074657374206D6F64652E2E0054696D65EC
:1004A0006F75742100206465746563746564004E23
:1004B0006F2C20756E6B6E6F776E2C206F72002024
:1004C000756E6B6E6F776E00546879726973742EF7
:1004D00000547269616300706172740064616D61DF
:1004E000676564200054657374696E672E00B903F4
:1004F000870358032E030703E402C302A402880201
:100500000000140029003E0053006900800097009D
:10051000AE00C600DF00F80012012D01490165019F
:100520008201A001BE01DE01FF0121024402680236
:100530008E02B502DE020903350364039403C80387
:10054000FE0337047304B404F90443059305EA0574
:100550004906B3062907AE074808FF08DE09FD0A69
:10056000930C480F991B705780508D4A6645E340A5
:10057000E83C5E3933365A33C6306D2E492C532A47
:100580008428DA264E25DF2389224A212020081FCD
:10059000011E091D201C431B731AAD19F1183F18C9
:1005A0009517F4165A16C6153A15B3143214B71324
:1005B0004013CE126112F81193113111D31078103B
:1005C000202020202020202020202020202020202B
:1005D00020202020202020202020202020205B52AE
:1005E0004C5D000011241FBECFEFD8E0DEBFCDBFB1
:1005F00021E0A0E0B1E001C01D92A73BB207E1F706
:100600000E94BB0D0C944137FBCC97FF09C08F9320
:100610009F938DE2D9D39F918F91909581959F4F14
:1006200067E171E04AE050E00E94E0364FC408956F
:10063000ECDF01C0EADF80E2C7C38DE2C5C38DE312
:10064000C3C3EF92FF920F931F93182F062FF42E20
:1006500087ED93E03DD4EE24E0913201F091330137
:100660008685E81611F4812F09C08485E81611F4F7
:10067000802F04C08585E81611F48F2DA5D3E3944F
:100680008E2D833049F71F910F91FF90EF900895C1
:10069000682F80E092E0662309F491E0623009F46B
:1006A00081E008950F93082FEFE9F1E0880F880F9C
:1006B000E80FF11D6081718182819381643671053B
:1006C0008105910568F42091150127FD09C0802F4F
:1006D000DFDF692FB9D16EEF23E044EF43D504C0CB
:1006E0004FEF04E024EF57D4A6DF0F910895863032
:1006F00058F4EEE8F1E0E80FF11DE80FF11D8081FC
:10070000918163E03AD597CF08951F93182F809178
:100710006901882319F08FDF80E056D39AD38EECDD
:1007200093E0D6D3812F82958F70E1DF812F8F7078
:10073000DEDF1F9108958091020182958F7019D09C
:100740008091020183701CD080910201DECF089558
:10075000E2E8F1E0E80FF11D0895CF93F9DF908111
:10076000C681C91710F405D001C013D064DFCF9142
:100770000895EEDF8F9380815ED38F9101C008953D
:100780008F938BE892E0A4D38F91E2DF868153C3ED
:100790000895DEDF8F9386814ED38F9101C0089537
:1007A0008F9387E892E094D38F91D2DF808143C307
:1007B00008959091C00095FFFCCF8093C6000895E6
:1007C00003D002D001D000D000D003D002D001D09D
:1007D00000D000D003D002D001D000D000D0A89526
:1007E00003D002D001D000D000D003D002D001D07D
:1007F00000D000D003D002D001D000D000D003D070
:1008000002D001D000D000D000000895E7DFE7DF7C
:10081000E6DF1F93182F106410937C00E12FE0781F
:1008200080912201E81751F0E0932201D7DF87ED94
:1008300080937A0080917A0086FDFCCF20E030E042
:10084000A901E0E01EC087ED80937A0080917A00D4
:1008500086FDFCCF6091780070917900260F371FDC
:10086000411D511DE43061F480912401803041F03C
:1008700084E02030380720F417FD02C01068CCCF88
:10088000EF5F80912101E817F0F2609125017091EE
:10089000260117FF04C0609123017091240180E0BC
:1008A00090E00E9456352FEF33E040E050E00E9488
:1008B0009835B901CA012091210130E040E050E0B3
:1008C0000E949835C9011F9108959B01281B390B7F
:1008D00050F0C9010895BC01809125019091260135
:1008E0006817790718F4861B970B089580E090E04D
:1008F000089589E290E00E941337382F8AE290E051
:100900000E94133720912901230F30912A01381FAB
:1009100020930B0130930C0183E0283E380720F030
:10092000C901885E934002C080E090E062E370E01D
:100930000E947135683008F067E0EEEEF4E0E60FF3
:10094000F11DE60FF11D459155912591359162E319
:10095000681B421B530B649FC001659F900D1124BF
:10096000499662E370E00E947135620F731F7093C5
:100970006B0160936A018BE290E00E941337992724
:1009800087FD90956091290170912A01860F971F2C
:1009900090932401809323019093680180936701D1
:1009A00008950F9221E08C32920710F48CE291E0CE
:1009B0008C52914069E170E00E94713599E16B328F
:1009C00010F0982F6BE2981BE6E6F5E0E60FF11DBC
:1009D000E60FF11D4591559125913591692F421BE7
:1009E000530B649FC001659F900D11240C9669E123
:1009F00070E00E947135620F731FCB010F90089554
:100A0000CF93DF9324E130E0B9010E947135DC011E
:100A1000E0E0F5E0E60FF71FE60FF71FC591D5916F
:100A2000459155914C1B5D0B4A9FC0014B9F900D0A
:100A30005A9F900D1124B9010E9471356C0F7D1FD2
:100A4000CB01DF91CF910895AEE1B0E0EAE2F5E0AD
:100A50000C948036662EB82E860F898320910F0164
:100A6000283059F520917001309171014091720147
:100A70005091730157FD15C010917F0109C0CA0143
:100A8000B9012AE0312D412D512D0E9498351F5F6B
:100A9000173FACF391F4243160E03607410551056E
:100AA00018F48FEF9FEF40C1173F39F480E028170B
:100AB0008DE738074105410510F020E03DE72C8B1C
:100AC0003D8B27EDA22EE1EDF1E0E60DF11D8591C4
:100AD00088608E87E1EDF1E0EB0DF11D8591886076
:100AE0008F87EEECF1E0E60DF11D7590EEECF1E094
:100AF000EB0DF11DC59090EC692AB92A81E0E82E32
:100B0000F12C012D112D8E831F82188619861A86CD
:100B10001B861C861D86188E198E1B8E1A8E0E94AF
:100B2000431F88E088B960927C0058DE3F8537B962
:100B300075B874B855E05A95F1F7000014B815B8B7
:100B4000DD243E8537B975B874B860927C00A895ED
:100B5000A0927A0080917A0086FDFCCF20907800E8
:100B600030907900B0927C004C2DE2D0209178003A
:100B700030917900288B398B3F8537B9C5B8C4B817
:100B8000A895B0927C00A0927A0080917A0086FDB0
:100B9000FCCF609178007091790060927C00472DC5
:100BA000C7D0409178005091790014B8CB01820DE4
:100BB000931DE80EF91E011D111DEA82FB820C83B4
:100BC0001D8388899989840F951F2E813F816885AF
:100BD0007985280F391F611D711D2E833F8368871A
:100BE000798722E32417150648F075B874B80BDE30
:100BF00014B815B8888D8395888F07C0483E73E078
:100C0000570718F08A8D83958A8F888999892817C4
:100C1000190658F03E8537B9C5B8C4B8F4DD14B824
:100C200015B8898D8395898F07C0883E73E0970733
:100C300018F08B8D83958B8FD3945D2D5F3F49F09A
:100C40005F3731F45C2D550FC50E572D550F750EBE
:100C500078CF40902E0150902F01440C551C9201EA
:100C6000E4E0240D351DEA95E1F7290157016801FB
:100C70006E807F808884998420910F012830C1F490
:100C80006C897D89812D912D655070408040904008
:100C90009B01AC010E9456359B01AC0160E779E7EE
:100CA00086E190E00E949835621A730A840A950AD8
:100CB000A614B704C804D90428F46A187B088C0861
:100CC0009D0803C0662477244301B20180E090E0D0
:100CD0009301A4010E9456359501A6010E94983502
:100CE00080E090E07981870F911D0E941337682E74
:100CF000C90160E170E00E947135260F371FC901FC
:100D00006816190618F4861991090EC08C5E9F4F5B
:100D10008615910538F48C899D89843981E198077D
:100D200008F0CFD6812D912D6E96E2E10C949C3681
:100D3000109281001092800010926F0010928B0030
:100D400010928A0057E056BB5FEF50938500509396
:100D5000840055E050937B0057EB50937A0051E0AC
:100D6000509381005FE45A95F1F70000000045B907
:100D700044B95BE05A95F1F714B815B810928100A8
:100D800080917A0084FFFCCF80937A000895CF93FE
:100D9000DF93EC018991882311F00BDDFBCFDF910C
:100DA000CF910895CF93C82F1C161CF444DCC1507A
:100DB000FBCFCF9108958091310180930001809104
:100DC0009E01809301010895909131019F5F90935E
:100DD0003101883050F48630E0F4823071F0843094
:100DE00081F0813031F58EE30DC0843EA1F0843F67
:100DF000A1F08D32F1F48DE21CC08CE7DADC8CE3DB
:100E000003C08CE7D6DC8CE7D4DC809131018F5FA6
:100E10000DC082E50EC085E70CC08FE4CADC88E611
:100E2000C8DC8DE6C6DC809131018E5F8093310194
:100E30000895BFCC08958F5CC7CF08958DE0B9DCCD
:100E40008AE0B7CC089510929E0110923101F6CF3E
:100E5000089581E080939E0110923101EFCF0895B3
:100E600082E080939E0110923101E8CF089583E0E3
:100E700080939E0110923101E1CF089580939E01ED
:100E800060933101611101C0D9CF089560910001D3
:100E900080910101F3CF0895089582E08093C0000E
:100EA0001092C50080E18093C4008EE08093C20060
:100EB00088E18093C1000895CF93C0DFC8E280E24B
:100EC00078DCC150E1F7BFDFCF91089560CF08957E
:100ED000CF93DF93EC01FE018491982F9F7719F057
:100EE00073DF2196F8CFDF91CF9108959091310172
:100EF00088E2891B57CF0895CF93C82FF7DF8091E1
:100F00009E018F5F80939E01803138F08FE0809347
:100F10009E0181E08093340102C010923401C0939D
:100F200031018CDFCF910895E7DF75C108958BDF24
:100F3000DDDF89CF08958DDFD9DF8BCF08950F9343
:100F400085EE93E0C5DF40917E014D3F64F46091F2
:100F50006C0170916D0180916E0190916F0103E0C1
:100F600026E419D002C08FE32FDF0F9108959091EE
:100F70000E019F70923071F4D7DF84ED91E0A8DF0D
:100F8000E0913201F091330122E044EF6FEF848170
:100F90009581E8C00895AEE0B0E0E1EDF7E00C9493
:100FA0008036142F322E202E6B017C010F7080E3CF
:100FB00089838A838B838C838D838E83F7FE0AC01B
:100FC0003CDBF094E094D094C094C11CD11CE11C93
:100FD000F11C04C025FE02C08BE2F6DE033071F086
:100FE000043099F00530C1F00630F1F0073021F1FE
:100FF00074E6472E512C612C712C25C068EE462ECC
:1010000063E0562E612C712C1EC050E1452E57E234
:10101000552E612C712C17C040EA442E46E8542E00
:1010200066246394712C0FC030E4432E32E4532EB7
:101030003FE0632E712C07C020E8422E26E9522E95
:1010400028E9622E712C9AE0892E912CA12CB12CCA
:10105000C414D504E604F70470F0C701B6016B5F51
:101060007F4F8F4F9F4FA50194010E9498356901D2
:101070007A011F5FEDCFE1E1E10F9BEAE99FE12DEE
:1010800011247E2E769486E0811B899F112D1124D8
:101090001695912F990F190F811B182F5E0187E06C
:1010A000A80EB11C2AE0A501C701B6010E94BF36F7
:1010B000F50101900020E9F731976F01CA18DB08AC
:1010C0002C2D5601BB24812F90E004968A159B0598
:1010D00014F473941D5FE72DF0E0EA53FE4FF49093
:1010E00024FE04C0201710F40C1901C000E08C2C61
:1010F000811A800E181424F08EE266DE012F0C197E
:10110000111102C088EF882EE12C10E0A00EB11E54
:10111000C82C082C000CDD088E2D90E08A159B054C
:10112000ACF4FC013696E01BF10B81E090E08C0FF3
:101130009D1FE80FF91F808147DEE3948E2D90E01C
:101140008C159D0549F78EE23FDEE6CFFF2011F0BA
:101150008F2D3ADE332011F0832D36DE2E96E2E11C
:101160000C949C360F93362FBC0180E090E0022F48
:10117000242F432F10DF0F9108950F93062FBC01EA
:1011800080E090E026E54DEF06DF0F9108950F9384
:10119000042F28E440E0FFDE8AE716DE4CDA0F91E8
:1011A0000895EF92FF920F931F93CF93DF93F82E42
:1011B000E92EC5E64F9B05C0CF2DDE2D15E500E0DD
:1011C00017C00DDBC150B1F7F7CF08DB110F4F9BF4
:1011D0001F5F1F731F3379F4011103C0CF2DDE2D64
:1011E00004E00F5F083C88F4A8951C161D0644F027
:1011F000D7FFEBCF0AC01111F7CF0023A9F305C029
:101200002A97B1F7CFEFDFEFF3CF802FCDB7DEB75F
:10121000E6E00C94A836CF93CEDDC82F8091340140
:101220008823D1F0813051F4CF3041F467E28FE070
:1012300025DE8BE2C9DD67E28FE020DE80E49FE1FE
:10124000B0DFCF3041F480913401813021F460E08F
:101250008FE014DE4BDE1ADECF91089518953091A1
:101260000D01A0913201B0913301E2E8F1E080E09C
:1012700090E08317B0F441911C962C911C97421773
:1012800019F04581241302C00196F3CFFC01EE0F43
:10129000FF1FE257FE4F20813181293E334008F481
:1012A000089584E1089510920F0110920D0110929B
:1012B00062011092440110920E01109230011092BE
:1012C0006901EDE4F1E0108211821282ECE6F1E0B6
:1012D000108A82E0818B109215011786168614827F
:1012E00015821682178281EF838B08958FE461DA6D
:1012F00086E45FDA86E45DDAA1DD5E9864DA80E098
:1013000090E04FCF08951F93CF93DF93162F98E06F
:1013100097B998B9E82FF0E0E253FE4F949195B950
:10132000262F281BE20FF11D27FDFA95E491E92BEA
:10133000E4B96FDAEC01812F6CDAAC012091250160
:101340003091260136952795C9010397BE01625E4B
:101350007F4F8617970778F4255E3F4FC217D30754
:1013600050F4BA01625E7F4F8617970720F481E040
:101370004217530708F080E014B8DF91CF911F9116
:101380000895CF9361E080E0BEDFC82F62E080E087
:10139000BADFC80F62E081E0B6DF8C0FCF9108950D
:1013A000AFE0B0E0E6EDF9E00C948036B82E109294
:1013B0000F01807FA9F4E5DF833009F07EC37CDD77
:1013C0008CE894E085DD45DD8FE3FEDC80ED97E081
:1013D000E8DE8B30B8F470DD89E592E079DD6DC32D
:1013E00006E910E069DD84E194E072DDCADF833054
:1013F00021F41F5F143010F005C010E0E9D901504E
:1014000089F760C026DD0E94B82285E192E060DDA8
:1014100060E082E090E00E94203760E083E090E0AE
:101420000E94203760E081E090E00E94203760E079
:1014300082E00ADB6C019A83898361E082E004DB4D
:101440007C019C838B8360E081E0FEDA8C019E83CB
:101450008D8323E040E26EEFC60184DE23E040E2AC
:101460006EEFC7017FDE23E044EF6EEFC8017ADE46
:101470002AE5C216D10424F084E190E09A8389839E
:10148000698182E090E00E9420378AE5E816F10445
:1014900024F084E190E09C838B836B8183E090E077
:1014A0000E9420370A35110524F084E190E09E83E4
:1014B0008D836D8181E090E00E94203782E08093EF
:1014C0003401A9DEEB2DEF70EF87E13011F018E762
:1014D00035C1EE24E394F12C78EB872E72ED972E34
:1014E00077E4A72EB12CE2E0DE2E08E0F0E23F2EFA
:1014F000C12C1E2D52E2252E1EDD19DD84E564DC93
:10150000C7018ED898D81130B1F488E492E0E0DCBD
:1015100064E08091290190912A012FDE9ADC83E416
:1015200092E0D6DC80916A0190916B0179D88EEBC4
:1015300080932101E1C0123079F52091250130918D
:101540002601A8E5BBE10E94D63524EC36E340E055
:1015500050E00E94BA3529013A0181E085B9F5E0F1
:10156000F4B980E053D9841995099A83898381E17C
:1015700084B980E04BD9841995099C838B8384E0DE
:1015800085B984E184B981E041D9841995099E83A4
:101590008D838DE292E09EC0133041F5D5B82AE0EC
:1015A00024B980E033D92091250130912601369568
:1015B000279538872F83821B930B9A83898324B8BE
:1015C00080E024D92F813885821B930B9C838B83E9
:1015D00005B988E284B981E019D92F813885821B49
:1015E000930B9E838D838FE192E074C0143039F4A5
:1015F0008CE794E06DDCC5DE81115CC26CC01530F7
:1016000099F415B8D4B880E001D99A83898304B9D4
:1016100081E0FCD89C838B8334B882E0F7D89E832A
:101620008D838FE392E056C0163039F5D4B8D5B823
:1016300080E0ECD82091250130912601821B930B8C
:101640009A83898304B905B981E0E0D82091250106
:1016500030912601821B930B9C838B8334B835B861
:1016600082E0D4D82091250130912601821B930B72
:101670009E838D838BE392E02DC0173061F520911E
:10168000250130912601A8E5BBE10E94D635A501D0
:1016900094010E94983529013A01D5B8E3E0E4B9F4
:1016A00080E0B4D8841995099A83898305B9FCE050
:1016B000F4B981E0ABD8841995099C838B8335B844
:1016C00020E324B982E0A2D8841995099E838D83F2
:1016D00089E192E0FDDBBDDB89819A810E940503EF
:1016E0000E941B038B819C810E9405030E941B03A7
:1016F0008D819E810E94050307B908B914B815B8F9
:1017000088EE93E04EDD143011F08B3020F4C3945A
:1017100084E0C812F1CE88EE93E043DDEFEFEE1ADD
:10172000FE0AF8E0EF16F10409F0E2CED0CE03DCB9
:101730008CE794E0CDDB49D8115019F022DE8111FD
:10174000F6CFBADB8EE092E0C3DB23E044EF6FEF2D
:10175000809127019091280105DD7BDB87E092E0F5
:10176000B7DB23E044EF6FEF80912E0190912F01C2
:10177000F9DC82E0809334014EDD10920F019CDB96
:1017800083E092E0A5DB60E082E00E9413204090BD
:1017900074015090750160907601709077015C86BD
:1017A0004B8661E082E00E9413208090740190904B
:1017B0007501A0907601B09077019E868D8660E0DD
:1017C00081E00E94132000917401109175011E8325
:1017D0000D8362E080E00E9413208091740190915B
:1017E00075019C838B8362E081E00E9413208091CD
:1017F0007401909175019A87898761E080E00E9469
:101800001320E0907401F0907501FA82E982C20120
:101810000E941A03C4010E941A03B801110F880B19
:10182000990B03E026E444EFB6DB2F85213021F04D
:1018300080912D01823031F482E0E80EF11CF886AF
:10184000EF8206C0F886EF8210922D018CE024DB37
:101850008E010F5F1F4F6E01EFE0CE0ED11CF8011D
:10186000819191910A97853B9105C8F4EC15FD058E
:10187000B9F742E2E42E40E0F42EF80160810E5FF9
:101880001F4F6E5EC7010E942037FFEFEF1AFF0A5D
:101890000C151D0591F7DDDA8EEF93E019DB82E080
:1018A00080933401B8DC0E94FD312F85213029F06E
:1018B00080912D01823009F0E8C0FEDA80E0BBDAC9
:1018C00080EC93E005DB82E0B6DA8EEB91E000DBA2
:1018D00020E4F22E10E03AE0832E912CA12CB12CC2
:1018E000E2DC10920F0160E082E00E941320009180
:1018F0007E0120916C0130916D0140916E015091FB
:101900006F01073F44F40F5FCA01B901A5019401BB
:101910000E949835F6CF00937E0120936C0130939E
:101920006D0140936E0150936F01073F09F098C01D
:10193000DA01C90180569109A109B109803995459B
:10194000A105B10508F08CC0609180017091810102
:10195000CB018B569F4F8B32914008F081C01F5FA7
:10196000153008F47EC089E290E00E942E37A4DA98
:1019700087EB91E0ADDA80918001909181010E9426
:1019800005030E94790488E088B989E087B980E27C
:1019900084B982E00E940904853D9340D4F714B8CD
:1019A000109224011092230182E00E9409048C010C
:1019B00080916701909168019093240180932301A5
:1019C00082E00E9409047C01EE0CFF1C10922401AD
:1019D0001092230182E00E940904A0906701B09058
:1019E0006801B0922401A0922301800F911F8C0105
:1019F0000E191F092EDA80EB91E06ADA8BE290E093
:101A00000E941337D82E9501D8010E94E535970121
:101A10000F2C000C440B550B0E94BA3513E01D0D22
:101A2000120F612F8BE290E00E942037812F012E50
:101A3000000C990B0E9405030E94790482E08093B8
:101A40003401E9DB10922D018CE026DA82E290E08D
:101A50000E941337682F85E290E00E94203715C05E
:101A600010E0F7D960916C0170916D0180916E0169
:101A700090916F0104E026E440917E018CDA36DA21
:101A80000E94E803FA94F1102BCF89E180932101A1
:101A900080E00E94123510DA89E592E019DAD9D98E
:101AA00083E794E015DA10920F0182E0809334010D
:101AB000B2DB03C082E0C82E0ECE2F96E2E10C947A
:101AC0009C3680912D0181110DC082E290E00E9430
:101AD000133761E0680F85E290E00E94203781E0D3
:101AE00080932D010895EF92FF920F931F93CF9350
:101AF000DF93D62FE82FF0E0EF52FE4FE491E8B9E4
:101B0000E860E7B915B8E62FF0E0E253FE4FE49144
:101B1000E4B988E8E82E83E1F82ECE2FCC0F8D2F84
:101B20000E9406048C01C4B98E159F0510F478013B
:101B3000F6CF892BD9F09BD980EA93E0C9D9D80197
:101B400020EA36E841E050E00E94EB3528E937EB27
:101B500040E050E00E949835DA01C90122E041E4FA
:101B600067EF00DB88E087B988B914B8CDB7DEB776
:101B7000E6E00C94A836A0E0B0E0E1ECFDE00C94C7
:101B8000803680E48AB98BB987E880937A00109216
:101B9000C1000E94E503C4B784B7877F84BF0FB636
:101BA000F894A895809160008861809360001092FD
:101BB00060000FBE789471D9C3FD72C580E185BF06
:101BC0000E94ED30109222010E94B82248E0942E2B
:101BD00050E1852E68E1762E73E5E72E71E0F72E51
:101BE000E0EF2E2EF3E33F2EA1E26A2EB2E15B2E50
:101BF00063D997B858DB0E94B82225D989E592E0CD
:101C000067D980913001882361F023D985EB93E077
:101C10005FD963E08091250190912601AEDA0E94A0
:101C2000E4030E94431F80910F01893001F544D9DC
:101C30008AEB93E04DD90DD963E0809147019091F3
:101C400048019BDA0E941B0363E080914901909157
:101C50004A0193DA0E941B0363E080914B0190914B
:101C60004C018BDA0E94E30381E19ADB9FC48CE094
:101C700013D985E290E00E941337C82F82E290E0EA
:101C80000E941337C81BC0932D01CC2311F08EE0A6
:101C900003D980E085DB4FD985EE94E019D983E044
:101CA0000E94D903CBD842E061E080E03CD542E01D
:101CB00060E081E038D541E062E080E034D541E089
:101CC00060E082E030D540E062E081E02CD540E089
:101CD00061E082E028D580910F01811116C083E474
:101CE00073D80E94431F60E082E00E9413208BE4BF
:101CF0006BD861E082E00E9413208BE465D860E03D
:101D000081E00E9413208BE45FD880910F01833023
:101D100061F480910D01823041F4909182018091B3
:101D20008301981302C00E943B2F01D985E391E003
:101D3000909333018093320180910F01863039F402
:101D400088EC94E0C5D841E467E483E415C08730AB
:101D500039F481ED94E0BCD842E367E481E30CC040
:101D60008A30C9F48CE991E0B3D8F0923301E09263
:101D7000320143E467E481E40E9421036AD88EECD7
:101D800093E0A6D8E0913201F091330162E08481C2
:101D90009581F3D909C4823009F03BC088E991E00C
:101DA00097D842E365E481E30E94210380E0A4D850
:101DB0006091430180914201E62FF0E0E35BFE4F2A
:101DC000E80FF11D319710820E94151D809143018B
:101DD000E0914201F0E0E80FF11DEE0FFF1FEE0F62
:101DE000FF1FE556FE4F608171818281938102E081
:101DF00024EF4FEFD0D882E991E06AD860913F019B
:101E00007091400180E090E003E025E240E0C3D81B
:101E1000CDC3883081F420917C0180917D0190E0D8
:101E2000820F911D029719F40E94F624D1C380E01D
:101E30000E947F24BBC3833009F0CAC080910D018A
:101E4000813009F042C080E00E94AD0360918201C0
:101E50008091880148DE80E70E94850340E0609120
:101E60008201809188010E94483160936C017093D7
:101E70006D0180936E0190936F0180E055D8609161
:101E80006C0170916D0180916E0190916F0102E083
:101E900026E442EF80D80E941D0341E06091820158
:101EA000809188010E94483160936C0170936D01AC
:101EB00080936E0190936F0126E442EF6CD880E826
:101EC00092E006D80E941E07CCC2823069F582E3F8
:101ED0000E94E40681E792E00E94680790918201E7
:101EE00030918301931307C080E00E94C90381E011
:101EF0000E94C0030CC020918801809189012813A1
:101F000008C080E00E94B90381E00E94D00381E014
:101F1000A3CF321304C081E08093020135C098132F
:101F20003EC08092020130C08330C9F53092020178
:101F30008091880190918301891303C021E020934F
:101F400002014091820130918901431302C08092C5
:101F5000020120918401821303C082E08093020178
:101F600080918A01481303C040E24093020132137A
:101F70000EC050920201981761F083E30E94E406BC
:101F800081E792E00E9468070E949B036AC298134F
:101F900002C06092020180910201823270F387EDEB
:101FA00094E00E9468078FEB94E00E9468070E940B
:101FB000290780910D01805D0E94E4068AE20E945B
:101FC000E4068BE892E00E94680785EA94E0E5C2A7
:101FD000843009F04BC180916201882309F45DC00F
:101FE00080914401882309F458C060914101809197
:101FF00043010E941320A0906C01B0906D01C0902D
:102000006E01D0906F01C0917E016091610180915D
:102010005F010E9413208091350190913601A091BB
:102020003701B091380140915301509154016091B2
:10203000550170915601843F21E09207A105B10539
:1020400038F4443F21E052076105710508F0C0EF04
:10205000443F51406105710538F4843F9140A1052A
:10206000B10510F020927E0180917E01C8130EC050
:1020700080916C0190916D01A0916E01B0916F0102
:10208000A816B906CA06DB0618F004C0C81714F46F
:102090008DE001C08CE080930E0180916201882365
:1020A00061F080914401882341F04F9906C09091DE
:1020B0000E0181E0892780930E0180910E018C3002
:1020C00051F481EE93E00E946807809162018823B9
:1020D00089F080E70DC0F0923301E09232018DED7E
:1020E00093E00E94680780914401882319F08EE6EE
:1020F0000E94E4060E941B03B2D8C82F8530E8F482
:1021000080910E018C3041F481E020914201909148
:102110004301921748F007C081E02091600190913F
:102120006101291708F080E0882319F08BE892E01C
:1021300002C087E892E00E94680743E462E485E415
:102140000E9421030E94290789EE93E00E946807FC
:10215000E0913201F091330160817181828193813C
:1021600003E020E04EEF0E94CB070E941B0389E4AE
:102170000E94E406E0913201F0913301868197815B
:102180008031974270F085E60E94E406E0913201CA
:10219000F09133018681978180519742978386839E
:1021A00003C083E60E94E4060E941F03E09132010F
:1021B000F091330122E041E46AEF868197810E9429
:1021C000B20880E00E94940782ED93E00E946807C5
:1021D000E0913201F091330163E0848195810E94A6
:1021E000BD08E0913201F091330180859185892B02
:1021F00091F080E00E94940783E592E00E946807D6
:10220000E0913201F091330123E041E46AEF8085EF
:1022100091850E94B208E0913201F09133018285EC
:102220009385892B91F080E00E9494078DE492E0E1
:102230000E946807E0913201F091330123E041E40C
:102240006AEF828593850E94B208C53008F0AEC15E
:1022500080E00E9494078C2F0E94AD038EEC93E0E7
:102260000E9468078C2F0E9477039EC1853009F079
:1022700004C180910E0184FF08C080E50E94E4063D
:10228000F0923301E092320103C08EE40E94E40632
:102290000E941D0380910E01C82FCF70C43041F4FD
:1022A00084EF93E00E9468074FE367E48FE311C077
:1022B00085FF02C084E401C085E40E94E406C330C7
:1022C00009F0E6C18EEE93E00E94680743E467E4FC
:1022D00085E40E94210380910E0185FD18C00E94B3
:1022E0002907E0913201F0913301668584850E94CF
:1022F00013200E949F0789EC93E00E946807E091F9
:102300003201F091330162E08285938574C08F7051
:10231000843071F080E00E947C07E0913201F091FE
:102320003301668584850E9413200E949F071AC08E
:10233000E0913201F091330184819581892B91F0F4
:1023400080E00E947C078CE891E00E946807E091A1
:102350003201F091330122E041E46AEF84819581FA
:102360000E94B20880E00E94940789E40E94E4067B
:1023700084E60E94E4060E941F03E0913201F0917E
:10238000330122E041E46AEF868197810E94B2081E
:1023900084EC93E00E946807E0913201F0913301F0
:1023A00062E0828593850E94BD08E0913201F09140
:1023B000330180859185803C9241F8F480E00E9451
:1023C000940789E40E94E40684E60E94E4060E94E1
:1023D0001F0322E041E46BEF80E090E00E94B2082E
:1023E00084EC93E00E946807E0913201F0913301A0
:1023F00062E0808591850E94BD0880E00E94B70759
:102400000E9437078EE30E94E4068CE70E94E406F0
:102410000E941B0380910D0123E040E260E090E008
:102420000E94B208C43009F4C1C0C0E080910D011F
:10243000C81708F0BBC0C11103C080E00E947C0730
:1024400080E00E9494078C2F0E94AD038EEC93E0F5
:102450000E9468078C2F0E9477030E941E07CF5F9F
:10246000E5CF0E941E0780916901882309F49EC070
:1024700077B897B880E00E949407D0916901DD2376
:1024800009F47FC0D130A1F4809150010E9448032B
:1024900020915001213039F420910D01211103C008
:1024A0000E94462495C040E0692F0E9489237EC087
:1024B000909150018091510124E0829FD00111241C
:1024C000A156BE4F24E0929FF0011124E156FE4F29
:1024D0000D911D912D913C914081518162817381BB
:1024E000401751076207730710F4C82F01C0C92FA6
:1024F000D23021F4890FC3E0C81B1CC08091520167
:1025000094E0899FD0011124A156BE4F24E0C29FC0
:10251000F0011124E156FE4F0D911D912D913C913A
:1025200040815181628173814017510762077307AF
:1025300008F4C82F1C2F1695D2E0DC1BC11102C075
:1025400001E001C002E0812F0E941B078CE692E0AF
:102550000E9468078D2F0E941B078CE692E00E9464
:102560006807802F0E941B0780E00E947C0781E0A3
:10257000C11180E00E94520382E0811B0E9452033D
:1025800015C08FEA94E00E9468070E9429078CED2D
:1025900094E00E94680787ED94E00E9468070E941B
:1025A0001E0780E49FE106C00E941E07809107017C
:1025B0009091080177B84F9BFECF0E94D1088233DB
:1025C00028F00E94862B8111FCCF12CB811110CBF9
:1025D0008CE00E944C0780912D01882309F408CBE0
:1025E000D0E100E010E080E090E028E2422EFC0123
:1025F000E00FF11FE157FD4FC491C03209F4482E9E
:1026000001968932910599F7DD2339F08D2F8F706E
:10261000B82E51F40E945C0707C080E09DE70E943D
:10262000D108882399F32FC060E08B2D0E943E07CC
:102630000E941E07A895DF5FDF70A12CB12CA414A7
:10264000A0F4F801EA0DFB1DE157FD4FC491CC2326
:10265000D1F0CF3F19F40E941B0303C08C2F0E94BE
:10266000E4069FEFA91AB90AEACFCC2361F0040D62
:10267000111DF801E157FD4FE491E03209F0B3CFAD
:102680000F5F1F4FB0CF80E09DE70E94D108B0CA16
:1026900089EF93E00E94680744E467E483E519CE7C
:1026A0000E9423078CE994E00E9468070E94E203DD
:1026B0000E94760980E090E0CDB7DEB7E2E10C94AD
:1026C0009C36CF93DF93DC019C01261B370BE0E0A7
:1026D00090E0B901690F711D672F7727920F260FC0
:1026E000371FBA016E0F711D672F7727E40FEB01BB
:1026F000CC0FDD1F4C0F5D1F6B3E28F4A217B307F4
:1027000040F7CA0102C080E090E0DF91CF910895C8
:102710000F93BC0180E090E003E020E24DEF0E94C7
:10272000CB070F910895AFE1B0E0E9E9F3E10C9434
:1027300080368E8F6F8F4B83A895E62FF0E0E253A3
:10274000FE4F34913B8B330F3B8F339644914F8B2D
:102750005B81E52FF0E0E253FE4F8490882D880FD7
:102760008983339694919C832E8DE22FF0E0E2537F
:10277000FE4F9490392D330F3C8B3396449149870B
:1027800048604A875F8958605E8385B88B8988294D
:10279000888F84B947B9998598B98F8D0E940804AC
:1027A000988B8F878981882985B9EB89F981EF2BEF
:1027B000ED87E4B98F8D0E9408049C878B872B8955
:1027C00024B98F8D0E9408041C0114B80E94EE03E6
:1027D00015B8388D34B98F8D0E9408048C016F852F
:1027E00078890E9465042C014E8147B988E088B938
:1027F000582D59295F8355B954B98E8D0E9408040C
:102800000E946B043C0115B80E94EE0395B88E8DB2
:102810000E9408040E946B047C0194B88E8D0E9473
:1028200008040E946B046C01B701C3010E94650497
:102830005C010E949B0784E50E94E40684E50E94F7
:10284000E4068F8D0E941B078CE20E94E4068E8DA9
:102850000E941B070E941B030E941D038F859889FD
:1028600057DF8FE60E94E406C10152DF8BE20E942F
:10287000E406C8014DDF8FE60E94E40688E60E9468
:10288000E4068B859C8544DF0E9430070E941D036F
:10289000C7013EDF8FE60E94E406C60139DF8BE206
:1028A0000E94E406C30134DF80E2A81681E0B80686
:1028B00030F490E2491691E0590608F462C792019B
:1028C0002E0D3F1D8F8598898A0D9B1D281739076E
:1028D00048F483E60E94E4068EE40E94E406F88A47
:1028E000EF8616010E949B072091440130916201FE
:1028F000822F90E0830F911D02974CF0213009F058
:1029000040C79091410180915F0198133AC7E981D6
:10291000E929EB872F8538892437310508F421C24E
:10292000C901880F991F44962816390608F019C264
:102930003A8537B9498548B95D8554B98F8D0E946C
:1029400007048C018B810E9409046C01898185B97F
:102950008F8D0E9407047C018F8D0E941B0786E6E5
:102960000E94E4068E8D0E941B070E941B03C70174
:10297000CFDEC801CDDE0E9430078F859889C8DE82
:10298000C101C6DEC801895A9D4F8E159F0508F00A
:10299000E7C088E088B99E8197B9EB85E4B9E5B9CD
:1029A0008B810E9407047C018EE40E94E40685E08E
:1029B00080930F01F8E4EF16FFE0FF0628F082E2B3
:1029C00080930E0184E404C084E280930E018AE4C3
:1029D0000E94E4060E941B0310933A010093390100
:1029E000B601C8010E9470049093400180933F019A
:1029F0009801A0E1B7E20E94D635209109013091FB
:102A00000A0140E050E00E94983530933C01209349
:102A10003B018B8D2981822B84B915B83A8537B952
:102A2000498548B98B810E9409048C018F8D0E94D1
:102A30000704B8010E94700490933E0180933D0109
:102A40000E9437078EE40E94E4068AE60E94E406AC
:102A50000E941B0380910E018F70843009F04FC0DB
:102A600040913B0150913C0160913F0170914001C8
:102A700080913D0190913E0124DE7C01BC0180E00B
:102A800090E003E020E24AEF0E94CB07E114F1045A
:102A900091F1598154B9EF898A85E82BE7B98F8D77
:102AA0000E9407047C0188E087B99701A0E1B7E2A2
:102AB0000E94D63520912E0130912F0140E050E048
:102AC0000E94983529013A01CA01B901882799273E
:102AD00020E24AEF0E94CB07A201B70180913D019D
:102AE00090913E01EEDD7C01BC0180E090E020E2AF
:102AF0004AEF0E94CB07F0923A01E09239018091AF
:102B00000E018F70843041F188E088B9BC809E81CD
:102B1000B92AB7B894B8EF81E5B98E8D0E94080440
:102B20007C010E946B048C018F8D0E940904C0906F
:102B30001001D0901101BC01C7010E9470049601E0
:102B4000DC010E94D635980140E050E00E949835A3
:102B500030933A012093390183E20E94E40608C6CB
:102B600088E088B9FE81F7B92B8524B925B98E8D07
:102B70000E9407048C018B810E9409047C0195B896
:102B80008E8D0E940704895A9D4F8017910708F087
:102B9000F8C5398538B94A8547B98B810E94070441
:102BA0006C0180E50E94E40685E080930F0151ED01
:102BB000C51653E0D50628F482E380930E0184E421
:102BC00004C084E380930E018AE40E94E4060E941C
:102BD0001B03B801C7010E94700490935E018093AB
:102BE0005D01C8010E946B049C01A0E1B7E20E9454
:102BF000D635209110013091110140E050E00E9443
:102C0000983530935A0120935901F8E0DF2ED8B857
:102C10008E8187B989819C89892B84B985B98E8DEC
:102C20000E9409048C018B810E940704B8010E9454
:102C3000700490935C0180935B010E94370780E5EC
:102C40000E94E4068AE40E94E40680910E018F70DF
:102C5000843009F053C04091590150915A0160915C
:102C60005D0170915E0180915B0190915C0129DDB5
:102C70007C01BC0180E090E003E020E24AEF0E948A
:102C8000CB07E114F104B1F1E981E5B9E4B9F985C3
:102C9000F8B9EA852E81E22BE7B98E8D0E940704F0
:102CA0000E946B047C01D7B89C01A0E1B7E20E94AE
:102CB000D635209127013091280140E050E00E9454
:102CC000983529013A01CA01B9018827992720E2DC
:102CD0004AEF0E94CB07A201B70180915B0190915E
:102CE0005C01EFDC7C01BC0180E090E020E24AEF77
:102CF0000E94CB07F0925801E092570180910E019B
:102D00008F70843041F1EC813985E32BE8B9BC80C8
:102D10004A85B42AB7B815B85F8154B98E8D0E9420
:102D200008046C018F8D0E9409048C01E090090158
:102D3000F0900A01BC01C6010E9470049701DC01F9
:102D40000E94D635980140E050E00E9498353093BB
:102D5000580120935701809162018F5F8093620137
:102D6000E8C088E088B98E8187B995B89B8594B909
:102D70008E8D0E9408049A8F898F0E946B046C01CB
:102D80008B810E9409049D838C830E94370780E514
:102D90000E94E406F101EC59FF4FFD8FEC8FB10169
:102DA000C601EC15FD05E8F40E9470048C0188E46E
:102DB0000E94E406209110013091110140E050E0A2
:102DC00060E871EA83E09CE10E949835D8010E9496
:102DD000EB354C815D818A0120E030E0A90198014A
:102DE00024C00E9470048C015F8154B98E8D0E94B2
:102DF00008049A8F898F0E946B046C018B810E945A
:102E000009049D838C838CE40E94E4066C817D819F
:102E1000C8010E9470049C01A4E6B0E00E94D6356F
:102E2000EC81FD819F0140E050E00E94983529012E
:102E30003A0183E60E94E40683E60E94E4060E94CB
:102E40001B0385E60E94E406C60162DC8FE60E9451
:102E5000E406C1015DDC82E60E94E4068C819D816E
:102E600057DC82E40E94E4068DE30E94E40603E05E
:102E700020E24EEFC301B2010E94CB0714B815B88F
:102E8000F985F8B92A8527B90E94EF030E94370710
:102E90008F8D0E941B0785E40E94E4068E8D0E94A0
:102EA0001B070E941B03388D34B98F8D0E940804C4
:102EB0008F359D4008F4ADC15D8554B98F8D0E945A
:102EC00007047C018B810E9409049A8B898B8E8D6B
:102ED0000E9409049E8B8D8B89899A89813D974038
:102EE00008F40EC1F981F5B98F8D0E9407048C0199
:102EF0008115944000F180910F018430E0F480E569
:102F00000E94E40685E50E94E40684E50E94E4064A
:102F10000E941B03C801FCDB8AE080930F016989D2
:102F20007A898D899E890E947004909358018093BC
:102F3000570111E051C584E080930F018DE080932B
:102F40000E010E94370780E50E94E40687012E14D7
:102F50003F0410F40219130988E40E94E40620914A
:102F6000090130910A0140E050E060E871EA83E035
:102F70009CE10E949835D8010E94EB3549895A8915
:102F80008A0120E030E0A90198010E9498354901AA
:102F90005A0183E60E94E40685E60E94E4060E9448
:102FA0001B0383E60E94E406C701B2DB8FE60E94A2
:102FB000E406C101ADDB82E60E94E40689899A89B4
:102FC000A7DB82E40E94E4068DE30E94E40603E0AE
:102FD00020E24EEFC501B4010E94CB07809162014F
:102FE000882369F08091530190915401A09155017B
:102FF000B091560188159905AA05BB0528F5809260
:10300000530190925401A0925501B092560197013C
:10301000A0E1B7E20E94D6352091090130910A0162
:1030200040E050E00E94983530935A0120935901B6
:1030300069897A898D899E890E94700490935801CC
:103040008093570111E001C010E0809153019091ED
:103050005401A0915501B091560184159505A6051E
:10306000B70530F5409253015092540160925501DA
:10307000709256016C817D81898D9A8D0E947004B9
:1030800090935801809357019601A0E1B7E20E9406
:10309000D635209110013091110140E050E00E949E
:1030A0009835205F384D30935A012093590111E033
:1030B00082E40E94E406112309F48EC4C090090141
:1030C000D0900A01E12CF12C9101A0E1B7E20E941D
:1030D000D635A70196010E94983530935C01209364
:1030E0005B012F853889A0E1B7E20E94D635A701A0
:1030F00096010E94983530935E0120935D0119CFAF
:1031000051E62516310408F084C081EDE81687E009
:10311000F80608F47EC085E080930F0182E1809379
:103120000E01C70186509F4FED89FE898E179F07BC
:10313000B0F40E94370780E50E94E40689E40E940B
:10314000E40687E40E94E4060E941B038D899E89A1
:10315000DFDAC701DDDA83E180930E0116C000914A
:10316000090110910A01B7018D899E890E9470049E
:103170009801DC010E94D635970140E050E00E94A2
:1031800098353093580120935701FF89F770BF2E6F
:103190008B81806480937C007BE0D72EEE24E394C7
:1031A000F12C0FEF13E0A89561E0882D55D62D8501
:1031B00024B986B18B21E9F33B8934B980917A0037
:1031C000806480937A0080917A0086FDFCCF8091A4
:1031D000780090917900A801481B590BE40EF51E68
:1031E000DA94D110E0CFC701880F991F880F991F7B
:1031F00069E070E00E94713570935E0160935D013B
:10320000809162018F5F8093620186E40E94E406F0
:1032100090CE0E9437078EE40E94E4065D8554B983
:10322000898185B98F8D0E9408049A8389838B8157
:103230000E9409049D838C830E946B048C01EC8D99
:10324000FD8D29813A81E217F307C0F4B101C9016C
:103250000E9470047C0188E40E94E4062091090128
:1032600030910A0140E050E060E871EA83E09CE1BF
:103270000E949835D7010E94EB3526C0388D34B9AD
:1032800085B88F8D0E9408049A8389838B810E9460
:1032900009049D838C830E946B048C018CE40E9442
:1032A000E40649815A812416350620F4CA018219A0
:1032B000930902C089819A81B8010E9470049C011F
:1032C000A4E6B0E00E94D6356801E12CF12CA701FC
:1032D00096010E94983529013A0183E60E94E4068E
:1032E00083E60E94E4060E941B0385E60E94E40632
:1032F00089819A810DDA8FE60E94E406C10108DA1D
:1033000082E60E94E406C80103DA82E40E94E40631
:103310008DE30E94E40603E020E24EEFC301B20118
:103320000E94CB075E8157B988E088B98F8184B944
:1033300085B98E8D0E9408046C018B810E9409045E
:103340009E878D878F8D0E9409045C0190E3C916CA
:1033500091E1D90608F012C295B88E8D0E9408043A
:103360009A8B898B94B88E8D0E9408047C0115B8C5
:103370000E94EF0395B88E8D0E9408048C010E9474
:10338000370789E70E94E4060E941B03C701C0D9E2
:10339000C801BED9C601BCD9E0E4EE16E6E0FE06DF
:1033A00008F069C00133F1E11F0708F464C0C601E9
:1033B0008A569F4F29893A892817390708F05BC038
:1033C00086E080930F010E9437078F8D0E941B07B4
:1033D00089E50E94E4068E8D0E941B070E941B0354
:1033E000809144018F5F80934401B5018D859E8556
:1033F0000E94700490933A0180933901B501C6018F
:103400000E9470049093400180933F0114B815B856
:103410003F8938B90E94EF0394B88E8D0E9408044A
:10342000853F910508F0ECC24F8144B98B810E9421
:103430000804813D934008F4E3C28E8D0E94090484
:103440008D3D924008F4DCC294B88E8D0E94080431
:103450008D3D924008F4D4C295B80E94EF0315B890
:103460008E8D0E940804853F910508F0C9C287E04F
:1034700080930F01C5C22E8127B984B885B80E94F8
:10348000EF033B8534B935B98E8D0E9408047C0169
:103490000E946B046C018B810E9409049E878D87BA
:1034A0000E946B048C018F8D0E94090498878F8382
:1034B0000E94370782E70E94E40684E70E94E40640
:1034C00080E70E94E4060E941B03C80121D90E3F39
:1034D00049E0140708F4E2C084E080930F018CE017
:1034E00080930E010E9437078EE40E94E406B1012A
:1034F000C6010E9470047C0188E40E94E4062091C9
:1035000010013091110140E050E060E871EA83E081
:103510009CE10E949835D7010E94EB35980140E06C
:1035200050E00E94983549015A0183E60E94E40662
:1035300085E60E94E4060E941B0383E60E94E406DF
:10354000C601E6D88FE60E94E406C101E1D882E612
:103550000E94E406C801DCD882E40E94E4068DE300
:103560000E94E40603E020E24EEFC501B4010E9490
:10357000CB0780914401882369F0809135019091B7
:103580003601A0913701B091380188159905AA0537
:10359000BB0528F58092350190923601A092370143
:1035A000B09238016F8178858D859E850E94700468
:1035B00090933A01809339019601A0E1B7E20E940D
:1035C000D635209110013091110140E050E00E9469
:1035D000983530933C0120933B0111E001C010E08D
:1035E0008091350190913601A0913701B091380159
:1035F00084159505A605B70538F54092350150921A
:103600003601609237017092380169817A818C812C
:103610009D810E94700490933A0180933901298121
:103620003A81A0E1B7E20E94D6352091090130919C
:103630000A0140E050E00E949835205F384D3093F9
:103640003C0120933B0111E082E40E94E406112337
:1036500009F4D7C19101A0E1B7E20E94D6352091CB
:10366000090130910A0140E050E00E949835309302
:103670003E0120933D012F853889A0E1B7E20E94E9
:10368000D635209110013091110140E050E00E94A8
:1036900098353093400120933F01B2C151E6251681
:1036A000310408F06BC089E4C8168DE0D80608F430
:1036B00065C085E080930F0182E080930E018F81C9
:1036C000988586509F4F8E159F0520F483E0809348
:1036D0000E0116C000911001109111016F817885C3
:1036E000C7010E9470049801DC010E94D635960142
:1036F00040E050E00E94983530933A012093390120
:1037000086E40E94E40699859770E92E8B81806497
:1037100080937C005BE0F52E01E010E0A89560E06E
:10372000882D9AD3EB85E4B9E5B986B18E21E9F706
:1037300094B880917A00806480937A0080917A00B6
:1037400086FDFCCF8091780090917900080F191FB9
:10375000FA94F110E3CFC801880F991F880F991FC1
:1037600069E070E00E9471357093400160933F0101
:10377000809144018F5F8093440142C188E087B902
:1037800088B914B815B888E087B9F7EC2F16F1E0BE
:103790003F06A0F40E9430078E8D0E941B0784E430
:1037A0000E94E4068F8D0E941B070E941B03C1012B
:1037B0000E9488138CE30E94E406FFC088B92C891C
:1037C00024B918EC0A853E81032B07B90E94EF0348
:1037D0004E8147B98E8D0E940904429710F0115016
:1037E000A1F75C8954B955B961E0882D35D38E8D28
:1037F0000E940804782E692E8B8D84B915B89A859D
:1038000097B9E985E8B960E0882D26D38F8D0E94AD
:1038100008040E946B047C01FB89F4B98F8D0E941F
:1038200009048C018E8D0E940804B8010E94700466
:103830008C018F8D0E9409046C018E8D0E940804FA
:10384000B6010E9470046C0183E40E94E40683E6E2
:103850000E94E406C8010E948813C6010E948813D2
:10386000C80144968C159D0528F48EE40E94E40658
:1038700084E4A0C088E088B92E8127B994B895B8AF
:1038800061E0882DE9D28F8D0E9409046C018E8D34
:103890000E940804B6010E9470045C010817190711
:1038A00058F43C8934B935B98E8D0E9408046C01F6
:1038B000E72CF62C850110C04B8D44B915B85A85FC
:1038C00057B9898588B960E0882DC6D28F8D0E944E
:1038D00008040E946B046C010E9430078E8D0E94C8
:1038E0001B0784E40E94E4068F8D0E941B070E9440
:1038F0001B0388E60E94E406C7010E9488138CE43B
:103900000E94E406C8010E94881388E40E94E4062D
:10391000C6010E948813083E93E0190730F4C801DD
:1039200064E670E00E94713506C0B80134E0769517
:1039300067953A95E1F7C80187599109893891410E
:10394000E0F5C016D106C8F5C70123E09695879526
:103950002A95E1F7893C910510F088EC90E08E0DF6
:103960009F1D8017910748F56E157F0530F58091F2
:103970000F01833028F483E080930F0184E401C0B9
:1039800084E60E94E40680910D01282F30E0F901C1
:10399000EE57FE4F4E8D40835F8D5683220F331FAF
:1039A000F901E257FE4F1183008391E0980F909345
:1039B0000D018F5C0E94E40603C06F8D8E8D35D0A3
:1039C00088E087B988B914B815B88EE20E94E40679
:1039D0006F96E2E10C949C3680E50E94E4068091AB
:1039E00062018F5F80936201112351F38B81809379
:1039F0005F019F8D90936001EE8DE0936101E0CFB8
:103A000011E08EE40E94E406809144018F5F809370
:103A100044011123A9F2FB81F09341012E8D2093E3
:103A200042013F8D30934301CBCFA0E0B0E0EBE10A
:103A3000FDE10C948236A895462F50E0FA01E2533E
:103A4000FE4F949033969491A82FB0E0FD01E2537D
:103A5000FE4FE4903396F4907091620120914401FE
:103A600030E0270F311D232B09F0F1C1A8952091DB
:103A7000130130911401220F331F220F331F309393
:103A80002601209325012091670130916801220FC2
:103A9000331F220F331F30932401209323012EEB79
:103AA00020932101C0910D01E2E8F1E070E04A0F9E
:103AB0005B1F7C1759F02191A58130E02A0F311D41
:103AC0002417350709F456C07F5FF3CFD62FC82FD0
:103AD00088E088B9E92FE860E7B9E4B8E5B8B8E16B
:103AE000BB2EC12CD12C8D2F0E940804782E692E5C
:103AF0008C2F0E9409048C018C199D0997FF03C02B
:103B0000919581959109039734F0A895BA9468012D
:103B1000B110E9CF2FC0EE0C15B8E4B88C2F0E947D
:103B200008048135910530F5E5B88C2F0E94080412
:103B30006C018F2D886087B9F8B815B894B8A8E1E2
:103B40008A2EA12CB12C8C2F0E940804582E492EAD
:103B50008D2F0E9409047C018A199B0997FF03C0DD
:103B60009195819591090397CCF0A8958A94570176
:103B70008110E9CF80911301909114019093260157
:103B800080932501809167019091680190932401B1
:103B90008093230189E18093210159C1990C94B844
:103BA0008D2F0E9408045C01003C84E4180730F467
:103BB00025E8C21621E0D206E8F605C080EBC8165B
:103BC0008DE4D806B8F624EAE21622E0F20608F000
:103BD0006CC088E9A816B10468F2C6010E946B04A3
:103BE000AC019601A8E9B7EB0E94D6359A0140E0F6
:103BF00050E00E94983529013A01C5010E946B04EA
:103C00009C01A8E9B7EB0E94D635850120E030E0A1
:103C1000A90198010E94983588E7C8168FE0D80658
:103C200080F4D301C201F2E0880F991FAA1FBB1FC5
:103C3000FA95D1F7BC01CD01620F731F841F951F48
:103C400014C088E7A8168FE0B806B0F4DA01C901FD
:103C5000E2E0880F991FAA1FBB1FEA95D1F7BC01AC
:103C6000CD01640D751D861D971D25E030E040E0F7
:103C700050E00E9498350CC0D301C201820F931FFF
:103C8000A41FB51F9C01AD01569547953795279503
:103C9000A4E6B0E00E94EB352B013C012CEA420E79
:103CA0002DE0521E611C711C79C0672D762D061700
:103CB000170708F4B801C52CD42CCE14DF0408F47F
:103CC00067010617170708F48B01A0901001B09048
:103CD0001101C8010E9470049501DC010E94D635D3
:103CE0002B013C01C8010E946B049C0140E050E0A4
:103CF000C301B2010E94983529013A01CE14DF04B4
:103D000008F47601A0900901B0900A01B701C6013C
:103D10000E9470049501DC010E94D6354701A12C58
:103D2000B12CA50194010E94983508378FE018073F
:103D300080F4D301C20162E0880F991FAA1FBB1F44
:103D40006A95D1F7BC01CD01620F731F841F951FC7
:103D500014C088E7E8168FE0F806C0F4DA01C9015C
:103D600032E0880F991FAA1FBB1F3A95D1F7BC01FB
:103D7000CD01640D751D861D971D25E030E040E0E6
:103D800050E00E94983529013A0108C0420E531EA6
:103D9000641E751E769467945794479410910F0192
:103DA000143008F0E7CEC1500C2F0D0F202F30E05B
:103DB000E901C35BDE4F8881220F331F220F331FBF
:103DC000F901E156FE4F8823D9F1C080D180E2800D
:103DD000F380A30192012C193D094E095F0957FF99
:103DE00007C050954095309521953F4F4F4F5F4FFD
:103DF000AAE0B0E00E94EB3524E6C20ED11CE11C23
:103E0000F11CA7019601240D351D461D571D0E946A
:103E10009835232B242B252B09F0ACCE133019F029
:103E200081E080930F0182E0888380916901E82F0F
:103E3000F0E0E05BFE4F00838F5F809369019ACED4
:103E4000408251826282738281E0888393CECDB7B3
:103E5000DEB7E0E10C949E36CF93C82FC09595B1A4
:103E600060FF02C0982B01C09C2395B994B1892BA7
:103E700084B90E94EE0384B18C2384B985B1C82330
:103E8000C5B9CF910895A0E0B0E0E9E4FFE10C945A
:103E900088361AE008E08FE3C82E99E0D92E07B9DA
:103EA00008B915B8C4B880E00E9408047C0181E01C
:103EB0000E940904EC0182E00E9409049C018091A7
:103EC0000F01893081F488E087B914B8F092480175
:103ED000E0924701D0934A01C093490130934C01CD
:103EE00020934B015BC084E0E816F10440F4C43039
:103EF000D10560F42430310530F399E00BC088EE31
:103F0000E81683E0F80610F098E001C099E0C83E9A
:103F1000D34008F49260283E334008F4946097B987
:103F2000C0E0D0E0A89580E00E9406045C0181E03A
:103F30000E9409047C0182E00E94090424E1A21687
:103F400025E0B20608F4389A24E1E21625E0F206EC
:103F500008F4399A843125E0920708F43A9A26E069
:103F6000A216B10430F426E0E216F10410F406972C
:103F700038F02196C43F81E0D807A1F6D0920F0116
:103F8000E12CF12CEC16FD0631F00E94F4032FEF2A
:103F9000E21AF20AF7CF115009F081CFCDB7DEB7A0
:103FA000EAE00C94A436CF92DF92EF92FF92CF9387
:103FB00020916C0130916D0140916E0150916F0123
:103FC000C0917E018AE0C82ED12CE12CF12C8C2FDF
:103FD000CF5F213A96E8390791E04907510538F05B
:103FE000CA01B901A70196010E949835F0CF8093CC
:103FF0007E01A0912501B09126010E94EB3528E8B1
:1040000033E140E050E00E94983520936C013093FA
:104010006D0140936E0150936F01CF91FF90EF902F
:10402000DF90CF900895A0E0B0E0E9E1F0E20C94D9
:104030008236982F990F980F2FEF260F920F90939B
:104040004601E82FF0E0E253FE4F0491262F30E0C6
:10405000F901E253FE4FC491F901EF52FE4F749102
:1040600090910F01913009F47EC240910D0122E838
:1040700031E0D90190E09417B1F016965C91169753
:1040800065130CC05C91851309C0F901E484F584C3
:10409000FCEDEF16F5E0FF0608F465C29F5F119690
:1040A0002E5F3F4FE8CFE62E182F7860F72E109244
:1040B00079011092780181EF80937E0110926C015A
:1040C00010926D0110926E0110926F01DCDE88E09B
:1040D00088B9F7B8C4B9C5B9812F0E9409044C0149
:1040E0008E2D0E940904881A990A14B8C0E0D0E005
:1040F00005B904B90E94EE0314B815B80E94F5037F
:10410000A895812F0E9409045C01A818B908CE3730
:10411000D10528F02BE4A216B1040CF472C05DE2C4
:10412000A51651E0B50634F42196C43F81E0D807C6
:10413000F9F667C0209709F06AC0E5E1AE16E5E040
:10414000BE060CF464C09FDE15B88FE087B988E026
:1041500088B9D02EDD0CD4B880E480937B0084E550
:1041600080BF812F806480937C0087E180937A00F8
:104170000E94F80310928000109285001092840033
:1041800087E286BBD5B880910F01853009F0BEC0AB
:1041900081E08093810081E090E0012E01C0880FD2
:1041A0000A94EAF780958F7087B991E086B385FF0E
:1041B000B2C01092810090E296BBC0908600D09071
:1041C00087002091840030918500C216D30608F440
:1041D000ADC087E980937A0014B815B8812F0E948A
:1041E00009042091290130912A01821B930B0C961E
:1041F0009093810180938001C03486E0D80708F451
:104200009BC088E087B988B914B815B8ACC1C12C77
:10421000D12C0E94EF03812F0E940904A895FFEF83
:10422000CF1ADF0ACC15DD05A0F7881999096501B9
:10423000C81AD90A1C141D0494F429ECC216D1041E
:1042400004F728EE33E0D6010E94E53595010B2CEA
:10425000000C440B550B0E949835490102C0812C7B
:10426000912C2196CE01A0E0B0E080937401909350
:104270007501A0937601B0937701C5018C0D9D1D4A
:104280000E94D10420917401309175014091760112
:1042900050917701DC010E94EB35609374017093BB
:1042A0007501809376019093770160936C01709310
:1042B0006D0180936E0190936F0187EF80937E0173
:1042C00072DE40906C0150906D0160906E017090B4
:1042D0006F0185E090E00E941337A8EEB3E0A81BC1
:1042E000B10987FDB395A30192010E94F53524E63B
:1042F00030E040E050E00E94983520936C0130930C
:104300006D0140936E0150936F01E8C081E080938E
:104310008100F7B84ACF80FF49CF96BBA895219678
:10432000C0385CE0D50709F041CF43CF80FF51CFC3
:1043300081E086BB21964DCFD0937701C093760163
:10434000D0927501C092740184EF80937E01C234D3
:10435000D105C8F06091740170917501809176016A
:104360009091770124E630E040E050E00E949835DB
:104370002093740130937501409376015093770137
:1043800086EF80937E01A0916A01B0916B0120912C
:1043900074013091750140917601509177010E942E
:1043A000EB3520E436E040E050E00E949835209361
:1043B00074013093750140937601509377012093F7
:1043C0006C0130936D0140936E0150936F01EBDDF2
:1043D00080917E01843F09F071C080906C019090C3
:1043E0006D01A0906E01B0906F01E0EA8E16EFE0D3
:1043F0009E06A104B104C0F4A50194012C543F4FC2
:104400004F4F5F4F60EA7FE080E090E00E94983578
:10441000820E931EA41EB51E80926C0190926D01B7
:10442000A0926E01B0926F0180906C0190906D012E
:10443000A0906E01B0906F0181149104F1E0AF067D
:10444000B10428F49092B0018092AF0106C081E0DF
:1044500090E09093B0018093AF018091460190E08D
:104460008E5D9F4F0E94133790E0A0E0B0E0B50151
:10447000A40188159905AA05BB0568F4481B590BCA
:104480006A0B7B0B40936C0150936D0160936E013E
:1044900070936F0113C04C5E5F4F6F4F7F4F481793
:1044A00059076A077B0710F40E94610D10926C0196
:1044B00010926D0110926E0110926F0104B98091FB
:1044C0006C0190916D01A0916E01B0916F014997BF
:1044D000A105B10508F495CE812C912C80910D0198
:1044E000882329F080910F01853009F08ACE88E079
:1044F00080930F0180917E0190917F019817C4F005
:1045000089137FCE40906C0150906D0160906E01D8
:1045100070906F0140917001509171016091720132
:1045200070917301441555056605770508F069CE4D
:1045300040916C0150916D0160916E0170916F011D
:1045400040937001509371016093720170937301F5
:1045500080937F0190927B0180927A01E0927C01AE
:1045600010937D014ECECDB7DEB7E0E10C949E36C0
:10457000A0E0B0E0EEEBF2E20C94863688E893E13E
:104580009093140180931301909326018093250149
:104590008EEB80932101C8E0C8B988E187B90E94F9
:1045A000FD03C7B984E00E940804AC018B5C98400D
:1045B000833F9140A0F481E0809330012091250158
:1045C00030912601AFEBB9E00E94D6359A0140E068
:1045D00050E00E949835309314012093130180918C
:1045E00013019091140190932601809325018EE090
:1045F0000E9409048EE00E94080490932A0180938F
:1046000029010E9479043FDC88E0F82EF8B8C9E05F
:10461000C7B985E185B9D1E0D4B980E00E9408042A
:104620008C019AE0D92ED7B824E0B22EB4B881E03C
:104630000E940804080F191F3CE0E32EE7B840E190
:10464000C42EC4B882E00E940804080F191F15B8D0
:10465000C8B9C7B9D4B980E00E9408040E946B04AD
:10466000EC01D8B8D7B8B4B881E00E9408040E9421
:104670006B04C80FD91FE8B8E7B8C4B882E00E943D
:1046800008040E946B04C80FD91FF7B8F8B814B813
:1046900020912501309126016901CC0CDD1CC20E50
:1046A000D31EC01AD10ACC1ADD0AE12CF12C9801D4
:1046B000A0E9BAE10E94D635A70196010E9498357B
:1046C00049015A0130932F0120932E019E01A0E948
:1046D000BAE10E94D635A70196010E949835309321
:1046E0002801209327012057354E30931101209344
:1046F000100180E7881A85EE980A90920A0180924C
:10470000090189E180932101CDB7DEB7ECE00C947B
:10471000A236CF92DF92EF92FF920F93CF93DF9367
:10472000F82EC62FD42F0E941B078CE692E00E9421
:104730006807CBD16C2F8F2D0E948F33C090B301AF
:10474000D090B401E090B501F090B60180911501D0
:1047500087FD05C0C114D104E104F10421F088E60D
:1047600092E00E9468078C2F0E941B07C114D1049D
:10477000E104F10431F00E941B03809150010E947A
:104780005203DD2351F080913101853230F490E005
:1047900086549A4F0E94680702C00E94760780E004
:1047A0000E949407CD28CE28CF28D9F06091B3017C
:1047B0007091B4018091B5019091B60103E028E4B5
:1047C00047EF0E94CB078BE792E00E9468078CE2DC
:1047D00090E00E941B3723E046E464EF0E94B20899
:1047E0001AC0809150010E945203809115018E3FA2
:1047F00094F484EA93E00E94680760919A017091B2
:104800009B0180919C0190919D0103E028E44091DF
:1048100015010E94CB078091AB019091AC01A09152
:10482000AD01B091AE01892B8A2B8B2BF1F080E08A
:104830000E9494076091AB017091AC018091AD0131
:104840009091AE0104E028E440E00E94CB0786E7A7
:1048500092E00E94680723E040E26FEF8091B1018F
:104860009091B2010E94B20807C080E00E947C07CC
:1048700080913401811102C00E947607DF91CF91AF
:104880000F91FF90EF90DF90CF90089584EE91E02C
:1048900087D76AE080E00E943E0784EC95E00E94A2
:1048A00068070E94530960E082E0BFD862E080E0C0
:1048B000BCD80E94230780916901882329F041E038
:1048C00062E080E026DF12C084EE91E00E9468077B
:1048D00084EC95E00E9468070E9429078FE30E94FC
:1048E000E40680E00E947C070E94760788EE93E051
:1048F0000E94D1088823A9F20C945C070895EF92D6
:10490000FF920F931F93CF93DF93182F0E942307DB
:1049100080917C010E941B0780EC93E00E94680755
:104920000DD360917C0180917D010E942405EC01F2
:104930009093790180937801E0907A01F0907B0167
:10494000CA3F8FEFD80720F48DE692E00E946807F7
:1049500080917D010E941B07112359F09091310134
:1049600085E2891B0E94D20689ED91E00E946807CA
:1049700002C00E9476070E94290760917001709121
:104980007101809172019091730104E026E44091DD
:104990007F010E94CB07CA3FDF4F68F48FEA93E0A4
:1049A0000E94680722E044EF6EEF809178019091B9
:1049B00079010E94B2080E9476070E943007E11434
:1049C000F10469F088EA93E00E94680722E045E27A
:1049D0006FEF80917A0190917B010E94B2080E9452
:1049E0007607CDB7DEB7E6E00C94A8361F93CF93D9
:1049F000DF93C8E0D2EF15E20E94530960E082E045
:104A000012DBC0930F0180917E01843FE1F480911D
:104A10006C0190916D01A0916E01B0916F0184368F
:104A20009105A105B10578F440E060E082E00E94C4
:104A3000483160936C0170936D0180936E01909387
:104A40006F01D0937E0180917E01823FACF0809314
:104A50007F0180916C0190916D01A0916E01B091E8
:104A60006F018093700190937101A0937201B093D4
:104A7000730181E044DF1CC00E9423078DED91E0AB
:104A80000E94680780913101912F981B892F0E9405
:104A9000D20689ED91E00E9468070E9429078FE302
:104AA0000E94E4060E9476070E9430070E94760763
:104AB00088EE93E00E94D108882309F49DCF0E94DC
:104AC0005C07DF91CF911F910895A4E1B0E0EBE680
:104AD000F5E20C94803682E08093150180910F01FD
:104AE000813009F027C280916901813009F022C22A
:104AF0000091500124E0029FF0011124E156FE4F85
:104B000080819181A281B381893032E59307A1052B
:104B1000B10508F00FC24C0110E0802F123028F4CC
:104B20000E944803582E492E03C00E9448032C01BE
:104B3000E42DF0E0EF52FE4F2490852D90E0FC0133
:104B4000E253FE4FE49115B828E028B930EF831600
:104B50009104B8F410FD15C0A0900901B0900A01AD
:104B600020E9A21A2AE1B20A21E030E0052C02C0B5
:104B7000220F331F0A94E2F7C9018860822987B99E
:104B800008C0E4B9822D886087B9A0900901B0906F
:104B90000A01F4E13F2E852D0E9407043C01842D7B
:104BA0000E94090434E06316710410F4049718F0AD
:104BB0003A943110F0CF80E480937B0094E590BF6D
:104BC000852D806480937C0027E120937A00E12C7E
:104BD000F12C10928000109285001092840087E2E0
:104BE00086BB0E94F803312F3170332E10FD05C0B3
:104BF00081E88093810028B808C028B80E94010489
:104C000080E286BB81E88093810086B385FF13C074
:104C100098E098B91092810020E226BB209186008E
:104C200030918700690140918400509185002417DC
:104C3000350770F014C080FFE8CF31E036BBA8958F
:104C400097012F5F3F4F7901203A3105F1F6E0CF10
:104C500080FF05C081E086BB9FEFE91AF90A87E96A
:104C600080937A00E4E12E2E852D0E9407043C01FA
:104C7000842D0E94090424E06216710410F4049744
:104C800018F02A942110F0CF40902E0150902F015F
:104C9000480C591C4A0C5B1C20910B0130910C01F3
:104CA00080E9A8168AE1B806B0F491EEC916D104DD
:104CB000E104F10438F4C60165E070E00E9471354A
:104CC000645101C069E128523109261B310967FD91
:104CD000339586E009C0C20168E57BE10E94713529
:104CE00087E0860F285D3F4F90E0A0E0B0E08C1594
:104CF0009D05AE05BF0528F4C81AD90AEA0AFB0AC1
:104D000003C0C12CD12C7601332029F08AE3C80ED0
:104D1000D11CE11CF11C90EAE916F10418F0C12C39
:104D2000D12C76018BE0C816D104E104F10428F0FF
:104D300091E0C91AD108E108F1084091250150918C
:104D40002601612C712CA8EEB3E00E94D635698B48
:104D50007A8B8B8B9C8B9501DA010E94D635A3014F
:104D600092010E9498354427552769897A898B8951
:104D70009C890E949835C9010E940005FC01A3018D
:104D80009201C701B6010E9456352B013C01CF01AB
:104D9000A0E0B0E074E0880F991FAA1FBB1F7A95AE
:104DA000D1F7BC01CD016B5F7F4F8F4F9F4F2AE042
:104DB00030E040E050E00E94983544275527C30179
:104DC000B2010E949835E12FF0E0A1E0B0E0AC0F15
:104DD000BD1F84E0189FA00DB11D11242D933D939C
:104DE0004D935C931397311016C094E1C916D1040A
:104DF000E104F10480F03196EE0FFF1FEE0FFF1F6C
:104E000081E090E08C0F9D1FE80FF91F2083318314
:104E1000428353831F5FA8951F5F143008F47DCE33
:104E200088E088B90E94ED0391E00D811E812F81F9
:104E3000388549815A816B817C814017510762070F
:104E4000730708F090E00D851E852F853889498508
:104E50005A856B857C85401751076207730710F4EC
:104E600083E001C082E0E92FF0E0EE0FFF1FEE0FBC
:104E7000FF1F21E030E02C0F3D1FE20FF31FD9018F
:104E800034E0839FA00DB11D11240D911D912D9132
:104E90003C91408151816281738104171507260777
:104EA000370708F0892FE1E0F0E0EC0FFD1F94E0F8
:104EB000899FE00DF11D1124408151816281738130
:104EC00040939A0150939B0160939C0170939D01C4
:104ED00080FD08C020EF8216910420F48BEF8093B0
:104EE000150117C08CEF80931501CB01BA016B5FE0
:104EF0007F4F8F4F9F4F2AE030E040E050E00E940C
:104F0000983520939A0130939B0140939C015093D4
:104F10009D0180919A0190919B01A0919C01B0917B
:104F20009D01892B8A2B8B2B11F41092150188E09F
:104F300087B914B86496E2E10C949C36A0E0B0E026
:104F4000E4EAF7E20C94863680917A0190917B0135
:104F5000892B09F09EC0E0917C01F0E0EF52FE4FFA
:104F6000D491D860E0917D01F0E0E253FE4FC4910E
:104F70000E94431F88E088B915B8D7B9C4B9809199
:104F80007D010E9409048C01D0917F018CE08D0F7E
:104F9000843008F07EC08091700190917101A091E1
:104FA0007201B0917301D15F2AE0822E912CA12C65
:104FB000B12CBC01CD016B5F7F4F8F4F9F4FA5017F
:104FC00094010E94983569017A01DA01C901DF5F15
:104FD000D73079F729E8C21623E1D206E104F104BB
:104FE00008F057C0059708F454C0C5B9C4B9C0E06B
:104FF000D0E0CC15DD0520F40E94FF032296F9CF06
:1050000014B815B8A89585E08093210180917D01A1
:105010000E9409040817190720F4EC01C01BD10BEA
:1050200002C0C0E0D0E0A12CB12CAC14BD0430F41F
:105030000E94FF038FEFA81AB80AF7CF80917D0175
:105040000E94090429E120932101A8950817190756
:1050500018F4801B910B02C080E090E08C179D0734
:1050600088F49E01281B390B69F0A4EFB1E00E947F
:10507000D6359E0140E050E00E94983530937B0188
:1050800020937A010E94431F88E087B988B914B839
:1050900015B8CDB7DEB7ECE00C94A2368B3008F033
:1050A0008B50811103C08DE594E031C0823019F43A
:1050B0008AE094E02CC0813019F481E094E027C0AC
:1050C000833019F487E494E022C0843019F48CE32F
:1050D00094E01DC0853019F48FEE91E018C0863041
:1050E00019F484EE91E013C0873019F48DED91E04E
:1050F0000EC0883019F48BE294E009C0893019F4AD
:1051000082E294E004C08A3021F483E594E00E94B6
:1051100068070E9476070C941E0708950F938FEE80
:1051200091E03ED310920F0160E082E09AD5809129
:105130000F018830C9F50E94290783E40E94E40624
:105140000E941F0360917001709171018091720142
:105150009091730103E026E440917F010E94CB0708
:105160000E94760760917C0180917D010E94240558
:1051700090937901809378010E94300780EB93E04F
:105180000E94680780917801909179018A3F2FEF02
:10519000920730F422E044EF6EEF0E94B20808C09C
:1051A0008FE30E94E40604C00E949B070E94300720
:1051B0000E94760788EE93E00E94D108882309F4C4
:1051C000B1CF0F910895A0E0B0E0E9EEF8E20C94C1
:1051D000803687E494E0E4D280E1809380001092EE
:1051E0006F0081E090E09093890080938800109296
:1051F0008B0010928A0083E086BB1092820088E0C8
:105200008093810015B891E194B988B989E087B994
:10521000229A80938100BAE03B2EC1E0812C912C30
:1052200054018394D1E1D23110F1C701B601A50137
:1052300094010E9498356B017C018C2F632D0E9494
:105240006535A92FB0E0A50194010E94EB35C60E8B
:10525000D71EE81EF91E17C0D63108F4E3C0FAE0E5
:105260003F2EC1E0812C912C54018394D1E18C2FED
:10527000632D0E946535A92FB0E0A50194010E941D
:10528000EB356B017C010E942907C31108C081E046
:10529000D23108F480E0282E811106C001C0212CF3
:1052A000D63120F082E503C08CE301C08EE30E947A
:1052B000E4060E941B034D2FC701B6010E94C708D8
:1052C000C701B6017C5D8B409F4FA7019601220F5D
:1052D000331F441F551F0E949835CA014F3F510587
:1052E00039F030F08DE08093810080E094E01FC0C1
:1052F0004034510530F08CE08093810080E091E0F3
:1053000016C04830510530F09BE09093810080E456
:1053100090E00DC0892B31F08AE08093810088E015
:1053200090E005C099E09093810081E090E02C012D
:10533000612C712CCA01B901A30192010E94983518
:105340002150310930938900209388008091880092
:1053500090918900892B31F421E030E0309389006D
:10536000209388000E9476070E94300786E60E94FC
:10537000E4060E941B03009188001091890060E000
:1053800072E18AE790E0A30192010E949835A4E6B9
:10539000B0E00E94EB3598012F5F3F4F40E050E0B6
:1053A0000E94983529013A01A4E6B0E0A7019601D0
:1053B0000E94EB35A3019201261B370B480B590BBA
:1053C000CA01B90105E228E44EEF0E94CB078AE743
:1053D0000E94E4060E94760780ED97E00E94D108C3
:1053E000883CE0F5813568F1222009F435CFD150B1
:1053F000C501B4012AE030E040E050E00E94983559
:1054000049015A01C701B6010E949835CA01B90184
:105410002AE030E040E050E00E949835C62F9AE044
:10542000392E01CFDF5FD63111F485E1382EAAE0A5
:10543000B0E0A50194010E94EB354B015C01C0E096
:10544000F2CE8B3008F0CF5F8C2F90E0632D70E0B0
:105450006F5F7F4F0E948535C82FE5CE1092810087
:105460001092800088E087B914B82298CDB7DEB7D3
:10547000E2E10C949C364F925F926F927F928F92F2
:105480009F92AF92BF92CF92DF92EF92FF92CF9313
:10549000DF938CE394E084D183E2809380001092C8
:1054A0006F008FEF90E090938B0080938A0083E0F1
:1054B00086BB1092820015B881E184B988E088B972
:1054C00089E087B9229A21E030E030938900209367
:1054D000880080938100C0E082E3D0E094E6C92E8A
:1054E000D12CE12CF12C88248A9423E0922EA12C3B
:1054F000B12C8C17B9F1843618F0CCE9C80F01C073
:10550000C82F2C2F30E0AFEFB3E00E94D6356E5C91
:105510007F4F8F4F9F4FA70196010E949835290119
:105520003A0130938B0020938A000E942907A8EE4D
:10553000B3E0A30192010E94EB3561507E4F8F4F83
:105540009F4FA50194010E949835DA01C90125E019
:1055500045E26FEF0E94B2080E947607D93210F040
:105560000E94E70380E496E00E94D108D82F833898
:1055700058F4833310F08AE005C0811102C08C2FEB
:10558000B8CF81E08C0FB5CF88E087B91092810049
:105590001092800014B82298DF91CF91FF90EF9085
:1055A000DF90CF90BF90AF909F908F907F906F9043
:1055B0005F904F9008950F931F93CF938BE294E0E9
:1055C000EFD085E090E00E941337C82F0E94290792
:1055D0000C2F0C2E000C110BC7FF0AC00E941D03DC
:1055E00023E045E26FEF88279927801B910B04C0C9
:1055F00023E045E26FEFC8010E94B2080E947607DF
:1056000080E496E00E94D108823878F4882329F05B
:10561000893210F0CF5F01C0C150C13514F0C556BA
:10562000D5CFCC3E9CF6CB59D1CF6C2F85E090E006
:105630000E942037CF911F910F9108950F931F93D0
:10564000CF9381E094E0ACD084E090E00E941337E7
:10565000C82F01E010E00E94290723E040E260E04B
:10566000C8010C2E02C0880F991F0A94E2F70E940D
:10567000B2080E94760780E496E00E94D108823842
:1056800078F4882329F0893210F0CF5F01C0C1502F
:10569000C13810F0C9E0DFCFCA30E8F2C0E0DBCF9C
:1056A0006C2F84E090E00E942037CF911F910F91E2
:1056B0000895813011F4C2CF0895823019F480E04A
:1056C00083C00895833011F47ECD0895843011F4A1
:1056D000D2CE0895853011F421CD0895863011F48D
:1056E000D5C80895873021F40E945C077FC90895CA
:1056F000883011F460CF0895893021F481E10C9451
:10570000D00908958A3009F46BC408950F931F934C
:10571000CF93DF9388E694E043D0C0E00E941E0759
:10572000D8E28DE30E94D903D150D9F788E694E0FE
:1057300037D0D9E0DC0F10E001E0010F60E0802FEE
:105740000E943E07123021F48EE30E94E40602C05C
:105750000E941B03DB3018F085EF8D0F01C08D2FE9
:105760009DDC102FDF5F053039F780E090E00E946C
:10577000D108823358F0CC2369F08C2F9ADF88E669
:1057800094E00ED0CB3050F2CB50C8CF8823D1F369
:10579000CF5FF8CF80E0DF91CF911F910F910895F7
:1057A000CF93DF93EC010E945C07CE010E94680753
:1057B000C4E60E94EE034F9902C0C150D1F70E9487
:1057C0002907DF91CF910895A8E0B0E0EAEEFBE26F
:1057D0000C9480368AE094E0E3DF84E090E00E945D
:1057E000133721E030E002C0220F331F8A95E2F721
:1057F0003D832C832130310559F06FE080E00E9419
:105800003E078FE20E94E4068C819D810E94100376
:1058100030EF3B8354980E94F40314BC16BC1092E2
:10582000030110920401109205011092060161E03B
:1058300065BB60936E001092800085E294EF9093B8
:105840008B0080938A00E1E0F0E0F0938900E09320
:105850008800109285001092840083B5816083BD1A
:10586000F6E0F6BBF0936F00789424E0209381007B
:1058700032E339831A820E94ED03A8954F9902C042
:1058800061E06A8385B5811137C015BC86B5809308
:1058900003010E9430070E9476070E9437070E948A
:1058A00076070E949B0786E60E94E4060E941F037B
:1058B00084E090E00E941337E1E0F0E002C0EE0FD8
:1058C000FF1F8A95E2F7FF83EE8320910301309159
:1058D00004014091050150910601DF010E94EB3562
:1058E00047E00E94C708549880918100882351F0B6
:1058F0008FE30E94E40606C0F981F150F983F111AB
:10590000BACFC3CF1092810010926F002091030193
:10591000309104014091050150910601DA01C9015D
:105920000197A109B1098336934CA105B10508F08F
:1059300010C1AAE0B0E00E94EB35DC01CB0140963B
:10594000A11DB11D24E0B695A795979587952A9539
:10595000D1F7BC01660F771F7093640160936301F8
:1059600054980E94F40316BC109203011092040193
:10597000109205011092060181E085BB80936E00B4
:10598000109266011092650194E09BBB80916800C3
:10599000846080936800789480916D00806180932A
:1059A0006D0019820E94ED03A8954F9902C0E1E0B5
:1059B000EA8380916D0084FF05C0F981FF5FF98360
:1059C000FA3F81F715BC80916D008F7E80936D004A
:1059D000809168008B7F8093680086B58093030177
:1059E0000E94300784E50E94E4060E941F03609134
:1059F00003017091040180910501909106012091AD
:105A00006301309164013D832C8324ED30E340E059
:105A100050E00E94FB35EC81FD815F01C12CD12C4F
:105A2000E12CF12C00E010E00E942436EE81FF8191
:105A3000612C712C43015F010E9424364901488783
:105A40005E831B012C012C813D812038310530F013
:105A500007E023E745EFB401888517C084E6A82E48
:105A6000B12CC12CD12CE12CF12C00E010E09401E0
:105A700048855E81C2010E942436F22FE42F07E0A0
:105A800023E747EF6F2F732F8E2F952F0E94CB07A1
:105A900039813A3F21F48FE30E94E4065AC0940111
:105AA00048855E81B101C201263E354B4105510555
:105AB000610571058105910509F008F44AC00E944D
:105AC000370786E60E94E4060E941F03940148857A
:105AD0005E81B101C20154012115FAEC3F07FAE9D8
