:1000000061C6000071C600006FC600006DC600002A
:100010006BC600000C94A33467C600000C94591002
:1000200063C6000061C600000C9494280C948734C9
:100030000C9495340C946E2857C6000055C60000E9
:100040000C94613451C600004FC600004DC600003C
:100050004BC600000C945A1047C6000045C600006D
:1000600043C6000041C60000ED0CEF0CF30CF70C8A
:10007000F70CF90C030D030D050D050D050D050D10
:10008000050D050D050D050D050D050D050D050DE0
:10009000050D050D050D050D050D050D050D050DD0
:1000A000FD0CFB0CE62FF72F903009F49395E5B883
:1000B000C4B8B6EFB0937A00A5E0A0937B00A8E0A7
:1000C000A093810010928000AFEFA0938500A093D1
:1000D0008400A6E0A093360010928B0010928A0054
:1000E000B3E0AFE3A91B51E0392F33302AF0A05C15
:1000F000BC4F53953350F9CFB0938900A09388003B
:10010000A0917A00A4FFFCCFB6EBB0937A00A2E0F6
:10011000A0936F00A9E0A093810062E0A0E0A0930B
:100120007B00A1E0A09353008895E5B8C4B884FF94
:100130001AC0A8E10000AA95F1F7EF93FF93E7B189
:10014000F8B1A4E0C2FCA2E0C0FCA1E0BF2FBA2B32
:10015000AE2BB8B904B9A7B9E7B9F8B9FF91EF91D7
:100160000BC00C949100ACE100000000AA95F1F7DF
:1001700025B9E5B8000004B9A0918400A0918500DC
:10018000B0918900A395AB1760F7A0917A00A4FF06
:10019000F3CFB6EBB0937A006A9571F7609178006F
:1001A00070917900308186FD630F6193308186FD07
:1001B000731F80FF7193652F4A9579F710926F0036
:1001C00010928100B6E0B0937A0008950402FB011A
:1001D000F20118000720080808F80000002060A0BD
:1001E0003FA06020020202FF0202021010101F0056
:1001F00000000708FFDBBDB5B5CBFF0708FFBB9DBF
:10020000ADADB3FF0708FFFFF7FB81FFFF1010053F
:1002100008F878385888091003081C3E7F0D080735
:1002200010FF818181F1E1C1FF4040404743410D12
:10023000080110FFFF11080310F1E1C14743410E0F
:100240000008202121122060E0E0E0FEFE0402010F
:100250000001037F7F21C2C4C4C04094840007030F
:100260000102040E080210FEFE7F7F000000001154
:100270000005202060E0E0E00201000103C2C4C4E8
:10028000C0400703010204010410090A0C4E6F74F8
:100290002063616C696272617465642120466F72CB
:1002A000FF63616C6962726174696F6E20636C6177
:1002B0006D70207468652033FF70696E7320746FF1
:1002C00067657468657220616E642073746172740E
:1002D000207769746820746865FF6B65792E20410A
:1002E000636B6E6F776C65646765207468652073F7
:1002F000656C662D74657374207769746820746802
:1003000065206B65792077697468696EFF32732E9A
:1003100020446973636F6E6E6563742070696E73D9
:1003200020616674657220746865FF6D6573736122
:100330006765202269736F6C617465FF50726F622C
:100340006521222069732073686F776E2E20536FAA
:1003500066747761726520616E6420646F63756D89
:10036000656E746174696F6E2069732061742067B3
:1003700069746875622E636F6D2FFE6D696B726FA5
:10038000636F6E74726F6C6C6572FE2D6E65742F88
:100390007472616E736973746F72FE7465737465E1
:1003A000722000B903870358032E030703E402C336
:1003B00002A40288020000140029003E00530069D4
:1003C0000080009700AE00C600DF00F80012012D8B
:1003D00001490165018201A001BE01DE01FF012189
:1003E00002440268028E02B502DE0209033503648C
:1003F000039403C803FE0337047304B404F90443ED
:10040000059305EA054906B3062907AE074808FF24
:1004100008DE09FD0A930C480F991B00000000003C
:1004200000000000000000000000001E2121211239
:1004300000807F0000007E4A4A4A3400000000002D
:1004400000FC40201008040201000000010101012D
:100450000101010101010101017F0488D0E0F0F8F0
:10046000000000000000000000000000000000008C
:100470000000FC94948400000102FC0000000000D5
:10048000000000000000001E21212112E0C0804079
:1004900020100F000000C020202040000000FC00C1
:1004A000009E9E0403030303020000002020232477
:1004B0002525232020203F00007B7B2142840480CF
:1004C000C00000000000000000000000000000FC70
:1004D00094948400040607070708F0000000000059
:1004E0000000000000000000803F2121120C0000ED
:1004F0000000FF000000F0084848C80000FE0000AF
:10050000E7818181C1E1F1818181010020202021E9
:1005100021212020203F0000F3404040414347403C
:10052000407FC0000000000000000000000000004C
:1005300000489494946400000000FF000000000054
:1005400000000000000000000000003F2121120C0C
:100550000000FF000000F0084848D0000000000044
:1005600000FEFE040404040404040700080808094B
:10057000090908087F3E1C08087F7F2020202020D2
:100580002020E0000000000000000000000000004B
:1005900000000048949494640000FF0000000000F4
:1005A000000000000000FF003C0A090A3C00223164
:1005B000292926000082868E9EBEFEFEBEDEEFF654
:1005C000FAFEFEFAF2E2C282000000080808040205
:1005D0007984A4A46800FF0000000000000000006F
:1005E0000000000000000000000000000000FF000C
:1005F00000F0282428F0001008FC00000000000093
:100600000000000000003C0A090A3C00FF00000056
:1006100000000000000000000000000000000004D6
:100620000C1C3C7CFF7C3C1C0C0400000000000007
:100630009EA1A9A99A804323130B0703FF03030379
:1006400003030300000000000000000000007884A5
:1006500084844800FF000000000000000000F00853
:1006600004E2110909090909090909091121C2044A
:100670000810E00000000102040407000000000070
:10068000804020108844231008040300000000006C
:10069000000000000000FE0100FC0201000000005C
:1006A0000000000000000000000000000000794988
:1006B000497900000000000000000000F8FC024240
:1006C000BC18101F0F00040703F0F80C0C0CF8F016
:1006D0000C0D0F000F0D0C00F0F00000F0F0101FDB
:1006E0000F0204030700183C66663C180000000077
:1006F00000000000000000000000000000000000FA
:100700000000001EFFFF1E000000000C0C00000097
:10071000160E0000160E0000000000000010FCFC89
:1007200010FCFC1001070701070701387C44FE4458
:100730008C18060E081F080F07181880C0603018A4
:10074000060301000006068CDE7262D21E8C0307CF
:100750000C0C0603020000002C1C0000000000002E
:100760000000000000E0F80C0600000001070C1873
:10077000000000060CF8E0000000180C0701004023
:1007800050F0E0E0F0500001010000010100C0C0A5
:10079000F0F0C0C0000000030300000000000000F3
:1007A00000000000101E0E0000C0C0C0C0C0C0C0CD
:1007B0000000000000000000000000000000000039
:1007C000000C0C0000000080C0603018060301001F
:1007D000000000F8FC864226FCF803070C080C0712
:1007E0000330180CFEFE00000000000F0F00000C8C
:1007F0000E82C2623E1C0E0F0908080C0C04064251
:100800004242FEBC040C0808080F07C0E0B098FC88
:10081000FE80000000000F0F003E3E222222E2C2B6
:10082000040C0808080F07F8FC262222E2C0070F74
:100830000808080F07060682C2623E1E00000F0F5E
:10084000000000DCFE222222FEDC070F0808080F51
:10085000073C7E424242FEFC000808080C070300E9
:10086000000030300000000000060600000000001C
:1008700030300000000010160E00000040E0B018FC
:100880000C040000000103060400909090909090EA
:100890000000000000000000040C18B0E04000045C
:1008A0000603010000000C0EC2E23E1C0000000D19
:1008B0000D0000F80462929294F8030408080800FE
:1008C00000F8FC848284FCF80F0F0000000F0FFE7C
:1008D000FE424242FEBC0F0F0808080F07F8FC0654
:1008E0000202060C03070C08080C06FEFE020206B4
:1008F000FCF80F0F08080C0703FEFE4242420202FA
:100900000F0F0808080808FEFE42424202020F0FBD
:100910000000000000F8FC060282868C03070C0829
:1009200008070FFEFE404040FEFE0F0F0000000FC4
:100930000F000002FEFE02000000080F0F0800007A
:10094000000000FEFE00060E08080F0700FEFEB0C5
:10095000180C06020F0F0103060C08FEFE00000033
:1009600000000F0F0808080808FEFC30C030FCFE2D
:100970000F0F0001000F0FFEFE38E080FEFE0F0F8C
:100980000000010F0FF8FC060206FCF803070C0834
:100990000C0703FEFE4242427E3C0F0F00000000A7
:1009A00000F8FC060206FCF803070C090A050BFE1A
:1009B000FE828282FE7C0F0F0103060C081C3E2281
:1009C0006242C28406080808080F07000606FEFEF9
:1009D00006060000000F0F0000FEFE000000FEFEF5
:1009E000070F0808080F07FEFE000000FEFE0103C7
:1009F000060C060301FEFE00C000FEFE03070C030A
:100A00000C0703061EF8E0F81E060C0F0300030F88
:100A10000C003E7EC0C07E3E0000000F0F000002B2
:100A200082C262321E0E0F0F08080808080000FE7E
:100A3000FE02020000000F0F0808001C3870E0C022
:100A400080000000000001030700000202FEFE001B
:100A5000000008080F0F000406030103060400004D
:100A60000000000000000000000000001010101046
:100A70001010100000001C2C0000000000000000FE
:100A80000000909090B0E0C0070F0808040F0FFE20
:100A9000FE402020E0C00F0F0808080F07C0E0301C
:100AA0001010302003070C08080C06C0E02020407E
:100AB000FEFE070F0808040F0FC0E0B090B0E0C0C2
:100AC00003070C08080C0420FCFE22260C00000F73
:100AD0000F00000000E0F0101020F0F0091B1212CF
:100AE0001A1F0FFEFE402020E0C00F0F0000000F75
:100AF0000F000010F6F600000000000F0F000000CD
:100B000000000000F6F6000C1C10101F0FFEFEC0C7
:100B1000603010000F0F0103060C08000002FEFEFB
:100B200000000000000F0F0800F0E010E010F0E0FF
:100B30000F0F0007000F0FF0E0101010F0E00F0F84
:100B40000000000F0FC0E0301030E0C003070C08B9
:100B50000C0703F0E0101010F0E01F1F040404075E
:100B600003E0F0101010E0F003070404041F1FF06E
:100B7000E030301070600F0F00000000002070D0D7
:100B800090107060060E0809090F061010FCFE1088
:100B900000000000070F080C06F0F0000000F0F065
:100BA000070F080808070F00F0F00000F0F000033E
:100BB000070C0C0703F0F0008000F0F003070E03B1
:100BC0000E07033070C080C070300C0E0301030E9E
:100BD0000CF0F0000000F0F0091B1212121F0F3091
:100BE000301090D070300C0E0B09080C0C004040F7
:100BF000FCBE0202000000070F0808000000FEFE15
:100C000000000000001F1F0000000202BEFC404068
:100C10000008080F07000004060206040602000090
:100C20000000000000E0F0180C18F0E001010101E4
:100C3000010101C0F818181818F8C00007060606C8
:100C4000060700FCF8F0E0C0FCFCC00F0703010041
:100C50000F0F00C0FCFCC0E0F0F8FC000F0F00011B
:100C600003070FC0FCFC0000FCFCC0000F0F0000DD
:100C70000F0F00F8F81818181818180707060606B6
:100C8000060606181818181818F8F80606060606B4
:100C9000060707C0C0C0C0C0C0C0C0000000000040
:100CA000000000C0C000806080008000030C0D02C6
:100CB0000D0C0D60800080608000C0020D0C0D02E4
:100CC0000D0C030011241FBECFEFD8E0DEBFCDBF57
:100CD00021E0A0E0B1E001C01D92A63CB207E1F71F
:100CE0000E940C150C94A63D8BC95D98559A80FD09
:100CF000599A80FF5998519A539A5A9867FD5B9A6E
:100D000067FF5B985A9A5A9866FD5B9A66FF5B98F4
:100D10005A9A5A9865FD5B9A65FF5B985A9A5A9859
:100D200064FD5B9A64FF5B985A9A5A9863FD5B9ADC
:100D300063FF5B985A9A5A9862FD5B9A62FF5B98D0
:100D40005A9A5A9861FD5B9A61FF5B985A9A5A9831
:100D500060FD5B9A60FF5B985A9A5D9A5A985B981F
:100D6000089597FF09C08F939F938DE2E2D59F91DD
:100D70008F91909581959F4F62E271E04AE050E03B
:100D80000E94453D4CC60895ECDF01C0EADF80E2D9
:100D9000D0C58DE2CEC58DE3CCC5EF92FF920F9307
:100DA0001F93182F062FF42E82E691E043D6EE24EF
:100DB000E0913D01F0913E018685E81611F4812F06
:100DC00009C08485E81611F4802F04C08585E816D3
:100DD00011F48F2DAED5E3948E2D833049F71F91FA
:100DE0000F91FF90EF900895EF92FF920F931F9352
:100DF000182F062FF42E80E0B7D488E691E01AD69B
:100E0000EE248E2D09D6C7DFE0913D01F0913E0121
:100E10008685E81611F4812F09C08485E81611F43F
:100E2000802F04C08585E81611F48F2D82D5AFDFA1
:100E3000E3948E2D833029F71F910F91FF90EF904F
:100E40000895682F80E092E0662309F491E0623013
:100E500009F481E008950F93082FEEEAF1E0880F7E
:100E6000880FE80FF11D6081718182819381643662
:100E700071058105910568F42091200127FD09C0C5
:100E8000802FDFDF692F0BD26EEF23E04DE100D71B
:100E900004C04FEF04E02DE112D679DF0F910895E1
:100EA000863058F4EDE9F1E0E80FF11DE80FF11D8F
:100EB0008081918163E0F7D66ACF08951F93182F40
:100EC00080917601882319F062DF80E032D513D457
:100ED00089E591E0AFD5812F82958F70E1DF812F79
:100EE0008F70DEDF1F9108958091060182958F70CB
:100EF00019D08091060183701CD080910601DECF4D
:100F00000895E1E9F1E0E80FF11D0895CF93F9DFCD
:100F10009081C681C91710F405D001C013D037DF06
:100F2000CF910895EEDF8F93808176D58F9101C0A8
:100F300008958F9387E291E07DD58F91E2DF8681DE
:100F40006BC50895DEDF8F93868166D58F9101C0D2
:100F500008958F9383E291E06DD58F91D2DF8081E8
:100F60005BC508958F932F932AE080953B9A089450
:100F700010F4439802C0439A000020D027D08695F1
:100F80002A95B1F72F918F91089503D002D001D007
:100F900000D000D003D002D001D000D000D003D0C8
:100FA00002D001D000D000D0A89503D002D001D04B
:100FB00000D000D003D002D001D000D000D003D0A8
:100FC00002D001D000D000D003D002D001D000D098
:100FD0000000089590E0893C28F0885C48EC849FEC
:100FE000C0011124009709F4089520918100277011
:100FF00019F0DADF0197F6CF8130910519F00297E9
:101000003EE303C037E180E090E02091B200230F7F
:101010002093B30042E04093700027E023BF8895FF
:1010200026E023BF10927000A895DCCF8F9384E058
:10103000D1DF07C08F9382E0CDDF03C08F9381E0C3
:10104000C9DF8F911F93182F106410937C00E12F3C
:10105000E07880912D01E81759F0E0932D01AEDF83
:101060008EE980937A0083E083BF889582E083BF16
:1010700020E030E0A901E0E01FC08EE980937A0013
:1010800083E083BF889582E083BF60917800709190
:101090007900260F371F411D511DE43061F4809106
:1010A0002F01803041F084E02030380720F417FD14
:1010B00002C01068CACFEF5F80912C01E817E8F2F8
:1010C000609130017091310117FF04C060912E01D1
:1010D00070912F0180E090E00E94B53B2FEF33E04C
:1010E00040E050E00E94F73BB901CA0120912C0179
:1010F00030E040E050E00E94F73BC9011F910895A5
:101100009B01281B390B50F0C9010895BC01809147
:101110003001909131016817790718F4861B970BFD
:10112000089580E090E0089583E493E00E94783D84
:10113000382F84E493E00E94783D20913401230FFE
:1011400030913501381F209316013093170183E049
:10115000283E380720F0C901885E934002C080E035
:1011600090E062E370E00E94D03B683008F067E0F6
:10117000E3EAF3E0E60FF11DE60FF11D459155910D
:101180002591359162E3681B421B530B649FC0019C
:10119000659F900D1124499662E370E00E94D03B58
:1011A000620F731F70937A016093790185E493E075
:1011B0000E94783D992787FD909560913401709148
:1011C0003501860F971F90932F0180932E019093E6
:1011D00075018093740108950F9221E08C3292077B
:1011E00010F48CE291E08C52914069E170E00E9431
:1011F000D03B99E16B3210F0982F6BE2981BE0EC3A
:10120000F2E0E60FF11DE60FF11D9F93CF010E9462
:10121000783D482F3196CF010E94783D582F319666
:10122000CF010E94783D282F3196CF010E94783D52
:10123000382F6F91421B530B649FC001659F900D27
:1012400011240C9669E170E00E94D03B620F731F7D
:10125000CB010F900895CF93DF9324E130E0B901E3
:101260000E94D03BDC01E5EBF3E0E60FF71FE60F51
:10127000F71FC591D591459155914C1B5D0B4A9F28
:10128000C0014B9F900D5A9F900D1124B9010E94EF
:10129000D03B6C0F7D1FCB01DF91CF910895AEE164
:1012A000B0E0E5E5F9E00C94E53C662EB82E860F3B
:1012B000898320911A01283059F520917F013091BE
:1012C0008001409181015091820157FD15C010911C
:1012D0008E0109C0CA01B9012AE0312D412D512DDD
:1012E0000E94F73B1F5F173FACF391F4243160E09D
:1012F00036074105510518F48FEF9FEF42C1173FA4
:1013000039F480E028178DE738074105410510F0D2
:1013100020E03DE72C8B3D8B26EDA22EEAE8F2E0A3
:10132000E60DF11D859188608E87EAE8F2E0EB0D0D
:10133000F11D859188608F87E7E8F2E0E60DF11DE9
:101340007590E7E8F2E0EB0DF11DC59090EC692A8D
:10135000B92A81E0E82EF12C012D112D8E831F82F8
:10136000188619861A861B861C861D86188E198E6D
:101370001B8E1A8E0E94D52488E088B960927C006A
:101380001DDE3F8537B975B874B852E05A95F1F74C
:101390000000000014B815B8DD243E8537B975B8D3
:1013A00074B860927C00A895A0927A0080917A002F
:1013B00086FDFCCF2090780030907900B0927C00C0
:1013C0004C2DE3D02091780030917900288B398B17
:1013D0003F8537B9C5B8C4B8A895B0927C00A09233
:1013E0007A0080917A0086FDFCCF60917800709140
:1013F000790060927C00472DC8D0409178005091D0
:10140000790014B8CB01820D931DE80EF91E011D61
:10141000111DEA82FB820C831D8388899989840FC0
:10142000951F2E813F8168857985280F391F611DA1
:10143000711D2E833F836887798722E32417150661
:1014400048F075B874B8C4DD14B815B8888D8395A4
:10145000888F07C0483E73E0570718F08A8D839540
:101460008A8F888999892817190658F03E8537B9D7
:10147000C5B8C4B8ADDD14B815B8898D8395898F0A
:1014800007C0883E73E0970718F08B8D83958B8F8C
:10149000D3945D2D5F3F49F05F3731F45C2D550FDC
:1014A000C50E572D550F750E78CF409039015090CD
:1014B0003A01440C551C9201E4E0240D351DEA95D7
:1014C000E1F72901570168016E807F808884998443
:1014D00020911A012830C1F46C897D89812D912DCC
:1014E00065507040804090409B01AC010E94B53B2C
:1014F0009B01AC0160E779E786E190E00E94F73B51
:10150000621A730A840A950AA614B704C804D90497
:1015100028F46A187B088C089D0803C06624772489
:101520004301B20180E090E09301A4010E94B53B29
:101530009501A6010E94F73B8BE193E07981870F2B
:10154000911D0E94783D682EC90160E170E00E9403
:10155000D03B260F371FC9016816190618F48619E3
:1015600091090FC08C5E9F4F8615910540F48C89C0
:101570009D89843981E1980710F00E94B114812D72
:10158000912D6E96E2E10C94013D10928100109233
:10159000800010926F0010928B0010928A0057E02A
:1015A00056BB5FEF509385005093840055E05093F5
:1015B0007B0056EB50937A0051E05093810058E243
:1015C0005A95F1F7000045B944B955E05A95F1F73D
:1015D000000014B815B81092810080917A0084FF41
:1015E000FCCF80937A000895CF93C82F1C161CF46B
:1015F000CEDBC150FBCFCF91089560933C01809327
:10160000030186958093AD01660F660F660F6093A8
:101610000401089580913C01809301018091AD0106
:101620008093020108958091020160910101880F69
:10163000E4CF0895682F80E058CB08958EEAFADF52
:1016400085EAF8CF08958DE08DDC8AE08BCC089593
:101650001092AD0160E080E0D0DFF5CF0895CF9328
:10166000DF93C0E080E1E6DF80E0E4DF8C2F806B79
:10167000E1DFD4E860E081E038DBD150D9F7CF5F1B
:10168000C83081F7E5DFDF91CF91089558985A98D7
:101690005B985D98509A529A539A559A94DC5D9A49
:1016A000559A5998519A84E195DC589A84E192DCD4
:1016B0008EEAC0DF82EEBEDF82EABCDF80EABADFFC
:1016C00080ECB8DF8FE2B6DF84E2B4DF81E8B2DF1E
:1016D0008AE193E00E94783D8F73ACDF80E4AADF5B
:1016E00084EAA8DF86EAA6DFBADF8FEAA3DF60E03C
:1016F00080E083CF089581E08093AD0160E082E0D7
:101700007CDFA1CF089582E08093AD0160E084E0AA
:1017100074DF99CF089583E08093AD0160E086E0A7
:101720006CDF91CF089590913C0180E1891B5CCFE3
:101730000895CF93C82FF7DF8091AD018F5F80931D
:10174000AD01843038F083E08093AD0181E0809377
:101750003F0102C010923F018091AD016C2F880FB4
:101760004CDF71DFCF910895E4DF7AD48091AD0131
:10177000833008F068CF08956BDFD5DF69CF089517
:10178000BADFD1DFB8CF0895582F28E030E090E8D5
:1017900041E080E0652F642309F0892B440F969582
:1017A00021503109B9F70895A0E0B0E0EAEDFBE07F
:1017B0000C94E63CEC0110E0C801860F911D8138C5
:1017C00091050CF06CC0F12CE40EF11C31E4E31631
:1017D000F1040CF064C0742E76947694769481E0D3
:1017E000E81AF10893E0F594E7949A95E1F7E22F6F
:1017F000E2704E2E21FF0DC0C7019927871991096C
:10180000809FA001819F500D909F500D1124C40F07
:10181000D51FF7E0FE1510F487E0E82E862F82959D
:101820008F708061382E87E0F82EF7186F70662E63
:101830002170522EE71468F18F2D806BFBDE832D13
:10184000F9DE862DF7DE5E01A00EB11EC5014E0148
:10185000C817D907A9F09C01215031096901552009
:1018600011F0F90101C0F4018491411001C08CDF35
:10187000682F81E03ADAC601FFEF8F1A9F0AE8CF9E
:10188000442019F05E01A01AB10A7394FA94E5019C
:10189000D1CF9091030187E0891B806BCBDECDB760
:1018A000DEB7E1E10C94023DEF920F93482F282F11
:1018B0002F7380E6289F90011124C901855E9B4FFC
:1018C00046FF02C028E001C028E42093050147FF3D
:1018D00003C01092000108C020E220930001209173
:1018E00005012D5E2093050120E2E22E08E120E0B3
:1018F000409100016091050157DF0F91EF9008952D
:10190000EF920F93262FFC0164913196449131960A
:1019100004913196E49030910001430F309105011C
:10192000630F049641DF0F91EF90089560E0E8CFD8
:101930000895EF920F93CF93C82F80913C018F5F52
:1019400080933C01409103018C2F90E0440F440FA1
:10195000440FCC3090F424E0880F991F2A95E1F7CA
:1019600030E1E32E08E020E0609104018D5C934FAC
:101970001BDF80910401885F23C04C972EE0289FD5
:10198000F001299FF00D112480E1E82E07E020E00E
:1019900060910401CF018554994F06DF60910401E5
:1019A000695F6093040140910301440F440F440FA9
:1019B00001E020E083EF96E0F7DE809104018F5F85
:1019C000809304018C2F90E0FC013197EE31F105FA
:1019D000E0F4EC5CFF4F0C94353C8EE305C08CE7E3
:1019E000C1DA8CE313C08CE7BDDA8CE70FC082E567
:1019F0000DC08DE20BC085E709C08FE4B3DA88E63D
:101A0000B1DA8DE603C08CE401C08C2FABDAA89567
:101A1000CF910F91EF9008958F5C8BCF0895CF9366
:101A2000DF93EC018991882311F083DFFBCFDF91F5
:101A3000CF910895CF93DF93EC01CE010E94783DC2
:101A4000882319F076DF2196F8CFDF91CF910895A2
:101A5000EF920F93FC0104913196E4900296A4DE7C
:101A60000F91EF9008950F9380E891E0E3DF4091AC
:101A70008D014D3F64F460917B0170917C018091F8
:101A80007D0190917E0103E026E419D002C08FE32E
:101A900050DF0F910895909119019F70923071F469
:101AA00063DE84E690E0C6DFE0913D01F0913E0107
:101AB00022E04DE16FEF84819581EAC00895AEE0A8
:101AC000B0E0E5E6FDE00C94E53C142F622E702EAC
:101AD0006B017C010F7080E389838A838B838C8305
:101AE0008D838E83F7FE0AC054D9F094E094D0948D
:101AF000C094C11CD11CE11CF11C04C075FE02C0C5
:101B00008BE217DF033071F0043099F00530C1F03B
:101B10000630F1F0073021F174E6872E912CA12CCC
:101B2000B12C25C068EE862E63E0962EA12CB12C38
:101B30001EC050E1852E57E2952EA12CB12C17C066
:101B400040EA842E46E8942EAA24A394B12C0FC018
:101B500030E4832E32E4932E3FE0A32EB12C07C055
:101B600020E8822E26E9922E28E9A22EB12C9AE0B6
:101B7000292E312C412C512CC814D904EA04FB0421
:101B800070F0C701B6016B5F7F4F8F4F9F4FA2016F
:101B900091010E94F73B69017A011F5FEDCF81E15E
:101BA000810F9BEA899F812D1124A82EA69486E09F
:101BB000811B899F112D11241695912F990F190FB3
:101BC000811B182F4E0187E0880E911C2AE0A4018A
:101BD000C701B6010E94243DF40101900020E9F7FD
:101BE00031977F01E818F9089E2C6701DD24812FC9
:101BF00090E004968C159D0514F4A3941D5F8A2D26
:101C000090E0845D9F4F0E94783DA82E74FE04C032
:101C1000901610F40E1901C000E08E2C811A800E6F
:101C2000181424F08EE285DE012F0E19111102C066
:101C300088EF882E912C10E0C00ED11EE82C082CC5
:101C4000000CFF08892D90E08C159D05ACF4FC017B
:101C50003696E01BF10B81E090E08C0F9D1FE80FA2
:101C6000F91F808166DE9394892D90E08E159F0583
:101C700049F78EE25EDEE6CFAA2011F08A2D59DE0A
:101C8000662011F0862D55DE2E96E2E10C94013D82
:101C90000F93362FBC0180E090E0022F242F432FBA
:101CA0000EDF0F9108950F93062FBC0180E090E0A6
:101CB00026E54DEF04DF0F9108950F93042F28E4DC
:101CC00040E0FDDE8AE735DE62D80F910895E82F07
:101CD000F0E0EE0FFF1FE453FE4FA591B4919091F9
:101CE0000001490F90910501690F20E0CD01B0CEB0
:101CF0000895CF93DF93C82FD62FE0913D01F09147
:101D00003E0148E16EE18685E2DFE0913D01F09120
:101D10003E014D2F6C2F8485DADFE0913D01F0917B
:101D20003E0140E06EE18585D2DFDF91CF910895DD
:101D3000CF93DF9394DC80ECB7DD62E082ED91E03D
:101D4000DFDD80E8B1DD8DE092E0F0DD60E085E090
:101D500054DC85E791E06EDE68E085E04EDC8DE6E0
:101D600091E068DE88E99AE313D179DC83E49CDDB5
:101D700083E09ADD86E192E0D9DD61E082E03DDC3E
:101D80008EE4D7DD06D88FE891E054DE69E082E08A
:101D900034DC80E5CEDD0E94C9068FE891E04ADEA2
:101DA00088E99AE3F5D05BDC81EC7EDD81E87CDDBF
:101DB0008FE692E0BBDD60E085E01FDC8EE4B9DDFC
:101DC0000E94C90685E4B5DD89E891E033DE68E06C
:101DD00086E013DC80E5ADDD0E94C90685E4A9DD5F
:101DE00089E891E027DE88E99AE3D2D038DC81E403
:101DF0005BDD83E692E09ADD81E056DD8FE392E0E1
:101E000095DD60E081E0F9DB8EE493DD0E94C90698
:101E100084E48FDD89E891E00DDE68E082E0EDDBAF
:101E200080E587DD0E94C90684E483DD89E891E0CE
:101E300001DE88E99AE3ACD012DC82EC35DD82E881
:101E400033DD85E392E072DD60E085E0D6DB8EE491
:101E500070DD0E94C90685E46CDD84E991E0EADD6D
:101E600068E086E0CADB80E564DD0E94C90685E49F
:101E700060DD84E991E0DEDD88E99AE389D0EFDB7B
:101E800082E412DD8FE292E051DD82E00DDD8DE132
:101E900092E04CDD61E081E0B0DB8EE44ADD0E943F
:101EA000C90684E446DD84E991E0C4DD69E082E0AE
:101EB000A4DB80E53EDD0E94C90684E43ADD84E9C6
:101EC00091E0B8DDC0E08C2F8F7061F4DC2FD295EB
:101ED000D37021F488E99AE35BD0C1DB60E08D2FF9
:101EE000880F8BDB8CE18C0F24DDCF5FC43659F774
:101EF00088E99AE34DD0B3DBDF91CF91089599B192
:101F000093FB992790F9499992608091110184304F
:101F100050F08EE080930D0190930E01109212010B
:101F200081E08093110180911101E82FF0E0E35FDF
:101F3000FE4F3081931729F191111AC0E3E0E80FA9
:101F4000E37020911201323041F4F0E0E35FFE4F84
:101F50003081333069F42F5F09C0313049F4F0E04B
:101F6000E35FFE4F3081333019F42150209312018A
:101F7000E1E0E80FE370E0931101F0E0E35FFE4F72
:101F800090838091120187FD8195809313010895BC
:101F9000A0E0B0E0EEECFFE00C94EE3CE82ED92E91
:101FA0005398519806D810921201E0911101F0E077
:101FB0003196E370FF27E35FFE4F80EF8083C5E635
:101FC000D9E19DDF4F9906C00E94DD07D150C9F7C6
:101FD000C150B1F7CE2DDD2DF12C15E500E0BB246D
:101FE000B394D7FD37C082E3C82E89DF0E94DD0796
:101FF000CA94C110FACF110F4F9B1F5F1F731F337D
:1020000049F4011103C0CE2DDD2D04E00F5F083C23
:1020100028F020C0111102C001111CC0A8951C1687
:102020001D0624F42A9711F4CFEFDFEF80911301FE
:10203000882339F0F39480917701811102C0B09226
:10204000770184E18F1568F680911201811102C039
:10205000F12CC7CF802FCDB7DEB7E9E00C940A3D55
:10206000CF93D8DAC82F80913F01882301F18130C6
:1020700051F4C33041F46FE086E0BFDA8BE259DC03
:102080006FE086E0BADA80E49FE182DF811104C06C
:10209000809113018111F7CFC33041F480913F014A
:1020A000813021F460E086E0A8DA3DDBBCDACF9134
:1020B00008951895189530911801A0913D01B0919F
:1020C0003E01E1E9F1E080E090E08317B0F4419156
:1020D0001C962C911C97421719F04581241302C0BD
:1020E0000196F3CFFC01EE0FFF1FE356FE4F208158
:1020F0003181293E334008F4089584E10895109217
:102100001A011092180110926F0110924F01109253
:10211000190110923B0110927601EAE5F1E010827C
:1021200011821282EBE7F1E0108A82E0818B10923B
:10213000200117861686148215821682178281EF77
:10214000838B08958FE40E94B20786E40E94B20751
:1021500086E40E94B20777DA71DA5E980E94C807B7
:1021600080E090E015CF08951F93CF93DF93162F53
:1021700098E097B998B9E82FF0E0E957FD4F9491AE
:1021800095B9262F281BE20FF11D27FDFA95E49142
:10219000E92BE4B90E942208EC01812F0E94220859
:1021A000AC01209130013091310136952795C9015C
:1021B0000397BE01625E7F4F8617970778F4255E0E
:1021C0003F4FC217D30750F4BA01625E7F4F8617A4
:1021D000970720F481E04217530708F080E014B815
:1021E000DF91CF911F910895CF9361E080E0BCDF34
:1021F000C82F62E080E0B8DFC80F62E081E0B4DFA2
:102200008C0FCF910895AFE0B0E0E9E0F1E10C94DC
:10221000E53CB82E10921A01807FA9F4E5DF8330E7
:1022200009F09BC31CDA82E592E004DC64DA8FE3F8
:1022300080DB80ED97E0ACDE8B30C8F410DA85EF00
:1022400090E0F8DB8AC306E910E009DA81EC91E05E
:10225000F1DBCADF833021F41F5F143010F007C0B8
:1022600010E088E20E94EA07015079F762C043DA81
:102270000E94B62881EB90E0DDDB60E08DE193E029
:102280000E94853D60E08EE193E00E94853D60E024
:102290008CE193E00E94853D60E082E000D86C0113
:1022A0009A83898361E082E00E944F097C019C83CC
:1022B0008B8360E081E00E944F098C019E838D83B7
:1022C00023E040E26EEFC601E3DC23E040E26EEF84
:1022D000C701DEDC23E04DE16EEFC801D9DC2AE561
:1022E000C216D10424F084E190E09A838983698145
:1022F0008DE193E00E94853D8AE5E816F10424F023
:1023000084E190E09C838B836B818EE193E00E945B
:10231000853D0A35110524F084E190E09E838D838C
:102320006D818CE193E00E94853D82E080933F01C6
:1023300097DEEB2DEF70EF87E13011F018E749C120
:10234000EE24E394F12C78EB872E72ED972E77E450
:10235000A72EB12CE2E0DE2E08E0F0E23F2EC12CE9
:102360001E2D52E2252E0CDA07DA84E5E2DAC701E7
:102370000E94BC060E94C7061130B9F484EE90E0BA
:1023800059DB64E080913401909135018CDCB3D944
:102390008FED90E04FDB8091790190917A010E945E
:1023A000BC068EEB80932C01F0C0123091F5209189
:1023B000300130913101A8E5BBE10E943B3C24ECA7
:1023C00036E340E050E00E94193C29013A0181E0E7
:1023D00085B9F5E0F4B980E00E94160884199509E2
:1023E0009A83898381E184B980E00E941608841968
:1023F00095099C838B8384E085B984E184B981E06D
:102400000E941608841995099E838D8389EC90E0BB
:10241000AAC0133059F5D5B82AE024B980E00E944B
:102420001608209130013091310136952795388773
:102430002F83821B930B9A83898324B880E00E94A8
:1024400016082F813885821B930B9C838B8305B9DB
:1024500088E284B981E00E9416082F813885821BAA
:10246000930B9E838D838BEB90E07DC0143039F409
:1024700082E492E0DFDAB8DE81116CC275C01530FB
:10248000B1F415B8D4B880E00E9416089A83898305
:1024900004B981E00E9416089C838B8334B882E0E3
:1024A0000E9416089E838D838BED90E05CC01630F1
:1024B00051F5D4B8D5B880E00E94160820913001BB
:1024C00030913101821B930B9A83898304B905B93A
:1024D00081E00E9416082091300130913101821B69
:1024E000930B9C838B8334B835B882E00E94160826
:1024F0002091300130913101821B930B9E838D839B
:1025000087ED90E030C0173079F52091300130919F
:102510003101A8E5BBE10E943B3CA50194010E946A
:10252000F73B29013A01D5B8E3E0E4B980E00E9425
:102530001608841995099A83898305B9FCE0F4B9D2
:1025400081E00E941608841995099C838B8335B815
:1025500020E324B982E00E941608841995099E831D
:102560008D8385EB90E066DAC6D889819A810E94D6
:10257000B1060E94C7068B819C810E94B1060E9411
:10258000C7068D819E810E94B10607B908B914B8AB
:1025900015B888EE93E0FCDC143011F08B3020F499
:1025A000C39484E0C812DFCE88EE93E0F1DCEFEF55
:1025B000EE1AFE0AF8E0EF16F10409F0D0CEBECE16
:1025C000DFD882E492E036DA84E60E94EA0711500E
:1025D00019F00ADE8111F4CF42D88AEA90E02ADAB3
:1025E00023E04DE16FEF809132019091330150DB98
:1025F00082D883EA90E01EDA23E04DE16FEF80910C
:10260000390190913A0144DB82E080933F0128DD5B
:1026100010921A0124D88FE990E00CDA60E082E091
:102620000E94A5254090830150908401609085010F
:10263000709086015C864B8661E082E00E94A52551
:102640008090830190908401A0908501B0908601D4
:102650009E868D8660E081E00E94A5250091830121
:10266000109184011E830D8362E080E00E94A52505
:1026700080918301909184019C838B8362E081E04F
:102680000E94A52580918301909184019A87898772
:1026900061E080E00E94A525E0908301F090840134
:1026A000FA82E982C2010E94C606C4010E94C606DF
:1026B000B801110F880B990B03E026E444EFFFD912
:1026C0002F85213021F080913801823031F482E071
:1026D000E80EF11CF886EF8204C0F886EF821092B3
:1026E00038018E010F5F1F4F6E01EFE0CE0ED11C3F
:1026F000F801819191910A97853B9105D0F4EC15F1
:10270000FD05B9F74CE3E42E43E0F42EF8016081B7
:102710000E5F1F4F6E5EC7010E94853DFFEFEF1AEF
:10272000FF0A0C151D0591F70E947B0B85EA91E0CD
:1027300081D982E080933F0193DC0E945A382F8533
:10274000213029F080913801823009F0ECC00E94DC
:102750002F0B80E061D98BE491E06CD982E05CD9E9
:1027600084E290E067D920E4F22E10E03AE0832E74
:10277000912CA12CB12CC3DC10921A0160E082E0F4
:102780000E94A52500918D0120917B0130917C0153
:1027900040917D0150917E01073F44F40F5FCA01D3
:1027A000B901A50194010E94F73BF6CF00938D017A
:1027B00020937B0130937C0140937D0150937E01F7
:1027C000073F09F098C0DA01C90180569109A109B3
:1027D000B10980399545A105B10508F08CC060911B
:1027E0008F0170919001CB018B569F4F8B3291409E
:1027F00008F081C01F5F153008F47EC083E493E0C9
:102800000E94933D0E942F0B8DE190E013D980919F
:102810008F01909190010E94B1060E94940888E077
:1028200088B989E087B980E284B982E00E942208F1
:10283000853D9340D4F714B810922F0110922E01C9
:1028400082E00E9422088C018091740190917501B0
:1028500090932F0180932E0182E00E9422087C0138
:10286000EE0CFF1C10922F0110922E0182E00E94AC
:102870002208A0907401B0907501B0922F01A0922F
:102880002E01800F911F8C010E191F090E947B0BD6
:1028900086E190E0CFD885E493E00E94783DD82E81
:1028A0009501D8010E944A3C97010F2C000C440B63
:1028B000550B0E94193C13E01D0D120F612F85E48A
:1028C00093E00E94853D812F012E000C990B0E9400
:1028D000B1060E94940882E080933F01C1DB109210
:1028E00038018CE393E00E94783D682F8FE393E0FA
:1028F0000E94853D18C010E00E947B0B60917B0117
:1029000070917C0180917D0190917E0104E026E42C
:1029100040918D01D4D80E94930B88E20E94EA076F
:10292000FA94F11028CF89E180932C0180E00E9475
:102930006F3B0E942F0B85EF90E07CD80E947B0BB1
:1029400089E392E077D810921A0182E080933F01E8
:1029500087DB03C082E0C82E07CE2F96E2E10C94FD
:10296000013D8091380181110DC08CE393E00E94FC
:10297000783D61E0680F8FE393E00E94853D81E040
:10298000809338010895EF92FF920F931F93CF9396
:10299000DF93D62FE82FF0E0E657FD4FE491E8B93A
:1029A000E860E7B915B8E62FF0E0E957FD4FE4918C
:1029B000E4B988E8E82E83E1F82ECE2FCC0F8D2FD6
:1029C0000E9416088C01C4B98E159F0510F4780179
:1029D000F6CF892BE1F00E948B0B8BE291E02AD895
:1029E000D80120EA36E841E050E00E94503C28E956
:1029F00037EB40E050E00E94F73BDA01C90122E0EA
:102A000041E467EF45D988E087B988B914B8CDB7F4
:102A1000DEB7E6E00C940D3DA0E0B0E0E2E1F5E1C8
:102A20000C94E53C80E48AB98BB9C6E8C0937A007F
:102A30001092C1000E94CA07D4B784B7877F84BFB1
:102A40000FB6F894A895809160008861809360002B
:102A5000109260000FBEC093640088E380937E00F4
:102A60001092B00087E08093B10078940E94460BEA
:102A7000D3FDAFC580E185BF84E080931101C0E044
:102A80004F9906C082E00E94EA07CF5FCC33C1F7BE
:102A90008FE59DE690930C0180930B01CF3130F0D0
:102AA00080E69DE690930C0180930B0110922D011E
:102AB0000E94B6289FE088E10FB6F894A89580930D
:102AC00060000FBE90936000CC3389F038E0932E05
:102AD00040E1842E58E1752E60E4C62E61E0D62ECA
:102AE00070E6E72E71E0F72EEDE06E2E38C00E9402
:102AF00036328111FCCFEACF823009F458C18330DD
:102B000009F482C18DE992E00E941A0D85E892E0F5
:102B10000E941A0D0E947B0B80911801805D0E941B
:102B2000990C8AE20E94990C87E291E00E941A0DAA
:102B30008BE692E00E941A0D0E94230B86E00E9411
:102B4000540CC0E4DFE177B84F9BFECFCE0120DA12
:102B5000823308F4C2C40E9436328111FCCF8FEA5E
:102B60000E941A0B84EA0E941A0B0E942F0B97B83E
:102B7000C6DA0E94B6280E94280B3DD580913B0101
:102B8000882379F00E947B0B80E491E00E941A0D6B
:102B900063E0809130019091310185D888EC0E94EA
:102BA000EA070E947B0B0E94D52480911A0189308C
:102BB00021F50E942F0B85E491E00E941A0D0E94DE
:102BC0007B0B63E080915401909155016CD80E9479
:102BD000C70663E0809156019091570164D80E9426
:102BE000C70663E080915801909159015CD88AEC46
:102BF0000E94EA0781E107DB6BC48FE393E00E9448
:102C0000783DC82F8CE393E00E94783DC81BC093A9
:102C1000380180E0F8DA0E94C00B87EB92E00E9456
:102C20001A0D83E00E94B2070E94230B42E061E08C
:102C300080E055D542E060E081E051D541E062E0BE
:102C400080E04DD541E060E082E049D540E062E0BF
:102C500081E045D540E061E082E041D580911A01F4
:102C600081110EC00E94D52460E082E00E94A5255B
:102C700061E082E00E94A52560E081E00E94A52538
:102C80000E942F0BD0923E01C0923D0180911A010B
:102C9000863069F485EC0E94540C60E188EF29D8F5
:102CA00066E080E00E94FD0A8EE892E00EC0873068
:102CB000F1F484EC0E94540C60E188EF1AD866E0CD
:102CC00080E00E94FD0A87E992E00E941A0D66E00A
:102CD00082E00E94FD0A89E591E00E941A0D62E0FF
:102CE00080914401909145010E94530EEFC38830BA
:102CF00081F420918B0180918C0190E0820F911DD5
:102D0000029719F40E94152BF1C380E00E94442A17
:102D1000DFC3833009F0B6C080911801813009F01B
:102D2000EBCE80E00E94860760919101809197012F
:102D30002ADE80E70E945E0740E060919101809169
:102D400097010E947C3760937B0170937C01809394
:102D50007D0190937E0180E00E94B40B60917B0125
:102D600070917C0180917D0190917E0102E026E4CA
:102D700042EF0E945F0D0E94C90641E060919101FF
:102D8000809197010E947C3760937B0170937C0156
:102D900080937D0190937E0126E442EF0E945F0DB7
:102DA0008DE191E00E941A0D0E94230BF2C282E392
:102DB0000E94990C8DE091E00E941A0D9091910172
:102DC00030919201931307C080E00E94A20781E036
:102DD0000E9499070CC020919701809198012813B7
:102DE00008C080E00E94920781E00E94A90781E06C
:102DF000A1CF321304C081E08093060135C098133F
:102E000081CE8092060130C083E3809306018091D9
:102E1000970190919201891303C021E0209306014C
:102E20004091910130919801431302C080920601B4
:102E300020919301821303C082E080930601809168
:102E40009901481303C040E24093060132130FC0BA
:102E500022E120930601981761F083E30E94990C08
:102E60008DE091E00E941A0D0E94740792C298139F
:102E700003C081E28093060180910601823208F04E
:102E800041CEEBCF843009F054C180916F0188238B
:102E900009F45FC080914F01882309F45AC0609102
:102EA0004C0180914E010E94A52520907B0130901D
:102EB0007C0140907D0150907E01C0918D01609118
:102EC0006E0180916C010E94A52580914001909136
:102ED0004101A0914201B0914301409160015091A4
:102EE00061016091620170916301843F21E092076A
:102EF000A105B10538F4443F31E053076105710580
:102F000008F0C0EF443F51406105710540F4843F33
:102F10009140A105B10518F080EF80938D0180915B
:102F20008D01C8130EC080917B0190917C01A0910E
:102F30007D01B0917E01281639064A065B0618F01D
:102F400005C0C8171CF46092190103C09CE090935F
:102F5000190180916F01882361F080914F018823CE
:102F600041F04F9906C09091190181E08927809323
:102F7000190166E080E00E94FD0A80EC0E94540C7A
:102F8000809119018C3051F485E791E00E941A0D6F
:102F900080916F018823A9F080E711C0F0923E0173
:102FA000E0923D018DE092E00E94960C8DE691E06A
:102FB0000E941A0D80914F01882319F08EE60E941D
:102FC000990C79D8C82F8530A0F4A0913D01B0911B
:102FD0003E01E82FF0E0EF56FE4F1D969C91808158
:102FE000981711F062E001C060E082ED91E00E946C
:102FF000800C60E189EF0E94790E86E00E94990BB7
:1030000084E891E00E941A0DE0913D01F0913E01AB
:10301000608171818281938103E020E04EEF0E9404
:103020005F0D87E00E94990B89E40E94990CE09162
:103030003D01F0913E01868197818031974270F089
:1030400085E60E94990CE0913D01F0913E01868158
:103050009781805197429783868303C083E60E94BD
:10306000990C0E94CB06E0913D01F0913E0122E0D7
:1030700041E46AEF868197810E94480E86E00E94B3
:10308000990B8DE591E00E941A0DE0913D01F091C0
:103090003E0163E0848195810E94530E81E080931C
:1030A0003F01E0913D01F0913E0180859185892BA2
:1030B00091F085E00E94B40B8FEE90E00E941A0D13
:1030C000E0913D01F0913E0122E041E46AEF80850C
:1030D00091850E94480EE0913D01F0913E0182856C
:1030E0009385892B91F085E00E94B40B89EE90E0E6
:1030F0000E941A0DE0913D01F0913E0122E041E471
:103100006AEF828593850E94480EC53078F480E08E
:103110000E94B40B8C2F0E94860789E591E00E94E3
:103120001A0D8C2F0E9450070E94230B43E462E487
:103130002CC1853009F039C166E080E00E94FD0AAB
:103140008091190184FF09C080E50E94990CF092DA
:103150003E01E0923D01C2E004C08EE40E94990C61
:10316000C0E00E94C90680911901D82FDF70D430C9
:1031700061F48FE891E00E941A0D83EC0E94540CD8
:10318000CC23E1F186E192E037C085FF05C084E4FD
:103190000E94990CCF5F03C085E40E94990CD33044
:1031A000B1F489E891E00E941A0D81EC0E94540C60
:1031B000C13019F483E692E01FC0C23019F48FE6E3
:1031C00092E01AC0C330D1F48FE392E015C084E9D5
:1031D00091E00E941A0D82EC0E94540CC13019F447
:1031E0008FE292E009C0C23019F485E392E004C096
:1031F000C33021F48DE192E00E94960C0E945B1096
:103200008530A0F4A0913D01B0913E01E82FF0E09F
:10321000EF56FE4F1D969C918081981711F062E049
:1032200001C060E082ED91E00E94800C60E189EFD6
:103230000E94790E86E00E94990B8091190185FD0C
:103240001CC085E591E00E941A0DE0913D01F091CE
:103250003E0162E0828593850E94530EE0913D011C
:10326000F0913E01668584850E94A52586E00E9436
:10327000990B0E94330D85E068C08F70E0913D018D
:10328000F0913E01843039F0668584850E94A52541
:103290000E94330D13C084819581892B79F080E0E1
:1032A00090E00E941A0DE0913D01F0913E0122E074
:1032B00041E46AEF848195810E94480E60E084E0D9
:1032C0000E94FD0A89E40E94990C0E94CB06E091BD
:1032D0003D01F0913E0122E041E46AEF8681978151
:1032E0000E94480E8FE491E00E941A0DE0913D018A
:1032F000F0913E0162E0828593850E94530EE09139
:103300003D01F0913E0180859185803C9241E0F441
:1033100080E00E94B40B89E40E94990C0E94CB06C5
:1033200022E041E46BEF80E090E00E94480E8FE4E1
:1033300091E00E941A0DE0913D01F0913E0162E0A2
:10334000808591850E94530E80E00E944B0DD43001
:1033500009F437C1C0E080911801C81788F480E0F3
:103360000E94B40B8C2F0E94860789E591E00E9491
:103370001A0D8C2F0E9450070E94230BCF5FEBCFBA
:10338000D33009F022C143E467E485E40E94F406E7
:103390009DC00E94230B80917601882309F498C078
:1033A00077B897B880E00E94B40B20917601222371
:1033B00009F47FC02130A1F480915D010E942107B2
:1033C00020915D01213039F420911801211103C0B1
:1033D0000E94CC2A8BC040E0692F0E94872978C0C8
:1033E00090915D0180915E0134E0839FD0011124B2
:1033F000A255BE4F34E0939FF0011124E255FE4FD9
:103400002D903D904D905C904081518162817381FF
:10341000421553056405750510F4C82F01C0C92F66
:10342000223021F4890FC3E0C81B1CC080915F01CA
:1034300094E0899FD0011124A255BE4F24E0C29F81
:10344000F0011124E255FE4F0D911D912D913C91FB
:103450004081518162817381401751076207730770
:1034600008F4C82F1C2F1695D2E0DC1BC11102C036
:1034700001E001C002E0812F0E940C0D88E091E084
:103480000E941A0D8D2F0E940C0D88E091E00E9481
:103490001A0D802F0E940C0D80E00E94990B81E094
:1034A000C11180E00E942B0782E0811B0E942B0744
:1034B0000FC085E792E00E941A0D0E947B0B82EA02
:1034C00092E00E941A0D8DE992E034CB0E94230B0A
:1034D000C0910B01D0910C0136CB90911301933028
:1034E00008F039CB81113BCB911130CB8091380161
:1034F000811142C00E94A21032CB3D2F3370B32EF7
:1035000011F40E942F0B60E08B2D880F0E94FD0AA2
:103510000E94230BA895DF5FD370A12CB12CA414BB
:1035200088F1CC2309F444C0040D111DF801E357C0
:10353000FD4FE491E03211F40F5F1F4F80E090E007
:1035400020E1422EFC01E00FF11FE357FD4FC49133
:10355000C032B1F0CE3FA1F001968131910591F7D3
:10356000D111CBCF80E29EE40E94C80F811120C010
:103570008091120187FFC1CFD4E000E010E0DECFE0
:10358000482EEACFF801EA0DFB1DE357FD4FC49129
:10359000CC2371F0CF3F19F40E94C70605C0CE3F7F
:1035A00019F08C2F0E94990C8FEFA81AB80AB7CF88
:1035B00080E29EE40E94C80F8091120187FDDCCF5B
:1035C00099CF4FE367E48FE3E1CE44E467E483E51A
:1035D000DDCE0E94280B82E692E00E941A0D8BEC51
:1035E0000E94EA070E94A21080E090E0CDB7DEB70B
:1035F000E2E10C94013D0F931F93CF93DF9385E09D
:103600000E94220885E00E941E088C01EC01CC0F6C
:10361000DD1FCC0FDD1FCA56DF4F10923601C438B4
:1036200083E0D80750F489E991E00E941A0D0E94C6
:10363000930B81E08093360126C088EA91E00E94D6
:103640001A0D62E0CE010E94530E0E94C7060A3F87
:1036500086E0180790F40333164060F48BEA92E09A
:103660000E941A0D0E94930B8DEC0E94EA070E94A3
:10367000A21009C082EB92E002C085EA91E00E94AC
:103680001A0D0E94930BDF91CF911F910F91089516
:10369000CF93DF93DC019C01261B370BE0E090E029
:1036A000B901690F711D672F7727920F260F371FFA
:1036B000BA016E0F711D672F7727E40FEB01CC0F56
:1036C000DD1F4C0F5D1F6B3E28F4A217B30740F7B8
:1036D000CA0102C080E090E0DF91CF910895A8E197
:1036E000B0E0E5E7FBE10C94E53C582E462E342E85
:1036F000A895E62FF0E0E957FD4F24912C87220F83
:103700002B8B339634913A8BE42FF0E0E957FD4F41
:1037100044914983339654915F83E82FF0E0E95751
:10372000FD4F2490822D880F8F87339694919B8331
:1037300098609C8338603A8345B9AC84A42AA4B8C5
:1037400097B9EB81E8B9862F0E941E089E878D8766
:10375000FC85F4B9842D0E941E083C0114B80E9417
:10376000D30715B8A4B8842D0E941E086D857E85E8
:103770000E9480086C012A8127B988E088B93981C4
:1037800032293D8335B934B9852D0E941E080E9427
:1037900086087C0115B80E94D30725B8852D0E94A4
:1037A0001E080E9486088C0124B8852D0E941E08E0
:1037B0000E948608B82E9987B801C7010E94800828
:1037C000803241E0940730F450E2C51651E0D5064E
:1037D00008F4B6C5C00ED11EED85FE858E0F9F1F65
:1037E000C816D90620F41E870D876B2C798420918A
:1037F0004F0130916F01822F90E0830F911D02974E
:103800004CF0213009F09CC590914C0180916C01E5
:10381000981396C5F981FF0FF88FF229FB872D8544
:103820003E852437310508F4A5C1C901880F991FC9
:1038300044966816790608F09DC13C8137B94B81E2
:1038400048B98C85588D852B84B9842D0E941A081F
:103850008C01832D0E9422087C01888D85B9842DDE
:103860000E941A089801295A3D4F2817390708F075
:10387000B4C088E088B99A8197B9EB85E4B9E5B915
:10388000832D0E941A0888349F4028F085E0809399
:103890001A0182E204C085E080931A0184E28093D9
:1038A00019011093450100934401B701C8010E941A
:1038B0008B0890934B0180934A019801A0E1B7E2F5
:1038C0000E943B3C209114013091150140E050E0F2
:1038D0000E94F73B30934701209346018B89288D46
:1038E000822B84B915B83C8137B94B8148B9832DF7
:1038F0000E9422088C01842D0E941A08B8010E949F
:103900008B089C0190934901809348019091190183
:103910009F70943081F5409146015091470160912C
:103920004A0170914B01C901B3DE009701F1588D36
:1039300054B9EA898C81E82BE7B9842D0E941A08D2
:103940008C0188E087B99801A0E1B7E20E943B3C76
:103950002091390130913A0140E050E00E94F73B5C
:10396000A901B801809148019091490191DE90939D
:10397000450180934401809119018F70843009F4CE
:10398000D6C488E088B99F81EA819E2B97B924B874
:10399000FD81F5B9852D0E941E088C010E948608C4
:1039A0009E838D83842D0E942208E0901B01F0905D
:1039B0001C01BC01C8010E948B089701DC010E9418
:1039C0003B3CED81FE819F0140E050E00E94F73BCF
:1039D0003093450120934401AAC488E088B9FA8154
:1039E000F7B92B8524B925B9852D0E941A088C01B9
:1039F000832D0E9422087C0125B8852D0E941A087B
:103A0000895A9D4F8017910708F09AC43B8138B9B5
:103A10004C8147B9832D0E941A08813D934028F4B8
:103A200085E080931A0182E304C085E080931A0147
:103A300084E380931901B801C7010E948B08909319
:103A40006B0180936A01C8010E9486089C01A0E175
:103A5000B7E20E943B3C20911B0130911C0140E0E9
:103A600050E00E94F73B3093670120936601F8E035
:103A7000FF2EF8B88A8187B98F85988D892B84B9F4
:103A800085B9852D0E9422088C01832D0E941A0879
:103A9000B8010E948B089C01909369018093680192
:103AA000909119019F709430A1F540916601509159
:103AB000670160916A0170916B01C901E9DD0097AE
:103AC00021F1E88DE5B9E4B9FB81F8B9EC812A81EF
:103AD000E22BE7B9852D0E941A080E9486088C0106
:103AE000F7B89C01A0E1B7E20E943B3C2091320173
:103AF0003091330140E050E00E94F73BA901B8014A
:103B00008091680190916901C3DD90936501809374
:103B10006401809119018F70843009F4E0C1EB8158
:103B20003F81E32BE8B94C81342B37B915B85D815F
:103B300054B9852D0E941E087C01842D0E94220804
:103B40009E838D830091140110911501BC01C70162
:103B50000E948B089801DC010E943B3CED81FE81B4
:103B60009F0140E050E00E94F73B309365012093B5
:103B70006401B5C188E088B9FA81F7B925B82B8509
:103B800024B9852D0E941E08998B888B0E94860877
:103B900098878F83832D0E9422089A878987430103
:103BA00034E6830E911C4F815885B3018416950627
:103BB000D8F4CA010E948B088C0120911B0130911E
:103BC0001C0140E050E060E871EA83E09CE10E9463
:103BD000F73BD8010E94503CE985FA858F0120E02F
:103BE00030E0A901980123C08F8198850E948B083D
:103BF0008C01FD81F4B9852D0E941E08998B888B5C
:103C00000E94860898878F83832D0E9422089A87B6
:103C10008987BC01C8010E948B089C01A4E6B0E022
:103C20000E943B3CE985FA859F0140E050E00E94FC
:103C3000F73B69017A0114B815B8FB81F8B92C81FA
:103C400027B981E00E94EA07A4B8842D0E941E08CB
:103C5000BC84388DB32A8F359D4008F446C1B4B872
:103C6000842D0E941A088C01832D0E9422089D8BAE
:103C70008C8B852D0E9422089F8B8E8B8C899D8931
:103C8000813D974008F4B7C084E080931A018DE02D
:103C9000809319016016710630F4980126193709CE
:103CA0003E832D8302C01E830D838090140190906B
:103CB0001501A12CB12C60E871EA83E09CE1A5011B
:103CC00094010E94F73BAD81BE810E94503CEC897B
:103CD000FD899F0140E050E00E94F73B80916F0119
:103CE000882369F08091600190916101A091620147
:103CF000B091630182179307A407B50708F52093D5
:103D00006001309361014093620150936301980117
:103D1000A0E1B7E20E943B3CA50194010E94F73B61
:103D200030936701209366016C897D898E899F8914
:103D30000E948B08909365018093640181E001C02B
:103D400080E0409160015091610160916201709149
:103D500063014C155D056E057F0538F5C092600165
:103D6000D0926101E0926201F092630169857A85E7
:103D7000888999890E948B089093650180936401DA
:103D80002F813885A0E1B7E20E943B3C20911B01C6
:103D900030911C0140E050E00E94F73B205F384D1D
:103DA000309367012093660103C0882309F4B1C3EF
:103DB000C0901401D0901501E12CF12C9301A0E1E9
:103DC000B7E20E943B3CA70196010E94F73B30936B
:103DD0006901209368012D853E85A0E1B7E20E942C
:103DE0003B3CA70196010E94F73B30936B01209367
:103DF0006A0181E08EC3F1E66F16710408F075C0A8
:103E0000013D27E0120708F470C085E080931A0195
:103E100082E180931901C80186509F4F4E895F89C6
:103E20008417950720F483E18093190119C08091CC
:103E30001401909115019E838D83B8018E899F890D
:103E40000E948B082D813E81DC010E943B3C980141
:103E500040E050E00E94F73B3093650120936401FD
:103E60009A899770E92E832D806480937C00EBE023
:103E7000FE2EE1E0F0E0FE83ED830FEF13E0A89566
:103E800061E089817AD5B4B886B18E21E9F3FC85E9
:103E9000F4B980917A00806480937A0080917A00EE
:103EA00086FDFCCF80917800909179009801281BC5
:103EB000390B4D815E81420F531F5E834D83FA940F
:103EC000F110DDCFCA01880F991F880F991F69E093
:103ED00070E00E94D03B70936B0160936A01809107
:103EE0006F018F5F80936F0184CFB4B8588D55B93F
:103EF000842D0E941E086C01832D0E942208988741
:103F00008F830E9486089A8789878C149D04A8F461
:103F1000B301C6010E948B088C01209114013091DD
:103F2000150140E050E060E871EA83E09CE10E9406
:103F3000F73BD8010E94503C1FC0A4B8F981F5B9E5
:103F4000842D0E941E086C01832D0E9422089887F0
:103F50008F830E9486089A878987C6016C147D0426
:103F600010F48619970969857A850E948B089C014F
:103F7000A4E6B0E00E943B3CE985FA859F0140E061
:103F800050E00E94F73B49015A01FA81F7B988E0F5
:103F900088B92D8124B925B9852D0E941E088C0170
:103FA000832D0E9422089A878987842D0E942208E7
:103FB0007C01003331E1130708F0BFC125B8852D1E
:103FC0000E941E08998B888B24B8852D0E941E089C
:103FD0009D8B8C8B15B881E00E94EA0725B8852D52
:103FE0000E941E084C895D894034564008F05DC02F
:103FF0008133914108F459C0C8018A569F4F2889DE
:1040000039892817390708F050C086E080931A01D3
:1040100080914F018F5F80934F01B70189859A8509
:104020000E948B089093450180934401B701C80119
:104030000E948B0890934B0180934A0114B815B8E5
:104040003A8938B981E00E94EA0724B8852D0E9498
:104050001E08853F910508F06AC24D8144B9832D41
:104060000E941E08813D934008F461C2852D0E9484
:1040700022088D3D924008F45AC224B8852D0E9432
:104080001E088D3D924008F452C225B881E00E947E
:10409000EA0715B8852D0E941E08853F910508F096
:1040A00046C287E080931A0142C22A8127B939812A
:1040B00034B935B981E00E94EA074B8544B945B966
:1040C000852D0E941E088C010E948608998B888B82
:1040D000832D0E9422089E838D830E9486089A87E2
:1040E0008987842D0E9422087C0189859A858E3FCC
:1040F000994008F4B2C084E080931A018CE0809368
:104100001901B301888999890E948B088C0120913B
:104110001B0130911C0140E050E060E871EA83E04F
:104120009CE10E94F73BD8010E94503CE985FA854A
:104130009F0140E050E00E94F73B80914F018823AF
:1041400069F08091400190914101A0914201B091AC
:10415000430182179307A407B50728F52093400170
:10416000309341014093420150934301B7018D8147
:104170009E810E948B089093450180934401288979
:104180003989A0E1B7E20E943B3C20911B013091AC
:104190001C0140E050E00E94F73B30934701209320
:1041A000460181E001C080E0409140015091410111
:1041B0006091420170914301481559056A057B05DC
:1041C00028F58092400190924101A0924201B09264
:1041D0004301B6018F8198850E948B089093450119
:1041E000809344019601A0E1B7E20E943B3C2091FC
:1041F00014013091150140E050E00E94F73B205F30
:10420000384D309347012093460103C0882309F4B9
:104210008FC19301A0E1B7E20E943B3C20911401C1
:104220003091150140E050E00E94F73B3093490186
:10423000209348012D853E85A0E1B7E20E943B3CDA
:1042400020911B0130911C0140E050E00E94F73B9F
:1042500030934B0120934A016AC1F1E66F16710455
:1042600008F06BC02889398929343D4008F465C0BD
:1042700085E080931A0182E080931901C70186507E
:104280009F4F8017910720F483E08093190117C096
:10429000C0901B01D0901C01B701C8010E948B087F
:1042A0009601DC010E943B3CE889F9899F0140E0CE
:1042B00050E00E94F73B30934501209344010B816D
:1042C0000770832D806480937C001BE021E030E048
:1042D0003E832D83A89560E089814FD33B8534B917
:1042E00035B986B18023E9F724B880917A008064DB
:1042F00080937A0080917A0086FDFCCF80917800CF
:10430000909179004D815E81480F591F5E834D83E6
:10431000115001F7CA01880F991F880F991F69E092
:1043200070E00E94D03B70934B0160934A018091F2
:104330004F018F5F80934F01FAC088E087B988B939
:1043400014B815B888E087B957EC651651E07506C2
:1043500008F4D0C088B98F8584B998EC9D83EC812E
:10436000FA81EF2BEF832F8127B981E00E94EA07C2
:104370003A8137B9852D0E942208429728F04D8155
:1043800041504D834111EFCF5F8554B955B961E07C
:104390008981F3D2852D0E941E086C018B8984B916
:1043A00015B89C8197B9EB81E8B960E08981E5D2C5
:1043B000842D0E941E080E9486089E838D83FC85A2
:1043C000F4B9842D0E9422088C01852D0E941E08BC
:1043D000B8010E948B087C01842D0E9422088C0168
:1043E000852D0E941E08B8010E948B0897012C5E43
:1043F0003F4F2817390708F480C088E088B92A8120
:1044000027B924B825B861E08981B7D2842D0E94EC
:1044100022088C01852D0E941E08B8010E948B087D
:104420008C01E816F90658F43F8534B935B9852D65
:104430000E941E089C01CD82DE82780110C04B894B
:1044400044B915B85C8157B98B8188B960E089811E
:1044500094D2842D0E941E080E9486089C0198EE2A
:10446000E91693E0F90630F4C70164E670E00E94B3
:10447000D03B06C0B70154E0769567955A95E1F7B1
:10448000C7018759910989389141A0F52E153F053B
:1044900088F58D819E8143E0969587954A95E1F751
:1044A000893C910510F088EC90E02D813E81820FCF
:1044B000931F8E159F05F0F462177307D8F480914F
:1044C0001A01833018F483E080931A0120911801B7
:1044D000822F90E0FC01EF56FE4F50824682880FFB
:1044E000991FFC01E356FE4FF182E0822F5F20937B
:1044F000180103C0642D852D29D088E087B988B9BB
:1045000014B815B88EE20E94990C6896E2E10C94FA
:10451000013D90916F019F5F90936F01882369F334
:1045200030926C0140926D0150926E01E6CF81E0B5
:1045300090914F019F5F90934F018823F1F2309249
:104540004C0150924D0140924E01D7CFA0E0B0E017
:10455000ECEAF2E20C94E73CA895462F50E0FA0111
:10456000E957FD4F949033969491A82FB0E0FD0148
:10457000E957FD4FE4903396F49070916F012091CC
:104580004F0130E0270F311D232B09F0F1C1A89511
:1045900020911E0130911F01220F331F220F331F64
:1045A00030933101209330012091740130917501D5
:1045B000220F331F220F331F30932F0120932E0120
:1045C0002EEB20932C01C0911801E1E9F1E070E09D
:1045D0004A0F5B1F7C1759F02191A58130E02A0F0B
:1045E000311D2417350709F456C07F5FF3CFD62F4E
:1045F000C82F88E088B9E92FE860E7B9E4B8E5B8E2
:10460000B8E1BB2EC12CD12C8D2F0E941E08782E14
:10461000692E8C2F0E9422088C018C199D0997FF0E
:1046200003C0919581959109039734F0A895BA94A8
:104630006801B110E9CF2FC0EE0C15B8E4B88C2F8B
:104640000E941E088135910530F5E5B88C2F0E9437
:104650001E086C018F2D886087B9F8B815B894B81A
:10466000A8E18A2EA12CB12C8C2F0E941E08582E56
:10467000492E8D2F0E9422087C018A199B0997FFE1
:1046800003C09195819591090397CCF0A8958A94E0
:1046900057018110E9CF80911E0190911F019093E5
:1046A0003101809330018091740190917501909354
:1046B0002F0180932E0189E180932C0159C1990C1F
:1046C00094B88D2F0E941E085C01003C84E41807FA
:1046D00030F425E8C21621E0D206E8F605C080EBEA
:1046E000C8168DE4D806B8F624EAE21622E0F206EF
:1046F00008F06CC088E9A816B10468F2C6010E94EF
:104700008608AC019601A8E9B7EB0E943B3C9A01F0
:1047100040E050E00E94F73B29013A01C5010E94A8
:1047200086089C01A8E9B7EB0E943B3C850120E08C
:1047300030E0A90198010E94F73B88E7C8168FE096
:10474000D80680F4D301C201F2E0880F991FAA1F96
:10475000BB1FFA95D1F7BC01CD01620F731F841FF7
:10476000951F14C088E7A8168FE0B806B0F4DA01E8
:10477000C901E2E0880F991FAA1FBB1FEA95D1F774
:10478000BC01CD01640D751D861D971D25E030E02F
:1047900040E050E00E94F73B0CC0D301C201820F01
:1047A000931FA41FB51F9C01AD01569547953795E2
:1047B0002795A4E6B0E00E94503C2B013C012CEA76
:1047C000420E2DE0521E611C711C79C0672D762DA2
:1047D0000617170708F4B801C52CD42CCE14DF0433
:1047E00008F467010617170708F48B01A0901B0156
:1047F000B0901C01C8010E948B089501DC010E9449
:104800003B3C2B013C01C8010E9486089C0140E012
:1048100050E0C301B2010E94F73B29013A01CE14D6
:10482000DF0408F47601A0901401B0901501B701DF
:10483000C6010E948B089501DC010E943B3C4701A8
:10484000A12CB12CA50194010E94F73B08378FE001
:10485000180780F4D301C20162E0880F991FAA1FD4
:10486000BB1F6A95D1F7BC01CD01620F731F841F76
:10487000951F14C088E7E8168FE0F806C0F4DA0147
:10488000C90132E0880F991FAA1FBB1F3A95D1F7C3
:10489000BC01CD01640D751D861D971D25E030E01E
:1048A00040E050E00E94F73B29013A0108C0420E67
:1048B000531E641E751E7694679457944794109106
:1048C0001A01143008F0E7CEC1500C2F0D0F202F25
:1048D00030E0E901C65ADE4F8881220F331F220FD4
:1048E000331FF901E255FE4F8823D9F1C080D180F2
:1048F000E280F380A30192012C193D094E095F0962
:1049000057FF07C050954095309521953F4F4F4F29
:104910005F4FAAE0B0E00E94503C24E6C20ED11CDA
:10492000E11CF11CA7019601240D351D461D571DE4
:104930000E94F73B232B242B252B09F0ACCE133000
:1049400019F081E080931A0182E0888380917601DA
:10495000E82FF0E0E35AFE4F00838F5F80937601EB
:104960009ACE408251826282738281E0888393CEA4
:10497000CDB7DEB7E0E10C94033DCF93C82FC095CF
:1049800095B160FF02C0982B01C09C2395B994B1EA
:10499000892B84B982E00E94EA0784B18C2384B910
:1049A00085B1C823C5B9CF910895A0E0B0E0EBED83
:1049B000F4E20C94ED3C1AE008E08FE3C82E99E095
:1049C000D92E07B908B915B8C4B880E00E941E08EE
:1049D0007C0181E00E942208EC0182E00E94220812
:1049E0009C0180911A01893081F488E087B914B85C
:1049F000F0925501E0925401D0935701C0935601B3
:104A000030935901209358015BC084E0E816F1040B
:104A100040F4C430D10560F42430310530F399E01E
:104A20000BC088EEE81683E0F80610F098E001C0AD
:104A300099E0C83ED34008F49260283E334008F421
:104A4000946097B9C0E0D0E0A89580E00E94160875
:104A50005C0181E00E9422087C0182E00E94220821
:104A600024E1A21625E0B20608F4389A24E1E21601
:104A700025E0F20608F4399A843125E0920708F41B
:104A80003A9A26E0A216B10430F426E0E216F104C8
:104A900010F4069738F02196C43F81E0D807A1F6BC
:104AA000D0921A01E12CF12CEC16FD0631F00E9497
:104AB000D9072FEFE21AF20AF7CF115009F081CF90
:104AC000CDB7DEB7EAE00C94093DCF92DF92EF92CA
:104AD000FF92CF9320917B0130917C0140917D0129
:104AE00050917E01C0918D018AE0C82ED12CE12C1D
:104AF000F12C8C2FCF5F213A96E8390791E04907D6
:104B0000510538F0CA01B901A70196010E94F73B8F
:104B1000F0CF80938D01A0913001B09131010E94BE
:104B2000503C28E833E140E050E00E94F73B2093FE
:104B30007B0130937C0140937D0150937E01CF91A6
:104B4000FF90EF90DF90CF900895A0E0B0E0EBEA07
:104B5000F5E20C94EB3C982F990F980F2FEF260F4E
:104B6000920F90935101E82FF0E0E957FD4F149117
:104B7000262F30E0F901E957FD4FF490F901E6578F
:104B8000FD4FD49190911A01913009F4A2C2209165
:104B90001801A1E9B1E0FD0190E0921791F0368192
:104BA00063130BC03081831308C01C964D915C9138
:104BB0001D974C3D554008F48CC29F5F319612966C
:104BC000ECCF062FC82FD860109288011092870171
:104BD00081EF80938D0110927B0110927C011092E5
:104BE0007D0110927E01E1DE88E088B9D7B9F4B882
:104BF000F5B88C2F0E9422085C01802F0E942208A9
:104C0000A81AB90A14B81092530110925201809157
:104C1000520190915301843F914008F0AAC015B908
:104C200014B90E94D30714B815B80E94DA07A895E2
:104C30008C2F0E9422087C01EA18FB088091520107
:104C4000909153018E37910528F08BE4E816F1041A
:104C50000CF48FC080915201909153012DE2E21625
:104C600021E0F20634F401969093530180935201AF
:104C7000CECF892B09F0A4C185E1E81685E0F806BE
:104C80000CF49EC192DE15B88FE087B988E088B930
:104C9000F12EFF0CF4B880E480937B0084E580BFA4
:104CA0008C2F806480937C0086E180937A000E9440
:104CB000DD07109253011092520110928000109261
:104CC00085001092840087E286BB81E280936F00AA
:104CD00081E080937801F5B890911A01809381006A
:104CE000953009F04CC081E090E00C2E01C0880F97
:104CF0000A94EAF780958F7087B9F89483B7817F1B
:104D000083BF80917801882389F083B7816083BF56
:104D10007894889583B78E7F83BFF894A895809107
:104D20005201909153018034964059F77894109233
:104D30008100E0908600F090870010926F0086E975
:104D400080937A0014B815B88C2F0E942208209105
:104D5000340130913501821B930B0C969093900196
:104D600080938F0180915201909153018032934042
:104D700040F088E087B988B914B815B8AAC1D7B986
:104D8000BCCF809152019091530190938601809302
:104D90008501F0928401E092830184EF80938D017C
:104DA000809152019091530182349105C8F0609135
:104DB000830170918401809185019091860124E6A0
:104DC00030E040E050E00E94F73B209383013093B5
:104DD0008401409385015093860186EF80938D0175
:104DE000A0917901B0917A012091830130918401E1
:104DF00040918501509186010E94503C20E233E0B1
:104E000040E050E00E94F73B2093830130938401FF
:104E1000409385015093860120937B0130937C0160
:104E200040937D0150937E0150DE80918D01843F3F
:104E300009F071C0C0907B01D0907C01E0907D01B1
:104E4000F0907E0180EAC8168FE0D806E104F104F4
:104E5000C0F4A70196012C543F4F4F4F5F4F60EABB
:104E60007FE080E090E00E94F73BC20ED31EE41E7C
:104E7000F51EC0927B01D0927C01E0927D01F09200
:104E80007E01C0907B01D0907C01E0907D01F0908C
:104E90007E01C114D10421E0E206F10428F4D0928D
:104EA000BF01C092BE0106C081E090E09093BF01B7
:104EB0008093BE018091510190E0845C9C4F0E94E0
:104EC000783D90E0A0E0B0E0B701A6018C159D050B
:104ED000AE05BF0568F4481B590B6A0B7B0B40936A
:104EE0007B0150937C0160937D0170937E0113C020
:104EF0004C5E5F4F6F4F7F4F481759076A077B071C
:104F000010F40E94B11410927B0110927C01109257
:104F10007D0110927E0114B980917B0190917C01FA
:104F2000A0917D01B0917E014997A105B10508F4DA
:104F300020CFC12CD12C80911801882329F0809199
:104F40001A01853009F015CF88E080931A0180910D
:104F50008D0190918E019817C4F089130ACF80902B
:104F60007B0190907C01A0907D01B0907E014091EA
:104F70007F015091800160918101709182014815FB
:104F800059056A057B0508F0F4CE40917B015091EC
:104F90007C0160917D0170917E0140937F0150936F
:104FA0008001609381017093820180938E01D09281
:104FB0008A01C092890100938B01C0938C01D9CEE4
:104FC000C701C12CD12C20915201309153012C15D5
:104FD0003D0560F00E94D4078C2F0E9422088A1998
:104FE0009B09A8952FEFC21AD20AEDCF5701A81A34
:104FF000B90A1A141B049CF439ECA316B1040CF082
:10500000B8CE28EE33E0D5010E944A3C97010F2C20
:10501000000C440B550B0E94F73B690102C0C12CE8
:10502000D12C80915201909153010196A0E0B0E003
:105030008093830190938401A0938501B0938601AE
:10504000C7018A0D9B1D0E94EC08209183013091BD
:1050500084014091850150918601DC010E94503C01
:1050600060938301709384018093850190938601FE
:1050700060937B0170937C0180937D0190937E010E
:1050800087EF80938D0121DD80907B0190907C01E2
:10509000A0907D01B0907E018FE193E00E94783D69
:1050A000A8EEB3E0A81BB10987FDB395A501940153
:1050B0000E945A3C24E630E040E050E00E94F73B7A
:1050C00020937B0130937C0140937D0150937E01BE
:1050D00032CFCDB7DEB7ECE00C94073D1F920F92B4
:1050E0000FB60F9211248F939F93B59904C08091AE
:1050F0007801811109C0B59B10C080918600909104
:1051000087008A3F910548F48091520190915301A4
:10511000019690935301809352019F918F910F902C
:105120000FBE0F901F9018951F920F920FB60F92FF
:1051300011248F939F9310927801B09B10C080919F
:105140008600909187008A3F910548F48091520132
:1051500090915301019690935301809352019F9136
:105160008F910F900FBE0F901F901895A0E0B0E0A8
:10517000ECEBF8E20C94EB3C88E893E190931F0190
:1051800080931E0190933101809330018EEB8093C8
:105190002C01C8E0C8B988E187B90E94E207C7B905
:1051A00084E00E941E08AC018B5C9840833F9140D4
:1051B000A0F481E080933B012091300130913101D6
:1051C000AFEBB9E00E943B3C9A0140E050E00E9406
:1051D000F73B30931F0120931E0180911E01909197
:1051E0001F0190933101809330018EE00E942208CC
:1051F0008EE00E941E0890933501809334010E9436
:105200009408D3DB88E0F82EF8B8C9E0C7B985E187
:1052100085B9D1E0D4B980E00E941E088C019AE0E3
:10522000D92ED7B824E0B22EB4B881E00E941E086F
:10523000080F191F3CE0E32EE7B840E1C42EC4B8C4
:1052400082E00E941E08080F191F15B8C8B9C7B917
:10525000D4B980E00E941E080E948608EC01D8B8EC
:10526000D7B8B4B881E00E941E080E948608C80F13
:10527000D91FE8B8E7B8C4B882E00E941E080E94AF
:105280008608C80FD91FF7B8F8B814B820913001B4
:10529000309131016901CC0CDD1CC20ED31EC01A45
:1052A000D10ACC1ADD0AE12CF12C9801A0E9BAE16F
:1052B0000E943B3CA70196010E94F73B49015A011D
:1052C00030933A01209339019E01A0E9BAE10E948E
:1052D0003B3CA70196010E94F73B3093330120939A
:1052E00032012057354E30931C0120931B0180E77B
:1052F000881A85EE980A909215018092140189E12E
:1053000080932C01CDB7DEB7ECE00C94073DCF9233
:10531000DF92EF92FF920F93CF93DF93F82EC62F79
:10532000D42F0E940C0D88E091E00E941A0DFAD152
:105330006C2F8F2D0E94ED39C090C201D090C30117
:10534000E090C401F090C5018091200187FD05C067
:10535000C114D104E104F10421F084E091E00E9441
:105360001A0D8C2F0E940C0DC114D104E104F1041C
:1053700031F00E94C70680915D010E942B07DD235A
:1053800051F080913C018D3030F490E0805C9C4F76
:105390000E941A0D02C00E94930B80E00E94B40B81
:1053A000CD28CE28CF28D9F06091C2017091C301D9
:1053B0008091C4019091C50103E028E447EF0E9469
:1053C0005F0D87E191E00E941A0D81E593E00E9454
:1053D000803D23E046E464EF0E94480E1AC08091AD
:1053E0005D010E942B07809120018E3F94F48FE293
:1053F00091E00E941A0D6091A9017091AA0180911B
:10540000AB019091AC0103E028E4409120010E949F
:105410005F0D8091BA019091BB01A091BC01B09148
:10542000BD01892B8A2B8B2BF1F080E00E94B40BFD
:105430006091BA017091BB018091BC019091BD0156
:1054400004E028E440E00E945F0D82E191E00E94C8
:105450001A0D23E040E26FEF8091C0019091C101ED
:105460000E94480E07C080E00E94990B80913F0186
:10547000811102C00E94930BDF91CF910F91FF9099
:10548000EF90DF90CF900895EF92FF920F931F93CC
:10549000CF93DF93182F0E94280B80918B010E94DD
:1054A0000C0D8BE491E00E941A0D74D360918B0176
:1054B00080918C010E944F09EC01909388018093A8
:1054C0008701E0908901F0908A01CA3F8FEFD807E9
:1054D00020F489E091E00E941A0D80918C010E94D5
:1054E0000C0D112359F090913C018DE0891B0E9415
:1054F000F40A89E690E00E941A0D02C00E94930B04
:105500000E947B0B60917F017091800180918101ED
:105510009091820104E026E440918E010E945F0D8B
:10552000CA3FDF4F68F48AE391E00E941A0D22E03F
:105530004DE16EEF80918701909188010E94480EA5
:105540000E94930B0E94830BE114F10469F083E342
:1055500091E00E941A0D22E045E26FEF80918901EF
:1055600090918A010E94480E0E94930BCDB7DEB73E
:10557000E6E00C940D3D8F7021F40E948B0B0C948F
:10558000FB1A08958F3021F490913601913011F07B
:105590008F5F089580E00895CF9384E790E0D1D79E
:1055A0006AE080E00E94FD0A8AE493E00E941A0DFE
:1055B000C0E00E947F1060E082E00E94A62262E0CC
:1055C00080E00E94A6220E94280B80917601882309
:1055D00029F041E062E080E09ADE12C084E790E0CA
:1055E0000E941A0D8AE493E00E941A0D0E947B0B20
:1055F0008FE30E94990C80E00E94990B0E94930B0C
:105600008C2FB9DF88EE93E00E94C80F811109C08A
:1056100080911301843028F48C2FB4DFC82F8A3F87
:1056200040F20E942F0BCF9108950F931F93CF93B9
:10563000DF93C0E0D8E012EF0DE00E947F1060E041
:1056400082E083DAD0931A0180918D01843FE1F4E6
:1056500080917B0190917C01A0917D01B0917E01B0
:1056600084369105A105B10578F440E060E082E060
:105670000E947C3760937B0170937C0180937D0155
:1056800090937E0110938D0180918D01823FACF04B
:1056900080938E0180917B0190917C01A0917D018E
:1056A000B0917E0180937F0190938001A09381014E
:1056B000B093820181E0E8DE1CC00E94280B8DE6D9
:1056C00090E00E941A0D80913C01902F981B892F29
:1056D0000E94F40A89E690E00E941A0D0E947B0B5A
:1056E0008FE30E94990C0E94930B0E94830B0E94EF
:1056F000930B8C2F40DF88EE93E00E94C80F81113E
:105700000AC080911301843030F48C2F3BDFC82F06
:105710008A3F08F492CF0E942F0BDF91CF911F9107
:105720000F910895A4E1B0E0E8E9FBE20C94E53CB8
:1057300082E08093200180911A01813009F026C215
:1057400080917601813009F021C200915D0124E051
:10575000029FF0011124E255FE4F80819181A281C8
:10576000B381893032E59307A105B10508F00EC277
:105770004C0110E0802F123028F40E942107582E8F
:10578000492E03C00E9421072C01E42DF0E0E657CA
:10579000FD4F2490852D90E0FC01E957FD4FE491E9
:1057A00015B828E028B930EF83169104B8F410FD3D
:1057B00015C0A0901401B090150120E9A21A2AE1A9
:1057C000B20A21E030E0052C02C0220F331F0A94F8
:1057D000E2F7C9018860822987B908C0E4B9822D3F
:1057E000886087B9A0901401B0901501F4E13F2EB4
:1057F000852D0E941A083C01842D0E94220834E065
:105800006316710410F4049718F03A943110F0CF35
:1058100080E480937B0094E590BF852D8064809325
:105820007C0026E120937A00E12CF12C109280007C
:10583000109285001092840087E286BB0E94DD07EB
:10584000312F3170332E10FD05C081E88093810027
:1058500028B808C028B80E94E60780E286BB81E825
:105860008093810086B385FF13C098E098B91092A9
:10587000810020E226BB20918600309187006901DB
:1058800040918400509185002417350770F014C0B2
:1058900080FFE8CF31E036BBA89597012F5F3F4FDF
:1058A000790120353105F1F6E0CF80FF05C081E0B8
:1058B00086BB9FEFE91AF90A86E980937A00E4E152
:1058C0002E2E852D0E941A083C01842D0E9422084C
:1058D00024E06216710410F4049718F02A94211041
:1058E000F0CF4090390150903A01480C591C4A0CB5
:1058F0005B1C209116013091170180E9A8168AE1FE
:10590000B806B0F491EEC916D104E104F10438F4FC
:10591000C60165E070E00E94D03B645101C069E1BE
:1059200028523109261B310967FD339586E009C0ED
:10593000C20160EB76E30E94D03B87E0860F285DD2
:105940003F4F90E0A0E0B0E08C159D05AE05BF058F
:1059500028F4C81AD90AEA0AFB0A03C0C12CD12CC0
:105960007601332029F082E2C80ED11CE11CF11C23
:1059700090E5E916F10418F0C12CD12C76018BE0EA
:10598000C816D104E104F10428F091E0C91AD10845
:10599000E108F1084091300150913101612C712CE6
:1059A000A8EEB3E00E943B3C698B7A8B8B8B9C8B7F
:1059B0009501DA010E943B3CA30192010E94F73B52
:1059C0004427552769897A898B899C890E94F73BEE
:1059D000C9010E942B09FC01A3019201C701B60174
:1059E0000E94B53B2B013C01CF01A0E0B0E073E089
:1059F000880F991FAA1FBB1F7A95D1F7BC01CD0153
:105A00006B5F7F4F8F4F9F4F2AE030E040E050E0C8
:105A10000E94F73BC301B2010E94F73BE12FF0E087
:105A2000A1E0B0E0AC0FBD1F84E0189FA00DB11D38
:105A300011242D933D934D935C931397311016C011
:105A40009CE0C916D104E104F10480F03196EE0F18
:105A5000FF1FEE0FFF1F81E090E08C0F9D1FE80FEE
:105A6000F91F20833183428353831F5FA8951F5FF3
:105A7000143008F47FCE88E088B984E00E94EA07F9
:105A800091E00D811E812F81388549815A816B817A
:105A90007C81401751076207730708F090E00D857D
:105AA0001E852F85388949855A856B857C854017E9
:105AB00051076207730710F483E001C082E0E92F09
:105AC000F0E0EE0FFF1FEE0FFF1F21E030E02C0F84
:105AD0003D1FE20FF31FD90134E0839FA00DB11DDC
