:10000000CFC60000DFC60000DDC60000DBC6000072
:10001000D9C600000C94D629D5C600000C94EF0D6B
:10002000D1C60000CFC600000C941C200C94BA2945
:100030000C94C8290C94F61FC5C60000C3C6000066
:100040000C949429BFC60000BDC60000BBC60000CA
:10005000B9C600000C94F00DB5C60000B3C6000090
:10006000B1C60000AFC60000C008C208C608D0086C
:10007000CE08CA08CA08CC08D608D608E62FF72F3B
:10008000903009F49395E5B8C4B8B6EFB0937A0010
:10009000A5E0A0937B00A8E0A093810010928000CF
:1000A000AFEFA0938500A0938400A6E0A093360054
:1000B00010928B0010928A00B3E0AFE3A91B51E0CD
:1000C000392F33302AF0A05CBC4F53953350F9CF11
:1000D000B0938900A0938800A0917A00A4FFFCCF80
:1000E000B6EBB0937A00A2E0A0936F00A9E0A093D2
:1000F000810062E0A0E0A0937B00A1E0A093530008
:100100008895E5B8C4B884FF1AC0A8E10000AA9594
:10011000F1F7EF93FF93E7B1F8B1A4E0C2FCA2E0DE
:10012000C0FCA1E0BF2FBA2BAE2BB8B904B9A7B958
:10013000E7B9F8B9FF91EF910BC00C947D00ACE1E9
:1001400000000000AA95F1F725B9E5B8000004B950
:10015000A0918400A0918500B0918900A395AB1770
:1001600060F7A0917A00A4FFF3CFB6EBB0937A00CA
:100170006A9571F76091780070917900308186FD01
:10018000630F6193308186FD731F80FF7193652F2C
:100190004A9579F710926F0010928100B6E0B09303
:1001A0007A000895EE01E501DC011008407E0101AE
:1001B0003E01013E01013E01017E40401800072042
:1001C000080808F80000002060A03FA0602002029C
:1001D00002FF0202021010101F0000000708FFDBE0
:1001E000BDB5B5CBFF0708FFBB9DADADB3FF07089D
:1001F000FFFFF7FB81FFFF10100508F878385888DB
:10020000091003081C3E7F0D080710FF818181F152
:10021000E1C1FF4040404743410D080110FFFF117D
:10022000080310F1E1C14743410E000820212112CB
:100230002060E0E0E0FEFE0402010001037F7F2178
:10024000C2C4C4C04094840007030102040E080223
:1002500010FEFE7F7F00000000110005202060E0FE
:10026000E0E00201000103C2C4C4C0400703010270
:1002700004010410090A0C4E6F742063616C6962FA
:1002800072617465642100B903870358032E030764
:1002900003E402C302A40288020000140029003E05
:1002A000005300690080009700AE00C600DF00F830
:1002B0000012012D01490165018201A001BE01DE8C
:1002C00001FF012102440268028E02B502DE02092A
:1002D00003350364039403C803FE0337047304B4B3
:1002E00004F90443059305EA054906B3062907AE58
:1002F000074808FF08DE09FD0A930C480F991B0008
:100300000000000000000000000000000000001ECF
:100310002121211200807F0000007E4A4A4A3400D9
:100320000000000000FC4020100804020100000052
:10033000010101010101010101010101017F0488A5
:10034000D0E0F0F800000000000000000000000015
:10035000000000000000FC94948400000102FC00F6
:1003600000000000000000000000001E21212112FA
:10037000E0C0804020100F000000C020202040007E
:100380000000FC00009E9E04030303030200000023
:10039000202023242525232020203F00007B7B21B3
:1003A00042840480C0000000000000000000000043
:1003B000000000FC94948400040607070708F0007E
:1003C000000000000000000000000000803F21212C
:1003D000120C00000000FF000000F0084848C800B0
:1003E00000FE0000E7818181C1E1F181818101008E
:1003F0002020202121212020203F0000F3404040E8
:1004000041434740407FC000000000000000000062
:100410000000000000489494946400000000FF0075
:100420000000000000000000000000000000003F8D
:100430002121120C0000FF000000F0084848D00005
:100440000000000000FEFE0404040404040407008D
:1004500008080809090908087F3E1C08087F7F2052
:10046000202020202020E0000000000000000000EC
:100470000000000000000048949494640000FF0015
:1004800000000000000000000000FF003C0A090A14
:100490003C002231292926000082868E9EBEFEFE67
:1004A000BEDEEFF6FAFEFEFAF2E2C28200000008BB
:1004B000080804027984A4A46800FF00000000007A
:1004C000000000000000000000000000000000002C
:1004D0000000FF0000F0282428F0001008FC0000B5
:1004E000000000000000000000003C0A090A3C0077
:1004F000FF000000000000000000000000000000FD
:10050000000000040C1C3C7CFF7C3C1C0C04000024
:10051000000000009EA1A9A99A804323130B0703A2
:10052000FF030303030303000000000000000000BA
:100530000000788484844800FF0000000000000070
:100540000000F00804E2110909090909090909096B
:100550001121C2040810E000000001020404070099
:10056000000000008040201088442310080403008D
:1005700000000000000000000000FE0100FC02017D
:10058000000000000000000000000000000000006B
:10059000000079494979000000000000000000C017
:1005A000F818181818F8C00007060606060700C055
:1005B000FCF8F0E0DCFCC0000F0703010E0F00C0E8
:1005C000FCDCE0F0F8FCC0000F0E0103070F00C0D8
:1005D000FCFC0000FCFCC0000F0F00000F0F00F03F
:1005E000F80C0C0CF8F0000C0D0F000F0D0C0000B7
:1005F000FCFC0000F8F800381F0F03060307060C88
:100600000C0C0C0CFCFCC00C0C0C0C0C0F0F00C0E8
:10061000FCFC0C0C0C0C0C000F0F0C0C0C0C0CC08C
:10062000C0C0C0C0C0C0C00000000000000000C0CA
:1006300000008000008000070C0C070C0C070C0069
:10064000800000800000C00C070C0C070C0C070099
:10065000F8FC4662BC1800381F0F000407030000B6
:10066000000000000000000000000000000000008A
:10067000000000000000000000000000000000007A
:10068000000000000000000000000000000000006A
:10069000000000000000000000000000000000005A
:1006A000F8FC0602FEFE00381F0F08080F1F38FE78
:1006B000FE0000FEFE00000F0F08080F3F1800FEAE
:1006C000FE00F800FEFE000F0F080F080F3F180095
:1006D00080E03010F0F000381F0F08080F1F38C0FE
:1006E000E028F828E0C000070F283F280F0700F097
:1006F000F00000F0F000000F0F08080F3F1800F0A6
:10070000F000F000F0F0000F0F080F080F3F180086
:1007100000000000000000000000000000000000D9
:1007200000000000000000000000000000000000C9
:1007300000000000000000000000000000000000B9
:1007400000000000000000000000000000000000A9
:100750000000000000000000000000000000000099
:100760000000000000000000000000000000000089
:100770000000000000000000000000000000000079
:100780000000000000000000000000000000000069
:100790000000000000000000000000000000000059
:1007A0000000000000000000000000000000000049
:1007B000007CFEFE7C00000000001B1B000000000F
:1007C0000E1E00001E0E00000000000000000020B1
:1007D000F8F820F8F82000020F0F020F0F0200387F
:1007E0007C444747CC9800060C0838380F070008AF
:1007F0001494C860301800060301040A0A0400803B
:10080000D87CE4BCD84000070F0808070F08000098
:10081000080F0700000000000000000000000000BA
:1008200000F0F80C0400000000070F181000000092
:1008300000040CF8F00000000010180F0700004042
:1008400050F0E0F050400000010100010100000004
:100850004040F0F0404000000000010100000000B6
:100860000000000000000000002C3C1C000000C044
:10087000C0C0C0C0C0C000000000000000000000F8
:100880000000000000000000000C0C000000000050
:100890000080C0603018000603010000000000F86E
:1008A000FC060206FCF80003070C080C0703000016
:1008B000181CFEFE0000000008080F0F0808000CBE
:1008C0000E82C2623E1C000E0F0908080C0C0004C8
:1008D00006424242FEBC00040C0808080F0700C094
:1008E000E0B098FCFE8000000000080F0F08003EFA
:1008F0003E222222E2C200060C0808080F0700F878
:10090000FC262266C4800003070C080C07030006BF
:100910000682C2623E1E0000000F0F00000000BCF5
:10092000FE424242FEBC00070F0808080F070038CD
:100930007CC68286FCF80000040C080C070300004B
:100940000030303000000000000606060000000005
:10095000003030300000000020361E0E0000000085
:1009600040E0B0180C06000000000103060C000077
:1009700020202020202000000101010101010000B1
:10098000060C18B0E04000000C060301000000183F
:100990001C86C2663C18000000191900000000F80F
:1009A000FC04E4E4FCF800070F080B0B0B0100F05B
:1009B000F88C868CF8F0000F0F0000000F0F00027B
:1009C000FEFE4242FEBC00080F0F08080F0700F8A9
:1009D000FC060202060C0003070C08080C060002C5
:1009E000FEFE0206FCF800080F0F080C07030002C9
:1009F000FEFE42E2060E00080F0F08080C0E000271
:100A0000FEFE42E2060E00080F0F0800000000F88C
:100A1000FC068282868C0003070C0808070F00FE84
:100A2000FE404040FEFE000F0F0000000F0F0000D0
:100A30000002FEFE0200000000080F0F0800000088
:100A4000000002FEFE0200070F08080F0700000268
:100A5000FEFE60F09E0E00080F0F00000F0F000258
:100A6000FEFE0200000000080F0F08080C0E00FE3A
:100A7000FE38E038FEFE000F0F0000000F0F00FEF2
:100A8000FE38E080FEFE000F0F0000030F0F00F89D
:100A9000FC060206FCF80003070C080C0703000222
:100AA000FEFE42427E3C00080F0F0800000000FCE2
:100AB000FE020202FEFC00070F080E3C3F27000268
:100AC000FEFE42C6FC3800080F0F00000F0F001C8E
:100AD0003E6242C28E0C00060E0808080F07000E88
:100AE0000602FEFE02060E0000080F0F080000FEC0
:100AF000FE000000FEFE00070F0808080F0700FEBA
:100B0000FE000000FEFE000103060C06030100FECD
:100B1000FE00F800FEFE00030F0E030E0F0300069A
:100B20009EF8F0F89E06000E0F0100010F0E000067
:100B30003E7EC0C07E3E000000080F0F0800000689
:100B400082C262321E0E000E0F090808080C000057
:100B500000FEFE0202000000000F0F080800001C4B
:100B60003870E0C0800000000000000103070000B2
:100B7000000202FEFE0000000008080F0F0000083F
:100B80000C0603060C080000000000000000000036
:100B90000000000000000030303030303030000005
:100BA0000003070400000000000000000000002017
:100BB000B09090F0E00000070F0808070F0800024F
:100BC000FEFE1030E0C000000F0F080C070300C04D
:100BD000E030101030200003070C08080C0400C09F
:100BE000E03012FEFE0000070F0808070F0800C0E3
:100BF000E0B090B0E0C00003070C08080C0400004F
:100C000020FCFE220E0C0000080F0F08000000E080
:100C1000F01010E0F01000133724243F1F000002F2
:100C2000FEFE2010F0E000080F0F00000F0F000084
:100C30000010F6F60000000000080F0F080000008A
:100C4000000010F6F60000183820203F1F000002B8
:100C5000FEFEC0E0301000080F0F00010F0E000074
:100C60000002FEFE0000000000080F0F080000F068
:100C7000E030E030F0E0000F0F0007000F0F001031
:100C8000F0E01030E0C000000F0F00000F0F00C0B8
:100C9000E0301030E0C00003070C080C0703001020
:100CA000F0E01010F0E000203F3F28080F0700E0C0
:100CB000F01010E0F01000070F08283F3F20001050
:100CC000F0E03010706000080F0F080000000020F6
:100CD00070D09090302000040C0808090F06001016
:100CE00010FCFE101000000000070F080C0400F0BC
:100CF000F00000F0F00000070F0808070F080000E0
:100D0000F0F00000F0F0000003070C0C070300F007
:100D1000F000C000F0F000070F0C070C0F070030C8
:100D200070C080C07030000C0F0301030F0C00F086
:100D3000F0000000F0F00013372424243F1F00309F
:100D4000301090D07030000C0E0B09080C0C000015
:100D500040E0BE1F0100000000000F1F1000000057
:100D60000000FFFF0000000000003F3F0000000007
:100D700000011FBEE040000000101F0F000000082F
:100D80000C040C080C0400000000000000000080AF
:100D9000C0603060C080000707040404070700003B
:100DA00011241FBECFEFD8E0DEBFCDBF21E0A0E011
:100DB000B1E001C01D92A63CB207E1F70E941036D7
:100DC0000C94103E1DC95D98559A80FD599A80FF7C
:100DD0005998519A539A5A9867FD5B9A67FF5B98A6
:100DE0005A9A5A9866FD5B9A66FF5B985A9A5A9887
:100DF00065FD5B9A65FF5B985A9A5A9864FD5B9A09
:100E000064FF5B985A9A5A9863FD5B9A63FF5B98FC
:100E10005A9A5A9862FD5B9A62FF5B985A9A5A985E
:100E200061FD5B9A61FF5B985A9A5A9860FD5B9AE4
:100E300060FF5B985A9A5D9A5A985B980895609300
:100E400046018093040186958093AD01660F660F7D
:100E5000660F60930F010895809146018093010110
:100E60008091AD0180930301089580910301609109
:100E70000101880FE4CF0895CF93C82F692F81E037
:100E8000A2DF6C2F81E09FDFCF910895682F80E073
:100E90009ACF08958EEAFADF85EAF8CF08958DE0BB
:100EA00068D48AE066C408951092AD0160E080E0E5
:100EB000C6DFF5CF0895CF93DF93C0E080E1E6DF92
:100EC00080E0E4DF8C2F806BE1DFD4E860E081E03C
:100ED0007ADFD150D9F7CF5FC83081F7E5DFDF91F6
:100EE000CF91089558985A985B985D98509A529A65
:100EF000539A559A6FD45D9A559A5998519A84E1AC
:100F000070D4589A84E16DD48EEAC0DF82EEBEDFE1
:100F100082EABCDF80EABADF80ECB8DF8FE2B6DFBE
:100F200084E2B4DF81E8B2DF88E393E00E94E23D2F
:100F30008F73ACDF80E4AADF84EAA8DF86EAA6DF4D
:100F4000BADF8FEAA3DF60E080E079CF089581E027
:100F50008093AD0160E082E072DFA1CF089582E06E
:100F60008093AD0160E084E06ADF99CF089583E06B
:100F70008093AD0160E086E062DF91CF089508952F
:100F8000582F28E030E090E841E080E0652F6423AE
:100F900009F0892B440F969521503109B9F708952E
:100FA000A0E0B0E0E6EDF7E00C94503DEC0110E07D
:100FB000C801860F911D813891050CF06CC0F12C91
:100FC000E40EF11C31E4E316F1040CF064C0742E5D
:100FD00076947694769481E0E81AF10893E0F5949B
:100FE000E7949A95E1F7E22FE2704E2E21FF0DC0B3
:100FF000C701992787199109809FA001819F500DF2
:10100000909F500D1124C40FD51FF7E0FE1510F46A
:1010100087E0E82E862F82958F708061382E87E0DA
:10102000F82EF7186F70662E2170522EE71468F1B3
:101030008F2D806B2BDF832D29DF862D27DF5E012F
:10104000A00EB11EC5014E01C817D907A9F09C0119
:10105000215031096901552011F0F90101C0F40155
:101060008491411001C08CDF682F81E0ACDEC601A5
:10107000FFEF8F1A9F0AE8CF442019F05E01A01AF3
:10108000B10A7394FA94E501D1CF9091040187E0FD
:10109000891B806BFBDECDB7DEB7E1E10C946C3DC4
:1010A000EF920F93482F282F2F7380E6289F9001EF
:1010B0001124C90181509D4F46FF02C028E001C0A4
:1010C00028E42093100147FF03C01092000108C0DC
:1010D00020E220930001209110012D5E2093100149
:1010E00020E2E22E08E120E0409100016091100131
:1010F00057DF0F91EF900895EF920F93262FFC0189
:10110000649131964491319604913196E4903091F6
:101110000001430F30911001630F049641DF0F91DE
:10112000EF90089560E0E8CF0895EF920F93CF938A
:10113000C82F809146018F5F809346014091040142
:10114000440F440F440F20E1C29FC001112420E14D
:10115000E22E08E020E060910F0181569A4F20DFD7
:1011600080910F01885F80930F018C2F90E0FC012C
:101170003197EA30F105E0F4EC5CFF4F0C949F3CB2
:101180008EE305C08CE7F5D28CE313C08CE7F1D277
:101190008CE70FC082E50DC08DE20BC085E709C06A
:1011A0008FE4E7D288E6E5D28DE603C08CE401C087
:1011B0008C2FDFD2A895CF910F91EF9008958F5C7F
:1011C000B4CF089580E2B1CF0895CF93C82F1C16F5
:1011D0001CF4F8DFC150FBCFCF91089590914601E8
:1011E00080E1891BF2CF0895CF93C82FF7DF80915C
:1011F000AD018F5F8093AD01843038F083E0809340
:10120000AD0181E08093490102C0109249018091B3
:10121000AD016C2F880F13DE42DECF910895E4DF1D
:1012200039D48091AD01833008F039CE08953CDE89
:10123000D5DF3ACE08958BDED1DF89CE08958DE3D8
:1012400074CF0895CF93DF93EC018991882311F037
:101250006CDFFBCFDF91CF910895CF93DF93EC014B
:10126000FE018491982F9F7719F05FDF2196F8CFC8
:10127000DF91CF910895CF93DF93EC01CE010E94CF
:10128000E23D982F9F7719F050DF2196F7CFDF913D
:10129000CF910895EF920F93FC0104913196E49061
:1012A00002967EDE0F91EF9008950F938EE991E004
:1012B000E2DF409191014D3F64F460917F017091B4
:1012C0008001809181019091820103E026E417D191
:1012D00002C08FE32ADF0F910895909124019F703F
:1012E000923071F49CDF82E890E0C5DFE091470125
:1012F000F091480122E044E06FEF84819581E9C1DB
:10130000089597FF09C08F939F938DE20EDF9F9101
:101310008F91909581959F4F6CE271E04AE050E08B
:101320000E94AF3D8FCF0895ECDF01C0EADF4ACFC6
:101330000895EF92FF920F931F93182F062FF42E0C
:1013400080E891E098DFEE24E0914701F0914801B8
:101350008685E81611F4812F09C08485E81611F4FA
:10136000802F04C08585E81611F48F2DDEDEE3940E
:101370008E2D833049F71F910F91FF90EF900895C4
:10138000EF92FF920F931F93182F062FF42E80E0F9
:1013900046DF86E891E06FDFEE248E2D10DF4FDF11
:1013A000E0914701F09148018685E81611F4812FFC
:1013B00009C08485E81611F4802F04C08585E816DD
:1013C00011F48F2DB2DEFEDEE3948E2D833029F7EB
:1013D0001F910F91FF90EF900895682F80E092E0A9
:1013E000662309F491E0623009F481E008950F93D7
:1013F000082FEEEAF1E0880F880FE80FF11D6081F9
:10140000718182819381643671058105910570F443
:101410002091020127FD0AC0802FDFDF692F0E9483
:1014200091256EEF23E044E054D104C04FEF04E077
:1014300024E065D0C7DE0F910895863058F4E1EAC4
:10144000F1E0E80FF11DE80FF11D8081918163E06B
:101450004BD1B8CE08951F93182F80917A0188231D
:1014600019F0B0DE80E061DE72DD87E791E003DF36
:10147000812F82958F70E1DF812F8F70DEDF1F91CA
:1014800008958091110182958F7019D0809111017A
:1014900083701CD080911101DECF0895E5E9F1E061
:1014A000E80FF11D0895CF93F9DF9081C681C91728
:1014B00010F405D001C013D085DECF910895EEDF82
:1014C0008F9380817CDE8F9101C008958F9385E496
:1014D00091E0D1DE8F91E2DF868171CE0895DEDF6B
:1014E0008F9386816CDE8F9101C008958F9381E484
:1014F00091E0C1DE8F91D2DF808161CE0895AEE0B0
:10150000B0E0E5E8FAE00C944F3D142F622E702E07
:101510006B017C010F7080E389838A838B838C83CA
:101520008D838E83F7FE0BC08DE2FFDDF094E09497
:10153000D094C094C11CD11CE11CF11C04C075FEE8
:1015400002C08BE2F2DD033071F0043099F0053017
:10155000C1F00630F1F0073021F174E6872E912CAE
:10156000A12CB12C25C068EE862E63E0962EA12C0E
:10157000B12C1EC050E1852E57E2952EA12CB12C26
:1015800017C040EA842E46E8942EAA24A394B12CD6
:101590000FC030E4832E32E4932E3FE0A32EB12C13
:1015A00007C020E8822E26E9922E28E9A22EB12C2F
:1015B0009AE0292E312C412C512CC814D904EA046C
:1015C000FB0470F0C701B6016B5F7F4F8F4F9F4FD9
:1015D000A20191010E94613C69017A011F5FEDCF78
:1015E00081E1810F9BEA899F812D1124A82EA69469
:1015F00086E0811B899F112D11241695912F990F3B
:10160000190F811B182F4E0187E0880E911C2AE0CC
:10161000A401C701B6010E948E3DF4010190002093
:10162000E9F731977F01E818F9089E2C6701DD245E
:10163000812F90E004968C159D0514F4A3941D5FF2
:101640008A2D90E0865C9F4F0E94E23DA82E74FE9A
:1016500004C0901610F40E1901C000E08E2C811AFF
:10166000800E181424F08EE260DD012F0E19111186
:1016700002C088EF882E912C10E0C00ED11EE82CFD
:10168000082C000CFF08892D90E08C159D05ACF40A
:10169000FC013696E01BF10B81E090E08C0F9D1F62
:1016A000E80FF91F808141DD9394892D90E08E151C
:1016B0009F0549F78EE239DDE6CFAA2011F08A2D89
:1016C00034DD662011F0862D30DD2E96E2E10C949B
:1016D0006B3D0F93362FBC0180E090E0022F242F4A
:1016E000432F0DDF0F9108950F93062FBC0180E06B
:1016F00090E026E54DEF03DF0F9108950F93042F3F
:1017000028E440E0FCDE8AE710DD5CDD0F910895FF
:10171000E82FF0E0EE0FFF1FEC55FE4FA591B491BE
:1017200090910001490F90911001690F20E0CD01C7
:10173000B1CD0895CF93DF93C82FD62FE091470105
:10174000F091480148E16EE18685E2DFE0914701D2
:10175000F09148014D2F6C2F8485DADFE09147012D
:10176000F091480140E06EE18585D2DFDF91CF91B5
:1017700008958F932F932AE080953B9A089410F454
:10178000439802C0439A000020D027D086952A951E
:10179000B1F72F918F91089503D002D001D000D0DE
:1017A00000D003D002D001D000D000D003D002D0AE
:1017B00001D000D000D0A89503D002D001D000D035
:1017C00000D003D002D001D000D000D003D002D08E
:1017D00001D000D000D003D002D001D000D0000052
:1017E000089590E0893C28F0885C48EC849FC00113
:1017F0001124009709F4089520918100277019F0B1
:10180000DADF0197F6CF8130910519F002973EE3B8
:1018100003C037E180E090E02091B200230F2093D5
:10182000B30042E04093700027E023BF889526E094
:1018300023BF10927000A895DCCF8F9384E0D1DF96
:1018400007C08F9382E0CDDF03C08F9381E0C9DFB3
:101850008F911F93182F106410937C00E12FE07874
:1018600080913701E81759F0E0933701AEDF8EE938
:1018700080937A0083E083BF889582E083BF20E075
:1018800030E0A901E0E01FC08EE980937A0083E098
:1018900083BF889582E083BF609178007091790062
:1018A000260F371F411D511DE43061F4809139012D
:1018B000803041F084E02030380720F417FD02C06A
:1018C0001068CACFEF5F80913601E817E8F26091A7
:1018D0003A0170913B0117FF04C06091380170918B
:1018E000390180E090E00E941F3C2FEF33E040E0A0
:1018F00050E00E94613CB901CA012091360130E0FC
:1019000040E050E00E94613CC9011F9108959B0195
:10191000281B390B50F0C9010895BC0180913A0190
:1019200090913B016817790718F4861B970B08956F
:1019300080E090E0089599B193FB992790F9499937
:10194000926080911C01843050F08EE080931801E9
:101950009093190110921D0181E080931C018091E8
:101960001C01E82FF0E0E85EFE4F3081931729F16B
:1019700091111AC0E3E0E80FE37020911D013230AD
:1019800041F4F0E0E85EFE4F3081333069F42F5FC0
:1019900009C0313049F4F0E0E85EFE4F3081333069
:1019A00019F4215020931D01E1E0E80FE370E0936A
:1019B0001C01F0E0E85EFE4F908380911D0187FDE1
:1019C000819580931E010895A0E0B0E0EAEEFCE06E
:1019D0000C94583DE82ED92E53985198F1DE109270
:1019E0001D01E0911C01F0E03196E370FF27E85EF5
:1019F000FE4F80EF8083C5E6D9E19DDF4F9905C09A
:101A0000E3DED150D1F7C150B9F7CE2DDD2DF12C49
:101A100015E500E0BB24B394D7FD36C082E3C82EA1
:101A20008ADFD2DECA94C110FBCF110F4F9B1F5F1C
:101A30001F731F3349F4011103C0CE2DDD2D04E0C7
:101A40000F5F083C28F020C0111102C001111CC01A
:101A5000A8951C161D0624F42A9711F4CFEFDFEF8A
:101A600080911E01882339F0F39480917B018111CC
:101A700002C0B0927B0184E18F1570F680911D0148
:101A8000811102C0F12CC8CF802FCDB7DEB7E9E0BD
:101A90000C94743DCF93E0D9C82F809149018823DD
:101AA00001F1813051F4C33041F46FE086E0C7D9D1
:101AB0008BE23BDB6FE086E0C2D980E49FE184DF0C
:101AC000811104C080911E018111F7CFC33041F410
:101AD00080914901813021F460E086E0B0D97EDB5D
:101AE000C4D9CF91089581E693E00E94E23D382F5A
:101AF00082E693E00E94E23D20913E01230F309167
:101B00003F01381F209321013093220183E0283EBA
:101B1000380720F0C901885E934002C080E090E061
:101B200062E370E00E943A3C683008F067E0E7E862
:101B3000F2E0E60FF11DE60FF11D4591559125915B
:101B4000359162E3681B421B530B649FC001659F84
:101B5000900D1124499662E370E00E943A3C620FB6
:101B6000731F70937E0160937D0183E693E00E9472
:101B7000E23D992787FD909560913E0170913F016C
:101B8000860F971F909339018093380190937901C4
:101B9000809378010895CF93DF9324E130E0B90179
:101BA0000E943A3CDC01E9E9F2E0E60FF71FE60F9C
:101BB000F71FC591D591459155914C1B5D0B4A9FDF
:101BC000C0014B9F900D5A9F900D1124B9010E94A6
:101BD0003A3C6C0F7D1FCB01DF91CF910895189592
:101BE000189530912301A0914701B0914801E5E992
:101BF000F1E080E090E08317B0F441911C962C91C5
:101C00001C97421719F04581241302C00196F3CFA7
:101C1000FC01EE0FFF1FEF55FE4F20813181293E61
:101C2000334008F4089584E108951092250110923C
:101C30002301109273011092590110922401109205
:101C4000450110927A01EEE5F1E0108211821282D4
:101C5000EFE7F1E0108A82E0818B10920201178693
:101C60001686148215821682178281EF838B08955F
:101C70008FE47FDD86E47DDD86E47BDD10D90AD943
:101C80005E988DDD80E090E09FCE08951F93CF9306
:101C9000DF93162F98E097B998B9E82FF0E0EF5846
:101CA000FD4F949195B9262F281BE20FF11D27FDBA
:101CB000FA95E491E92BE4B9CCDDEC01812FC9DD83
:101CC000AC0120913A0130913B0136952795C9012D
:101CD0000397BE01625E7F4F8617970778F4255EF3
:101CE0003F4FC217D30750F4BA01625E7F4F861789
:101CF000970720F481E04217530708F080E014B8FA
:101D0000DF91CF911F910895CF9361E080E0BEDF16
:101D1000C82F62E080E0BADFC80F62E081E0B6DF82
:101D20008C0FCF910895AFE0B0E0E9E9FEE00C94AC
:101D30004F3DB82E10922501807FA9F4E5DF833056
:101D400009F085C3B8D880E792E095DA00D98FE32F
:101D5000ECD980ED97E038DE8B30C0F4ACD883E16D
:101D600091E089DA74C306E910E0A5D88FED91E01F
:101D700082DACADF833021F41F5F143010F006C00E
:101D800010E088E22EDD015081F763C0E0D80E94A8
:101D90007D208FEC90E06FDA60E08BE393E00E94AF
:101DA000EF3D60E08CE393E00E94EF3D60E08AE36A
:101DB00093E00E94EF3D60E082E00E9491256C017B
:101DC0009A83898361E082E00E9491257C019C8353
:101DD0008B8360E081E00E9491258C019E838D833E
:101DE00023E040E26EEFC60174DC23E040E26EEFD8
:101DF000C7016FDC23E044E06EEFC8016ADC2AE52E
:101E0000C216D10424F084E190E09A838983698129
:101E10008BE393E00E94EF3D8AE5E816F10424F09D
:101E200084E190E09C838B836B818CE393E00E9440
:101E3000EF3D0A35110524F084E190E09E838D8307
:101E40006D818AE393E00E94EF3D82E08093490137
:101E500021DEEB2DEF70EF87E13011F018E735C18F
:101E6000EE24E394F12C78EB872E72ED972E77E435
:101E7000A72EB12CE2E0DE2E08E0F0E23F2EC12CCE
:101E80001E2D52E2252ED7D9D2D984E54ED9C701CD
:101E900043DA98D91130B1F482E091E0ECD964E0F2
:101EA00080913E0190913F011FDC51D88DEF90E071
:101EB000E2D980917D0190917E012EDA8EEB8093A4
:101EC0003601E0C0123079F520913A0130913B01A2
:101ED000A8E5BBE10E94A53C24EC36E340E050E0DD
:101EE0000E94833C29013A0181E085B9F5E0F4B90B
:101EF00080E0A3DC841995099A83898381E184B900
:101F000080E09BDC841995099C838B8384E085B9F0
:101F100084E184B981E091DC841995099E838D83E5
:101F200087EE90E09EC0133041F5D5B82AE024B981
:101F300080E083DC20913A0130913B013695279572
:101F400038872F83821B930B9A83898324B880E080
:101F500074DC2F813885821B930B9C838B8305B99E
:101F600088E284B981E069DC2F813885821B930B7C
:101F70009E838D8389ED90E074C0143039F480E63F
:101F800092E079D9C1DE81115FC26FC0153099F43A
:101F900015B8D4B880E051DC9A83898304B981E014
:101FA0004CDC9C838B8334B882E047DC9E838D833A
:101FB00089EF90E056C0163039F5D4B8D5B880E036
:101FC0003CDC20913A0130913B01821B930B9A83B8
:101FD000898304B905B981E030DC20913A01309160
:101FE0003B01821B930B9C838B8334B835B882E012
:101FF00024DC20913A0130913B01821B930B9E839C
:102000008D8385EF90E02DC0173069F520913A015E
:1020100030913B01A8E5BBE10E94A53CA5019401DC
:102020000E94613C29013A01D5B8E3E0E4B980E0BF
:1020300004DC841995099A83898305B9FCE0F4B915
:1020400081E0FBDB841995099C838B8335B820E301
:1020500024B982E0F2DB841995099E838D8383ED98
:1020600090E009D902C0113069F00E94A707898168
:102070009A8147D9A7D88B819C8143D9A3D88D81D8
:102080009E813FD907B908B914B815B888EE93E016
:102090009BDC143011F08B3020F4C39484E0C81220
:1020A000F2CE88EE93E090DCEFEFEE1AFE0AF8E055
:1020B000EF16F10409F0E3CED1CEBDD880E692E070
:1020C000DAD884E68EDB115019F01EDE8111F5CFCF
:1020D0000E945B0788EC90E0CED823E044E06FEFED
:1020E00080913C0190913D01F4DA0E94A70781ECB8
:1020F00090E0C1D823E044E06FEF809143019091DC
:102100004401E7DA82E080934901C4DC10922501A2
:102110000E945B078DEB90E0AED860E082E00E9409
:102120002E1D8090870190908801A0908901B09029
:102130008A019C868B8661E082E00E942E1DC09001
:102140008701D0908801E0908901F0908A01DE86B5
:10215000CD8660E081E00E942E1D009187011091E4
:1021600088011E830D8362E080E00E942E1D809115
:102170008701909188019C838B8362E081E00E94BB
:102180002E1D80918701909188019A87898761E04F
:1021900080E00E942E1D80918701909188019A8392
:1021A00089832F85213021F020914201223021F4B2
:1021B000029698878F8304C098878F83109242017C
:1021C000C401B4D8C601B2D8B801110F880B990B5D
:1021D00003E026E444EF93D98E010F5F1F4F6E0199
:1021E0008FE0C80ED11CF801819191910A97853B2F
:1021F0009105D0F4CE16DF06B9F74AE5E42E43E0A8
:10220000F42EF80160810E5F1F4F6E5EC7010E94C1
:10221000EF3DFFEFEF1AFF0AC016D10691F70E94BB
:10222000A70783EC91E027D882E08093490132DC54
:102230000E94A9322F85213029F0809142018230FD
:1022400009F0E9C00E945B0780E00E94DF0889E690
:1022500091E011D882E00E94DF0882E390E00BD881
:1022600020E4F22E10E03AE0832E912CA12CB12C28
:10227000DCDC1092250160E082E00E942E1D0091BE
:10228000910120917F013091800140918101509115
:102290008201073F44F40F5FCA01B901A50194010F
:1022A0000E94613CF6CF0093910120937F0130930F
:1022B00080014093810150938201073F09F094C04F
:1022C000DA01C90180569109A109B1098039954502
:1022D000A105B10508F088C0609193017091940147
:1022E000CB018B569F4F8B32914008F07DC01F5F12
:1022F000153008F47AC081E693E00E94FD3D0E940B
:102300005B078BE290E00E943B09809193019091E2
:1023100094010E948109E7DB88E088B989E087B9E8
:1023200080E284B982E095DA853D9340DCF714B809
:10233000109239011092380182E08BDA8C01809181
:10234000780190917901909339018093380182E06E
:1023500080DA7C01EE0CFF1C1092390110923801DA
:1023600082E077DAA0907801B0907901B0923901DB
:10237000A0923801800F911F8C010E191F090E9435
:10238000A70784E290E00E943B0983E693E00E9465
:10239000E23DD82E9501D8010E94B43C97010F2C44
:1023A000000C440B550B0E94833C13E01D0D120FD3
:1023B000612F83E693E00E94EF3D812F012E000CF8
:1023C000990B0E9481098FDB82E08093490162DBD7
:1023D000109242018AE593E00E94E23D682F8DE56C
:1023E00093E00E94EF3D17C010E00E94A7076091A4
:1023F0007F0170918001809181019091820104E0C0
:1024000026E4409191017BD80E94EE0888E2E9D948
:10241000FA94F1102DCF89E18093360180E00E947B
:10242000C9350E945B0783E191E00E943B090E944D
:10243000A70787E592E00E943B091092250182E000
:102440008093490127DB03C082E0C82E0ECE2F9671
:10245000E2E10C946B3D8091420181110DC08AE54F
:1024600093E00E94E23D61E0680F8DE593E00E94F9
:10247000EF3D81E0809342010895EF92FF920F9328
:102480001F93CF93DF93D62FE82FF0E0EC58FD4F4A
:10249000E491E8B9E860E7B915B8E62FF0E0EF5845
:1024A000FD4FE491E4B988E8E82E83E1F82ECE2FC1
:1024B000CC0F8D2FC2D98C01C4B98E159F0510F495
:1024C0007801F7CF892BE9F00E94B70789E491E002
:1024D0000E943B09D80120EA36E841E050E00E9422
:1024E000BA3C28E937EB40E050E00E94613CDA0159
:1024F000C90122E041E467EFECD888E087B988B9E8
:1025000014B8CDB7DEB7E6E00C94773D0F931F9378
:10251000CF93DF9385E09DD985E097D98C01EC01BD
:10252000CC0FDD1FCC0FDD1FCA56DF4F10924001CC
:10253000C43883E0D80750F487EB91E00E943B0950
:102540000E94EE0881E08093400123C086EC91E078
:102550000E943B0962E0CE01C7D80E94E2080A3F10
:1025600086E0180780F40333164050F489EC92E0BB
:102570000E943B090E94EE088DEC33D979DB09C03B
:1025800080ED92E002C083EC91E00E943B090E9442
:10259000EE08DF91CF911F910F910895CF93DF93B4
:1025A000DC019C01261B370BE0E090E0B901690FCC
:1025B000711D672F7727920F260F371FBA016E0FF5
:1025C000711D672F7727E40FEB01CC0FDD1F4C0F38
:1025D0005D1F6B3E28F4A217B30740F7CA0102C083
:1025E00080E090E0DF91CF910895A8E1B0E0EBEFBB
:1025F000F2E10C944F3D582E462E342EA895E62F2E
:10260000F0E0EF58FD4F24912E87220F2F8B339649
:1026100034913A8BE42FF0E0EF58FD4F4491498319
:10262000440F488F339654915F83E82FF0E0EF58C2
:10263000FD4F2490822D880F8F87339694919B8332
:1026400098609C8338603A83E981E5B98E848E2A4C
:1026500084B897B9FB81F8B9862FF7D89D878C8706
:102660008981288D822B85B99E84922A94B8842DE5
:10267000ECD83E8534B9842DE8D83C0114B89AD8FA
:1026800015B884B8842DE1D86C857D8540D96C015E
:102690004A8147B988E088B9598152295D8355B983
:1026A00054B9852DD2D839D97C0115B883D825B82D
:1026B000852DCBD832D98C0124B8852DC6D82DD9FB
:1026C0005C01B801C70123D98032E1E09E0730F4F4
:1026D000F0E2CF16F1E0DF0608F4BBC5C00ED11E54
:1026E0002C853D85820F931FC816D90618F41D87C7
:1026F0000C8735012091590130917301822F90E0B0
:10270000830F911D02974CF0213009F0A2C59091E2
:1027100056018091700198139CC5388D32293B87F2
:102720004C855D854437510508F496C1CA01880F70
:10273000991F44966816790608F08EC15C8157B9D6
:102740008B8188B994B8842D7CD88C01832D81D855
:102750007C01988D95B9842D74D89801295A3D4FE4
:102760002817390708F0ACC088E088B9EA81E7B9D2
:10277000FB85F4B9F5B9832D64D888349F4028F0DF
:1027800085E08093250182E204C085E080932501E5
:1027900084E28093240110934F0100934E01B7010E
:1027A000C801C0D890935501809354019801A0E1CD
:1027B000B7E20E94A53C20911F013091200140E02A
:1027C00050E00E94613C30935101209350018F8969
:1027D000388D832B84B915B84C8147B95B8158B9C2
:1027E000832D37D88C01842D2CD8B8019BD89C011F
:1027F0009093530180935201909124019F709430E3
:1028000079F54091500150915101609154017091BE
:102810005501C901C3DE0097F9F0888D84B9EA89B2
:102820009C81E92BE7B9842D0CD88C0188E087B90D
:102830009801A0E1B7E20E94A53C209143013091AC
:10284000440140E050E00E94613CA901B801809140
:10285000520190915301A2DE90934F0180934E015B
:10286000809124018F70843009F4EAC488E088B92B
:10287000EF81FA81EF2BE7B924B82D8125B9852D99
:102880000E94250C8C0149D89E838D83842D0E9443
:10289000290CE0902601F0902701BC01C80142D824
:1028A0009701DC010E94A53CED81FE819F0140E083
:1028B00050E00E94613C30934F0120934E01C0C410
:1028C00088E088B9FA81F7B92B8524B925B9852D17
:1028D0000E94210C8C01832D0E94290C7C0125B8BB
:1028E000852D0E94210C895A9D4F8017910708F071
:1028F000B0C43B8138B94C8147B9832D0E94210C6B
:10290000813D934028F485E08093250182E304C053
:1029100085E08093250184E380932401B801C701F9
:1029200001D890936F0180936E01C8010E948D0CB5
:102930009C01A0E1B7E20E94A53C209126013091C4
:10294000270140E050E00E94613C30936B012093EE
:102950006A01F8E0FF2EF8B88A8187B98F85988DD3
:10296000892B84B985B9852D0E94290C8C01832D72
:102970000E94210CB8010E94920C9C0190936D0161
:1029800080936C01909124019F709430A1F5409147
:102990006A0150916B0160916E0170916F01C901E4
:1029A000FDDD009721F1E88DE5B9E4B9FB81F8B9C7
:1029B000EC812A81E22BE7B9852D0E94210C0E942F
:1029C0008D0C8C01F7B89C01A0E1B7E20E94A53CF8
:1029D00020913C0130913D0140E050E00E94613C7B
:1029E000A901B80180916C0190916D01D7DD9093A0
:1029F000690180936801809124018F70843009F40B
:102A0000F7C1EB813F81E32BE8B94C81342B37B917
:102A100015B85D8154B9852D0E94250C7C01842D4B
:102A20000E94290C9E838D8300911F01109120012B
:102A3000BC01C7010E94920C9801DC010E94A53CD8
:102A4000ED81FE819F0140E050E00E94613C3093A7
:102A5000690120936801CCC188E088B9FA81F7B98F
:102A600025B82B8524B9852D0E94250C998B888B40
:102A70000E948D0C98878F83832D0E94290C9A8742
:102A80008987530134E6A30EB11C4F815885B301E9
:102A9000A416B506D8F4CA010E94920C8C012091AC
:102AA00026013091270140E050E060E871EA83E0C0
:102AB0009CE10E94613CD8010E94BA3CE985FA85FC
:102AC0008F0120E030E0A901980123C08F81988513
:102AD0000E94920C8C01FD81F4B9852D0E94250C79
:102AE000998B888B0E948D0C98878F83832D0E94F1
:102AF000290C9A878987BC01C8010E94920C9C010D
:102B0000A4E6B0E00E94A53CE985FA859F0140E07B
:102B100050E00E94613C69017A0114B815B8FB814C
:102B2000F8B92C8127B981E00E94F10B84B8842D7B
:102B30000E94250C8F359D4008F460C194B8842D07
:102B40000E94210C8C01832D0E94290C9C8B8B8B65
:102B5000852D0E94290C9E8B8D8B4B895C89413D74
:102B6000574008F4D1C0988D95B9842D0E94210C4E
:102B70008115944098F080912501843078F48AE0A2
:102B8000809325016B897C898D899E890E94920C96
:102B9000909369018093680181E044C484E080934C
:102BA00025018DE0809324016016710630F49801B0
:102BB000261937093E832D8302C01E830D83809022
:102BC0001F0190902001A12CB12C60E871EA83E0F4
:102BD0009CE1A50194010E94613CAD81BE810E94EF
:102BE000BA3CEB89FC899F0140E050E00E94613CC7
:102BF00080917301882369F080916401909165014F
:102C0000A0916601B091670182179307A407B507E9
:102C100008F5209364013093650140936601509359
:102C200067019801A0E1B7E20E94A53CA5019401CB
:102C30000E94613C30936B0120936A016B897C890F
:102C40008D899E890E94920C9093690180936801FE
:102C500081E001C080E04091640150916501609184
:102C60006601709167014C155D056E057F0538F5AD
:102C7000C0926401D0926501E0926601F092670112
:102C800069857A85888999890E94920C9093690157
:102C9000809368012F813885A0E1B7E20E94A53CAE
:102CA000209126013091270140E050E00E94613CD4
:102CB000205F384D30936B0120936A0103C0882355
:102CC00009F4B0C3C0901F01D0902001E12CF12C79
:102CD0009301A0E1B7E20E94A53CA70196010E94E2
:102CE000613C30936D0120936C012C853D85A0E102
:102CF000B7E20E94A53CA70196010E94613C309377
:102D00006F0120936E0148CFF1E66F16710408F051
:102D100075C0013D27E0120708F470C085E080937C
:102D2000250182E180932401C80186509F4F4D897F
:102D30005E898417950720F483E18093240119C0EC
:102D400080911F01909120019E838D83B8018D8910
:102D50009E890E94920C2D813E81DC010E94A53C3F
:102D6000980140E050E00E94613C3093690120935B
:102D700068019A899770E92E832D806480937C0086
:102D8000EBE0FE2EE1E0F0E0FE83ED830FEF13E0D9
:102D9000A89561E089817AD594B886B18E21E9F34E
:102DA000FE85F4B980917A00806480937A008091E6
:102DB0007A0086FDFCCF809178009091790098018F
:102DC000281B390B4D815E81420F531F5E834D835B
:102DD000FA94F110DDCFCA01880F991F880F991F4F
:102DE00069E070E00E943A3C70936F0160936E015D
:102DF000809173018F5F80937301CECE94B8588D0C
:102E000055B9842D0E94250C6C01832D0E94290C3C
:102E100098878F830E948D0C9A878987AC14BD0494
:102E2000A8F4B301C6010E94920C8C0120911F01ED
:102E30003091200140E050E060E871EA83E09CE1DD
:102E40000E94613CD8010E94BA3C1FC084B8F9813D
:102E5000F5B9842D0E94250C6C01832D0E94290C4C
:102E600098878F830E948D0C9A878987C6016C147E
:102E70007D0410F48619970969857A850E94920C61
:102E80009C01A4E6B0E00E94A53CE985FA859F017B
:102E900040E050E00E94613C49015A01FA81F7B9D3
:102EA00088E088B92D8124B925B9852D0E94250C8B
:102EB0008C01832D0E94290C9A878987842D0E947A
:102EC000290C7C01003331E1130708F0BFC125B89C
:102ED000852D0E94250C998B888B24B8852D0E9406
:102EE000250C9C8B8B8B15B881E00E94F10B25B8CB
:102EF000852D0E94250C4B895C894034564008F092
:102F00005DC08133914108F459C0C8018A569F4F72
:102F1000288939892817390708F050C086E080933E
:102F20002501809159018F5F80935901B7018985EF
:102F30009A850E94920C90934F0180934E01B701A5
:102F4000C8010E94920C909355018093540114B8CB
:102F500015B83A8938B981E00E94F10B24B8852D63
:102F60000E94250C853F910508F06AC24D8144B945
:102F7000832D0E94250C813D934008F461C2852D6C
:102F80000E94290C8D3D924008F45AC224B8852D28
:102F90000E94250C8D3D924008F452C225B881E074
:102FA0000E94F10B15B8852D0E94250C853F9105D7
:102FB00008F046C287E08093250142C22A8127B9E2
:102FC000398134B935B981E00E94F10B4B8544B9A0
:102FD00045B9852D0E94250C8C010E948D0C998B82
:102FE000888B832D0E94290C9E838D830E948D0CDB
:102FF0009A878987842D0E94290C7C0189859A856E
:103000008E3F994008F4B2C084E0809325018CE0A3
:1030100080932401B301888999890E94920C8C01C4
:10302000209126013091270140E050E060E871EAEC
:1030300083E09CE10E94613CD8010E94BA3CE98592
:10304000FA859F0140E050E00E94613C8091590167
:10305000882369F080914A0190914B01A0914C0125
:10306000B0914D0182179307A407B50728F5209367
:103070004A0130934B0140934C0150934D01B701ED
:103080008D819E810E94920C90934F0180934E01FE
:1030900028893989A0E1B7E20E94A53C2091260148
:1030A0003091270140E050E00E94613C3093510193
:1030B0002093500181E001C080E040914A0150918D
:1030C0004B0160914C0170914D01481559056A05FD
:1030D0007B0528F580924A0190924B01A0924C0109
:1030E000B0924D01B6018F8198850E94920C909309
:1030F0004F0180934E019601A0E1B7E20E94A53CEA
:1031000020911F013091200140E050E00E94613C7D
:10311000205F384D309351012093500103C0882324
:1031200009F48FC19301A0E1B7E20E94A53C209170
:103130001F013091200140E050E00E94613C30933B
:103140005301209352012C853D85A0E1B7E20E94F6
:10315000A53C209126013091270140E050E00E94DB
:10316000613C30935501209354016AC1F1E66F161A
:10317000710408F06BC02889398929343D4008F46E
:1031800065C085E08093250182E080932401C7011A
:1031900086509F4F8017910720F483E0809324018D
:1031A00017C0C0902601D0902701B701C8010E9426
:1031B000920C9601DC010E94A53CE889F9899F01E7
:1031C00040E050E00E94613C30934F0120934E015B
:1031D0000B810770832D806480937C001BE021E0CD
:1031E00030E03E832D83A89560E089814FD33B85F5
:1031F00034B935B986B18023E9F724B880917A00D3
:10320000806480937A0080917A0086FDFCCF809163
:103210007800909179004D815E81480F591F5E833F
:103220004D83115001F7CA01880F991F880F991F0C
:1032300069E070E00E943A3C70935501609354013C
:10324000809159018F5F80935901FAC088E087B956
:1032500088B914B815B888E087B957EC651651E0FD
:10326000750608F4D0C088B98F8584B998EC9D8321
:10327000EC81FA81EF2BEF832F8127B981E00E9447
:10328000F10B3A8137B9852D0E94290C429728F01D
:103290004D8141504D834111EFCF5F8554B955B9F0
:1032A00061E08981F3D2852D0E94250C6C018F8904
:1032B00084B915B89C8197B9EB81E8B960E0898140
:1032C000E5D2842D0E94250C0E948D0C9E838D8357
:1032D000FE85F4B9842D0E94290C8C01852D0E9455
:1032E000250CB8010E94920C7C01842D0E94290CAF
:1032F0008C01852D0E94250CB8010E94920C97012B
:103300002C5E3F4F2817390708F480C088E088B941
:103310002A8127B924B825B861E08981B7D2842DE4
:103320000E94290C8C01852D0E94250CB8010E9459
:10333000920C8C01E816F90658F43F8534B935B97A
:10334000852D0E94250C9C01CD82DE82780110C063
:103350004F8944B915B85C8157B98B8188B960E051
:10336000898194D2842D0E94250C0E948D0C9C0191
:1033700098EEE91693E0F90630F4C70164E670E0D0
:103380000E943A3C06C0B70154E0769567955A957D
:10339000E1F7C7018759910989389141A0F52E15A8
:1033A0003F0588F58D819E8143E0969587954A95E6
:1033B000E1F7893C910510F088EC90E02D813E8189
:1033C000820F931F8E159F05F0F462177307D8F4D0
:1033D00080912501833018F483E0809325012091AA
:1033E0002301822F90E0FC01EB56FE4F5082468273
:1033F000880F991FFC01EF55FE4FF182E0822F5F8D
:103400002093230103C0642D852D29D088E087B93E
:1034100088B914B815B88EE20E9495086896E2E162
:103420000C946B3D909173019F5F9093730188237F
:1034300069F3309270014092710150927201E6CFAF
:1034400081E0909159019F5F909359018823F1F297
:10345000309256015092570140925801D7CFA0E0C8
:10346000B0E0E5E3FAE10C94513DA895462F50E019
:10347000FA01EF58FD4F949033969491A82FB0E045
:10348000FD01EF58FD4FE4903396F4907091730175
:103490002091590130E0270F311D232B09F0F1C194
:1034A000A8952091290130912A01220F331F220F64
:1034B000331F30933B0120933A01209178013091E2
:1034C0007901220F331F220F331F309339012093CC
:1034D00038012EEB20933601C0912301E5E9F1E09C
:1034E00070E04A0F5B1F7C1759F02191A58130E0F5
:1034F0002A0F311D2417350709F456C07F5FF3CF1B
:10350000D62FC82F88E088B9E92FE860E7B9E4B87A
:10351000E5B8B8E1BB2EC12CD12C8D2F0E94250C13
:10352000782E692E8C2F0E94290C8C018C199D09F4
:1035300097FF03C0919581959109039734F0A89561
:10354000BA946801B110E9CF2FC0EE0C15B8E4B8F9
:103550008C2F0E94250C8135910530F5E5B88C2F14
:103560000E94250C6C018F2D886087B9F8B815B8BA
:1035700094B8A8E18A2EA12CB12C8C2F0E94250C86
:10358000582E492E8D2F0E94290C7C018A199B09E7
:1035900097FF03C09195819591090397CCF0A89569
:1035A0008A9457018110E9CF8091290190912A01D5
:1035B00090933B0180933A01809178019091790139
:1035C000909339018093380189E18093360159C184
:1035D000990C94B88D2F0E94250C5C01003C84E46A
:1035E000180730F425E8C21621E0D206E8F605C037
:1035F00080EBC8168DE4D806B8F624EAE21622E07D
:10360000F20608F06CC088E9A816B10468F2C60199
:103610000E948D0CAC019601A8E9B7EB0E94A53C75
:103620009A0140E050E00E94613C29013A01C50145
:103630000E948D0C9C01A8E9B7EB0E94A53C850176
:1036400020E030E0A90198010E94613C88E7C8169B
:103650008FE0D80680F4D301C201F2E0880F991FF1
:10366000AA1FBB1FFA95D1F7BC01CD01620F731FD2
:10367000841F951F14C088E7A8168FE0B806B0F421
:10368000DA01C901E2E0880F991FAA1FBB1FEA9562
:10369000D1F7BC01CD01640D751D861D971D25E078
:1036A00030E040E050E00E94613C0CC0D301C20118
:1036B000820F931FA41FB51F9C01AD01569547951E
:1036C00037952795A4E6B0E00E94BA3C2B013C0157
:1036D0002CEA420E2DE0521E611C711C79C0672D30
:1036E000762D0617170708F4B801C52CD42CCE1474
:1036F000DF0408F467010617170708F48B01A09090
:103700002601B0902701C8010E94920C9501DC01AE
:103710000E94A53C2B013C01C8010E948D0C9C011C
:1037200040E050E0C301B2010E94613C29013A012E
:10373000CE14DF0408F47601A0901F01B0902001A0
:10374000B701C6010E94920C9501DC010E94A53CC4
:103750004701A12CB12CA50194010E94613C0837BE
:103760008FE0180780F4D301C20162E0880F991F2F
:10377000AA1FBB1F6A95D1F7BC01CD01620F731F51
:10378000841F951F14C088E7E8168FE0F806C0F480
:10379000DA01C90132E0880F991FAA1FBB1F3A95B1
:1037A000D1F7BC01CD01640D751D861D971D25E067
:1037B00030E040E050E00E94613C29013A0108C03D
:1037C000420E531E641E751E769467945794479458
:1037D00010912501143008F0E7CEC1500C2F0D0FC9
:1037E000202F30E0E901C25ADE4F8881220F331FBB
:1037F000220F331FF901E255FE4F8823D9F1C08013
:10380000D180E280F380A30192012C193D094E0979
:103810005F0957FF07C050954095309521953F4F60
:103820004F4F5F4FAAE0B0E00E94BA3C24E6C20EC0
:10383000D11CE11CF11CA7019601240D351D461D6C
:10384000571D0E94613C232B242B252B09F0ACCE65
:10385000133019F081E08093250182E08883809104
:103860007A01E82FF0E0EF59FE4F00838F5F8093DD
:103870007A019ACE408251826282738281E088838B
:1038800093CECDB7DEB7E0E10C946D3DCF93C82F5A
:10389000C09595B160FF02C0982B01C09C2395B9DB
:1038A00094B1892B84B982E00E94F10B84B18C23FE
:1038B00084B985B1C823C5B9CF910895A0E0B0E01F
:1038C000E4E6FCE10C94573D1AE008E08FE3C82ED3
:1038D00099E0D92E07B908B915B8C4B880E00E949C
:1038E000250C7C0181E00E94290CEC0182E00E9401
:1038F000290C9C0180912501893081F488E087B9E9
:1039000014B8F0920601E0920501D0930801C0932B
:10391000070130930A01209309015BC084E0E81697
:10392000F10440F4C430D10560F42430310530F3A3
:1039300099E00BC088EEE81683E0F80610F098E0F6
:1039400001C099E0C83ED34008F49260283E33405D
:1039500008F4946097B9C0E0D0E0A89580E00E9498
:103960001D0C5C0181E00E94290C7C0182E00E9418
:10397000290C24E1A21625E0B20608F4389A24E1C5
:10398000E21625E0F20608F4399A843125E0920720
:1039900008F43A9A26E0A216B10430F426E0E216C2
:1039A000F10410F4069738F02196C43F81E0D8075F
:1039B000A1F6D0922501E12CF12CEC16FD0631F098
:1039C0000E94E00B2FEFE21AF20AF7CF115009F034
:1039D00081CFCDB7DEB7EAE00C94733DCF92DF9292
:1039E000EF92FF92CF9320917F013091800140911F
:1039F000810150918201C09191018AE0C82ED12CA1
:103A0000E12CF12C8C2FCF5F213A96E8390791E019
:103A10004907510538F0CA01B901A70196010E9472
:103A2000613CF0CF80939101A0913A01B0913B01AC
:103A30000E94BA3C28E833E140E050E00E94613C3B
:103A400020937F0130938001409381015093820144
:103A5000CF91FF90EF90DF90CF900895A0E0B0E07D
:103A6000E4E3FDE10C94553D982F990F980F2FEF4B
:103A7000260F920F90935B01E82FF0E0EF58FD4F77
:103A80001491262F30E0F901EF58FD4FF490F90121
:103A9000EC58FD4FD49190912501913009F4A1C2C9
:103AA00020912301A5E9B1E0FD0190E0921791F08A
:103AB000368163130BC03081831308C01C964D916F
:103AC0005C911D974C3D554008F48BC29F5F319629
:103AD0001296ECCF062FC82FD86010928C0110924E
:103AE0008B0181EF8093910110927F0110928001F0
:103AF0001092810110928201E1DE88E088B9D7B985
:103B0000F4B8F5B88C2F0E94290C5C01802F0E941C
:103B1000290CA81AB90A14B810925D0110925C0120
:103B200080915C0190915D01843F914008F0AAC0B2
:103B300015B914B90E94DA0B14B815B80E94E10B3C
:103B4000A8958C2F0E94290C7C01EA18FB08809113
:103B50005C0190915D018E37910528F08BE4E816A9
:103B6000F1040CF48FC080915C0190915D012DE215
:103B7000E21621E0F20634F4019690935D01809301
:103B80005C01CECF892B09F0A4C185E1E81685E060
:103B9000F8060CF49EC192DE15B88FE087B988E074
:103BA00088B9F12EFF0CF4B880E480937B0084E5A3
:103BB00080BF8C2F806480937C0086E180937A00A4
:103BC0000E94E40B10925D0110925C011092800043
:103BD000109285001092840087E286BB81E2809378
:103BE0006F0081E080937C01F5B89091250180936E
:103BF0008100953009F04CC081E090E00C2E01C0AE
:103C0000880F0A94EAF780958F7087B9F89483B784
:103C1000817F83BF80917C01882389F083B7816095
:103C200083BF7894889583B78E7F83BFF894A895D7
:103C300080915C0190915D018034964059F77894B1
:103C400010928100E0908600F090870010926F0043
:103C500086E980937A0014B815B88C2F0E94290C3D
:103C600020913E0130913F01821B930B0C96909363
:103C700094018093930180915C0190915D01803269
:103C8000934040F088E087B988B914B815B8A9C145
:103C9000D7B9BCCF80915C0190915D0190938A016E
:103CA00080938901F0928801E092870184EF8093EC
:103CB000910180915C0190915D0182349105C8F081
:103CC00060918701709188018091890190918A01AA
:103CD00024E630E040E050E00E94613C2093870100
:103CE000309388014093890150938A0186EF809335
:103CF0009101A0917D01B0917E01209187013091C9
:103D000088014091890150918A010E94BA3C20E2C9
:103D100033E040E050E00E94613C20938701309303
:103D200088014093890150938A0120937F01309349
:103D30008001409381015093820150DE8091910176
:103D4000843F09F071C0C0907F01D0908001E09065
:103D50008101F090820180EAC8168FE0D806E10464
:103D6000F104C0F4A70196012C543F4F4F4F5F4F11
:103D700060EA7FE080E090E00E94613CC20ED31ECA
:103D8000E41EF51EC0927F01D0928001E092810175
:103D9000F0928201C0907F01D0908001E09081017B
:103DA000F0908201C114D10421E0E206F10428F46C
:103DB000D092BF01C092BE0106C081E090E0909316
:103DC000BF018093BE0180915B0190E0865A9C4FB9
:103DD0000E94E23D90E0A0E0B0E0B701A6018C15A2
:103DE0009D05AE05BF0568F4481B590B6A0B7B0B9C
:103DF00040937F0150938001609381017093820111
:103E000013C04C5E5F4F6F4F7F4F481759076A07CB
:103E10007B0710F40E942B1210927F0110928001F8
:103E2000109281011092820114B980917F019091CA
:103E30008001A0918101B09182014997A105B1054E
:103E400008F420CFC12CD12C80912301882329F0A4
:103E500080912501853009F015CF88E080932501F8
:103E600080919101909192019817C4F089130ACF23
:103E700080907F0190908001A0908101B09082019C
:103E80004091830150918401609185017091860178
:103E9000481559056A057B0508F0F4CE40917F016D
:103EA0005091800160918101709182014093830162
:103EB00050938401609385017093860180939201F1
:103EC000D0928E01C0928D0100938F01C09390011A
:103ED000D9CEC701C12CD12C20915C0130915D015C
:103EE0002C153D0560F00E94DB0B8C2F0E94290CE5
:103EF0008A199B09A8952FEFC21AD20AEDCF570154
:103F0000A81AB90A1A141B049CF439ECA316B104BC
:103F10000CF0B8CE28EE33E0D5010E94B43C9701F6
:103F20000F2C000C440B550B0E94613C690102C030
:103F3000C12CD12C80915C0190915D010196A0E093
:103F4000B0E08093870190938801A0938901B0939A
:103F50008A01C7018A0D9B1D91D020918701309164
:103F600088014091890150918A01DC010E94BA3C8C
:103F700060938701709388018093890190938A01EF
:103F800060937F01709380018093810190938201FF
:103F900087EF8093910122DD80907F0190908001D6
:103FA000A0908101B09082018DE393E00E94E23DF8
:103FB000A8EEB3E0A81BB10987FDB395A501940154
:103FC0000E94C43C24E630E040E050E00E94613CA6
:103FD00020937F01309380014093810150938201AF
:103FE00033CFCDB7DEB7ECE00C94713D1F920F924A
:103FF0000FB60F9211248F939F93B59904C08091AF
:104000007C01811109C0B59B10C080918600909100
:1040100087008A3F910548F480915C0190915D0191
:10402000019690935D0180935C019F918F910F9019
:104030000FBE0F901F9018951F920F920FB60F9200
:1040400011248F939F9310927C01B09B10C080919C
:104050008600909187008A3F910548F480915C0129
:1040600090915D01019690935D0180935C019F9119
:104070008F910F900FBE0F901F9018950F9221E017
:104080008C32920710F48CE291E08C52914069E1FD
:1040900070E00E943A3C99E16B3210F0982F6BE28D
:1040A000981BEEEDF2E0E60FF11DE60FF11D9F9378
:1040B000CF010E94E23D482F3196CF010E94E23DA0
:1040C000582F3196CF010E94E23D282F3196CF0123
:1040D0000E94E23D382F6F91421B530B649FC00139
:1040E000659F900D11240C9669E170E00E943A3CA6
:1040F000620F731FCB010F900895A0E0B0E0E3E8DA
:10410000F0E20C94553D88E893E190932A01809366
:10411000290190933B0180933A018EEB8093360105
:10412000C8E0C8B988E187B90E94E90BC7B984E043
:104130000E94250CAC018B5C9840833F9140A0F419
:1041400081E08093450120913A0130913B01AFEB32
:10415000B9E00E94A53C9A0140E050E00E94613C19
:1041600030932A01209329018091290190912A01FD
:1041700090933B0180933A018EE00E94290C8EE0DF
:104180000E94250C90933F0180933E010E94730D85
:1041900095DB88E0F82EF8B8C9E0C7B985E185B9A4
:1041A000D1E0D4B980E00E94250C8C019AE0D92E90
:1041B000D7B824E0B22EB4B881E00E94250C080FD5
:1041C000191F3CE0E32EE7B840E1C42EC4B882E0FA
:1041D0000E94250C080F191F15B8C8B9C7B9D4B962
:1041E00080E00E94250C0E948D0CEC01D8B8D7B855
:1041F000B4B881E00E94250C0E948D0CC80FD91F15
:10420000E8B8E7B8C4B882E00E94250C0E948D0C83
:10421000C80FD91FF7B8F8B814B820913A013091F7
:104220003B016901CC0CDD1CC20ED31EC01AD10AA1
:10423000CC1ADD0AE12CF12C9801A0E9BAE10E9428
:10424000A53CA70196010E94613C49015A013093A7
:104250004401209343019E01A0E9BAE10E94A53CDC
:10426000A70196010E94613C30933D0120933C01DF
:104270002057354E309327012093260180E7881A76
:1042800085EE980A9092200180921F0189E1809327
:104290003601CDB7DEB7ECE00C94713DCF92DF92E2
:1042A000EF92FF920F93CF93DF93F82ED62FC42F68
:1042B0000E94DF0886E291E00E943B09FAD16D2F4F
:1042C0008F2D0E944534C090C201D090C301E09070
:1042D000C401F090C5018091020187FD05C0C114A1
:1042E000D104E104F10421F082E291E00E943B0953
:1042F0008D2F0E94DF08C114D104E104F104A1F163
:104300000E94E208809161010E94F709CC2309F420
:104310007EC0809146018D3028F490E0825A9C4FF7
:104320000E943B0980E00E940F09CD28CE28CF28AB
:1043300001F16091C2017091C3018091C40190911B
:10434000C50103E028E447EF0E947F0A85E391E07E
:104350000E943B098FE693E00E94EA3D23E046E499
:1043600064EF0E94690B1FC0C111D3CF80E00E948F
:104370000F09809161010E94F709809102018E3F2F
:1043800094F48DE491E00E943B0960910B017091DF
:104390000C0180910D0190910E0103E028E4409101
:1043A00002010E947F0A8091BA019091BB01A09105
:1043B000BC01B091BD01892B8A2B8B2BF1F080E0E1
:1043C0000E940F096091BA017091BB018091BC01FC
:1043D0009091BD0104E028E440E00E947F0A80E360
:1043E00091E00E943B0923E040E26FEF8091C00121
:1043F0009091C1010E94690B07C080E00E94F408FF
:1044000080914901811107C00E94EE0804C080E03C
:104410000E940F098ECFDF91CF910F91FF90EF9007
:10442000DF90CF900895EF92FF920F931F93CF9359
:10443000DF93182F0E94540780918F010E94DF089C
:1044400089E691E00E943B0914D560918F0180912B
:10445000900167D3EC0190938C0180938B01E090E5
:104460008D01F0908E01CA3F8FEFD80720F487E2CC
:1044700091E00E943B09809190010E94DF08112386
:1044800059F0909146018DE0891B0E94E50887E86C
:1044900090E00E943B0902C00E94EE080E94A7071C
:1044A00060918301709184018091850190918601D2
:1044B00004E026E4409192010E947F0ACA3FDF4F48
:1044C00068F488E591E00E943B0922E044E06EEF49
:1044D00080918B0190918C010E94690B0E94EE08E3
:1044E0000E94AF07E114F10469F081E591E00E94B8
:1044F0003B0922E045E26FEF80918D0190918E01A2
:104500000E94690B0E94EE08CDB7DEB7E6E00C947E
:10451000773D8F7021F40E94B7070C94861208959E
:104520008F3021F490914001913011F08F5F089508
:1045300080E00895CF9382E990E00E943A2EC0E097
:104540000E94150E60E082E00E942F1A62E080E077
:104550000E942F1A0E94540780917A01882329F023
:1045600041E062E080E09ADE12C082E990E00E94C1
:104570003B0988E693E00E943B090E94A7078FE36E
:104580000E94950880E00E94F4080E94EE088C2F9B
:10459000C0DF88EE93E00E94E40C811109C0809195
:1045A0001E01843028F48C2FBBDFC82F8A3F40F2D5
:1045B0000E945B07CF9108950F931F93CF93DF93D2
:1045C000C0E0D8E012EF0DE00E94150E60E082E03E
:1045D00045DAD093250180919101843FE1F48091E7
:1045E0007F0190918001A0918101B0918201843678
:1045F0009105A105B10578F440E060E082E00E94F9
:10460000C43160937F017093800180938101909306
:1046100082011093910180919101823FACF08093CF
:10462000920180917F0190918001A0918101B091D0
:1046300082018093830190938401A0938501B093BC
:10464000860181E0F0DE1CC00E9454078BE890E0F8
:104650000E943B0980914601902F981B892F0E9450
:10466000E50887E890E00E943B090E94A7078FE3D6
:104670000E9495080E94EE080E94AF070E94EE0873
:104680008C2F47DF88EE93E00E94E40C81110AC072
:1046900080911E01843030F48C2F42DFC82F8A3F76
:1046A00008F492CF0E945B07DF91CF911F910F9189
:1046B0000895A4E1B0E0EFE5F3E20C944F3D82E011
:1046C0008093020180912501813009F026C28091FA
:1046D0007A01813009F021C20091610124E0029F3A
:1046E000F0011124E255FE4F80819181A281B381B6
:1046F000893032E59307A105B10508F00EC24C01DF
:1047000010E0802F123028F40E94ED09582E492E17
:1047100003C00E94ED092C01E42DF0E0EC58FD4FA0
:104720002490852D90E0FC01EF58FD4FE49115B8E1
:1047300028E028B930EF83169104B8F410FD15C0B5
:10474000A0901F01B090200120E9A21A2AE1B20A2C
:1047500021E030E0052C02C0220F331F0A94E2F75B
:10476000C9018860822987B908C0E4B9822D8860B0
:1047700087B9A0901F01B0902001F4E13F2E852D54
:104780000E94210C3C01842D0E94290C34E0631608
:10479000710410F4049718F03A943110F0CF80E4CB
:1047A00080937B0094E590BF852D806480937C008E
:1047B00026E120937A00E12CF12C109280001092D7
:1047C00085001092840087E286BB0E94E40B312FA3
:1047D0003170332E10FD05C081E88093810028B828
:1047E00008C028B80E94ED0B80E286BB81E8809368
:1047F000810086B385FF13C098E098B910928100BC
:1048000020E226BB2091860030918700690140910B
:104810008400509185002417350770F014C080FF84
:10482000E8CF31E036BBA89597012F5F3F4F790164
:1048300020353105F1F6E0CF80FF05C081E086BB71
:104840009FEFE91AF90A86E980937A00E4E12E2EB7
:10485000852D0E94210C3C01842D0E94290C24E00E
:104860006216710410F4049718F02A942110F0CF06
:104870004090430150904401480C591C4A0C5B1C69
:10488000209121013091220180E9A8168AE1B80621
:10489000B0F491EEC916D104E104F10438F4C60174
:1048A00065E070E00E943A3C645101C069E1285221
:1048B0003109261B310967FD339586E009C0C20125
:1048C00060EB76E30E943A3C87E0860F285D3F4F1D
:1048D00090E0A0E0B0E08C159D05AE05BF0528F482
:1048E000C81AD90AEA0AFB0A03C0C12CD12C7601E6
:1048F000332029F082E2C80ED11CE11CF11C90E5A6
:10490000E916F10418F0C12CD12C76018BE0C81601
:10491000D104E104F10428F091E0C91AD108E108BA
:10492000F10840913A0150913B01612C712CA8EEA5
:10493000B3E00E94A53C698B7A8B8B8B9C8B950195
:10494000DA010E94A53CA30192010E94613C442728
:10495000552769897A898B899C890E94613CC901A4
:104960000E94CB0DFC01A3019201C701B6010E9478
:104970001F3C2B013C01CF01A0E0B0E073E0880FA9
:10498000991FAA1FBB1F7A95D1F7BC01CD016B5FA0
:104990007F4F8F4F9F4F2AE030E040E050E00E9471
:1049A000613CC301B2010E94613CE12FF0E0A1E053
:1049B000B0E0AC0FBD1F84E0189FA00DB11D112405
:1049C0002D933D934D935C931397311016C09CE04B
:1049D000C916D104E104F10480F03196EE0FFF1FF7
:1049E000EE0FFF1F81E090E08C0F9D1FE80FF91F75
:1049F00020833183428353831F5FA8951F5F143048
:104A000008F47FCE88E088B984E00E94F10B91E041
:104A10000D811E812F81388549815A816B817C816E
:104A2000401751076207730708F090E00D851E8557
:104A30002F85388949855A856B857C8540175107B4
:104A40006207730710F483E001C082E0E92FF0E011
:104A5000EE0FFF1FEE0FFF1F21E030E02C0F3D1F78
:104A6000E20FF31FD90134E0839FA00DB11D112483
:104A70000D911D912D913C914081518162817381F5
:104A8000041715072607370708F0892FE1E0F0E043
:104A9000EC0FFD1F94E0899FE00DF11D1124408172
:104AA00051816281738140930B0150930C0160939B
:104AB0000D0170930E0180FD08C020EF8216910455
:104AC00020F48BEF8093020117C08CEF80930201DA
:104AD000CB01BA016B5F7F4F8F4F9F4F2AE030E0D1
:104AE00040E050E00E94613C20930B0130930C01A8
:104AF00040930D0150930E0180910B0190910C0198
:104B0000A0910D01B0910E01892B8A2B8B2B11F4F2
:104B10001092020188E087B914B86496E2E10C941F
:104B20006B3DAEE1B0E0E7E9F5E20C944F3D662E57
:104B3000B82E860F898320912501283059F52091C0
:104B4000830130918401409185015091860157FD88
:104B500015C01091920109C0CA01B9012AE0312D96
:104B6000412D512D0E94613C1F5F173FACF391F422
:104B7000243160E036074105510518F48FEF9FEFAF
:104B800045C1173F39F480E028178DE73807410504
:104B9000410510F020E03DE72C8B3D8B26EDA22E49
:104BA000E4E7F2E0E60DF11D859188608E87E4E789
:104BB000F2E0EB0DF11D859188608F87E1E7F2E06F
:104BC000E60DF11D7590E1E7F2E0EB0DF11DC590EA
:104BD00090EC692AB92A81E0E82EF12C012D112DE3
:104BE0008E831F82188619861A861B861C861D8650
:104BF000188E198E1B8E1A8E0E945E1C88E088B952
:104C000060927C000E94E50B3F8537B975B874B897
:104C100052E05A95F1F70000000014B815B8DD24F1
:104C20003E8537B975B874B860927C00A895A0929B
:104C30007A0080917A0086FDFCCF20907800309039
:104C40007900B0927C004C2DE5D020917800309115
:104C50007900288B398B3F8537B9C5B8C4B8A8957A
:104C6000B0927C00A0927A0080917A0086FDFCCF01
:104C7000609178007091790060927C00472DCAD0D5
:104C8000409178005091790014B8CB01820D931DAA
:104C9000E80EF91E011D111DEA82FB820C831D83A3
:104CA00088899989840F951F2E813F816885798530
:104CB000280F391F611D711D2E833F8368877987F7
:104CC00022E32417150650F075B874B80E94EF0B54
:104CD00014B815B8888D8395888F07C0483E73E057
:104CE000570718F08A8D83958A8F888999892817A4
:104CF000190660F03E8537B9C5B8C4B80E94EF0BFD
:104D000014B815B8898D8395898F07C0883E73E0E4
:104D1000970718F08B8D83958B8FD3945D2D5F3F14
:104D200049F05F3731F45C2D550FC50E572D550FE7
:104D3000750E76CF4090430150904401440C551CB1
:104D40009201E4E0240D351DEA95E1F729015701B0
:104D500068016E807F8088849984209125012830A5
:104D6000C1F46C897D89812D912D65507040804002
:104D700090409B01AC010E941F3C9B01AC0160E78D
:104D800079E786E190E00E94613C621A730A840A26
:104D9000950AA614B704C804D90428F46A187B0835
:104DA0008C089D0803C0662477244301B20180E08B
:104DB00090E09301A4010E941F3C9501A6010E946E
:104DC000613C89E393E07981870F911D0E94E23D68
:104DD000682EC90160E170E00E943A3C260F371F3F
:104DE000C9016816190618F4861991090FC08C5E5E
:104DF0009F4F8615910540F48C899D89843981E106
:104E0000980710F00E942B12812D912D6E96E2E1F1
:104E10000C946B3D109281001092800010926F00F4
:104E200010928B0010928A0057E056BB5FEF5093B0
:104E300085005093840055E050937B0056EB5093CF
:104E40007A0051E05093810058E25A95F1F7000042
:104E500045B944B955E05A95F1F7000014B815B8B2
:104E60001092810080917A0084FFFCCF80937A00B9
:104E70000895A0E0B0E0EFE3F7E20C94553D809197
:104E80008D0190918E01892B09F09EC0E0918F01D8
:104E9000F0E0EC58FD4FD491D860E0919001F0E043
:104EA000EF58FD4FC4910E945E1C88E088B915B888
:104EB000D7B9C4B9809190010E94290C8C01D0917E
:104EC00092018CE08D0F843008F07EC080918301C8
:104ED00090918401A0918501B0918601D15F2AE073
:104EE000822E912CA12CB12CBC01CD016B5F7F4F88
:104EF0008F4F9F4FA50194010E94613C69017A0187
:104F0000DA01C901DF5FD73079F729E8C21623E15A
:104F1000D206E104F10408F057C0059708F454C024
:104F2000C5B9C4B9C0E0D0E0CC15DD0520F40E94BD
:104F3000EB0B2296F9CF14B815B8A89585E08093AD
:104F40003601809190010E94290C0817190720F45E
:104F5000EC01C01BD10B02C0C0E0D0E0A12CB12CF1
:104F6000AC14BD0430F40E94EB0B8FEFA81AB80A02
:104F7000F7CF809190010E94290C29E120933601FE
:104F8000A8950817190718F4801B910B02C080E040
:104F900090E08C179D0788F49E01281B390B69F05F
:104FA000A4EFB1E00E94A53C9E0140E050E00E94C9
:104FB000613C30938E0120938D010E945E1C88E03D
:104FC00087B988B914B815B8CDB7DEB7ECE00C9442
:104FD000713DA7E0B0E0EFEEF7E20C944F3D85EDB8
:104FE00091E048D620EF2B8354980E94E00B14BC2C
:104FF00016BC10921201109213011092140110921B
:10500000150131E035BB30936E001092800083E1D2
:105010009AE790938B0080938A00E1E0F0E0F093B0
:105020008900E0938800109285001092840083B577
:10503000816083BDF6E0F6BBF0936F00789424E0C6
:105040002093810032E339831A820E94D90BA895FC
:105050004F9902C061E06A8385B5811127C015BCF4
:1050600086B5809312010E94AF070E94EE080E944D
:10507000B7070E94EE080E941B0986E60E94950869
:105080000E941F0960911201709113018091140117
:105090009091150147E00E947E0B54988091810009
:1050A000882351F08FE30E94950806C089818150C2
:1050B00089838111CACFD3CF1092810010926F00E3
:1050C000209112013091130140911401509115016A
:1050D000DA01C9010197A109B109813F9048A105F1
:1050E000B10508F00BC1AAE0B0E00E94BA3CDC01B7
:1050F000CB010896A11DB11D23E0B695A795979504
:1051000087952A95D1F7BC01660F771F70937501BB
:105110006093740154980E94E00B16BC1092120127
:10512000109213011092140110921501F1E0F5BBD9
:10513000F0936E00109277011092760124E02BBB61
:1051400080916800846080936800789480916D00FD
:10515000806180936D0019820E94D90BA8954F99A8
:1051600002C031E03A8380916D0084FF05C06981FF
:105170006F5F69836A3F81F715BC80916D008F7EF8
:1051800080936D00809168008B7F8093680086B566
:10519000809312010E94AF0784E50E9495080E9447
:1051A0001F09609112017091130180911401909177
:1051B0001501E0917401F0917501FD83EC8328EAFB
:1051C00031E640E050E00E94CA3CEC81FD81612C58
:1051D000712C43015F01C12CD12CE12CF12C00E09A
:1051E00010E00E94F33C49014F835E831B012C01B8
:1051F0002C813D812038310530F007E023E745EF71
:10520000B4018F8117C084E6A82EB12CC12CD12CFB
:10521000E12CF12C00E010E094014F815E81C2018D
:105220000E94F33CF22FE42F07E023E747EF6F2FB4
:10523000732F8E2F952F0E947F0A39813A3F21F4D8
:105240008FE30E9495085AC094014F815E81B1019D
:10525000C201263E354B41055105610571058105A9
:10526000910509F008F44AC00E94B70786E60E943B
:1052700095080E941F0994014F815E81B101C2010E
:1052800054012115FAEC3F07FAE94F07FBE35F07EA
:105290006105710581059105A1F098F06A01710120
:1052A000820120E030E04AE85DE568E775E483E6E6
:1052B00091E00E94F33CF22FE42F07E028E44AEF4C
:1052C00013C0CF80DE807101820120E030E44AE724
:1052D00050E163EF7AE580E090E00E94F33CF22F2A
:1052E000E42F07E028E44DEF6F2F732F8E2F952FBB
:1052F0000E947F0A8AE70E949508549810926E00D7
:1053000080ED97E00E94E40C2A81820F49F480919D
:105310001E01833028F43B8131503B83311164CE30
:105320002796E2E10C946B3D1F920F920FB60F92FD
:1053300011248F939F93AF93BF9378948091120120
:1053400090911301A0911401B09115019F5FAF4F8F
:10535000BF4F8093120190931301A0931401B09357
:105360001501BF91AF919F918F910F900FBE0F903C
:105370001F9018951F920F920FB60F9211248F93C2
:1053800086E085BD8F910F900FBE0F901F901895EE
:105390001F920F920FB60F921124A89510928100C0
:1053A00015BC0F900FBE0F901F9018951F920F9273
:1053B0000FB60F9211242F933F938F939F93809159
:1053C000760190917701892B11F481E085BD2091C0
:1053D00076013091770180917401909175012817C1
:1053E000390730F015BC80916D008F7E80936D0081
:1053F0008091760190917701019690937701809347
:1054000076019F918F913F912F910F900FBE0F903A
:105410001F9018958C3008F08C50811103C081E4E6
:1054200092E036C0813019F485ED91E031C08230D0
:1054300019F488E192E02CC0833019F48DE092E0F9
:1054400027C0843019F48DE990E022C0853019F42A
:1054500082E990E01DC0863019F48BE890E018C016
:10546000873019F48CEF91E013C0883019F48DEE79
:1054700091E00EC0893019F48CEC91E009C08A30BB
:1054800019F48FE292E004C08B3021F484E292E0C0
:105490000E943B090E94EE080C944F0708950F9359
:1054A000CF938DE990E0E6D3C0E01092250160E053
:1054B00082E0F5D3809125018830C1F50E94A707CD
:1054C00083E40E9495080E941F09609183017091F6
:1054D0008401809185019091860103E026E440914A
:1054E00092010E947F0A0E94EE0860918F018091D4
:1054F000900117DB90938C0180938B010E94AF0782
:1055000089E591E00E943B0980918B0190918C018B
:105510008A3F2FEF920730F422E044E06EEF0E94C2
:10552000690B08C08FE30E94950804C00E941B0904
:105530000E94AF070E94EE088C2F0E94892288EEFD
:1055400093E00E94E40C81110BC080911E01843015
:1055500038F48C2F0E949022C82F8A3F08F4A5CFE0
:10556000CF910F9108950895A4E0B0E0EAEBFAE23C
:105570000C944F3D88E192E07DD380E180938000E0
:1055800010926F0081E090E09093890080938800F2
:1055900010928B0010928A0083E086BB10928200EA
:1055A00088E08093810015B891E194B988B989E0C9
:1055B00087B9229A80938100312C20E0FAE02F2EC7
:1055C00031E03B83812C912C5401839441E14C8345
:1055D000832D90E00A966EE170E00E944E3C6A8353
:1055E000062F621781F00E94540788E192E00E9422
:1055F0003B0910E0101728F48EE20E9495081F5F07
:10560000F9CF0E94EE085C815231B8F0C701B601B3
:10561000A50194010E94613C6B017C018B81622D8C
:105620000E942E3CA92FB0E0A50194010E94BA3C33
:10563000C60ED71EE81EF91E0CC08B81622D0E947B
:105640002E3CA92FB0E0A50194010E94BA3C6B0149
:105650007C010E94A7078B81281209C081E09C81F0
:10566000923108F480E08983811107C001C019825A
:105670002C81263120F082E503C08CE301C08EE34B
:105680000E9495080E94E2084C81C701B6010E9461
:105690007E0BC701B6017E5E85489F4FA70196012C
:1056A000220F331F441F551F0E94613CCA014F3F08
:1056B000510539F030F08DE08093810080E094E076
:1056C0001FC04034510530F08CE08093810080E0B1
:1056D00091E016C04830510530F08BE08093810096
:1056E00080E490E00DC0892B31F09AE09093810026
:1056F00088E090E005C089E08093810081E090E03F
:105700002C01612C712CCA01B901A30192010E94E4
:10571000613C2150310930938900209388008091A9
:10572000880090918900892B31F421E030E030939A
:105730008900209388000E94EE080E94AF0786E649
:105740000E9495080E94E20800918800109189004B
:1057500060E079E08DE390E0A30192010E94613C5A
:10576000A4E6B0E00E94BA3C98012F5F3F4F40E0B2
:1057700050E00E94613C29013A01A4E6B0E0A70193
:1057800096010E94BA3CA3019201261B370B480BDD
:10579000590BCA01B90105E228E44EEF0E947F0AC5
:1057A0008AE70E9495080E94EE0880ED97E00E942B
:1057B000E40C811105C080911E01811149C049C0CE
:1057C000883C60F0109281001092800088E087B9D8
:1057D00014B822982496E2E10C946B3D813598F13F
:1057E00039813323E9F04C8141504C83C501B40128
:1057F0002AE030E040E050E00E94613C49015A015B
:10580000C701B6010E94613CCA01B9012AE030E03B
:1058100040E050E00E94613C6B833AE0232E45C09B
:105820005C815631C0F55F5F5C83563111F425E130
:10583000222EAAE0B0E0A50194010E94BA3C4B01DF
:105840005C011B8232C08B3018F08B818F5F8B83A1
:10585000312C80911E018B3008F0B4CF80911D0156
:1058600087FD03C09B81890F04C08F5F820D2B8150
:10587000820F90E0622D70E06F5F7F4F0E944E3C80
:105880008B83832D0E949022382E3FEE381708F428
:1058900099CF2A819DCE8AE0282E41E04B83812C2E
:1058A000912C5401839451E15C83312CF2CFA0E020
:1058B000B0E0EDE5FCE20C94513D8DE092E0DAD1F0
:1058C00083E28093800010926F008FEF90E09093BE
:1058D0008B0080938A0083E086BB1092820015B80B
:1058E00081E184B988E088B989E087B9229A21E00A
:1058F00030E030938900209388008093810000E09D
:1059000080E0D2E310E094E6C92ED12CE12CF12CFA
:1059100088248A9423E0922EA12CB12C8D17A9F112
:10592000D43608F0D4562D2F30E0AFEFB3E00E940C
:10593000A53C6E5C7F4F8F4F9F4FA70196010E9441
:10594000613C29013A0130938B0020938A000E9428
:10595000A707A8EEB3E0A30192010E94BA3C6150F0
:105960007E4F8F4F9F4FA50194010E94613CDA0149
:10597000C90125E045E26FEF0E94690B0E94EE0825
:10598000193218F08CE30E94F10B80E496E00E943B
:10599000E40C182F833868F088E087B910928100F2
:1059A0001092800014B82298CDB7DEB7E0E10C94D5
:1059B0006D3D80911E018B3078F7C0911D01C7FDB0
:1059C000CC59CD0F133310F0C65F03C0112359F02B
:1059D000CF5F00E0802F0E949022082F803FE0F6EA
:1059E0008D2FDC2F9BCF8111F4CFF4CFCF93DF939A
:1059F0008CEC91E03FD188E393E00E94E23DC82F18
:105A0000D0E081E80E9446078C2F0E9446070E9442
:105A1000A70724E040E260E08C2F90E00E94690B31
:105A20000E94EE0880E496E00E94E40C811105C01B
:105A300090911E01911103C003C08238C0F4D0E0E0
:105A400090911E019B3098F490911D0197FD905804
:105A5000C90F882329F0893210F0CF5F01C0C158E7
:105A6000CF778D2F0E949022D82F803F50F26C2F3D
:105A700088E393E00E94EF3DDF91CF9108950F936B
:105A80001F93CF93DF938CEF91E0F4D08DE393E0FD
:105A90000E94E23DC82FD0E00E94A7070C2F0C2ED9
:105AA000000C110BC7FF0BC08DE20E94950823E08C
:105AB00045E26FEF88279927801B910B04C023E0F4
:105AC00045E26FEFC8010E94690B0E94EE0880E476
:105AD00096E00E94E40C811105C090911E01911185
