:020000040000FA
:10000000B9C60000C9C60000C7C60000C5C60000CA
:10001000C3C600000C94AF26BFC600000C94670E48
:10002000BBC60000B9C600000C94F81E0C94A126B3
:100030000C9493260C94D21EAFC60000ADC60000EF
:100040000C946D26A9C60000A7C60000A5C6000036
:10005000A3C600000C94680E9FC600009DC6000059
:100060009BC6000099C60000B200AB00A4001008B7
:10007000407E01013E01013E01013E01017E404002
:1000800018000820060606FEFE0000002060E0FFC3
:10009000FFE06020060606FFFF0606066060607F40
:1000A0007F000000050842818989760508C2A19178
:1000B00089860508000402FF000E100610FCF8787F
:1000C000F8D8889594840001030908031080C0E0E3
:1000D000070F1F0E080610FFFF86F6E6C6FFFF613A
:1000E0006F67630E080210FFFFFFFF11080310F691
:1000F000E6C66F67630C000A204122000010B0F0D2
:10010000F0F0F8FEFE8C060301000001037F7F3152
:1001100063C6CCD8C0C040949400000F0703070CFE
:10012000180C000220A192FFFFFFFF85010F0007BE
:10013000200010B0F0F0F0F80603010000010363A6
:10014000C6CCD8C0C040000F0703070C180104102C
:100150000102044E6F742063616C696272617465A0
:10016000642120466F72FF63616C69627261746919
:100170006F6E20636C616D70207468652033FF7052
:10018000696E7320746F67657468657220616E6450
:10019000207374617274207769746820746865FFD5
:1001A0006B65792E2041636B6E6F776C6564676554
:1001B000207468652073656C662D74657374207790
:1001C00069746820746865206B6579207769746844
:1001D000696EFF32732E20446973636F6E6E6563C0
:1001E000742070696E73206166746572207468652E
:1001F000FF6D657373616765202269736F6C61744D
:1002000065FF50726F626521222069732073686FE9
:10021000776E2E20536F66747761726520616E640D
:1002200020646F63756D656E746174696F6E2069AB
:10023000732061742073766E3A2F2F206D696B7274
:100240006F636F6E74726F6C6C65722E206E657466
:100250002F7472616E736973746F72207465737436
:1002600065722000BA03870358032E030703E402D4
:10027000C302A40288020000140029003E005300BB
:10028000690080009700AE00C600DF00F800120190
:100290002D01490165018201A001BE01DE01FF01BE
:1002A0002102440268028E02B502DE020903350310
:1002B00064039403C803FE0337047304B404F9040D
:1002C00043059305EA054906B3062907AE07480822
:1002D000FF08DE0900000000000000000000000030
:1002E0001E2121211200000080C0FF7F007E4A4AAB
:1002F0004A3400000000FCFC80C0E070381C0E078F
:1003000003010000000303030303030303037F7FD0
:10031000070F1CB8F0E0F0F800000000000000003B
:100320000000000000000000FC9495958501010389
:10033000070EFCF80000000000000000003E4141F4
:10034000412200E0C080C0E070180F07003C42521C
:100350005234000000F8F800DEDE8C0707070706BD
:1003600004000000000C0C0C0C0C0C0C0C0F0F000B
:100370007B7B3163C68C98C0E00000000000000069
:100380000000000000FC9494949400040607070702
:100390000F18F0E000000000000000000000000066
:1003A0003F21A1920C0000000000FFFF003C4252E0
:1003B00052340000000000F8F800EFEF86C6E6F6C1
:1003C00086868707000C0C0C0C0C0C0C0C0C0C0F0C
:1003D0000F00F7F76163676F617FFFE000000000C7
:1003E00000000000000000004894959564000000A3
:1003F0000000FFFF000000000000000000000000FF
:100400003F2121120C0000000000FFFF003C42527F
:100410005234000000E0C0800000FFFF0C0C0C0C08
:100420000C0C0F0F0003030303030303031F0F0749
:100430000303FFFF606060606060E0E000000000B8
:100440000000000000000000489495956400000042
:100450000000FFFF0000000000000000000000009E
:10046000FFFF007824227E006452524C003C42522E
:1004700052340086C6E6F6FEF7EFDEBEFEBE9E8E66
:1004800086000000000C0C0C0C0C0C0D0D0D07036D
:10049000FFFF010101010101010000000000000057
:1004A0000000000000000000FFFF00F04844FC00D6
:1004B00088FC800000000000000000000000000038
:1004C000FFFF0000007C1211127C0000003C425231
:1004D00052340002868E9EBEFFFFBE9E8E86820034
:1004E00000000000000C0C0C0C0C0C0C0D0D070394
:1004F000FFFF0101010101000000000000000000F9
:100500000000000000000000FFFF0000007884846D
:100510008448000000F0F8FC1E4E27171717171725
:1005200017170F1EFEFCF8F000E000000001070F97
:100530000F2F26100C00000080C0E0F0FF7F3F8FDF
:10054000601F0000000000000000000038BCBEBFBB
:100550008FE7130904020100000000000000000002
:10056000000000001E3E5E5E4478000000000000B7
:1005700000000000C0F818181818F8C00007060698
:1005800006060700C0FCF8F0E0DCFCC0000F070323
:10059000010E0F00C0FCDCE0F0F8FCC0000F0E0103
:1005A00003070F00C0FCFC0000FCFCC0000F0F00A4
:1005B000000F0F00F0F80C0C0CF8F0000C0D0F0001
:1005C0000F0D0C0000FCFC0000F8F800381F0F03B2
:1005D000060307060C0C0C0C0CFCFCC00C0C0C0CE1
:1005E0000C0F0F00C0FCFC0C0C0C0C0C000F0F0CC3
:1005F0000C0C0C0CC0C0C0C0C0C0C0C000000000CB
:1006000000000000C000008000008000070C0C0704
:100610000C0C070C00800000800000C00C070C0CC4
:10062000070C0C07000000000000000000000000A4
:1006300000000000000000000000000000000000BA
:1006400000000000000000000000000000000000AA
:10065000000000000000000000000000000000009A
:10066000000000000000000000000000000000008A
:100670000000000000F8FC0602FEFE00381F0F0814
:10068000080F1F38FEFE0000FEFE00000F0F0808D6
:100690000F3F1800FEFE00F800FEFE000F0F080FCF
:1006A000080F3F180080E03010F0F000381F0F08EE
:1006B000080F1F38C0E028F828E0C000070F283FC7
:1006C000280F0700F0F00000F0F000000F0F0808FE
:1006D0000F3F1800F0F000F000F0F0000F0F080FCF
:1006E000080F3F180000000000000000000000009C
:1006F00000000000000000000000000000000000FA
:1007000000000000000000000000000000000000E9
:1007100000000000000000000000000000000000D9
:1007200000000000000000000000000000000000C9
:1007300000000000000000000000000000000000B9
:1007400000000000000000000000000000000000A9
:100750000000000000000000000000000000000099
:100760000000000000000000000000000000000089
:100770000000000000000000000000000000000079
:100780000000000000007CFEFE7C00000000001B5A
:100790001B000000000E1E00001E0E0000000000E6
:1007A0000000000020F8F820F8F82000020F0F02E7
:1007B0000F0F0200387C444747CC9800060C0838DD
:1007C000380F0700081494C86030180006030104AD
:1007D0000A0A040080D87CE4BCD84000070F08084F
:1007E000070F080000080F070000000000000000CD
:1007F000000000000000F0F80C0400000000070FEB
:10080000181000000000040CF8F0000000001018A0
:100810000F0700004050F0E0F050400000010100E0
:1008200001010000004040F0F040400000000001E5
:1008300001000000000000000000000000002C3C4F
:100840001C000000C0C0C0C0C0C0C000000000004C
:1008500000000000000000000000000000000C0C80
:1008600000000000000080C0603018000603010096
:1008700000000000F8FC060206FCF80003070C0864
:100880000C07030000181CFEFE0000000008080F03
:100890000F0808000C0E82C2623E1C000E0F0908F1
:1008A000080C0C000406424242FEBC00040C08087E
:1008B000080F0700C0E0B098FCFE800000000008B0
:1008C0000F0F08003E3E222222E2C200060C08085A
:1008D000080F0700F8FC262266C4800003070C08F6
:1008E0000C070300060682C2623E1E0000000F0FC6
:1008F00000000000BCFE424242FEBC00070F080898
:10090000080F0700387CC68286FCF80000040C083B
:100910000C07030000003030300000000000060625
:100920000600000000003030300000000020361EBD
:100930000E0000000040E0B0180C060000000001AE
:1009400003060C00002020202020200000010101CF
:100950000101010000060C18B0E04000000C060385
:1009600001000000181C86C2663C1800000019191E
:1009700000000000F8FC04E4E4FCF800070F080B9A
:100980000B0B0100F0F88C868CF8F0000F0F0000C4
:10099000000F0F0002FEFE4242FEBC00080F0F08CF
:1009A000080F0700F8FC060202060C0003070C08FB
:1009B000080C060002FEFE0206FCF800080F0F08F5
:1009C0000C07030002FEFE42E2060E00080F0F08AD
:1009D000080C0E0002FEFE42E2060E00080F0F0891
:1009E00000000000F8FC068282868C0003070C08D9
:1009F00008070F00FEFE404040FEFE000F0F000003
:100A0000000F0F00000002FEFE0200000000080FB1
:100A10000F08000000000002FEFE0200070F080899
:100A20000F07000002FEFE60F09E0E00080F0F0090
:100A3000000F0F0002FEFE0200000000080F0F086A
:100A4000080C0E00FEFE38E038FEFE000F0F00001E
:100A5000000F0F00FEFE38E080FEFE000F0F0000CA
:100A6000030F0F00F8FC060206FCF80003070C0851
:100A70000C07030002FEFE42427E3C00080F0F08F6
:100A800000000000FCFE020202FEFC00070F080E40
:100A90003C3F270002FEFE42C6FC3800080F0F0054
:100AA000000F0F001C3E6242C28E0C00060E0808AA
:100AB000080F07000E0602FEFE02060E0000080FD9
:100AC0000F080000FEFE000000FEFE00070F0808F1
:100AD000080F0700FEFE000000FEFE000103060CEA
:100AE00006030100FEFE00F800FEFE00030F0E03E9
:100AF0000E0F0300069EF8F0F89E06000E0F010090
:100B0000010F0E00003E7EC0C07E3E000000080FB8
:100B10000F0800000682C262321E0E000E0F090886
:100B200008080C000000FEFE0202000000000F0F8B
:100B3000080800001C3870E0C080000000000000C1
:100B40000103070000000202FEFE0000000008088A
:100B50000F0F0000080C0603060C08000000000040
:100B600000000000000000000000000030303030C5
:100B700030303000000003070400000000000000D7
:100B80000000000020B09090F0E00000070F08087F
:100B9000070F080002FEFE1030E0C000000F0F0833
:100BA0000C070300C0E030101030200003070C08D1
:100BB000080C0400C0E03012FEFE0000070F080819
:100BC000070F0800C0E0B090B0E0C00003070C08B9
:100BD000080C04000020FCFE220E0C0000080F0F81
:100BE00008000000E0F01010E0F01000133724249B
:100BF0003F1F000002FEFE2010F0E000080F0F0073
:100C0000000F0F00000010F6F60000000000080FB3
:100C10000F08000000000010F6F600001838202031
:100C20003F1F000002FEFEC0E0301000080F0F0062
:100C3000010F0E00000002FEFE0000000000080F81
:100C40000F080000F0E030E030F0E0000F0F000788
:100C5000000F0F0010F0E01030E0C000000F0F0098
:100C6000000F0F00C0E0301030E0C00003070C0898
:100C70000C07030010F0E01010F0E000203F3F28C8
:100C8000080F0700E0F01010E0F01000070F082830
:100C90003F3F200010F0E03010706000080F0F0898
:100CA000000000002070D09090302000040C080854
:100CB000090F06001010FCFE101000000000070FC6
:100CC000080C0400F0F00000F0F00000070F080826
:100CD000070F080000F0F00000F0F0000003070C20
:100CE0000C070300F0F000C000F0F000070F0C0745
:100CF0000C0F07003070C080C07030000C0F030173
:100D0000030F0C00F0F0000000F0F0001337242473
:100D1000243F1F0030301090D07030000C0E0B09B3
:100D2000080C0C000040E0BE1F0100000000000F96
:100D30001F100000000000FFFF0000000000003F47
:100D40003F0000000000011FBEE040000000101F37
:100D50000F000000080C040C080C04000000000048
:100D60000000000080C0603060C0800007070404FD
:100D70000407070011241FBECFEFD8E0DEBFCDBFB0
:100D800021E0A0E0B1E001C01D92A63CB207E1F76E
:100D90000E948C310C94013A33C95D98559A80FDBC
:100DA000599A80FF5998519A539A5A9867FD5B9ABD
:100DB00067FF5B985A9A5A9866FD5B9A66FF5B9844
:100DC0005A9A5A9865FD5B9A65FF5B985A9A5A98A9
:100DD00064FD5B9A64FF5B985A9A5A9863FD5B9A2C
:100DE00063FF5B985A9A5A9862FD5B9A62FF5B9820
:100DF0005A9A5A9861FD5B9A61FF5B985A9A5A9881
:100E000060FD5B9A60FF5B985A9A5D9A5A985B986E
:100E100008951092B9011092520110920601109299
:100E20001301089581E08093B9011092520182E08C
:100E30008093060110921301089582E08093B90116
:100E40001092520184E080930601109213010895DC
:100E500083E08093B9011092520186E080930601ED
:100E60001092130108956093520180930601660F5A
:100E7000660F660F6093130108959091B9019F5F0B
:100E80009093B901983038F097E09093B90191E0D0
:100E90009093550102C0109255019091B901682FAD
:100EA000892F880FE0CF0895E8DF71C608958091FB
:100EB0005201809301018091B9018093030108954B
:100EC0008091030160910101880FCDCF0895682FB3
:100ED00080E063CF0895CF93DF938AE2F8DF60E08C
:100EE00081E05BDF60E081E058DF60E081E055DFBA
:100EF00060EA81E052DF8BE2EADF60E081E04DDF13
:100F000060E081E04ADF60E081E047DF60E881E0A7
:100F100044DF8CE2DCDFD0E0C0EA60910E0181E0CA
:100F20003CDF60910D0181E038DFC150B1F7DF5F38
:100F3000D03891F76EDFDF91CF91089558985A9885
:100F40005B985D98509A529A539A559AD7D45D9A65
:100F5000559A5998519A84E1D8D4589A84E1D5D4B5
:100F60008AE0D3D481E1B3DF84E0CFD486E2AFDF7F
:100F700064E081E012DF81EBAADF6EE081E00DDF4B
:100F800064E181E00ADF80ECA2DF6EE081E005DF52
:100F900060E081E002DF81EC9ADF65E081E0FDDE68
:100FA00085EC95DF68E381E0F8DE60E481E0F5DE62
:100FB0008AE38DDF65E081E0F0DE86E388DF6CE6C2
:100FC00081E0EBDE84EB83DF60E081E0E6DE85E15B
:100FD00093E00E94CB3990930E0180930D0183E141
:100FE00093E00E94CB39909305018093040173DF55
:100FF00089E26DDF8AE089C408950895582F28E0BA
:1010000030E090E841E080E0642F652309F0892B0F
:10101000440F96952150310921153105A9F70895FE
:10102000A3E0B0E0E6E1F8E00C9440399B838A83CA
:10103000662E142F4AE9461708F497C0193708F0AE
:1010400094C077247A947E0C710E522F5270552ED4
:1010500021FF15C0F12C81E0E81AF1080E9DC001B6
:101060000F9D900D112433E0959587953A95E1F702
:10107000EA81FB81E80FF91F3797FB83EA8377FE4C
:1010800002C09FE7792E2170222EC02ED12C46015E
:10109000F1E08F1A9108711608F467C0E12CF12C69
:1010A000AA80BB80A80CB91C47E0410F49834E2C95
:1010B000E01608F049C0222021F0F501EE19FF09E1
:1010C00004C0EA81FB81EE0DFF1D3490511003C076
:1010D000832D94DF382E8BE2FADE60E081E05DDE66
:1010E000612F81E05ADE60E081E057DE698181E0B6
:1010F00054DE8AE2ECDE60E081E04FDE460C642DD7
:1011000081E04BDE60E081E048DE642D81E045DE79
:101110008CE2DDDE88E0482E37FE07C060910501D5
:1011200081E03BDE6091040106C060910E0181E028
:1011300034DE60910D0181E030DE330C4A9461F7BA
:101140004FEFE41AF40AB3CF552039F08A819B811E
:101150008C199D099B838A8306C0EA81FB81EC0D73
:10116000FD1DFB83EA83185F96CF2396E2E10C9482
:101170005C39EF920F93282F8F7030E6839FC00168
:1011800011248C529D4F322F307324FF02C028E06F
:1011900001C028E520931401303218F010920001AC
:1011A00008C020E420930001209114012D5D2093BC
:1011B000140140E2E42E08E120E04091000160913A
:1011C00014012EDF0F91EF900895EF920F93262FC9
:1011D000FC01649131964491319604913196E490EA
:1011E00050910001450F50911401650F049618DFCE
:1011F0000F91EF90089560E0E8CF0895EF920F937C
:10120000909152019F5F9093520140910601440FCB
:10121000440F440F20E1829FC001112450E1E52ECC
:1012200008E020E0609113018C589A4FF9DE80911C
:101230001301885F809313010F91EF9008958F5CE5
:10124000DDCF089580E2DACF0895A1E0B0E0EBE2CF
:10125000F9E00C94503918162CF48983F3DF898156
:101260008150F9CF2196E2E00C946C3990915201B3
:1012700084E1891BEACF0895CCDDF8DFCACD08955B
:10128000D1DDF4DFCFCD08958DE3B8CF0895CF93AE
:10129000DF93EC018991882311F0B0DFFBCFDF9160
:1012A000CF910895CF93DF93EC01CE010E94C33913
:1012B000982F9F7719F0A2DF2196F7CFDF91CF917A
:1012C0000895EF920F93FC0104913196E4900296F9
:1012D000A7DE0F91EF9008950F938BE691E0E2DF88
:1012E00040919D014D3F64F460918B0170918C01A0
:1012F00080918D0190918E0103E026E4E3D002C03D
:101300008FE37CDF0F91089597FF09C08F939F9320
:101310008DE274DF9F918F91909581959F4F6EE242
:1013200071E04AE050E00E94A039B1CFEF92FF9205
:101330000F931F93182F062FF42E8DE491E0B2DF48
:10134000EE24E0915301F09154018685E81611F4E2
:10135000812F09C08485E81611F4802F04C085858B
:10136000E81611F48F2D4ADFE3948E2D833049F770
:101370001F910F91FF90EF900895EF92FF920F93BE
:101380001F93182F062FF42E80E08EDD83E591E069
:1013900089DFEE248E2D53DF77DFE0915301F0914A
:1013A00054018685E81611F4812F09C08485E8165A
:1013B00011F4802F04C08585E81611F48F2D1EDFEF
:1013C00041DFE3948E2D833029F71F910F91FF9019
:1013D000EF900895682F80E092E0662309F491E091
:1013E000623009F481E008950F93082FEAEBF1E0F1
:1013F000880F880FE80FF11D6081718182819381D0
:10140000643671058105910578F42091020122234B
:1014100059F4802FDFDF692F0E944A22BC0180E04F
:1014200090E04EEF03E002C04FEF04E024E04AD02A
:1014300009DF0F910895863058F4EDEAF1E0E80FE6
:10144000F11DE80FF11D8081918163E0FED0FACE9D
:1014500008951F93182F80918601882319F0F2DEDA
:1014600080E0CCDEDFDC84E491E01CDF812F82951C
:101470008F70E1DF812F8F70DEDF1F910895CF9392
:10148000DF938091150182958F70C1EAD1E0C80F7A
:10149000D11D8881D4DE8CE091E004DF8E81CFDE27
:1014A0008CE091E0FFDEC1EAD1E08091150183700C
:1014B000C80FD11D8E81C3DE80911501CADFDF9177
:1014C000CF910895A0E0B0E0E8E6FAE00C94463948
:1014D000D42FC22F033009F4A5C0043009F4A9C0E9
:1014E000053051F0063081F00730B1F0B4E6CB2E74
:1014F000D12CE12CF12C17C0A0EACA2EA6E8DA2ED6
:10150000EE24E394F12C0FC0F0E4CF2EF2E4DF2EB2
:10151000FFE0EF2EF12C07C0E0E8CE2EE6E9DE2E4C
:10152000E8E9EE2EF12C5AE0852E912CA12CB12C5D
:101530006C157D058E059F0560F06B5F7F4F8F4FAB
:101540009F4FA50194010E945E38CA01B901DF5F77
:10155000EFCFD45FD7FD04C0D33118F0D2E101C082
:10156000D0E02BEAD29FF12C1124F6942F2D220FDC
:101570002F0DD21B21F0F39423E02D1BD22F2AE054
:1015800043E451E00E947F39E3E4F1E0DF010D9094
:101590000020E9F78D010150110903541140B02ECC
:1015A000B80177272D2F30E02C5F3F4F26173707E4
:1015B00014F4F394DD5F8F2D90E08A5E9F4F0E94BC
:1015C000C339A82EC02ECD1A1C1434F08EE216DEBC
:1015D000CC2011F080E312DED11102C0CC24CA94D9
:1015E00043E4E42E41E0F42E8701DD24C7FCD094CF
:1015F000802F8E198B1568F4F80181918F01FEDD23
:101600009801235431402C153D0591F78EE2F6DD0B
:10161000EFCFAA2011F08A2DF1DDCC2389F08C2F99
:10162000EDDD0EC038EEC32E33E0D32EE12CF12CCD
:101630007ACF20E1C22E27E2D22EE12CF12C73CFFB
:10164000CDB7DEB7ECE00C9462390F93062FBC01E6
:1016500080E090E026E54DEF35DF0F910895E82F0B
:10166000F0E0EE0FFF1FE859FF4F85919491209114
:101670000001420F20911401620F20E022CE089554
:10168000CF93DF93C82FD62FE0915301F0915401EF
:1016900048E16EE18685E3DFE0915301F09154016A
:1016A0004D2F6C2F8485DBDFE0915301F0915401C5
:1016B00040E06EE18585D3DFDF91CF910895CF9330
:1016C0000ADC80E356DD62E080E890E07EDD80E2C7
:1016D00050DD89EB90E08FDD60E085E0C4DB80E6E3
:1016E00091E0E0DD6AE085E0BEDB88E591E0DADDEF
:1016F00088E99AE3E6D1EFDB83E13BDD83E039DD86
:1017000089EC90E078DD61E082E0ADDB8EE476DDAF
:101710008DE274DD8AE791E0C5DD6BE082E0A3DB5A
:1017200080E56CDD8DE26ADD8AE791E0BBDD88E96A
:101730009AE3C7D1D0DB81E31CDD81E21ADD8DE2C3
:1017400091E059DD60E085E08EDB8EE457DD8DE2CF
:1017500055DD85E453DD84E791E0A4DD6AE086E0B1
:1017600082DB80E54BDD8DE249DD85E447DD84E702
:1017700091E098DD88E99AE3A4D1ADDB81E1F9DC61
:1017800081E291E038DD81E0F4DC85EF90E033DD4B
:1017900060E081E068DB8EE431DD8DE22FDD84E402
:1017A0002DDD84E791E07EDD6AE082E05CDB80E5B0
:1017B00025DD8DE223DD84E421DD84E791E072DD27
:1017C00088E99AE37ED187DB82E3D3DC82E2D1DC55
:1017D0008BEE90E010DD60E085E045DB8EE40EDD11
:1017E0008DE20CDD85E40ADD8FE791E05BDD6AE0E8
:1017F00086E039DB80E502DD8DE200DD85E4FEDC9C
:101800008FE791E04FDD88E99AE35BD164DB82E109
:10181000B0DC83EE90E0EFDC82E0ABDC83ED90E0C7
:10182000EADC61E081E01FDB8EE4E8DC8DE2E6DCEF
:1018300084E4E4DC8FE791E035DD6BE082E013DBEC
:1018400080E5DCDC8DE2DADC84E4D8DC8FE791E053
:1018500029DD88E99AE335D13EDBDBDA8EEF90E0D3
:1018600021DDE0DA89EF90E01DDDE7DA86E391E043
:1018700019DDEEDA8CE091E015DDE4DC88E091E042
:1018800011DDC0E08C2F8F7071F48C2F8F7321F4D9
:1018900088E99AE316D11FDB60E08C2F8695869548
:1018A00086958670E0DA80E28C0FA8DCCF5FCF35BA
:1018B00049F788E99AE305D10EDBCF9108950895A1
:1018C00003D002D001D000D000D003D002D001D08C
:1018D00000D0A89500D003D002D001D000D000D015
:1018E00003D002D001D000D000D003D002D001D06C
:1018F00000D000D003D002D001D000D000D003D05F
:1019000002D001D000D00000089590E0893C28F07A
:10191000885C48EC849FC0011124009709F4089565
:1019200020918100277019F0DBDF019716C081300C
:10193000910519F002973EE303C037E180E090E0A3
:101940002091B200230F2093B30042E04093700037
:1019500027E023BF889526E023BFA895DECF8F938D
:1019600084E0D3DF07C08F9382E0CFDF03C08F9383
:1019700081E0CBDF8F911F93182F106410937C00B0
:10198000E12FE07880913901E81759F0E0933901AF
:10199000B0DF8EE980937A0083E083BF889582E090
:1019A00083BF20E030E0A901E0E01FC08EE9809312
:1019B0007A0083E083BF889582E083BF60917800DE
:1019C00070917900260F371F411D511DE43061F4DD
:1019D00080913B01803041F084E02030380720F4D2
:1019E00017FD02C01068CACFEF5F80913801E81779
:1019F000E8F260913C0170913D0117FF04C06091D5
:101A00003A0170913B0180E090E00E9428382FEF6E
:101A100033E040E050E00E945E38B901CA012091F5
:101A2000380130E040E050E00E945E38C9011F916B
:101A3000089589B183FB882780F949998260909144
:101A40002001943050F09EE090931C0180931D0182
:101A50001092210191E090932001E0912001AE2F9E
:101A6000B0E0A45EBE4F9C91981721F181111AC07D
:101A7000A3E0AE0FA37020912101923041F4B0E0B9
:101A8000A45EBE4F9C91933069F42F5F09C09130E2
:101A900049F4B0E0A45EBE4F9C91933019F42150FC
:101AA00020932101EF5FE370E0932001F0E0E45E1A
:101AB000FE4F80838091210187FD819580932201D3
:101AC0000895A0E0B0E0E7E6FDE00C944939D82E97
:101AD000C92E5398519808DF10922101E0912001FE
:101AE000F0E03196E370FF27E45EFE4F80EF8083E5
:101AF000C5E6D9E19EDF4F9905C0FADED150D1F796
:101B0000C150B9F7CD2DDC2DF12C05E510E0BB243B
:101B1000B394D7FD36C082E3E82E8BDFE9DEEA948A
:101B2000E1F7000F4F9B0F5F0F730F3349F4111153
:101B300003C0CD2DDC2D14E01F5F163928F021C025
:101B4000011102C011111DC0A8951C161D062CF410
:101B50002A97209711F4CFEFDFEF8091220188239D
:101B600039F0F39480918701811102C0B09287010E
:101B700084E18F1570F680912101811102C0F12C52
:101B8000C8CF812FCDB7DEB7E9E00C946539CF938C
:101B90008ED9C82F80915501882301F1813051F4ED
:101BA000C73041F463E18EE05ED98BE227DB63E16D
:101BB0008EE059D980E49FE184DF811104C08091D7
:101BC00022018111F7CFC73041F480915501813056
:101BD00021F460E08EE047D949DB72D9CF910895B6
:101BE00082E293E00E94C339382F83E293E00E949F
:101BF000C33920914001230F30914101381F2093B8
:101C000025013093260183E0283E380720F0C901E2
:101C1000885E934002C080E090E062E370E00E9442
:101C20003738683008F067E0E4E6F2E0E60FF11DCF
:101C3000E60FF11D459155912591359162E3681BA1
:101C4000421B530B649FC001659F900D1124499660
:101C500062E370E00E943738620F731F70938A014D
:101C60006093890184E293E00E94C339992787FD3C
:101C700090956091400170914101860F971F90935C
:101C80003B0180933A0190938501809384010895EC
:101C9000CF93DF9324E130E0B9010E943738DC01B3
:101CA000E6E7F2E0E60FF71FE60FF71FC591D591C3
:101CB000459155914C1B4A9FC0011124B9010E94C6
:101CC00037386C0F7D1FCB01DF91CF9108951895A8
:101CD0001895109229011092270110927F011092FD
:101CE0006501109228011092510110928601109204
:101CF0006A0110926B0110926C0110929B0110927C
:101D00009C011092020110928F011092900110928A
:101D100091011092920184EF80939E010895A1E0B9
:101D2000B0E0E5E9FEE00C944E3917B818B8E82F9A
:101D3000F0E0E35BFE4F949195B9262F281BE20F4C
:101D4000F11D27FDFA95E491E92BE4B9698313DECF
:101D50008C016981862F0FDE20913C0130913D017D
:101D600036952795A90143505109B801625E7F4F0E
:101D70004617570778F4255E3F4F0217130750F4B4
:101D8000BC01625E7F4F4617570720F441E082177F
:101D9000930708F040E014B8842F2196E4E00C94F7
:101DA0006A39CF9361E080E0BADFC82F62E080E05B
:101DB000B6DFC80F62E081E0B2DF8C0FCF910895EB
:101DC000A3E1B0E0E6EEFEE00C944039182F10924B
:101DD0002901807FF9F4E5DF833009F0D4C3109244
:101DE0000E0110920D018FEF9FEF909305018093EC
:101DF000040171D887E492E055DA14D88FE3FED954
:101E000080ED97E05EDE8B30C8F465D88BEE90E015
:101E100049DAB9C3A6E9FA2E00E05DD88EEA91E06E
:101E200041DABFDF833021F40F5F043010F006C0C9
:101E300000E088E26ADDFA9481F76DC00E94120723
:101E400087EA90E02FDA60E089E193E00E94D039E0
:101E500060E08AE193E00E94D03960E088E193E09D
:101E60000E94D03960E082E00E944A225C019A839D
:101E7000898361E082E00E944A226C019C838B830B
:101E800060E081E00E944A227C019E838D83B5013F
:101E9000882777FD8095982F03E020E24EEF12DB34
:101EA000B601882777FD8095982F20E24EEF0ADB58
:101EB000B701882777FD8095982F24E04EEF02DB4D
:101EC0002AE5A216B10424F084E190E09A83898384
:101ED000698189E193E00E94D0398AE5C816D1046E
:101EE00024F084E190E09C838B836B818AE193E012
:101EF0000E94D0399AE5E916F10424F084E190E0DB
:101F00009E838D836D8188E193E00E94D03982E0C9
:101F1000809355013CDE1F701F87113009F050C0BF
:101F200001E010E058EB252E52ED352E57E4452EFA
:101F3000512C62E0A62E78E0972EECE06E2EF4ECA9
:101F4000CF2EF6E3DF2EE12CF12C3CC0839423E06E
:101F5000281570F195D990D984E550D9C801DFD9F9
:101F600071D9E1E0BE1233C00E94591F8AED90E0A2
:101F700099D964E0809140019091410166DB0E9413
:101F8000120785ED90E08ED98091890190918A01A8
:101F9000C6D98EEB8093380117B818B814B815B8A5
:101FA00088EE93E08EDDF4E0BF1681F28B3070F2A4
:101FB00088EE93E086DD0F5F1F4F0830110511F4A6
:101FC00018E71CC1812CB02EB0E27B2EC3CFF2E00B
:101FD000BF1241C020913C0130913D01A8E5BBE119
:101FE0000E949C38A70196010E94803881E085B943
:101FF00085E084B980E0288B398B4A8B5B8BAFDC22
:10200000288939894A895B89821B930B9A83898342
:1020100081E184B980E0288B398B4A8B5B8B9FDC14
:10202000288939894A895B89821B930B9C838B831E
:1020300084E085B984E184B981E0288B398B4A8BAF
:102040005B8B8DDC28893989821B930B9E838D8362
:102050008FEB90E0B7C093E0B91229C0A5B8EAE0D1
:10206000E4B980E07CDC20913C0130913D01369563
:10207000279538872F83821B930B9A838983F2E2FB
:10208000F4B980E06CDC2F813885821B930B9C8334
:102090008B8395B828E224B981E061DC2F813885F3
:1020A000821B930B9E838D8381EB90E08BC084E039
:1020B000B81207C087E392E0F5D873DE811160C2E1
:1020C00087C095E0B91213C015B8A4B880E047DC0A
:1020D0009A83898394B881E042DC9C838B8374B8B3
:1020E00082E03DDC9E838D8381ED90E06BC0E6E075
:1020F000BE1227C0A4B8A5B880E031DC20913C0115
:1021000030913D01821B930B9A83898394B895B8D3
:1021100081E025DC20913C0130913D01821B930B35
:102120009C838B8374B875B882E019DC20913C01E4
:1021300030913D01821B930B9E838D838DEC90E04B
:1021400041C0F7E0BF1240C020913C0130913D01F9
:10215000A8E5BBE10E949C38A20191010E945E3873
:10216000A5B883E084B980E0288B398B4A8B5B8BE0
:10217000F6DB288939894A895B89821B930B9A830C
:10218000898395B864B881E0288B398B4A8B5B8B47
:10219000E6DB288939894A895B89821B930B9C83FA
:1021A0008B8375B890E394B982E0288B398B4A8B86
:1021B0005B8BD5DB28893989821B930B9E838D83AA
:1021C0008BEA90E06FD804C0E1E0BE1609F4E4CEDB
:1021D0000E94120789819A8197D834D88B819C817B
:1021E00093D830D88D819E818FD8D6CE49D887E3B9
:1021F00092E058D884E689DB115019F0D2DD8111C4
:10220000F5CF0E946B0780EA90E04CD860913E01C8
:1022100070913F0180E090E003E024E04FEF52D95D
:102220000E94120789E990E03DD860914F017091BA
:10223000500180E090E024E04FEF44D982E08093A9
:102240005501A5DC109229010E946B0785E990E0F9
:1022500029D860E082E00E94241C00919301109133
:1022600094011C870B8761E082E00E94241CC090CF
:102270009301D0909401DE86CD8660E081E00E94DB
:10228000241CE0909301F0909401FE82ED8262E0C4
:1022900080E00E94241C80919301909194019C8382
:1022A0008B8362E081E00E94241C809193019091D5
:1022B00094019A87898761E080E00E94241C8091C4
:1022C0009301909194019A838983EF85E13021F005
:1022D00020914E01223021F4029698878F8304C00A
:1022E00098878F8310924E01B801882777FD8095DB
:1022F000982F03E020E240E0E5D8B601882777FD7B
:102300008095982F20E240E0DDD8B701882777FD3F
:102310008095982F26E444EFD5D86E01FFE0CF0ECC
:10232000D11CFE013196819191910A97853B9105CF
:10233000F0F4EC15FD05B9F7ABE1EA2EA3E0FA2EB7
:102340008E010F5F1F4FF80160810E5F1F4F6E5EA1
:10235000C7010E94D039FFEFEF1AFF0A0C151D05C7
:1023600091F70E94120780E991E00E94520982E0F1
:10237000809355010CDC2F85213029F080914E018E
:10238000823009F0E7C0E0E4BE2E10E0FAE0CF2E84
:10239000D12CE12CF12C0E946B0780E00E941F09D8
:1023A00086E391E00E94520982E00E941F098EE0BC
:1023B00090E00E9452091092290160E082E00E94A0
:1023C000241C00919D0160918B0170918C01809182
:1023D0008D0190918E01073F44F4A70196010E9460
:1023E0005E380F5FB901CA01F6CF00939D0160937B
:1023F0008B0170938C0180938D0190938E01073F28
:1024000009F092C0DC01CB0180569109A109B10904
:1024100080399545A105B10508F086C060919F01FE
:102420007091A001CB018B569F4F8B32914008F0E9
:102430007BC01F5F153008F478C082E293E00E94F1
:10244000DE390E946B0787E090E00E94520980917C
:102450009F019091A0010E948409C2DB18B881E01D
:1024600087B980E284B982E086DA853D9340DCF763
:1024700014B810923B0110923A0182E07CDA8C0190
:10248000809184019091850190933B0180933A0162
:1024900082E071DA7C01EE0CFF1C10923B0110927D
:1024A0003A0182E068DAC0908401D0908501D09230
:1024B0003B01C0923A01080F191F0E191F090E9413
:1024C000120780E090E00E94520984E293E00E94AB
:1024D000C33973E0B72EB80E9601D8010E94AB380D
:1024E0009701442737FD4095542F0E948038B20E43
:1024F0006B2D84E293E00E94D0398B2D992787FDC4
:1025000090950E9484096CDB82E0809355013FDB4B
:1025100010924E018BE193E00E94C339682F8EE147
:1025200093E00E94D03916C010E00E94120760911B
:102530008B0170918C0180918D0190918E0104E04E
:1025400026E440919D010E94620A88E2DED9BA9495
:1025500009F021CF89E1809338010E946B078BEE4F
:1025600090E00E9452090E9412078EE292E00E94BF
:1025700052091092290182E08093550108DB03C0C3
:1025800052E0852E25CE6396E2E10C945C39809171
:102590004E0181110DC08BE193E00E94C33961E0CF
:1025A000680F8EE193E00E94D03981E080934E0164
:1025B0000895CF92DF92FF920F931F93CF93DF93F3
:1025C0001F92CDB7DEB7E82FF0E0E05BFE4FE4915D
:1025D000E8B9E7B915B8E62FF0E0E35BFE4FE49108
:1025E000E4B908E813E1FE2EFF0C862F6983B7D902
:1025F0006C01F4B869818017910710F48C01F5CF54
:102600000097F9F00E94280786E191E00E945209A4
:10261000D60120EA36E841E050E00E94B13828E9CE
:1026200037EB40E050E00E945E38CA01B9018827CC
:10263000992702E021E447EF0E94620A17B818B810
:1026400014B80F90DF91CF911F910F91FF90DF9001
:10265000CF9008950F931F93CF93DF9385E08BD98D
:1026600085E085D9EC018C01000F111F000F111FAF
:102670000A561F4F10924201043883E0180750F4A5
:1026800084E891E00E9452090E94360981E080931B
:10269000420126C083E991E00E94520962E0C8012C
:1026A0000E94250B0E942209CA3F86E0D80790F4B9
:1026B000C333D64060F482EA92E00E9452090E943D
:1026C00036098DEC22D91BB88AEC1FD909C089EADA
:1026D00092E002C080E991E00E9452090E9436090E
:1026E000DF91CF911F910F910895A4E1B0E0EBE746
:1026F000F3E10C944039982E862E442EA895E62FAF
:10270000F0E0E35BFE4F54903396E490E42FF0E06A
:10271000E35BFE4F6490E82FF0E0E35BFE4FF49044
:102720003396749065B8262D25292C8B24B977B85B
:1027300078B8862F1CD99E838D8354B8882D17D9DD
:102740001C0114B8CDD815B83C8934B9882D0FD9DF
:102750004D815E818417950720F5805E9E4F481756
:10276000590708F4C5C4E7B818B8F5B88F2D8629FD
:1027700084B960913C0170913D017E836D83892D08
:10278000F6D8AD81BE81A81BB90BBE83AD83F4B86A
:1027900020903C0130903D01892DE9D8281A390A52
:1027A00008C02D813E81205E3E4F8217930708F4BA
:1027B0009FC42091650180917F0190E0820F911D5F
:1027C00002974CF0213009F093C4909162018091FE
:1027D0007C0198138DC4162D110FED81FE81E43715
:1027E000F10508F49CC0CF01880F991F4496281664
:1027F000390608F094C077B878B8812F852984B954
:10280000882DB1D86C01842DB6D85C0115B9882DFE
:10281000AAD89601295A3D4F1F2918B8E7B814B90C
:1028200015B928173907A8F5842D9DD888349F40FD
:1028300028F084E08093290182E204C084E0809340
:10284000290184E280932801D0925B01C0925A0151
:10285000AC14BD0440F4C6018A199B099093610130
:102860008093600104C01092610110926001960192
:10287000A0E1B7E20E949C3820912301309124010D
:1028800040E050E00E945E3830935D0120935C018F
:1028900027C4892D68D88C01842D6DD86C01F5B8BA
:1028A000892D61D8895A9D4F8017910708F020C45F
:1028B00078B877B8842D57D8813D934028F484E0C8
:1028C0008093290182E304C084E08093290184E39A
:1028D000809328010C151D0538F4C01AD10AD09236
:1028E0007B01C0927A0104C010927B0110927A01A0
:1028F00020913C0130913D01201B310BA0E1B7E25A
:102900000E949C3820912A0130912B0140E050E038
:102910000E945E383093770120937601B1C118B8D8
:10292000E7B8F5B80F2D062904B9892D20D8988766
:102930008F83C0903C01D0903D01842D1CD89A8398
:1029400089830A97A0F514B881E00E94850C812F35
:102950008F2984B9892D0BD898878F8340913C01AA
:1029600050913D01481B590B5C834B83842D03D848
:102970009A83898380912A0190912B019C0140E0E8
:1029800050E060E677EB87E490E00E945E38AB8130
:10299000BC810E94B138A981BA819D0140E050E01C
:1029A0000E945E3829873A874B875C8716C0F601FC
:1029B0002F813885E21BF30BFC83EB83CF01498128
:1029C0005A81841B950BBA010E943738CB01A0E0D5
:1029D000B0E089879A87AB87BC8714B815B878B8F8
:1029E00077B881E00E94850C99EB291697E03906AB
:1029F00008F07EC3AC89A4B9882D0E94B70C8F352E
:102A00009D4008F443C114B881E00E94850CEC8914
:102A1000E4B981E00E94850CF12FF529FB8BF4B914
:102A2000882D0E94B70C6C01842D0E94BB0C9E87E0
:102A30008D87892D0E94BB0C5C012D853E85213D33
:102A4000374008F4AEC083E0809329018DE0809385
:102A5000280136012C143D0410F462187308E0902C
:102A60002301F090240100E010E060E677EB87E4BA
:102A700090E0A80197010E945E38D3010E94B1380E
:102A8000AD85BE859D0140E050E00E945E3880919A
:102A90007F01882369F08091700190917101A0916C
:102AA0007201B091730182179307A407B50700F56F
:102AB0002093700130937101409372015093730120
:102AC0009601A0E1B7E20E949C38A80197010E94FC
:102AD0005E383093770120937601C501ED85FE8540
:102AE0008E1B9F0B909375018093740121E001C0B0
:102AF00020E08091700190917101A0917201B091DC
:102B0000730149855A856B857C8584179507A607CF
:102B1000B70738F5409370015093710160937201CB
:102B2000709373018F81988569817A81861B970BD9
:102B300090937501809374012B813C81A0E1B7E2F1
:102B40000E949C3820912A0130912B0140E050E0F6
:102B50000E945E38205F384D3093770120937601D4
:102B600003C0222309F488C39101A0E1B7E20E94C7
:102B70009C38A80197010E945E3830937901209318
:102B800078012D813E81A0E1B7E20E949C38A80126
:102B900097010E945E3830937B0120937A0121E0F7
:102BA0006BC371E62716310408F070C081EDC816BA
:102BB00087E0D80608F46AC084E08093290182E1A6
:102BC00080932801C60186509F4F8A159B0520F4EB
:102BD00083E1809328011AC0CA14DB0498F4A09101
:102BE0002301B091240195012C193D090E949C38C4
:102BF000960140E050E00E945E38309375012093CA
:102C0000740104C010927501109274019E2D97708A
:102C1000E92E842D806480937C007BE0F72E01E018
:102C200010E0CC24CA94E3E0DE2EA89561E0862D66
:102C300028D5AB89A4B986B18E21E9F354B8809127
:102C40007A00806480937A0080917A0086FDFCCFC0
:102C50008091780090917900F601E81BF90B0E0F36
:102C60001F1FFA9411F7C801880F991F880F991F29
:102C700069E070E00E94373870937B0160937A01BD
:102C800080917F018F5F80937F0189CFFC89F4B9A8
:102C900065B8882D0E94B70C5C01842D0E94BB0C86
:102CA0009C838B8360913C0170913D01681B790B83
:102CB0006A30710590F514B881E00E94850C812F6F
:102CC000852984B915B9882D0E94B70C5C01842D23
:102CD0000E94BB0C9C838B838091230190912401E3
:102CE0009C0140E050E060E677EB87E490E00E94D2
:102CF0005E38D5010E94B13820913C0130913D01F0
:102D00004B815C81241B350B40E050E00E945E3813
:102D100029873A874B875C870CC0C501861B970BB8
:102D20000E943738CB01A0E0B0E089879A87AB8753
:102D3000BC87E7B818B804B905B9892D0E94B70C4B
:102D400098878F83842D0E94BB0C9A838983882D5A
:102D50000E94BB0C6C012F8138852034364008F06E
:102D6000C5C1F5B8892D0E94B70CAC01F4B8892D06
:102D7000498B5A8B0E94B70C9C0115B881E02F87B4
:102D8000388B0E94850CF5B8892D0E94B70C2F85D1
:102D9000388949895A892034364008F059C081332E
:102DA000914108F455C08F8198858A569F4F4817E6
:102DB000590708F04DC085E0809329018091650195
:102DC0008F5F8093650189819A818C199D09909309
:102DD0005B0180935A012F8038842C183D08309273
:102DE00061012092600114B815B8E8B881E00E9432
:102DF000850CF4B8892D0E94B70C853F910508F029
:102E000049C204B9842D0E94B70C813D934008F457
:102E100041C2892D0E94BB0C8D3D924008F43AC2FC
:102E2000F4B8892D0E94B70C8D3D924008F432C24F
:102E3000F5B881E00E94850C15B8892D0E94B70C69
:102E4000853F910508F026C286E08093290122C2C1
:102E500004B905B981E00E94850CD12EDF28D4B8D1
:102E6000D5B8892D0E94B70CAC0100913C0110919E
:102E70003D01081B190B842D498B5A8B0E94BB0CFA
:102E80009E878D8720913C0130913D01281B390B95
:102E90003A832983882D0E94BB0C98878F834989A8
:102EA0005A8969817A816E3F794008F4B0C083E025
:102EB000809329018CE08093280138012016310687
:102EC00010F46218730880912A0190912B016C0113
:102ED000E12CF12C60E677EB87E490E0A701960106
:102EE0000E945E38D3010E94B138A981BA819D0148
:102EF00040E050E00E945E3880916501882369F0CF
:102F00008091560190915701A0915801B0915901BB
:102F100082179307A407B50708F52093560130934D
:102F2000570140935801509359018D859E85EF813B
:102F3000F8858E1B9F0B90935B0180935A0198013B
:102F4000A0E1B7E20E949C38A70196010E945E387A
:102F500030935D0120935C0121E001C020E080916D
:102F6000560190915701A0915801B091590149859E
:102F70005A856B857C8584179507A607B70720F5CA
:102F80004093560150935701609358017093590133
:102F90008B819C818A199B0990935B0180935A01D4
:102FA0009501A0E1B7E20E949C3820912301309165
:102FB000240140E050E00E945E38205F384D30939D
:102FC0005D0120935C0103C0222309F464C19101D7
:102FD000A0E1B7E20E949C382091230130912401A6
:102FE00040E050E00E945E3830935F0120935E0124
:102FF0002D813E81A0E1B7E20E949C38A701960195
:103000000E945E38309361012093600143C161E604
:103010002616310408F06AC009347DE0170708F469
:1030200065C084E08093290182E0809328018F812C
:10303000988586509F4F8417950720F483E08093EE
:1030400028011CC08F8198858417950798F4A0915A
:103050002A01B0912B019A01281B390B0E949C3840
:10306000980140E050E00E945E3830935B0120936D
:103070005A0104C010925B0110925A01072D07708B
:10308000842D806480937C001BE0AA24A394B12C3F
:10309000A89560E0862DF5D2D4B8D5B886B1802346
:1030A000E9F7F4B880917A00806480937A00809187
:1030B0007A0086FDFCCF8091780090917900A80E6F
:1030C000B91E115029F7C501880F991F880F991F44
:1030D00069E070E00E94373870936101609360018D
:1030E000809165018F5F80936501D4C017B818B8CF
:1030F00014B815B817B897EC291691E0390608F4FA
:10310000B0C018B818EC072D0E2907B981E00E944D
:10311000850CE7B8892D0E94BB0C429710F0115026
:10312000A1F7452C440C3F2C330C34B835B861E082
:10313000862DA7D2892D0E94B70C8C0144B815B8F2
:1031400077B878B860E0862D9CD2A0903C01B09012
:103150003D01882D0E94B70C6C0154B8892D0E9446
:10316000B70C9A838983882D0E94BB0C29813A81F0
:10317000281B390B3A83298318B8E7B8F4B8F5B897
:1031800061E0862D7ED2892D0E94B70C7C01882DAE
:103190000E94BB0CE81AF90A49815A814E155F0555
:1031A00040F434B835B8892D0E94B70CFA82E98210
:1031B00015C085010C191D0944B815B877B878B841
:1031C00060E0862D5ED2E0903C01F0903D01882DBC
:1031D0000E94B70CB701681B790BCB0129813A819A
:1031E0002759310929383141E0F529813A8182177F
:1031F0009307B8F5C80133E0969587953A95E1F7BE
:10320000893C910510F088EC90E0800F911F498176
:103210005A818417950728F5CA0124E09695879569
:103220002A95E1F780179107E0F480912901823017
:1032300018F482E08093290180912701E82FF0E0C3
:10324000DF01AF55BE4F9C9216968C92EE0FFF1F7A
:10325000E355FE4F29813A81318320838F5F80932C
:103260002701682D892D25D017B818B814B815B8BE
:103270006496E2E10C945C3980917F018F5F8093CA
:103280007F01222389F340927C0180927D019092FC
:103290007E01EACF21E0809165018F5F8093650117
:1032A000222311F3409262019092630180926401A3
:1032B000DBCFA0E0B0E0EFE5F9E10C944239982EC5
:1032C000862EA895E62FF0E0E35BFE4FB490339690
:1032D0002491E82FF0E0E35BFE4FE4903396F49006
:1032E00030917F018091650190E0830F911D892BC2
:1032F00009F0C2C1A89580913C0190913D01880FD1
:10330000991F880F991F90933D0180933C018091F4
:103310003A0190913B01880F991F880F991F909354
:103320003B0180933A018EEB8093380118B827B99E
:10333000E4B8E5B858E1D52EC0E0D0E0882D0E9471
:10334000B70C582E492E892D0E94BB0C8C018C1B6A
:103350009D0B97FF03C091958195910903972CF0E0
:10336000A895DA94C1F1E801E9CFEE0C15B8E4B8FC
:10337000892D0E94B70C8135910568F5E5B8892D36
:103380000E94B70CEC01F7B8F8B815B8B4B888E1EA
:10339000A82EC12CD12C892D0E94B70C782E692E15
:1033A000882D0E94BB0C7C018C199D0997FF03C0DE
:1033B000919581959109039734F5BB0CB4B8882D8C
:1033C0000E94B70C5C01003C94E4190708F5C5386D
:1033D00081E0D80708F180913C0190913D019695DC
:1033E00087959695879590933D0180933C018091B8
:1033F00084019091850190933B0180933A0189E18A
:103400008093380139C1A895AA9429F36701C3CFE5
:10341000C03B9DE4D907F8F6C0903C01D0903D0137
:1034200084EAE81682E0F80608F05FC098E9A91679
:10343000B10488F29E01A8E9B7EB0E949C3896017E
:103440002C1B3D0B40E050E00E945E3829013A0100
:1034500096012A193B09A8E9B7EB0E949C3885011F
:1034600020E030E0A90198010E945E38C837DF40B3
:1034700070F4C301B201B2E0660F771F881F991F75
:10348000BA95D1F7620F731F841F951F12C098E77A
:10349000A9169FE0B906A0F4CA01B901A2E0660F1F
:1034A000771F881F991FAA95D1F7640D751D861D7A
:1034B000971D25E030E040E050E00E945E3808C0F3
:1034C000240D351D461D571D569547953795279553
:1034D000A4E6B0E00E94B1386B017C018CEAC80E12
:1034E0008DE0D81EE11CF11C70C0252D342D021773
:1034F000130708F49801C72DD62DCE15DF0508F463
:10350000E70159012017310708F45801A0912A0159
:10351000B0912B01C501821B930B9C010E949C382A
:1035200096012A193B0940E050E00E945E382901CB
:103530003A018E01EC16FD0608F48701A0912301E3
:10354000B09124019E01201B310B0E949C38680120
:10355000E12CF12CA70196010E945E3898E7A9168C
:103560009FE0B90670F4C301B201E2E0660F771F75
:10357000881F991FEA95D1F7620F731F841F951F4B
:1035800011C008378FE01807B0F4CA01B90152E042
:10359000660F771F881F991F5A95D1F7640D751D07
:1035A000861D971D25E030E040E050E00E945E3827
:1035B00069017A010AC069017A01C40CD51CE61CB4
:1035C000F71CF694E794D794C7941091290113300F
:1035D00008F001CF9A94980C892D90E0EC01C6591F
:1035E000DE4F2881880F991F880F991FFC01E65430
:1035F000FE4F2223D1F14080518062807380A70169
:103600009601241935094609570957FF07C05095F7
:103610004095309521953F4F4F4F5F4FAAE0B0E066
:103620000E94B138A30192012C593F4F4F4F5F4F79
:103630002C0D3D1D4E1D5F1D0E945E38232B242B3B
:10364000252B09F0C8CE123019F081E080932901B2
:1036500082E0888380918601E82FF0E0E359FE4FF5
:1036600090828F5F80938601B6CEC082D182E28243
:10367000F38281E08883AFCECDB7DEB7E0E10C9472
:103680005E39CF93C82FC09595B160FF02C0982BCB
:1036900001C09C2395B994B1982B94B982E00E9403
:1036A000850C84B18C2384B985B18C2385B9CF91E5
:1036B0000895A0E0B0E0EFE5FBE10C9449398AE021
:1036C000D82E9FE3B92E28E0C22E17B818B815B827
:1036D000B4B880E00E94B70C8C0181E00E94BB0C62
:1036E000EC0182E00E94BB0C20912901283079F482
:1036F00017B814B81093080100930701D0930A017A
:10370000C093090190930C0180930B0158C031E0E4
:10371000C430D10508F030E021E00430110508F094
:1037200020E0232319F08430910510F321E0083EB6
:10373000134008F020E0C83ED34008F42260883EE1
:10374000934008F4246027B9C0E0D0E0A89580E059
:103750000E94AF0C7C0181E00E94BB0C8C0182E0D6
:103760000E94BB0C24E1E21625E0F20608F4389A28
:10377000043135E0130708F4399A843125E09207C3
:1037800008F43A9A36E0E316F10428F406301105FD
:1037900010F4069738F02196C43F81E0D807B1F6BF
:1037A000C092290100E010E00C171D0729F00E94CB
:1037B000740C0F5F1F4FF8CFDA9409F086CFCDB7A6
:1037C000DEB7E9E00C946539CF92DF92EF92FF9279
:1037D000CF9320918B0130918C0140918D015091BC
:1037E0008E01C0919D018AE0C82ED12CE12CF12CD4
:1037F0008C2FCF5F213A96E8390791E049075105B0
:1038000038F0CA01B901A70196010E945E38F0CFD5
:1038100080939D01A0913C01B0913D010E94B1387F
:1038200028E833E140E050E00E945E3820938B01AD
:1038300030938C0140938D0150938E01CF91FF9076
:10384000EF90DF90CF900895A0E0B0E0EAE2FCE1D5
:103850000C944839C82FD62F8FEF860F9C2F990FC5
:103860009C0F890F80936701EC2FF0E0E35BFE4F24
:103870001491E62FF0E0E35BFE4FF490E62FF0E0CA
:10388000E05BFE4F049180912901813009F485C2EB
:103890004091270187EA91E06DEA71E0DC012A2F6F
:1038A000281B2417A0F42D912D130EC09D01275025
:1038B0003109F90120812C1307C0FB0120813181DE
:1038C0002C3D354008F469C26E5F7F4FE8CF1092FF
:1038D00098011092970110928B0110928C01109216
:1038E0008D0110928E0110929D01E3DE18B807B988
:1038F000F4B8F5B88C2F0E94BB0C6C018D2F0E9480
:10390000BB0CC81AD90A14B8109269011092680148
:10391000E12CF12C8091680190916901843F9140E4
:1039200050F515B914B90E946F0C14B815B80E945F
:10393000750CA8958C2F0E94BB0C7C01EC18FD081F
:1039400080916801909169018E37910528F02BE4F0
:10395000E216F1040CF41DC25DE2E51651E0F50635
:1039600084F48091680190916901019690936901B6
:1039700080936801CFCFFDE2EF16F1E0FF060CF473
:1039800008C28091680190916901892B21F0C701DB
:1039900000E010E006C025E1E21625E0F206BCF3E7
:1039A00075C020916801309169012017310758F0E6
:1039B0000E94700C8C2F0E94BB0C8C199D09A8953D
:1039C0000F5F1F4FEECF8701081B190B1016110652
:1039D00094F4093C11050CF0DCC128EE33E0D80169
:1039E0000E94AB389701442737FD4095542F0E9421
:1039F0005E38690102C0C12CD12CA0906801B09042
:103A000069015FEFA51AB50AC501A0E0B0E0809397
:103A1000930190939401A0939501B0939601C701EF
:103A2000800F911F07D29C01D5010E949C386093A2
:103A30009301709394018093950190939601609304
:103A40008B0170938C0180938D0190938E0187EF91
:103A500080939D01B9DE20918B0130918C014091C2
:103A60008D0150918E01A8EEB3E00E94B13824E69A
:103A700030E040E050E00E945E3820938B013093AC
:103A80008C0140938D0150938E0141C112DE15B817
:103A900087E087B918B8F12EFF0CF4B880E4809362
:103AA0007B0084E580BF8C2F806480937C0086E15E
:103AB00080937A000E94780C10926901109268013C
:103AC00010928000109285001092840087E286BBDD
:103AD00081E280936F0081E080938801F5B8909136
:103AE000290180938100943059F481E090E00C2EFC
:103AF00001C0880F0A94EAF78095877087B901C0E2
:103B000007B9F89483B7817F83BF809188018823A8
:103B100089F083B7816083BF7894889583B78E7F5F
:103B200083BFF894A89580916801909169018034D1
:103B3000964059F7789410928100E0908600F090BA
:103B4000870010926F0086E980937A0014B815B848
:103B50008C2F0E94BB0C2091400130914101821BAF
:103B6000930B0C969093A00180939F018091680124
:103B7000909169018032934008F00BC180916801F7
:103B8000909169019093960180939501F092940130
:103B9000E092930184EF80939D0180916801909160
:103BA000690182349105C8F060919301709194018C
:103BB000809195019091960124E630E040E050E03C
:103BC0000E945E38209393013093940140939501B5
:103BD0005093960186EF80939D01A0918901B09149
:103BE0008A01209193013091940140919501509167
:103BF00096010E94B13820E233E040E050E00E949C
:103C00005E38209393013093940140939501509333
:103C1000960120938B0130938C0140938D0150933A
:103C20008E01D2DD80919D01843F09F060C0C0907B
:103C30008B01D0908C01E0908D01F0908E0120EAF4
:103C4000C2162FE0D206E104F104C0F4A7019601E8
:103C50002C543F4F4F4F5F4F60EA7FE080E090E091
:103C60000E945E382C0D3D1D4E1D5F1D20938B0163
:103C700030938C0140938D0150938E0180916701A8
:103C800090E0855E9C4F0E94C339C0908B01D0901C
:103C90008C01E0908D01F0908E01482F50E060E0A3
:103CA00070E04C155D056E057F0568F4C41AD50AF1
:103CB000E60AF70AC0928B01D0928C01E0928D0146
:103CC000F0928E0114C084E1C80ED11CE11CF11CDD
:103CD000C416D506E606F70610F40E94C712109225
:103CE0008B0110928C0110928D0110928E0114B9EB
:103CF00080918B0190918C01A0918D01B0918E01EA
:103D00004997A105B10508F444C0C12CD12C80917C
:103D10002701882321F0809129018430D1F587E0A3
:103D20008093290120919D0180919E018217BCF012
:103D300028132FC040918B0150918C0160918D010F
:103D400070918E0180918F0190919001A0919101CD
:103D5000B091920184179507A607B707D0F4809118
:103D60008B0190918C01A0918D01B0918E01809377
:103D70008F0190939001A0939101B09392012093B1
:103D80009E01D0929A01C0929901D0939B01C09359
:103D90009C0117B818B814B815B8CDB7DEB7EAE06B
:103DA0000C9464391F920F920FB60F9211248F93C7
:103DB0009F93B59904C080918801811109C0B59B7A
:103DC00010C080918600909187008A3F910548F449
:103DD00080916801909169010196909369018093A7
:103DE00068019F918F910F900FBE0F901F901895B3
:103DF0001F920F920FB60F9211248F939F931092E0
:103E00008801B09B10C080918600909187008A3F06
:103E1000910548F480916801909169010196909311
:103E20006901809368019F918F910F900FBE0F9051
:103E30001F9018950F9221E08C32920710F48CE2BB
:103E400091E08C52914069E170E00E94373899E12D
:103E50006B3210F0982F6BE2981BE9EBF2E0E60F63
:103E6000F11DE60FF11D9F93CF010E94C339482F2A
:103E70003196CF010E94C339582F3196CF010E944D
:103E8000C339282F3196CF010E94C339382F6F9143
:103E9000421B530B649FC001659F900D11240C962B
:103EA00069E170E00E943738620F731FCB010F90F9
:103EB0000895A0E0B0E0EFE5FFE10C94463988E812
:103EC00093E190933D0180933C018EEB8093380108
:103ED00018B880E187B90E947D0C17B884E00E9471
:103EE000B70CAC018B5C9840833F9140A0F481E01B
:103EF0008093510120913C0130913D01AFEBB9E03D
:103F00000E949C389A0140E050E00E945E38309355
:103F10003D0120933C018EE00E94BB0C8EE00E948C
:103F2000B70C90934101809340010E94F00DC1E0D5
:103F3000C7B9C5B9C4B980E00E94B70C7C0112E0D2
:103F400017B984E0982E95B894B881E00E94B70C18
:103F5000E80EF91E97B890E1892E85B884B882E002
:103F60000E94B70CE80EF91E15B8C8B9C7B9C4B994
:103F7000C0913C01D0913D0180E00E94B70C5C01F2
:103F800018B917B994B800913C0110913D0181E036
:103F90000E94B70C6C0198B897B884B880903C0127
:103FA00090903D0182E00E94B70CC00FD11FC80D58
:103FB000D91DCA19DB09CC19DD09C81BD90B8091A1
:103FC0003C0190913D014C01880C991C880E991E72
:103FD0008E189F088C1A9D0AA12CB12C9701A0E97C
:103FE000BAE10E949C38A50194010E945E386901E3
:103FF0007A013093500120934F019E01A0E9BAE16C
:104000000E949C38A50194010E945E3830933F01C4
:1040100020933E012057354E30932B0120932A01E7
:1040200080E7C81A85EED80AD0922401C0922301F5
:1040300089E180933801CDB7DEB7ECE00C946239AA
:10404000A3E1B0E0E6E2F0E20C9440391092020104
:1040500080912901813009F019C280918601813057
:1040600009F014C220906D0124E0229EF001112479
:10407000E654FE4F80819181A281B381893032E57F
:104080009307A105B10508F001C29B8B8A8B312CE7
:1040900061E0822D631528F00E94EA09B82EA92E4E
:1040A00003C00E94EA095C01EA2DF0E0E05BFE4FEC
:1040B0007490EB2DF0E0E35BFE4FE49115B818B877
:1040C0008A899B89803F910590F430FC10C0009153
:1040D00023011091240100591A4181E090E00B2C3A
:1040E00001C0880F0A94EAF7872987B906C0E4B9A6
:1040F00077B8009123011091240144E1642E8B2DA7
:104100000E94B30C4C018A2D0E94BB0C24E0821645
:10411000910410F4049710F06A9489F730E4309316
:104120007B0064E560BF8B2D806480937C0086E11A
:1041300080937A00E12CF12C10928000109285007F
:104140001092840087E286BB0E94780C932D9170B8
:10415000998B30FC05C081E88093810078B808C055
:1041600078B80E94810C80E286BB81E88093810050
:1041700046B345FF12C018B81092810080E286BB9A
:1041800080918600909187006C012091840030918D
:1041900085008217930768F013C040FFE9CF21E044
:1041A00026BBA895C70101967C018035910501F7D2
:1041B000E2CF40FF05C031E036BB6FEFE61AF60AEA
:1041C00086E980937A0034E1732E8B2D0E94B30C24
:1041D0004C018A2D0E94BB0C24E08216910410F43D
:1041E000049710F07A9489F780904F0190905001D5
:1041F0008A899B89880E991E800E911E2091250127
:104200003091260100399AE11907B0F461EEC61623
:10421000D104E104F10438F4C60165E070E00E94C5
:104220003738645101C069E128523109261B310930
:1042300067FD339586E009C0C40160EB76E30E9418
:10424000373887E0860F285D3F4F90E0A0E0B0E070
:104250008C159D05AE05BF0528F4C81AD90AEA0ACF
:10426000FB0A03C0C12CD12C76018989882329F04F
:1042700092E2C90ED11CE11CF11C60E5E616F104C6
:1042800018F0C12CD12C76018BE0C816D104E104C2
:10429000F10428F091E0C91AD108E108F108409131
:1042A0003C0150913D01A12CB12CA8EEB3E00E943D
:1042B0009C382B013C019801DA010E949C38A50131
:1042C00094010E945E3844275527C301B2010E9421
:1042D0005E38C9010E94480EFC01A5019401C70186
:1042E000B6010E9428384B015C01BF0180E090E0DC
:1042F00023E0660F771F881F991F2A95D1F76B5F00
:104300007F4F8F4F9F4F2AE030E040E050E00E9407
:104310005E38C501B4010E945E38832D90E0E1E073
:10432000F0E0EC0FFD1F64E0369EE00DF11D11245E
:1043300020833183428353836989611117C06CE004
:10434000C616D104E104F10488F0FC013196EE0FA9
:10435000FF1FEE0FFF1F81E090E08C0F9D1FE80F05
:10436000F91F20833183428353833394A895339478
:1043700093E0931508F08CCE18B884E00E94850C69
:1043800021E04D815E816F81788589819A81AB8141
:10439000BC8184179507A607B70708F020E04D8574
:1043A0005E856F85788989859A85AB85BC858417FC
:1043B0009507A607B70710F032E001C033E0E22FFF
:1043C000F0E0EE0FFF1FEE0FFF1F81E090E08C0F7B
:1043D0009D1FE80FF91FDC0194E0399FA00DB11D6E
:1043E00011244D915D916D917C9180819181A2818B
:1043F000B381481759076A077B0708F0322FE1E0BD
:10440000F0E0EC0FFD1F24E0329FE00DF11D1124C0
:1044100080819181A281B38180930F0190931001DB
:10442000A0931101B093120130FD09C02A893B8984
:10443000203F310520F48BEF8093020117C02CEF51
:1044400020930201BC01CD016B5F7F4F8F4F9F4FC7
:104450002AE030E040E050E00E945E3820930F01F7
:1044600030931001409311015093120180910F017C
:1044700090911001A0911101B0911201892B8A2B0A
:104480008B2B11F41092020117B814B86396E2E175
:104490000C945C392F923F924F925F926F927F9271
:1044A0008F929F92AF92BF92CF92DF92EF92FF9244
:1044B0000F931F93DF93CF93CDB7DEB76E970FB6F1
:1044C000F894DEBF0FBECDBF662EB82E860F89834F
:1044D00020912901273041F520918F0130919001E1
:1044E000409191015091920110919E0109C0CA0121
:1044F000B9012AE0312D412D512D0E945E381F5FF8
:10450000173FACF32A3560E036074105510518F432
:104510008FEF9FEF81C1173F39F480E028178DE7B7
:1045200038074105410510F020E03DE72C8B3D8B1D
:1045300026EDA22E02C094EDA92EE0E5F1E0E60DF5
:10454000F11D859180608E87E0E5F1E0EB0DF11DB6
:10455000859180608F87EDE4F1E0E60DF11D7590A7
:10456000EDE4F1E0EB0DF11DC59090EC692AB92A5C
:1045700081E0E82EF12C012D112D8E831F821886EB
:1045800019861A861B861C861D86188E198E1B8E10
:104590001A8E8FD880E088B960927C000E94790CD6
:1045A0003F8537B975B874B80E94800C14B815B837
:1045B000DD24B4ED9B2EA6ED8A2E3E8537B975B865
:1045C00074B860927C00A895A0927A0080917A00DD
:1045D00086FDFCCFA0927A0080917A0086FDFCCF08
:1045E0002090780030907900B0927C00A0927A0000
:1045F00080917A0086FDFCCF80927A000E947E0C2A
:104600000E94800CC5B8C4B80E947F0C0E94810C27
:10461000A895A895A895A89514B815B880917A0082
:1046200086FDFCCF2091780030917900288B398B62
:104630003F8537B9C5B8C4B8A895B0927C00A092A0
:104640007A0080917A0086FDFCCFA0927A0080915A
:104650007A0086FDFCCF60917800709179006092BD
:104660007C00A0927A0080917A0086FDFCCF809237
:104670007A000E947E0C0E94800C75B874B80E946B
:104680007F0C0E94810CA895A895A895A89514B8B0
:1046900015B880917A0086FDFCCF4091780050914A
:1046A000790014B8CB01820D931DE80EF91E011D8F
:1046B000111DEA82FB820C831D8388899989840FEE
:1046C000951F2E813F8168857985280F391F611DCF
:1046D000711D2E833F836887798722E3241715068F
:1046E00050F075B874B80E94830C14B815B8888D52
:1046F0008395888F07C0483E73E0570718F08A8D6E
:1047000083958A8F888999892817190660F03E85D4
:1047100037B9C5B8C4B80E94830C14B815B8898DD0
:104720008395898F07C0883E73E0970718F08B8DBB
:1047300083958B8FD3945D2D5F3F09F03ECF4090E2
:104740004F0150905001440C551C9201E4E0240D9F
:10475000351DEA95E1F72901570168016E807F80D8
:1047600088849984209129012730C1F46C897D893E
:10477000812D912D6C537040804090409B01AC0185
:104780000E9428389B01AC016FEF71EC8EE390E042
:104790000E945E38621A730A840A950AA614B70446
:1047A000C804D90428F46A187B088C089D0803C043
:1047B000662477244301B20180E090E09301A401D4
:1047C0000E9428389501A6010E945E3887E193E097
:1047D0007981870F911D0E94C33990E0682EC9012D
:1047E00060E170E00E943738260F371FC901681654
:1047F000190618F4861991090FC08C5E9F4F861513
:10480000910540F48C899D89843981E1980710F0E5
:104810000E94C712812D912D6E960FB6F894DEBFBF
:104820000FBECDBFCF91DF911F910F91FF90EF9001
:10483000DF90CF90BF90AF909F908F907F906F90C0
:104840005F904F903F902F900895A0E0B0E0EBE292
:10485000F4E20C9446398091990190919A01892B48
:1048600009F09AC0E0919B01F0E0E05BFE4FC4913B
:10487000E0919C01F0E0E35BFE4F14910E94591B14
:1048800018B815B8C7B914B980919C010E94BB0C27
:10489000EC0100919E01083F0CF07EC0045FC090C7
:1048A0008F01D0909001E0909101F09092018AE008
:1048B000882E912CA12CB12C043070F4C701B601C4
:1048C0006B5F7F4F8F4F9F4FA50194010E945E3811
:1048D0000F5F69017A01F0CFD701C6010197A109E5
:1048E000B10988389341A105B10508F055C015B943
:1048F00014B9A12CB12CAC14BD0430F40E947F0C6F
:1049000082E0A80EB11CF7CF14B815B8A89585E0C1
:104910008093380180919C010E94BB0CC817D90775
:1049200020F45C01AC1ABD0A02C0A12CB12C812C70
:10493000912C8C149D0430F40E947F0C2FEF821A6E
:10494000920AF7CF80919C010E94BB0C29E1209331
:104950003801A895C817D90718F48C1B9D0B02C005
:1049600080E090E08A159B0588F49501281B390B9F
:1049700069F0A4EFB1E00E949C38950140E050E05E
:104980000E945E3830939A01209399010E94591B2E
:1049900017B818B814B815B8CDB7DEB7ECE00C945A
:1049A0006239A5E0B0E0E7EDF4E20C9440398EE026
:1049B00092E00E94E82C20EF2B8354980E94740C04
:1049C00014BC16BC10921601109217011092180117
:1049D0001092190131E035BB30936E0010928000C7
:1049E00083E19AE79093890080938800E1E0F0E00A
:1049F000F0938B00E0938A0010928500109284005F
:104A000083B5816083BDF6E0F6BBF0936F007894C8
:104A100024E02093810012E31A820E946E0CA89574
:104A20004F9902C031E03A8385B581112CC015BC85
:104A300086B5809316010E941D070E9436090E94C8
:104A400028070E9436090E94400986E60E94FE0857
:104A50000E9444096091160170911701809118011C
:104A60009091190107E028E440E00E94620A8AE779
:104A70000E94FE08549880918100882339F08FE3CA
:104A80000E94FE0803C0115041F6D1CF1092810060
:104A900010926F002091160130911701409118017A
:104AA00050911901DA01C9010197A109B109893DA4
:104AB0009146A105B10508F0FAC0AAE0B0E00E9455
:104AC000B138685F7F4F8F4F9F4F23E09695879552
:104AD000779567952A95D1F7660F771F70938101B7
:104AE0006093800154980E94740C16BC10921601B9
:104AF00010921701109218011092190181E085BBE4
:104B000080936E00109283011092820194E09BBB0F
:104B100080916800846080936800789480916D0033
:104B2000806180936D0019820E946E0CA8954F9948
:104B300002C0E1E0EA8380916D0084FF05C0F98145
:104B4000FF5FF983FA3F81F715BC80916D008F7E7E
:104B500080936D00809168008B7F8093680086B59C
:104B6000809316010E941D0784E50E94FE080E94A2
:104B7000440960911601709117018091180190917C
:104B8000190120918001309181013D832C8328EA15
:104B900031E640E050E00E94BB38EC81FD815F01CE
:104BA000C12CD12CE12CF12C00E010E00E94E43863
:104BB00039014A011B012C012C813D81203831052E
:104BC00030F007E023E745EFB301C40116C084E6E7
:104BD000A82EB12CC12CD12CE12CF12C00E010E03E
:104BE0009301C2010E94E438E22FF42F07E023E78B
:104BF00047EF6E2F732F8F2F952F0E94620A3981F6
:104C00003A3F21F48FE30E94FE0851C09301A401B2
:104C1000B101C2012C393E4C43405105610571057B
:104C20008105910509F008F442C00E94280786E634
:104C30000E94FE080E9444099301A401B101C2012F
:104C4000530164017101820121153A4C4A495B43C9
:104C5000610571058105910589F080F020E030E063
:104C60004AE85DE568E775E483E691E00E94E43890
:104C7000E22FF42F07E028E44AEF0FC020E030E8ED
:104C800046EC54EA6EE77DE883E090E00E94E43869
:104C9000E22FF42F07E028E44CEF6E2F732F8F2FB5
:104CA000952F0E94620A8AE70E94FE08549810928B
:104CB0006E0080ED97E00E94610D2A81820F49F419
:104CC00080912201833028F43B8131503B833111A4
:104CD00074CE2596E2E10C945C391F920F920FB6C8
:104CE0000F9211248F939F93AF93BF9378948091E9
:104CF000160190911701A0911801B09119019F5FC1
:104D0000AF4FBF4F8093160190931701A0931801E6
:104D1000B0931901BF91AF919F918F910F900FBEEA
:104D20000F901F9018951F920F920FB60F9211249B
:104D30008F9386E085BD8F910F900FBE0F901F90CF
:104D400018951F920F920FB60F921124A8951092EA
:104D5000810015BC0F900FBE0F901F9018951F92E9
:104D60000F920FB60F9211242F933F938F939F931F
:104D70008091820190918301892B11F481E085BD9E
:104D80002091820130918301809180019091810175
:104D90002817390730F015BC80916D008F7E809305
:104DA0006D0080918201909183010196909383011F
:104DB000809382019F918F913F912F910F900FBE11
:104DC0000F901F9018958E3008F08E50811103C0FF
:104DD00088E192E040C0813019F48EE092E03BC05F
:104DE000823019F485EE91E036C0833019F48AEDF3
:104DF00091E031C0843019F48DE790E02CC085300B
:104E000019F482E790E027C0863019F486E690E036
:104E100022C0873019F48BEC91E01DC0883019F462
:104E20008CEB91E018C0893019F486E092E013C051
:104E30008A3019F483EA91E00EC08B3019F489E9C5
:104E400091E009C08C3019F48CEF91E004C08D30F2
:104E500021F481EF91E00E94520980915201843146
:104E600018F40E942209F9CF08950F93CF938DE78C
:104E700090E0AED5C0E01092290160E082E0C4D598
:104E8000809129018730D1F50E94120783E40E94A6
:104E9000FE080E94440960918F01709190018091F9
:104EA00091019091920103E026E440919E010E94BD
:104EB000620A0E94360960919B0180919C01EADAA6
:104EC00090939801809397010E941D0786E291E0DC
:104ED0000E94520960919701709198016A3F8FEF8B
:104EE000780740F480E090E002E024E04EEF0E947A
:104EF000620A0AC08FE30E94FE0806C00E944009B1
:104F00000E941D070E9436098C2F0E946C3088EE8B
:104F100093E00E94610D81110DC0809122018430C7
:104F200048F480914201813009F4C0E0CF5FCA3F6C
:104F300008F4A1CFCF910F9108951F93CF93DF93E2
:104F400086E092E045D5C0E0D0E01AE00E9412076A
:104F500080E191E00E94520983E00E94B70C63E077
:104F60009C01129FC001139F900D11240E94250BDC
:104F70000E9436098C2F0E946C3088EE93E00E94CC
:104F8000610D90912201811102C0992361F0C0E06E
:104F9000963090F48F3510F0DF5F02C0882319F04F
:104FA000D53010F009C0D0E080914201813009F481
:104FB000C0E0CF5FC03F50F2DF91CF911F910895C5
:104FC0000F93843108F08451833189F489E0809310
:104FD000810081E090E0909389008093880007E051
:104FE00028E44DEF60E074E985E397E748C182313A
:104FF00089F489E08093810083E090E090938900B8
:105000008093880007E028E44DEF60E07AEC8AE9BD
:105010009BE335C1813169F489E08093810087E0A9
:1050200090E0909389008093880007E028E44DEF9A
:105030006CC0803169F489E0809381008FE090E05A
:10504000909389008093880007E028E44DEF6FC0BB
:105050008F3089F489E08093810089E190E090931A
:1050600089008093880007E028E44DEF6AE871E842
:105070008BE299E004C18E3069F489E0809381006D
:1050800087E290E0909389008093880007E028E40D
:105090004DEF60C08D3069F489E0809381008FE42A
:1050A00090E0909389008093880007E028E44CEF1B
:1050B0002CC08C3069F489E0809381008FE990E006
:1050C000909389008093880007E028E44CEF2FC07C
:1050D0008B3069F489E0809381008FE891E09093B0
:1050E00089008093880007E028E44CEF33C08A30C1
:1050F00089F489E0809381008FE193E090938900A7
:105100008093880007E028E44BEF60E075E68DECC3
:105110009DE1B5C0893081F4809381008FE396E0F2
:10512000909389008093880007E028E44BEF60E8C3
:1051300072EB86EE9EE0A3C0883089F489E080930C
:1051400081008FE99FE0909389008093880007E0B9
:1051500028E44BEF60E071EE85EF95E090C087307A
:1051600089F489E08093810084E493E2909389003C
:105170008093880007E028E44BEF6FE77DEF83EA38
:1051800092E07DC0863089F489E08093810089E5D2
:1051900093E2909389008093880007E028E44BEF26
:1051A0006FEE7BE682EA92E06AC0853089F489E09E
:1051B0008093810082E893E2909389008093880035
:1051C00007E028E44BEF68E471E68FE992E057C00E
:1051D000843089F489E0809381008FE79EE3909387
:1051E00089008093880007E028E44BEF60E478E7CB
:1051F0008DE791E044C0833069F48BE080938100B7
:1052000080E792E0909389008093880007E028E48B
:105210004AEFA0CF823071F481EE94E09093890040
:105220008093880007E028E44AEF60E870EF8AEF97
:1052300092E025C0813089F48BE08093810089E67B
:1052400098E1909389008093880007E028E44AEF72
:1052500060E876E988E990E012C0811112C08CE024
:105260008093810088E09DE390938900809388007B
:1052700007E028E44AEF60E472E48FE090E00E94E7
:10528000620A8AE70E94FE080F910895A0E0B0E04C
:10529000ECE4F9E20C944A3985EE91E099D380E18F
:1052A0008093800010926F0081E090E090938900DD
:1052B0008093880010928B0010928A0083E086BB56
:1052C0001092820088E08093810015B881E184B952
:1052D00018B881E087B9229A89E08093810000E0C4
:1052E000F12CE12C12E1CEE1D0E0802F90E00A9683
:1052F000BE010E944B38D62EC62E6F1589F00E9433
:10530000090785EE91E00E945209F12CFC1428F463
:105310008EE20E94FE08F394F9CF0E943609FD2C1C
:10532000E116F9F0143108F014510E9412070E949E
:10533000220983E1810F44DE0E9436090E9428077A
:105340000E94220981E0810F3BDE0E9436090E9403
:105350001D078EE30E94FE08812F32DE0E9436096F
:10536000E12E88EE93E00E94610D9091220181115F
:1053700002C0992319F000E09B3098F4909121012C
:1053800097FD9C5E190F853118F01F5F803548F43A
:1053900080914201813009F400E00F5F003F08F482
:1053A000A4CF109281001092800017B814B82298F0
:1053B000CDB7DEB7E8E00C946639A4E0B0E0E3EEE8
:1053C000F9E20C9444398AED91E002D383E28093B0
:1053D000800010926F0081E090E0909389008093AC
:1053E00088008FEF90E090938B0080938A0083E099
:1053F00086BB1092820015B881E184B918B881E0AB
:1054000087B9229A89E080938100612C00E08AE0CC
:10541000782E10E094E6C92ED12CE12CF12C8824B2
:105420008A9423E0922EA12CB12C7016E1F183E630
:10543000871510F4ECE97E0E272D30E0AFEFB3E0D6
:105440000E949C386E5C7F4F8F4F9F4FA701960143
:105450000E945E3830938B0020938A0029833A8320
:105460004B835C830E941207A8EEB3E029813A8146
:105470004B815C810E94B13861507E4F8F4F9F4FAE
:10548000A50194010E945E38CA01B90105E025E238
:105490004FEF0E94620A0E943609193218F08CE31D
:1054A0000E94850C072D80E496E00E94610D182F64
:1054B0008338E0F4909122019B30C0F48091210167
:1054C00087FD8C59780E133318F0FAE07F0E03C075
:1054D0001123B9F07394612C80914201813009F459
:1054E000612C63948FEE861508F09FCF17B8109249
:1054F00081001092800014B822982496EEE00C945B
:1055000060399111E8CFE8CFA3E0B0E0EAE8FAE231
:105510000C944D398091040190910501282F2F7131
:1055200029839C01207E377045E0369527954A9562
:10553000E1F72A83892F8695869586958B8383EA62
:1055400091E046D2F12C10E00E941207111102C026
:105550008EE301C080E20E94FE0882E50E94FE0800
:105560000E944409698170E080E090E004E020E25C
:1055700040E00E94620A0E9436090E941D07113015
:1055800011F48EE301C080E20E94FE0887E40E94CD
:10559000FE080E9444096A8170E080E090E004E027
:1055A00020E240E00E94620A0E9436090E94280719
:1055B000123011F48EE301C080E20E94FE0882E402
:1055C0000E94FE080E9444096B8170E080E090E038
:1055D00004E020E240E00E94620A0E94360980E472
:1055E00096E00E94610D811105C0909122019111F8
:1055F0000FC00FC0823860F0609104017091050106
:1056000083E193E00E94DE392396E5E00C9469394A
:10561000F12C909122019B3078F7E1E0F0E0EC0F63
:10562000FD1FE10FF11D908120912101920F9083C8
:10563000882359F0893228F01150143030F012E0EC
:1056400004C01F5F133009F410E049814F71498392
:105650002A812F732A838B818F718B8390E0982FFF
:105660008827990F990F990F50E2259F90011124D7
:10567000822B932B842B90930501809304018091BE
:105680004201813009F4F12CF3948FEE8F1508F06C
:105690005BCFB2CFA3E0B0E0E0E5FBE20C944D3984
:1056A00080910D0190910E01282F2F7129839C016B
:1056B000207E377065E0369527956A95E1F72A8355
:1056C000892F8695869586958B8389E991E080D18F
:1056D000F12C10E00E941207111102C08EE301C0EC
:1056E00080E20E94FE0882E50E94FE080E944409B2
:1056F000698170E080E090E004E020E240E00E94F8
:10570000620A0E9436090E941D07113011F48EE3CF
:1057100001C080E20E94FE0887E40E94FE080E9409
:1057200044096A8170E080E090E004E020E240E01B
:105730000E94620A0E9436090E942807123011F462
:105740008EE301C080E20E94FE0882E40E94FE080F
:105750000E9444096B8170E080E090E004E020E268
:1057600040E00E94620A0E94360980E496E00E94AE
:10577000610D811105C09091220191110FC00FC0E0
:10578000823860F060910D0170910E0185E193E027
:105790000E94DE392396E5E00C946939F12C909152
:1057A00022019B3078F7E1E0F0E0EC0FFD1FE10F04
:1057B000F11D908120912101920F9083882359F04F
:1057C000893228F01150143030F012E004C01F5F0D
:1057D000133009F410E049814F7149832A812F73F6
:1057E0002A838B818F718B8390E0982F8827990F64
:1057F000990F990F50E2259F90011124822B932B32
:10580000842B90930E0180930D0180914201813091
:1058100009F4F12CF3948FEE8F1508F05BCFB2CF23
:105820000F931F93CF93DF931092210183E292E0B5
:10583000CFD010E0DDE0C0E081E08D0F8E3010F0C1
:1058400083EF8D0FC81729F081E0CD1719F080E0A4
:1058500001C081E092E09D0F9E3010F094EF9D0F0B
:10586000C91769F081110BC08091210187FD03C028
:10587000DCE0DC0F01C0DC2FDE3008F0DE500E94DF
:105880001207CD1304C08EE30E94FE0802C00E94DE
:1058900022098D2F98DA0E941D0701E00D0F0E30AE
:1058A00010F003EF0D0FC01304C08EE30E94FE083A
:1058B00002C00E942209802F86DA0E94280702E097
:1058C0000D0F0E3010F004EF0D0FC01304C08EE367
:1058D0000E94FE0802C00E942209802F74DA80E430
:1058E0009FE10E94610D811110E090914201913081
:1058F00009F410E0823340F490918701992309F470
:1059000048C0882309F445C0CC2309F45CC0C130E9
:1059100019F480E046D835C0C23011F4B7DC31C08C
:10592000C33011F44ADD2DC0C43011F49EDA29C011
:10593000C53011F4D8D325C0C63011F442D421C0EB
:10594000C73011F495D11DC0C83021F481E10E9407
:10595000E00E17C0C93011F4F0DA13C0CA3011F4E8
:10596000D3DD0FC0CB3011F495DE0BC0CC3011F479
:10597000D1D207C0CD3029F45E9880E090E00E943B
:10598000610D109222011092210183E292E020D059
:1059900080E0909122019A30B0F4909121019923F6
:1059A00019F097FD03C010E0C90F03C0925FC90F43
:1059B00010E08111CF5F1F5F1C3828F4CE3008F44F
:1059C0003BCFCE5039CFDF91CF911F910F910895EA
:1059D000A2E0B0E0EEEEFCE20C944F3989839A83AA
:1059E0000E946B0789819A810E94520914E682E025
:1059F0000E94850C4F9902C01150C9F70E941207EE
:105A00002296E3E00C946B39A0E0B0E0EAE0FDE21E
:105A10000C944739C82FD62F8FEF860F9C2F990FE4
:105A20009C0F890F80936701E62FF0E0E05BFE4F4B
:105A30000491EC2FF0E0E35BFE4FB490E62FF0E032
:105A4000E35BFE4F1491109298011092970110920F
:105A50008B0110928C0110928D0110928E0187EFB4
:105A600080939D010E94591B18B807B914B915B944
:105A70008C2F0E94BB0C8C018D2F0E94BB0C081B2D
:105A8000190B14B8109269011092680120E030E0FF
:105A90009CE2E92EFF24F3944AE0A42E54E6952ECE
:105AA0008091680190916901843D904308F069C03C
:105AB000B5B88091680190916901892B89F06701DF
:105AC000C21AD30A6091680170916901A29EC00157
:105AD000A39E900D11240E943738C616D70650F4A5
