:100000005CC600006CC600006AC6000068C600003E
:1000100066C600000C94CF3462C600000C94D30F67
:100020005EC600005CC600000C9403280C94B33438
:100030000C94C1340C94DD2752C6000050C6000059
:100040000C948D344CC600004AC6000048C600001F
:1000500046C600000C94D40F42C6000040C6000003
:100060003EC600003CC600004F0D510D550D590D08
:10007000590D5B0D650D650D670D670D670D670DFE
:10008000670D670D670D670D670D670D670D670DD0
:10009000670D670D670D670D670D670D670D670DC0
:1000A0005F0D5D0DE62FF72F903009F49395E5B8BD
:1000B000C4B8B7EFB0937A00A5E0A0937B00A8E0A6
:1000C000A093810010928000AFEFA0938500A093D1
:1000D0008400A6E0A093360010928B0010928A0054
:1000E000B6E0AFE7A91B51E0392F36302AF0A0580F
:1000F000B94F53953650F9CFB0938900A09388003B
:10010000A0917A00A4FFFCCFB7EBB0937A00A2E0F5
:10011000A0936F00A9E0A093810062E0A0E0A0930B
:100120007B00A1E0A09353008895E5B8C4B884FF94
:1001300019C0A3E4AA95F1F7EF93FF93E7B1F8B1E3
:10014000A4E0C2FCA2E0C0FCA1E0BF2FBA2BAE2B02
:10015000B8B904B9A7B9E7B9F8B9FF91EF910AC0E6
:100160000C949100A7E40000AA95F1F725B9E5B831
:10017000000004B9A0918400A0918500B09189008D
:10018000A395AB1768F7A0917A00A4FFF3CFB7EB64
:10019000B0937A006A9571F7609178007091790058
:1001A000308186FD630F6193308186FD731F80FF70
:1001B0007193652F4A9579F710926F001092810024
:1001C000B7E0B0937A000895FC01F501EE01180044
:1001D0000720080808F80000002060A03FA0602069
:1001E000020202FF0202021010101F0000000508A8
:1001F00042818989760508C2A19189860508000493
:1002000002FF0010100508F8783858880910030814
:100210001C3E7F0D080710FF818181F1E1C1FF4085
:1002200040404743410D080110FFFF11080310F142
:10023000E1C14743410E0008202121122060E0E087
:10024000E0FEFE0402010001037F7F21C2C4C4C09E
:100250004094840007030102040E080210FEFE7F92
:100260007F00000000110005202060E0E0E00201B6
:10027000000103C2C4C4C04007030102040104100A
:10028000090A0C4E6F742063616C69627261746557
:10029000642120466F72FF63616C696272617469E8
:1002A0006F6E20636C616D70207468652033FF7021
:1002B000696E7320746F67657468657220616E641F
:1002C000207374617274207769746820746865FFA4
:1002D0006B65792E2041636B6E6F776C6564676523
:1002E000207468652073656C662D7465737420775F
:1002F00069746820746865206B6579207769746813
:10030000696EFF32732E20446973636F6E6E65638E
:10031000742070696E7320616674657220746865FC
:10032000FF6D657373616765202269736F6C61741B
:1003300065FF50726F626521222069732073686FB8
:10034000776E2E20536F66747761726520616E64DC
:1003500020646F63756D656E746174696F6E20697A
:1003600073206174206769746875622E636F6D2FE6
:10037000FE6D696B726F636F6E74726F6C6C657219
:10038000FE2D6E65742F7472616E736973746F7273
:10039000FE7465737465722000B903870358032ED9
:1003A000030703E402C302A4028802000014002928
:1003B000003E005300690080009700AE00C600DFD9
:1003C00000F80012012D01490165018201A001BE62
:1003D00001DE01FF012102440268028E02B502DE45
:1003E000020903350364039403C803FE033704734F
:1003F00004B404F90443059305EA054906B3062944
:1004000007AE074808FF08DE09FD0A930C480F995C
:100410001B000000000000000000000000000000C1
:10042000001E2121211200807F0000007E4A4A4ADE
:1004300034000000000000FC40201008040201000D
:100440000000010101010101010101010101017F20
:100450000488D0E0F0F80000000000000000000078
:100460000000000000000000FC94948400000102E1
:10047000FC0000000000000000000000001E212120
:100480002112E0C0804020100F000000C02020207A
:1004900040000000FC00009E9E04030303030200D2
:1004A0000000202023242525232020203F00007B3E
:1004B0007B2142840480C000000000000000000096
:1004C0000000000000FC949484000406070707085D
:1004D000F000000000000000000000000000803F6D
:1004E0002121120C00000000FF000000F008484825
:1004F000C80000FE0000E7818181C1E1F1818181B6
:1005000001002020202121212020203F0000F34055
:10051000404041434740407FC000000000000000D1
:100520000000000000000048949494640000000063
:10053000FF000000000000000000000000000000BC
:10054000003F2121120C0000FF000000F008484885
:10055000D0000000000000FEFE04040404040404B3
:10056000070008080809090908087F3E1C08087FD9
:100570007F20202020202020E0000000000000003C
:100580000000000000000000004894949464000003
:10059000FF0000000000000000000000FF003C0A17
:1005A000090A3C002231292926000082868E9EBE3F
:1005B000FEFEBEDEEFF6FAFEFEFAF2E2C2820000B6
:1005C0000008080804027984A4A46800FF00000061
:1005D000000000000000000000000000000000001B
:1005E00000000000FF0000F0282428F0001008FCA4
:1005F0000000000000000000000000003C0A090AA2
:100600003C00FF00000000000000000000000000AF
:100610000000000000040C1C3C7CFF7C3C1C0C0413
:100620000000000000009EA1A9A99A804323130B9B
:100630000703FF030303030303000000000000009F
:1006400000000000788484844800FF00000000005F
:1006500000000000F00804E211090909090909096C
:1006600009091121C2040810E0000000010204047D
:100670000700000000008040201088442310080478
:10068000030000000000000000000000FE0100FC6C
:100690000201000000000000000000000000000057
:1006A00000000000794949790000000000000000C6
:1006B0000000F804022254880403000202010078BA
:1006C0008402020284780604070007040600FC0086
:1006D000000080FC0007010101000100000C121263
:1006E0000C000000000000000000000000000000FE
:1006F00000000000000000003CFE3C000000000084
:10070000060000000000160E00160E00000000009B
:100710000000000010FC1010FC1000010701010790
:1007200001001824FE4488000003040F0403000C99
:1007300012924C2010080201000609090688542272
:10074000548800800102040402010200160E000019
:100750000000000000000000000000F0080402009B
:10076000000001020408000000020408F00000007C
:1007700008040201004850E0FCE050480201000774
:10078000000102404040F84040000000000300002B
:100790000000000000000000000B05000000004009
:1007A00040404040404000000000000000000000C9
:1007B0000000000000060600000000000000C0303D
:1007C0000C03000C0300000000F8844222120CF815
:1007D0000102040404020100080402FE00000000FB
:1007E0000000070000188442424224180704040451
:1007F0000404040C020222225488030404040402A8
:10080000016050484442FE40000000000007003EE6
:100810002212121222C201020404040201F824125C
:10082000121222C4010204040402010202824222C2
:10083000120E000700000000008854222222548873
:1008400001020404040201384482828244F8020452
:10085000040404020100181800000000000606004D
:1008600000000000181800000000000B0700000046
:10087000000040A01008040200000001020408006B
:10088000202020202020000101010101010002049C
:100890000810A0400008040201000018040282426F
:1008A00024180000000D000000FC0262929292FCED
:1008B00003040404040400F08884828488F00700A0
:1008C0000000000007FE2222222222DC070404048A
:1008D000040403FC02020202020C030404040404E4
:1008E00003FE0202020202FC07040404040403FEE5
:1008F00022222222220207040404040404FE2222EB
:100900002222020207000000000000FC0202024254
:1009100042CC03040404040207FE2020202020FE11
:1009200007000000000007000002FE0200000000B7
:1009300004070400000000000000FE0000020404A0
:10094000040300FE2050880402000700000001029A
:1009500004FE00000000000007040404040404FE78
:100960000408100804FE07000000000007FE061837
:10097000608000FE07000000010607FC0202020280
:1009800002FC03040404040403FE42424242423CCB
:1009900007000000000000FC0202020202FC030447
:1009A0000404050205FE4242C242423C0700000028
:1009B0000102040C12222222428C030404040404C7
:1009C00003020202FE02020200000007000000FE15
:1009D0000000000000FE030404040404030E708001
:1009E0000080700E000003040300007E8000E00021
:1009F000807E00000700070000020C9060900C024F
:100A0000040300000003041E20408040201E00005C
:100A1000000700000002824222120A0607040404B2
:100A200004040400FE0202000000000704040000A9
:100A300000081020408000000000000000010200BB
:100A400000000202FE000000000404070010080479
:100A50000204081000000000000000000000000078
:100A60000000040404040404040000000E16000046
:100A700000000000000000804848484848F0030497
:100A80000404040207FE2010101010E00704040400
:100A9000040403F00808080808100304040404040C
:100AA00002E01010101020FE03040404040407F0F8
:100AB000888888888870030404040404040020FCE7
:100AC0002222020400000700000000708888888845
:100AD00088F000040404040403FE4020101010E019
:100AE00007000000000007000008FA0000000000F6
:100AF000000700000000000000FA000002040404E7
:100B0000030000FE4040A0100800070000000102A2
:100B100004000002FE00000000000003040000F8D2
:100B20001008F00808F007000007000007F8201080
:100B3000080808F007000000000007F0080808088F
:100B400008F003040404040403F89008080808F0FB
:100B500007000101010100F00808080890F80001F1
:100B60000101010007F82010080808300700000004
:100B700000000030484888888810020404040404F7
:100B8000030010FE1010000000000304040402F82B
:100B90000000000000F80304040404020718608049
:100BA0000080601800000106010000F80000C0008D
:100BB00000F801020403040201081020C0201008FC
:100BC00004020100010204788080808040F8020461
:100BD00004040404030808884828180802050404CB
:100BE00004040440A01C02020000000007080800E2
:100BF00000000000FF0000000000000F00000000E7
:100C00000002021CA04000000808070000040201C6
:100C10000204080400000000000000E010080404C2
:100C200008100101010101010140F010101010F045
:100C300040000101010101010040FCF8F0E040FC2E
:100C400040000703010000070040FC40E0F0F8FC12
:100C500040000700000103070040FCFC0000FCFC12
:100C6000400007070000070700F808080808080800
:100C70000803020202020202020808080808080823
:100C8000F80202020202020203404040404040409B
:100C900040000000000000000040C000C020C00074
:100CA000C0000102020102020220C000C020C000F8
:100CB000C001020202010202010011241FBECFEF97
:100CC000D8E0DEBFCDBF21E0A0E0B1E001C01D92C1
:100CD000AA3CB207E1F70E9481140C94A73D90C989
:100CE0005D98559A80FD599A80FF5998519A539A68
:100CF0005A9867FD5B9A67FF5B985A9A5A9866FD07
:100D00005B9A66FF5B985A9A5A9865FD5B9A65FFF5
:100D10005B985A9A5A9864FD5B9A64FF5B985A9A5A
:100D20005A9863FD5B9A63FF5B985A9A5A9862FDE2
:100D30005B9A62FF5B985A9A5A9861FD5B9A61FFD1
:100D40005B985A9A5A9860FD5B9A60FF5B985A9A32
:100D50005D9A5A985B98089597FF09C08F939F9367
:100D60008DE249D69F918F91909581959F4F64E236
:100D700071E04AE050E00E94463DB3C60895ECDFC2
:100D800001C0EADF80E237C68DE235C68DE333C6A7
:100D9000EF92FF920F931F93182F062FF42E87E7E1
:100DA00091E0AAD6EE24E0913F01F09140018685C2
:100DB000E81611F4812F09C08485E81611F4802FFC
:100DC00004C08585E81611F48F2D15D6E3948E2D79
:100DD000833049F71F910F91FF90EF900895EF92A4
:100DE000FF920F931F93182F062FF42E80E0F5D457
:100DF0008DE791E081D6EE248E2D70D6C7DFE0918D
:100E00003F01F09140018685E81611F4812F09C059
:100E10008485E81611F4802F04C08585E81611F446
:100E20008F2DE9D5AFDFE3948E2D833029F71F9105
:100E30000F91FF90EF900895682F80E092E0662375
:100E400009F491E0623009F481E008950F93082FCE
:100E5000E2EBF1E0880F880FE80FF11D60817181EE
:100E600082819381643671058105910568F4209132
:100E7000220127FD09C0802FDFDF692F07D26EEF27
:100E800023E04DE167D704C04FEF04E02DE179D6B0
:100E900079DF0F910895863058F4E1EAF1E0E80F28
:100EA000F11DE80FF11D8081918163E05ED76ACF6B
:100EB00008951F93182F80917A01882319F062DF1B
:100EC00080E099D551D48EE691E016D6812F829597
:100ED0008F70E1DF812F8F70DEDF1F910895809189
:100EE000060182958F7019D08091060183701CD005
:100EF00080910601DECF0895E5E9F1E0E80FF11DEC
:100F00000895CF93F9DF9081C681C91710F405D0F9
:100F100001C013D037DFCF910895EEDF8F9380812A
:100F2000DDD58F9101C008958F938CE391E0E4D5D6
:100F30008F91E2DF8681D2C50895DEDF8F938681AF
:100F4000CDD58F9101C008958F9388E391E0D4D5DA
:100F50008F91D2DF8081C2C508958F932F932AE0AD
:100F600080953B9A089410F4439802C0439A00007D
:100F700020D027D086952A95B1F72F918F9108958B
:100F800003D002D001D000D000D003D002D001D0D5
:100F900000D000D003D002D001D000D000D0A8955E
:100FA00003D002D001D000D000D003D002D001D0B5
:100FB00000D000D003D002D001D000D000D003D0A8
:100FC00002D001D000D000D00000089582E090E06F
:100FD000893C28F0885C48EC849FC001112400976C
:100FE00009F4089540918100477019F0D8DF019706
:100FF000F6CF8130910519F002975CE803C05EE3FB
:1010000080E090E04091B200450F4093B30042E091
:101010004093700047E043BF889546E043BF10927D
:101020007000A895DCCF8F9384E0D1DF06C08F934A
:10103000CDDF03C08F9381E0CADF8F911F93182FFC
:10104000106410937C00E12FE07880912F01E81765
:1010500059F0E0932F01ADDF8FE980937A0083E0B0
:1010600083BF889582E083BF20E030E0A901E0E003
:101070001FC08FE980937A0083E083BF889582E068
:1010800083BF6091780070917900260F371F411D52
:10109000511DE43061F480913101803041F084E0F1
:1010A0002030380720F417FD02C01068CACFEF5F68
:1010B00080912E01E817E8F26091320170913301BE
:1010C00017FF04C0609130017091310180E090E021
:1010D0000E94B63B2FEF33E040E050E00E94F83B27
:1010E000B901CA0120912E0130E040E050E00E9499
:1010F000F83BC9011F9108959B01281B390B50F043
:10110000C9010895BC0180913201909133016817A3
:10111000790718F4861B970B089580E090E00895F6
:1011200082E593E00E94813D2091360130913701A4
:10113000280F391F209316013093170183E0283EB2
:10114000380720F0C901885E934002C080E090E03B
:1011500062E370E00E94D13B683008F067E0E9E9A3
:10116000F3E0E60FF11DE60FF11D45915591259134
:10117000359162E3681B421B530B649FC001659F5E
:10118000900D1124499662E370E00E94D13B620FFA
:10119000731F70937E0160937D0184E593E00E944C
:1011A000793D992787FD90956091360170913701BF
:1011B000860F971F909331018093300190937901AE
:1011C0008093780108950F9221E08C32920710F4F9
:1011D0008CE291E08C52914069E170E00E94D13B39
:1011E00099E16B3210F0982F6BE2981BECECF2E077
:1011F000E60FF11DE60FF11D9F93CF010E94793D8F
:10120000482F3196CF010E94793D582F3196CF015A
:101210000E94793D282F3196CF010E94793D382FC9
:101220006F91421B530B649FC001659F900D112469
:101230000C9669E170E00E94D13B620F731FCB01F5
:101240000F900895CF93DF9324E130E0B9010E941D
:10125000D13BDC01EBEAF3E0E60FF71FE60FF71FE7
:10126000C591D591459155914C1B5D0B4A9FC0018D
:101270004B9F900D5A9F900D1124B9010E94D13BB4
:101280006C0F7D1FCB01DF91CF910895AEE1B0E0EF
:10129000ECE4F9E00C94E63C662EB82E860F8983C8
:1012A00020911A01283059F5209183013091840151
:1012B000409185015091860157FD15C01091920112
:1012C00009C0CA01B9012AE0312D412D512D0E94DA
:1012D000F83B1F5F173FACF391F4243160E0360711
:1012E0004105510518F48FEF9FEF41C1173F39F4C5
:1012F00080E028178DE738074105410510F020E010
:101300003DE72C8B3D8B27EDA22EE0E8F2E0E60DC9
:10131000F11D859188608E87E0E8F2E0EB0DF11D0C
:10132000859188608F87EDE7F2E0E60DF11D7590FD
:10133000EDE7F2E0EB0DF11DC59090EC692AB92ABA
:1013400081E0E82EF12C012D112D8E831F8218864D
:1013500019861A861B861C861D86188E198E1B8E72
:101360001A8E0E94442488E088B960927C0021DEB5
:101370003F8537B975B874B855E05A95F1F7000054
:1013800014B815B8DD243E8537B975B874B86092C5
:101390007C00A895A0927A0080917A0086FDFCCF0F
:1013A0002090780030907900B0927C004C2DE3D0F2
:1013B0002091780030917900288B398B3F8537B99F
:1013C000C5B8C4B8A895B0927C00A0927A0080916C
:1013D0007A0086FDFCCF6091780070917900609270
:1013E0007C00472DC8D0409178005091790014B806
:1013F000CB01820D931DE80EF91E011D111DEA821D
:10140000FB820C831D8388899989840F951F2E8107
:101410003F8168857985280F391F611D711D2E83D5
:101420003F836887798722E32417150648F075B84B
:1014300074B8C9DD14B815B8888D8395888F07C036
:10144000483E73E0570718F08A8D83958A8F888904
:1014500099892817190658F03E8537B9C5B8C4B818
:10146000B2DD14B815B8898D8395898F07C0883E81
:1014700073E0970718F08B8D83958B8FD3945D2D38
:101480005F3F49F05F3731F45C2D550FC50E572D86
:10149000550F750E78CF40903B0150903C01440CA5
:1014A000551C9201E4E0240D351DEA95E1F7290170
:1014B000570168016E807F808884998420911A0189
:1014C0002830C1F46C897D89812D912D6550704043
:1014D000804090409B01AC010E94B63B9B01AC0157
:1014E00060E779E786E190E00E94F83B621A730AB0
:1014F000840A950AA614B704C804D90428F46A1803
:101500007B088C089D0803C0662477244301B20140
:1015100080E090E09301A4010E94B63B9501A601F2
:101520000E94F83B8AE293E07981870F911D0E9427
:10153000793D682EC90160E170E00E94D13B260F21
:10154000371FC9016816190618F4861991090FC0CA
:101550008C5E9F4F8615910540F48C899D89843956
:1015600081E1980710F00E942614812D912D6E962E
:10157000E2E10C94023D10928100109280001092E2
:101580006F0010928B0010928A0057E056BB5FEFFD
:10159000509385005093840055E050937B0057EBA7
:1015A00050937A0051E0509381005FE45A95F1F72F
:1015B0000000000045B944B95BE05A95F1F714B852
:1015C00015B81092810080917A0084FFFCCF80933F
:1015D0007A000895CF93C82F1C161CF4D3DBC1509A
:1015E000FBCFCF91089560933E01809303018695D0
:1015F0008093B101660F660F660F60930401089532
:1016000080913E01809301018091B101809302019C
:1016100008958091020160910101880FE4CF08953F
:10162000CF93C82F692F81E05BDB6C2F81E058DB03
:10163000CF910895682F80E053CB08958DE08DDC25
:101640008AE08BCC08951092B10160E080E0CBDF9E
:10165000F5CF0895CF93DF938AE2ECDF80E090E04E
:10166000DFDF80E890E0DCDF8BE2E4DF80E090E029
:10167000D7DF80EA90E0D4DF8CE2DCDFC0EAA89517
:10168000D0E080911B0190911C01CADFDF5FD03850
:10169000C1F7C150A1F7D7DFDF91CF910895CF9364
:1016A000DF9358985A985B985D98509A529A539A3B
:1016B000559A84DC5D9A559A5998519A84E187DC51
:1016C000589A84E184DC8AE082DC81E1B3DF84E043
:1016D0007EDC86E2AFDF64E081E002DB81EBAADF43
:1016E00061E181E0FDDA64E181E0FADA80ECA2DF19
:1016F00080E09EE095DF81EC9DDF65E081E0F0DA3F
:1017000085EC98DF80E498E38BDF8AE393DF65E084
:1017100081E0E6DA86E38EDF89E293E00E94793D9C
:10172000CBE1D1E0888388E293E00E94793D898310
:1017300087E293E00E94793DCCE5D1E0888386E2A0
:1017400093E00E94793D89836CE181E0C9DA84EB02
:1017500071DF60E081E0C4DA7DDF89E26BDF8AE07F
:1017600036DCDF91CF91089581E08093B10160E094
:1017700082E039DF63CF089582E08093B10160E0B9
:1017800084E031DF5BCF089583E08093B10160E0B6
:1017900086E029DF53CF089590913E0180E1891BB7
:1017A00019CF0895CF93C82FF7DF8091B1018F5FD4
:1017B0008093B101883038F087E08093B10181E0F7
:1017C0008093410102C0109241018091B1016C2FC0
:1017D000880F09DF33DFCF910895E4DFBBD3809119
:1017E000B101833008F02ACF08952DDFD5DF2BCF4C
:1017F0000895BADFD1DFB8CF0895582F28E030E040
:1018000090E841E080E0652F642309F0892B440FC4
:10181000969521503109B9F70895A4E0B0E0E3E1CD
:10182000FCE00C94E63C9C838B83542EC02ED12C80
:10183000C601860F911D813891050CF093C08E2D45
:1018400090E0AC01450D511D413851050CF08AC0A6
:10185000EA944E2C450C47FE02C05FE7452E322F1E
:101860003270398321FF13C0019743E09595879526
:101870004A95E1F78C9DA0018D9D500D9C9D500DCA
:1018800011248B819C81840F951F9C838B8380E81E
:10189000282E201A261A312C21702A83360191E035
:1018A000691A7108451408F45DC000E010E0852D48
:1018B00090E027E9A22EB12CA81AB90A3EE9832E9E
:1018C000912C881A990AC016D10609F43CC08BE203
:1018D000B1DEC501A5DEC401A3DE8AE2ABDE710183
:1018E000E00EF11EC7019CDEC7019ADE8CE2A2DE8B
:1018F0003A81311108C0F301E01BF10B8B819C810F
:10190000E80FF91F04C0EB81FC81E00FF11FF49098
:101910009981992319F08F2D70DFF82E88E0E82E39
:10192000F7FE05C080915C0190915D0104C080913B
:101930001B0190911C0174DEFF0CEA94E110F0CFC2
:101940000F5F1F4FC0CF39818B819C81332319F0EA
:101950008C199D0902C08C0D9D1D9C838B8398E082
:10196000590EA0CF2496E2E10C94023DEF920F9322
:10197000482F282F2F7380E6289F90011124C9013A
:101980008F5E9B4F46FF02C028E001C028E42093F1
:10199000050147FF03C01092000108C020E2209318
:1019A0000001209105012D5E2093050120E2E22E29
:1019B00008E120E040910001609105012EDF0F91C8
:1019C000EF900895EF920F93262FFC0164913196CA
:1019D0004491319604913196E49030910001430F87
:1019E00030910501630F049618DF0F91EF90089571
:1019F00060E0E8CF0895EF920F93CF93C82F8091C6
:101A00003E018F5F80933E01409103018C2F90E057
:101A1000440F440F440FCC3090F424E0880F991FFA
:101A20002A95E1F730E1E32E08E020E0609104011F
:101A3000875D934FF2DE80910401885F23C04C974D
:101A40002EE0289FF001299FF00D112480E1E82E5F
:101A500007E020E060910401CF018F54994FDDDE53
:101A600060910401695F6093040140910301440F98
:101A7000440F440F01E020E089EE96E0CEDE809135
:101A800004018F5F809304018C2F90E0FC0131975B
:101A9000EE31F105E0F4EC5CFF4F0C94363C8EE344
:101AA00005C08CE75ADA8CE313C08CE756DA8CE772
:101AB0000FC082E50DC08DE20BC085E709C08FE441
:101AC0004CDA88E64ADA8DE603C08CE401C08C2F3C
:101AD00044DAA895CF910F91EF9008958F5C8BCF4A
:101AE0000895CF93DF93EC018991882311F083DF70
:101AF000FBCFDF91CF910895CF93DF93EC01CE011F
:101B00000E94793D882319F076DF2196F8CFDF9186
:101B1000CF910895EF920F93FC0104913196E490D8
:101B200002967BDE0F91EF9008950F9385E991E087
:101B3000E3DF409191014D3F64F460917F0170912A
:101B40008001809181019091820103E026E419D007
:101B500002C08FE350DF0F910895909119019F709B
:101B6000923071F43ADE84E690E0C6DFE0913F0106
:101B7000F091400122E04DE16FEF84819581EAC050
:101B80000895AEE0B0E0E7ECFDE00C94E63C142FE5
:101B9000622E702E6B017C010F7080E389838A8333
:101BA0008B838C838D838E83F7FE0AC0EDD8F094EF
:101BB000E094D094C094C11CD11CE11CF11C04C061
:101BC00075FE02C08BE217DF033071F0043099F02C
:101BD0000530C1F00630F1F0073021F174E6872EB0
:101BE000912CA12CB12C25C068EE862E63E0962E98
:101BF000A12CB12C1EC050E1852E57E2952EA12CB0
:101C0000B12C17C040EA842E46E8942EAA24A3944F
:101C1000B12C0FC030E4832E32E4932E3FE0A32E8C
:101C2000B12C07C020E8822E26E9922E28E9A22EA8
:101C3000B12C9AE0292E312C412C512CC814D904F6
:101C4000EA04FB0470F0C701B6016B5F7F4F8F4F52
:101C50009F4FA20191010E94F83B69017A011F5F29
:101C6000EDCF81E1810F9BEA899F812D1124A82E60
:101C7000A69486E0811B899F112D11241695912F22
:101C8000990F190F811B182F4E0187E0880E911CA8
:101C90002AE0A401C701B6010E94253DF40101908C
:101CA0000020E9F731977F01E818F9089E2C6701B9
:101CB000DD24812F90E004968C159D0514F4A394E7
:101CC0001D5F8A2D90E0845D9F4F0E94793DA82E74
:101CD00074FE04C0901610F40E1901C000E08E2CA2
:101CE000811A800E181424F08EE285DE012F0E1961
:101CF000111102C088EF882E912C10E0C00ED11E69
:101D0000E82C082C000CFF08892D90E08C159D050F
:101D1000ACF4FC013696E01BF10B81E090E08C0FF7
:101D20009D1FE80FF91F808166DE9394892D90E056
:101D30008E159F0549F78EE25EDEE6CFAA2011F0F0
:101D40008A2D59DE662011F0862D55DE2E96E2E1B1
:101D50000C94023D0F93362FBC0180E090E0022FDF
:101D6000242F432F0EDF0F9108950F93062FBC01F0
:101D700080E090E026E54DEF04DF0F9108950F938A
:101D8000042F28E440E0FDDE8AE735DE0E94C2062B
:101D90000F910895E82FF0E0EE0FFF1FE853FE4F7C
:101DA000A591B49190910001490F90910501690F9F
:101DB00020E0CD01AFCE0895CF93DF93C82FD62F6B
:101DC000E0913F01F091400148E16EE18685E2DF5C
:101DD000E0913F01F09140014D2F6C2F8485DADFB7
:101DE000E0913F01F091400140E06EE18585D2DF56
:101DF000DF91CF91089599B193FB992790F9499973
:101E0000926080911101843050F08EE080930D013A
:101E100090930E011092120181E080931101809144
:101E20001101E82FF0E0E35FFE4F3081931729F1B5
:101E300091111AC0E3E0E80FE370209112013230F3
:101E400041F4F0E0E35FFE4F3081333069F42F5FFF
:101E500009C0313049F4F0E0E35FFE4F30813330A8
:101E600019F4215020931201E1E0E80FE370E093B0
:101E70001101F0E0E35FFE4F90838091120187FD36
:101E80008195809313010895A0E0B0E0EAE4FFE0BB
:101E90000C94EF3CE82ED92E5398519885D8109287
:101EA0001201E0911101F0E03196E370FF27E35F4A
:101EB000FE4F80EF8083C5E6D9E19DDF4F9905C0D5
:101EC00077D8D150D1F7C150B9F7CE2DDD2DF12CF7
:101ED00015E500E0BB24B394D7FD36C082E3C82EDD
:101EE0008ADF66D8CA94C110FBCF110F4F9B1F5FCA
:101EF0001F731F3349F4011103C0CE2DDD2D04E003
:101F00000F5F083C28F020C0111102C001111CC055
:101F1000A8951C161D0624F42A9711F4CFEFDFEFC5
:101F200080911301882339F0F39480917B01811112
:101F300002C0B0927B0184E18F1570F6809112018E
:101F4000811102C0F12CC8CF802FCDB7DEB7E9E0F8
:101F50000C940B3DCF9354DBC82F80914101882313
:101F600001F1813051F4C73041F46FE08EE03BDB8A
:101F70008BE241DD6FE08EE036DB80E49FE184DFC1
:101F8000811104C0809113018111F7CFC73041F452
:101F900080914101813021F460E08EE024DBFCDBA4
:101FA00038DBCF9108951895189530911801A091BC
:101FB0003F01B0914001E5E9F1E080E090E0831756
:101FC000B0F441911C962C911C97421719F0458151
:101FD000241302C00196F3CFFC01EE0FFF1FEF5553
:101FE000FE4F20813181293E334008F4089584E179
:101FF000089510921A011092180110927301109214
:1020000051011092190110923D0110927A01EEE5F2
:10201000F1E0108211821282EFE7F1E0108A82E093
:10202000818B1092220117861686148215821682E1
:10203000178281EF838B08958FE40E94AD0786E4B9
:102040000E94AD0786E40E94AD07F8DA5E980E9410
:10205000C30780E090E018CF08951F93CF93DF93DC
:10206000162F98E097B998B9E82FF0E0E358FD4FA4
:10207000949195B9262F281BE20FF11D27FDFA95A3
:10208000E491E92BE4B90E941E08EC01812F0E9423
:102090001E08AC012091320130913301369527950D
:1020A000C9010397BE01625E7F4F8617970778F4D8
:1020B000255E3F4FC217D30750F4BA01625E7F4FCF
:1020C0008617970720F481E04217530708F080E055
:1020D00014B8DF91CF911F910895CF9361E080E014
:1020E000BCDFC82F62E080E0B8DFC80F62E081E0AB
:1020F000B4DF8C0FCF910895AFE0B0E0E2E8F0E1FB
:102100000C94E63CB82E10921A01807FA9F4E5DF0A
:10211000833009F097C39EDA8EE592E0EDDC24DB94
:102120008FE369DC80ED97E0AFDE8B30C8F492DAA4
:102130008AE091E0E1DC86C306E910E08BDA8DEC01
:1021400091E0DADCCADF833021F41F5F143010F035
:1021500007C010E088E20E94E707015079F760C0ED
:1021600003DB0E94252881EB90E0C6DC60E08CE276
:1021700093E00E94863D60E08DE293E00E94863D00
:1021800060E08BE293E00E94863D60E082E07ED8D2
:102190006C019A83898361E082E078D87C019C831A
:1021A0008B8360E081E072D88C019E838D8323E075
:1021B00040E26EEFC601CEDD23E040E26EEFC701E4
:1021C000C9DD23E04DE16EEFC801C4DD2AE5C2168A
:1021D000D10424F084E190E09A83898369818CE2C0
:1021E00093E00E94863D8AE5E816F10424F084E13C
:1021F00090E09C838B836B818DE293E00E94863D0F
:102200000A35110524F084E190E09E838D836D8171
:102210008BE293E00E94863D82E0809341019ADE4A
:10222000EB2DEF70EF87E13011F018E749C1EE2494
:10223000E394F12C78EB872E72ED972E77E4A72E9E
:10224000B12CE2E0DE2E08E0F0E23F2EC12C1E2D84
:1022500052E2252ECEDAC9DA84E5CDDBC7010E9431
:10226000B7060E94C2061130B9F484EE90E044DC57
:1022700064E0809136019091370177DD75DA8FED5A
:1022800090E03ADC80917D0190917E010E94B7063A
:102290008EEB80932E01F0C0123091F52091320127
:1022A00030913301A8E5BBE10E943C3C24EC36E3CD
:1022B00040E050E00E941A3C29013A0181E085B9D2
:1022C000F5E0F4B980E00E941308841995099A8317
:1022D000898381E184B980E00E94130884199509FB
:1022E0009C838B8384E085B984E184B981E00E947A
:1022F0001308841995099E838D8389EC90E0AAC008
:10230000133059F5D5B82AE024B980E00E941308AB
:1023100020913201309133013695279538872F83EC
:10232000821B930B9A83898324B880E00E94130850
:102330002F813885821B930B9C838B8305B988E2A0
:1023400084B981E00E9413082F813885821B930B8A
:102350009E838D838BEB90E07DC0143039F48EE446
:1023600092E0CADBBADE81116AC275C01530B1F4E1
:1023700015B8D4B880E00E9413089A83898304B901
:1023800081E00E9413089C838B8334B882E00E9412
:1023900013089E838D838BED90E05CC0163051F561
:1023A000D4B8D5B880E00E94130820913201309152
:1023B0003301821B930B9A83898304B905B981E0A9
:1023C0000E9413082091320130913301821B930B3C
:1023D0009C838B8334B835B882E00E941308209127
:1023E000320130913301821B930B9E838D8387EDE5
:1023F00090E030C0173079F52091320130913301EF
:10240000A8E5BBE10E943C3CA50194010E94F83B79
:1024100029013A01D5B8E3E0E4B980E00E9413084D
:10242000841995099A83898305B9FCE0F4B981E0A0
:102430000E941308841995099C838B8335B820E387
:1024400024B982E00E941308841995099E838D8324
:1024500085EB90E051DB88D989819A810E94AC0696
:102460000E94C2068B819C810E94AC060E94C2061B
:102470008D819E810E94AC0607B908B914B815B8C1
:1024800088EE93E001DD143011F08B3020F4C3941A
:1024900084E0C812DFCE88EE93E0F6DCEFEFEE1AB0
:1024A000FE0AF8E0EF16F10409F0D0CEBECEA1D9B5
:1024B0008EE492E021DB84E60E94E707115019F0D8
:1024C0000CDE8111F4CFC6D88AEA90E015DB23E058
:1024D0004DE16FEF80913401909135013BDC44D99F
:1024E00083EA90E009DB23E04DE16FEF80913B014F
:1024F00090913C012FDC82E0809341012BDD109212
:102500001A01A8D88FE990E0F7DA60E082E00E9433
:102510001425409087015090880160908901709047
:102520008A015C864B8661E082E00E9414258090DF
:10253000870190908801A0908901B0908A019E86C1
:102540008D8660E081E00E94142500918701109142
:1025500088011E830D8362E080E00E941425809133
:102560008701909188019C838B8362E081E00E94C7
:10257000142580918701909188019A87898761E06D
:1025800080E00E941425E0908701F0908801FA8293
:10259000E982C2010E94C106C4010E94C106B801BD
:1025A000110F880B990B03E026E444EFEADA2F853C
:1025B000213021F080913A01823031F482E0E80E3E
:1025C000F11CF886EF8204C0F886EF8210923A017F
:1025D0008E010F5F1F4F6E01EFE0CE0ED11CF80190
:1025E000819191910A97853B9105C8F4EC15FD0501
:1025F000B9F74BE4E42E43E0F42EF80160810E5F5E
:102600001F4F6E5EC7010E94863DFFEFEF1AFF0A63
:102610000C151D0591F7A8D88AEB91E06DDA82E0E0
:102620008093410197DC0E945A382F85213029F090
:1026300080913A01823009F0EBC00CD880E04EDA8C
:1026400080E691E059DA82E049DA84E290E054DAF7
:1026500020E4F22E10E03AE0832E912CA12CB12C34
:10266000C8DC10921A0160E082E00E9414250091FB
:10267000910120917F013091800140918101509121
:102680008201073F44F40F5FCA01B901A50194011B
:102690000E94F83BF6CF0093910120937F01309385
:1026A00080014093810150938201073F09F098C057
:1026B000DA01C90180569109A109B109803995450E
:1026C000A105B10508F08CC060919301709194014F
:1026D000CB018B569F4F8B32914008F081C01F5F1A
:1026E000153008F47EC082E593E00E94943D0E947C
:1026F0002A0B8DE190E000DA809193019091940192
:102700000E94AC060E94900888E088B989E087B9E9
:1027100080E284B982E00E941E08853D9340D4F790
:1027200014B8109231011092300182E00E941E080C
:102730008C0180917801909179019093310180937F
:10274000300182E00E941E087C01EE0CFF1C1092FA
:1027500031011092300182E00E941E08A0907801A1
:10276000B0907901B0923101A0923001800F911F99
:102770008C010E191F090E94B40B86E190E0BCD9B0
:1027800084E593E00E94793DD82E9501D8010E94FE
:102790004B3C97010F2C000C440B550B0E941A3C2C
:1027A00013E01D0D120F612F84E593E00E94863D1A
:1027B000812F012E000C990B0E94AC060E949008FC
:1027C00082E080934101C6DB10923A018BE493E0F2
:1027D0000E94793D682F8EE493E00E94863D18C0E8
:1027E00010E00E94B40B60917F0170918001809194
:1027F00081019091820104E026E440919101C1D9C8
:102800000E94CC0B88E20E94E707FA94F11028CFCF
:1028100089E180932E0180E00E94703B0E942A0B88
:102820008AE091E069D90E94B40B85E492E064D912
:1028300010921A0182E0809341018CDB03C082E098
:10284000C82E09CE2F96E2E10C94023D80913A0108
:1028500081110DC08BE493E00E94793D61E0680F27
:102860008EE493E00E94863D81E080933A010895D2
:10287000EF92FF920F931F93CF93DF93D62FE82F02
:10288000F0E0E058FD4FE491E8B9E860E7B915B829
:10289000E62FF0E0E358FD4FE491E4B988E8E82E34
:1028A00083E1F82ECE2FCC0F8D2F0E9413088C01C0
:1028B000C4B98E159F0510F47801F6CF892BE1F08D
:1028C0000E94C40B80E491E017D9D80120EA36E8D1
:1028D00041E050E00E94513C28E937EB40E050E0F5
:1028E0000E94F83BDA01C90122E041E467EF32DAE5
:1028F00088E087B988B914B8CDB7DEB7E6E00C94A4
:102900000E3DA0E0B0E0E7E8F4E10C94E63C80E4A2
:102910008AB98BB987E880937A001092C1000E942F
:10292000C507C4B784B7877F84BF0FB6F894A8954E
:1029300080916000886180936000109260000FBEFB
:1029400086E88093640088E380937E001092B00054
:1029500087E08093B10078940E944F0BC3FDA9C516
:1029600080E185BF84E080931101C0E04F9905C0EC
:102970000E94E607CF5FCC33C9F78FE59DE69093C1
:102980000C0180930B01CF3130F080E69DE69093EF
:102990000C0180930B0110922F010E9425289FE0CB
:1029A00088E10FB6F894A895809360000FBE9093CD
:1029B0006000CC3399F038E0932E40E1842E58E14A
:1029C000752E64E6E62E61E0F62E7CE0272EEDE023
:1029D0003E2EF0EF6F2EA3E35A2E34C00E946332D6
:1029E0008111FCCFE8CF823009F44CC1833009F467
:1029F00076C189EA92E080D881E992E07DD80E9490
:102A0000B40B80911801805D0E94FB0C8AE20E9449
:102A1000FB0C8CE391E070D887E792E06DD80E94C0
:102A20001E0B86E00E94B60CC0E4DFE177B84F9B36
:102A3000FECFCE0129DA823308F4BFC40E9463328C
:102A40008111FCCF0E942A0B97B8D3DA0E94252867
:102A50000E94230B40D580913D01882371F00E9494
:102A6000B40B85E591E048D863E080913201909104
:102A700033017BD988EC0E94E7070E94B40B0E94C7
:102A8000442480911A01893019F50E942A0B8AE5A5
:102A900091E032D80E94B40B63E08091560190918E
:102AA000570163D90E94C20663E08091580190915A
:102AB00059015BD90E94C20663E080915A0190914E
:102AC0005B0153D98AEC0E94E70781E115DB70C4F2
:102AD0008EE493E00E94793DC82F8BE493E00E943E
:102AE000793DC81BC0933A0180E006DB0E94F90BD8
:102AF00083EC92E001D883E00E94AD070E941E0B98
:102B000042E061E080E05BD542E060E081E057D5E3
:102B100041E062E080E053D541E060E082E04FD5E3
:102B200040E062E081E04BD540E061E082E047D5E3
:102B300080911A0181110EC00E94442460E082E05D
:102B40000E94142561E082E00E94142560E081E08B
:102B50000E9414250E942A0B82E491E09093400188
:102B600080933F0180911A01863069F485EC0E94C0
:102B7000B60C60E188EF20D966E080E00E94F30A9D
:102B80008AE992E00EC08730E9F484EC0E94B60C2A
:102B900060E188EF11D966E080E00E94F30A83EAE1
:102BA00092E00E947C0D66E082E00E94F30A8EE6CD
:102BB00091E00E947C0D62E0809146019091470176
:102BC000D4D8F4C3883081F420918F018091900192
:102BD00090E0820F911D029719F40E94852AF6C396
:102BE00080E00E94B329E4C3833009F0B5C080912E
:102BF0001801813009F0F7CE80E00E9481076091D2
:102C0000950180919B0134DE80E70E94590740E0E6
:102C10006091950180919B010E94A53760937F018F
:102C200070938001809381019093820180E00E94E3
:102C3000ED0B60917F0170918001809181019091F5
:102C4000820102E026E442EF0E94C10D0E94C40608
:102C500041E06091950180919B010E94A5376093AE
:102C60007F0170938001809381019093820126E41B
:102C700042EF0E94C10D82E391E00E947C0D0E9410
:102C80001E0BF7C282E30E94FB0C82E291E00E94DD
:102C90007C0D9091950130919601931307C080E0CF
:102CA0000E949D0781E00E9494070CC020919B0127
:102CB00080919C01281308C080E00E948D0781E06C
:102CC0000E94A40781E0A1CF321304C081E0809369
:102CD000060134C098138DCE809206012FC0509209
:102CE000060180919B0190919601891303C021E018
:102CF000209306014091950130919C01431302C03D
:102D00008092060120919701821303C082E0809394
:102D1000060180919D01481303C040E240930601E3
:102D200032130FC022E120930601981761F083E36C
:102D30000E94FB0C82E291E00E947C0D0E946F07D2
:102D400098C2981303C081E2809306018091060126
:102D5000823208F04ECEEBCF843009F052C1809120
:102D60007301882309F45DC080915101882309F41F
:102D700058C060914E01809150010E941425A0908E
:102D80007F01B0908001C0908101D0908201C091FC
:102D9000910160917201809170010E9414258091CF
:102DA000420190914301A0914401B09145014091AD
:102DB0006401509165016091660170916701843FE3
:102DC00021E09207A105B10538F4443F21E0520704
:102DD0006105710508F0C0EF443F51406105710580
:102DE00038F4843F9140A105B10510F06092910143
:102DF00080919101C8130EC080917F019091800154
:102E0000A0918101B0918201A816B906CA06DB061D
:102E100018F005C0C8171CF43092190102C02092A6
:102E2000190180917301882361F0809151018823F9
:102E300041F04F9906C09091190181E08927809354
:102E4000190166E080E00E94F30A80EC0E94B60C53
:102E5000809119018C3051F48AE891E00E947C0D38
:102E6000809173018823A9F080E711C0F09240019E
:102E7000E0923F0183E092E00E94F80C82E891E04A
:102E80000E947C0D80915101882319F08EE60E94EA
:102E9000FB0C8BD8C82F8530A0F4A0913F01B091D6
:102EA0004001E82FF0E0EB56FE4F1D969C9180818B
:102EB000981711F062E001C060E08EEC91E00E9492
:102EC000E20C60E189EF0E94DC0E86E00E94D20BEA
:102ED00089E991E00E947C0DE0913F01F091400171
:102EE000608171818281938103E020E04EEF0E9436
:102EF000C10D87E00E94D20B89E40E94FB0CE09197
:102F00003F01F0914001868197818031974270F0B6
:102F100085E60E94FB0CE0913F01F0914001868123
:102F20009781805197429783868303C083E60E94EE
:102F3000FB0C0E94C606E0913F01F091400122E0A7
:102F400041E46AEF868197810E94AA0E86E00E9482
:102F5000D20B82E791E00E947C0DE0913F01F0915D
:102F6000400163E0848195810E94B50E81E08093E9
:102F70004101E0913F01F091400180859185892BCD
:102F800091F085E00E94ED0B84E091E00E947C0DC1
:102F9000E0913F01F091400122E041E46AEF808539
:102FA00091850E94AA0EE0913F01F0914001828537
:102FB0009385892B91F085E00E94ED0B8EEF90E0D8
:102FC0000E947C0DE0913F01F091400122E041E43C
:102FD0006AEF828593850E94AA0EC53078F480E05E
:102FE0000E94ED0B8C2F0E9481078EE691E00E94DB
:102FF0007C0D8C2F0E944B070E941E0B43E462E461
:1030000034C1853009F041C166E080E00E94F30AD6
:103010008091190184FF09C080E50E94FB0CF092A9
:103020004001E0923F01C2E004C08EE40E94FB0C2C
:10303000C0E00E94C40680911901D82FDF70D430FF
:1030400061F484EA91E00E947C0D83EC0E94B60C4E
:10305000CC23E1F18CE092E037C085FF05C084E429
:103060000E94FB0CCF5F03C085E40E94FB0CD330B1
:10307000B1F48EE991E00E947C0D81EC0E94B60CC7
:10308000C13019F489E592E01FC0C23019F485E619
:1030900092E01AC0C330D1F485E392E015C089EA0A
:1030A00091E00E947C0D82EC0E94B60CC13019F4B4
:1030B00085E292E009C0C23019F48BE292E004C0CC
:1030C000C33021F483E192E00E94F80C0E94D50FF6
:1030D0008530A0F4A0913F01B0914001E82FF0E0CD
:1030E000EB56FE4F1D969C918081981711F062E07F
:1030F00001C060E08EEC91E00E94E20C60E189EF9B
:103100000E94DC0E86E00E94D20B86E00E94D20B69
:103110008091190185FD1CC08AE691E00E947C0D1A
:10312000E0913F01F091400162E0828593850E9429
:10313000B50EE0913F01F0914001668584850E94C3
:10314000142586E00E94D20B0E94950D85E068C090
:103150008F70E0913F01F0914001843039F0668535
:1031600084850E9414250E94950D13C08481958149
:10317000892B79F080E090E00E947C0DE0913F0186
:10318000F091400122E041E46AEF848195810E9440
:10319000AA0E60E086E00E94F30A89E40E94FB0C1C
:1031A0000E94C606E0913F01F091400122E041E417
:1031B0006AEF868197810E94AA0E84E691E00E94C0
:1031C0007C0DE0913F01F091400162E082859385A2
:1031D0000E94B50EE0913F01F091400180859185FC
:1031E000803C9241E0F480E00E94ED0B89E40E9473
:1031F000FB0C0E94C60622E041E46BEF80E090E009
:103200000E94AA0E84E691E00E947C0DE0913F01AD
:10321000F091400162E0808591850E94B50E80E0CA
:103220000E94AD0DD43009F43CC1C0E0809118017A
:10323000C817B0F4C11103C080E00E94D20B80E037
:103240000E94ED0B8C2F0E9481078EE691E00E9478
:103250007C0D8C2F0E944B070E941E0BCF5FE6CF88
:10326000D33009F022C143E467E485E40E94EF060D
:103270009DC00E941E0B80917A01882309F498C09A
:1032800077B897B880E00E94ED0BD0917A01DD23EA
:1032900009F47FC0D130A1F4809161010E941C0724
:1032A00020916101213039F420911801211103C0CE
:1032B0000E943B2A8BC040E0692F0E94F62878C00C
:1032C000909161018091620124E0829FD0011124DC
:1032D000AE54BE4F24E0929FF0011124EE54FE4FF5
:1032E0000D911D912D913C9140815181628173819D
:1032F000401751076207730710F4C82F01C0C92F88
:10330000D23021F4890FC3E0C81B1CC08091630137
:1033100094E0899FD0011124AE54BE4F24E0C29F97
:10332000F0011124EE54FE4F0D911D912D913C9111
:103330004081518162817381401751076207730791
:1033400008F4C82F1C2F1695D2E0DC1BC11102C057
:1033500001E001C002E0812F0E946E0D8DE191E03D
:103360000E947C0D8D2F0E946E0D8DE191E00E94D8
:103370007C0D802F0E946E0D80E00E94D20B81E0B8
:10338000C11180E00E94260782E0811B0E9426076F
:103390000FC081E892E00E947C0D0E94B40B8EEA7F
:1033A00092E00E947C0D89EA92E038CB0E941E0BCD
:1033B000C0910B01D0910C0139CB90911301933046
:1033C00008F03CCB81113ECB911133CB80913A0177
:1033D000811142C00E941C1035CB8D2F8770B82EF2
:1033E00011F40E942A0B60E08B2D880F0E94F30AD3
:1033F0000E941E0BA895DF5FD770A12CB12CA414DE
:1034000088F1CC2309F444C0040D111DF801ED57D7
:10341000FD4FE491E03211F40F5F1F4F80E090E028
:1034200020E1422EFC01E00FF11FED57FD4FC4914A
:10343000C032B1F0CE3FA1F001968131910591F7F4
:10344000D111CBCF80E09DE70E94440F811120C0B5
:103450008091120187FFC1CFD8E000E010E0DECFFD
:10346000482EEACFF801EA0DFB1DED57FD4FC49140
:10347000CC2371F0CF3F19F40E94C20605C0CE3FA5
:1034800019F08C2F0E94FB0C9FEFA91AB90AB7CF35
:1034900080E09DE70E94440F8091120187FDDCCF00
:1034A00099CF4FE367E48FE3E1CE44E467E483E53B
:1034B000DDCE0E94230B8EE692E00E947C0D8BEC09
:1034C0000E94E7070E941C1080E090E0CDB7DEB7B5
:1034D000E2E10C94023D0F931F93CF93DF9385E0BD
:1034E0000E941E0885E00E941A088C01EC01CC0F96
:1034F000DD1FCC0FDD1FCA56DF4F10923801C438D4
:1035000083E0D80750F48EEA91E00E947C0D0E947F
:10351000CC0B81E08093380126C08DEB91E00E94B6
:103520007C0D62E0CE010E94B50E0E94C2060A3FE9
:1035300086E0180790F40333164060F487EB92E0BE
:103540000E947C0D0E94CC0B8DEC0E94E7070E942C
:103550001C1009C08EEB92E002C08AEB91E00E9441
:103560007C0D0E94CC0BDF91CF911F910F9108959C
:10357000CF93DF93DC019C01261B370BE0E090E04A
:10358000B901690F711D672F7727920F260F371F1B
:10359000BA016E0F711D672F7727E40FEB01CC0F77
:1035A000DD1F4C0F5D1F6B3E28F4A217B30740F7D9
:1035B000CA0102C080E090E0DF91CF910895A8E1B8
:1035C000B0E0E5EEFAE10C94E63C582E462E342E9F
:1035D000A895E62FF0E0E358FD4F24912C87220FA9
:1035E0002B8B339634913A8BE42FF0E0E358FD4F68
:1035F00044914983339654915F83E82FF0E0E35878
:10360000FD4F2490822D880F8F87339694919B8352
:1036100098609C8338603A8345B9AC84A42AA4B8E6
:1036200097B9EB81E8B9862F0E941A089E878D878B
:10363000FC85F4B9842D0E941A083C0114B80E943C
:10364000CE0715B8A4B8842D0E941A086D857E8512
:103650000E947C086C012A8127B988E088B93981E9
:1036600032293D8335B934B9852D0E941A080E944C
:1036700082087C0115B80E94CE0725B8852D0E94CE
:103680001A080E9482088C0124B8852D0E941A080D
:103690000E948208B82E9987B801C7010E947C0851
:1036A000803241E0940730F450E2C51651E0D5066F
:1036B00008F4B6C5C00ED11EED85FE858E0F9F1F86
:1036C000C816D90620F41E870D876B2C79842091AB
:1036D000510130917301822F90E0830F911D029769
:1036E0004CF0213009F09CC590914E018091700101
:1036F000981396C5F981FF0FF88FF229FB872D8566
:103700003E852437310508F4A5C1C901880F991FEA
:1037100044966816790608F09DC13C8137B94B8103
:1037200048B98C85588D852B84B9842D0E94170843
:103730008C01832D0E941E087C01888D85B9842D03
:103740000E9417089801295A3D4F2817390708F099
:10375000B4C088E088B99A8197B9EB85E4B9E5B936
:10376000832D0E94170888349F4028F085E08093BD
:103770001A0182E204C085E080931A0184E28093FA
:1037800019011093470100934601B701C8010E9437
:10379000870890934D0180934C019801A0E1B7E216
:1037A0000E943C3C209114013091150140E050E012
:1037B0000E94F83B30934901209348018B89288D62
:1037C000822B84B915B83C8137B94B8148B9832D18
:1037D0000E941E088C01842D0E941708B8010E94C7
:1037E00087089C0190934B0180934A0190911901A5
:1037F0009F70943081F5409148015091490160914A
:103800004C0170914D01C901B3DE009701F1588D53
:1038100054B9EA898C81E82BE7B9842D0E941708F6
:103820008C0188E087B99801A0E1B7E20E943C3C96
:1038300020913B0130913C0140E050E00E94F83B78
:10384000A901B80180914A0190914B0191DE9093BA
:10385000470180934601809119018F70843009F4EB
:10386000D6C488E088B99F81EA819E2B97B924B895
:10387000FD81F5B9852D0E941A088C010E948208ED
:103880009E838D83842D0E941E08E0901D01F09080
:103890001E01BC01C8010E9487089701DC010E943B
:1038A0003C3CED81FE819F0140E050E00E94F83BEE
:1038B0003093470120934601AAC488E088B9FA8171
:1038C000F7B92B8524B925B9852D0E9417088C01DD
:1038D000832D0E941E087C0125B8852D0E941708A3
:1038E000895A9D4F8017910708F09AC43B8138B9D7
:1038F0004C8147B9832D0E941708813D934028F4DD
:1039000085E080931A0182E304C085E080931A0168
:1039100084E380931901B801C7010E94870890933E
:103920006F0180936E01C8010E9482089C01A0E192
:10393000B7E20E943C3C20911D0130911E0140E005
:1039400050E00E94F83B30936B0120936A01F8E04D
:10395000FF2EF8B88A8187B98F85988D892B84B915
:1039600085B9852D0E941E088C01832D0E941708A1
:10397000B8010E9487089C0190936D0180936C01AF
:10398000909119019F709430A1F540916A01509176
:103990006B0160916E0170916F01C901E9DD0097C3
:1039A00021F1E88DE5B9E4B9FB81F8B9EC812A8110
:1039B000E22BE7B9852D0E9417080E9482088C012E
:1039C000F7B89C01A0E1B7E20E943C3C2091340191
:1039D0003091350140E050E00E94F83BA901B80168
:1039E00080916C0190916D01C3DD9093690180938A
:1039F0006801809119018F70843009F4E0C1EB8176
:103A00003F81E32BE8B94C81342B37B915B85D8180
:103A100054B9852D0E941A087C01842D0E941E082D
:103A20009E838D830091140110911501BC01C70183
:103A30000E9487089801DC010E943C3CED81FE81D8
:103A40009F0140E050E00E94F83B309369012093D1
:103A50006801B5C188E088B9FA81F7B925B82B8526
:103A600024B9852D0E941A08998B888B0E948208A0
:103A700098878F83832D0E941E089A878987430128
:103A800034E6830E911C4F815885B3018416950648
:103A9000D8F4CA010E9487088C0120911D01309141
:103AA0001E0140E050E060E871EA83E09CE10E9482
:103AB000F83BD8010E94513CE985FA858F0120E04E
:103AC00030E0A901980123C08F8198850E94870862
:103AD0008C01FD81F4B9852D0E941A08998B888B81
:103AE0000E94820898878F83832D0E941E089A87E0
:103AF0008987BC01C8010E9487089C01A4E6B0E048
:103B00000E943C3CE985FA859F0140E050E00E941C
:103B1000F83B69017A0114B815B8FB81F8B92C811A
:103B200027B981E00E94E707A4B8842D0E941A08F3
:103B3000BC84388DB32A8F359D4008F446C1B4B893
:103B4000842D0E9417088C01832D0E941E089D8BD6
:103B50008C8B852D0E941E089F8B8E8B8C899D8956
:103B6000813D974008F4B7C084E080931A018DE04E
:103B7000809319016016710630F4980126193709EF
:103B80003E832D8302C01E830D838090140190908C
:103B90001501A12CB12C60E871EA83E09CE1A5013C
:103BA00094010E94F83BAD81BE810E94513CEC899A
:103BB000FD899F0140E050E00E94F83B8091730135
:103BC000882369F08091640190916501A09166015C
:103BD000B091670182179307A407B50708F52093F2
:103BE0006401309365014093660150936701980129
:103BF000A0E1B7E20E943C3CA50194010E94F83B81
:103C000030936B0120936A016C897D898E899F892D
:103C10000E948708909369018093680181E001C048
:103C200080E040916401509165016091660170915E
:103C300067014C155D056E057F0538F5C09264017E
:103C4000D0926501E0926601F092670169857A85FC
:103C5000888999890E9487089093690180936801F7
:103C60002F813885A0E1B7E20E943C3C20911D01E4
:103C700030911E0140E050E00E94F83B205F384D3B
:103C800030936B0120936A0103C0882309F4B1C308
:103C9000C0901401D0901501E12CF12C9301A0E10A
:103CA000B7E20E943C3CA70196010E94F83B30938A
:103CB0006D0120936C012D853E85A0E1B7E20E9445
:103CC0003C3CA70196010E94F83B30936F01209382
:103CD0006E0181E08EC3F1E66F16710408F075C0C5
:103CE000013D27E0120708F470C085E080931A01B7
:103CF00082E180931901C80186509F4F4E895F89E8
:103D00008417950720F483E18093190119C08091ED
:103D10001401909115019E838D83B8018E899F892E
:103D20000E9487082D813E81DC010E943C3C980165
:103D300040E050E00E94F83B309369012093680115
:103D40009A899770E92E832D806480937C00EBE044
:103D5000FE2EE1E0F0E0FE83ED830FEF13E0A89587
:103D600061E089817AD5B4B886B18E21E9F3FC850A
:103D7000F4B980917A00806480937A0080917A000F
:103D800086FDFCCF80917800909179009801281BE6
:103D9000390B4D815E81420F531F5E834D83FA9430
:103DA000F110DDCFCA01880F991F880F991F69E0B4
:103DB00070E00E94D13B70936F0160936E0180911F
:103DC00073018F5F8093730184CFB4B8588D55B958
:103DD000842D0E941A086C01832D0E941E0898876A
:103DE0008F830E9482089A8789878C149D04A8F487
:103DF000B301C6010E9487088C0120911401309103
:103E0000150140E050E060E871EA83E09CE10E9427
:103E1000F83BD8010E94513C1FC0A4B8F981F5B904
:103E2000842D0E941A086C01832D0E941E08988719
:103E30008F830E9482089A878987C6016C147D044B
:103E400010F48619970969857A850E9487089C0174
:103E5000A4E6B0E00E943C3CE985FA859F0140E081
:103E600050E00E94F83B49015A01FA81F7B988E015
:103E700088B92D8124B925B9852D0E941A088C0195
:103E8000832D0E941E089A878987842D0E941E0810
:103E90007C01003331E1130708F0BFC125B8852D3F
:103EA0000E941A08998B888B24B8852D0E941A08C5
:103EB0009D8B8C8B15B881E00E94E70725B8852D76
:103EC0000E941A084C895D894034564008F05DC054
:103ED0008133914108F459C0C8018A569F4F2889FF
:103EE00039892817390708F050C086E080931A01F5
:103EF000809151018F5F80935101B70189859A8527
:103F00000E9487089093470180934601B701C8013A
:103F10000E94870890934D0180934C0114B815B806
:103F20003A8938B981E00E94E70724B8852D0E94BC
:103F30001A08853F910508F06AC24D8144B9832D66
:103F40000E941A08813D934008F461C2852D0E94A9
:103F50001E088D3D924008F45AC224B8852D0E9457
:103F60001A088D3D924008F452C225B881E00E94A3
:103F7000E70715B8852D0E941A08853F910508F0BE
:103F800046C287E080931A0142C22A8127B939814B
:103F900034B935B981E00E94E7074B8544B945B98A
:103FA000852D0E941A088C010E948208998B888BAB
:103FB000832D0E941E089E838D830E9482089A870B
:103FC0008987842D0E941E087C0189859A858E3FF1
:103FD000994008F4B2C084E080931A018CE0809389
:103FE0001901B301888999890E9487088C01209161
:103FF0001D0130911E0140E050E060E871EA83E06D
:104000009CE10E94F83BD8010E94513CE985FA8569
:104010009F0140E050E00E94F83B809151018823CD
:1040200069F08091420190914301A0914401B091C7
:10403000450182179307A407B50728F5209342018D
:10404000309343014093440150934501B7018D8162
:104050009E810E948708909347018093460128899A
:104060003989A0E1B7E20E943C3C20911D013091CA
:104070001E0140E050E00E94F83B3093490120933C
:10408000480181E001C080E040914201509143012C
:104090006091440170914501481559056A057B05F9
:1040A00028F58092420190924301A0924401B0927F
:1040B0004501B6018F8198850E948708909347013A
:1040C000809346019601A0E1B7E20E943C3C20911A
:1040D00014013091150140E050E00E94F83B205F50
:1040E000384D309349012093480103C0882309F4D7
:1040F0008FC19301A0E1B7E20E943C3C20911401E2
:104100003091150140E050E00E94F83B30934B01A4
:1041100020934A012D853E85A0E1B7E20E943C3CF8
:1041200020911D0130911E0140E050E00E94F83BBB
:1041300030934D0120934C016AC1F1E66F16710472
:1041400008F06BC02889398929343D4008F465C0DE
:1041500085E080931A0182E080931901C70186509F
:104160009F4F8017910720F483E08093190117C0B7
:10417000C0901D01D0901E01B701C8010E948708A0
:104180009601DC010E943C3CE889F9899F0140E0EE
:1041900050E00E94F83B30934701209346010B8189
:1041A0000770832D806480937C001BE021E030E069
:1041B0003E832D83A89560E089814FD33B8534B938
:1041C00035B986B18023E9F724B880917A008064FC
:1041D00080937A0080917A0086FDFCCF80917800F0
:1041E000909179004D815E81480F591F5E834D8308
:1041F000115001F7CA01880F991F880F991F69E0B4
:1042000070E00E94D13B70934D0160934C0180910E
:1042100051018F5F80935101FAC088E087B988B956
:1042200014B815B888E087B957EC651651E07506E3
:1042300008F4D0C088B98F8584B998EC9D83EC814F
:10424000FA81EF2BEF832F8127B981E00E94E707E6
:104250003A8137B9852D0E941E08429728F04D817A
:1042600041504D834111EFCF5F8554B955B961E09D
:104270008981F3D2852D0E941A086C018B8984B93B
:1042800015B89C8197B9EB81E8B960E08981E5D2E6
:10429000842D0E941A080E9482089E838D83FC85CB
:1042A000F4B9842D0E941E088C01852D0E941A08E5
:1042B000B8010E9487087C01842D0E941E088C0191
:1042C000852D0E941A08B8010E94870897012C5E6C
:1042D0003F4F2817390708F480C088E088B92A8141
:1042E00027B924B825B861E08981B7D2842D0E940E
:1042F0001E088C01852D0E941A08B8010E948708AB
:104300008C01E816F90658F43F8534B935B9852D86
:104310000E941A089C01CD82DE82780110C04B8970
:1043200044B915B85C8157B98B8188B960E089813F
:1043300094D2842D0E941A080E9482089C0198EE53
:10434000E91693E0F90630F4C70164E670E00E94D4
:10435000D13B06C0B70154E0769567955A95E1F7D1
:10436000C7018759910989389141A0F52E153F055C
:1043700088F58D819E8143E0969587954A95E1F772
:10438000893C910510F088EC90E02D813E81820FF0
:10439000931F8E159F05F0F462177307D8F4809170
:1043A0001A01833018F483E080931A0120911801D8
:1043B000822F90E0FC01EB56FE4F50824682880F20
:1043C000991FFC01EF55FE4FF182E0822F5F209391
:1043D000180103C0642D852D29D088E087B988B9DC
:1043E00014B815B88EE20E94FB0C6896E2E10C94BA
:1043F000023D909173019F5F90937301882369F34D
:10440000309270014092710150927201E6CF81E0CA
:10441000909151019F5F909351018823F1F2309266
:104420004E0150924F0140925001D7CFA0E0B0E032
:10443000ECE1F2E20C94E83CA895462F50E0FA013A
:10444000E358FD4F949033969491A82FB0E0FD016E
:10445000E358FD4FE4903396F490709173012091EE
:10446000510130E0270F311D232B09F0F1C1A89530
:104470002091200130912101220F331F220F331F81
:1044800030933301209332012091780130917901EA
:10449000220F331F220F331F30933101209330013D
:1044A0002EEB20932E01C0911801E5E9F1E070E0B8
:1044B0004A0F5B1F7C1759F02191A58130E02A0F2C
:1044C000311D2417350709F456C07F5FF3CFD62F6F
:1044D000C82F88E088B9E92FE860E7B9E4B8E5B803
:1044E000B8E1BB2EC12CD12C8D2F0E941A08782E3A
:1044F000692E8C2F0E941E088C018C199D0997FF34
:1045000003C0919581959109039734F0A895BA94C9
:104510006801B110E9CF2FC0EE0C15B8E4B88C2FAC
:104520000E941A088135910530F5E5B88C2F0E945C
:104530001A086C018F2D886087B9F8B815B894B83F
:10454000A8E18A2EA12CB12C8C2F0E941A08582E7B
:10455000492E8D2F0E941E087C018A199B0997FF06
:1045600003C09195819591090397CCF0A8958A9401
:1045700057018110E9CF8091200190912101909302
:104580003301809332018091780190917901909369
:1045900031018093300189E180932E0159C1990C3A
:1045A00094B88D2F0E941A085C01003C84E418071F
:1045B00030F425E8C21621E0D206E8F605C080EB0B
:1045C000C8168DE4D806B8F624EAE21622E0F20610
:1045D00008F06CC088E9A816B10468F2C6010E9410
:1045E0008208AC019601A8E9B7EB0E943C3C9A0115
:1045F00040E050E00E94F83B29013A01C5010E94C9
:1046000082089C01A8E9B7EB0E943C3C850120E0B0
:1046100030E0A90198010E94F83B88E7C8168FE0B6
:10462000D80680F4D301C201F2E0880F991FAA1FB7
:10463000BB1FFA95D1F7BC01CD01620F731F841F18
:10464000951F14C088E7A8168FE0B806B0F4DA0109
:10465000C901E2E0880F991FAA1FBB1FEA95D1F795
:10466000BC01CD01640D751D861D971D25E030E050
:1046700040E050E00E94F83B0CC0D301C201820F21
:10468000931FA41FB51F9C01AD0156954795379503
:104690002795A4E6B0E00E94513C2B013C012CEA96
:1046A000420E2DE0521E611C711C79C0672D762DC3
:1046B0000617170708F4B801C52CD42CCE14DF0454
:1046C00008F467010617170708F48B01A0901D0175
:1046D000B0901E01C8010E9487089501DC010E946C
:1046E0003C3C2B013C01C8010E9482089C0140E037
:1046F00050E0C301B2010E94F83B29013A01CE14F7
:10470000DF0408F47601A0901401B0901501B70100
:10471000C6010E9487089501DC010E943C3C4701CC
:10472000A12CB12CA50194010E94F83B08378FE021
:10473000180780F4D301C20162E0880F991FAA1FF5
:10474000BB1F6A95D1F7BC01CD01620F731F841F97
:10475000951F14C088E7E8168FE0F806C0F4DA0168
:10476000C90132E0880F991FAA1FBB1F3A95D1F7E4
:10477000BC01CD01640D751D861D971D25E030E03F
:1047800040E050E00E94F83B29013A0108C0420E87
:10479000531E641E751E7694679457944794109127
:1047A0001A01143008F0E7CEC1500C2F0D0F202F46
:1047B00030E0E901C25ADE4F8881220F331F220FF9
:1047C000331FF901EE54FE4F8823D9F1C080D18008
:1047D000E280F380A30192012C193D094E095F0983
:1047E00057FF07C050954095309521953F4F4F4F4B
:1047F0005F4FAAE0B0E00E94513C24E6C20ED11CFB
:10480000E11CF11CA7019601240D351D461D571D05
:104810000E94F83B232B242B252B09F0ACCE133020
:1048200019F081E080931A0182E0888380917A01F7
:10483000E82FF0E0EF59FE4F00838F5F80937A01FD
:104840009ACE408251826282738281E0888393CEC5
:10485000CDB7DEB7E0E10C94043DCF93C82FC095EF
:1048600095B160FF02C0982B01C09C2395B994B10B
:10487000892B84B90E94E60784B18C2384B985B161
:10488000C823C5B9CF910895A0E0B0E0EAE4F4E20E
:104890000C94EE3C1AE008E08FE3C82E99E0D92E84
:1048A00007B908B915B8C4B880E00E941A087C019D
:1048B00081E00E941E08EC0182E00E941E089C011B
:1048C00080911A01893081F488E087B914B8F09298
:1048D0005701E0925601D0935901C093580130938B
:1048E0005B0120935A015BC084E0E816F10440F4B8
:1048F000C430D10560F42430310530F399E00BC0A9
:1049000088EEE81683E0F80610F098E001C099E020
:10491000C83ED34008F49260283E334008F49460C7
:1049200097B9C0E0D0E0A89580E00E9413085C0130
:1049300081E00E941E087C0182E00E941E0824E1A2
:10494000A21625E0B20608F4389A24E1E21625E022
:10495000F20608F4399A843125E0920708F43A9A6D
:1049600026E0A216B10430F426E0E216F10410F4B9
:10497000069738F02196C43F81E0D807A1F6D0927F
:104980001A01E12CF12CEC16FD0631F00E94D4073F
:104990002FEFE21AF20AF7CF115009F081CFCDB70D
:1049A000DEB7EAE00C940A3DCF92DF92EF92FF92DD
:1049B000CF9320917F0130918001409181015091EE
:1049C0008201C09191018AE0C82ED12CE12CF12CFA
:1049D0008C2FCF5F213A96E8390791E049075105BE
:1049E00038F0CA01B901A70196010E94F83BF0CF47
:1049F00080939101A0913201B09133010E94513C0A
:104A000028E833E140E050E00E94F83B20937F012A
:104A1000309380014093810150938201CF91FF90A8
:104A2000EF90DF90CF900895A0E0B0E0EAE1F5E2EA
:104A30000C94EC3C982F990F980F2FEF260F920FA4
:104A400090935301E82FF0E0E358FD4F1491262F87
:104A500030E0F901E358FD4FF490F901E058FD4FC3
:104A6000D49190911A01913009F4A2C220911801B9
:104A7000A5E9B1E0FD0190E0921791F03681631352
:104A80000BC03081831308C01C964D915C911D971B
:104A90004C3D554008F48CC29F5F31961296ECCF86
:104AA000062FC82FD86010928C0110928B0181EFD5
:104AB0008093910110927F011092800110928101E8
:104AC00010928201E1DE88E088B9D7B9F4B8F5B870
:104AD0008C2F0E941E085C01802F0E941E08A81ABD
:104AE000B90A14B8109255011092540180915401E2
:104AF00090915501843F914008F0AAC015B914B9AE
:104B00000E94CE0714B815B80E94D507A8958C2F1F
:104B10000E941E087C01EA18FB08809154019091C4
:104B200055018E37910528F08BE4E816F1040CF45A
:104B30008FC080915401909155012DE2E21621E041
:104B4000F20634F401969093550180935401CECF30
:104B5000892B09F0A4C185E1E81685E0F8060CF47C
:104B60009EC192DE15B88FE087B988E088B9F12E32
:104B7000FF0CF4B880E480937B0084E580BF8C2F29
:104B8000806480937C0087E180937A000E94D8073C
:104B900010925501109254011092800010928500DD
:104BA0001092840087E286BB81E280936F0081E0EF
:104BB00080937C01F5B890911A0180938100953023
:104BC00009F04CC081E090E00C2E01C0880F0A94DF
:104BD000EAF780958F7087B9F89483B7817F83BF98
:104BE00080917C01882389F083B7816083BF7894AA
:104BF000889583B78E7F83BFF894A89580915401E0
:104C00009091550180389C4059F77894109281001A
:104C1000E0908600F090870010926F0087E9809303
:104C20007A0014B815B88C2F0E941E082091360106
:104C300030913701821B930B0C96909394018093D3
:104C4000930180915401909155018034964040F039
:104C500088E087B988B914B815B8AAC1D7B9BCCF4C
:104C6000809154019091550190938A01809389011C
:104C7000F0928801E092870184EF80939101809106
:104C800054019091550182349105C8F060918701DB
:104C9000709188018091890190918A0124E630E029
:104CA00040E050E00E94F83B209387013093880158
:104CB0004093890150938A0186EF80939101A091DE
:104CC0007D01B0917E012091870130918801409152
:104CD000890150918A010E94513C20E436E040E075
:104CE00050E00E94F83B2093870130938801409365
:104CF000890150938A0120937F0130938001409372
:104D000081015093820150DE80919101843F09F02E
:104D100071C0C0907F01D0908001E0908101F0903F
:104D2000820180EAC8168FE0D806E104F104C0F4DD
:104D3000A70196012C543F4F4F4F5F4F60EA7FE031
:104D400080E090E00E94F83BC20ED31EE41EF51EE8
:104D5000C0927F01D0928001E0928101F0928201A5
:104D6000C0907F01D0908001E0908101F09082019D
:104D7000C114D10421E0E206F10428F4D092C30169
:104D8000C092C20106C081E090E09093C30180937D
:104D9000C2018091530190E0855B9C4F0E94793D58
:104DA00090E0A0E0B0E0B701A6018C159D05AE052E
:104DB000BF0568F4481B590B6A0B7B0B40937F01BE
:104DC00050938001609381017093820113C04C5E07
:104DD0005F4F6F4F7F4F481759076A077B0710F4E3
:104DE0000E94261410927F0110928001109281017E
:104DF0001092820114B980917F0190918001A0915D
:104E00008101B09182014997A105B10508F420CF35
:104E1000C12CD12C80911801882329F080911A018E
:104E2000853009F015CF88E080931A0180919101B7
:104E3000909192019817C4F089130ACF80907F0156
:104E400090908001A0908101B090820140918301F7
:104E50005091840160918501709186014815590532
:104E60006A057B0508F0F4CE40917F0150918001E6
:104E7000609181017091820140938301509384017C
:104E8000609385017093860180939201D0928E0188
:104E9000C0928D0100938F01C0939001D9CEC701BC
:104EA000C12CD12C20915401309155012C153D0578
:104EB00060F00E94CF078C2F0E941E088A199B0960
:104EC000A8952FEFC21AD20AEDCF5701A81AB90A36
:104ED0001A141B049CF439ECA316B1040CF0B8CEE0
:104EE00028EE33E0D5010E944B3C97010F2C000CBB
:104EF000440B550B0E94F83B690102C0C12CD12C18
:104F000080915401909155010196A0E0B0E080930A
:104F1000870190938801A0938901B0938A01C7010A
:104F20008A0D9B1D0E94E308209187013091880122
:104F30004091890150918A01DC010E94513C6093AB
:104F40008701709388018093890190938A0160930F
:104F50007F0170938001809381019093820187EF9C
:104F60008093910121DD80907F0190908001A0903D
:104F70008101B09082018EE293E00E94793DA8EE1B
:104F8000B3E0A81BB10987FDB395A50194010E9468
:104F90005B3C24E630E040E050E00E94F83B209388
:104FA0007F0130938001409381015093820132CF81
:104FB000CDB7DEB7ECE00C94083D1F920F920FB610
:104FC0000F9211248F939F93B59904C080917C0117
:104FD000811109C0B59B10C0809186009091870017
:104FE0008A3F910548F480915401909155010196B2
:104FF00090935501809354019F918F910F900FBE14
:105000000F901F9018951F920F920FB60F921124B8
:105010008F939F9310927C01B09B10C0809186006B
:10502000909187008A3F910548F4809154019091B6
:105030005501019690935501809354019F918F9152
:105040000F900FBE0F901F901895A0E0B0E0EBE21C
:10505000F8E20C94EC3C88E893E190932101809372
:10506000200190933301809332018EEB80932E01C7
:10507000C8E0C8B988E187B90E94DD07C7B984E0F4
:105080000E941A08AC018B5C9840833F9140A0F4C9
:1050900081E080933D012091320130913301AFEBEB
:1050A000B9E00E943C3C9A0140E050E00E94F83B8D
:1050B00030932101209320018091200190912101C2
:1050C00090933301809332018EE00E941E088EE09F
:1050D0000E941A0890933701809336010E9490082D
:1050E000D3DB88E0F82EF8B8C9E0C7B985E185B907
:1050F000D1E0D4B980E00E941A088C019AE0D92E40
:10510000D7B824E0B22EB4B881E00E941A08080F84
:10511000191F3CE0E32EE7B840E1C42EC4B882E09A
:105120000E941A08080F191F15B8C8B9C7B9D4B911
:1051300080E00E941A080E948208EC01D8B8D7B813
:10514000B4B881E00E941A080E948208C80FD91FD3
:10515000E8B8E7B8C4B882E00E941A080E94820842
:10516000C80FD91FF7B8F8B814B8209132013091A0
:1051700033016901CC0CDD1CC20ED31EC01AD10A4A
:10518000CC1ADD0AE12CF12C9801A0E9BAE10E94C9
:105190003C3CA70196010E94F83B49015A0130931B
:1051A0003C0120933B019E01A0E9BAE10E943C3CF6
:1051B000A70196010E94F83B3093350120933401FA
:1051C0002057354E30931E0120931D0180E7881A29
:1051D00085EE980A909215018092140189E18093DE
:1051E0002E01CDB7DEB7ECE00C94083DCF92DF92F4
:1051F000EF92FF920F93CF93DF93F82EC62FD42F09
:105200000E946E0D8DE191E00E947C0DFBD16C2F10
:105210008F2D0E94ED39C090C601D090C701E0905B
:10522000C801F090C9018091220187FD05C0C11419
:10523000D104E104F10421F089E191E00E947C0DA8
:105240008C2F0E946E0DC114D104E104F10431F0E1
:105250000E94C206809161010E942607DD2351F061
:1052600080913E018D3030F490E0815B9C4F0E9434
:105270007C0D02C00E94CC0B80E00E94ED0BCD287B
:10528000CE28CF28D9F06091C6017091C7018091D6
:10529000C8019091C90103E028E447EF0E94C10DC5
:1052A0008CE291E00E947C0D80E693E00E94813DBB
:1052B00023E046E464EF0E94AA0E1AC080916101C7
:1052C0000E942607809122018E3F94F484E491E0AD
:1052D0000E947C0D6091AD017091AE018091AF0193
:1052E0009091B00103E028E4409122010E94C10D99
:1052F0008091BE019091BF01A091C001B091C10108
:10530000892B8A2B8B2BF1F080E00E94ED0B6091B2
:10531000BE017091BF018091C0019091C10104E074
:1053200028E440E00E94C10D87E291E00E947C0DDC
:1053300023E040E26FEF8091C4019091C5010E948B
:10534000AA0E07C080E00E94D20B8091410181111A
:1053500002C00E94CC0BDF91CF910F91FF90EF9094
:10536000DF90CF900895EF92FF920F931F93CF930A
:10537000DF93182F0E94230B80918F010E946E0DE6
:1053800080E691E00E947C0D77D360918F0180913F
:1053900090010E944609EC0190938C0180938B014F
:1053A000E0908D01F0908E01CA3F8FEFD80720F476
:1053B0008EE191E00E947C0D809190010E946E0D23
:1053C000112359F090913E018DE0891B0E94EA0A59
:1053D00089E690E00E947C0D02C00E94CC0B0E94E6
:1053E000B40B60918301709184018091850190914B
:1053F000860104E026E4409192010E94C10DCA3F5B
:10540000DF4F68F48FE491E00E947C0D22E04DE1D3
:105410006EEF80918B0190918C010E94AA0E0E94E8
:10542000CC0B0E94BC0BE114F10469F088E491E01C
:105430000E947C0D22E045E26FEF80918D019091FA
:105440008E010E94AA0E0E94CC0BCDB7DEB7E6E01B
:105450000C940E3D8F7021F40E94C40B0C946B1AB7
:1054600008958F3021F490913801913011F08F5FC1
:10547000089580E00895CF9384E790E00E94CE32B3
:105480006AE080E00E94F30A89E593E00E947C0DC7
:10549000C0E00E94F90F60E082E00E94162262E004
:1054A00080E00E9416220E94230B80917A018823BB
:1054B00029F041E062E080E099DE12C084E790E0EC
:1054C0000E947C0D89E593E00E947C0D0E94B40B44
:1054D0008FE30E94FB0C80E00E94D20B0E94CC0B59
:1054E0008C2FB8DF88EE93E00E94440F811109C031
:1054F00080911301843028F48C2FB3DFC82F8A3FAA
:1055000040F20E942A0BCF9108950F931F93CF93DF
:10551000DF93C0E0D8E012EF0DE00E94F90F60E0E9
:1055200082E082DAD0931A0180919101843FE1F404
:1055300080917F0190918001A0918101B0918201C1
:1055400084369105A105B10578F440E060E082E081
:105550000E94A53760937F01709380018093810141
:10556000909382011093910180919101823FACF060
:105570008093920180917F0190918001A09181019F
:10558000B09182018093830190938401A09385015F
:10559000B093860181E0E7DE1CC00E94230B8DE6FC
:1055A00090E00E947C0D80913E01902F981B892FE6
:1055B0000E94EA0A89E690E00E947C0D0E94B40BEA
:1055C0008FE30E94FB0C0E94CC0B0E94BC0B0E943C
:1055D000CC0B8C2F3FDF88EE93E00E94440F8111AB
:1055E0000AC080911301843030F48C2F3ADFC82F29
:1055F0008A3F08F492CF0E942A0BDF91CF911F912E
:105600000F910895A4E1B0E0E8E0FBE20C94E63CE1
:1056100082E08093220180911A01813009F028C232
:1056200080917A01813009F023C20091610124E068
:10563000029FF0011124EE54FE4F80819181A281DE
:10564000B381893032E59307A105B10508F010C296
:105650004C0110E0802F123028F40E941C07582EB5
:10566000492E03C00E941C072C01E42DF0E0E058F5
:10567000FD4F2490852D90E0FC01E358FD4FE4910F
:1056800015B828E028B930EF83169104B8F410FD5E
:1056900015C0A0901401B090150120E9A21A2AE1CA
:1056A000B20A21E030E0052C02C0220F331F0A9419
:1056B000E2F7C9018860822987B908C0E4B9822D60
:1056C000886087B9A0901401B0901501F4E13F2ED5
:1056D000852D0E9417083C01842D0E941E0834E08D
:1056E0006316710410F4049718F03A943110F0CF57
:1056F00080E480937B0094E590BF852D8064809347
:105700007C0027E120937A00E12CF12C109280009C
:10571000109285001092840087E286BB0E94D80711
:10572000312F3170332E10FD05C081E88093810048
:1057300028B808C028B80E94E10780E286BB81E84B
:105740008093810086B385FF13C098E098B91092CA
:10575000810020E226BB20918600309187006901FC
:1057600040918400509185002417350770F014C0D3
:1057700080FFE8CF31E036BBA89597012F5F3F4F00
:105780007901203A3105F1F6E0CF80FF05C081E0D4
:1057900086BB9FEFE91AF90A87E980937A00E4E172
:1057A0002E2E852D0E9417083C01842D0E941E0874
:1057B00024E06216710410F4049718F02A94211062
:1057C000F0CF40903B0150903C01480C591C4A0CD2
:1057D0005B1C209116013091170180E9A8168AE11F
:1057E000B806B0F491EEC916D104E104F10438F41E
:1057F000C60165E070E00E94D13B645101C069E1DF
:1058000028523109261B310967FD339586E009C00E
:10581000C20168E57BE10E94D13B87E0860F285DED
:105820003F4F90E0A0E0B0E08C159D05AE05BF05B0
:1058300028F4C81AD90AEA0AFB0A03C0C12CD12CE1
:105840007601332029F08AE3C80ED11CE11CF11C3B
:1058500090EAE916F10418F0C12CD12C76018BE006
:10586000C816D104E104F10428F091E0C91AD10866
:10587000E108F1084091320150913301612C712C03
:10588000A8EEB3E00E943C3C698B7A8B8B8B9C8B9F
:105890009501DA010E943C3CA30192010E94F83B71
:1058A0004427552769897A898B899C890E94F83B0E
:1058B000C9010E942209FC01A3019201C701B6019E
:1058C0000E94B63B2B013C01CF01A0E0B0E074E0A8
:1058D000880F991FAA1FBB1F7A95D1F7BC01CD0174
:1058E0006B5F7F4F8F4F9F4F2AE030E040E050E0EA
:1058F0000E94F83B44275527C301B2010E94F83BA0
:10590000E12FF0E0A1E0B0E0AC0FBD1F84E0189FF4
:10591000A00DB11D11242D933D934D935C931397CE
:10592000311016C094E1C916D104E104F10480F0ED
:105930003196EE0FFF1FEE0FFF1F81E090E08C0FFE
:105940009D1FE80FF91F20833183428353831F5F1C
:10595000A8951F5F143008F47DCE88E088B984E0F4
:105960000E94E70791E00D811E812F8138854981D2
:105970005A816B817C81401751076207730708F0D9
:1059800090E00D851E852F85388949855A856B8560
:105990007C85401751076207730710F483E001C04C
:1059A00082E0E92FF0E0EE0FFF1FEE0FFF1F21E076
:1059B00030E02C0F3D1FE20FF31FD90134E0839F2D
:1059C000A00DB11D11240D911D912D913C9140818F
:1059D000518162817381041715072607370708F084
:1059E000892FE1E0F0E0EC0FFD1F94E0899FE00DCE
:1059F000F11D112440815181628173814093AD0179
:105A00005093AE016093AF017093B00180FD08C068
:105A100020EF8216910420F48BEF8093220117C0AF
:105A20008CEF80932201CB01BA016B5F7F4F8F4FC8
:105A30009F4F2AE030E040E050E00E94F83B209386
:105A4000AD013093AE014093AF015093B00180910E
:105A5000AD019091AE01A091AF01B091B001892B41
:105A60008A2B8B2B11F41092220188E087B914B88D
:105A70006496E2E10C94023DA0E0B0E0E2E4FDE2D5
:105A80000C94EC3C80918D0190918E01892B09F052
:105A90009EC0E0918F01F0E0E058FD4FD491D860B6
:105AA000E0919001F0E0E358FD4FC4910E9444243E
:105AB00088E088B915B8D7B9C4B9809190010E941F
:105AC0001E088C01D09192018CE08D0F843008F07B
:105AD0007EC08091830190918401A0918501B09155
