:1000000041C7000051C700004FC700004DC70000A6
:100010004BC700000C94B03247C700000C94A20FED
:1000200043C7000041C700000C945A270C94943237
:100030000C94A2320C94342737C7000035C7000057
:100040000C946E3231C700002FC700002DC700008E
:100050002BC700000C94A30F27C7000025C7000082
:1000600023C7000021C70000E62FF72F903009F4C6
:100070009395E5B8C4B8B6EFB0937A00A5E0A09325
:100080007B00A8E0A093810010928000AFEFA093C6
:100090008500A0938400A6E0A093360010928B0008
:1000A00010928A00B3E0AFE3A91B51E0392F33303F
:1000B0002AF0A05CBC4F53953350F9CFB093890020
:1000C000A0938800A0917A00A4FFFCCFB6EBB09378
:1000D0007A00A2E0A0936F00A9E0A093810062E003
:1000E000A0E0A0937B00A1E0A09353008895E5B821
:1000F000C4B884FF1AC0A8E10000AA95F1F7EF93F5
:10010000FF93E7B1F8B1A4E0C2FCA2E0C0FCA1E01B
:10011000BF2FBA2BAE2BB8B904B9A7B9E7B9F8B954
:10012000FF91EF910BC00C947300ACE10000000054
:10013000AA95F1F725B9E5B8000004B9A0918400AB
:10014000A0918500B0918900A395AB1760F7A091AD
:100150007A00A4FFF3CFB6EBB0937A006A9571F7FB
:100160006091780070917900308186FD630F619312
:10017000308186FD731F80FF7193652F4A9579F753
:1001800010926F0010928100B6E0B0937A0008954B
:10019000D401CD01C601FEFDFBF7EFDFBF7F0102F9
:1001A00004081020408018000720080808F8000004
:1001B000002060A03FA06020020202FF02020210A5
:1001C00010101F000000050842818989760508C2C9
:1001D000A19189860508000402FF0010100508F8A7
:1001E00078385888091003081C3E7F0D080710FF57
:1001F000818181F1E1C1FF4040404743410D080149
:1002000010FFFF11080310F1E1C14743410E000840
:10021000202121122060E0E0E0FEFE040201000146
:10022000037F7F21C2C4C4C040948400070301023D
:10023000040E080210FEFE7F7F0000000011000582
:10024000202060E0E0E00201000103C2C4C4C0401D
:1002500007030102040104100102044E6F742063BD
:10026000616C696272617465642120466F72FF631C
:10027000616C6962726174696F6E20636C616D702C
:10028000207468652033FF70696E7320746F676532
:100290007468657220616E64207374617274207773
:1002A00069746820746865FF6B65792E2041636B03
:1002B0006E6F776C65646765207468652073656C24
:1002C000662D74657374207769746820746865207E
:1002D0006B65792077697468696EFF32732E2044EC
:1002E0006973636F6E6E6563742070696E732061ED
:1002F0006674657220746865FF6D65737361676508
:10030000202269736F6C617465FF50726F626521A2
:10031000222069732073686F776E2E20536F667486
:100320007761726520616E6420646F63756D656EC0
:10033000746174696F6E2069732061742073766EC6
:100340003A2F2F206D696B726F636F6E74726F6CD2
:100350006C65722E206E65742F7472616E73697392
:10036000746F72207465737465722000B90387031B
:1003700058032E030703E402C302A402880200000C
:10038000140029003E005300690080009700AE0071
:10039000C600DF00F80012012D014901650182014C
:1003A000A001BE01DE01FF012102440268028E02AB
:1003B000B502DE020903350364039403C803FE0398
:1003C00037047304B404F90443059305EA054906A8
:1003D000B3062907AE074808FF08DE09FD0A930C9B
:1003E000480F991B00000000000000000000000002
:1003F000000000001E2121211200807F0000007EED
:100400004A4A4A34000000000000FC402010080462
:1004100002010000000101010101010101010101CE
:1004200001017F0488D0E0F0F80000000000000027
:100430000000000000000000000000FC9494840014
:10044000000102FC000000000000000000000000AD
:100450001E21212112E0C0804020100F000000C0AA
:1004600020202040000000FC00009E9E04030303A7
:100470000302000000202023242525232020203FE4
:1004800000007B7B2142840480C00000000000004B
:100490000000000000000000FC94948400040607A3
:1004A000070708F000000000000000000000000046
:1004B00000803F2121120C00000000FF000000F02E
:1004C000084848C80000FE0000E7818181C1E1F1D1
:1004D00081818101002020202121212020203F0036
:1004E00000F340404041434740407FC000000000CF
:1004F0000000000000000000000048949494640094
:10050000000000FF000000000000000000000000EC
:10051000000000003F2121120C0000FF000000F04D
:10052000084848D0000000000000FEFE0404040457
:10053000040404070008080809090908087F3E1C8C
:1005400008087F7F20202020202020E000000000DD
:100550000000000000000000000000004894949497
:10056000640000FF0000000000000000000000FF29
:10057000003C0A090A3C0022312929260000828613
:100580008E9EBEFEFEBEDEEFF6FAFEFEFAF2E2C27E
:100590008200000008080804027984A4A46800FF0F
:1005A000000000000000000000000000000000004B
:1005B00000000000000000FF0000F0282428F000E8
:1005C0001008FC0000000000000000000000003CDB
:1005D0000A090A3C00FF00000000000000000000C3
:1005E0000000000000000000040C1C3C7CFF7C3C70
:1005F0001C0C040000000000009EA1A9A99A8043E1
:1006000023130B0703FF030303030303000000008E
:1006100000000000000000788484844800FF00008F
:1006200000000000000000F00804E21109090909B7
:1006300009090909091121C2040810E0000000019C
:1006400002040407000000000080402010884423BA
:10065000100804030000000000000000000000FE7D
:100660000100FC020100000000000000000000008A
:1006700000000000000000794949790000000000F6
:100680000000000040F010101010F04000010101C7
:100690000101010040FCF8F0E040FC4000070301CC
:1006A0000000070040FC40E0F0F8FC4000070000BC
:1006B000010307000000000000000000000000002F
:1006C0000000000040FCFC0000FCFC4000070700AC
:1006D000000707000000000000000000000000000C
:1006E0000000000040F8080808080808000302029B
:1006F00002020202080808080808F8400202020282
:1007000002020300404040404040404000000000E2
:1007100000000000C0000080000080000102020113
:100720000202010200800000800000C002010202FB
:1007300001020201000000000000000000000000B3
:100740000000000000F8040222548800101F10026C
:100750000201000078848202828478000604070087
:100760000704060000FC000000F01000100F020457
:10077000020704000000000000000000000000006C
:100780000000000008F8080088F8080000000101D7
:100790000407040008F808C008F808000407040764
:1007A000040704003808F8482020C00000040704AB
:1007B0000402010008F84820C000F80004070404FF
:1007C0000300070008F848202040800004070404C4
:1007D00004020100381008E84850E0000102040457
:1007E0000402010008F840F00808F00004070003C4
:1007F000040403006090080808F8080000040503DA
:10080000050704000000F80402FE02000C060504BF
:1008100004070C0002FE020002FE020004070404AA
:1008200004170C0002FE02F002FE02000407040797
:1008300004170C000000E01008F808000C0605047E
:1008400004070C00804028F8284080000102141F93
:100850001402010008F8080008F80800040704045E
:1008600004170C0008F808C008F80800040704077B
:1008700004170C000C3CFCFCFC3C0C0000000000CD
:100880000000000000000000000000000000000068
:1008900000000000000000FE000000000000000D4D
:1008A0000000000000160E0000160E000000000000
:1008B000000000000010FC1010FC100000010701F7
:1008C00001070100001824FE448800000003040F03
:1008D000040300000C12924C2010080002010006D4
:1008E000090906008C5222528C40C0000102040407
:1008F00004010200000000160E00000000000000CD
:10090000000000000000F0080402000000000102E6
:10091000040800000000020408F0000000000804C1
:10092000020100004850E0FCE050480002010007CE
:1009300000010200404040F8404040000000000339
:100940000000000000000000000000000000001691
:100950000E000000404040404040400000000000C9
:100960000000000000000000000000000000000681
:100970000600000000008040201008000201000076
:1009800000000000F80402020204F800010204045E
:1009900004020100000804FE020000000004040735
:1009A000040400000804028242241800040605041E
:1009B0000404060006020202122AC6000102040410
:1009C00004020100C0A09E8080FC800000000000A6
:1009D000040704003E120A0A0A12E6000102040497
:1009E00004020100F84422121224C000010204048F
:1009F000040201000E02C262321A0E00000007005B
:100A000000000000885422222254880001020404BD
:100A100004020100384482824224F80000020404E7
:100A20000402010000000018180000000000000689
:100A3000060000000000001818000000000000166A
:100A40000E0000000040A010080402000000000199
:100A500002040800002020202020200000010101C5
:100A6000010101000002040810A040000008040277
:100A70000100000018040282422418000000000D4A
:100A800000000000F804D252E204F800010205055B
:100A90000405040200F0080402FE02000407050138
:100AA0000507040002FE22222254880004070404E1
:100AB00004020100F804020202048E000102040490
:100AC0000402010002FE02020204F800040704040A
:100AD0000402010002FE222272020E000407040436
:100AE0000404070002FE222272020E00040704041E
:100AF00000000000F80402C24244DE0001020404C7
:100B00000201070002FE222022FE02000407040068
:100B100004070400000202FE0202000000040407B1
:100B2000040400000000000202FE020000030404AE
:100B30000403000002FE629008040200040704009F
:100B40000106040002FE0200000000000407040485
:100B50000404070002FE38E038FE02000407040027
:100B60000407040002FE1A6082FE0200040704006B
:100B700005070400F80402020204F800010204045C
:100B80000402010002FE424242241800040704004D
:100B900000000000F80402028204F80001020404CC
:100BA0000405020402FE42C24224180004070400A5
:100BB000010604008814222222448E00010204044B
:100BC000040201000E0202FE02020E0000040407ED
:100BD0000404000002FE020002FE020000030404FE
:100BE0000403000002FE820082FE020000000306F1
:100BF0000300000002FE02F002FE020000010703F3
:100C00000701000002DE722072DE02000407040009
:100C100004070400027EC280C27E020000000407B6
:100C2000040000000E824222120A06000704040497
:100C30000404070000FE0202020000000007040492
:100C400004000000081020408000000000000000A8
:100C5000000102000000020202FE00000000040485
:100C6000040700001008040204081000000000003F
:100C70000000000000000000000000000808080854
:100C8000080808000000000E160000000000000028
:100C900000000000904828284890E0000102040469
:100CA0000402070002FE10080810E0000407020416
:100CB00004020100E01008080810380001020404D2
:100CC00004020100E010080810FE02000102040402
:100CD00002070400E0504848485060000102040444
:100CE0000402010020F82422020C0000040704047E
:100CF00000000000E010080810F8080000091212B7
:100D00000907000002FE100808F0000004070400B4
:100D100004070400001016F6000000000004040799
:100D2000040400000000101616F00000000C101063
:100D3000100F000002FEC020100818000407040174
:100D40000204040000000202FE000000000004048F
:100D50000704040008F808F008F000000407000782
:100D60000007040008F8201008F000000407040041
:100D700004070400E01008080810E0000102040461
:100D80000402010008F810080810E000101F120407
:100D900004020100E010080810F808000102040431
:100DA000121F100008F82010080830000407040083
:100DB0000000000010284848489038000102040450
:100DC000040201000808FE080800000000000304F7
:100DD0000404020008F8080008F8080000030404EE
:100DE0000207040008F8880088F8080000000306DD
:100DF0000300000008F808C008F808000003060314
:100E00000603000008B8E040E0B80800040700004E
:100E10000007040008F8080008F80800000912128A
:100E2000110F000018088848281808000605040457
:100E30000404060040B01C02020000000001070884
:100E400008000000000000FE000000000000001F7D
:100E500000000000000002021CB040000000080872
:100E6000070100000C020204080804020000000050
:100E700000000000C02010081020C0000101010186
:100E80000101010011241FBECFEFD8E0DEBFCDBFAE
:100E900025E0A0E0B1E001C01D92AE3BB207E1F752
:100EA0000E943D140C94933BABC85A9A529A5D9899
:100EB000559A35D02FD05A9832D080FD5A9A80FF5B
:100EC0005A982DD05A982BD067FD5A9A28D05A9804
:100ED00066FD5A9A24D05A9865FD5A9A20D05A989D
:100EE00064FD5A9A1CD05A9815D05A9863FD5A9AA4
:100EF00016D05A9862FD5A9A12D05A9861FD5A9AA1
:100F00000ED05A9860FD5A9A0AD05A9803D001D14F
:100F100002C1089504D003D002D001C008955D9AA3
:100F20005D9A5D98089597FF09C08F939F938DE216
:100F30008FD59F918F91909581959F4F6BE171E037
:100F40004AE050E00E94323BA8C50895ECDF01C0A2
:100F5000EADF80E27DC58DE27BC58DE379C5EF9246
:100F6000FF920F931F93182F062FF42E82E691E025
:100F70009FD5EE24E0913605F09137058685E81679
:100F800011F4812F09C08485E81611F4802F04C064
:100F90008585E81611F48F2D5BD5E3948E2D833073
:100FA00049F71F910F91FF90EF900895EF92FF92F4
:100FB0000F931F93182F062FF42E80E038D488E665
:100FC00091E076D5EE248E2D65D5C7DFE09136050C
:100FD000F09137058685E81611F4812F09C08485C4
:100FE000E81611F4802F04C08585E81611F48F2DC2
:100FF0002FD5AFDFE3948E2D833029F71F910F910A
:10100000FF90EF900895682F80E092E0662309F446
:1010100091E0623009F481E00895863058F4E5E902
:10102000F5E0E80FF11DE80FF11D8081918163E08B
:10103000E4D68FCF08951F93182F80916F058823D2
:1010400019F087DF80E004D595D389E591E030D5AC
:10105000812F82958F70E1DF812F8F70DEDF1F91EE
:1010600008958091060182958F7019D080910601B4
:1010700083701CD080910601DECF0895E9E8F5E089
:10108000E80FF11D0895CF93F9DF9081C681C9174C
:1010900010F405D001C013D05CDFCF910895EEDFCE
:1010A0008F938081F7D48F9101C008958F9387E249
:1010B00091E0FED48F91E2DF8681ECC40895DEDFFB
:1010C0008F938681E7D48F9101C008958F9383E237
:1010D00091E0EED48F91D2DF8081DCC4089503D0FB
:1010E00002D001D000D000D003D002D001D000D077
:1010F00000D003D002D001D000D000D0A89503D0FA
:1011000002D001D000D000D003D002D001D000D056
:1011100000D003D002D001D000D000D003D002D044
:1011200001D000D00000089590E0893C28F0885C50
:1011300048EC849FC0011124009709F40895209180
:101140008100277019F0DADF0197F6CF8130910521
:1011500019F002973EE303C037E180E090E0209170
:10116000B200230F2093B30042E04093700027E0C9
:1011700023BF889526E023BF10927000A895DCCF8E
:101180008F9384E0D1DF07C08F9382E0CDDF03C06F
:101190008F9381E0C9DF8F911F93182F10641093F4
:1011A0007C00E12FE07880912601E81759F0E09368
:1011B0002601AEDF8EE980937A0083E083BF8895B5
:1011C00082E083BF20E030E0A901E0E01FC08EE9AB
:1011D00080937A0083E083BF889582E083BF60912B
:1011E000780070917900260F371F411D511DE430A2
:1011F00061F480912801803041F084E0203038078C
:1012000020F417FD02C01068CACFEF5F809125015E
:10121000E817E8F26091290170912A0117FF04C0D4
:10122000609127017091280180E090E00E94A83928
:101230002FEF33E040E050E00E94EA39B901CA01E3
:101240002091250130E040E050E00E94EA39C901D8
:101250001F9108959B01281B390B50F0C901089577
:10126000BC018091290190912A016817790718F42F
:10127000861B970B089580E090E0089589E393E042
:101280000E94653B382F8AE393E00E94653B2091E2
:101290002D01230F30912E01381F20930F01309321
:1012A000100183E0283E380720F0C901885E934092
:1012B00002C080E090E062E370E00E94C3396830D1
:1012C00008F067E0ECE6F3E0E60FF11DE60FF11D34
:1012D000459155912591359162E3681B421B530B53
:1012E000649FC001659F900D1124499662E370E0F0
:1012F0000E94C339620F731F70937205609371056A
:101300008BE393E00E94653B992787FD9095609160
:101310002D0170912E01860F971F909328018093C5
:10132000270190936E0580936D0508950F9221E03B
:101330008C32920710F48CE291E08C52914069E17A
:1013400070E00E94C33999E16B3210F0982F6BE284
:10135000981BE7EBF2E0E60FF11DE60FF11D9F93FE
:10136000CF010E94653B482F3196CF010E94653B1B
:10137000582F3196CF010E94653B282F3196CF011F
:101380000E94653B382F6F91421B530B649FC00135
:10139000659F900D11240C9669E170E00E94C3399D
:1013A000620F731FCB010F900895CF93DF9324E159
:1013B00030E0B9010E94C339DC01EEE7F3E0E60F4B
:1013C000F71FE60FF71FC591D591459155914C1B1D
:1013D0005D0B4A9FC0014B9F900D5A9F900D1124A9
:1013E000B9010E94C3396C0F7D1FCB01DF91CF91F2
:1013F0000895AEE1B0E0EFEFF9E00C94D23A662E3A
:10140000B82E860F898320911301283059F5209139
:101410007705309178054091790550917A0557FD0F
:1014200015C01091860509C0CA01B9012AE0312D05
:10143000412D512D0E94EA391F5F173FACF391F403
:10144000243160E036074105510518F48FEF9FEF16
:1014500042C1173F39F480E028178DE7380741056E
:10146000410510F020E03DE72C8B3D8B26EDA22EB0
:10147000E8E5F2E0E60DF11D859180608E87E8E5F4
:10148000F2E0EB0DF11D859180608F87E5E5F2E0DC
:10149000E60DF11D7590E5E5F2E0EB0DF11DC5904F
:1014A00090EC692AB92A81E0E82EF12C012D112D4A
:1014B0008E831F82188619861A861B861C861D86B7
:1014C000188E198E1B8E1A8E0E948E2380E088B98A
:1014D00060927C001DDE3F8537B975B874B852E064
:1014E0005A95F1F70000000014B815B8DD243E85C8
:1014F00037B975B874B860927C00A895A0927A004C
:1015000080917A0086FDFCCF2090780030907900A1
:10151000B0927C004C2DE3D020917800309179007E
:10152000288B398B3F8537B9C5B8C4B8A895B09218
:101530007C00A0927A0080917A0086FDFCCF6091B9
:1015400078007091790060927C00472DC8D040915E
:1015500078005091790014B8CB01820D931DE80EEC
:10156000F91E011D111DEA82FB820C831D838889EF
:101570009989840F951F2E813F8168857985280F71
:10158000391F611D711D2E833F836887798722E390
:101590002417150648F075B874B8C4DD14B815B82A
:1015A000888D8395888F07C0483E73E0570718F0F1
:1015B0008A8D83958A8F888999892817190658F00A
:1015C0003E8537B9C5B8C4B8ADDD14B815B8898D36
:1015D0008395898F07C0883E73E0970718F08B8D3D
:1015E00083958B8FD3945D2D5F3F49F05F3731F446
:1015F0005C2D550FC50E572D550F750E78CF4090A9
:10160000320550903305440C551C9201E4E0240D42
:10161000351DEA95E1F72901570168016E807F8049
:1016200088849984209113012830C1F46C897D89C4
:10163000812D912D65507040804090409B01AC0100
:101640000E94A8399B01AC0160E779E786E190E050
:101650000E94EA39621A730A840A950AA614B7042A
:10166000C804D90428F46A187B088C089D0803C0B4
:10167000662477244301B20180E090E09301A40145
:101680000E94A8399501A6010E94EA3981E193E000
:101690007981870F911D0E94653B682EC90160E129
:1016A00070E00E94C339260F371FC901681619065A
:1016B00018F4861991090FC08C5E9F4F861591050D
:1016C00040F48C899D89843981E1980710F00E944B
:1016D000E413812D912D6E96E2E10C94EE3A109276
:1016E00081001092800010926F0010928B00109277
:1016F0008A0057E056BB5FEF5093850050938400FB
:1017000055E050937B0056EB50937A0051E0509394
:10171000810058E25A95F1F7000045B944B955E007
:101720005A95F1F7000014B815B810928100809115
:101730007A0084FFFCCF80937A000895CF93C82F5E
:101740001C161CF406DCC150FBCFCF9108956093AA
:1017500035058093030186958093A505660F660F76
:10176000660F6093040108951092A50560E080E083
:10177000EECF089581E08093A50560E082E0E7CF99
:10178000089582E08093A50560E084E0E0CF0895AD
:1017900083E08093A50560E086E0D9CF089580912D
:1017A0003505809301018091A5058093020108957C
:1017B0008091020160910101880FC9CF0895682FBF
:1017C00080E073CB089540E351E020E480E090E0B6
:1017D000FA01E80FF91F1082019680319105C1F7D7
:1017E0002150405F5F4F2111F1CFBECF08959091FE
:1017F000350580E1891BA2CF0895CF93C82FF7DF6D
:101800008091A5058F5F8093A505843038F083E033
:101810008093A50581E08093380502C010923805B9
:101820008091A5056C2F880F92DFCF910895E5DF99
:1018300066C3089599DFDBDF97CF08959BDFD7DF7D
:1018400099CF0895A9E0B0E0E8E2FCE00C94D23A28
:101850001C01F62E862E912C802F90E0B401680F8B
:10186000791F613871050CF0AAC06E2D70E0FB0184
:10187000E40FF11DE134F1050CF0A1C01FE3141BCE
:10188000C12CD12C322F32703B83AB014150510916
:101890005D834C83E8E06E2E712C21700197AC01C2
:1018A000480D591D5F834E83FFE04F2E512CEC2DC8
:1018B000CE1408F084C03B81332399F08C819D8144
:1018C0008C199D09AC0197FF02C0495F5F4F73E01F
:1018D000559547957A95E1F7B3010E94D739FC01F8
:1018E00006C04E2F469546954695E770F0E0E256C5
:1018F000FE4F3491409FB00111247A836983198689
:10190000188670E1179FC0011124AC01405D5E4F45
:101910005A01E885E01708F04DC02223A1F08E811E
:101920009F8148855985841B950BAC0197FF02C0A8
:10193000495F5F4F63E0559547956A95E1F7B301BD
:101940000E94D7390CC048855985480D591D83E040
:10195000559547958A95E1F7EF0D8E2F8770E981B0
:10196000FA8168857985E60FF71FE20DF31D9491E2
:101970009323E82FF0E050E059F4EA56FE4FE4914B
:10198000D201A41BB50BAA0DBB1D8C91E8230AC084
:10199000E256FE4FE491D201A41BB50BAA0DBB1D6C
:1019A0008C91E82BEC93488559854F5F5F4F5987A1
:1019B0004887AFCF5FEFC51AD50A115078CF299667
:1019C000E2E10C94EE3AEF920F93482F282F2F73F9
:1019D00080E6289F90011124C9018C519C4F46FF3D
:1019E00002C028E001C028E42093050147FF03C09E
:1019F0001092000108C020E220930001209105010F
:101A00002D5E2093050120E2E22E08E120E04091C6
:101A100000016091050116DF0F91EF900895EF929C
:101A20000F93262FFC0164913196449131960491D5
:101A30003196E49030910001430F30910501630F1E
:101A4000049600DF0F91EF90089560E0E8CF0895CD
:101A5000EF920F93909135059F5F909335054091DC
:101A60000301440F440F440F20E1829FC001112461
:101A700020E1E22E08E020E0609104018C57994FAC
:101A8000E1DE80910401885F80930401A8950F91A5
:101A9000EF9008958F5CDCCF0895CF93DF93EC0136
:101AA0008991882311F0D4DFFBCFDF91CF91089586
:101AB000CF93DF93EC01CE010E94653B982F9F7777
:101AC00019F0C6DF2196F7CFDF91CF910895EF92FD
:101AD0000F93FC0104913196E4900296B3DE0F91CE
:101AE000EF9008950F9380E891E0E2DF4091850543
:101AF0004D3F64F460917305709174058091750594
:101B00009091760503E026E484D002C08FE3A0DF45
:101B10000F910895909112019F70923071F487DEB9
:101B200084E690E0C5DFE0913605F091370522E0CC
:101B30004DE06FEF8481958155C10895EF92FF923A
:101B40000F931F93CF9380E3E82E81E0F82EC0E03F
:101B5000C03228F48C2F806832DE80E805C080EE29
:101B60008C0F80682CDE88E82ADE00E010E0F701A8
:101B7000E00FF11F608181E098D90F5F1F4F0031A6
:101B80001105A9F7CF5F80E1E80EF11CC03401F721
:101B9000A895CF911F910F91FF90EF9008955A98BB
:101BA000529A5D98559AA4DA81E009DEA6DA8CE0B3
:101BB00006DE86E004DE84E202DE05DE86E2FFDD8C
:101BC000BDDFD2CD08950F93282F84E0289FF00128
:101BD0001124EA55FA4F60817181828193816436C4
:101BE00071058105910570F43091190137FD0AC026
:101BF000822F09DA682F892FFCDB23E04DE06EEF9E
:101C0000F1D004C004E02DE04FEF03D0A2D90F9132
:101C10000895AEE0B0E0EFE0FEE00C94D23A142F6D
:101C2000622E702E6B017C010F7080E389838A83A2
:101C30008B838C838D838E83F7FE0AC08CD9F094BE
:101C4000E094D094C094C11CD11CE11CF11C04C0D0
:101C500075FE02C08BE2FCDE033071F0043099F0B7
:101C60000530C1F00630F1F0073021F174E6872E1F
:101C7000912CA12CB12C25C068EE862E63E0962E07
:101C8000A12CB12C1EC050E1852E57E2952EA12C1F
:101C9000B12C17C040EA842E46E8942EAA24A394BF
:101CA000B12C0FC030E4832E32E4932E3FE0A32EFC
:101CB000B12C07C020E8822E26E9922E28E9A22E18
:101CC000B12C9AE0292E312C412C512CC814D90466
:101CD000EA04FB0470F0C701B6016B5F7F4F8F4FC2
:101CE0009F4FA20191010E94EA3969017A011F5FA9
:101CF000EDCF81E1810F9BEA899F812D1124A82ED0
:101D0000A69486E0811B899F112D11241695912F91
:101D1000990F190F811B182F4E0187E0880E911C17
:101D20002AE0A401C701B6010E94113BF401019011
:101D30000020E9F731977F01E818F9089E2C670128
:101D4000DD24812F90E004968C159D0514F4A39456
:101D50001D5F8A2D90E0845D9F4F0E94653BA82EF9
:101D600074FE04C0901610F40E1901C000E08E2C11
:101D7000811A800E181424F08EE26ADE012F0E19EB
:101D8000111102C088EF882E912C10E0C00ED11ED8
:101D9000E82C082C000CFF08892D90E08C159D057F
:101DA000ACF4FC013696E01BF10B81E090E08C0F67
:101DB0009D1FE80FF91F80814BDE9394892D90E0E1
:101DC0008E159F0549F78EE243DEE6CFAA2011F07B
:101DD0008A2D3EDE662011F0862D3ADE2E96E2E157
:101DE0000C94EE3A0F93362FBC0180E090E0022F66
:101DF000242F432F0EDF0F9108950F93062FBC0160
:101E000080E090E026E54DEF04DF0F9108950F93F9
:101E1000042F28E440E0FDDE8AE71ADE9AD80F910D
:101E20000895E82FF0E0EE0FFF1FE057FE4FA59159
:101E3000B49190910001490F90910501690F20E044
:101E4000CD0145CE0895CF93DF93C82FD62FE091D3
:101E50003605F091370548E16EE18685E2DFE091D5
:101E60003605F09137054D2F6C2F8485DADFE09130
:101E70003605F091370540E06EE18585D2DFDF91D0
:101E8000CF910895EF92FF920F931F93CF93DF931B
:101E9000F82EE92E53DEC5E64F9B05C0CF2DDE2D73
:101EA00015E500E019C081E03FD9C150A9F7F6CF90
:101EB00082E03AD9110F4F9B1F5F1F731F3379F4D4
:101EC000011103C0CF2DDE2D04E00F5F083C88F424
:101ED000A8951C161D0644F0D7FFEACF0AC01111C1
:101EE000F7CF0023A9F305C02A97B1F7CFEFDFEFB3
:101EF000F3CF802FCDB7DEB7E6E00C94FA3ACF935C
:101F00004EDCC82F809138058823D1F0813051F400
:101F1000C33041F46FE086E01ADC8BE299DD6FE0BC
:101F200086E015DC80E49FE1ADDFC33041F48091B1
:101F30003805813021F460E086E009DC58DC38DCCB
:101F4000CF9108951895189530911101A0913605FB
:101F5000B0913705E9E8F5E080E090E08317B0F450
:101F600041911C962C911C97421719F0458124131E
:101F700002C00196F3CFFC01EE0FFF1FEB56FA4FA4
:101F800020813181293E334008F4089584E1089589
:101F900010921301109211011092680510924805D9
:101FA000109212011092340510926F05E3E5F5E0EE
:101FB000108211821282E3E7F5E0108A82E0818BC1
:101FC00010921901178616861482158216821782BE
:101FD00081EF838B08955E9885D880E090E052CFA2
:101FE00008951F93CF93DF93162F17B818B8E82FD3
:101FF000F0E0EB5AFD4F949195B9262F281BE20F84
:10200000F11D27FDFA95E491E92BE4B9C5D8EC015F
:10201000812FC2D8AC012091290130912A01369537
:102020002795C9010397BE01625E7F4F8617970708
:1020300078F4255E3F4FC217D30750F4BA01625EB1
:102040007F4F8617970720F481E04217530708F067
:1020500080E014B8DF91CF911F910895CF9361E094
:1020600080E0BFDFC82F62E080E0BBDFC80F62E026
:1020700081E0B7DF8C0FCF910895AFE0B0E0E3E4EB
:10208000F0E10C94D23AB82E10921301807FA9F49B
:10209000E5DF833009F094C396DB89E492E008DD44
:1020A00069DB8FE3D5DC80ED97E0ECDE8B30C8F4A4
:1020B0008ADB85EF90E0FCDC83C306E910E083DB7C
:1020C00088EB91E0F5DCCADF833021F41F5F143028
:1020D00010F007C010E032DD88E226D8015079F711
:1020E00060C048DB0E947C2781EB90E0E1DC60E08F
:1020F00083E193E00E94723B60E084E193E00E9400
:10210000723B60E082E193E00E94723B60E082E01B
:1021100070D96C019A83898361E082E06AD97C017D
:102120009C838B8360E081E064D98C019E838D83E6
:1021300023E040E26EEFC60155DE23E040E26EEFA1
:10214000C70150DE23E04DE06EEFC8014BDE2AE50B
:10215000C216D10424F084E190E09A8389836981D6
:1021600083E193E00E94723B8AE5E816F10424F0D3
:1021700084E190E09C838B836B8184E193E00E94F7
:10218000723B0A35110524F084E190E09E838D8333
:102190006D8182E193E00E94723B82E0809338057A
:1021A000AEDEEB2DEF70EF87E13011F018E74DC197
:1021B000EE24E394F12C78EB872E72ED972E77E4E2
:1021C000A72EB12C02E0E8E0DE2EF0E23F2EC12C7B
:1021D0001E2D52E2252E32DB2DDB84E539DCC701D2
:1021E0000E949E070E94A9071130B9F484EE90E086
:1021F0005FDC64E080912D0190912E01FEDDBADA62
:102200008FED90E055DC80917105909172050E94F0
:102210009E078EEB80932501F3C0123091F520913B
:10222000290130912A01A8E5BBE10E94283A24EC5B
:1022300036E340E050E00E940C3A29013A0181E087
:1022400085B9F5E0F4B980E00E94C00884199509C9
:102250009A83898381E184B980E00E94C00884194F
:1022600095099C838B8384E085B984E184B981E0FE
:102270000E94C008841995099E838D8389EC90E0A3
:10228000AAC0133059F505B92AE024B980E00E94AC
:10229000C0082091290130912A0136952795388769
:1022A0002F83821B930B9A83898324B880E00E943A
:1022B000C0082F813885821B930B9C838B83D5B8F4
:1022C00088E284B981E00E94C0082F813885821B92
:1022D000930B9E838D838BEB90E07DC0143039F49B
:1022E00089E392E0E5DBBADE811167C278C0153080
:1022F000B1F415B804B980E00E94C0089A838983BC
:10230000D4B881E00E94C0089C838B8334B882E0FB
:102310000E94C0089E838D838BED90E05CC01630D8
:1023200051F504B905B980E00E94C0082091290147
:1023300030912A01821B930B9A838983D4B8D5B834
:1023400081E00E94C0082091290130912A01821B5E
:10235000930B9C838B8334B835B882E00E94C0080D
:102360002091290130912A01821B930B9E838D833A
:1023700087ED90E030C0173081F520912901309130
:102380002A01A8E5BBE10E94283AA50194010E9418
:10239000EA3929013A0105B9E3E0E4B980E00E9495
:1023A000C008841995099A838983D5B8FCE0F4B9EB
:1023B00081E00E94C008841995099C838B8335B8FD
:1023C00020E324B982E00E94C008841995099E8305
:1023D0008D8385EB90E06CDB02C0113089F0CAD9A7
:1023E00089819A810E9493070E94A9078B819C8111
:1023F0000E9493070E94A9078D819E810E949307E6
:1024000017B818B814B815B888EE93E03BDD14304F
:1024100011F08B3020F4C39484E0C812DCCE88EE37
:1024200093E030DDEFEFEE1AFE0AF8E0EF16F1046C
:1024300009F0CDCEBBCE02DA89E392E039DB7EDB58
:1024400084E60E949408115019F008DE8111F3CF40
:10245000BAD98AEA90E02CDB23E04DE06FEF80915F
:102460002B0190912C01BEDC85D983EA90E020DB22
:1024700023E04DE06FEF8091320590913305B2DC9F
:1024800082E0809338053BDD109213019CD98FE9DF
:1024900090E00EDB60E082E00E94642480907B0587
:1024A00090907C05A0907D05B0907E059C868B86E3
:1024B00061E082E00E946424C0907B05D0907C059E
:1024C000E0907D05F0907E05DE86CD8660E081E0BF
:1024D0000E94642400917B0510917C051E830D836E
:1024E00062E080E00E94642480917B0590917C05ED
:1024F0009C838B8362E081E00E94642480917B0551
:1025000090917C059A87898761E080E00E9464242D
:1025100080917B0590917C059A8389832F8521305A
:1025200021F020913105223021F4029698878F8383
:1025300004C098878F8310923105C4010E94A807B8
:10254000C6010E94A807B801110F880B990B03E080
:1025500026E444EF5EDB8E010F5F1F4F6E018FE0BC
:10256000C80ED11CF801819191910A97853B910584
:10257000C8F4CE16DF06B9F742E3E42E43E0F42EAA
:10258000F80160810E5F1F4F6E5EC7010E94723BB3
:10259000FFEFEF1AFF0AC016D10691F7EBD885EAD4
:1025A00091E086DA82E080933805A9DC0E94473604
:1025B0002F85213029F080913105823009F0E7C064
:1025C00002D980E067DA8BE491E072DA82E062DAC5
:1025D00084E290E06DDA20E4F22E10E03AE0832EFF
:1025E000912CA12CB12CD4DC1092130160E082E07C
:1025F0000E94642400918505209173053091740533
:102600004091750550917605073F44F40F5FCA016C
:10261000B901A50194010E94EA39F6CF009385051E
:102620002093730530937405409375055093760598
:10263000073F09F095C0DA01C90180569109A10947
:10264000B10980399545A105B10508F089C06091AF
:10265000870570918805CB018B569F4F8B32914037
:1026600008F07EC01F5F153008F47BC089E393E05B
:102670000E94803BA8D88DE190E01ADA809187050E
:10268000909188050E9493070E943E0918B881E046
:1026900087B980E284B982E00E94CC08853D9340EE
:1026A000D4F714B8109228011092270182E00E94FA
:1026B000CC088C0180916D0590916E059093280156
:1026C0008093270182E00E94CC087C01EE0CFF1C65
:1026D000109228011092270182E00E94CC08A0905D
:1026E0006D05B0906E05B0922801A0922701800F71
:1026F000911F8C010E191F093DD886E190E0D8D9B1
:102700008BE393E00E94653BD82E9501D8010E948F
:10271000373A97010F2C000C440B550B0E940C3AD2
:1027200013E01D0D120F612F8BE393E00E94723BAB
:10273000812F012E000C990B0E9493070E943E09E5
:1027400082E080933805DBDB1092310582E393E071
:102750000E94653B682F85E393E00E94723B17C09F
:1027600010E008D86091730570917405809175052B
:102770009091760504E026E4409185054ADA37D841
:10278000DDD988E20E949408FA94F1102CCF89E1F7
:102790008093250180E00E945E3915D885EF90E096
:1027A00087D90E94BA0B80E392E082D9109213017C
:1027B00082E080933805A3DB03C082E0C82E0FCEF1
:1027C0002F96E2E10C94EE3A8091310581110DC013
:1027D00082E393E00E94653B61E0680F85E393E04C
:1027E0000E94723B81E0809331050895EF92FF9241
:1027F0000F931F93CF93DF93D62FE82FF0E0E85A83
:10280000FD4FE491E8B9E7B915B8E62FF0E0EB5ACF
:10281000FD4FE491E4B988E8E82E83E1F82ECE2F4D
:10282000CC0F8D2F0E94C0088C01C4B98E159F0556
:1028300010F47801F6CF892BD9F00E94C80B8BE2F7
:1028400091E036D9D80120EA36E841E050E00E9414
:102850003D3A28E937EB40E050E00E94EA39DA01DE
:10286000C90122E041E467EFBDDA17B818B814B81F
:10287000CDB7DEB7E6E00C94FA3AA0E0B0E0E3E4CE
:10288000F4E10C94D23A80E48AB98BB9C6E8C093DB
:102890007A001092C1000E947408D4B784B7877F71
:1028A00084BF0FB6F894A8958091600088618093EA
:1028B0006000109260000FBEC093640088E38093B4
:1028C0007E001092B00087E08093B100789467D9C1
:1028D000D3FD75C580E185BFC0E04F9906C082E099
:1028E0000E949408CF5FCC33C1F78FE59DE69093AB
:1028F0000C0180930B01CF3130F080E69DE6909380
:102900000C0180930B01109226010E947C279FE00E
:1029100088E10FB6F894A895809360000FBE90935D
:102920006000CC3389F030E1932E40E1842E59E3EE
:10293000C52E55E0D52E69E5E62E65E0F62E70EF42
:10294000272EE3E33E2E30C00E9466308111FCCF7B
:10295000EACF823009F440C1833009F46AC184E9C6
:1029600092E0A6D88CE792E0A3D80E94BA0B80919F
:102970001101805D6DD88AE26BD887E291E098D82A
:1029800082E692E095D886E01ED8C0E4DFE197B8F1
:10299000D5D84F9BFECFCE0175DA823308F4ABC495
:1029A0000E9466308111FCCF0E94E30B17B8F0DA69
:1029B0000E947C270E94B40B14D580913405882393
:1029C00079F00E94BA0B80E491E072D863E08091C4
:1029D000290190912A0111DAB1D888EC0E9494085B
:1029E0000E94BA0B0E948E2380911301893021F539
:1029F0000E94E30B85E491E05BD80E94BA0B63E090
:102A000080914D0590914E05F8D90E94A90763E089
:102A100080914F0590915005F0D90E94A90763E07D
:102A20008091510590915205E8D988D88AEC0E948E
:102A3000940881E122DB5AC485E393E00E94653B60
:102A4000C82F82E393E00E94653BC81BC093310509
:102A500080E013DB0E941E0C8EEA92E029D86ED82B
:102A600042E061E080E033D542E060E081E02FD5D4
:102A700041E062E080E02BD541E060E082E027D5D4
:102A800040E062E081E023D540E061E082E01FD5D4
:102A90008091130181110EC00E948E2360E082E0BC
:102AA0000E94642461E082E00E94642460E081E08E
:102AB0000E9464240E94E30BD0923705C092360531
:102AC00080911301863069F485EC0E94E30C60E18B
:102AD00088EFB9D966E080E00E94A70B85E892E014
:102AE0000EC08730E9F484EC0E94E30C60E188EFCB
:102AF000AAD966E080E00E94A70B8EE892E00E94CF
:102B0000580D66E082E00E94A70B89E591E00E94E3
:102B1000580D62E080913D0590913E056ED9E6C367
:102B2000883081F4209183058091840590E0820FA4
:102B3000911D029719F40E94D329DFC380E00E94FF
:102B40000629D4C3833009F0B1C0809111018130CE
:102B500009F0FFCE80E00E944308609189058091D2
:102B60008F0544DE80E70E941B0840E060918905E4
:102B700080918F050E946A35609373057093740588
:102B8000809375059093760580E00E94170C609104
:102B9000730570917405809175059091760502E03A
:102BA00026E442EF36D80E94AB0741E060918905E8
:102BB00080918F050E946A35609373057093740548
:102BC000809375059093760526E442EF22D88DE137
:102BD00091E00E94580DEAC282E30E94280D8DE028
:102BE00091E00E94580D9091890530918A059313C8
:102BF00007C080E00E945F0881E00E9456080CC078
:102C000020918F0580919005281308C080E00E94D4
:102C10004F0881E00E94660881E0A5CF321304C00E
:102C200081E08093060134C0981399CE809206010A
:102C30002FC03092060180918F0590918A058913EB
:102C400003C021E020930601409189053091900551
:102C5000431302C08092060120918B05821303C0AA
:102C600082E08093060180919105481303C040E201
:102C70004093060132130FC022E1209306019817FA
:102C800061F083E30E94280D8DE091E00E94580DD1
:102C90000E9431088BC2981303C031E230930601C1
:102CA00080910601823208F05ACEEBCF843009F0D1
:102CB00051C180916805882309F45FC0809148055F
:102CC000882309F45AC060914505809147050E9408
:102CD0006424409073055090740560907505709061
:102CE0007605C091850560916705809165050E9414
:102CF00064248091390590913A05A0913B05B091EB
:102D00003C054091590550915A0560915B057091C1
:102D10005C05843F21E09207A105B10538F4443FEA
:102D200031E053076105710508F0C0EF443F5140A1
:102D30006105710538F4843F9140A105B10510F09B
:102D40002092850580918505C8130EC0809173057A
:102D500090917405A0917505B091760548165906B5
:102D60006A067B0618F006C0C81724F44DE04093AD
:102D7000120103C08CE080931201809168058823C2
:102D800061F080914805882341F04F9906C09091E9
:102D9000120181E089278093120166E080E00E94A1
:102DA000A70B80EC0E94E30C809112018C3051F44F
:102DB00085E791E00E94580D809168058823A9F06D
:102DC00080E711C0F0923705E09236058BED91E077
:102DD0000E94250D8DE691E00E94580D80914805D6
:102DE000882319F08EE60E94280DAED8C82F8530B2
:102DF000A0F4A0913605B0913705E82FF0E0E75731
:102E0000FA4F1D969C918081981711F062E001C0E5
:102E100060E086EA91E00E940F0D60E189EF13D82F
:102E200086E00E94FD0B84E891E00E94580DE0913D
:102E30003605F0913705608171818281938103E0CD
:102E400020E04EEF0E94090E87E00E94FD0B89E40E
:102E50000E94280DE0913605F09137058681978113
:102E60008031974270F085E60E94280DE09136058A
:102E7000F0913705868197818051974297838683A9
:102E800003C083E60E94280D0E94AD07E09136053D
:102E9000F091370522E041E46AEF868197810E9434
:102EA000F20E86E00E94FD0B8DE591E00E94580D28
:102EB000E0913605F091370563E0848195810E94A9
:102EC000FD0E81E080933805E0913605F0913705DD
:102ED00080859185892B91F085E00E94170C8FEEFB
:102EE00090E00E94580DE0913605F091370522E000
:102EF00041E46AEF808591850E94F20EE0913605EB
:102F0000F091370582859385892B91F085E00E94A9
:102F1000170C89EE90E00E94580DE0913605F09173
:102F2000370522E041E46AEF828593850E94F20E24
:102F3000C53068F480E00E94170C8C2F0E94430873
:102F400089E591E00E94580D8C2F0E940D0843E402
:102F500062E42AC1853009F033C166E080E00E9456
:102F6000A70B8091120184FF09C080E50E94280D03
:102F7000F0923705E0923605D2E004C08EE40E945C
:102F8000280DD0E00E94AB0780911201C82FCF70AE
:102F9000C43061F48FE891E00E94580D83EC0E94E8
:102FA000E30CDD23E1F184EE91E037C085FF05C03D
:102FB00084E40E94280DDF5F03C085E40E94280D91
:102FC000C330B1F489E891E00E94580D81EC0E9471
:102FD000E30CD13019F481E392E01FC0D23019F430
:102FE0008DE392E01AC0D330D1F48DE092E015C0A9
:102FF00084E991E00E94580D82EC0E94E30CD130EC
:1030000019F48DEF91E009C0D23019F483E092E019
:1030100004C0D33021F48BEE91E00E94250D0E9474
:10302000A40F8530A0F4A0913605B0913705E82FA4
:10303000F0E0E757FA4F1D969C918081981711F0A8
:1030400062E001C060E086EA91E00E940F0D60E15D
:1030500089EF0E94230F86E00E94FD0B80911201F0
:1030600085FD1CC085E591E00E94580DE091360574
:10307000F091370562E0828593850E94FD0EE09114
:103080003605F0913705668584850E94642486E0C4
:103090000E94FD0B0E94720D85E068C08F70E09168
:1030A0003605F0913705843039F0668584850E94B5
:1030B00064240E94720D13C084819581892B79F05C
:1030C00080E090E00E94580DE0913605F0913705C0
:1030D00022E041E46AEF848195810E94F20E60E073
:1030E00084E00E94A70B89E40E94280D0E94AD078E
:1030F000E0913605F091370522E041E46AEF8681E0
:1031000097810E94F20E8FE491E00E94580DE091A9
:103110003605F091370562E0828593850E94FD0EA9
:10312000E0913605F091370580859185803C92418C
:10313000E0F480E00E94170C89E40E94280D0E94B0
:10314000AD0722E041E46BEF80E090E00E94F20ED8
:103150008FE491E00E94580DE0913605F09137051B
:1031600062E0808591850E94FD0E80E00E948A0DBC
:10317000C43009F4B6C0D0E080911101D81778F4BA
:1031800080E00E94170C8D2F0E94430889E591E092
:103190000E94580D8D2F0E940D08DF5FEDCFC330C8
:1031A00009F009C143E467E485E49EC080916F059E
:1031B000882309F49BC097B817B880E00E94170CC9
:1031C00020916F05222309F47FC02130A1F4809162
:1031D00056050E94030820915605213039F42091AC
:1031E0001101211103C00E948E2987C040E0692F80
:1031F0000E9447287BC0909156058091570544E076
:10320000849FD0011124AA55BA4F34E0939FF00156
:103210001124EA55FA4F4D905D906D907C9040815D
:10322000518162817381441555056605770510F457
:10323000C82F01C0C92F223021F4890FC3E0C81B59
:103240001CC08091580544E0849FD0011124AA55E8
:10325000BA4F94E0C99FF0011124EA55FA4F0D913D
:103260001D912D913C914081518162817381401764
:1032700051076207730708F4C82F1C2F1695D2E078
:10328000DC1BC11102C001E001C002E0812F0E94DD
:103290004A0D88E091E00E94580D8D2F0E944A0D42
:1032A00088E091E00E94580D802F0E944A0D80E036
:1032B0000E94FD0B81E0C11180E00E94E30D82E0DD
:1032C000811B0E94E30D12C08CE692E00E94580D13
:1032D0000E94BA0B89E992E00E94580D84E992E0BD
:1032E00051CB4FE367E48FE30E94D607C0910B01F7
:1032F000D0910C014CCB811157CB809131058823A3
:1033000009F456C0D4E000E010E080E090E020E155
:10331000422EFC01E00FF11FE55AFD4FC491C0326F
:1033200009F4482E01968131910599F7DD2339F092
:103330002D2F2370B22E51F40E94E30B07C080E2C0
:103340009EE40E94420F882399F32EC060E08B2DEB
:10335000880F0E94A70BA895DF5FD370A12CB12C1A
:10336000A414A0F4F801EA0DFB1DE55AFD4FC49129
:10337000CC23D1F0CF3F19F40E94A90703C08C2FB2
:103380000E94280D3FEFA31AB30AEACFCC2361F0C5
:10339000040D111DF801E55AFD4FE491E03209F0EA
:1033A000B4CF0F5F1F4FB1CF80E29EE40E94420F67
:1033B0000E94EB0FF9CA44E467E483E595CF0E94CD
:1033C000B40B89E592E00E94580D8BEC0E949408A2
:1033D0000E94EB0F80E090E0CDB7DEB7E2E10C9405
:1033E000EE3A0F931F93CF93DF9385E00E94CC08B2
:1033F00085E00E94C8088C01EC01CC0FDD1FCC0FCA
:10340000DD1FCA56DF4F10922F01C43883E0D80762
:1034100050F489E991E00E94580D0E94F70B81E079
:1034200080932F0128C088EA91E00E94580D62E045
:10343000CE010E94FD0E0E94A9070A3F86E01807F0
:10344000A0F40333164070F482EA92E00E94580D13
:103450000E94F70B0E949E0D8DEC0E9494080E9422
:10346000EB0F09C089EA92E002C085EA91E00E9470
:10347000580D0E94F70BDF91CF911F910F91089586
:10348000CF93DF93DC019C01261B370BE0E090E03B
:10349000B901690F711D672F7727920F260F371F0C
:1034A000BA016E0F711D672F7727E40FEB01CC0F68
:1034B000DD1F4C0F5D1F6B3E28F4A217B30740F7CA
:1034C000CA0102C080E090E0DF91CF910895A7E1AA
:1034D000B0E0EDE6FAE10C94D23A8E8B162F042F71
:1034E000A895E62FF0E0EB5AFD4F24912B87220F91
:1034F000298B339634913A83E42FF0E0EB5AFD4F59
:1035000044914B833396F490E82FF0E0EB5AFD4F53
:1035100084918983880F8E87339694919F8B45B9C8
:103520006B84642A64B897B998B9862F0E94C8083A
:103530009D878C87EB85E4B9812F0E94C8081C0108
:1035400014B80E947D0815B864B8812F0E94C8087D
:103550006C857D850E942A094C01FA81F7B918B85B
:103560002B813981232B2C8325B924B98E890E9484
:10357000C8080E9430095C0115B80E947D08498185
:1035800045B98E890E94C8080E9430096C01898162
:1035900084B98E890E94C8080E943009782EE92ECD
:1035A000B601C5010E942A098032E1E09E0730F48D
:1035B000F0E28F16F1E09F0608F48AC58C0C9D1C82
:1035C0002C853D85820F931F8816990620F4DD8691
:1035D000CC86272C3E2C2091480530916805822FFF
:1035E00090E0830F911D02974CF0213009F070C5D7
:1035F000909145058091650598136AC5EB80EE0CA6
:1036000039813E293A878C859D858437910508F458
:103610008BC1880F991F44962816390608F084C17B
:103620009F8997B998B98B858E2984B9812F0E947B
:10363000C4086C01802F0E94CC085C01E5B8812F82
:103640000E94C4089601295A3D4F18B82817390717
:1036500008F0AAC0EA81E7B9FA85F4B9F5B9802F74
:103660000E94C40888349F4028F085E080931301AD
:1036700082E204C085E08093130184E2809312010A
:10368000D0923E05C0923D05B501C6010E943509A4
:1036900090934405809343059601A0E1B7E20E9410
:1036A000283A20910D0130910E0140E050E00E9437
:1036B000EA393093400520933F0589898E2984B9E2
:1036C00015B83F8937B938B9802F0E94CC086C01F2
:1036D000812F0E94C408B6010E9435099C01909375
:1036E000420580934105909112019F70943071F5CD
:1036F00040913F055091400560914305709144050C
:10370000C901BEDE0097F1F0E4B84F898A81482BE9
:1037100047B9812F0E94C4086C0117B89C01A0E131
:10372000B7E20E94283A209132053091330540E0FB
:1037300050E00E94EA39A901B601809141059091BB
:1037400042059EDE90933E0580933D0580911201D7
:103750008F70843009F4B4C418B89A81F92AF7B884
:10376000E981E4B9FC81F5B98E890E94C8086C0131
:103770000E9430097C01812F0E94CC08A090140186
:10378000B0901501BC01C6010E9435099501DC010C
:103790000E94283A970140E050E00E94EA393093B5
:1037A0003E0520933D058CC42A8127B93A8534B95A
:1037B00035B98E890E94C4086C01802F0E94CC0804
:1037C0005C01498145B98E890E94C408895A9D4F80
:1037D0008C159D0508F07CC48F8988B987B9802F26
:1037E0000E94C408813D934028F485E08093130132
:1037F00082E304C085E08093130184E38093120187
:10380000B601C5010E943509909364058093630554
:10381000C6010E9430099C01A0E1B7E20E94283A4B
:10382000209114013091150140E050E00E94EA39E6
:103830003093600520935F0518B8FA81F7B98E853B
:103840008E2984B985B98E890E94CC086C01802F9D
:103850000E94C408B6010E9435099C01909362053C
:1038600080936105909112019F70943091F5409181
:103870005F05509160056091630570916405C90111
:10388000FFDD009711F1E5B8E4B82F8928B92A8047
:10389000222A27B88E890E94C4080E9430096C0130
:1038A00017B89C01A0E1B7E20E94283A20912B01B1
:1038B00030912C0140E050E00E94EA39A901B601A4
:1038C0008091610590916205DBDD90935E058093A8
:1038D0005D05809112018F70843009F4CFC13F895A
:1038E0003F2938B937B915B84C8144B98E890E943F
:1038F000C8085C01812F0E94CC087C01C0900D019A
:10390000D0900E01BC01C5010E9435099601DC0171
:103910000E94283A970140E050E00E94EA39309333
:103920005E0520935D05AAC118B88A8187B999817F
:1039300095B9EA85E4B98E890E94C808988B8F876B
:103940000E9430099F838E83802F0E94CC08998724
:1039500088872101F4E64F0E511C2E813F81B10171
:1039600042165306D8F4C9010E9435096C01209112
:1039700014013091150140E050E060E871EA83E005
:103980009CE10E94EA39D6010E943D3AE885F9851A
:103990004F01A12CB12CA501940123C08E819F81E0
:1039A0000E9435096C01FC81F4B98E890E94C80817
:1039B000988B8F870E9430099F838E83802F0E946F
:1039C000CC0899878887BC01C6010E9435099C01F3
:1039D000A4E6B0E00E94283AE885F9859F0140E01E
:1039E00050E00E94EA3949015A0114B815B8FF891C
:1039F000F8B9F7B981E00E94940864B8812F0E9459
:103A0000C8087B847E288F359D4008F43DC174B87A
:103A1000812F0E94C4086C01802F0E94CC089B8BD0
:103A20008A8B8E890E94CC089D8B8C8B8A899B897E
:103A3000813D974008F4B1C084E0809313018DE08C
:103A40008093120176012C143D0410F4E218F3085F
:103A500040900D0150900E01612C712C60E871EACC
:103A600083E09CE1A30192010E94EA39D7010E9400
:103A70003D3AEA89FB899F0140E050E00E94EA3923
:103A800080916805882369F08091590590915A05C5
:103A9000A0915B05B0915C0582179307A407B50759
:103AA00008F52093590530935A0540935B055093D0
:103AB0005C059601A0E1B7E20E94283AA3019201B9
:103AC0000E94EA393093600520935F056A897B89FB
:103AD0008C899D890E94350990935E0580935D05D0
:103AE00081E001C080E04091590550915A056091F4
:103AF0005B0570915C05481559056A057B0538F52D
:103B00008092590590925A05A0925B05B0925C058F
:103B1000688579858F8598890E94350990935E051F
:103B200080935D052E813F81A0E1B7E20E94283A93
:103B3000209114013091150140E050E00E94EA39D3
:103B4000205F384D3093600520935F0503C08823C4
:103B500009F49BC3C0900D01D0900E01E12CF12C13
:103B60009101A0E1B7E20E94283AA70196010E94C4
:103B7000EA3930936205209361052C853D85A0E1EB
:103B8000B7E20E94283AA70196010E94EA393093D1
:103B900064052093630581E078C3F1E62F163104B4
:103BA00008F072C021EDC21627E0D20608F46CC0FE
:103BB00085E08093130182E180931201C601865053
:103BC0009F4FEC89FD898E179F0720F483E1809336
:103BD000120116C0E0900D01F0900E01B6018C8923
:103BE0009D890E9435099701DC010E94283A9601BF
:103BF00040E050E00E94EA3930935E0520935D0575
:103C0000FA81F7702F2E802F806480937C002BE048
:103C10002983CC24C394D12CEE24EA94A3E0FA2E79
:103C2000A89561E08B8162D574B886B18221E9F3F1
:103C30003B8534B980917A00806480937A008091CA
:103C40007A0086FDFCCF8091780090917900F70191
:103C5000E81BF90BCE0EDF1EF981F150F983F1114B
:103C6000DFCFC601880F991F880F991F69E070E0A8
:103C70000E94C33970936405609363058091680561
:103C80008F5F8093680587CF74B8E5B8812F0E9455
:103C9000C8085C01802F0E94CC089F838E830E94FD
:103CA00030097C014A145B04A8F4B101C5010E94EB
:103CB00035096C0120910D0130910E0140E050E07A
:103CC00060E871EA83E09CE10E94EA39D6010E9433
:103CD0003D3A1DC064B82B8125B9812F0E94C808C8
:103CE0005C01802F0E94CC089F838E830E94300944
:103CF0007C01C5012A143B0410F482199309B70111
:103D00000E9435099C01A4E6B0E00E94283A970180
:103D100040E050E00E94EA3929013A013A8137B97E
:103D200018B84C8144B945B98E890E94C8086C0105
:103D3000802F0E94CC084C01812F0E94CC087C016E
:103D400080E3C81681E1D80608F0C0C1998195B911
:103D50008E890E94C80899878887E981E4B98E898D
:103D60000E94C808988B8F8715B881E00E9494083C
:103D7000F981F5B98E890E94C8082F8538892034C9
:103D8000364008F05FC08133914108F45BC0C60142
:103D90008A569F4F288539852817390708F052C061
:103DA00086E080931301809148058F5F80934805DA
:103DB000B701C4010E94350990933E0580933D05EB
:103DC000B701C6010E9435099093440580934305CD
:103DD00014B815B83A8138B981E00E949408498135
:103DE00044B98E890E94C808853F910508F05CC2DD
:103DF0008C8184B9802F0E94C808813D934008F4CB
:103E000053C28E890E94CC088D3D924008F44CC26A
:103E1000298124B98E890E94C8088D3D924008F4FA
:103E200043C2498145B981E00E94940815B88E8942
:103E30000E94C808853F910508F036C287E080934C
:103E4000130132C28A8187B99B8194B995B981E007
:103E50000E949408EA85E4B9E5B98E890E94C808F1
:103E60006C010E9430097C01802F0E94CC089D8348
:103E70008C830E94300999878887812F0E94CC0803
:103E80004C01288539852E3F394008F4B0C084E0C4
:103E9000809313018CE080931201B101C7010E944D
:103EA00035096C01209114013091150140E050E07A
:103EB00060E871EA83E09CE10E94EA39D6010E9441
:103EC0003D3AE885F9859F0140E050E00E94EA39DB
:103ED00080914805882369F08091390590913A05D1
:103EE000A0913B05B0913C0582179307A407B50745
:103EF00020F52093390530933A0540933B055093C4
:103F00003C05B4018C819D810E94350990933E054A
:103F100080933D059701A0E1B7E20E94283A2091E5
:103F200014013091150140E050E00E94EA393093CD
:103F3000400520933F0581E001C080E040913905B4
:103F400050913A0560913B0570913C05441555052B
:103F50006605770528F54092390550923A0560923A
:103F60003B0570923C05B5018E819F810E94350909
:103F700090933E0580933D059501A0E1B7E20E9434
:103F8000283A20910D0130910E0140E050E00E944E
:103F9000EA39205F384D3093400520933F0503C038
:103FA000882309F482C19101A0E1B7E20E94283A76
:103FB00020910D0130910E0140E050E00E94EA395D
:103FC00030934205209341052C853D85A0E1B7E261
:103FD0000E94283A209114013091150140E050E0F0
:103FE0000E94EA3930934405209343055DC1F1E610
:103FF0002F16310408F06AC029E4E2162DE0F2061B
:1040000008F464C085E08093130182E0809312017C
:10401000C40186509F4F8C159D0520F483E080934A
:10402000120115C0A0901401B0901501B401C60191
:104030000E9435099501DC010E94283A970140E071
:1040400050E00E94EA3930933E0520933D053F89B8
:104050003770D32E802F806480937C004BE04A839E
:10406000EE24E394F12CA89560E08B813FD38A8500
:1040700084B985B986B18D21E9F7998194B9809188
:104080007A00806480937A0080917A0086FDFCCF6C
:104090008091780090917900E80EF91EEA81E15054
:1040A000EA83E111E0CFC701880F991F880F991F9C
:1040B00069E070E00E94C339709344056093430542
:1040C000809148058F5F80934805EEC017B818B8F7
:1040D00014B815B817B8F7EC2F16F1E03F0608F43E
:1040E000C4C018B82E8524B908ECEA803F89E32AB9
:1040F000E7B881E00E9494084A8147B98E890E94FE
:10410000CC08429710F0015099F78E8584B985B993
:1041100061E08B81EBD28E890E94C8084C0199899D
:1041200094B915B8EF89E7B9E8B960E08B81DED2C0
:10413000812F0E94C8080E9430096C01FB85F4B9E8
:10414000812F0E94CC087C018E890E94C808B7018B
:104150000E9435097C01812F0E94CC085C018E8968
:104160000E94C808B5010E94350997012C5E3F4F97
:104170002817390708F47CC018B82A8127B9398173
:1041800034B935B961E08B81B1D2812F0E94CC085E
:104190005C018E890E94C808B5010E9435095C0146
:1041A000E816F90650F44E8544B945B98E890E9447
:1041B000C8089C01640175010FC0898984B915B8CC
:1041C0009F8997B998B960E08B8190D2812F0E9426
:1041D000C8080E9430099C01E8EEEE16E3E0FE06F6
:1041E00030F4C70164E670E00E94C33906C0B7012D
:1041F00054E0769567955A95E1F7C701875991097B
:104200008938914190F52E153F0578F5C60143E0B8
:10421000969587954A95E1F7893C910510F088ECD1
:1042200090E08C0D9D1D8E159F05F8F46C157D0595
:10423000E0F480911301833018F483E0809313013C
:1042400020911101822F90E0FC01E757FA4F3E893F
:1042500030831683880F991FFC01EB56FA4FF182C9
:10426000E0822F5F2093110103C0612F8E892CD033
:1042700017B818B814B815B88EE20E94280D0E941D
:104280009E0D6796E2E10C94EE3A909168059F5F6F
:1042900090936805882361F3009365051093660584
:1042A0004E8940936705E4CF81E0909148059F5F78
:1042B000909348058823E1F2009345058E89809309
:1042C000460510934705D4CFA0E0B0E0EAE6F1E25E
:1042D0000C94D43AA895462F50E0FA01EB5AFD4FC2
:1042E000949033969491A82FB0E0FD01EB5AFD4FC6
:1042F000E4903396F490709168052091480530E081
:10430000270F311D232B09F0ECC1A895209117012F
:1043100030911801220F331F220F331F30932A01CF
:104320002093290120916D0530916E05220F331FD6
:10433000220F331F30932801209327012EEB209367
:104340002501C0911101E9E8F5E070E04A0F5B1F1B
:104350007C1759F02191A58130E02A0F311D2417D7
:10436000350709F451C07F5FF3CFD62FC82F18B897
:1043700097B9E4B8E5B8B8E1BB2EC12CD12C8D2F8C
:104380000E94C808782E692E8C2F0E94CC088C01C0
:104390008C199D0997FF03C0919581959109039709
:1043A00034F0A895BA946801B110E9CF2DC0EE0C95
:1043B00015B8E4B88C2F0E94C8088135910520F506
:1043C000E5B88C2F0E94C8086C01F7B8F8B815B88A
:1043D00094B8A8E18A2EA12CB12C8C2F0E94C80879
:1043E000582E492E8D2F0E94CC087C018A199B09DA
:1043F00097FF03C09195819591090397CCF0A895FB
:104400008A9457018110E9CF80911701909118018A
:1044100090932A018093290180916D0590916E05FA
:10442000909328018093270189E18093250159C148
:10443000990C94B88D2F0E94C8085C01003C84E45C
:10444000180730F425E8C21621E0D206E8F605C0C8
:1044500080EBC8168DE4D806B8F624EAE21622E00E
:10446000F20608F06CC088E9A816B10468F2C6012B
:104470000E943009AC019601A8E9B7EB0E94283AE6
:104480009A0140E050E00E94EA3929013A01C50151
:104490000E9430099C01A8E9B7EB0E94283A8501E7
:1044A00020E030E0A90198010E94EA3988E7C816A7
:1044B0008FE0D80680F4D301C201F2E0880F991F83
:1044C000AA1FBB1FFA95D1F7BC01CD01620F731F64
:1044D000841F951F14C088E7A8168FE0B806B0F4B3
:1044E000DA01C901E2E0880F991FAA1FBB1FEA95F4
:1044F000D1F7BC01CD01640D751D861D971D25E00A
:1045000030E040E050E00E94EA390CC0D301C20123
:10451000820F931FA41FB51F9C01AD0156954795AF
:1045200037952795A4E6B0E00E943D3A2B013C0167
:104530002CEA420E2DE0521E611C711C79C0672DC1
:10454000762D0617170708F4B801C52CD42CCE1405
:10455000DF0408F467010617170708F48B01A09021
:104560001401B0901501C8010E9435099501DC01C4
:104570000E94283A2B013C01C8010E9430099C018D
:1045800040E050E0C301B2010E94EA3929013A013A
:10459000CE14DF0408F47601A0900D01B0900E0156
:1045A000B701C6010E9435099501DC010E94283A35
:1045B0004701A12CB12CA50194010E94EA390837CA
:1045C0008FE0180780F4D301C20162E0880F991FC1
:1045D000AA1FBB1F6A95D1F7BC01CD01620F731FE3
:1045E000841F951F14C088E7E8168FE0F806C0F412
:1045F000DA01C90132E0880F991FAA1FBB1F3A9543
:10460000D1F7BC01CD01640D751D861D971D25E0F8
:1046100030E040E050E00E94EA3929013A0108C048
:10462000420E531E641E751E7694679457944794E9
:1046300010911301143008F0E7CEC1500C2F0D0F6C
:10464000202F30E0E901CD5ADA4F8881220F331F45
:10465000220F331FF901EA55FA4F8823D9F1C080A0
:10466000D180E280F380A30192012C193D094E090B
:104670005F0957FF07C050954095309521953F4FF2
:104680004F4F5F4FAAE0B0E00E943D3A24E6C20ED1
:10469000D11CE11CF11CA7019601240D351D461DFE
:1046A000571D0E94EA39232B242B252B09F0ACCE71
:1046B000133019F081E08093130182E088838091A8
:1046C0006F05E82FF0E0EA5AFA4F00838F5F80937E
:1046D0006F059ACE408251826282738281E0888324
:1046E00093CECDB7DEB7E0E10C94F03ACF93C82F6C
:1046F000C09595B160FF02C0982B01C09C2395B96D
:1047000094B1892B84B982E00E94940884B18C23EF
:1047100084B985B1C823C5B9CF910895AF92BF922E
:10472000DF92EF92FF920F931F93CF93DF931AE0E4
:104730008FE3D82E09E017B818B815B8D4B880E0C0
:104740000E94C8087C0181E00E94CC08EC0182E054
:104750000E94CC089C0180911301893079F417B82C
:1047600014B8F0924E05E0924D05D0935005C093D9
:104770004F0530935205209351055CC084E0E81644
:10478000F10440F4C430D10568F42430310538F325
:1047900091E00CC091E088EEE81683E0F80618F08E
:1047A00090E001C091E0C83ED34008F49260283EFA
:1047B000334008F4946097B9C0E0D0E0A89580E059
:1047C0000E94C0085C0181E00E94CC087C0182E06C
:1047D0000E94CC0824E1A21625E0B20608F4389A1B
:1047E00024E1E21625E0F20608F4399A843125E046
:1047F000920708F43A9A26E0A216B10430F426E0B3
:10480000E216F10410F4069738F02196C43F81E0D7
:10481000D807A1F600931301E12CF12CEC16FD064C
:1048200031F00E9483082FEFE21AF20AF7CF1150FD
:1048300009F081CFDF91CF911F910F91FF90EF9001
:10484000DF90BF90AF900895CF92DF92EF92FF92EA
:10485000CF93209173053091740540917505509167
:104860007605C09185058AE0C82ED12CE12CF12C6B
:104870008C2FCF5F213A96E8390791E0490751051F
:1048800038F0CA01B901A70196010E94EA39F0CFB8
:1048900080938505A0912901B0912A010E943D3A9B
:1048A00028E833E140E050E00E94EA3920937305A4
:1048B000309374054093750550937605CF91FF9022
:1048C000EF90DF90CF9008958F929F92AF92BF921A
:1048D000CF92DF92EF92FF921F93CF93DF93982FA7
:1048E000990F980F2FEF260F920F90934A05E82FFC
:1048F000F0E0EB5AFD4FD491262F30E0F901EB5A4E
:10490000FD4FF490F901E85AFD4FD49090911301B6
:10491000913009F49DC220911101E9E8F5E0DF0131
:1049200090E0921791F016963C911697631309C088
:104930003C91831306C0448555854C3D554008F491
:1049400087C29F5F11963296ECCF162FC82F109218
:10495000800510927F0581EF809385051092730585
:10496000109274051092750510927605D7DE18B86E
:10497000D7B8F4B8F5B88C2F0E94CC085C01812F11
:104980000E94CC08A81AB90A14B810924C051092CB
:104990004B0580914B0590914C05843F914008F068
:1049A000A9C0D5B9D4B90E947D0814B815B80E9421
:1049B0008408A8958C2F0E94CC087C01EA18FB087B
:1049C00080914B0590914C058E37910528F08BE432
:1049D000E816F1040CF48EC080914B0590914C05C3
:1049E0002DE2E21621E0F20634F4019690934C0594
:1049F00080934B05CECF892B09F0A1C185E1E81644
:104A000085E0F8060CF49BC189DE15B887E087B90C
:104A100018B8FD2EFF0CF4B880E480937B0084E589
:104A200080BF8C2F806480937C0086E180937A0025
:104A30000E94870810924C0510924B05109280003E
:104A4000109285001092840087E286BB81E28093F9
:104A50006F0081E080937005F5B890911301809309
:104A60008100953009F04BC081E090E00C2E01C030
:104A7000880F0A94EAF78095877087B9F89483B70E
:104A8000817F83BF80917005882389F083B781601F
:104A900083BF7894889583B78E7F83BFF894A89559
:104AA00080914B0590914C058034964059F778944D
:104AB00010928100E0908600F090870010926F00C5
:104AC00086E980937A0014B815B88C2F0E94CC0820
:104AD00020912D0130912E01821B930B0C96909307
:104AE00088058093870580914B0590914C05803215
:104AF000934038F017B818B814B815B8A9C1D7B88A
:104B0000BDCF80914B0590914C0590937E0580938D
:104B10007D05F0927C05E0927B0584EF809385050E
:104B200080914B0590914C0582349105C8F06091BD
:104B30007B0570917C0580917D0590917E0524E632
:104B400030E040E050E00E94EA3920937B0530934A
:104B50007C0540937D0550937E0586EF8093850507
:104B6000A0917105B091720520917B0530917C0573
:104B700040917D0550917E050E943D3A20E233E050
:104B800040E050E00E94EA3920937B0530937C0599
:104B900040937D0550937E052093730530937405F3
:104BA00040937505509376054FDE80918505843FCF
:104BB00009F070C0C0907305D0907405E090750541
:104BC000F090760580EAC8168FE0D806E104F1047B
:104BD000C0F4A70196012C543F4F4F4F5F4F60EA3E
:104BE0007FE080E090E00E94EA39C20ED31EE41E0E
:104BF000F51EC0927305D0927405E0927505F0928F
:104C00007605C0907305D0907405E0907505F0901E
:104C10007605C114D10421E0E206F10428F4D09213
:104C2000B705C092B60506C081E090E09093B70545
:104C30008093B60580914A0590E08E5C9C4F0E945F
:104C4000653B90E0A0E0B0E08C159D05AE05BF058A
:104C500068F4C81AD90AEA0AFB0AC0927305D0920E
:104C60007405E0927505F092760514C034E1C30E28
:104C7000D11CE11CF11CC816D906EA06FB0610F48B
:104C80000E94E4131092730510927405109275053A
:104C900010927605D4B98091730590917405A09116
:104CA0007505B09176054997A105B10508F422CFA5
:104CB000C12CD12C80911101882329F080911301FE
:104CC000853009F017CF88E0809313018091850526
:104CD000909186059817C4F089130CCF80907305C6
:104CE00090907405A0907505B09076054091770579
:104CF000509178056091790570917A0548155905AC
:104D00006A057B0508F0F6CE409173055091740555
:104D100060917505709176054093770550937805FD
:104D20006093790570937A0580938605D092820509
:104D3000C092810510938305C0938405DBCEC70123
:104D4000C12CD12C20914B0530914C052C153D05E3
:104D500060F00E947E088C2F0E94CC088A199B0963
:104D6000A8952FEFC21AD20AEDCF5701A81AB90A97
:104D70001A141B049CF439ECA316B1040CF0BACE3F
:104D800028EE33E0D5010E94373A97010F2C000C32
:104D9000440B550B0E94EA39690102C0C12CD12C89
:104DA00080914B0590914C050196A0E0B0E0809376
:104DB0007B0590937C05A0937D05B0937E05C7018C
:104DC0008A0D9B1D0E94960920917B0530917C05E0
:104DD00040917D0550917E05DC010E943D3A609333
:104DE0007B0570937C0580937D0590937E05609391
:104DF000730570937405809375059093760587EF1E
:104E00008093850521DD8090730590907405A090B6
:104E10007505B090760585E193E00E94653BA8EEAC
:104E2000B3E0A81BB10987FDB395A50194010E94C9
:104E3000473A24E630E040E050E00E94EA3920930F
:104E4000730530937405409375055093760532CF02
:104E5000DF91CF911F91FF90EF90DF90CF90BF90A7
:104E6000AF909F908F9008951F920F920FB60F9260
:104E700011248F939F93B59904C08091700581117F
:104E800009C0B59B10C080918600909187008A3F31
:104E9000910548F480914B0590914C0501969093B3
:104EA0004C0580934B059F918F910F900FBE0F90F3
:104EB0001F9018951F920F920FB60F9211248F9387
:104EC0009F9310927005B09B10C0809186009091C6
:104ED00087008A3F910548F480914B0590914C05DD
:104EE000019690934C0580934B059F918F910F9065
:104EF0000FBE0F901F901895A0E0B0E0E2E8F7E237
:104F00000C94D83A88E893E19093180180931701A4
:104F100090932A01809329018EEB8093250118B884
:104F200080E187B90E948C0817B884E00E94C80805
:104F3000AC018B5C9840833F9140A0F481E080936A
:104F400034052091290130912A01AFEBB9E00E948C
:104F5000283A9A0140E050E00E94EA393093180163
:104F600020931701809117019091180190932A01C5
:104F7000809329018EE00E94CC088EE00E94C80830
:104F800090932E0180932D010E943E09C7DB18B833
:104F9000C1E0C7B985E185B9C4B980E00E94C808FD
:104FA0008C0182E0D82ED7B8D4E0D4B981E00E9439
:104FB000C808080F191FD7B990E1C92EC4B882E0FC
:104FC0000E94C808080F191F15B8C8B9C7B9C4B9D5
:104FD00080E00E94C8080E9430097C01D8B8D7B888
:104FE000D4B981E00E94C8080E943009E80EF91E79
:104FF000D8B9D7B9C4B882E00E94C8080E94300965
:10500000E701C80FD91F17B818B814B820912901A3
:1050100030912A016901CC0CDD1CC20ED31EC01ACE
:10502000D10ACC1ADD0AE12CF12C9801A0E9BAE1F1
:105030000E94283AA70196010E94EA3949015A01C3
:1050400030933305209332059E01A0E9BAE10E9416
:10505000283AA70196010E94EA3930932C01209347
:105060002B012057354E309315012093140180E712
:10507000881A85EE980A90920E0180920D0189E1BE
:1050800080932501CDB7DEB7ECE00C94F43ACF92D3
:10509000DF92EF92FF920F93CF93DF93F82EC62FFC
:1050A000D42F0E944A0D88E091E00E94580D0E9482
:1050B0009E0DF2D16C2F8F2D0E94DE37C090BA0565
:1050C000D090BB05E090BC05F090BD058091190122
:1050D00087FD05C0C114D104E104F10421F084E08E
:1050E00091E00E94580D8C2F0E944A0DC114D104EA
:1050F000E104F10431F00E94A907809156050E9455
:10510000E30DDD2351F0809135058D3030F490E0D2
:105110008A5C9C4F0E94580D02C00E94F70B80E0F1
:105120000E94170CCD28CE28CF28D9F06091BA055F
:105130007091BB058091BC059091BD0503E028E40A
:1051400047EF0E94090E87E191E00E94580D87E425
:1051500093E00E946D3B23E046E464EF0E94F20E70
:105160001AC0809156050E94E30D809119018E3F6F
:1051700094F48FE291E00E94580D6091A105709126
:10518000A2058091A3059091A40503E028E4409135
:1051900019010E94090E8091B2059091B305A0916A
:1051A000B405B091B505892B8A2B8B2BF1F080E0EB
:1051B0000E94170C6091B2057091B3058091B405FF
:1051C0009091B50504E028E440E00E94090E82E1D8
:1051D00091E00E94580D23E040E26FEF8091B80506
:1051E0009091B9050E94F20E07C080E00E94FD0B6D
:1051F00080913805811102C00E94F70BDF91CF9199
:105200000F91FF90EF90DF90CF900895EF92FF9273
:105210000F931F93CF93DF93182F0E94B40B8091AD
:1052200083050E944A0D8BE491E00E94580D65D3DE
:1052300060918305809184050E94F909EC019093A7
:10524000800580937F05E0908105F0908205CA3F3C
:105250008FEFD80720F489E091E00E94580D8091EB
:1052600084050E944A0D112359F0909135058DE077
:10527000891B0E949E0B89E690E00E94580D02C097
:105280000E94F70B0E94BA0B609177057091780528
:105290008091790590917A0504E026E44091860595
:1052A0000E94090ECA3FDF4F68F48AE391E00E9432
:1052B000580D22E04DE06EEF80917F0590918005C2
:1052C0000E94F20E0E94F70B0E94C10BE114F10440
:1052D00069F083E391E00E94580D22E045E26FEF10
:1052E00080918105909182050E94F20E0E94F70B39
:1052F000CDB7DEB7E6E00C94FA3A8F7021F40E9445
:10530000C80B0C94F11908958F3021F490912F015E
:10531000913011F08F5F089580E00895CF9384E776
:1053200090E020D76AE080E00E94A70B80E493E041
:105330000E94580DC0E00E94C80F60E082E00E9409
:10534000642162E080E00E9464210E94B40B80919D
:105350006F05882329F041E062E080E098DE12C00A
:1053600084E790E00E94580D80E493E00E94580D7D
:105370000E94BA0B8FE30E94280D80E00E94FD0B73
:105380000E94F70B8C2FB9DF88EE93E00E94420F4A
:10539000811105C08C2FB8DFC82F8A3F60F20E94B0
:1053A000E30BCF9108950F931F93CF93DF93C0E04A
:1053B000D8E012EF0DE00E94C80F60E082E084DACE
:1053C000D093130180918505843FE1F480917305AA
:1053D00090917405A0917505B0917605843691057C
:1053E000A105B10578F440E060E082E00E946A35F2
:1053F000609373057093740580937505909376059B
:105400001093850580918505823FACF080938605D9
:105410008091730590917405A0917505B091760502
:105420008093770590937805A0937905B0937A05DA
:1054300081E0ECDE1CC00E94B40B8DE690E00E947F
:10544000580D80913505902F981B892F0E949E0B37
:1054500089E690E00E94580D0E94BA0B8FE30E94EB
:10546000280D0E94F70B0E94C10B0E94F70B8C2F96
:1054700044DF88EE93E00E94420F811106C08C2F1A
:1054800043DFC82F8A3F08F496CF0E94E30BDF91D9
:10549000CF911F910F910895A4E1B0E0E2E5FAE207
:1054A0000C94D23A82E080931901809113018130EB
:1054B00009F01FC280916F05813009F01AC2009176
:1054C000560524E0029FF0011124EA55FA4F80812D
:1054D0009181A281B381893032E59307A105B1059D
:1054E00008F007C24C0110E0802F123028F40E940F
:1054F0000308582E492E03C00E9403082C01E42DF6
:10550000F0E0E85AFD4F2490852D90E0FC01EB5A25
:10551000FD4FE49115B818B820EF82169104B0F44D
:1055200010FD14C0A0900D01B0900E0130E9A31A37
:105530003AE1B30A21E030E0052C02C0220F331F0C
:105540000A94E2F7C901822987B906C0E4B927B8ED
:10555000A0900D01B0900E01F4E13F2E852D0E9428
:10556000C4083C01842D0E94CC0834E06316710409
:1055700010F4049718F03A943110F0CF80E480933F
:105580007B0094E590BF852D806480937C0026E1AC
:1055900020937A00E12CF12C10928000109285006B
:1055A0001092840037E236BB0E948708812F8170F9
:1055B000382E10FD05C081E88093810028B808C00E
:1055C00028B80E94900890E296BB81E88093810001
:1055D00086B385FF12C018B81092810020E226BB66
:1055E000209186003091870069014091840050919C
:1055F00085002417350770F014C080FFE9CF31E033
:1056000036BBA89597012F5F3F4F790120353105B3
:10561000F9F6E1CF80FF05C081E086BB9FEFE91A74
:10562000F90A86E980937A00E4E12E2E852D0E9406
:10563000C4083C01842D0E94CC0824E06216710449
:1056400010F4049718F02A942110F0CF40903205FE
:1056500050903305480C591C4A0C5B1C20910F01DB
:105660003091100180E9A8168AE1B806B0F491EEF5
:10567000C916D104E104F10438F4C60165E070E014
:105680000E94C339645101C069E128523109261BC7
:10569000310967FD339586E009C0C20160EB76E30E
:1056A0000E94C33987E0860F285D3F4F90E0A0E05D
:1056B000B0E08C159D05AE05BF0528F4C81AD90ABF
:1056C000EA0AFB0A03C0C12CD12C7601332029F051
:1056D00082E2C80ED11CE11CF11C90E5E916F10430
:1056E00018F0C12CD12C76018BE0C816D104E1044E
:1056F000F10428F091E0C91AD108E108F1084091BD
:10570000290150912A01612C712CA8EEB3E00E946E
:10571000283A698B7A8B8B8B9C8B9501DA010E94DE
:10572000283AA30192010E94EA3944275527698942
:105730007A898B899C890E94EA39C9010E94D5091E
:10574000FC01A3019201C701B6010E94A8392B01F7
:105750003C01CF01A0E0B0E073E0880F991FAA1FC1
:10576000BB1F7A95D1F7BC01CD016B5F7F4F8F4F87
:105770009F4F2AE030E040E050E00E94EA39C30148
:10578000B2010E94EA39E12FF0E0A1E0B0E0AC0FF5
:10579000BD1F84E0189FA00DB11D11242D933D93D2
:1057A0004D935C931397311016C09CE0C916D10439
:1057B000E104F10480F03196EE0FFF1FEE0FFF1FA2
:1057C00081E090E08C0F9D1FE80FF91F208331834B
:1057D000428353831F5FA8951F5F143008F484CE63
:1057E00018B884E00E94940891E00D811E812F81F9
:1057F000388549815A816B817C8140175107620746
:10580000730708F090E00D851E852F85388949853E
:105810005A856B857C85401751076207730710F422
:1058200083E001C082E0E92FF0E0EE0FFF1FEE0FF2
:10583000FF1F21E030E02C0F3D1FE20FF31FD901C5
:1058400034E0839FA00DB11D11240D911D912D9168
:105850003C914081518162817381041715072607AD
:10586000370708F0892FE1E0F0E0EC0FFD1F94E02E
:10587000899FE00DF11D1124408151816281738166
:105880004093A1055093A2056093A3057093A405CE
:1058900080FD08C020EF8216910420F48BEF8093E6
:1058A000190117C08CEF80931901CB01BA016B5F0E
:1058B0007F4F8F4F9F4F2AE030E040E050E00E9442
:1058C000EA392093A1053093A2054093A305509394
:1058D000A4058091A1059091A205A091A305B09186
:1058E000A405892B8A2B8B2B11F41092190117B860
:1058F00014B86496E2E10C94EE3AA0E0B0E0E3E87C
:10590000FCE20C94D83A8091810590918205892B14
:1059100009F09BC0E0918305F0E0E85AFD4FD49177
:10592000E0918405F0E0EB5AFD4FC4910E948E2374
:1059300018B815B8D7B9C4B9809184050E94CC08AD
:105940008C01D09186058CE08D0F843008F07DC0ED
:105950008091770590917805A0917905B0917A05AD
:10596000D15F2AE0822E912CA12CB12CBC01CD015B
:105970006B5F7F4F8F4F9F4FA50194010E94EA39C3
:1059800069017A01DA01C901DF5FD73079F729E8C7
:10599000C21623E1D206E104F10408F056C00597CF
:1059A00008F453C0C5B9C4B9C0E0D0E0CC15DD05DA
:1059B00020F40E948E082296F9CF14B815B8A89545
:1059C00085E080932501809184050E94CC0808170A
:1059D000190720F4EC01C01BD10B02C0C0E0D0E0DD
:1059E000A12CB12CAC14BD0430F40E948E088FEFB2
:1059F000A81AB80AF7CF809184050E94CC0829E143
:105A000020932501A8950817190718F4801B910BFE
:105A100002C080E090E08C179D0788F49E01281B4F
:105A2000390B69F0A4EFB1E00E94283A9E0140E0F2
:105A300050E00E94EA3930938205209381050E944C
:105A40008E2317B818B814B815B8CDB7DEB7ECE088
:105A50000C94F43A8B3008F08B50811103C08AE12A
:105A600092E031C0813019F48EEA91E02CC082308E
:105A700019F481EF91E027C0833019F486EE91E0AC
:105A800022C0843019F48FE790E01DC0853019F4EE
:105A900084E790E018C0863019F48DE690E013C0DA
:105AA000873019F485ED91E00EC0883019F486EC4A
:105AB00091E009C0893019F488E092E004C08A308E
:105AC00021F48DEF91E00E94580D0C94F70B08958E
:105AD0000F93CF938FE790E045D3C0E0109213016E
