:1000000047C7000057C7000055C7000053C700008E
:1000100051C700000C9492354DC700000C9493100A
:1000200049C7000047C700000C94C7280C947635D8
:100030000C9484350C94A1283DC700003BC70000F8
:100040000C94503537C7000035C7000033C7000097
:1000500031C700000C9494102DC700002BC700007E
:1000600029C7000027C700000F0E110E270E150E1E
:10007000270E190E190E1B0E250E250E270E270E04
:100080001F0E1D0EE62FF72F903009F49395E5B85B
:10009000C4B8B6EFB0937A00A5E0A0937B00A8E0C7
:1000A000A093810010928000AFEFA0938500A093F1
:1000B0008400A6E0A093360010928B0010928A0074
:1000C000B3E0AFE3A91B51E0392F33302AF0A05C35
:1000D000BC4F53953350F9CFB0938900A09388005B
:1000E000A0917A00A4FFFCCFB6EBB0937A00A2E017
:1000F000A0936F00A9E0A093810062E0A0E0A0932C
:100100007B00A1E0A09353008895E5B8C4B884FFB4
:100110001AC0A8E10000AA95F1F7EF93FF93E7B1A9
:10012000F8B1A4E0C2FCA2E0C0FCA1E0BF2FBA2B52
:10013000AE2BB8B904B9A7B9E7B9F8B9FF91EF91F7
:100140000BC00C948100ACE100000000AA95F1F70F
:1001500025B9E5B8000004B9A0918400A0918500FC
:10016000B0918900A395AB1760F7A0917A00A4FF26
:10017000F3CFB6EBB0937A006A9571F7609178008F
:1001800070917900308186FD630F6193308186FD27
:10019000731F80FF7193652F4A9579F710926F0056
:1001A00010928100B6E0B0937A000895E001D90181
:1001B000D20118000720080808F80000002060A0FD
:1001C0003FA06020020202FF0202021010101F0076
:1001D0000000050842818989760508C2A1918986B7
:1001E0000508000402FF0010100508F87838588848
:1001F000091003081C3E7F0D080710FF818181F163
:10020000E1C1FF4040404743410D080110FFFF118D
:10021000080310F1E1C14743410E000820212112DB
:100220002060E0E0E0FEFE0402010001037F7F2188
:10023000C2C4C4C04094840007030102040E080233
:1002400010FEFE7F7F00000000110005202060E00E
:10025000E0E00201000103C2C4C4C0400703010280
:1002600004010410090A0C4E6F742063616C69620A
:1002700072617465642120466F72FF63616C69620C
:10028000726174696F6E20636C616D702074686553
:100290002033FF70696E7320746F676574686572D0
:1002A00020616E64207374617274207769746820B1
:1002B000746865FF6B65792E2041636B6E6F776C98
:1002C00065646765207468652073656C662D746568
:1002D0007374207769746820746865206B65792071
:1002E00077697468696EFF32732E20446973636F97
:1002F0006E6E6563742070696E73206166746572DA
:1003000020746865FF6D657373616765202269738A
:100310006F6C617465FF50726F6265212220697392
:100320002073686F776E2E20536F667477617265E5
:1003300020616E6420646F63756D656E74617469AD
:100340006F6E2069732061742073766E3A2F2F20B0
:100350006D696B726F636F6E74726F6C6C65722E09
:10036000206E65742F7472616E736973746F72207E
:100370007465737465722000B903870358032E03F4
:100380000703E402C302A40288020000140029004B
:100390003E005300690080009700AE00C600DF00F9
:1003A000F80012012D01490165018201A001BE0181
:1003B000DE01FF012102440268028E02B502DE0264
:1003C0000903350364039403C803FE03370473046D
:1003D000B404F90443059305EA054906B306290761
:1003E000AE074808FF08DE09FD0A930C480F991B69
:1003F00000000000000000000000000000000000FD
:100400001E2121211200807F0000007E4A4A4A34CA
:10041000000000000000FC40201008040201000061
:1004200000010101010101010101010101017F043C
:1004300088D0E0F0F800000000000000000000009C
:1004400000000000000000FC94948400000102FC05
:100450000000000000000000000000001E2121211B
:1004600012E0C0804020100F000000C0202020407B
:10047000000000FC00009E9E040303030302000032
:1004800000202023242525232020203F00007B7BE3
:100490002142840480C00000000000000000000031
:1004A00000000000FC94948400040607070708F08D
:1004B00000000000000000000000000000803F215C
:1004C00021120C00000000FF000000F0084848C89E
:1004D0000000FE0000E7818181C1E1F1818181019D
:1004E000002020202121212020203F0000F3404037
:1004F0004041434740407FC0000000000000000032
:10050000000000000000489494946400000000FF84
:1005100000000000000000000000000000000000DB
:100520003F2121120C0000FF000000F0084848D0D5
:10053000000000000000FEFE04040404040404079C
:100540000008080809090908087F3E1C08087F7F81
:1005500020202020202020E00000000000000000DB
:10056000000000000000000048949494640000FF24
:100570000000000000000000000000FF003C0A092D
:100580000A3C002231292926000082868E9EBEFE6A
:10059000FEBEDEEFF6FAFEFEFAF2E2C282000000D4
:1005A00008080804027984A4A46800FF0000000081
:1005B000000000000000000000000000000000003B
:1005C000000000FF0000F0282428F0001008FC00C4
:1005D00000000000000000000000003C0A090A3C86
:1005E00000FF00000000000000000000000000000C
:1005F00000000000040C1C3C7CFF7C3C1C0C040034
:1006000000000000009EA1A9A99A804323130B07B4
:1006100003FF0303030303030000000000000000C6
:10062000000000788484844800FF0000000000007F
:10063000000000F00804E211090909090909090983
:10064000091121C2040810E000000001020404079F
:10065000000000000080402010884423100804039C
:100660000000000000000000000000FE0100FC028D
:100670000100000000000000000000000000000079
:1006800000000079494979000000000000000000E6
:1006900040F010101010F0400001010101010100B4
:1006A00040FCF8F0E040FC400007030100000700B8
:1006B00040FC40E0F0F8FC400007000001030700A8
:1006C000000000000000000000000000000000002A
:1006D00040FCFC0000FCFC4000070700000707008E
:1006E000000000000000000000000000000000000A
:1006F00040F8080808080808000302020202020283
:10070000080808080808F840020202020202030072
:1007100040404040404040400000000000000000D9
:10072000C0000080000080000102020102020102FC
:1007300000800000800000C00201020201020201EC
:1007400000000000000000000000000000000000A9
:1007500000F8040222548800101F10020201000059
:100760007884820282847800060407000704060069
:1007700000FC000000F01000100F0204020704004B
:100780000000000000000000000000000000000069
:1007900008F8080088F808000000010104070400B8
:1007A00008F808C008F80800040704070407040054
:1007B0003808F8482020C0000004070404020100A3
:1007C00008F84820C000F8000407040403000700EC
:1007D00008F84820204080000407040404020100B7
:1007E000381008E84850E000010204040402010047
:1007F00008F840F00808F0000407000304040300B0
:100800006090080808F808000004050305070400C4
:100810000000F80402FE02000C06050404070C00A8
:1008200002FE020002FE02000407040404170C008A
:1008300002FE02F002FE02000407040704170C0087
:100840000000E01008F808000C06050404070C007E
:10085000804028F8284080000102141F1402010083
:1008600008F8080008F808000407040404170C003E
:1008700008F808C008F808000407040704170C006B
:100880000C3CFCFCFC3C0C000000000000000000E4
:100890000000000000000000000000000000000058
:1008A000000000FE000000000000000D000000003D
:1008B00000160E0000160E000000000000000000F0
:1008C0000010FC1010FC10000001070101070100DE
:1008D000001824FE448800000003040F04030000F5
:1008E0000C12924C201008000201000609090600B3
:1008F0008C5222528C40C000010204040401020008
:10090000000000160E0000000000000000000000C3
:100910000000F008040200000000010204080000CA
:100920000000020408F000000000080402010000BA
:100930004850E0FCE05048000201000700010200BE
:10094000404040F84040400000000003000000002C
:100950000000000000000000000000160E00000073
:1009600040404040404040000000000000000000C7
:10097000000000000000000000000006060000006B
:10098000000080402010080002010000000000006C
:10099000F80402020204F800010204040402010047
:1009A000000804FE02000000000404070404000024
:1009B0000804028242241800040605040404060008
:1009C00006020202122AC600010204040402010007
:1009D000C0A09E8080FC800000000000040704008E
:1009E0003E120A0A0A12E60001020404040201008F
:1009F000F84422121224C00001020404040201007F
:100A00000E02C262321A0E00000007000000000051
:100A100088542222225488000102040404020100A6
:100A2000384482824224F8000002040404020100D7
:100A3000000000181800000000000006060000007A
:100A40000000001818000000000000160E00000052
:100A50000040A01008040200000000010204080089
:100A600000202020202020000001010101010100C0
:100A70000002040810A04000000804020100000069
:100A800018040282422418000000000D000000003B
:100A9000F804D252E204F80001020505040504023C
:100AA00000F0080402FE0200040705010507040027
:100AB00002FE2222225488000407040404020100DA
:100AC000F804020202048E00010204040402010080
:100AD00002FE02020204F8000407040404020100FA
:100AE00002FE222272020E0004070404040407001E
:100AF00002FE222272020E0004070404000000001D
:100B0000F80402C24244DE000102040402010700AC
:100B100002FE222022FE0200040704000407040053
:100B2000000202FE020200000004040704040000A8
:100B30000000000202FE020000030404040300009F
:100B400002FE62900804020004070400010604008B
:100B500002FE020000000000040704040404070071
:100B600002FE38E038FE0200040704000407040017
:100B700002FE1A6082FE020004070400050704005A
:100B8000F80402020204F800010204040402010055
:100B900002FE424242241800040704000000000044
:100BA000F80402028204F8000102040404050204AD
:100BB00002FE42C242241800040704000106040099
:100BC0008814222222448E0001020404040201003F
:100BD0000E0202FE02020E000004040704040000DC
:100BE00002FE020002FE02000003040404030000EF
:100BF00002FE820082FE02000000030603000000E5
:100C000002FE02F002FE02000001070307010000DD
:100C100002DE722072DE02000407040004070400F2
:100C2000027EC280C27E02000000040704000000B1
:100C30000E824222120A060007040404040407007C
:100C400000FE02020200000000070404040000008D
:100C50000810204080000000000000000001020099
:100C60000000020202FE000000000404040700006D
:100C7000100804020408100000000000000000003A
:100C8000000000000000000008080808080808002C
:100C90000000000E16000000000000000000000030
:100CA000904828284890E00001020404040207004C
:100CB00002FE10080810E00004070204040201000C
:100CC000E0100808081038000102040404020100C2
:100CD000E010080810FE02000102040402070400EC
:100CE000E05048484850600001020404040201003A
:100CF00020F82422020C0000040704040000000075
:100D0000E010080810F80800000912120907000096
:100D100002FE100808F000000407040004070400A5
:100D2000001016F600000000000404070404000090
:100D30000000101616F00000000C1010100F00003C
:100D400002FEC02010081800040704010204040079
:100D500000000202FE00000000000404070404007A
:100D600008F808F008F00000040700070007040076
:100D700008F8201008F0000004070400040704002D
:100D8000E01008080810E000010204040402010059
:100D900008F810080810E000101F120404020100F7
:100DA000E010080810F8080001020404121F1000E7
:100DB00008F82010080830000407040000000000B4
:100DC0001028484848903800010204040402010039
:100DD0000808FE08080000000000030404040200E4
:100DE00008F8080008F808000003040402070400DB
:100DF00008F8880088F808000000030603000000D7
:100E000008F808C008F808000003060306030000FD
:100E100008B8E040E0B8080004070000000704003C
:100E200008F8080008F8080000091212110F000065
:100E30001808884828180800060504040404060059
:100E400040B01C020200000000010708080000007A
:100E5000000000FE000000000000001F0000000075
:100E6000000002021CB0400000000808070100005A
:100E70000C02020408080402000000000000000048
:100E8000C02010081020C000010101010101010073
:100E900011241FBECFEFD8E0DEBFCDBF21E0A0E020
:100EA000B1E001C01D92AA3CB207E1F70E943E15D5
:100EB0000C94933EA5C85D98559A80FD599A80FF81
:100EC0005998519A539A5A9867FD5B9A67FF5B98B5
:100ED0005A9A5A9866FD5B9A66FF5B985A9A5A9896
:100EE00065FD5B9A65FF5B985A9A5A9864FD5B9A18
:100EF00064FF5B985A9A5A9863FD5B9A63FF5B980C
:100F00005A9A5A9862FD5B9A62FF5B985A9A5A986D
:100F100061FD5B9A61FF5B985A9A5A9860FD5B9AF3
:100F200060FF5B985A9A5D9A5A985B98089597FF6C
:100F300009C08F939F938DE247D69F918F91909593
:100F400081959F4F64E271E04AE050E00E94323E9A
:100F500088C60895ECDF01C0EADF80E235C68DE285
:100F600033C68DE331C6EF92FF920F931F93182F74
:100F7000062FF42E87E791E07FD6EE24E0913F0123
:100F8000F09140018685E81611F4812F09C084850F
:100F9000E81611F4802F04C08585E81611F48F2D12
:100FA00013D6E3948E2D833049F71F910F91FF9054
:100FB000EF900895EF92FF920F931F93182F062F33
:100FC000F42E80E0FAD48DE791E056D6EE248E2DF3
:100FD00045D6C7DFE0913F01F09140018685E816D4
:100FE00011F4812F09C08485E81611F4802F04C004
:100FF0008585E81611F48F2DE7D5AFDFE3948E2DAC
:10100000833029F71F910F91FF90EF900895682F7B
:1010100080E092E0662309F491E0623009F481E017
:1010200008950F93082FE2EBF1E0880F880FE80F87
:10103000F11D608171818281938164367105810522
:10104000910568F42091220127FD09C0802FDFDF80
:10105000692F0BD26EEF23E04DE03DD704C04FEF78
:1010600004E02DE04FD679DF0F910895863058F4D3
:10107000E1EAF1E0E80FF11DE80FF11D80819181B7
:1010800063E034D76ACF08951F93182F80917A01B7
:10109000882319F062DF80E097D556D48EE691E080
:1010A000EBD5812F82958F70E1DF812F8F70DEDF8E
:1010B0001F9108958091060182958F7019D08091BB
:1010C000060183701CD080910601DECF0895E5E90A
:1010D000F1E0E80FF11D0895CF93F9DF9081C6810B
:1010E000C91710F405D001C013D037DFCF91089590
:1010F000EEDF8F938081B2D58F9101C008958F93D9
:101100008CE391E0B9D58F91E2DF8681A7C5089580
:10111000DEDF8F938681A2D58F9101C008958F93D2
:1011200088E391E0A9D58F91D2DF808197C508959A
:101130008F932F932AE080953B9A089410F443985C
:1011400002C0439A000020D027D086952A95B1F797
:101150002F918F91089503D002D001D000D000D0FC
:1011600003D002D001D000D000D003D002D001D0F3
:1011700000D000D0A89503D002D001D000D000D07C
:1011800003D002D001D000D000D003D002D001D0D3
:1011900000D000D003D002D001D000D000000895CC
:1011A00090E0893C28F0885C48EC849FC0011124C1
:1011B000009709F4089520918100277019F0DADF73
:1011C0000197F6CF8130910519F002973EE303C0F5
:1011D00037E180E090E02091B200230F2093B3002C
:1011E00042E04093700027E023BF889526E023BFAC
:1011F00010927000A895DCCF8F9384E0D1DF07C0F8
:101200008F9382E0CDDF03C08F9381E0C9DF8F91A0
:101210001F93182F106410937C00E12FE0788091C9
:101220002F01E81759F0E0932F01AEDF8EE980938C
:101230007A0083E083BF889582E083BF20E030E0BE
:10124000A901E0E01FC08EE980937A0083E083BFAC
:10125000889582E083BF6091780070917900260FB5
:10126000371F411D511DE43061F480913101803000
:1012700041F084E02030380720F417FD02C01068E8
:10128000CACFEF5F80912E01E817E8F2609132013A
:101290007091330117FF04C06091300170913101EA
:1012A00080E090E00E94A23C2FEF33E040E050E06D
:1012B0000E94E43CB901CA0120912E0130E040E0D7
:1012C00050E00E94E43CC9011F9108959B01281B36
:1012D000390B50F0C9010895BC0180913201909101
:1012E00033016817790718F4861B970B089580E07F
:1012F00090E0089582E593E00E94653E382F83E5F3
:1013000093E00E94653E20913601230F3091370112
:10131000381F209316013093170183E0283E3807C9
:1013200020F0C901885E934002C080E090E062E353
:1013300070E00E94BD3C683008F067E0E8E7F3E049
:10134000E60FF11DE60FF11D45915591259135915F
:1013500062E3681B421B530B649FC001659F900DA5
:101360001124499662E370E00E94BD3C620F731F36
:1013700070937E0160937D0184E593E00E94653E59
:10138000992787FD90956091360170913701860FFE
:10139000971F90933101809330019093790180934E
:1013A000780108950F9221E08C32920710F48CE2BC
:1013B00091E08C52914069E170E00E94BD3C99E15E
:1013C0006B3210F0982F6BE2981BECECF2E0E60F1A
:1013D000F11DE60FF11D9F93CF010E94653E482F3E
:1013E0003196CF010E94653E582F3196CF010E9461
:1013F000653E282F3196CF010E94653E382F6F91B0
:10140000421B530B649FC001659F900D11240C96E5
:1014100069E170E00E94BD3C620F731FCB010F9029
:101420000895CF93DF9324E130E0B9010E94BD3CE1
:10143000DC01EAE8F3E0E60FF71FE60FF71FC591BE
:10144000D591459155914C1B5D0B4A9FC0014B9F17
:10145000900D5A9F900D1124B9010E94BD3C6C0F54
:101460007D1FCB01DF91CF910895AEE1B0E0EBE3BA
:10147000FAE00C94D23D662EB82E860F8983209117
:101480001A01283059F5209183013091840140914F
:1014900085015091860157FD15C01091920109C038
:1014A000CA01B9012AE0312D412D512D0E94E43CA1
:1014B0001F5F173FACF391F4243160E0360741051C
:1014C000510518F48FEF9FEF42C1173F39F480E0C8
:1014D00028178DE738074105410510F020E03DE76A
:1014E0002C8B3D8B26EDA22EE4E6F2E0E60DF11DFD
:1014F000859188608E87E4E6F2E0EB0DF11D859121
:1015000088608F87E1E6F2E0E60DF11D7590E1E677
:10151000F2E0EB0DF11DC59090EC692AB92A81E04B
:10152000E82EF12C012D112D8E831F82188619862D
:101530001A861B861C861D86188E198E1B8E1A8E87
:101540000E94082588E088B960927C001DDE3F85F6
:1015500037B975B874B852E05A95F1F70000000039
:1015600014B815B8DD243E8537B975B874B86092E3
:101570007C00A895A0927A0080917A0086FDFCCF2D
:101580002090780030907900B0927C004C2DE3D010
:101590002091780030917900288B398B3F8537B9BD
:1015A000C5B8C4B8A895B0927C00A0927A0080918A
:1015B0007A0086FDFCCF609178007091790060928E
:1015C0007C00472DC8D0409178005091790014B824
:1015D000CB01820D931DE80EF91E011D111DEA823B
:1015E000FB820C831D8388899989840F951F2E8126
:1015F0003F8168857985280F391F611D711D2E83F4
:101600003F836887798722E32417150648F075B869
:1016100074B8C4DD14B815B8888D8395888F07C059
:10162000483E73E0570718F08A8D83958A8F888922
:1016300099892817190658F03E8537B9C5B8C4B836
:10164000ADDD14B815B8898D8395898F07C0883EA4
:1016500073E0970718F08B8D83958B8FD3945D2D56
:101660005F3F49F05F3731F45C2D550FC50E572DA4
:10167000550F750E78CF40903B0150903C01440CC3
:10168000551C9201E4E0240D351DEA95E1F729018E
:10169000570168016E807F808884998420911A01A7
:1016A0002830C1F46C897D89812D912D6550704061
:1016B000804090409B01AC010E94A23C9B01AC0188
:1016C00060E779E786E190E00E94E43C621A730AE1
:1016D000840A950AA614B704C804D90428F46A1821
:1016E0007B088C089D0803C0662477244301B2015F
:1016F00080E090E09301A4010E94A23C9501A60124
:101700000E94E43C8AE293E07981870F911D0E9458
:10171000653E682EC90160E170E00E94BD3C260F65
:10172000371FC9016816190618F4861991090FC0E8
:101730008C5E9F4F8615910540F48C899D89843974
:1017400081E1980710F00E94E314812D912D6E968F
:10175000E2E10C94EE3D1092810010928000109214
:101760006F0010928B0010928A0057E056BB5FEF1B
:10177000509385005093840055E050937B0056EBC6
:1017800050937A0051E05093810058E25A95F1F756
:10179000000045B944B955E05A95F1F7000014B876
:1017A00015B81092810080917A0084FFFCCF80935D
:1017B0007A000895CF93C82F1C161CF4CEDBC150BD
:1017C000FBCFCF91089560933E01809303018695EE
:1017D0008093B101660F660F660F60930401089550
:1017E00080913E01809301018091B10180930201BB
:1017F00008958091020160910101880FE4CF08955E
:10180000CF93C82F692F81E056DB6C2F81E053DB2B
:10181000CF910895682F80E04ECB08958DE088DC4D
:101820008AE086CC08951092B10160E080E0CBDFC1
:10183000F5CF0895CF93DF938AE2ECDF80E090E06C
:10184000DFDF80E890E0DCDF8BE2E4DF80E090E047
:10185000D7DF80EA90E0D4DF8CE2DCDFC0EAA89535
:10186000D0E080911B0190911C01CADFDF5FD0386E
:10187000C1F7C150A1F7D7DFDF91CF910895CF9382
:10188000DF9358985A985B985D98509A529A539A59
:10189000559A7FDC5D9A559A5998519A84E180DC7B
:1018A000589A84E17DDC8AE07BDC81E1B3DF84E06F
:1018B00077DC86E2AFDF64E081E0FDDA81EBAADF6E
:1018C0006EE081E0F8DA64E181E0F5DA80ECA2DF35
:1018D00080E09EE095DF81EC9DDF65E081E0EBDA62
:1018E00085EC98DF80E498E38BDF8AE393DF65E0A3
:1018F00081E0E1DA86E38EDF89E293E00E94653ED3
:10190000CBE1D1E0888388E293E00E94653E898341
:1019100087E293E00E94653ECCE5D1E0888386E2D1
:1019200093E00E94653E89836CE181E0C4DA84EB38
:1019300071DF60E081E0BFDA7DDF89E26BDF8AE0A2
:101940002FDCDF91CF91089581E08093B10160E0B9
:1019500082E039DF63CF089582E08093B10160E0D7
:1019600084E031DF5BCF089583E08093B10160E0D4
:1019700086E029DF53CF089590913E0180E1891BD5
:1019800019CF0895CF93C82FF7DF8091B1018F5FF2
:101990008093B1018A3038F089E08093B10181E011
:1019A0008093410102C0109241018091B1016C2FDE
:1019B000880F09DF33DFCF910895E4DF8BD3809167
:1019C000B101833008F02ACF08952DDFD5DF2BCF6A
:1019D0000895BADFD1DFB8CF0895582F28E030E05E
:1019E00090E841E080E0652F642309F0892B440FE3
:1019F000969521503109B9F70895A4E0B0E0E3E0ED
:101A0000FDE00C94D23D9C838B83F42E10E0A62E37
:101A1000B12CC501800F911F813891050CF08BC04E
:101A20008E2D90E0AC014F0D511D413A51050CF047
:101A300082C0EA94EF0C3FE93E1510F44FE9E42E22
:101A4000322F3270398321FF13C0019733E095950F
:101A500087953A95E1F7809FA001819F500D909F57
:101A6000500D11248B819C81840F951F9C838B8347
:101A700021702A83280191E0491A5108EF1408F4D3
:101A80005AC0C12CD12C8F2C912C140137E0230E7D
:101A9000311C0C151D0509F43DC08BE2BBDEC401F1
:101AA000AFDEC101ADDE8AE2B5DE35016C0C7D1C16
:101AB000C301A6DEC301A4DE8CE2ACDE3A8133238F
:101AC00041F0F201EC19FD098B819C81E80FF91FAF
:101AD00004C0EB81FC81EC0DFD1D74909981911186
:101AE00003C0872D7ADF782E88E0682E77FE05C048
:101AF00080915C0190915D0104C080911B019091E7
:101B00001C017EDE770C6A946110F0CF3FEFC31AA0
:101B1000D30ABFCF8981882329F08B819C81801BC8
:101B2000910B04C08B819C81800F911F9C838B83C0
:101B300098E0F90EA3CF2496E2E10C94EE3DEF92EB
:101B40000F93482F282F2F7380E6289F9001112490
:101B5000C90180519C4F46FF02C028E001C028E423
:101B60002093050147FF03C01092000108C020E246
:101B700020930001209105012D5E2093050120E2B4
:101B8000E22E08E120E0409100016091050135DF7F
:101B90000F91EF900895EF920F93262FFC0164911F
:101BA00031964491319604913196E4903091000140
:101BB000430F30910501630F04961FDF0F91EF90E3
:101BC000089560E0E8CF0895EF920F93CF93C82F68
:101BD00080913E018F5F80933E0140910301440F4D
:101BE000440F440F20E1C29FC001112420E1E22EE6
:101BF00008E020E0609104018057994FFEDE80915B
:101C00000401885F809304018C2F90E0FC013197E0
:101C1000EE30F105E0F4EC5CFF4F0C94223D8EE3D6
:101C200005C08CE785DA8CE313C08CE781DA8CE79A
:101C30000FC082E50DC08DE20BC085E709C08FE4BF
:101C400077DA88E675DA8DE603C08CE401C08C2F64
:101C50006FDAA895CF910F91EF9008958F5CB4CF74
:101C60000895CF93DF93EC018991882311F0ACDFC5
:101C7000FBCFDF91CF910895CF93DF93EC01CE019D
:101C80000E94653E982F9F7719F09EDF2196F7CF2F
:101C9000DF91CF910895EF920F93FC01049131965B
:101CA000E4900296AADE0F91EF9008950F9385E9D4
:101CB00091E0E2DF409191014D3F64F460917F013A
:101CC00070918001809181019091820103E026E46E
:101CD00019D002C08FE378DF0F9108959091190118
:101CE0009F70923071F469DE84E690E0C5DFE09188
:101CF0003F01F091400122E04DE06FEF848195813A
:101D0000EAC00895AEE0B0E0E8E8FEE00C94D23D11
:101D1000142F622E702E6B017C010F7080E389837B
:101D20008A838B838C838D838E83F7FE0AC017D9B9
:101D3000F094E094D094C094C11CD11CE11CF11C1F
:101D400004C075FE02C08BE23FDF033071F0043047
:101D500099F00530C1F00630F1F0073021F174E65A
:101D6000872E912CA12CB12C25C068EE862E63E025
:101D7000962EA12CB12C1EC050E1852E57E2952E37
:101D8000A12CB12C17C040EA842E46E8942EAA2438
:101D9000A394B12C0FC030E4832E32E4932E3FE0A5
:101DA000A32EB12C07C020E8822E26E9922E28E926
:101DB000A22EB12C9AE0292E312C412C512CC81482
:101DC000D904EA04FB0470F0C701B6016B5F7F4FD2
:101DD0008F4F9F4FA20191010E94E43C69017A015B
:101DE0001F5FEDCF81E1810F9BEA899F812D112437
:101DF000A82EA69486E0811B899F112D112416958B
:101E0000912F990F190F811B182F4E0187E0880E13
:101E1000911C2AE0A401C701B6010E94113EF40101
:101E200001900020E9F731977F01E818F9089E2C0E
:101E30006701DD24812F90E004968C159D0514F434
:101E4000A3941D5F8A2D90E0845D9F4F0E94653EA4
:101E5000A82E74FE04C0901610F40E1901C000E004
:101E60008E2C811A800E181424F08EE2ADDE012F24
:101E70000E19111102C088EF882E912C10E0C00EAF
:101E8000D11EE82C082C000CFF08892D90E08C1541
:101E90009D05ACF4FC013696E01BF10B81E090E06F
:101EA0008C0F9D1FE80FF91F80818EDE9394892D82
:101EB00090E08E159F0549F78EE286DEE6CFAA20D8
:101EC00011F08A2D81DE662011F0862D7DDE2E96A2
:101ED000E2E10C94EE3D0F93362FBC0180E090E0E0
:101EE000022F242F432F0EDF0F9108950F93062FFB
:101EF000BC0180E090E026E54DEF04DF0F910895EE
:101F00000F93042F28E440E0FDDE8AE75DDE25D84C
:101F10000F910895E82FF0E0EE0FFF1FE455FE4FFC
:101F2000A591B49190910001490F90910501690F1D
:101F300020E0CD01B0CE0895CF93DF93C82FD62FE8
:101F4000E0913F01F091400148E16EE18685E2DFDA
:101F5000E0913F01F09140014D2F6C2F8485DADF35
:101F6000E0913F01F091400140E06EE18585D2DFD4
:101F7000DF91CF91089599B193FB992790F94999F1
:101F8000926080911101843050F08EE080930D01B9
:101F900090930E011092120181E0809311018091C3
:101FA0001101E82FF0E0E35FFE4F3081931729F134
:101FB00091111AC0E3E0E80FE37020911201323072
:101FC00041F4F0E0E35FFE4F3081333069F42F5F7E
:101FD00009C0313049F4F0E0E35FFE4F3081333027
:101FE00019F4215020931201E1E0E80FE370E0932F
:101FF0001101F0E0E35FFE4F90838091120187FDB5
:102000008195809313010895A0E0B0E0EAE0F0E14B
:102010000C94DB3DE82ED92E53985198B0D81092ED
:102020001201E0911101F0E03196E370FF27E35FC8
:10203000FE4F80EF8083C5E6D9E19DDF4F9905C053
:10204000A2D8D150D1F7C150B9F7CE2DDD2DF12C4A
:1020500015E500E0BB24B394D7FD36C082E3C82E5B
:102060008ADF91D8CA94C110FBCF110F4F9B1F5F1D
:102070001F731F3349F4011103C0CE2DDD2D04E081
:102080000F5F083C28F020C0111102C001111CC0D4
:10209000A8951C161D0624F42A9711F4CFEFDFEF44
:1020A00080911301882339F0F39480917B01811191
:1020B00002C0B0927B0184E18F1570F6809112010D
:1020C000811102C0F12CC8CF802FCDB7DEB7E9E077
:1020D0000C94F73DCF9384DBC82F80914101882376
:1020E00001F1813051F4C93041F46FE082E16BDBE2
:1020F0008BE26ADD6FE082E166DB80E49FE184DFF2
:10210000811104C0809113018111F7CFC93041F4CE
:1021100080914101813021F460E082E154DB2CDCCC
:1021200068DBCF9108951895189530911801A0910A
:102130003F01B0914001E5E9F1E080E090E08317D4
:10214000B0F441911C962C911C97421719F04581CF
:10215000241302C00196F3CFFC01EE0FFF1FEF55D1
:10216000FE4F20813181293E334008F4089584E1F7
:10217000089510921A011092180110927301109292
:1021800051011092190110923D0110927A01EEE571
:10219000F1E0108211821282EFE7F1E0108A82E012
:1021A000818B109222011786168614821582168260
:1021B000178281EF838B08958FE40E94980886E44C
:1021C0000E94980886E40E94980828DB5E980E9486
:1021D000AE0880E090E018CF08951F93CF93DF936F
:1021E000162F98E097B998B9E82FF0E0EF59FD4F16
:1021F000949195B9262F281BE20FF11D27FDFA9522
:10220000E491E92BE4B904D8EC01812F01D8AC01A9
:10221000209132013091330136952795C9010397FA
:10222000BE01625E7F4F8617970778F4255E3F4FA9
:10223000C217D30750F4BA01625E7F4F8617970723
:1022400020F481E04217530708F080E014B8DF91D2
:10225000CF911F910895CF9361E080E0BEDFC82F3A
:1022600062E080E0BADFC80F62E081E0B6DF8C0F89
:10227000CF910895AFE0B0E0E0E4F1E10C94D23DFD
:10228000B82E10921A01807FA9F4E5DF833009F09F
:1022900096C3D0DA8EE592E0EFDC56DB8FE394DC78
:1022A00080ED97E0B1DE8B30C8F4C4DA8AE091E0CB
:1022B000E3DC85C306E910E0BDDA8DEC91E0DCDCFF
:1022C000CADF833021F41F5F143010F007C010E024
:1022D00088E20E94D008015079F760C035DB0E9487
:1022E000E92881EB90E0C8DC60E08CE293E00E949A
:1022F000723E60E08DE293E00E94723E60E08BE20D
:1023000093E00E94723E60E082E0AFD86C019A8355
:10231000898361E082E0A9D87C019C838B8360E0A3
:1023200081E0A3D88C019E838D8323E040E26EEF91
:10233000C601D1DD23E040E26EEFC701CCDD23E032
:102340004DE06EEFC801C7DD2AE5C216D10424F0C6
:1023500084E190E09A83898369818CE293E00E9412
:10236000723E8AE5E816F10424F084E190E09C8353
:102370008B836B818DE293E00E94723E0A351105DA
:1023800024F084E190E09E838D836D818BE293E065
:102390000E94723E82E0809341019CDEEB2DEF7043
:1023A000EF87E13011F018E749C1EE24E394F12CF6
:1023B00078EB872E72ED972E77E4A72EB12CE2E012
:1023C000DE2E08E0F0E23F2EC12C1E2D52E2252E1B
:1023D00000DBFBDA84E5F8DBC7010E94A2070E945C
:1023E000AD071130B9F484EE90E046DC64E08091F2
:1023F0003601909137017ADDA7DA8FED90E03CDC71
:1024000080917D0190917E010E94A2078EEB8093C6
:102410002E01F0C0123091F520913201309133013C
:10242000A8E5BBE10E94283D24EC36E340E050E003
:102430000E94063D29013A0181E085B9F5E0F4B931
:1024400080E00E94FC08841995099A83898381E1C0
:1024500084B980E00E94FC08841995099C838B83D1
:1024600084E085B984E184B981E00E94FC08841984
:1024700095099E838D8389EC90E0AAC0133059F5AD
:10248000D5B82AE024B980E00E94FC0820913201EE
:10249000309133013695279538872F83821B930B14
:1024A0009A83898324B880E00E94FC082F813885B4
:1024B000821B930B9C838B8305B988E284B981E0EE
:1024C0000E94FC082F813885821B930B9E838D838D
:1024D0008BEB90E07DC0143039F48EE492E0CCDBDD
:1024E000BADE811169C275C01530B1F415B8D4B81F
:1024F00080E00E94FC089A83898304B981E00E94ED
:10250000FC089C838B8334B882E00E94FC089E8385
:102510008D838BED90E05CC0163051F5D4B8D5B802
:1025200080E00E94FC082091320130913301821B2F
:10253000930B9A83898304B905B981E00E94FC0852
:102540002091320130913301821B930B9C838B834A
:1025500034B835B882E00E94FC08209132013091F5
:102560003301821B930B9E838D8387ED90E030C0F7
:10257000173079F52091320130913301A8E5BBE1A4
:102580000E94283DA50194010E94E43C29013A01E2
:10259000D5B8E3E0E4B980E00E94FC08841995090D
:1025A0009A83898305B9FCE0F4B981E00E94FC08B4
:1025B000841995099C838B8335B820E324B982E084
:1025C0000E94FC08841995099E838D8385EB90E019
:1025D00053DBBAD989819A810E9497070E94AD077F
:1025E0008B819C810E9497070E94AD078D819E81FF
:1025F0000E94970707B908B914B815B888EE93E098
:1026000003DD143011F08B3020F4C39484E0C81241
:10261000DFCE88EE93E0F8DCEFEFEE1AFE0AF8E08A
:10262000EF16F10409F0D0CEBECED3D98EE492E0FD
:1026300023DB84E60E94D008115019F00CDE8111D2
:10264000F4CFF8D88AEA90E017DB23E04DE06FEF93
:1026500080913401909135013EDC76D983EA90E097
:102660000BDB23E04DE06FEF80913B0190913C014B
:1026700032DC82E0809341012DDD10921A01DAD81C
:102680008FE990E0F9DA60E082E00E94D82540907E
:102690008701509088016090890170908A015C8662
:1026A0004B8661E082E00E94D8258090870190905F
:1026B0008801A0908901B0908A019E868D8660E095
:1026C00081E00E94D82500918701109188011E8326
:1026D0000D8362E080E00E94D8258091870190916F
:1026E00088019C838B8362E081E00E94D8258091E1
:1026F0008701909188019A87898761E080E00E9434
:10270000D825E0908701F0908801FA82E982C20121
:102710000E94AC07C4010E94AC07B801110F880BDE
:10272000990B03E026E444EFEDDA2F85213021F008
:1027300080913A01823031F482E0E80EF11CF88693
:10274000EF8204C0F886EF8210923A018E010F5F8B
:102750001F4F6E01EFE0CE0ED11CF80181919191D7
:102760000A97853B9105C8F4EC15FD05B9F74BE4D4
:10277000E42E43E0F42EF80160810E5F1F4F6E5E81
:10278000C7010E94723EFFEFEF1AFF0A0C151D05EC
:1027900091F7DAD88AEB91E06FDA82E08093410119
:1027A00099DC0E9447392F85213029F080913A0128
:1027B000823009F0EAC03ED880E050DA80E691E04D
:1027C0005BDA82E04BDA84E290E056DA20E4F22E23
:1027D00010E03AE0832E912CA12CB12CCADC10928F
:1027E0001A0160E082E00E94D825009191012091B9
:1027F0007F01309180014091810150918201073F1A
:1028000044F40F5FCA01B901A50194010E94E43CA0
:10281000F6CF0093910120937F0130938001409384
:10282000810150938201073F09F097C0DA01C90185
:1028300080569109A109B10980399545A105B105D5
:1028400008F08BC06091930170919401CB018B567D
:102850009F4F8B32914008F080C01F5F153008F405
:102860007DC082E593E00E94803E0E941A0C8DE1BB
:1028700090E002DA80919301909194010E94970771
:102880000E947A0988E088B989E087B980E284B932
:1028900082E00E940809853D9340D4F714B8109255
:1028A00031011092300182E00E9408098C01809170
:1028B000780190917901909331018093300182E009
:1028C0000E9408097C01EE0CFF1C1092310110924D
:1028D000300182E00E940809A0907801B09079014F
:1028E000B0923101A0923001800F911F8C010E191E
:1028F0001F092AD886E190E0BFD984E593E00E94C1
:10290000653ED82E9501D8010E94373D97010F2CC6
:10291000000C440B550B0E94063D13E01D0D120FD9
:10292000612F84E593E00E94723E812F012E000CFE
:10293000990B0E9497070E947A0982E080934101D7
:10294000C9DB10923A018BE493E00E94653E682F48
:102950008EE493E00E94723E18C010E00E94A40C26
:1029600060917F017091800180918101909182013D
:1029700004E026E440919101C5D90E94BC0C88E294
:102980000E94D008FA94F11029CF89E180932E019A
:1029900080E00E945C3C0E941A0C8AE091E06CD9B5
:1029A0000E94A40C85E492E067D910921A0182E09B
:1029B000809341018FDB03C082E0C82E0ACE2F96A0
:1029C000E2E10C94EE3D80913A0181110DC08BE45F
:1029D00093E00E94653E61E0680F8EE493E00E9400
:1029E000723E81E080933A010895EF92FF920F9337
:1029F0001F93CF93DF93D62FE82FF0E0EC59FD4FD4
:102A0000E491E8B9E860E7B915B8E62FF0E0EF59CE
:102A1000FD4FE491E4B988E8E82E83E1F82ECE2F4B
:102A2000CC0F8D2F0E94FC088C01C4B98E159F0518
:102A300010F47801F6CF892BE1F00E94B40C80E409
:102A400091E01AD9D80120EA36E841E050E00E942E
:102A50003D3D28E937EB40E050E00E94E43CDA01DC
:102A6000C90122E041E467EF36DA88E087B988B926
:102A700014B8CDB7DEB7E6E00C94FA3DA0E0B0E0C4
:102A8000E4E4F5E10C94D23D80E48AB98BB9C6E860
:102A9000C0937A001092C1000E94B008D4B784B7E6
:102AA000877F84BF0FB6F894A895809160008861F5
:102AB00080936000109260000FBEC093640088E3B2
:102AC00080937E001092B00087E08093B1007894EC
:102AD0000E943F0CD3FDB0C580E185BF84E08093A8
:102AE0001101C0E04F9906C082E00E94D008CF5F7C
:102AF000CC33C1F78FE59DE690930C0180930B01D9
:102B0000CF3130F080E69DE690930C0180930B016D
:102B100010922F010E94E9289FE088E10FB6F894F7
:102B2000A895809360000FBE90936000CC3389F02D
:102B3000D8E02AE0622E3AE0C32ED12C40E1742E78
:102B400052E4A52E51E0B52E64E6E62E61E0F62EA5
:102B500033C00E9425338111FCCFEACF823009F4C3
:102B600049C1833009F473C189EA92E085D881E9CB
:102B700092E082D80E94A40C80911801805D24D834
:102B80008AE222D88CE391E077D887E792E074D884
:102B90000E940E0C86E00E949F0D00E41FE188E178
:102BA00087B94F9BFECFC8012FDA823308F4C2C425
:102BB0000E9425338111FCCF0E941A0CD7B9D9DAB3
:102BC0000E94E9280E94130C49D580913D01882379
:102BD00071F00E94A40C85E591E04ED863E08091ED
:102BE00032019091330182D988EC0E94D0080E9472
:102BF000A40C0E94082580911A01893019F50E94C1
:102C00001A0C8AE591E038D80E94A40C63E0809108
:102C10005601909157016AD90E94AD0763E08091F7
:102C200058019091590162D90E94AD0763E08091EB
:102C30005A0190915B015AD98AEC0E94D00881E137
:102C400019DB73C48EE493E00E94653EC82F8BE4C9
:102C500093E00E94653EC81BC0933A0180E00ADB06
:102C60000E94E90C83EC92E007D883E00E94980868
:102C70000E940E0C42E061E080E064D542E060E03A
:102C800081E060D541E062E080E05CD541E060E059
:102C900082E058D540E062E081E054D540E061E058
:102CA00082E050D580911A0181110EC00E94082542
:102CB00060E082E00E94D82561E082E00E94D82591
:102CC00060E081E00E94D8250E941A0CB092400179
:102CD000A0923F0180911A01863069F485EC0E9430
:102CE0009F0D60E188EF28D966E080E00E94E30B49
:102CF0008AE992E00EC08730E9F484EC0E949F0DCF
:102D000060E188EF19D966E080E00E94E30B83EA76
:102D100092E00E943C0E66E082E00E94E30B8EE6A9
:102D200091E00E943C0E62E0809146019091470143
:102D3000DDD8F9C3883081F420918F018091900112
:102D400090E0820F911D029719F40E94492BFBC35A
:102D500080E00E94772AE9C3833009F0B6C08091F1
:102D60001801813009F0FACE80E00E946C08609171
:102D7000950180919B0139DE80E70E94440840E084
:102D80006091950180919B010E94693860937F0159
:102D900070938001809381019093820180E00E9472
:102DA000DD0C60917F017091800180918101909193
:102DB000820102E026E442EF0E94820E0E94AF07E9
:102DC00041E06091950180919B010E946938609378
:102DD0007F0170938001809381019093820126E4AA
:102DE00042EF0E94820E82E391E00E943C0E0E941C
:102DF0000E0CF9C282E30E94E40D82E291E00E948F
:102E00003C0E9091950130919601931307C080E09C
:102E10000E94880881E00E947F080CC020919B01DD
:102E200080919C01281308C080E00E94780881E00E
:102E30000E948F0881E0A1CF321304C081E080930B
:102E4000060135C0981390CE7092060130C083E31E
:102E50008093060180919B0190919601891303C094
:102E600021E0209306014091950130919C0143138C
:102E700002C07092060120919701821303C082E084
:102E80008093060180919D01481303C040E2409366
:102E9000060132130FC022E120930601981761F05A
:102EA00083E30E94E40D82E291E00E943C0E0E94C6
:102EB0005A0899C2981303C081E280930601809159
:102EC0000601823208F050CEEBCF843009F053C1B6
:102ED00080917301882309F45EC080915101882399
:102EE00009F459C060914E01809150010E94D8258B
:102EF00020907F01309080014090810150908201AC
:102F0000C091910160917201809170010E94D82559
:102F10008091420190914301A0914401B0914501FB
:102F20004091640150916501609166017091670163
:102F3000843F21E09207A105B10538F4443F31E018
:102F400053076105710508F0C0EF443F514061052A
:102F5000710540F4843F9140A105B10518F080EF60
:102F60008093910180919101C8130EC080917F01DF
:102F700090918001A0918101B091820128163906BB
:102F80004A065B0618F004C0C81714F48DE001C0AF
:102F90008CE08093190180917301882361F0809106
:102FA0005101882341F04F9906C09091190181E0A9
:102FB00089278093190166E080E00E94E30B80EC92
:102FC0000E949F0D809119018C3051F48AE891E0A4
:102FD0000E943C0E809173018823A9F080E711C004
:102FE000F0924001E0923F0187EE91E00E94E10DF6
:102FF00082E891E00E943C0E80915101882319F0F3
:103000008EE60E94E40D91D8C82F8530A0F4A091DF
:103010003F01B0914001E82FF0E0EB56FE4F1D96C6
:103020009C918081981711F062E001C060E082EB12
:1030300091E00E94CB0D60E189EF0E949C0F86E039
:103040000E94C20C89E991E00E943C0EE0913F0190
:10305000F0914001608171818281938103E020E0E1
:103060004EEF0E94820E87E00E94C20C89E40E940B
:10307000E40DE0913F01F09140018681978180311C
:10308000974270F085E60E94E40DE0913F01F091D7
:10309000400186819781805197429783868303C040
:1030A00083E60E94E40D0E94B107E0913F01F09198
:1030B000400122E041E46AEF868197810E946B0F14
:1030C00086E00E94C20C82E791E00E943C0EE091F3
:1030D0003F01F091400163E0848195810E94760F69
:1030E00081E080934101E0913F01F09140018085B2
:1030F0009185892B91F085E00E94DD0C84E091E0C0
:103100000E943C0EE0913F01F091400122E041E439
:103110006AEF808591850E946B0FE0913F01F091ED
:10312000400182859385892B91F085E00E94DD0C1A
:103130008EEF90E00E943C0EE0913F01F091400143
:1031400022E041E46AEF828593850E946B0FC530CF
:1031500078F480E00E94DD0C8C2F0E946C088EE6D3
:1031600091E00E943C0E8C2F0E9436080E940E0CAB
:1031700043E462E434C1853009F042C166E080E096
:103180000E94E30B8091190184FF09C080E50E9431
:10319000E40DF0924001E0923F01C2E004C08EE4F1
:1031A0000E94E40DC0E00E94AF0780911901182F22
:1031B0001F70143061F484EA91E00E943C0E83ECAD
:1031C0000E949F0DCC23E1F180EF91E037C085FF95
:1031D00005C084E40E94E40DCF5F03C085E40E9433
:1031E000E40D1330B1F48EE991E00E943C0E81ECC5
:1031F0000E949F0DC13019F48DE392E01FC0C230D0
:1032000019F489E492E01AC0C330D1F489E192E064
:1032100015C089EA91E00E943C0E82EC0E949F0D4D
:10322000C13019F489E092E009C0C23019F48FE08E
:1032300092E004C0C33021F487EF91E00E94E10DD9
:103240000E9495108530A0F4A0913F01B0914001FB
:10325000E82FF0E0EB56FE4F1D969C918081981769
:1032600011F062E001C060E082EB91E00E94CB0DC2
:1032700060E189EF0E949C0F86E00E94C20C86E00C
:103280000E94C20C8091190185FD1CC08AE691E064
:103290000E943C0EE0913F01F091400162E0828586
:1032A00093850E94760FE0913F01F0914001668581
:1032B00084850E94D82586E00E94C20C0E94560E8A
:1032C00085E068C08F70E0913F01F091400184304B
:1032D00039F0668584850E94D8250E94560E13C059
:1032E00084819581892B79F080E090E00E943C0EEA
:1032F000E0913F01F091400122E041E46AEF8481D6
:1033000095810E946B0F60E086E00E94E30B89E4E8
:103310000E94E40D0E94B107E0913F01F09140014D
:1033200022E041E46AEF868197810E946B0F84E678
:1033300091E00E943C0EE0913F01F091400162E07B
:10334000828593850E94760FE0913F01F0914001C4
:1033500080859185803C9241E0F480E00E94DD0C04
:1033600089E40E94E40D0E94B10722E041E46BEF82
:1033700080E090E00E946B0F84E691E00E943C0E9A
:10338000E0913F01F091400162E0808591850E94CB
:10339000760F80E00E946E0E143009F445C1C0E043
:1033A00080911801C817B0F4C11103C080E00E94D9
:1033B000C20C80E00E94DD0C8C2F0E946C088EE60F
:1033C00091E00E943C0E8C2F0E9436080E940E0C49
:1033D000CF5FE6CF133009F02BC143E467E485E407
:1033E0000E94DA07A0C00E940E0C80917A01882307
:1033F00009F49BC088E187B9D7B980E00E94DD0C51
:1034000020917A01222309F481C02130A1F4809116
:1034100061010E94070820916101213039F4209157
:103420001801211103C00E94FF2A8DC040E0692FBE
:103430000E94BA297AC0909161018091620134E0C2
:10344000839FD0011124AE54BE4F34E0939FF0010E
:103450001124EE54FE4F2D903D904D905C90408194
:10346000518162817381421553056405750510F41D
:10347000C82F01C0C92F223021F4890FC3E0C81B17
:103480001CC08091630194E0899FD0011124AE5447
:10349000BE4F24E0C29FF0011124EE54FE4F0D9167
:1034A0001D912D913C914081518162817381401722
:1034B00051076207730708F4C82F0C2F069512E016
:1034C0001C1BC11103C09924939402C092E0992E51
:1034D000802F0E942E0E8DE191E00E943C0E812FE4
:1034E0000E942E0E8DE191E00E943C0E892D0E94DB
:1034F0002E0E80E00E94C20C81E0C11180E00E948B
:10350000110882E0801B0E9411080FC081E892E040
:103510000E943C0E0E94A40C8EEA92E00E943C0E97
:1035200089EA92E034CB0E940E0C00910B011091BD
:103530000C0135CB90911301933008F039CB8111F8
:103540003BCB911130CB80913A0181114BC00E944D
:10355000DC1032CB8C2F662D0E94B13C992E91113C
:1035600002C00E941A0C60E0892D880F0E94E30BB4
:103570000E940E0CA8958C2F90E00196B6010E9437
:10358000D13CC82F812C912C851480F1442009F462
:1035900042C0050D111DF801E959FD4FE491E032DB
:1035A00011F40F5F1F4F20E030E080E1582EF90149
:1035B000E00FF11FE959FD4F449080E2481201C02D
:1035C000522E2F5F3F4F2131310589F7C111C2CFF4
:1035D00080E09DE70E94041081111DC080911201BE
:1035E00087FFB8CFCAE000E010E0DDCFF801E80DBA
:1035F000F91DE959FD4F4490442069F09FEF4912AD
:1036000003C00E94AD0703C0842D0E94E40D2FEF7C
:10361000821A920AB9CF80E09DE70E94041080913F
:10362000120187FDDFCF93CF4FE367E48FE3D8CE5E
:1036300044E467E483E5D4CE0E94130C8EE692E066
:103640000E943C0E8BEC0E94D0080E94DC1080E0AF
:1036500090E0CDB7DEB7E2E10C94EE3D0F931F93FF
:10366000CF93DF9385E00E94080985E00E9404095A
:103670008C01EC01CC0FDD1FCC0FDD1FCA56DF4FD4
:1036800010923801C43883E0D80750F48EEA91E0F4
:103690000E943C0E0E94BC0C81E08093380126C041
:1036A0008DEB91E00E943C0E62E0CE010E94760F0D
:1036B0000E94AD070A3F86E0180790F403331640D6
:1036C00060F487EB92E00E943C0E0E94BC0C8DECF3
:1036D0000E94D0080E94DC1009C08EEB92E002C06C
:1036E0008AEB91E00E943C0E0E94BC0CDF91CF91CE
:1036F0001F910F910895CF93DF93DC019C01261B4E
:10370000370BE0E090E0B901690F711D672F772753
:10371000920F260F371FBA016E0F711D672F772783
:10372000E40FEB01CC0FDD1F4C0F5D1F6B3E28F447
:10373000A217B30740F7CA0102C080E090E0DF9112
:10374000CF910895A8E1B0E0E8EAFBE10C94D23D06
:10375000582E462E342EA895E62FF0E0EF59FD4F57
:1037600024912C87220F2B8B339634913A8BE42FA4
:10377000F0E0EF59FD4F44914983339654915F83B4
:10378000E82FF0E0EF59FD4F2490822D880F8F87AE
:10379000339694919B8398609C8338603A8345B9B3
:1037A000AC84A42AA4B897B9EB81E8B9862F0E940B
:1037B00004099E878D87FC85F4B9842D0E94040935
:1037C0003C0114B80E94B90815B8A4B8842D0E9411
:1037D00004096D857E850E9466096C012A8127B9DE
:1037E00088E088B9398132293D8335B934B9852DCE
:1037F0000E9404090E946C097C0115B80E94B90856
:1038000025B8852D0E9404090E946C098C0124B8FA
:10381000852D0E9404090E946C09B82E9987B80171
:10382000C7010E946609803241E0940730F450E2FB
:10383000C51651E0D50608F4B6C5C00ED11EED85FB
:10384000FE858E0F9F1FC816D90620F41E870D8790
:103850006B2C79842091510130917301822F90E07B
:10386000830F911D02974CF0213009F09CC5909177
:103870004E0180917001981396C5F981FF0FF88F62
:10388000F229FB872D853E852437310508F4A5C133
:10389000C901880F991F44966816790608F09DC1E2
:1038A0003C8137B94B8148B98C85588D852B84B9BB
:1038B000842D0E9400098C01832D0E9408097C013F
:1038C000888D85B9842D0E9400099801295A3D4FA1
:1038D0002817390708F0B4C088E088B99A8197B9E9
:1038E000EB85E4B9E5B9832D0E94000988349F4037
:1038F00028F085E080931A0182E204C085E080937D
:103900001A0184E280931901109347010093460144
:10391000B701C8010E94710990934D0180934C0139
:103920009801A0E1B7E20E94283D20911401309156
:10393000150140E050E00E94E43C3093490120939F
:1039400048018B89288D822B84B915B83C8137B901
:103950004B8148B9832D0E9408098C01842D0E9457
:103960000009B8010E9471099C0190934B0180935A
:103970004A01909119019F70943081F5409148015E
:103980005091490160914C0170914D01C901B3DE24
:10399000009701F1588D54B9EA898C81E82BE7B979
:1039A000842D0E9400098C0188E087B99801A0E16C
:1039B000B7E20E94283D20913B0130913C0140E05C
:1039C00050E00E94E43CA901B80180914A01909125
:1039D0004B0191DE9093470180934601809119013C
:1039E0008F70843009F4D6C488E088B99F81EA8159
:1039F0009E2B97B924B8FD81F5B9852D0E94040945
:103A00008C010E946C099E838D83842D0E9408097D
:103A1000E0901D01F0901E01BC01C8010E947109D7
:103A20009701DC010E94283DED81FE819F0140E06D
:103A300050E00E94E43C3093470120934601AAC421
:103A400088E088B9FA81F7B92B8524B925B9852D85
:103A50000E9400098C01832D0E9408097C0125B871
:103A6000852D0E940009895A9D4F8017910708F003
:103A70009AC43B8138B94C8147B9832D0E94000913
:103A8000813D934028F485E080931A0182E304C0CD
:103A900085E080931A0184E380931901B801C7017E
:103AA0000E94710990936F0180936E01C8010E947A
:103AB0006C099C01A0E1B7E20E94283D20911D0104
:103AC00030911E0140E050E00E94E43C30936B01D5
:103AD00020936A01F8E0FF2EF8B88A8187B98F85B4
:103AE000988D892B84B985B9852D0E9408098C0190
:103AF000832D0E940009B8010E9471099C019093D6
:103B00006D0180936C01909119019F709430A1F523
:103B100040916A0150916B0160916E0170916F014B
:103B2000C901E9DD009721F1E88DE5B9E4B9FB8130
:103B3000F8B9EC812A81E22BE7B9852D0E940009B2
:103B40000E946C098C01F7B89C01A0E1B7E20E94C9
:103B5000283D209134013091350140E050E00E9431
:103B6000E43CA901B80180916C0190916D01C3DD25
:103B70009093690180936801809119018F7084305E
:103B800009F4E0C1EB813F81E32BE8B94C81342B90
:103B900037B915B85D8154B9852D0E9404097C019F
:103BA000842D0E9408099E838D8300911401109139
:103BB0001501BC01C7010E9471099801DC010E9436
:103BC000283DED81FE819F0140E050E00E94E43CF1
:103BD0003093690120936801B5C188E088B9FA8102
:103BE000F7B925B82B8524B9852D0E940409998B36
:103BF000888B0E946C0998878F83832D0E94080907
:103C00009A878987430134E6830E911C4F8158853A
:103C1000B30184169506D8F4CA010E9471098C017B
:103C200020911D0130911E0140E050E060E871EAF2
:103C300083E09CE10E94E43CD8010E943D3DE9857F
:103C4000FA858F0120E030E0A901980123C08F811F
:103C500098850E9471098C01FD81F4B9852D0E941F
:103C60000409998B888B0E946C0998878F83832D18
:103C70000E9408099A878987BC01C8010E947109BE
:103C80009C01A4E6B0E00E94283DE985FA859F01E9
:103C900040E050E00E94E43C69017A0114B815B894
:103CA000FB81F8B92C8127B981E00E94D008A4B823
:103CB000842D0E940409BC84388DB32A8F359D4021
:103CC00008F446C1B4B8842D0E9400098C01832DEC
:103CD0000E9408099D8B8C8B852D0E9408099F8B63
:103CE0008E8B8C899D89813D974008F4B7C084E014
:103CF00080931A018DE0809319016016710630F4EB
:103D00009801261937093E832D8302C01E830D8337
:103D10008090140190901501A12CB12C60E871EAFB
:103D200083E09CE1A50194010E94E43CAD81BE8149
:103D30000E943D3DEC89FD899F0140E050E00E94DA
:103D4000E43C80917301882369F080916401909133
:103D50006501A0916601B091670182179307A407DE
:103D6000B50708F52093640130936501409366011F
:103D7000509367019801A0E1B7E20E94283DA50198
:103D800094010E94E43C30936B0120936A016C899A
:103D90007D898E899F890E94710990936901809322
:103DA000680181E001C080E04091640150916501AB
:103DB00060916601709167014C155D056E057F0588
:103DC00038F5C0926401D0926501E0926601F092EC
:103DD000670169857A85888999890E94710990931C
:103DE0006901809368012F813885A0E1B7E20E94C4
:103DF000283D20911D0130911E0140E050E00E94BD
:103E0000E43C205F384D30936B0120936A0103C07E
:103E1000882309F4B1C3C0901401D0901501E12C9E
:103E2000F12C9301A0E1B7E20E94283DA701960181
:103E30000E94E43C30936D0120936C012D853E85FA
:103E4000A0E1B7E20E94283DA70196010E94E43C50
:103E500030936F0120936E0181E08EC3F1E66F16FF
:103E6000710408F075C0013D27E0120708F470C026
:103E700085E080931A0182E180931901C801865080
:103E80009F4F4E895F898417950720F483E18093C3
:103E9000190119C080911401909115019E838D83A1
:103EA000B8018E899F890E9471092D813E81DC01B4
:103EB0000E94283D980140E050E00E94E43C30938D
:103EC0006901209368019A899770E92E832D806497
:103ED00080937C00EBE0FE2EE1E0F0E0FE83ED83DA
:103EE0000FEF13E0A89561E089817AD5B4B886B167
:103EF0008E21E9F3FC85F4B980917A008064809387
:103F00007A0080917A0086FDFCCF809178009091B4
:103F100079009801281B390B4D815E81420F531F98
:103F20005E834D83FA94F110DDCFCA01880F991F8B
:103F3000880F991F69E070E00E94BD3C70936F018B
:103F400060936E01809173018F5F8093730184CFC2
:103F5000B4B8588D55B9842D0E9404096C01832D85
:103F60000E94080998878F830E946C099A87898725
:103F70008C149D04A8F4B301C6010E9471098C0140
:103F8000209114013091150140E050E060E871EAA1
:103F900083E09CE10E94E43CD8010E943D3D1FC0AB
:103FA000A4B8F981F5B9842D0E9404096C01832D10
:103FB0000E94080998878F830E946C099A878987D5
:103FC000C6016C147D0410F48619970969857A85F9
:103FD0000E9471099C01A4E6B0E00E94283DE98599
:103FE000FA859F0140E050E00E94E43C49015A01FB
:103FF000FA81F7B988E088B92D8124B925B9852DD2
:104000000E9404098C01832D0E9408099A878987E0
:10401000842D0E9408097C01003331E1130708F068
:10402000BFC125B8852D0E940409998B888B24B8BF
:10403000852D0E9404099D8B8C8B15B881E00E9410
:10404000D00825B8852D0E9404094C895D8940342B
:10405000564008F05DC08133914108F459C0C80151
:104060008A569F4F288939892817390708F050C088
:1040700086E080931A01809151018F5F80935101F6
:10408000B70189859A850E947109909347018093B1
:104090004601B701C8010E94710990934D018093B8
:1040A0004C0114B815B83A8938B981E00E94D0089B
:1040B00024B8852D0E940409853F910508F06AC245
:1040C0004D8144B9832D0E940409813D934008F439
:1040D00061C2852D0E9408098D3D924008F45AC2A4
:1040E00024B8852D0E9404098D3D924008F452C2E7
:1040F00025B881E00E94D00815B8852D0E940409DA
:10410000853F910508F046C287E080931A0142C2BC
:104110002A8127B9398134B935B981E00E94D008A4
:104120004B8544B945B9852D0E9404098C010E9434
:104130006C09998B888B832D0E9408099E838D833F
:104140000E946C099A878987842D0E9408097C0146
:1041500089859A858E3F994008F4B2C084E08093A7
:104160001A018CE080931901B301888999890E9412
:1041700071098C0120911D0130911E0140E050E039
:1041800060E871EA83E09CE10E94E43CD8010E946F
:104190003D3DE985FA859F0140E050E00E94E43C06
:1041A00080915101882369F08091420190914301EF
:1041B000A0914401B091450182179307A407B50768
:1041C00028F52093420130934301409344015093DA
:1041D0004501B7018D819E810E947109909347012D
:1041E0008093460128893989A0E1B7E20E94283DE1
:1041F00020911D0130911E0140E050E00E94E43CFE
:10420000309349012093480181E001C080E0409152
:10421000420150914301609144017091450148155C
:1042200059056A057B0528F5809242019092430169
:10423000A0924401B0924501B6018F8198850E94F9
:10424000710990934701809346019601A0E1B7E27E
:104250000E94283D209114013091150140E050E06A
:104260000E94E43C205F384D30934901209348017F
:1042700003C0882309F48FC19301A0E1B7E20E9433
:10428000283D209114013091150140E050E00E943A
:10429000E43C30934B0120934A012D853E85A0E1FB
:1042A000B7E20E94283D20911D0130911E0140E09F
:1042B00050E00E94E43C30934D0120934C016AC1D0
:1042C000F1E66F16710408F06BC02889398929342A
:1042D0003D4008F465C085E080931A0182E0809338
:1042E0001901C70186509F4F8017910720F483E082
:1042F0008093190117C0C0901D01D0901E01B70115
:10430000C8010E9471099601DC010E94283DE889DC
:10431000F9899F0140E050E00E94E43C309347015E
:10432000209346010B810770832D806480937C006D
:104330001BE021E030E03E832D83A89560E0898179
:104340004FD33B8534B935B986B18023E9F724B81A
:1043500080917A00806480937A0080917A0086FD53
:10436000FCCF80917800909179004D815E81480F5B
:10437000591F5E834D83115001F7CA01880F991FA1
:10438000880F991F69E070E00E94BD3C70934D0159
:1043900060934C01809151018F5F80935101FAC06D
:1043A00088E087B988B914B815B888E087B957ECA0
:1043B000651651E0750608F4D0C088B98F8584B9B8
:1043C00098EC9D83EC81FA81EF2BEF832F8127B945
:1043D00081E00E94D0083A8137B9852D0E940809F2
:1043E000429728F04D8141504D834111EFCF5F85B9
:1043F00054B955B961E08981F3D2852D0E94040931
:104400006C018B8984B915B89C8197B9EB81E8B9A7
:1044100060E08981E5D2842D0E9404090E946C0924
:104420009E838D83FC85F4B9842D0E9408098C013C
:10443000852D0E940409B8010E9471097C01842D18
:104440000E9408098C01852D0E940409B8010E9470
:10445000710997012C5E3F4F2817390708F480C077
:1044600088E088B92A8127B924B825B861E0898114
:10447000B7D2842D0E9408098C01852D0E94040961
:10448000B8010E9471098C01E816F90658F43F85BD
:1044900034B935B9852D0E9404099C01CD82DE8294
:1044A000780110C04B8944B915B85C8157B98B812C
:1044B00088B960E0898194D2842D0E9404090E9409
:1044C0006C099C0198EEE91693E0F90630F4C701F7
:1044D00064E670E00E94BD3C06C0B70154E07695EA
:1044E00067955A95E1F7C701875991098938914134
:1044F000A0F52E153F0588F58D819E8143E09695A8
:1045000087954A95E1F7893C910510F088EC90E099
:104510002D813E81820F931F8E159F05F0F4621747
:104520007307D8F480911A01833018F483E08093E4
:104530001A0120911801822F90E0FC01EB56FE4FEA
:1045400050824682880F991FFC01EF55FE4FF18281
:10455000E0822F5F2093180103C0642D852D29D0A0
:1045600088E087B988B914B815B88EE20E94E40DC6
:104570006896E2E10C94EE3D909173019F5F9093F9
:104580007301882369F33092700140927101509257
:104590007201E6CF81E0909151019F5F90935101AC
:1045A0008823F1F230924E0150924F014092500117
:1045B000D7CFA0E0B0E0EFEDF2E20C94D43DA895A7
:1045C000462F50E0FA01EF59FD4F949033969491A5
:1045D000A82FB0E0FD01EF59FD4FE4903396F49021
:1045E000709173012091510130E0270F311D232B71
:1045F00009F0F1C1A8952091200130912101220FED
:10460000331F220F331F3093330120933201209147
:10461000780130917901220F331F220F331F30931D
:104620003101209330012EEB20932E01C09118010F
:10463000E5E9F1E070E04A0F5B1F7C1759F021912A
:10464000A58130E02A0F311D2417350709F456C023
:104650007F5FF3CFD62FC82F88E088B9E92FE860B5
:10466000E7B9E4B8E5B8B8E1BB2EC12CD12C8D2F49
:104670000E940409782E692E8C2F0E9408098C0153
:104680008C199D0997FF03C0919581959109039716
:1046900034F0A895BA946801B110E9CF2FC0EE0CA0
:1046A00015B8E4B88C2F0E9404098135910530F5C6
:1046B000E5B88C2F0E9404096C018F2D886087B9A2
:1046C000F8B815B894B8A8E18A2EA12CB12C8C2F7B
:1046D0000E940409582E492E8D2F0E9408097C0142
:1046E0008A199B0997FF03C09195819591090397BA
:1046F000CCF0A8958A9457018110E9CF80912001D0
:10470000909121019093330180933201809178013F
:1047100090917901909331018093300189E18093E8
:104720002E0159C1990C94B88D2F0E9404095C0187
:10473000003C84E4180730F425E8C21621E0D206D4
:10474000E8F605C080EBC8168DE4D806B8F624EA72
:10475000E21622E0F20608F06CC088E9A816B1045F
:1047600068F2C6010E946C09AC019601A8E9B7EB9A
:104770000E94283D9A0140E050E00E94E43C29015B
:104780003A01C5010E946C099C01A8E9B7EB0E949F
:10479000283D850120E030E0A90198010E94E43C19
:1047A00088E7C8168FE0D80680F4D301C201F2E092
:1047B000880F991FAA1FBB1FFA95D1F7BC01CD0125
:1047C000620F731F841F951F14C088E7A8168FE01F
:1047D000B806B0F4DA01C901E2E0880F991FAA1FF8
:1047E000BB1FEA95D1F7BC01CD01640D751D861D77
:1047F000971D25E030E040E050E00E94E43C0CC012
:10480000D301C201820F931FA41FB51F9C01AD01EC
:104810005695479537952795A4E6B0E00E943D3D13
:104820002B013C012CEA420E2DE0521E611C711C32
:1048300079C0672D762D0617170708F4B801C52C27
:10484000D42CCE14DF0408F467010617170708F408
:104850008B01A0901D01B0901E01C8010E9471093A
:104860009501DC010E94283D2B013C01C8010E94FA
:104870006C099C0140E050E0C301B2010E94E43C9D
:1048800029013A01CE14DF0408F47601A090140146
:10489000B0901501B701C6010E9471099501DC01B4
:1048A0000E94283D4701A12CB12CA50194010E9432
:1048B000E43C08378FE0180780F4D301C20162E0BE
:1048C000880F991FAA1FBB1F6A95D1F7BC01CD01A4
:1048D000620F731F841F951F14C088E7E8168FE0CE
:1048E000F806C0F4DA01C90132E0880F991FAA1F47
:1048F000BB1F3A95D1F7BC01CD01640D751D861D16
:10490000971D25E030E040E050E00E94E43C2901A2
:104910003A0108C0420E531E641E751E76946794B9
:104920005794479410911A01143008F0E7CEC15003
:104930000C2F0D0F202F30E0E901C25ADE4F888185
:10494000220F331F220F331FF901EE54FE4F88232D
:10495000D9F1C080D180E280F380A30192012C19AB
:104960003D094E095F0957FF07C0509540953095A6
:1049700021953F4F4F4F5F4FAAE0B0E00E943D3D71
:1049800024E6C20ED11CE11CF11CA7019601240DE6
:10499000351D461D571D0E94E43C232B242B252B3F
:1049A00009F0ACCE133019F081E080931A0182E057
:1049B000888380917A01E82FF0E0EF59FE4F008361
:1049C0008F5F80937A019ACE408251826282738295
:1049D00081E0888393CECDB7DEB7E0E10C94F03D63
:1049E000CF93C82FC09595B160FF02C0982B01C02E
:1049F0009C2395B994B1892B84B982E00E94D00898
:104A000084B18C2384B985B1C823C5B9CF910895E9
:104A1000A0E0B0E0EEE0F5E20C94DA3D1AE008E048
:104A20008FE3C82E99E0D92E07B908B915B8C4B8D4
:104A300080E00E9404097C0181E00E940809EC01E9
:104A400082E00E9408099C0180911A01893081F45A
:104A500088E087B914B8F0925701E0925601D093DC
:104A60005901C093580130935B0120935A015BC0F8
:104A700084E0E816F10440F4C430D10560F4243039
:104A8000310530F399E00BC088EEE81683E0F806B4
:104A900010F098E001C099E0C83ED34008F492605D
:104AA000283E334008F4946097B9C0E0D0E0A89560
:104AB00080E00E94FC085C0181E00E9408097C0102
:104AC00082E00E94080924E1A21625E0B20608F45B
:104AD000389A24E1E21625E0F20608F4399A843186
:104AE00025E0920708F43A9A26E0A216B10430F4C1
:104AF00026E0E216F10410F4069738F02196C43F40
:104B000081E0D807A1F6D0921A01E12CF12CEC1625
:104B1000FD0631F00E94BF082FEFE21AF20AF7CF2C
:104B2000115009F081CFCDB7DEB7EAE00C94F63D25
:104B3000CF92DF92EF92FF92CF9320917F0130913D
:104B400080014091810150918201C09191018AE0E0
:104B5000C82ED12CE12CF12C8C2FCF5F213A96E876
:104B6000390791E04907510538F0CA01B901A70199
:104B700096010E94E43CF0CF80939101A091320114
:104B8000B09133010E943D3D28E833E140E050E020
:104B90000E94E43C20937F01309380014093810187
:104BA00050938201CF91FF90EF90DF90CF900895C6
:104BB000A0E0B0E0EEEDF5E20C94D83D982F990F0F
:104BC000980F2FEF260F920F90935301E82FF0E0EC
:104BD000EF59FD4F1491262F30E0F901EF59FD4FA9
:104BE000F490F901EC59FD4FD49190911A01913054
:104BF00009F4A2C220911801A5E9B1E0FD0190E0FD
:104C0000921791F0368163130BC03081831308C073
:104C10001C964D915C911D974C3D554008F48CC2FB
:104C20009F5F31961296ECCF062FC82FD860109256
:104C30008C0110928B0181EF8093910110927F0182
:104C4000109280011092810110928201E1DE88E0D1
:104C500088B9D7B9F4B8F5B88C2F0E9408095C015F
:104C6000802F0E940809A81AB90A14B81092550199
:104C7000109254018091540190915501843F9140CC
:104C800008F0AAC015B914B90E94B90814B815B82B
:104C90000E94C008A8958C2F0E9408097C01EA1880
:104CA000FB0880915401909155018E37910528F0B1
:104CB0008BE4E816F1040CF48FC0809154019091BC
:104CC00055012DE2E21621E0F20634F401969093AC
:104CD000550180935401CECF892B09F0A4C185E101
:104CE000E81685E0F8060CF49EC192DE15B88FE058
:104CF00087B988E088B9F12EFF0CF4B880E480937E
:104D00007B0084E580BF8C2F806480937C0086E1EB
:104D100080937A000E94C3081092550110925401AA
:104D200010928000109285001092840087E286BB6A
:104D300081E280936F0081E080937C01F5B89091CF
:104D40001A0180938100953009F04CC081E090E019
:104D50000C2E01C0880F0A94EAF780958F7087B9EE
:104D6000F89483B7817F83BF80917C01882389F089
:104D700083B7816083BF7894889583B78E7F83BF24
:104D8000F894A895809154019091550180349640F3
:104D900059F7789410928100E0908600F090870097
:104DA00010926F0086E980937A0014B815B88C2FA2
:104DB0000E9408092091360130913701821B930B24
:104DC0000C9690939401809393018091540190915B
:104DD00055018032934040F088E087B988B914B813
:104DE00015B8AAC1D7B9BCCF809154019091550193
:104DF00090938A0180938901F0928801E092870163
:104E000084EF8093910180915401909155018234F7
:104E10009105C8F0609187017091880180918901A6
:104E200090918A0124E630E040E050E00E94E43CAA
:104E300020938701309388014093890150938A0120
:104E400086EF80939101A0917D01B0917E01209128
:104E50008701309188014091890150918A010E9417
:104E60003D3D20E233E040E050E00E94E43C2093EE
:104E70008701309388014093890150938A012093E0
:104E80007F0130938001409381015093820150DE75
:104E900080919101843F09F071C0C0907F01D09052
:104EA0008001E0908101F090820180EAC8168FE0D5
:104EB000D806E104F104C0F4A70196012C543F4F39
:104EC0004F4F5F4F60EA7FE080E090E00E94E43C5B
:104ED000C20ED31EE41EF51EC0927F01D092800147
:104EE000E0928101F0928201C0907F01D090800118
:104EF000E0908101F0908201C114D10421E0E2062A
:104F0000F10428F4D092C301C092C20106C081E02E
:104F100090E09093C3018093C2018091530190E08F
:104F2000855B9C4F0E94653E90E0A0E0B0E0B70139
:104F3000A6018C159D05AE05BF0568F4481B590BED
:104F40006A0B7B0B40937F0150938001609381013A
:104F50007093820113C04C5E5F4F6F4F7F4F4817B5
:104F600059076A077B0710F40E94E31410927F012F
:104F700010928001109281011092820114B98091E7
:104F80007F0190918001A0918101B09182014997A8
:104F9000A105B10508F420CFC12CD12C80911801B6
:104FA000882329F080911A01853009F015CF88E017
:104FB00080931A0180919101909192019817C4F009
:104FC00089130ACF80907F0190908001A090810189
:104FD000B0908201409183015091840160918501DC
:104FE00070918601481559056A057B0508F0F4CED5
:104FF00040917F0150918001609181017091820107
:1050000040938301509384016093850170938601DE
:1050100080939201D0928E01C0928D0100938F01F6
:10502000C0939001D9CEC701C12CD12C209154013D
:10503000309155012C153D0560F00E94BA088C2F67
:105040000E9408098A199B09A8952FEFC21AD20A53
:10505000EDCF5701A81AB90A1A141B049CF439ECB5
:10506000A316B1040CF0B8CE28EE33E0D5010E94AF
:10507000373D97010F2C000C440B550B0E94E43C6C
:10508000690102C0C12CD12C80915401909155012D
:105090000196A0E0B0E08093870190938801A093EF
:1050A0008901B0938A01C7018A0D9B1D0E94D20914
:1050B00020918701309188014091890150918A01A6
:1050C000DC010E943D3D60938701709388018093CD
:1050D000890190938A0160937F017093800180938E
:1050E00081019093820187EF8093910121DD80906F
:1050F0007F0190908001A0908101B09082018EE2AA
:1051000093E00E94653EA8EEB3E0A81BB10987FDBD
:10511000B395A50194010E94473D24E630E040E0AC
:1051200050E00E94E43C20937F0130938001409343
:1051300081015093820132CFCDB7DEB7ECE00C9401
:10514000F43D1F920F920FB60F9211248F939F93ED
:10515000B59904C080917C01811109C0B59B10C034
:1051600080918600909187008A3F910548F4809154
:1051700054019091550101969093550180935401EB
:105180009F918F910F900FBE0F901F9018951F92B7
:105190000F920FB60F9211248F939F9310927C0160
:1051A000B09B10C080918600909187008A3F910546
:1051B00048F48091540190915501019690935501C6
:1051C000809354019F918F910F900FBE0F901F906D
:1051D0001895A0E0B0E0EFEEF8E20C94D83D88E836
:1051E00093E1909321018093200190933301809368
:1051F00032018EEB80932E01C8E0C8B988E187B9EF
:105200000E94C808C7B984E00E940409AC018B5C05
:105210009840833F9140A0F481E080933D0120912C
:10522000320130913301AFEBB9E00E94283D9A0181
:1052300040E050E00E94E43C3093210120932001A3
:10524000809120019091210190933301809332014C
:105250008EE00E9408098EE00E94040990933701B5
:10526000809336010E947A09D3DB88E0F82EF8B8E3
:10527000C9E0C7B985E185B9D1E0D4B980E00E9421
:1052800004098C019AE0D92ED7B824E0B22EB4B824
:1052900081E00E940409080F191F3CE0E32EE7B8E3
:1052A00040E1C42EC4B882E00E940409080F191F0F
:1052B00015B8C8B9C7B9D4B980E00E9404090E94E2
:1052C0006C09EC01D8B8D7B8B4B881E00E940409E1
:1052D0000E946C09C80FD91FE8B8E7B8C4B882E0CB
:1052E0000E9404090E946C09C80FD91FF7B8F8B8CA
:1052F00014B820913201309133016901CC0CDD1CCE
:10530000C20ED31EC01AD10ACC1ADD0AE12CF12C30
:105310009801A0E9BAE10E94283DA70196010E94E8
:10532000E43C49015A0130933C0120933B019E012A
:10533000A0E9BAE10E94283DA70196010E94E43C41
:1053400030933501209334012057354E30931E01A0
:1053500020931D0180E7881A85EE980A9092150126
:105360008092140189E180932E01CDB7DEB7ECE085
:105370000C94F43DCF92DF92EF92FF920F93CF9374
:10538000DF93F82EC62FD42F0E942E0E8DE191E0D0
:105390000E943C0EFBD16C2F8F2D0E94DA3AC090F8
:1053A000C601D090C701E090C801F090C90180917A
:1053B000220187FD05C0C114D104E104F10421F0EC
:1053C00089E191E00E943C0E8C2F0E942E0EC114A8
:1053D000D104E104F10431F00E94AD078091610134
:1053E0000E941108DD2351F080913E018D3030F490
:1053F00090E0815B9C4F0E943C0E02C00E94BC0C5E
:1054000080E00E94DD0CCD28CE28CF28D9F0609115
:10541000C6017091C7018091C8019091C90103E054
:1054200028E447EF0E94820E8CE291E00E943C0E3D
:1054300080E693E00E946D3E23E046E464EF0E9424
:105440006B0F1AC0809161010E94110880912201A6
:105450008E3F94F484E491E00E943C0E6091AD0193
:105460007091AE018091AF019091B00103E028E40A
:10547000409122010E94820E8091BE019091BF0155
:10548000A091C001B091C101892B8A2B8B2BF1F027
:1054900080E00E94DD0C6091BE017091BF0180919F
:1054A000C0019091C10104E028E440E00E94820E16
:1054B00087E291E00E943C0E23E040E26FEF809192
:1054C000C4019091C5010E946B0F07C080E00E944B
:1054D000C20C80914101811102C00E94BC0CDF917D
:1054E000CF910F91FF90EF90DF90CF900895EF92C2
:1054F000FF920F931F93CF93DF93182F0E94130CEB
:1055000080918F010E942E0E80E691E00E943C0E59
:1055100075D360918F01809190010E94350AEC0152
:1055200090938C0180938B01E0908D01F0908E011F
:10553000CA3F8FEFD80720F48EE191E00E943C0E25
:10554000809190010E942E0E112359F090913E01FE
:105550008DE0891B0E94DA0B89E690E00E943C0EE8
:1055600002C00E94BC0C0E94A40C60918301709147
:105570008401809185019091860104E026E44091A8
:1055800092010E94820ECA3FDF4F68F48FE491E0DF
:105590000E943C0E22E04DE06EEF80918B019091D5
:1055A0008C010E946B0F0E94BC0C0E94AC0CE11499
:1055B000F10469F088E491E00E943C0E22E045E2AB
:1055C0006FEF80918D0190918E010E946B0F0E9470
:1055D000BC0CCDB7DEB7E6E00C94FA3D8F7021F439
:1055E0000E94B40C0C942E1B08958F3021F49091DE
:1055F0003801913011F08F5F089580E00895CF93C6
:1056000084E790E00E9490336AE080E00E94E30B20
:1056100089E593E00E943C0EC0E00E94B91060E072
:1056200082E00E94D92262E080E00E94D9220E949A
:10563000130C80917A01882329F041E062E080E038
:1056400099DE12C084E790E00E943C0E89E593E069
:105650000E943C0E0E94A40C8FE30E94E40D80E0A7
:105660000E94C20C0E94BC0C8C2FB8DF88EE93E025
:105670000E940410811109C080911301843028F424
:105680008C2FB3DFC82F8A3F40F20E941A0CCF91B3
:1056900008950F931F93CF93DF93C0E0D8E012EFEC
:1056A0000DE00E94B91060E082E082DAD0931A0126
:1056B00080919101843FE1F480917F01909180017C
:1056C000A0918101B091820184369105A105B105B7
:1056D00078F440E060E082E00E94693860937F01E6
:1056E00070938001809381019093820110939101C6
:1056F00080919101823FACF08093920180917F0173
:1057000090918001A0918101B091820180938301E9
:1057100090938401A0938501B093860181E0E7DE38
:105720001CC00E94130C8DE690E00E943C0E8091FC
:105730003E01902F981B892F0E94DA0B89E690E09A
:105740000E943C0E0E94A40C8FE30E94E40D0E9474
:10575000BC0C0E94AC0C0E94BC0C8C2F3FDF88EE6E
:1057600093E00E94041081110AC0809113018430DB
:1057700030F48C2F3ADFC82F8A3F08F492CF0E9472
:105780001A0CDF91CF911F910F910895A4E1B0E021
:10579000ECECFBE20C94D23D82E0809322018091FC
:1057A0001A01813009F026C280917A01813009F016
:1057B00021C20091610124E0029FF0011124EE5406
:1057C000FE4F80819181A281B381893032E59307B8
:1057D000A105B10508F00EC24C0110E0802F123077
:1057E00028F40E940708582E492E03C00E9407087B
:1057F0002C01E42DF0E0EC59FD4F2490852D90E034
:10580000FC01EF59FD4FE49115B828E028B930EFBD
:1058100083169104B8F410FD15C0A0901401B09047
:10582000150120E9A21A2AE1B20A21E030E0052C94
:1058300002C0220F331F0A94E2F7C901886082294F
:1058400087B908C0E4B9822D886087B9A090140197
:10585000B0901501F4E13F2E852D0E9400093C0116
:10586000842D0E94080934E06316710410F4049733
:1058700018F03A943110F0CF80E480937B0094E5E7
:1058800090BF852D806480937C0026E120937A0070
:10589000E12CF12C1092800010928500109284006F
:1058A00087E286BB0E94C308312F3170332E10FD72
:1058B00005C081E88093810028B808C028B80E94FC
:1058C000CC0880E286BB81E88093810086B385FFA7
:1058D00013C098E098B91092810020E226BB209175
:1058E00086003091870069014091840050918500C5
:1058F0002417350770F014C080FFE8CF31E036BBC5
:10590000A89597012F5F3F4F790120353105F1F6BA
:10591000E0CF80FF05C081E086BB9FEFE91AF90A5E
:1059200086E980937A00E4E12E2E852D0E940009FD
:105930003C01842D0E94080924E06216710410F4D1
:10594000049718F02A942110F0CF40903B0150901A
:105950003C01480C591C4A0C5B1C209116013091EB
:10596000170180E9A8168AE1B806B0F491EEC916CD
:10597000D104E104F10438F4C60165E070E00E944E
:10598000BD3C645101C069E128523109261B31092F
:1059900067FD339586E009C0C20160EB76E30E94A3
:1059A000BD3C87E0860F285D3F4F90E0A0E0B0E06F
:1059B0008C159D05AE05BF0528F4C81AD90AEA0A58
:1059C000FB0A03C0C12CD12C7601332029F082E2DE
:1059D000C80ED11CE11CF11C90E5E916F10418F089
:1059E000C12CD12C76018BE0C816D104E104F1045E
:1059F00028F091E0C91AD108E108F108409132017C
:105A000050913301612C712CA8EEB3E00E94283D27
:105A1000698B7A8B8B8B9C8B9501DA010E94283DD8
:105A2000A30192010E94E43C4427552769897A89A1
:105A30008B899C890E94E43CC9010E94110AFC01E7
:105A4000A3019201C701B6010E94A23C2B013C01B7
:105A5000CF01A0E0B0E073E0880F991FAA1FBB1F21
:105A60007A95D1F7BC01CD016B5F7F4F8F4F9F4F70
:105A70002AE030E040E050E00E94E43CC301B20183
:105A80000E94E43CE12FF0E0A1E0B0E0AC0FBD1FCC
:105A900084E0189FA00DB11D11242D933D934D93CB
:105AA0005C931397311016C09CE0C916D104E10431
:105AB000F10480F03196EE0FFF1FEE0FFF1F81E023
:105AC00090E08C0F9D1FE80FF91F208331834283E4
:105AD00053831F5FA8951F5F143008F47FCE88E0C2
