:1000000091C10000A1C100009FC100009DC100007E
:100010009BC100000C947C2B97C100000C948908B4
:1000200093C1000091C100000C941D200C94602B22
:100030000C946E2B0C94F71F87C1000085C1000043
:100040000C943A2B81C100007FC100007DC10000EB
:100050007BC100000C948A0877C1000075C10000C4
:1000600073C1000071C10000E62FF72F903009F432
:100070009395E5B8C4B8B6EFB0937A00A5E0A09325
:100080007B00A8E0A093810010928000AFEFA093C6
:100090008500A0938400A6E0A093360010928B0008
:1000A00010928A00B3E0AFE3A91B51E0392F33303F
:1000B0002AF0A05CBC4F53953350F9CFB093890020
:1000C000A0938800A0917A00A4FFFCCFB6EBB09378
:1000D0007A00A2E0A0936F00A9E0A093810062E003
:1000E000A0E0A0937B00A1E0A09353008895E5B821
:1000F000C4B884FF1AC0A8E10000AA95F1F7EF93F5
:10010000FF93E7B1F8B1A4E0C2FCA2E0C0FCA1E01B
:10011000BF2FBA2BAE2BB8B904B9A7B9E7B9F8B954
:10012000FF91EF910BC00C947300ACE10000000054
:10013000AA95F1F725B9E5B8000004B9A0918400AB
:10014000A0918500B0918900A395AB1760F7A091AD
:100150007A00A4FFF3CFB6EBB0937A006A9571F7FB
:100160006091780070917900308186FD630F619312
:10017000308186FD731F80FF7193652F4A9579F753
:1001800010926F0010928100B6E0B0937A0008954B
:10019000010410090A0C4E6F742063616C6962726D
:1001A000617465642120466F72FF63616C696272DD
:1001B0006174696F6E20636C616D70207468652076
:1001C00033FF70696E7320746F67657468657220A1
:1001D000616E64207374617274207769746820742E
:1001E0006865FF6B65792E2041636B6E6F776C6578
:1001F000646765207468652073656C662D7465732B
:1002000074207769746820746865206B657920773D
:10021000697468696EFF32732E20446973636F6E70
:100220006E6563742070696E7320616674657220F8
:10023000746865FF6D657373616765202269736F0C
:100240006C617465FF50726F6265212220697320B2
:1002500073686F776E2E20536F66747761726520B6
:10026000616E6420646F63756D656E746174696F2F
:100270006E206973206174206769746875622E63EB
:100280006F6D2FFE6D696B726F636F6E74726F6C42
:100290006C6572FE2D6E65742F7472616E73697376
:1002A000746F72FE7465737465722000B9038703FE
:1002B00058032E030703E402C302A40288020000CD
:1002C000140029003E005300690080009700AE0032
:1002D000C600DF00F80012012D014901650182010D
:1002E000A001BE01DE01FF012102440268028E026C
:1002F000B502DE020903350364039403C803FE0359
:1003000037047304B404F90443059305EA05490668
:10031000B3062907AE074808FF08DE09FD0A930C5B
:10032000480F991B11241FBECFEFD8E0DEBFCDBF11
:1003300021E0A0E0B1E001C01D92AA3BB207E1F7C5
:100340000E941C0D0C9466345BCE80FD5C9A80FF8D
:100350005C98549A00005D9A559A589859985A9802
:100360005B9864FD589A509A65FD599A519A66FDBA
:100370005A9A529A67FD5B9A539A00005D981DD174
:1003800087FD10C05D9A589859985A985B9860FDFF
:10039000589A61FD599A62FD5A9A63FD5B9A000072
:1003A0005D980BC1089597FF09C08F939F938DE2CD
:1003B00021D49F918F91909581959F4F67E171E036
:1003C0004AE050E00E9405347EC40895ECDF01C08D
:1003D000EADF80E20FC48DE20DC48DE30BC4EF921F
:1003E000FF920F931F93182F062FF42E84E691E0AF
:1003F00075D4EE24E0913201F09133018685E81640
:1004000011F4812F09C08485E81611F4802F04C0EF
:100410008585E81611F48F2DEDD3E3948E2D83306E
:1004200049F71F910F91FF90EF900895682F80E09A
:1004300092E0662309F491E0623009F481E00895C6
:100440000F93082FE2EAF1E0880F880FE80FF11D03
:100450006081718182819381643671058105910586
:1004600068F42091150127FD09C0802FDFDF692F77
:100470000BD26EEF23E044EFD0D504C04FEF04E081
:1004800024EFE2D4A6DF0F910895863058F4E1E915
:10049000F1E0E80FF11DE80FF11D8081918163E02B
:1004A000C7D597CF08951F93182F80916B0188238C
:1004B00019F08FDF80E09ED3FDD38BE591E00ED461
:1004C000812F82958F70E1DF812F8F70DEDF1F918A
:1004D00008958091020182958F7019D08091020158
:1004E00083701CD080910201DECF0895E5E8F1E031
:1004F000E80FF11D0895CF93F9DF9081C681C917E8
:1005000010F405D001C013D064DFCF910895EEDF61
:100510008F938081A4D38F9101C008958F9387E238
:1005200091E0DCD38F91E2DF868199C30895DEDF0D
:100530008F93868194D38F9101C008958F9383E226
:1005400091E0CCD38F91D2DF808189C308958F93BE
:100550002F932AE080953B9A089410F4439802C0A8
:10056000439A000020D027D086952A95B1F72F9185
:100570008F91089503D002D001D000D000D003D0D5
:1005800002D001D000D000D003D002D001D000D0E2
:1005900000D0A89503D002D001D000D000D003D065
:1005A00002D001D000D000D003D002D001D000D0C2
:1005B00000D003D002D001D000D00000089590E018
:1005C000893C28F0885C48EC849FC0011124009786
:1005D00009F4089520918100277019F0DADF01975E
:1005E000F6CF8130910519F002973EE303C037E161
:1005F00080E090E02091B200230F2093B30042E00E
:100600004093700027E023BF889526E023BF109217
:100610007000A895DCCF8F9384E0D1DF07C08F9363
:1006200082E0CDDF03C08F9381E0C9DF8F911F93FC
:10063000182F106410937C00E12FE0788091220144
:10064000E81759F0E0932201AEDF8EE980937A003B
:1006500083E083BF889582E083BF20E030E0A9017A
:10066000E0E01FC08EE980937A0083E083BF889525
:1006700082E083BF6091780070917900260F371F68
:10068000411D511DE43061F480912401803041F01E
:1006900084E02030380720F417FD02C01068CACF6C
:1006A000EF5F80912101E817E8F2609125017091D8
:1006B000260117FF04C0609123017091240180E09E
:1006C00090E00E947B322FEF33E040E050E00E9448
:1006D000BD32B901CA012091210130E040E050E073
:1006E0000E94BD32C9011F9108959B01281B390B3F
:1006F00050F0C9010895BC01809125019091260117
:100700006817790718F4861B970B089580E090E02E
:1007100008958BE293E00E943834382F8CE293E006
:100720000E94383420912901230F30912A01381F6B
:1007300020930B0130930C0183E0283E380720F012
:10074000C901885E934002C080E090E062E370E0FF
:100750000E949632683008F067E0ECEAF2E0E60FBB
:10076000F11DE60FF11D459155912591359162E3FB
:10077000681B421B530B649FC001659F900D1124A1
:10078000499662E370E00E949632620F731F709385
:100790006E0160936D018DE293E00E9438349927D9
:1007A00087FD90956091290170912A01860F971F0E
:1007B000909324018093230190936A0180936901AF
:1007C00008950F9221E08C32920710F48CE291E0B0
:1007D0008C52914069E170E00E94963299E16B324F
:1007E00010F0982F6BE2981BE9EAF2E0E60FF11D9A
:1007F000E60FF11D9F93CF010E943834482F3196A8
:10080000CF010E943834582F3196CF010E943834DE
:10081000282F3196CF010E943834382F6F91421B18
:10082000530B649FC001659F900D11240C9669E1E4
:1008300070E00E949632620F731FCB010F900895F3
:10084000CF93DF9324E130E0B9010E949632DC01BE
:10085000EEEBF2E0E60FF71FE60FF71FC591D5911B
:10086000459155914C1B5D0B4A9FC0014B9F900DCC
:100870005A9F900D1124B9010E9496326C0F7D1F72
:10088000CB01DF91CF910895AEE1B0E0EAE4F4E06E
:100890000C94A533662EB82E860F898320910F0104
:1008A000283059F520917301309174014091750100
:1008B0005091760157FD15C01091820109C0CA01FF
:1008C000B9012AE0312D412D512D0E94BD321F5F0B
:1008D000173FACF391F4243160E036074105510530
:1008E00018F48FEF9FEF41C1173F39F480E02817CC
:1008F0008DE738074105410510F020E03DE72C8BDE
:100900003D8B26EDA22EE3E9F1E0E60DF11D859188
:1009100088608E87E3E9F1E0EB0DF11D8591886039
:100920008F87E0E9F1E0E60DF11D7590E0E9F1E077
:10093000EB0DF11DC59090EC692AB92A81E0E82EF3
:10094000F12C012D112D8E831F82188619861A868F
:100950001B861C861D86188E198E1B8E1A8E0E9471
:100960005E1C88E088B960927C001DDE3F8537B947
:1009700075B874B852E05A95F1F70000000014B849
:1009800015B8DD243E8537B975B874B860927C001F
:10099000A895A0927A0080917A0086FDFCCF2090E5
:1009A000780030907900B0927C004C2DE2D02091FC
:1009B000780030917900288B398B3F8537B9C5B8DD
:1009C000C4B8A895B0927C00A0927A0080917A0079
:1009D00086FDFCCF609178007091790060927C0078
:1009E000472DC7D0409178005091790014B8CB01C1
:1009F000820D931DE80EF91E011D111DEA82FB8276
:100A00000C831D8388899989840F951F2E813F81CE
:100A100068857985280F391F611D711D2E833F83DD
:100A20006887798722E32417150648F075B874B8EB
:100A3000C4DD14B815B8888D8395888F07C0483EEB
:100A400073E0570718F08A8D83958A8F8889998972
:100A50002817190658F03E8537B9C5B8C4B8ADDDBA
:100A600014B815B8898D8395898F07C0883E73E0C7
:100A7000970718F08B8D83958B8FD3945D2D5F3FF7
:100A800049F05F3731F45C2D550FC50E572D550FCA
:100A9000750E78CF40902E0150902F01440C551CBC
:100AA0009201E4E0240D351DEA95E1F72901570193
:100AB00068016E807F808884998420910F0128309E
:100AC000C1F46C897D89812D912D655070408040E5
:100AD00090409B01AC010E947B329B01AC0160E71E
:100AE00079E786E190E00E94BD32621A730A840AB7
:100AF000950AA614B704C804D90428F46A187B0818
:100B00008C089D0803C0662477244301B20180E06D
:100B100090E09301A4010E947B329501A6010E94FE
:100B2000BD3283E093E07981870F911D0E943834B4
:100B3000682EC90160E170E00E949632260F371FCF
:100B4000C9016816190618F4861991090EC08C5E41
:100B50009F4F8615910538F48C899D89843981E1F0
:100B6000980708F010D7812D912D6E96E2E10C9434
:100B7000C133109281001092800010926F00109289
:100B80008B0010928A0057E056BB5FEF50938500B0
:100B90005093840055E050937B0056EB50937A00BD
:100BA00051E05093810058E25A95F1F7000045B9A1
:100BB00044B955E05A95F1F7000014B815B81092F1
:100BC000810080917A0084FFFCCF80937A000895A1
:100BD000CF93C82F1C161CF4FCDBC150FBCFCF9168
:100BE000089580913101809300018091A10180934B
:100BF00001010895CF93C82F809131018F5F8093B9
:100C000031016C2F81E0A1DBCFDCC63048F4C43069
:100C1000B8F4C23069F080F4C130E1F48EE30DC065
:100C2000C43E81F0C43F81F0CD32A1F48DE213C007
:100C30008CE78DDC8CE30FC08CE789DC8CE70BC084
:100C400082E509C085E707C08FE481DC88E67FDCA8
:100C50008DE601C08C2F7BDCA895CF9108958F5C29
:100C6000C9CF0895682F80E070DB9ECC0895609313
:100C70003101813011F480EC01C080E8860FF2CFA1
:100C800008956091000180910101F1CF08958DE0F8
:100C90005EDC8AE05CCC08951092A10180E8E2DF7E
:100CA00010923101F4CF089581E0DCDF82E087DC2F
:100CB000F3CF089581E08093A10180ECD3DF1092FF
:100CC0003101E5CF0895CF93DF93EC01899188231B
:100CD00011F090DFFBCFDF91CF910895CF93DF9399
:100CE000EC01CE010E943834882319F083DF21966D
:100CF000F8CFDF91CF9108950F931F93CF93DF9398
:100D0000EC0128968C010F5F1F4F0E94383472DF70
:100D1000C8010C171D07B1F7DF91CF911F910F91FB
:100D2000089584E14CDC83E39DDF82E39BDF82E076
:100D300046DC80E297DF80E295DF8AE293DF88E09D
:100D400091DF86E08FDF82E08DDFAEDF81E037DC90
:100D50008CE088DF88E486DF84E590E0CDDF80E505
:100D600081DF8CE490E0C8DF88E57CDF8CE590E0F3
:100D7000C3DF80E677DF84E490E0BEDF88E672DFE1
:100D80008CE390E0B9DF80E46DDF84E390E0B4CFE2
:100D900008959091310180E1891B1ACF0895CF9376
:100DA000C82FF7DF8091A1018F5F8093A10182306E
:100DB00030F081E08093A1018093340102C0109251
:100DC00034016C2F8091A10152DF61DFCF91089532
:100DD000E6DF7ED18091A101833008F058CF0895DD
:100DE0005BDFD7DF59CF089565DFD3DF63CF089589
:100DF0000F9385E791E072DF409181014D3F64F4EC
:100E000060916F01709170018091710190917201F8
:100E100003E026E419D002C08FE3ECDE0F910895C1
:100E200090910E019F70923071F4D2DF84E690E0D1
:100E300055DFE0913201F091330122E044EF6FEF92
:100E400084819581EAC00895AEE0B0E0EAE2F7E07F
:100E50000C94A533142F622E702E6B017C010F7041
:100E600080E389838A838B838C838D838E83F7FED3
:100E70000AC0B1DAF094E094D094C094C11CD11CA3
:100E8000E11CF11C04C075FE02C08BE2B3DE03302E
:100E900071F0043099F00530C1F00630F1F0073000
:100EA00021F174E6872E912CA12CB12C25C068EE7F
:100EB000862E63E0962EA12CB12C1EC050E1852E0B
:100EC00057E2952EA12CB12C17C040EA842E46E89B
:100ED000942EAA24A394B12C0FC030E4832E32E4C4
:100EE000932E3FE0A32EB12C07C020E8822E26E9E6
:100EF000922E28E9A22EB12C9AE0292E312C412CD9
:100F0000512CC814D904EA04FB0470F0C701B601DF
:100F10006B5F7F4F8F4F9F4FA20191010E94BD32A7
:100F200069017A011F5FEDCF81E1810F9BEA899F03
:100F3000812D1124A82EA69486E0811B899F112D56
:100F400011241695912F990F190F811B182F4E01FF
:100F500087E0880E911C2AE0A401C701B6010E9417
:100F6000E433F40101900020E9F731977F01E8189C
:100F7000F9089E2C6701DD24812F90E004968C15E2
:100F80009D0514F4A3941D5F8A2D90E0845D9F4F0E
:100F90000E943834A82E74FE04C0901610F40E1966
:100FA00001C000E08E2C811A800E181424F08EE20D
:100FB00021DE012F0E19111102C088EF882E912C0D
:100FC00010E0C00ED11EE82C082C000CFF08892D63
:100FD00090E08C159D05ACF4FC013696E01BF10BFE
:100FE00081E090E08C0F9D1FE80FF91F808102DEE9
:100FF0009394892D90E08E159F0549F78EE2FADDD6
:10100000E6CFAA2011F08A2DF5DD662011F0862D9D
:10101000F1DD2E96E2E10C94C1330F93362FBC0123
:1010200080E090E0022F242F432F0EDF0F910895D0
:101030000F93062FBC0180E090E026E54DEF04DF22
:101040000F9108950F93042F28E440E0FDDE8AE716
:10105000D1DDBFD90F910895EF92FF920F931F93A7
:10106000CF93DF93F82EE92EC5E64F9B05C0CF2D19
:10107000DE2D15E500E019C081E0A1DAC150A9F725
:10108000F6CF82E09CDA110F4F9B1F5F1F731F3357
:1010900079F4011103C0CF2DDE2D04E00F5F083C71
:1010A00088F4A8951C161D0644F0D7FFEACF0AC0A5
:1010B0001111F7CF0023A9F305C02A97B1F7CFEF9D
:1010C000DFEFF3CF802FCDB7DEB7E6E00C94CD3362
:1010D000CF9387DDC82F809134018823C1F0813000
:1010E00049F4C13039F46FE0C2DD8BE283DD6FE09B
:1010F00081E0BDDD80E49FE1AFDFC13039F4809154
:101100003401813019F460E0B2DD43DEBADDCF9105
:1011100008951895189530910D01A0913201B09164
:101120003301E5E8F1E080E090E08317B0F441910D
:101130001C962C911C97421719F04581241302C06C
:101140000196F3CFFC01EE0FFF1FEF56FE4F2081FB
:101150003181293E334008F4089584E108951092C6
:101160000F0110920D01109264011092440110922F
:101170000E011092300110926B01EFE4F1E0108249
:1011800011821282EFE6F1E0108A82E0818B1092E8
:10119000150117861686148215821682178281EF32
:1011A000838B08958FE4D3D986E4D1D986E4CFD94F
:1011B0006EDD5E98E2D980E090E04ECF08951F93F7
:1011C000CF93DF93162F98E097B998B9E82FF0E006
:1011D000E057FE4F949195B9262F281BE20FF11D81
:1011E00027FDFA95E491E92BE4B921DAEC01812F8E
:1011F0001EDAAC0120912501309126013695279504
:10120000C9010397BE01625E7F4F8617970778F486
:10121000255E3F4FC217D30750F4BA01625E7F4F7D
:101220008617970720F481E04217530708F080E003
:1012300014B8DF91CF911F910895CF9361E080E0C2
:10124000BEDFC82F62E080E0BADFC80F62E081E055
:10125000B6DF8C0FCF910895AFE0B0E0E2E3F9E0A4
:101260000C94A533B82E10920F01807FA9F4E5DF0E
:10127000833009F084C318DD8BE392E02FDD1ADDA3
:101280008FE3B8DC80ED97E0E7DE8B30C0F40CDD57
:1012900085EF90E023DD73C306E910E005DD8AEAFF
:1012A00091E01CDDCADF833021F41F5F143010F0A1
:1012B00006C010E088E283D9015081F760C0FADCF3
:1012C0000E943F2081EB90E009DD60E085E093E043
:1012D0000E94453460E086E093E00E94453460E07F
:1012E00084E093E00E94453460E082E0CDDA6C0156
:1012F0009A83898361E082E0C7DA7C019C838B83D7
:1013000060E081E0C1DA8C019E838D8323E040E2BE
:101310006EEFC60182DE23E040E26EEFC7017DDEA4
:1013200023E044EF6EEFC80178DE2AE5C216D1044F
:1013300024F084E190E09A838983698185E093E0D9
:101340000E9445348AE5E816F10424F084E190E037
:101350009C838B836B8186E093E00E9445340A3541
:10136000110524F084E190E09E838D836D8184E0FB
:1013700093E00E94453482E080933401A9DEEB2D96
:10138000EF70EF87E13011F018E739C1EE24E394F4
:10139000F12C78EB872E72ED972E77E4A72EB12CE7
:1013A000E2E0DE2E08E0F0E23F2EC12C1E2D52E2DC
:1013B000252E1ADD15DD84E51DDCC7010E94DE0146
:1013C00008D81130B9F484EE90E088DC64E08091B4
:1013D000290190912A012CDE6DDC8FED90E07EDCFE
:1013E00080916D0190916E010E94DE018EEB8093E1
:1013F0002101E1C0123079F52091250130912601BB
:10140000A8E5BBE10E94FB3224EC36E340E050E06B
:101410000E94DF3229013A0181E085B9F5E0F4B993
:1014200080E0F9D8841995099A83898381E184B988
:1014300080E0F1D8841995099C838B8384E085B979
:1014400084E184B981E0E7D8841995099E838D836E
:1014500089EC90E09EC0133041F5D5B82AE024B95C
:1014600080E0D9D820912501309126013695279525
:1014700038872F83821B930B9A83898324B880E05B
:10148000CAD82F813885821B930B9C838B8305B927
:1014900088E284B981E0BFD82F813885821B930B05
:1014A0009E838D838BEB90E074C0143039F48BE213
:1014B00092E014DCC2DE81115FC26CC0153099F479
:1014C00015B8D4B880E0A7D89A83898304B981E09D
:1014D000A2D89C838B8334B882E09DD89E838D8371
:1014E0008BED90E056C0163039F5D4B8D5B880E011
:1014F00092D82091250130912601821B930B9A836B
:10150000898304B905B981E086D8209125013091FD
:101510002601821B930B9C838B8334B835B882E001
:101520007AD82091250130912601821B930B9E834E
:101530008D8387ED90E02DC0173061F52091250156
:1015400030912601A8E5BBE10E94FB32A501940180
:101550000E94BD3229013A01D5B8E3E0E4B980E048
:101560005AD8841995099A83898305B9FCE0F4B99E
:1015700081E051D8841995099C838B8335B820E389
:1015800024B982E048D8841995099E838D8385EB20
:1015900090E0A4DB8FDB89819A810E94D3010E94B5
:1015A000E9018B819C810E94D3010E94E9018D8118
:1015B0009E810E94D30107B908B914B815B888EE06
:1015C00093E04ADD143011F08B3020F4C39484E0B2
:1015D000C812EFCE88EE93E03FDDEFEFEE1AFE0A81
:1015E000F8E0EF16F10409F0E0CECECEFDDB8BE2A1
:1015F00092E074DB84E60E94DF02115019F01DDED8
:101600008111F4CF51DB8AEA90E068DB23E044EFFC
:101610006FEF8091270190912801FFDC4BDB83EA7B
:1016200090E05CDB23E044EF6FEF80912E0190911E
:101630002F01F3DC82E0809334014ADD10920F0128
:1016400033DB8FE990E04ADB60E082E00E942E1DF0
:1016500040907701509078016090790170907A0104
:101660005C864B8661E082E00E942E1D80907701AF
:1016700090907801A0907901B0907A019E868D8635
:1016800060E081E00E942E1D0091770110917801A9
:101690001E830D8362E080E00E942E1D8091770101
:1016A000909178019C838B8362E081E00E942E1DE3
:1016B00080917701909178019A87898761E080E035
:1016C0000E942E1DE0907701F0907801FA82E98265
:1016D000C2010E94E801C4010E94E801B801110F93
:1016E000880B990B03E026E444EFAEDB2F85213015
:1016F00021F080912D01823031F482E0E80EF11C5E
:10170000F886EF8206C0F886EF8210922D018CE0F9
:10171000A9DA8E010F5F1F4F6E01EFE0CE0ED11CD4
:10172000F801819191910A97853B9105C8F4EC15D8
:10173000FD05B9F744E2E42E43E0F42EF8016081A0
:101740000E5F1F4F6E5EC7010E944534FFEFEF1A18
:10175000FF0A0C151D0591F7ADDA87E991E0BEDAB5
:1017600082E080933401B4DC0E94202F2F85213049
:1017700029F080912D01823009F0E9C095DA80E0EE
:101780006EDA8DE491E0AADA82E069DA84E290E030
:10179000A5DA20E4F22E10E03AE0832E912CA12C61
:1017A000B12CDDDC10920F0160E082E00E942E1D62
:1017B0000091810120916F01309170014091710180
:1017C00050917201073F44F40F5FCA01B901A501AE
:1017D00094010E94BD32F6CF0093810120936F01E6
:1017E000309370014093710150937201073F09F0EB
:1017F00098C0DA01C90180569109A109B10980395F
:101800009545A105B10508F08CC0609183017091E8
:101810008401CB018B569F4F8B32914008F081C0E1
:101820001F5F153008F47EC08BE293E00E945334B2
:101830003BDA8DE190E052DA80918301909184014E
:101840000E94D3010E94890388E088B989E087B9A2
:1018500080E284B982E00E941703853D9340D4F76B
:1018600014B8109224011092230182E00E94170301
:101870008C018091690190916A0190932401809379
:10188000230182E00E9417037C01EE0CFF1C1092E2
:1018900024011092230182E00E941703A0906901A5
:1018A000B0906A01B0922401A0922301800F911F91
:1018B0008C010E191F09FED986E190E00FDA8DE246
:1018C00093E00E943834D82E9501D8010E940A3343
:1018D00097010F2C000C440B550B0E94DF3213E0D4
:1018E0001D0D120F612F8DE293E00E944534812F70
:1018F000012E000C990B0E94D3010E94890382E003
:1019000080933401E5DB10922D018CE0ABD984E2A9
:1019100093E00E943834682F87E293E00E944534B8
:1019200016C010E0C7D960916F017091700180916D
:1019300071019091720104E026E44091810184DA02
:1019400028DA88E20E94DF02FA94F1102ACF89E1B6
:101950008093210180E00E943532A6D985EF90E086
:10196000BDD9A8D982E292E0B9D910920F0182E0E4
:1019700080933401ADDB03C082E0C82E0BCE2F96DE
:10198000E2E10C94C13380912D0181110DC084E2FC
:1019900093E00E94383461E0680F87E293E00E9490
:1019A000453481E080932D010895EF92FF920F93CB
:1019B0001F93CF93DF93D62FE82FF0E0ED56FE4F25
:1019C000E491E8B9E860E7B915B8E62FF0E0E05730
:1019D000FE4FE491E4B988E8E82E83E1F82ECE2F9B
:1019E000CC0F8D2F0E940B038C01C4B98E159F055F
:1019F00010F47801F6CF892BD1F08BE291E06ED90B
:101A0000D80120EA36E841E050E00E94103328E98E
:101A100037EB40E050E00E94BD32DA01C90122E01C
:101A200041E467EFFADA88E087B988B914B8CDB72E
:101A3000DEB7E6E00C94CD33A0E0B0E0E2E2FDE0FA
:101A40000C94A53380E48AB98BB9C6E8C0937A00B8
:101A50001092C1000E94BF02D4B784B7877F84BFB1
:101A60000FB6F894A895809160008861809360001B
:101A7000109260000FBEC093640088E380937E00E4
:101A80001092B00087E08093B10078944AD9D3FDDA
:101A900029C580E185BFC0E04F9906C082E00E9461
:101AA000DF02CF5FCC33C1F78FE59DE6909308014D
:101AB00080930701CF3130F080E69DE690930801D6
:101AC00080930701109222010E943F209FE088E14D
:101AD0000FB6F894A895809360000FBE90936000B5
:101AE000CC3399F038E0832E42E0942E50E1752EED
:101AF00068E1662E75E5E72E71E0F72EE0EF2E2EF9
:101B0000F3E33F2EA1E25A2E2CC00E9459298111E5
:101B1000FCCFE8CF823009F42EC1833009F458C1DC
:101B200086E892E0DBD88EE692E0D8D8C3D88091E0
:101B30000D01805D5FD88AE25DD887E291E0CED862
:101B400084E592E0CBD8A3D880E49FE167B84F9BAF
:101B5000FECF82DA823308F454C40E9459298111DD
:101B6000FCCFA2D887B8FBDA0E943F2095D8CCD40E
:101B700080913001882369F09DD882E491E0AED84D
:101B800063E0809125019091260152DA88EC0E9451
:101B9000DF0290D80E945E1C80910F01893009F508
:101BA00083D887E491E09AD885D863E08091490191
:101BB00090914A013DDA0E94E90163E080914B0176
:101BC00090914C0135DA0E94E90163E080914D016A
:101BD00090914E012DDA8AEC0E94DF0281E13CDB1C
:101BE0000BC48CE03FD887E293E00E943834C82FC2
:101BF00084E293E00E943834C81BC0932D01CC23AB
:101C000011F08EE02FD880E027DBEED880EA92E05A
:101C100065D883E00E94A7023AD842E061E080E004
:101C2000E7D442E060E081E0E3D441E062E080E0BC
:101C3000DFD441E060E082E0DBD440E062E081E0BC
:101C4000D7D440E061E082E0D3D480910F018111CC
:101C50000EC00E945E1C60E082E00E942E1D61E0CA
:101C600082E00E942E1D60E081E00E942E1D1CD8A3
:101C700085E391E0909333018093320180910F01CD
:101C8000863039F487E792E029D841E467E483E4B9
:101C900008C0873099F480E892E020D842E367E4F6
:101CA00081E30E94EF0106D88BE591E017D862E04E
:101CB0008091390190913A01BBD99CC3883081F45D
:101CC00020917F018091800190E0820F911D029709
:101CD00019F40E94C22297C380E00E94CD218CC3D8
:101CE000833009F0B0C080910D01813009F012CF2E
:101CF00080E00E947B026091850180918B0155DE1E
:101D000080E70E94530240E06091850180918B0141
:101D10000E94422E60936F01709370018093710155
:101D20009093720180E054D860916F0170917001BE
:101D3000809171019091720102E026E442EF84D813
:101D40000E94EB0141E06091850180918B010E942E
:101D5000422E60936F017093700180937101909394
:101D6000720126E442EF70D88DE191E00E946E0688
:101D70000E94470694C282E30E94FA058DE091E03A
:101D80000E946E069091850130918601931307C0E1
:101D900080E00E94970281E00E948E020CC0209198
:101DA0008B0180918C01281308C080E00E9487027B
:101DB00081E00E949E0281E0A4CF321304C081E042
:101DC0008093020133C09813ABCE709202012EC0F3
:101DD0003092020180918B0190918601891303C09A
:101DE00021E0209302014091850130918C01431341
:101DF00002C07092020120918701821302C090926A
:101E0000020180918D01481303C040E2409302011A
:101E100032130FC022E120930201981761F083E38F
:101E20000E94FA058DE091E00E946E060E94690210
:101E300036C2981302C05092020180910201823290
:101E400008F06ECEECCF843009F04BC18091640174
:101E5000882309F45DC080914401882309F458C0A7
:101E600060914101809143010E942E1DA0906F015D
:101E7000B0907001C0907101D0907201C091810149
:101E800060916301809161010E942E1D8091350156
:101E900090913601A0913701B091380140915501E0
:101EA000509156016091570170915801843F21E093
:101EB0009207A105B10538F4443F21E052076105BE
:101EC000710508F0C0EF443F51406105710538F4D9
:101ED000843F9140A105B10510F0209281018091CD
:101EE0008101C8130EC080916F0190917001A09183
:101EF0007101B0917201A816B906CA06DB0618F086
:101F000004C0C81714F48DE001C08CE080930E016A
:101F100080916401882361F080914401882341F01D
:101F20004F9906C090910E0181E0892780930E01A0
:101F300080910E018C3051F48EE691E00E946E0685
:101F400080916401882389F080E70DC0F09233010D
:101F5000E09232018AE691E00E946E06809144018F
:101F6000882319F08EE60E94FA050E94E901D3D871
:101F7000C82F8530E8F480910E018C3041F481E067
:101F80002091420190914301921748F007C081E0EF
:101F90002091620190916301291708F080E0882365
:101FA00019F087E291E002C083E291E00E946E06A0
:101FB00043E462E485E40E94EF010E945A0688E748
:101FC00091E00E946E06E0913201F0913301608150
:101FD00071818281938103E020E04EEF0E9424070B
:101FE0000E94E90189E40E94FA05E0913201F09132
:101FF0003301868197818031974270F085E60E9497
:10200000FA05E0913201F091330186819781805188
:1020100097429783868303C083E60E94FA050E9455
:10202000ED01E0913201F091330122E041E46AEFE9
:10203000868197810E940D0880E00E94E8068FE566
:1020400091E00E946E06E0913201F091330163E06D
:10205000848195810E941808E0913201F09133014A
:1020600080859185892B91F080E00E94E8068FEEB3
:1020700090E00E946E06E0913201F091330123E07E
:1020800041E46AEF808591850E940D08E09132015C
:10209000F091330182859385892B91F080E00E9435
:1020A000E80689EE90E00E946E06E0913201F09120
:1020B000330123E041E46AEF828593850E940D0895
:1020C000C53008F099C180E00E94E8068C2F0E947C
:1020D0007B028BE591E00E946E068C2F0E944502E8
:1020E00089C1853009F0F5C080910E0184FF08C0D8
:1020F00080E50E94FA05F0923301E092320103C0BC
:102100008EE40E94FA050E94EB0180910E01C82F17
:10211000CF70C43041F481E891E00E946E064FE335
:1021200067E48FE311C085FF02C084E401C085E449
:102130000E94FA05C33009F0CDC18BE791E00E94FF
:102140006E0643E467E485E40E94EF0180910E018E
:1021500085FD18C00E945A06E0913201F0913301CA
:10216000668584850E942E1D0E94F80686E591E012
:102170000E946E06E0913201F091330162E08285A7
:1021800093856EC08F70843071F080E00E94CF061E
:10219000E0913201F0913301668584850E942E1D05
:1021A0000E94F8061AC0E0913201F0913301848157
:1021B0009581892B91F080E00E94CF0680E090E02D
:1021C0000E946E06E0913201F091330122E041E479
:1021D0006AEF848195810E940D0880E00E94E806E4
:1021E00089E40E94FA050E94ED01E0913201F0912C
:1021F000330122E041E46AEF868197810E940D0855
:1022000081E591E00E946E06E0913201F091330188
:1022100062E0828593850E941808E0913201F09176
:10222000330180859185803C9241E0F480E00E94FA
:10223000E80689E40E94FA050E94ED0122E041E4EB
:102240006BEF80E090E00E940D0881E591E00E9434
:102250006E06E0913201F091330162E08085918554
:102260000E94180880E00E941007C43009F4C4C01E
:10227000C0E080910D01C81708F0BEC080E00E9448
:10228000E8068C2F0E947B028BE591E00E946E068F
:102290008C2F0E9445020E944706CF5FEACF0E9422
:1022A000470680916B01882309F4A6C067B8809126
:1022B0000701909108010E942C0887B80E945406DB
:1022C00080910D01805D0E94FA058DE091E00E94F1
:1022D0006E06D0916B01DD2309F47FC0D130A1F4EB
:1022E000809152010E94160220915201213039F44E
:1022F00020910D01211103C00E94802284C040E082
:10230000692F0E94102178C0909152018091530151
:1023100024E0829FD0011124AE55BE4F24E0929F4D
:10232000F0011124EE55FE4F0D911D912D913C9120
:1023300040815181628173814017510762077307A1
:1023400010F4C82F01C0C92FD23021F4890FC3E087
:10235000C81B1CC08091540194E0899FD0011124B6
:10236000AE55BE4F24E0C29FF0011124EE55FE4F42
:102370000D911D912D913C9140815181628173811C
:10238000401751076207730708F4C82FDC2FD69552
:10239000092D0C1BC11102C011E001C012E08D2FEC
:1023A0000E942F0688E091E00E946E06802F0E9416
:1023B0002F0688E091E00E946E06812F0E942F0672
:1023C00080E00E94CF0681E0C11180E00E942002DF
:1023D000892D8D1B0E9420020FC08EE592E00E9485
:1023E0006E060E945A068BE892E00E946E0686E80E
:1023F00092E0A8CB0E9447068091070190910801C6
:10240000A5CB8111AECB8CE00E94320680912D01CC
:10241000882309F45CC0D2E000E010E080E090E0A6
:1024200020E1422EFC01E00FF11FEA56FE4FC4915D
:10243000C03211F0CE3F09F4482E0196813191054A
:1024400089F7DD2341F08D2F8170B82ED0FD0AC0B1
:102450000E94540607C080E197E20E942C0888235E
:1024600091F331C060E08B2D0E9437060E94470631
:10247000A895DF5FD170A12CB12CA414B0F4F801A1
:10248000EA0DFB1DEA56FE4FC491CC23E1F0CF3F8D
:1024900019F40E94E90105C0CE3F19F08C2F0E946B
:1024A000FA059FEFA91AB90AE8CFCC2361F0040D11
:1024B000111DF801EA56FE4FE491E03209F0AECF6B
:1024C0000F5F1F4FABCF80E197E20E942C080E9464
:1024D000D20847CB86E891E00E946E0644E467E4A8
:1024E00083E532CE0E944C068BE492E00E946E0699
:1024F0008BEC0E94DF020E94D20880E090E0CDB712
:10250000DEB7E2E10C94C1330F931F93CF93DF93B7
:1025100085E00E94170385E00E9413038C01EC0103
:10252000CC0FDD1FCC0FDD1FCA56DF4F10922B01E1
:10253000C43883E0D80750F48BE891E00E946E061F
:102540000E94C90681E080932B0126C08AE991E0B0
:102550000E946E0662E0CE010E9418080E94E90106
:102560000A3F86E0180790F40333164060F484E9CC
:1025700092E00E946E060E94C9068DEC0E94DF0266
:102580000E94D20809C08BE992E002C087E991E07D
:102590000E946E060E94C906DF91CF911F910F9194
:1025A0000895CF93DF93DC019C01261B370BE0E0FD
:1025B00090E0B901690F711D672F7727920F260FE1
:1025C000371FBA016E0F711D672F7727E40FEB01DC
:1025D000CC0FDD1F4C0F5D1F6B3E28F4A217B30715
:1025E00040F7CA0102C080E090E0DF91CF910895EA
:1025F000A8E1B0E0EEEFF2E10C94A533582E462EA0
:10260000342EA895E62FF0E0E057FE4F24912C875A
:10261000220F2B8B339634913A8BE42FF0E0E05766
:10262000FE4F44914983339654915F83E82FF0E045
:10263000E057FE4F2490822D880F8F873396949118
:102640009B8398609C8338603A8345B9AC84A42A04
:10265000A4B897B9EB81E8B9862F0E9413039E872F
:102660008D87FC85F4B9842D0E9413033C0114B8B6
:102670000E94C80215B8A4B8842D0E9413036D856A
:102680007E850E9475036C012A8127B988E088B98C
:10269000398132293D8335B934B9852D0E94130320
:1026A0000E947B037C0115B80E94C80225B8852DC5
:1026B0000E9413030E947B038C0124B8852D0E9485
:1026C00013030E947B03B82E9987B801C7010E94AB
:1026D0007503803241E0940730F450E2C51651E0B2
:1026E000D50608F4B6C5C00ED11EED85FE858E0F49
:1026F0009F1FC816D90620F41E870D876B2C79847E
:102700002091440130916401822F90E0830F911D4C
:1027100002974CF0213009F09CC5909141018091C5
:102720006101981396C5F981FF0FF88FF229FB8795
:102730002D853E852437310508F4A5C1C901880FD0
:10274000991F44966816790608F09DC13C8137B9F7
:102750004B8148B98C85588D852B84B9842D0E9476
:102760000F038C01832D0E9417037C01888D85B98E
:10277000842D0E940F039801295A3D4F28173907CD
:1027800008F0B4C088E088B99A8197B9EB85E4B9BC
:10279000E5B9832D0E940F0388349F4028F085E01F
:1027A00080930F0182E204C085E080930F0184E2F0
:1027B00080930E0110933A0100933901B701C801CB
:1027C0000E9480039093400180933F019801A0E113
:1027D000B7E20E94FB322091090130910A0140E0EA
:1027E00050E00E94BD3230933C0120933B018B8925
:1027F000288D822B84B915B83C8137B94B8148B9F3
:10280000832D0E9417038C01842D0E940F03B801B1
:102810000E9480039C0190933E0180933D01909122
:102820000E019F70943081F540913B0150913C0125
:1028300060913F0170914001C901B3DE009701F141
:10284000588D54B9EA898C81E82BE7B9842D0E9410
:102850000F038C0188E087B99801A0E1B7E20E94DC
:10286000FB3220912E0130912F0140E050E00E9478
:10287000BD32A901B80180913D0190913E0191DEE8
:1028800090933A018093390180910E018F708430CA
:1028900009F4D6C488E088B99F81EA819E2B97B954
:1028A00024B8FD81F5B9852D0E9413038C010E9487
:1028B0007B039E838D83842D0E941703E09010017B
:1028C000F0901101BC01C8010E9480039701DC0156
:1028D0000E94FB32ED81FE819F0140E050E00E94AA
:1028E000BD3230933A0120933901AAC488E088B9F7
:1028F000FA81F7B92B8524B925B9852D0E940F03DC
:102900008C01832D0E9417037C0125B8852D0E9420
:102910000F03895A9D4F8017910708F09AC43B8195
:1029200038B94C8147B9832D0E940F03813D9340F4
:1029300028F485E080930F0182E304C085E0809352
:102940000F0184E380930E01B801C7010E94800348
:102950009093600180935F01C8010E947B039C01FA
:10296000A0E1B7E20E94FB322091100130911101E9
:1029700040E050E00E94BD3230935C0120935B0147
:10298000F8E0FF2EF8B88A8187B98F85988D892B5A
:1029900084B985B9852D0E9417038C01832D0E946F
:1029A0000F03B8010E9480039C0190935E01809305
:1029B0005D0190910E019F709430A1F540915B01F3
:1029C00050915C0160915F0170916001C901E9DD86
:1029D000009721F1E88DE5B9E4B9FB81F8B9EC8104
:1029E0002A81E22BE7B9852D0E940F030E947B0309
:1029F0008C01F7B89C01A0E1B7E20E94FB32209164
:102A000027013091280140E050E00E94BD32A90129
:102A1000B80180915D0190915E01C3DD90935A01F0
:102A20008093590180910E018F70843009F4E0C1C8
:102A3000EB813F81E32BE8B94C81342B37B915B8D2
:102A40005D8154B9852D0E9413037C01842D0E9461
:102A500017039E838D830091090110910A01BC0127
:102A6000C7010E9480039801DC010E94FB32ED81C6
:102A7000FE819F0140E050E00E94BD3230935A0138
:102A800020935901B5C188E088B9FA81F7B925B812
:102A90002B8524B9852D0E941303998B888B0E9466
:102AA0007B0398878F83832D0E9417039A878987DA
:102AB000430134E6830E911C4F815885B30184167F
:102AC0009506D8F4CA010E9480038C012091100160
:102AD0003091110140E050E060E871EA83E09CE150
:102AE0000E94BD32D8010E941033E985FA858F011A
:102AF00020E030E0A901980123C08F8198850E94D1
:102B000080038C01FD81F4B9852D0E941303998BFC
:102B1000888B0E947B0398878F83832D0E941703E5
:102B20009A878987BC01C8010E9480039C01A4E6A2
:102B3000B0E00E94FB32E985FA859F0140E050E059
:102B40000E94BD3269017A0114B815B8FB81F8B949
:102B50002C8127B981E00E94DF02A4B8842D0E9455
:102B60001303BC84388DB32A8F359D4008F446C1C9
:102B7000B4B8842D0E940F038C01832D0E9417038B
:102B80009D8B8C8B852D0E9417039F8B8E8B8C8940
:102B90009D89813D974008F4B7C084E080930F0180
:102BA0008DE080930E016016710630F498012619AD
:102BB00037093E832D8302C01E830D838090090157
:102BC00090900A01A12CB12C60E871EA83E09CE1AD
:102BD000A50194010E94BD32AD81BE810E941033D7
:102BE000EC89FD899F0140E050E00E94BD32809158
:102BF0006401882369F08091550190915601A0915C
:102C00005701B091580182179307A407B50708F53B
:102C1000209355013093560140935701509358012A
:102C20009801A0E1B7E20E94FB32A50194010E9445
:102C3000BD3230935C0120935B016C897D898E8964
:102C40009F890E94800390935A018093590181E0EB
:102C500001C080E0409155015091560160915701AB
:102C6000709158014C155D056E057F0538F5C092D1
:102C70005501D0925601E0925701F09258016985B2
:102C80007A85888999890E94800390935A0180935C
:102C900059012F813885A0E1B7E20E94FB322091D3
:102CA00010013091110140E050E00E94BD32205FE0
:102CB000384D30935C0120935B0103C0882309F4F5
:102CC000B1C3C0900901D0900A01E12CF12C93010D
:102CD000A0E1B7E20E94FB32A70196010E94BD323B
:102CE00030935E0120935D012D853E85A0E1B7E222
:102CF0000E94FB32A70196010E94BD323093600111
:102D000020935F0181E08EC3F1E66F16710408F035
:102D100075C0013D27E0120708F470C085E080937C
:102D20000F0182E180930E01C80186509F4F4E89AA
:102D30005F898417950720F483E180930E0119C001
:102D40008091090190910A019E838D83B8018E893B
:102D50009F890E9480032D813E81DC010E94FB320D
:102D6000980140E050E00E94BD3230935A01209318
:102D700059019A899770E92E832D806480937C0095
:102D8000EBE0FE2EE1E0F0E0FE83ED830FEF13E0D9
:102D9000A89561E089817AD5B4B886B18E21E9F32E
:102DA000FC85F4B980917A00806480937A008091E8
:102DB0007A0086FDFCCF809178009091790098018F
:102DC000281B390B4D815E81420F531F5E834D835B
:102DD000FA94F110DDCFCA01880F991F880F991F4F
:102DE00069E070E00E9496327093600160935F0129
:102DF000809164018F5F8093640184CFB4B8588D53
:102E000055B9842D0E9413036C01832D0E94170372
:102E100098878F830E947B039A8789878C149D04EF
:102E2000A8F4B301C6010E9480038C01209109011E
:102E300030910A0140E050E060E871EA83E09CE1F3
:102E40000E94BD32D8010E9410331FC0A4B8F9817E
:102E5000F5B9842D0E9413036C01832D0E94170382
:102E600098878F830E947B039A878987C6016C1499
:102E70007D0410F48619970969857A850E9480037C
:102E80009C01A4E6B0E00E94FB32E985FA859F012F
:102E900040E050E00E94BD3249015A01FA81F7B981
:102EA00088E088B92D8124B925B9852D0E941303A6
:102EB0008C01832D0E9417039A878987842D0E9495
:102EC00017037C01003331E1130708F0BFC125B8B7
:102ED000852D0E941303998B888B24B8852D0E9421
:102EE00013039D8B8C8B15B881E00E94DF0225B8FF
:102EF000852D0E9413034C895D894034564008F0AB
:102F00005DC08133914108F459C0C8018A569F4F72
:102F1000288939892817390708F050C086E080933E
:102F20000F01809144018F5F80934401B70189852F
:102F30009A850E94800390933A0180933901B701EA
:102F4000C8010E9480039093400180933F0114B810
:102F500015B83A8938B981E00E94DF0224B8852D7E
:102F60000E941303853F910508F06AC24D8144B960
:102F7000832D0E941303813D934008F461C2852D87
:102F80000E9417038D3D924008F45AC224B8852D43
:102F90000E9413038D3D924008F452C225B881E08F
:102FA0000E94DF0215B8852D0E941303853F91050D
:102FB00008F046C287E080930F0142C22A8127B9F8
:102FC000398134B935B981E00E94DF024B8544B9BB
:102FD00045B9852D0E9413038C010E947B03998BB8
:102FE000888B832D0E9417039E838D830E947B0311
:102FF0009A878987842D0E9417037C0189859A8589
:103000008E3F994008F4B2C084E080930F018CE0B9
:1030100080930E01B301888999890E9480038C01F5
:10302000209110013091110140E050E060E871EA18
:1030300083E09CE10E94BD32D8010E941033E985F3
:10304000FA859F0140E050E00E94BD32809144012A
:10305000882369F08091350190913601A091370164
:10306000B091380182179307A407B50728F520937C
:103070003501309336014093370150933801B70141
:103080008D819E810E94800390933A018093390143
:1030900028893989A0E1B7E20E94FB322091100112
:1030A0003091110140E050E00E94BD3230933C016C
:1030B00020933B0181E001C080E0409135015091B7
:1030C00036016091370170913801481559056A053C
:1030D0007B0528F58092350190923601A092370148
:1030E000B0923801B6018F8198850E948003909339
:1030F0003A01809339019601A0E1B7E20E94FB32C8
:103100002091090130910A0140E050E00E94BD3257
:10311000205F384D30933C0120933B0103C088234E
:1031200009F48FC19301A0E1B7E20E94FB32209124
:10313000090130910A0140E050E00E94BD32309315
:103140003E0120933D012D853E85A0E1B7E20E941E
:10315000FB32209110013091110140E050E00E94BB
:10316000BD323093400120933F016AC1F1E66F16F2
:10317000710408F06BC02889398929343D4008F46E
:1031800065C085E080930F0182E080930E01C70146
:1031900086509F4F8017910720F483E080930E01A3
:1031A00017C0C0901001D0901101B701C8010E9452
:1031B00080039601DC010E94FB32E889F9899F01B6
:1031C00040E050E00E94BD3230933A012093390133
:1031D0000B810770832D806480937C001BE021E0CD
:1031E00030E03E832D83A89560E089814FD33B85F5
:1031F00034B935B986B18023E9F724B880917A00D3
:10320000806480937A0080917A0086FDFCCF809163
:103210007800909179004D815E81480F591F5E833F
:103220004D83115001F7CA01880F991F880F991F0C
:1032300069E070E00E9496327093400160933F0114
:10324000809144018F5F80934401FAC088E087B980
:1032500088B914B815B888E087B957EC651651E0FD
:10326000750608F4D0C088B98F8584B998EC9D8321
:10327000EC81FA81EF2BEF832F8127B981E00E9447
:10328000DF023A8137B9852D0E941703429728F053
:103290004D8141504D834111EFCF5F8554B955B9F0
:1032A00061E08981F3D2852D0E9413036C018B8923
:1032B00084B915B89C8197B9EB81E8B960E0898140
:1032C000E5D2842D0E9413030E947B039E838D838D
:1032D000FC85F4B9842D0E9417038C01852D0E9472
:1032E0001303B8010E9480037C01842D0E94170300
:1032F0008C01852D0E941303B8010E948003970161
:103300002C5E3F4F2817390708F480C088E088B941
:103310002A8127B924B825B861E08981B7D2842DE4
:103320000E9417038C01852D0E941303B8010E948F
:1033300080038C01E816F90658F43F8534B935B995
:10334000852D0E9413039C01CD82DE82780110C07E
:103350004B8944B915B85C8157B98B8188B960E055
:10336000898194D2842D0E9413030E947B039C01C7
:1033700098EEE91693E0F90630F4C70164E670E0D0
:103380000E94963206C0B70154E0769567955A952B
:10339000E1F7C7018759910989389141A0F52E15A8
:1033A0003F0588F58D819E8143E0969587954A95E6
:1033B000E1F7893C910510F088EC90E02D813E8189
:1033C000820F931F8E159F05F0F462177307D8F4D0
:1033D00080910F01833018F483E080930F012091D6
:1033E0000D01822F90E0FC01EB57FE4F5082468288
:1033F000880F991FFC01EF56FE4FF182E0822F5F8C
:1034000020930D0103C0642D852D29D088E087B954
:1034100088B914B815B88EE20E94FA056896E2E100
:103420000C94C133909164019F5F90936401882351
:1034300069F3309261014092620150926301E6CFDC
:1034400081E0909144019F5F909344018823F1F2C1
:10345000309241015092420140924301D7CFA0E007
:10346000B0E0E5E3FAE10C94A733A895462F50E0CD
:10347000FA01E057FE4F949033969491A82FB0E054
:10348000FD01E057FE4FE4903396F4907091640193
:103490002091440130E0270F311D232B09F0F1C1A9
:1034A000A8952091130130911401220F331F220F90
:1034B000331F30932601209325012091690130911B
:1034C0006A01220F331F220F331F309324012093F0
:1034D00023012EEB20932101C0910D01E5E8F1E0DD
:1034E00070E04A0F5B1F7C1759F02191A58130E0F5
:1034F0002A0F311D2417350709F456C07F5FF3CF1B
:10350000D62FC82F88E088B9E92FE860E7B9E4B87A
:10351000E5B8B8E1BB2EC12CD12C8D2F0E9413032E
:10352000782E692E8C2F0E9417038C018C199D090F
:1035300097FF03C0919581959109039734F0A89561
:10354000BA946801B110E9CF2FC0EE0C15B8E4B8F9
:103550008C2F0E9413038135910530F5E5B88C2F2F
:103560000E9413036C018F2D886087B9F8B815B8D5
:1035700094B8A8E18A2EA12CB12C8C2F0E941303A1
:10358000582E492E8D2F0E9417037C018A199B0902
:1035900097FF03C09195819591090397CCF0A89569
:1035A0008A9457018110E9CF809113019091140101
:1035B00090932601809325018091690190916A0181
:1035C000909324018093230189E18093210159C1C3
:1035D000990C94B88D2F0E9413035C01003C84E485
:1035E000180730F425E8C21621E0D206E8F605C037
:1035F00080EBC8168DE4D806B8F624EAE21622E07D
:10360000F20608F06CC088E9A816B10468F2C60199
:103610000E947B03AC019601A8E9B7EB0E94FB3244
:103620009A0140E050E00E94BD3229013A01C501F3
:103630000E947B039C01A8E9B7EB0E94FB32850145
:1036400020E030E0A90198010E94BD3288E7C81649
:103650008FE0D80680F4D301C201F2E0880F991FF1
:10366000AA1FBB1FFA95D1F7BC01CD01620F731FD2
:10367000841F951F14C088E7A8168FE0B806B0F421
:10368000DA01C901E2E0880F991FAA1FBB1FEA9562
:10369000D1F7BC01CD01640D751D861D971D25E078
:1036A00030E040E050E00E94BD320CC0D301C201C6
:1036B000820F931FA41FB51F9C01AD01569547951E
:1036C00037952795A4E6B0E00E9410332B013C010A
:1036D0002CEA420E2DE0521E611C711C79C0672D30
:1036E000762D0617170708F4B801C52CD42CCE1474
:1036F000DF0408F467010617170708F48B01A09090
:103700001001B0901101C8010E9480039501DC01F5
:103710000E94FB322B013C01C8010E947B039C01EB
:1037200040E050E0C301B2010E94BD3229013A01DC
:10373000CE14DF0408F47601A0900901B0900A01CC
:10374000B701C6010E9480039501DC010E94FB3293
:103750004701A12CB12CA50194010E94BD3208376C
:103760008FE0180780F4D301C20162E0880F991F2F
:10377000AA1FBB1F6A95D1F7BC01CD01620F731F51
:10378000841F951F14C088E7E8168FE0F806C0F480
:10379000DA01C90132E0880F991FAA1FBB1F3A95B1
:1037A000D1F7BC01CD01640D751D861D971D25E067
:1037B00030E040E050E00E94BD3229013A0108C0EB
:1037C000420E531E641E751E769467945794479458
:1037D00010910F01143008F0E7CEC1500C2F0D0FDF
:1037E000202F30E0E901C15BDE4F8881220F331FBB
:1037F000220F331FF901EE55FE4F8823D9F1C08007
:10380000D180E280F380A30192012C193D094E0979
:103810005F0957FF07C050954095309521953F4F60
:103820004F4F5F4FAAE0B0E00E94103324E6C20E73
:10383000D11CE11CF11CA7019601240D351D461D6C
:10384000571D0E94BD32232B242B252B09F0ACCE13
:10385000133019F081E080930F0182E0888380911A
:103860006B01E82FF0E0EE5AFE4F00838F5F8093EC
:103870006B019ACE408251826282738281E088839A
:1038800093CECDB7DEB7E0E10C94C333CF93C82F0E
:10389000C09595B160FF02C0982B01C09C2395B9DB
:1038A00094B1892B84B982E00E94DF0284B18C2319
:1038B00084B985B1C823C5B9CF910895A0E0B0E01F
:1038C000E4E6FCE10C94AD331AE008E08FE3C82E87
:1038D00099E0D92E07B908B915B8C4B880E00E949C
:1038E00013037C0181E00E941703EC0182E00E9437
:1038F00017039C0180910F01893081F488E087B91A
:1039000014B8F0924A01E0924901D0934C01C0935F
:103910004B0130934E0120934D015BC084E0E816CB
:10392000F10440F4C430D10560F42430310530F3A3
:1039300099E00BC088EEE81683E0F80610F098E0F6
:1039400001C099E0C83ED34008F49260283E33405D
:1039500008F4946097B9C0E0D0E0A89580E00E9498
:103960000B035C0181E00E9417037C0182E00E944E
:10397000170324E1A21625E0B20608F4389A24E1E0
:10398000E21625E0F20608F4399A843125E0920720
:1039900008F43A9A26E0A216B10430F426E0E216C2
:1039A000F10410F4069738F02196C43F81E0D8075F
:1039B000A1F6D0920F01E12CF12CEC16FD0631F0AE
:1039C0000E94CE022FEFE21AF20AF7CF115009F04F
:1039D00081CFCDB7DEB7EAE00C94C933CF92DF9246
:1039E000EF92FF92CF9320916F013091700140913F
:1039F000710150917201C09181018AE0C82ED12CD1
:103A0000E12CF12C8C2FCF5F213A96E8390791E019
:103A10004907510538F0CA01B901A70196010E9472
:103A2000BD32F0CF80938101A0912501B091260194
:103A30000E94103328E833E140E050E00E94BD329C
:103A400020936F0130937001409371015093720184
:103A5000CF91FF90EF90DF90CF900895A0E0B0E07D
:103A6000E4E3FDE10C94AB33982F990F980F2FEFFF
:103A7000260F920F90934601E82FF0E0E057FE4F9B
:103A80001491262F30E0F901E057FE4FF490F90130
:103A9000ED56FE4FD49190910F01913009F4A2C2DE
:103AA00020910D01A5E8B1E0FD0190E0921791F0A1
:103AB000368163130BC03081831308C01C964D916F
:103AC0005C911D974C3D554008F48CC29F5F319628
:103AD0001296ECCF062FC82FD86010927C0110925E
:103AE0007B0181EF8093810110926F011092700130
:103AF0001092710110927201E1DE88E088B9D7B9A5
:103B0000F4B8F5B88C2F0E9417035C01802F0E9437
:103B10001703A81AB90A14B8109248011092470165
:103B20008091470190914801843F914008F0AAC0DC
:103B300015B914B90E94C80214B815B80E94CF0272
:103B4000A8958C2F0E9417037C01EA18FB0880912E
:103B50004701909148018E37910528F08BE4E816D3
:103B6000F1040CF48FC080914701909148012DE23F
:103B7000E21621E0F20634F4019690934801809316
:103B80004701CECF892B09F0A4C185E1E81685E075
:103B9000F8060CF49EC192DE15B88FE087B988E074
:103BA00088B9F12EFF0CF4B880E480937B0084E5A3
:103BB00080BF8C2F806480937C0086E180937A00A4
:103BC0000E94D20210924801109247011092800088
:103BD000109285001092840087E286BB81E2809378
:103BE0006F0081E080936C01F5B890910F01809394
:103BF0008100953009F04CC081E090E00C2E01C0AE
:103C0000880F0A94EAF780958F7087B9F89483B784
:103C1000817F83BF80916C01882389F083B78160A5
:103C200083BF7894889583B78E7F83BFF894A895D7
:103C300080914701909148018034964059F77894DB
:103C400010928100E0908600F090870010926F0043
:103C500086E980937A0014B815B88C2F0E94170358
:103C60002091290130912A01821B930B0C9690938D
:103C700084018093830180914701909148018032B3
:103C8000934040F088E087B988B914B815B8AAC144
:103C9000D7B9BCCF809147019091480190937A01A8
:103CA00080937901F0927801E092770184EF80931C
:103CB0008101809147019091480182349105C8F0BB
:103CC00060917701709178018091790190917A01EA
:103CD00024E630E040E050E00E94BD3220937701BE
:103CE000309378014093790150937A0186EF809365
:103CF0008101A0916D01B0916E0120917701309109
:103D000078014091790150917A010E94103320E2AC
:103D100033E040E050E00E94BD32209377013093C1
:103D200078014093790150937A0120936F01309389
:103D30007001409371015093720150DE80918101B6
:103D4000843F09F071C0C0906F01D0907001E09085
:103D50007101F090720180EAC8168FE0D806E10484
:103D6000F104C0F4A70196012C543F4F4F4F5F4F11
:103D700060EA7FE080E090E00E94BD32C20ED31E78
:103D8000E41EF51EC0926F01D0927001E0927101A5
:103D9000F0927201C0906F01D0907001E0907101BB
:103DA000F0907201C114D10421E0E206F10428F47C
:103DB000D092B301C092B20106C081E090E090932E
:103DC000B3018093B2018091460190E08C5D9C4FDD
:103DD0000E94383490E0A0E0B0E0B701A6018C1555
:103DE0009D05AE05BF0568F4481B590B6A0B7B0B9C
:103DF00040936F0150937001609371017093720151
:103E000013C04C5E5F4F6F4F7F4F481759076A07CB
:103E10007B0710F40E94C30C10926F011092700186
:103E2000109271011092720114B980916F019091FA
:103E30007001A0917101B09172014997A105B1057E
:103E400008F420CFC12CD12C80910D01882329F0BA
:103E500080910F01853009F015CF88E080930F0124
:103E600080918101909182019817C4F089130ACF43
:103E700080906F0190907001A0907101B0907201DC
:103E800040917301509174016091750170917601B8
:103E9000481559056A057B0508F0F4CE40916F017D
:103EA00050917001609171017091720140937301A2
:103EB0005093740160937501709376018093820131
:103EC000D0927E01C0927D0100937F01C09380015A
:103ED000D9CEC701C12CD12C209147013091480186
:103EE0002C153D0560F00E94C9028C2F0E9417031B
:103EF0008A199B09A8952FEFC21AD20AEDCF570154
:103F0000A81AB90A1A141B049CF439ECA316B104BC
:103F10000CF0B8CE28EE33E0D5010E940A339701A9
:103F20000F2C000C440B550B0E94BD32690102C0DE
:103F3000C12CD12C80914701909148010196A0E0BD
:103F4000B0E08093770190937801A0937901B093CA
:103F50007A01C7018A0D9B1D0E94E1032091770120
:103F6000309178014091790150917A01DC010E94F1
:103F70001033609377017093780180937901909367
:103F80007A0160936F017093700180937101909337
:103F9000720187EF8093810121DD80906F01909005
:103FA0007001A0907101B090720187E093E00E94CF
:103FB0003834A8EEB3E0A81BB10987FDB395A5017D
:103FC00094010E941A3324E630E040E050E00E9461
:103FD000BD3220936F013093700140937101509373
:103FE000720132CFCDB7DEB7ECE00C94C7331F922D
:103FF0000F920FB60F9211248F939F93B59904C01F
:1040000080916C01811109C0B59B10C08091860020
:10401000909187008A3F910548F4809147019091E3
:104020004801019690934801809347019F918F9199
:104030000F900FBE0F901F9018951F920F920FB602
:104040000F9211248F939F9310926C01B09B10C01C
:1040500080918600909187008A3F910548F4809175
:104060004701909148010196909348018093470140
:104070009F918F910F900FBE0F901F901895A0E009
:10408000B0E0E5E4F0E20C94AB3388E893E1909380
:1040900014018093130190932601809325018EEBE8
:1040A00080932101C8E0C8B988E187B90E94D7028E
:1040B000C7B984E00E941303AC018B5C9840833F36
:1040C0009140A0F481E0809330012091250130914E
:1040D0002601AFEBB9E00E94FB329A0140E050E0CC
:1040E0000E94BD323093140120931301809113017B
:1040F0009091140190932601809325018EE00E94F7
:1041000017038EE00E94130390932A0180932901E4
:104110000E948903D3DB88E0F82EF8B8C9E0C7B95C
:1041200085E185B9D1E0D4B980E00E9413038C0108
:104130009AE0D92ED7B824E0B22EB4B881E00E941C
:104140001303080F191F3CE0E32EE7B840E1C42E2B
:10415000C4B882E00E941303080F191F15B8C8B92C
:10416000C7B9D4B980E00E9413030E947B03EC011D
:10417000D8B8D7B8B4B881E00E9413030E947B037B
:10418000C80FD91FE8B8E7B8C4B882E00E9413038B
:104190000E947B03C80FD91FF7B8F8B814B8209154
:1041A0002501309126016901CC0CDD1CC20ED31E05
:1041B000C01AD10ACC1ADD0AE12CF12C9801A0E931
:1041C000BAE10E94FB32A70196010E94BD3249016B
:1041D0005A0130932F0120932E019E01A0E9BAE1EC
:1041E0000E94FB32A70196010E94BD323093280144
:1041F000209327012057354E309311012093100151
:1042000080E7881A85EE980A90920A018092090147
:1042100089E180932101CDB7DEB7ECE00C94C73380
:10422000CF92DF92EF92FF920F93CF93DF93F82E0E
:10423000C62FD42F0E942F0688E091E00E946E06C0
:1042400016D26C2F8F2D0E94B330C090B601D09043
:10425000B701E090B801F090B9018091150187FD98
:1042600005C0C114D104E104F10421F084E091E01F
:104270000E946E068C2F0E942F06C114D104E10407
:10428000F10431F00E94E901809152010E94200264
:10429000DD2351F0809131018D3030F490E0885D64
:1042A0009C4F0E946E0602C00E94C90680E00E94D8
:1042B000E806CD28CE28CF28D9F06091B6017091BC
:1042C000B7018091B8019091B90103E028E447EF6C
:1042D0000E94240787E191E00E946E0689E393E043
:1042E0000E94403422E046E464EF0E940D081AC0A8
:1042F000809152010E942002809115018E3F94F41A
:1043000081E391E00E946E0660919D0170919E0193
:1043100080919F019091A00103E028E44091150154
:104320000E9424078091AE019091AF01A091B0014D
:10433000B091B101892B8A2B8B2BF1F080E00E9488
:10434000E8066091AE017091AF018091B00190914B
:10435000B10104E028E440E00E94240782E191E0FA
:104360000E946E0623E040E26FEF8091B4019091CD
:10437000B5010E940D0807C080E00E94CF06809121
:104380003401811102C00E94C906DF91CF910F91C3
:10439000FF90EF90DF90CF900895CF92DF92EF9251
:1043A000FF920F93CF93C82F0E944C0680917F01FC
:1043B0000E942F068DE491E00E946E0690D36091DA
:1043C0007F01809180010E9444047C0190937C01D4
:1043D00080937B01C0907D01D0907E018AEFE8162A
:1043E0008FEFF80678F4C114D10441F081E090E039
:1043F000C11102C080E090E0892B21F089E091E0BA
:104400000E946E06809180010E942F06CC2359F0F5
:10441000909131018DE0891B0E94E80589E690E0CA
:104420000E946E0615C080917D0190917E01892BBE
:1044300069F084E391E00E946E0622E045E26FEFAE
:1044400080917D0190917E010E940D080E94C90615
:104450000E945A06609173017091740180917501F8
:104460009091760104E026E4409182010E942407A5
:104470008AEFE8168FEFF80668F48CE391E00E946B
:104480006E0622E044EF6EEF80917B0190917C01FB
:104490000E940D080E94C906CC2391F0CD2881F01E
:1044A00080E00E94E80685E391E00E946E0622E02B
:1044B00045E26FEF80917D0190917E010E940D0891
:1044C0000E94C906CF910F91FF90EF90DF90CF909F
:1044D00008958F7051F488EC0E94DF020E945A0602
:1044E0000E94841288EC0C94DF0208958F3021F42E
:1044F00090912B01913011F08F5F089580E0089525
:10450000CF9384E790E002D76AE080E00E9437060C
:1045100082E393E00E946E06C0E00E94AF0860E074
:1045200082E00E942F1A62E080E00E942F1A0E940F
:104530004C0680916B01882329F041E062E080E025
:104540006FDE0FC084E790E00E946E0682E393E086
:104550000E946E060E945A068FE30E94FA050E948E
:10456000C9068C2FB6DF88EE93E00E942C088111DB
:1045700005C08C2FBBDFC82F8A3F78F20E945406FB
:10458000CF9108950F931F93CF93DF93C0E0D8E0AE
:1045900012EF0DE00E94AF0860E082E05FDAD09396
:1045A0000F0180918101843FE1F480916F0190912E
:1045B0007001A0917101B091720184369105A1053D
:1045C000B10578F440E060E082E00E94422E609302
:1045D0006F01709370018093710190937201109339
:1045E000810180918101823FACF0809382018091B2
:1045F0006F0190917001A0917101B091720180934F
:10460000730190937401A0937501B093760181E0DA
:10461000C4DE18C00E944C068DE690E00E946E0633
:1046200080913101902F981B892F0E94E80589E61F
:1046300090E00E946E060E945A068FE30E94FA05DF
:104640000E94C9068C2F45DF80ED97E00E942C0860
:10465000811106C08C2F4ADFC82F8A3F08F49ACFF9
:104660000E945406DF91CF911F910F910895A4E10C
:10467000B0E0EDE3F3E20C94A53382E08093150102
:1046800080910F01813009F026C280916B01813049
:1046900009F021C20091520124E0029FF00111248F
:1046A000EE55FE4F80819181A281B381893032E540
:1046B0009307A105B10508F00EC24C0110E0802F50
:1046C000123028F40E941602582E492E03C00E9470
:1046D00016022C01E42DF0E0ED56FE4F2490852DBE
:1046E00090E0FC01E057FE4FE49115B828E028B9AE
:1046F00030EF83169104B8F410FD15C0A0900901A5
:10470000B0900A0120E9A21A2AE1B20A21E030E0C1
:10471000052C02C0220F331F0A94E2F7C9018860FA
:10472000822987B908C0E4B9822D886087B9A09032
:104730000901B0900A01F4E13F2E852D0E940F037C
:104740003C01842D0E94170334E06316710410F4B9
:10475000049718F03A943110F0CF80E480937B00F6
:1047600094E590BF852D806480937C0026E12093A2
:104770007A00E12CF12C10928000109285001092AA
:10478000840087E286BB0E94D202312F3170332E23
:1047900010FD05C081E88093810028B808C028B8C2
:1047A0000E94DB0280E286BB81E88093810086B3B1
:1047B00085FF13C098E098B91092810020E226BBD3
:1047C00020918600309187006901409184005091CA
:1047D00085002417350770F014C080FFE8CF31E062
:1047E00036BBA89597012F5F3F4F790120353105E2
:1047F000F1F6E0CF80FF05C081E086BB9FEFE91AAC
:10480000F90A86E980937A00E4E12E2E852D0E9434
:104810000F033C01842D0E94170324E062167104EB
:1048200010F4049718F02A942110F0CF40902E0134
:1048300050902F01480C591C4A0C5B1C20910B0115
:1048400030910C0180E9A8168AE1B806B0F491EE27
:10485000C916D104E104F10438F4C60165E070E042
:104860000E949632645101C069E128523109261B29
:10487000310967FD339586E009C0C20160EB76E33C
:104880000E94963287E0860F285D3F4F90E0A0E0BF
:10489000B0E08C159D05AE05BF0528F4C81AD90AED
:1048A000EA0AFB0A03C0C12CD12C7601332029F07F
:1048B00082E2C80ED11CE11CF11C90E5E916F1045E
:1048C00018F0C12CD12C76018BE0C816D104E1047C
:1048D000F10428F091E0C91AD108E108F1084091EB
:1048E000250150912601612C712CA8EEB3E00E94A5
:1048F000FB32698B7A8B8B8B9C8B9501DA010E9442
:10490000FB32A30192010E94BD32442755276989D9
:104910007A898B899C890E94BD32C9010E9420043A
:10492000FC01A3019201C701B6010E947B322B0159
:104930003C01CF01A0E0B0E073E0880F991FAA1FEF
:10494000BB1F7A95D1F7BC01CD016B5F7F4F8F4FB5
:104950009F4F2AE030E040E050E00E94BD32C301AA
:10496000B2010E94BD32E12FF0E0A1E0B0E0AC0F57
:10497000BD1F84E0189FA00DB11D11242D933D9300
:104980004D935C931397311016C09CE0C916D10467
:10499000E104F10480F03196EE0FFF1FEE0FFF1FD0
:1049A00081E090E08C0F9D1FE80FF91F2083318379
:1049B000428353831F5FA8951F5F143008F47FCE96
:1049C00088E088B984E00E94DF0291E00D811E81B9
:1049D0002F81388549815A816B817C81401751072D
:1049E0006207730708F090E00D851E852F853889D2
:1049F00049855A856B857C85401751076207730787
:104A000010F483E001C082E0E92FF0E0EE0FFF1F19
:104A1000EE0FFF1F21E030E02C0F3D1FE20FF31FD0
:104A2000D90134E0839FA00DB11D11240D911D917A
:104A30002D913C914081518162817381041715074A
:104A40002607370708F0892FE1E0F0E0EC0FFD1FA3
:104A500094E0899FE00DF11D112440815181628114
:104A6000738140939D0150939E0160939F017093C9
:104A7000A00180FD08C020EF8216910420F48BEF86
:104A80008093150117C08CEF80931501CB01BA01FB
:104A90006B5F7F4F8F4F9F4F2AE030E040E050E048
:104AA0000E94BD3220939D0130939E0140939F014F
:104AB0005093A00180919D0190919E01A0919F0132
:104AC000B091A001892B8A2B8B2B11F41092150128
:104AD00088E087B914B86496E2E10C94C133A0E091
:104AE000B0E0E5E7F5E20C94AB3380917D01909165
:104AF0007E01892B09F09EC0E0917F01F0E0ED5628
:104B0000FE4FD491D860E0918001F0E0E057FE4F75
:104B1000C4910E945E1C88E088B915B8D7B9C4B9A1
:104B2000809180010E9417038C01D09182018CE05A
:104B30008D0F843008F07EC08091730190917401D4
:104B4000A0917501B0917601D15F2AE0822E912C5F
:104B5000A12CB12CBC01CD016B5F7F4F8F4F9F4FBC
:104B6000A50194010E94BD3269017A01DA01C901EF
:104B7000DF5FD73079F729E8C21623E1D206E104D6
:104B8000F10408F057C0059708F454C0C5B9C4B97A
:104B9000C0E0D0E0CC15DD0520F40E94D9022296B9
:104BA000F9CF14B815B8A89585E0809321018091BC
:104BB00080010E9417030817190720F4EC01C01B9D
:104BC000D10B02C0C0E0D0E0A12CB12CAC14BD04CC
:104BD00030F40E94D9028FEFA81AB80AF7CF80915B
:104BE00080010E94170329E120932101A89508174D
:104BF000190718F4801B910B02C080E090E08C171D
:104C00009D0788F49E01281B390B69F0A4EFB1E0E1
:104C10000E94FB329E0140E050E00E94BD32309382
:104C20007E0120937D010E945E1C88E087B988B9CF
:104C300014B815B8CDB7DEB7ECE00C94C7338B30A1
:104C400008F08B50811103C08CE092E031C08130BC
:104C500019F480EA91E02CC0823019F483EE91E0DF
:104C600027C0833019F488ED91E022C0843019F414
:104C70008FE790E01DC0853019F484E790E018C0FC
:104C8000863019F48DE690E013C0873019F487EC74
:104C900091E00EC0883019F488EB91E009C08930AA
:104CA00019F48AEF91E004C08A3021F48FEE91E08C
:104CB0000E946E060E94C9060C94470608950F9341
:104CC000CF938FE790E022D3C0E010920F0160E015
:104CD00082E046D580910F018830D9F50E944C06BC
:104CE00083E40E94FA050E94ED01609173017091C6
:104CF0007401809175019091760103E026E4409162
:104D000082010E9424070E94C90660917F01809160
:104D100080010E94440490937C0180937B010E9457
:104D20005A068DE391E00E946E0680917B0190917E
:104D30007C018A3F2FEF920730F422E044EF6EEFC0
:104D40000E940D0803C08FE30E94FA050E94C90665
:104D50000AC00E944C068FE790E00E946E060E94F7
:104D6000C9060E94F4068C2FB4DB88EE93E00E9403
:104D70002C08811106C08C2FB9DBC82F8A3F08F49C
:104D8000A4CFCF910F910895A4E0B0E0EAECF6E251
:104D90000C94A53383EE91E0B9D280E1809380003A
:104DA00010926F0081E090E09093890080938800DA
:104DB00010928B0010928A0083E086BB10928200D2
:104DC00088E08093810015B891E194B988B989E0B1
:104DD00087B9229A80938100312C20E0FAE02F2EAF
:104DE00031E03B83812C912C5401839441E14C832D
:104DF000832D90E00A966EE170E00E94AA326A83E9
:104E0000062F621781F00E944C0683EE91E00E940B
:104E10006E0610E0101728F48EE20E94FA051F5F5C
:104E2000F9CF0E94C9065C815231B8F0C701B601C2
:104E3000A50194010E94BD326B017C018B81622D22
:104E40000E948A32A92FB0E0A50194010E9410337C
:104E5000C60ED71EE81EF91E0CC08B81622D0E9463
:104E60008A32A92FB0E0A50194010E9410336B0192
:104E70007C010E945A068B81821109C081E09C81CD
:104E8000923108F480E08983811107C001C0198242
:104E90002C81263120F082E503C08CE301C08EE333
:104EA0000E94FA054C81C701B6010E942208C70181
:104EB000B6017E5E85489F4FA7019601220F331FE2
:104EC000441F551F0E94BD32CA014F3F510539F0A2
:104ED00030F08DE08093810080E094E01FC040348A
:104EE000510530F08CE08093810080E091E016C0A5
:104EF0004830510530F08BE08093810080E490E0F1
:104F00000DC0892B31F09AE09093810088E090E009
:104F100005C089E08093810081E090E02C01612C44
:104F2000712CCA01B901A30192010E94BD32215026
:104F300031093093890020938800809188009091F6
:104F40008900892B31F421E030E0309389002093EF
:104F50008800009188001091890060E079E08DE37D
:104F600090E0A30192010E94BD32A4E6B0E00E944D
:104F7000103398012F5F3F4F40E050E00E94BD3258
:104F800029013A01A4E6B0E0A70196010E9410337E
:104F9000A3019201261B370B480B590BCA01B9011B
:104FA00002E228E44EEF0E9424078AE70E94FA05F5
:104FB0000E94C90680ED97E00E942C08882309F41E
:104FC00049C0883C60F0109281001092800088E017
:104FD00087B914B822982496E2E10C94C133813544
:104FE00098F139813323E9F04C8141504C83C5015C
:104FF000B4012AE030E040E050E00E94BD324901B7
:105000005A01C701B6010E94BD32CA01B9012AE0A6
:1050100030E040E050E00E94BD326B833AE0232E46
:1050200036C05C81563148F55F5F5C83563111F4C0
:1050300025E1222EAAE0B0E0A50194010E941033E0
:105040004B015C011B8223C08B3018F08B818F5F7A
:105050008B83312C2B81822F90E0622D70E06F5F6B
:105060007F4F0E94AA328B83832D40DA382E3FEE89
:10507000381708F4A8CF2A81BBCE8AE0282E41E059
:105080004B83812C912C5401839451E15C83312C0E
:10509000F2CFA0E0B0E0EFE4F8E20C94A73388EDA3
:1050A00091E034D183E28093800010926F008FEF03
:1050B00090E090938B0080938A0083E086BB1092EF
:1050C000820015B881E184B988E088B989E087B9A0
:1050D000229A21E030E03093890020938800809369
:1050E000810010E0C0E0D2E300E084E6C82ED12CBD
:1050F000E12CF12C88248A9493E0992EA12CB12CD8
:10510000DC17C1F1D43618F0CCE9CD0F01C0CD2F9A
:105110002C2F30E0AFEFB3E00E94FB326E5C7F4F8C
:105120008F4F9F4FA70196010E94BD3229013A017E
:1051300030938B0020938A000E945A06A8EEB3E0B9
:10514000A30192010E94103361507E4F8F4F9F4FF9
:10515000A50194010E94BD32DA01C90125E045E2B2
:105160006FEF0E940D080E94C906093218F08CE307
:105170000E94DF0280E496E00E942C08082F83380A
:1051800068F088E087B9109281001092800014B80E
:105190002298CDB7DEB7E0E10C94C333833310F02F
:1051A000DAE003C0882321F0D1E0DC0F10E001C079
:1051B000DC2F812F9BD9182F803F08F4A1CFE1CF9E
:1051C0000F931F93CF93DF9387EC91E09FD087E0FD
:1051D00093E00E943834C82FD0E00E945A060C2F6A
:1051E0000C2E000C110BC7FF0AC00E94EB0123E03C
:1051F00045E26FEF88279927801B910B04C023E0BD
:1052000045E26FEFC8010E940D080E94C90680E4C4
:1052100096E00E942C08882331F0823880F489328D
:10522000C0F0CF5FD0E0C13514F0C55603C0CC3E0E
:105230000CF4CB598D2F5AD9D82F803F70F26C2F98
:1052400087E093E00E944534DF91CF911F910F9149
:105250000895C150E7CF813019F480E06CC0089503
:10526000823011F491CD0895833011F412CF089556
:10527000843011F424CD0895853011F441C9089586
:10528000863021F40E9454067DC90895873011F4B8
:1052900097CF0895883021F481E10C942C0908956A
:1052A000893011F490C308958A3011F40C94D20817
:1052B0000895CF93DF9387E192E028D0D0E0C0E05B
:1052C0000E945A068C2FBBDC80E49FE10E942C08D0
:1052D0008111D0E090912B01913009F4D0E082331C
:1052E00040F0CC2379F08C2FB6DF87E192E00ED02E
:1052F00002C08111CF5FDF5FDE3620F4CB3000F3D8
:10530000CB50DECF80E0DF91CF910895CF93DF9334
:10531000EC010E945406CE010E946E06C4E682E0B3
:105320000E94DF024F9902C0C150C9F70E945A067D
:10533000DF91CF910895A7E0B0E0E1EAF9E20C94A3
:10534000A53380EA91E0E2DF20EF2B8354980E949E
:10535000CE0214BC16BC10920301109204011092EC
:1053600005011092060131E035BB30936E001092BA
:10537000800083E19AE790938B0080938A00E1E0BC
:10538000F0E0F0938900E09388001092850010927D
:10539000840083B5816083BDF6E0F6BBF0936F00B7
:1053A000789424E02093810032E339831A820E94AA
:1053B000C702A8954F9902C061E06A8385B5811143
:1053C0001FC015BC86B5809303010E94540686E673
:1053D0000E94FA050E94ED016091030170910401A1
:1053E000809105019091060147E00E94220854989F
:1053F00080918100882351F08FE30E94FA0506C056
:105400008981815089838111D2CFDBCF10928100B5
:1054100010926F0020910301309104014091050129
:1054200050910601DA01C9010197A109B109813F33
:105430009048A105B10508F00BC1AAE0B0E00E94B8
:105440001033DC01CB010896A11DB11D23E0B695F8
:10545000A795979587952A95D1F7BC01660F771F79
:10546000709366016093650154980E94CE0216BC49
:10547000109203011092040110920501109206018E
:10548000F1E0F5BBF0936E00109268011092670195
:1054900024E02BBB8091680084608093680078943E
:1054A00080916D00806180936D0019820E94C70217
:1054B000A8954F9902C031E03A8380916D0084FF36
:1054C00005C069816F5F69836A3F81F715BC809170
:1054D0006D008F7E80936D00809168008B7F80933C
:1054E000680086B5809303010E945A0684E50E94F5
:1054F000FA050E94ED016091030170910401809111
:10550000050190910601E0916501F0916601FD832E
:10551000EC8328EA31E640E050E00E942033EC8141
:10552000FD81612C712C43015F01C12CD12CE12C38
:10553000F12C00E010E00E94493349014F835E8363
:105540001B012C012C813D812038310530F007E012
:1055500023E745EFB4018F8117C084E6A82EB12C54
:10556000C12CD12CE12CF12C00E010E094014F81F2
:105570005E81C2010E944933F22FE42F07E023E746
:1055800047EF6F2F732F8E2F952F0E94240739819D
:105590003A3F21F48FE30E94FA055AC094014F81EB
:1055A0005E81B101C201263E354B410551056105C1
:1055B00071058105910509F008F44AC00E944C0666
:1055C00086E60E94FA050E94ED0194014F815E81FA
:1055D000B101C20154012115FAEC3F07FAE94F0766
:1055E000FBE35F076105710581059105A1F098F066
:1055F0006A017101820120E030E04AE85DE568E778
:1056000075E483E691E00E944933F22FE42F07E02E
:1056100028E44AEF13C0CF80DE807101820120E0D0
:1056200030E44AE750E163EF7AE580E090E00E94E1
:105630004933F22FE42F07E028E44DEF6F2F732F4B
:105640008E2F952F0E9424078AE70E94FA0554980E
:1056500010926E0080ED97E00E942C082A81820F44
:1056600029F43B8131503B83311170CE2796E2E122
:105670000C94C1331F920F920FB60F9211248F9387
:105680009F93AF93BF93789480910301909104010D
:10569000A0910501B09106019F5FAF4FBF4F80936E
:1056A000030190930401A0930501B0930601BF91FB
:1056B000AF919F918F910F900FBE0F901F901895F3
:1056C0001F920F920FB60F9211248F9386E085BD23
:1056D0008F910F900FBE0F901F9018951F920F92F1
:1056E0000FB60F921124A8951092810015BC0F904F
:1056F0000FBE0F901F9018951F920F920FB60F922A
:1057000011242F933F938F939F93809167019091E2
:105710006801892B11F481E085BD209167013091EA
:10572000680180916501909166012817390730F072
:1057300015BC80916D008F7E80936D008091670114
:1057400090916801019690936801809367019F9101
:105750008F913F912F910F900FBE0F901F90189532
:10576000A0E0B0E0E5EBFBE2F9C7182F062F862F8B
:1057700090E0FC01ED56FE4FE491E860FE2EE12F33
:10578000F0E0E057FE4FC491FC01E057FE4FD4918A
:1057900010927C0110927B0110926F0110927001A7
:1057A000109271011092720187EF809381010E9423
:1057B0005E1C88E088B9F7B8D4B9D5B9812F0E94AA
:1057C00017037C01802F0E941703E81AF90A14B806
:1057D000109248011092470120E030E05CE2C52EB3
:1057E000DD24D394DAE064E6B62E809147019091EF
:1057F0004801843D904308F06FC0C5B980914701CE
:1058000090914801892B81F0F601E21BF30B609126
:10581000470170914801D29FC001D39F900D112480
:1058200085D6E617F70750F4C4B90E94D20214B81F
:105830008091470190914801019627C080914701CE
:10584000909148010B97C0F0609147017091480119
:10585000B29EC001B39E900D112468D66E177F07CB
:1058600058F4C4B90E94C70214B8809147019091BE
:1058700048018C599F4F09C0C4B90E94CD0214B889
:1058800080914701909148010A9690934801809336
:10589000470115B80E94D402A895812F0E941703D2
:1058A0009C012E193F0980914701909148018B314D
:1058B000964018F0253231057CF02D3281E0380712
:1058C0000CF493CF8091470190914801019769F4BE
:1058D000253185E038074CF088E087B988B914B8DD
:1058E00015B8CDB7DEB7E9E055C780914701909173
:1058F0004801880F991FA0E0B0E080937701909352
:105900007801A0937901B0937A01C90168E270E04F
:1059100021D6CB01820F931F0E94E10320917701D2
:10592000309178014091790150917A01DC0178D66B
:1059300060937701709378018093790190937A0155
:1059400060936F0170937001809371019093720165
:105950000E94EE1CC0906F01D0907001E090710128
:10596000F090720187E093E083D7A8EEB3E0A81B24
:10597000B10987FDB395A70196015CD620E137E216
:1059800040E050E0FAD520936F01309370014093CE
:1059900071015093720188E080930F01209373018D
:1059A0003093740140937501509376018091810189
:1059B0008093820110927E0110927D0100937F01FD
:1059C0001093800189CFCF92DF92FF920F931F93A4
:1059D000CF93DF930E94540685EF90E00E946E06FD
:1059E0000E945A0681EB90E00E946E0685E093E0EB
:1059F0003FD723E040E26EEF90E00E940D0886E082
:105A000093E036D723E040E26EEF90E00E940D086D
:105A100084E093E02DD723E044EF6EEF90E00E9406
:105A20000D0888E99AE30E942C080E9454068AEA2D
:105A300090E00E946E0623E044EF6FEF8091270113
:105A4000909128010E940D080E945A0683EA90E076
:105A50000E946E0623E044EF6FEF80912E0190913B
:105A60002F010E940D0888E99AE30E942C080E94E9
:105A700054068FE990E00E946E0689E293E0F8D622
:105A800090E042970E94E8018AE293E0F1D690E02C
:105A900042970E94E80186E293E0EAD690E023E094
:105AA00046E464EF42970E940D080E945A0683E084
:105AB0000E94E80585E293E0DBD690E042970E94E1
:105AC000E80188E293E0D4D690E042970E94E80192
:105AD00084E293E0CDD690E023E046E464EF429781
