:100000008FC100009FC100009DC100009BC1000086
:1000100099C100000C94772B95C100000C948808BE
:1000200091C100008FC100000C9418200C945B2B30
:100030000C94692B0C94F21F85C1000083C1000051
:100040000C94352B7FC100007DC100007BC10000F6
:1000500079C100000C94890875C1000073C10000CB
:1000600071C100006FC10000E62FF72F903009F436
:100070009395E5B8C4B8B6EFB0937A00A5E0A09325
:100080007B00A8E0A093810010928000AFEFA093C6
:100090008500A0938400A6E0A093360010928B0008
:1000A00010928A00B3E0AFE3A91B51E0392F33303F
:1000B0002AF0A05CBC4F53953350F9CFB093890020
:1000C000A0938800A0917A00A4FFFCCFB6EBB09378
:1000D0007A00A2E0A0936F00A9E0A093810062E003
:1000E000A0E0A0937B00A1E0A09353008895E5B821
:1000F000C4B884FF1AC0A8E10000AA95F1F7EF93F5
:10010000FF93E7B1F8B1A4E0C2FCA2E0C0FCA1E01B
:10011000BF2FBA2BAE2BB8B904B9A7B9E7B9F8B954
:10012000FF91EF910BC00C947300ACE10000000054
:10013000AA95F1F725B9E5B8000004B9A0918400AB
:10014000A0918500B0918900A395AB1760F7A091AD
:100150007A00A4FFF3CFB6EBB0937A006A9571F7FB
:100160006091780070917900308186FD630F619312
:10017000308186FD731F80FF7193652F4A9579F753
:1001800010926F0010928100B6E0B0937A0008954B
:10019000010410090A0C4E6F742063616C6962726D
:1001A000617465642120466F72FF63616C696272DD
:1001B0006174696F6E20636C616D70207468652076
:1001C00033FF70696E7320746F67657468657220A1
:1001D000616E64207374617274207769746820742E
:1001E0006865FF6B65792E2041636B6E6F776C6578
:1001F000646765207468652073656C662D7465732B
:1002000074207769746820746865206B657920773D
:10021000697468696EFF32732E20446973636F6E70
:100220006E6563742070696E7320616674657220F8
:10023000746865FF6D657373616765202269736F0C
:100240006C617465FF50726F6265212220697320B2
:1002500073686F776E2E20536F66747761726520B6
:10026000616E6420646F63756D656E746174696F2F
:100270006E2069732061742073766E3A2F2F206D83
:10028000696B726F636F6E74726F6C6C65722E2027
:100290006E65742F7472616E736973746F722074FB
:1002A00065737465722000B903870358032E030732
:1002B00003E402C302A40288020000140029003EE5
:1002C000005300690080009700AE00C600DF00F810
:1002D0000012012D01490165018201A001BE01DE6C
:1002E00001FF012102440268028E02B502DE02090A
:1002F00003350364039403C803FE0337047304B493
:1003000004F90443059305EA054906B3062907AE37
:10031000074808FF08DE09FD0A930C480F991B00E7
:1003200011241FBECFEFD8E0DEBFCDBF21E0A0E09B
:10033000B1E001C01D92AA3BB207E1F70E941B0D7C
:100340000C9461345DCE80FD5C9A80FF5C98549A79
:1003500000005D9A559A589859985A985B9864FD90
:10036000589A509A65FD599A519A66FD5A9A529A2E
:1003700067FD5B9A539A00005D981DD187FD10C000
:100380005D9A589859985A985B9860FD589A61FD03
:10039000599A62FD5A9A63FD5B9A00005D980BC101
:1003A000089597FF09C08F939F938DE221D49F9169
:1003B0008F91909581959F4F67E171E04AE050E001
:1003C0000E9400347EC40895ECDF01C0EADF80E2C1
:1003D0000FC48DE20DC48DE30BC4EF92FF920F9317
:1003E0001F93182F062FF42E84E691E075D4EE2487
:1003F000E0913201F09133018685E81611F4812FE6
:1004000009C08485E81611F4802F04C08585E8169C
:1004100011F48F2DEDD3E3948E2D833049F71F9186
:100420000F91FF90EF900895682F80E092E066238F
:1004300009F491E0623009F481E008950F93082FE8
:10044000E2EAF1E0880F880FE80FF11D6081718109
:1004500082819381643671058105910568F420914C
:10046000150127FD09C0802FDFDF692F0BD26EEF4A
:1004700023E044EFD1D504C04FEF04E024EFE3D4F0
:10048000A6DF0F910895863058F4E1E9F1E0E80F16
:10049000F11DE80FF11D8081918163E0C8D597CFF0
:1004A00008951F93182F80916B01882319F08FDF17
:1004B00080E09ED3FDD38BE591E00ED4812F829511
:1004C0008F70E1DF812F8F70DEDF1F9108958091A3
:1004D000020182958F7019D08091020183701CD027
:1004E00080910201DECF0895E5E8F1E0E80FF11D0B
:1004F0000895CF93F9DF9081C681C91710F405D014
:1005000001C013D064DFCF910895EEDF8F93808117
:10051000A4D38F9101C008958F9387E291E0DCD33B
:100520008F91E2DF868199C30895DEDF8F93868104
:1005300094D38F9101C008958F9383E291E0CCD33F
:100540008F91D2DF808189C308958F932F932AE002
:1005500080953B9A089410F4439802C0439A000097
:1005600020D027D086952A95B1F72F918F910895A5
:1005700003D002D001D000D000D003D002D001D0EF
:1005800000D000D003D002D001D000D000D0A89578
:1005900003D002D001D000D000D003D002D001D0CF
:1005A00000D000D003D002D001D000D000D003D0C2
:1005B00002D001D000D00000089590E0893C28F0DE
:1005C000885C48EC849FC0011124009709F40895C9
:1005D00020918100277019F0DADF0197F6CF813082
:1005E000910519F002973EE303C037E180E090E007
:1005F0002091B200230F2093B30042E0409370009B
:1006000027E023BF889526E023BF10927000A895AD
:10061000DCCF8F9384E0D1DF07C08F9382E0CDDF02
:1006200003C08F9381E0C9DF8F911F93182F10644F
:1006300010937C00E12FE07880912201E81759F0B7
:10064000E0932201AEDF8EE980937A0083E083BFDE
:10065000889582E083BF20E030E0A901E0E01FC080
:100660008EE980937A0083E083BF889582E083BF20
:100670006091780070917900260F371F411D511D40
:10068000E43061F480912401803041F084E0203036
:10069000380720F417FD02C01068CACFEF5F8091C1
:1006A0002101E817E8F2609125017091260117FFFA
:1006B00004C0609123017091240180E090E00E94C9
:1006C00076322FEF33E040E050E00E94B832B901BB
:1006D000CA012091210130E040E050E00E94B83290
:1006E000C9011F9108959B01281B390B50F0C901C6
:1006F0000895BC0180912501909126016817790722
:1007000018F4861B970B089580E090E008958BE223
:1007100093E00E943334382F8CE293E00E9433340C
:1007200020912901230F30912A01381F20930B01BA
:1007300030930C0183E0283E380720F0C901885E21
:10074000934002C080E090E062E370E00E9491324A
:10075000683008F067E0E7EAF2E0E60FF11DE60F27
:10076000F11D459155912591359162E3681B421B1E
:10077000530B649FC001659F900D1124499662E35D
:1007800070E00E949132620F731F70936E0160934C
:100790006D018DE293E00E943334992787FD909597
:1007A0006091290170912A01860F971F909324016F
:1007B0008093230190936A018093690108950F92B9
:1007C00021E08C32920710F48CE291E08C5291403F
:1007D00069E170E00E94913299E16B3210F0982F3C
:1007E0006BE2981BE9EAF2E0E60FF11DE60FF11D5E
:1007F0009F93CF010E943334482F3196CF010E943E
:100800003334582F3196CF010E943334282F31963C
:10081000CF010E943334382F6F91421B530B649FDA
:10082000C001659F900D11240C9669E170E00E9453
:100830009132620F731FCB010F900895CF93DF9316
:1008400024E130E0B9010E949132DC01E9EBF2E0F1
:10085000E60FF71FE60FF71FC591D591459155910A
:100860004C1B5D0B4A9FC0014B9F900D5A9F900DF2
:100870001124B9010E9491326C0F7D1FCB01DF91D1
:10088000CF910895AEE1B0E0E8E4F4E00C94A03339
:10089000662EB82E860F898320910F01283059F5D6
:1008A000209173013091740140917501509176014E
:1008B00057FD15C01091820109C0CA01B9012AE093
:1008C000312D412D512D0E94B8321F5F173FACF3DF
:1008D00091F4243160E036074105510518F48FEF9B
:1008E0009FEF41C1173F39F480E028178DE73807A3
:1008F0004105410510F020E03DE72C8B3D8B26EDB6
:10090000A22EE3E9F1E0E60DF11D859188608E8766
:10091000E3E9F1E0EB0DF11D859188608F87E0E957
:10092000F1E0E60DF11D7590E0E9F1E0EB0DF11D50
:10093000C59090EC692AB92A81E0E82EF12C012DAE
:10094000112D8E831F82188619861A861B861C8697
:100950001D86188E198E1B8E1A8E0E94591C88E0D7
:1009600088B960927C001DDE3F8537B975B874B8D0
:1009700052E05A95F1F70000000014B815B8DD24D4
:100980003E8537B975B874B860927C00A895A0927E
:100990007A0080917A0086FDFCCF2090780030901C
:1009A0007900B0927C004C2DE2D0209178003091FB
:1009B0007900288B398B3F8537B9C5B8C4B8A8955D
:1009C000B0927C00A0927A0080917A0086FDFCCFE4
:1009D000609178007091790060927C00472DC7D0BB
:1009E000409178005091790014B8CB01820D931D8D
:1009F000E80EF91E011D111DEA82FB820C831D8386
:100A000088899989840F951F2E813F816885798512
:100A1000280F391F611D711D2E833F8368877987D9
:100A200022E32417150648F075B874B8C4DD14B86D
:100A300015B8888D8395888F07C0483E73E05707A7
:100A400018F08A8D83958A8F8889998928171906C5
:100A500058F03E8537B9C5B8C4B8ADDD14B815B87F
:100A6000898D8395898F07C0883E73E0970718F0BA
:100A70008B8D83958B8FD3945D2D5F3F49F05F37CE
:100A800031F45C2D550FC50E572D550F750E78CFCF
:100A900040902E0150902F01440C551C9201E4E02F
:100AA000240D351DEA95E1F72901570168016E8093
:100AB0007F808884998420910F012830C1F46C894B
:100AC0007D89812D912D65507040804090409B0123
:100AD000AC010E9476329B01AC0160E779E786E1C8
:100AE00090E00E94B832621A730A840A950AA6142A
:100AF000B704C804D90428F46A187B088C089D0838
:100B000003C0662477244301B20180E090E09301A2
:100B1000A4010E9476329501A6010E94B83283E0BA
:100B200093E07981870F911D0E943334682EC901AB
:100B300060E170E00E949132260F371FC9016816EC
:100B4000190618F4861991090EC08C5E9F4F861500
:100B5000910538F48C899D89843981E1980708F0E2
:100B600011D7812D912D6E96E2E10C94BC33109239
:100B700081001092800010926F0010928B001092F2
:100B80008A0057E056BB5FEF509385005093840076
:100B900055E050937B0056EB50937A0051E0509310
:100BA000810058E25A95F1F7000045B944B955E083
:100BB0005A95F1F7000014B815B810928100809191
:100BC0007A0084FFFCCF80937A000895CF93C82FDA
:100BD0001C161CF4FCDBC150FBCFCF910895809113
:100BE0003101809300018091A1018093010108955A
:100BF000CF93C82F809131018F5F809331016C2F8B
:100C000081E0A1DBCFDCC63048F4C430B8F4C23098
:100C100069F080F4C130E1F48EE30DC0C43E81F090
:100C2000C43F81F0CD32A1F48DE213C08CE78DDC9E
:100C30008CE30FC08CE789DC8CE70BC082E509C030
:100C400085E707C08FE481DC88E67FDC8DE601C0A4
:100C50008C2F7BDCA895CF9108958F5CC9CF089528
:100C6000682F80E070DB9ECC089560933101813065
:100C700011F480EC01C080E8860FF2CF08956091F6
:100C8000000180910101F1CF08958DE05EDC8AE0E2
:100C90005CCC08951092A10180E8E2DF109231014E
:100CA000F4CF089581E0DCDF82E087DCF3CF0895A4
:100CB00081E08093A10180ECD3DF10923101E5CF78
:100CC0000895CF93DF93EC018991882311F090DF91
:100CD000FBCFDF91CF910895CF93DF93EC01CE014D
:100CE0000E943334982F9F7719F082DF2196F7CF37
:100CF000DF91CF9108950F931F93CF93DF93EC0172
:100D000028968C010F5F1F4F0E94333471DFC8019A
:100D10000C171D07B1F7DF91CF911F910F91089527
:100D200084E14BDC83E39CDF82E39ADF82E045DCF5
:100D300080E296DF80E294DF8AE292DF88E090DF53
:100D400086E08EDF82E08CDFADDF81E036DC8CE098
:100D500087DF88E485DF84E590E0CDDF80E580DF14
:100D60008CE490E0C8DF88E57BDF8CE590E0C3DFB2
:100D700080E676DF84E490E0BEDF88E671DF8CE316
:100D800090E0B9DF80E46CDF84E390E0B4CF0895B5
:100D90009091310180E1891B19CF0895CF93C82F1D
:100DA000F7DF8091A1018F5F8093A101823030F045
:100DB00081E08093A1018093340102C0109234013C
:100DC0006C2F8091A10151DF60DFCF910895E6DFA4
:100DD0007ED18091A101833008F057CF08955ADF6A
:100DE000D7DF58CF089564DFD3DF62CF08950F9324
:100DF00085E791E071DF409181014D3F64F460919E
:100E00006F0170917001809171019091720103E006
:100E100026E419D002C08FE3EBDE0F910895909184
:100E20000E019F70923071F4D2DF84E690E054DFBF
:100E3000E0913201F091330122E044EF6FEF8481C1
:100E40009581EAC00895AEE0B0E0E9E2F7E00C94E5
:100E5000A033142F622E702E6B017C010F7080E383
:100E600089838A838B838C838D838E83F7FE0AC06C
:100E7000B0DAF094E094D094C094C11CD11CE11C71
:100E8000F11C04C075FE02C08BE2B2DE033071F0CB
:100E9000043099F00530C1F00630F1F0073021F14F
:100EA00074E6872E912CA12CB12C25C068EE862EDD
:100EB00063E0962EA12CB12C1EC050E1852E57E286
:100EC000952EA12CB12C17C040EA842E46E8942E12
:100ED000AA24A394B12C0FC030E4832E32E4932EC5
:100EE0003FE0A32EB12C07C020E8822E26E9922EE7
:100EF00028E9A22EB12C9AE0292E312C412C512C1C
:100F0000C814D904EA04FB0470F0C701B6016B5F92
:100F10007F4F8F4F9F4FA20191010E94B83269010C
:100F20007A011F5FEDCF81E1810F9BEA899F812DBF
:100F30001124A82EA69486E0811B899F112D1124CF
:100F40001695912F990F190F811B182F4E0187E0CD
:100F5000880E911C2AE0A401C701B6010E94DF336C
:100F6000F40101900020E9F731977F01E818F908B2
:100F70009E2C6701DD24812F90E004968C159D0541
:100F800014F4A3941D5F8A2D90E0845D9F4F0E940E
:100F90003334A82E74FE04C0901610F40E1901C04C
:100FA00000E08E2C811A800E181424F08EE220DED0
:100FB000012F0E19111102C088EF882E912C10E01C
:100FC000C00ED11EE82C082C000CFF08892D90E0E3
:100FD0008C159D05ACF4FC013696E01BF10B81E00D
:100FE00090E08C0F9D1FE80FF91F808101DE939424
:100FF000892D90E08E159F0549F78EE2F9DDE6CF49
:10100000AA2011F08A2DF4DD662011F0862DF0DD86
:101010002E96E2E10C94BC330F93362FBC0180E096
:1010200090E0022F242F432F0EDF0F9108950F938E
:10103000062FBC0180E090E026E54DEF04DF0F9124
:1010400008950F93042F28E440E0FDDE8AE7D0DD09
:10105000BED90F910895EF92FF920F931F93CF93F4
:10106000DF93F82EE92EC5E64F9B05C0CF2DDE2D70
:1010700015E500E019C081E0A0DAC150A9F7F6CF6C
:1010800082E09BDA110F4F9B1F5F1F731F3379F4B0
:10109000011103C0CF2DDE2D04E00F5F083C88F462
:1010A000A8951C161D0644F0D7FFEACF0AC01111FF
:1010B000F7CF0023A9F305C02A97B1F7CFEFDFEFF1
:1010C000F3CF802FCDB7DEB7E6E00C94C833CF93D3
:1010D00086DDC82F809134018823C1F0813049F426
:1010E000C13039F46FE0C1DD8BE282DD6FE081E079
:1010F000BCDD80E49FE1AFDFC13039F48091340181
:10110000813019F460E0B1DD43DEB9DDCF9108959F
:101110001895189530910D01A0913201B0913301CD
:10112000E5E8F1E080E090E08317B0F441911C968F
:101130002C911C97421719F04581241302C0019687
:10114000F3CFFC01EE0FFF1FEF56FE4F20813181E0
:10115000293E334008F4089584E1089510920F0168
:1011600010920D01109264011092440110920E0130
:101170001092300110926B01EFE4F1E010821182C5
:101180001282EFE6F1E0108A82E0818B1092150165
:1011900017861686148215821682178281EF838B3A
:1011A00008958FE4D2D986E4D0D986E4CED96DDD16
:1011B0005E98E1D980E090E04ECF08951F93CF93E1
:1011C000DF93162F98E097B998B9E82FF0E0E05731
:1011D000FE4F949195B9262F281BE20FF11D27FD94
:1011E000FA95E491E92BE4B920DAEC01812F1DDABC
:1011F000AC01209125013091260136952795C90132
:101200000397BE01625E7F4F8617970778F4255ECD
:101210003F4FC217D30750F4BA01625E7F4F861763
:10122000970720F481E04217530708F080E014B8D4
:10123000DF91CF911F910895CF9361E080E0BEDFF1
:10124000C82F62E080E0BADFC80F62E081E0B6DF5D
:101250008C0FCF910895AFE0B0E0E1E3F9E00C949A
:10126000A033B82E10920F01807FA9F4E5DF833000
:1012700009F084C317DD8BE392E02EDD19DD8FE3E7
:10128000B7DC80ED97E0E7DE8B30C0F40BDD85EF57
:1012900090E022DD73C306E910E004DD8AEA91E004
:1012A0001BDDCADF833021F41F5F143010F006C04D
:1012B00010E088E282D9015081F760C0F9DC0E9419
:1012C0003A2081EB90E008DD60E085E093E00E9449
:1012D000403460E086E093E00E94403460E084E0C7
:1012E00093E00E94403460E082E0CCDA6C019A83A3
:1012F000898361E082E0C6DA7C019C838B8360E0B5
:1013000081E0C0DA8C019E838D8323E040E26EEFA2
:10131000C60182DE23E040E26EEFC7017DDE23E0FE
:1013200044EF6EEFC80178DE2AE5C216D10424F03E
:1013300084E190E09A838983698185E093E00E944B
:1013400040348AE5E816F10424F084E190E09C83BF
:101350008B836B8186E093E00E9440340A3511054F
:1013600024F084E190E09E838D836D8184E093E09E
:101370000E94403482E080933401A9DEEB2DEF70AF
:10138000EF87E13011F018E739C1EE24E394F12C36
:1013900078EB872E72ED972E77E4A72EB12CE2E042
:1013A000DE2E08E0F0E23F2EC12C1E2D52E2252E4B
:1013B0001ADD15DD84E51CDCC7010E94DC0107D8BD
:1013C0001130B9F484EE90E087DC64E0809129016B
:1013D00090912A012CDE6CDC8FED90E07DDC809119
:1013E0006D0190916E010E94DC018EEB80932101D2
:1013F000E1C0123079F52091250130912601A8E550
:10140000BBE10E94F63224EC36E340E050E00E945B
:10141000DA3229013A0181E085B9F5E0F4B980E0DA
:10142000F8D8841995099A83898381E184B980E089
:10143000F0D8841995099C838B8384E085B984E175
:1014400084B981E0E6D8841995099E838D8389EC5F
:1014500090E09EC0133041F5D5B82AE024B980E071
:10146000D8D82091250130912601369527953887C7
:101470002F83821B930B9A83898324B880E0C9D879
:101480002F813885821B930B9C838B8305B988E25F
:1014900084B981E0BED82F813885821B930B9E834F
:1014A0008D838BEB90E074C0143039F48BE292E0C2
:1014B00013DCC2DE81115FC26CC0153099F415B81F
:1014C000D4B880E0A6D89A83898304B981E0A1D8F2
:1014D0009C838B8334B882E09CD89E838D838BED74
:1014E00090E056C0163039F5D4B8D5B880E091D820
:1014F0002091250130912601821B930B9A838983C9
:1015000004B905B981E085D82091250130912601E3
:10151000821B930B9C838B8334B835B882E079D8D7
:101520002091250130912601821B930B9E838D8390
:1015300087ED90E02DC0173061F5209125013091A5
:101540002601A8E5BBE10E94F632A50194010E94A4
:10155000B83229013A01D5B8E3E0E4B980E059D8BE
:10156000841995099A83898305B9FCE0F4B981E06F
:1015700050D8841995099C838B8335B820E324B90E
:1015800082E047D8841995099E838D8385EB90E08E
:10159000A3DB8EDB89819A810E94D1010E94E70141
:1015A0008B819C810E94D1010E94E7018D819E81E7
:1015B0000E94D10107B908B914B815B888EE93E0B4
:1015C0004ADD143011F08B3020F4C39484E0C8124B
:1015D000EFCE88EE93E03FDDEFEFEE1AFE0AF8E083
:1015E000EF16F10409F0E0CECECEFDDB8BE292E007
:1015F00073DB84E60E94DD02115019F01DDE8111BB
:10160000F4CF50DB8AEA90E067DB23E044EF6FEF32
:101610008091270190912801FFDC4ADB83EA90E06A
:101620005BDB23E044EF6FEF80912E0190912F015F
:10163000F3DC82E0809334014ADD10920F0132DB4B
:101640008FE990E049DB60E082E00E94291D409034
:101650007701509078016090790170907A015C86F2
:101660004B8661E082E00E94291D80907701909076
:101670007801A0907901B0907A019E868D8660E015
:1016800081E00E94291D00917701109178011E834D
:101690000D8362E080E00E94291D80917701909186
:1016A00078019C838B8362E081E00E94291D8091F8
:1016B0007701909178019A87898761E080E00E94A4
:1016C000291DE0907701F0907801FA82E982C20149
:1016D0000E94E601C4010E94E601B801110F880BC7
:1016E000990B03E026E444EFAEDB2F85213021F097
:1016F00080912D01823031F482E0E80EF11CF886F1
:10170000EF8206C0F886EF8210922D018CE0A8DAF5
:101710008E010F5F1F4F6E01EFE0CE0ED11CF8015E
:10172000819191910A97853B9105C8F4EC15FD05CF
:10173000B9F744E2E42E43E0F42EF80160810E5F35
:101740001F4F6E5EC7010E944034FFEFEF1AFF0A81
:101750000C151D0591F7ACDA87E991E0BDDA82E05E
:1017600080933401B4DC0E941B2F2F85213029F097
:1017700080912D01823009F0E9C094DA80E06DDAC1
:101780008DE491E0A9DA82E068DA84E290E0A4DAFC
:1017900020E4F22E10E03AE0832E912CA12CB12C03
:1017A000DDDC10920F0160E082E00E94291D0091B3
:1017B000810120916F013091700140917101509130
:1017C0007201073F44F40F5FCA01B901A5019401FA
:1017D0000E94B832F6CF0093810120936F013093BD
:1017E00070014093710150937201073F09F098C056
:1017F000DA01C90180569109A109B10980399545DD
:10180000A105B10508F08CC060918301709184013D
:10181000CB018B569F4F8B32914008F081C01F5FE8
:10182000153008F47EC08BE293E00E944E343ADA21
:101830008DE190E051DA80918301909184010E94C2
:10184000D1010E94870388E088B989E087B980E2E6
:1018500084B982E00E941503853D9340D4F714B803
:10186000109224011092230182E00E9415038C0142
:101870008091690190916A019093240180932301E2
:1018800082E00E9415037C01EE0CFF1C10922401E3
:101890001092230182E00E941503A0906901B0908C
:1018A0006A01B0922401A0922301800F911F8C0144
:1018B0000E191F09FDD986E190E00EDA8DE293E062
:1018C0000E943334D82E9501D8010E940533970128
:1018D0000F2C000C440B550B0E94DA3213E01D0D47
:1018E000120F612F8DE293E00E944034812F012E70
:1018F000000C990B0E94D1010E94870382E0809323
:101900003401E5DB10922D018CE0AAD984E293E04A
:101910000E943334682F87E293E00E94403416C05F
:1019200010E0C6D960916F017091700180917101D2
:101930009091720104E026E44091810184DA28DA72
:1019400088E20E94DD02FA94F1102ACF89E18093A7
:10195000210180E00E943032A5D985EF90E0BCD90A
:10196000A7D982E292E0B8D910920F0182E0809369
:101970003401ADDB03C082E0C82E0BCE2F96E2E12E
:101980000C94BC3380912D0181110DC084E293E051
:101990000E94333461E0680F87E293E00E94403494
:1019A00081E080932D010895EF92FF920F931F9392
:1019B000CF93DF93D62FE82FF0E0ED56FE4FE49162
:1019C000E8B9E860E7B915B8E62FF0E0E057FE4F58
:1019D000E491E4B988E8E82E83E1F82ECE2FCC0F0D
:1019E0008D2F0E9409038C01C4B98E159F0510F438
:1019F0007801F6CF892BD1F08BE291E06DD9D80137
:101A000020EA36E841E050E00E940B3328E937EB4A
:101A100040E050E00E94B832DA01C90122E041E41E
:101A200067EFFADA88E087B988B914B8CDB7DEB7BE
:101A3000E6E00C94C833A0E0B0E0E1E2FDE00C94F5
:101A4000A03380E48AB98BB9C6E8C0937A001092BB
:101A5000C1000E94BD02D4B784B7877F84BF0FB690
:101A6000F894A8958091600088618093600010923E
:101A700060000FBEC093640088E380937E001092E4
:101A8000B00087E08093B10078944AD9D3FD25C592
:101A900080E185BFC0E04F9906C082E00E94DD0270
:101AA000CF5FCC33C1F78FE59DE69093080180931B
:101AB0000701CF3130F080E69DE6909308018093D6
:101AC0000701109222010E943A209FE088E10FB6A0
:101AD000F894A895809360000FBE90936000CC337B
:101AE00099F038E0832E42E0942E50E1752E68E1A3
:101AF000662E75E5E72E71E0F72EE0EF2E2EF3E36C
:101B00003F2EA1E25A2E2CC00E9454298111FCCFF5
:101B1000E8CF823009F42EC1833009F458C186E839
:101B200092E0DAD88EE692E0D7D8C2D880910D0143
:101B3000805D5ED88AE25CD887E291E0CDD884E50A
:101B400092E0CAD8A2D880E49FE167B84F9BFECF4D
:101B500082DA823308F454C40E9454298111FCCFE4
:101B6000A1D887B8FBDA0E943A2094D8C8D48091D3
:101B70003001882369F09CD882E491E0ADD863E01D
:101B8000809125019091260152DA88EC0E94DD02B5
:101B90008FD80E94591C80910F01893009F582D895
:101BA00087E491E099D884D863E0809149019091CD
:101BB0004A013DDA0E94E70163E080914B01909178
:101BC0004C0135DA0E94E70163E080914D0190916C
:101BD0004E012DDA8AEC0E94DD0281E13CDB0BC470
:101BE0008CE03ED887E293E00E943334C82F84E231
:101BF00093E00E943334C81BC0932D01CC2311F015
:101C00008EE02ED880E027DBEED880EA92E064D820
:101C100083E00E94A50239D842E061E080E0E3D48D
:101C200042E060E081E0DFD441E062E080E0DBD4CC
:101C300041E060E082E0D7D440E062E081E0D3D4CC
:101C400040E061E082E0CFD480910F0181110EC0AD
:101C50000E94591C60E082E00E94291D61E082E040
:101C60000E94291D60E081E00E94291D1BD885E3A8
:101C700091E0909333018093320180910F0186307F
:101C800039F487E792E028D841E467E483E408C0A8
:101C9000873099F480E892E01FD842E367E481E35B
:101CA0000E94ED0105D88BE591E016D862E08091A5
:101CB000390190913A01BBD99CC3883081F42091BD
:101CC0007F018091800190E0820F911D029719F4AD
:101CD0000E94BD2297C380E00E94C8218CC383303C
:101CE00009F0B0C080910D01813009F012CF80E081
:101CF0000E9479026091850180918B0155DE80E719
:101D00000E94510240E06091850180918B010E9408
:101D10003D2E60936F0170937001809371019093D9
:101D2000720180E054D860916F01709170018091D0
:101D300071019091720102E026E442EF84D80E9482
:101D4000E90141E06091850180918B010E943D2E67
:101D500060936F0170937001809371019093720191
:101D600026E442EF70D88DE191E00E946C060E945B
:101D7000450694C282E30E94F8058DE091E00E943E
:101D80006C069091850130918601931307C080E025
:101D90000E94950281E00E948C020CC020918B0170
:101DA00080918C01281308C080E00E94850281E0A8
:101DB0000E949C0281E0A4CF321304C081E0809392
:101DC000020133C09813ABCE709202012EC0309244
:101DD000020180918B0190918601891303C021E05B
:101DE000209302014091850130918C01431302C080
:101DF0007092020120918701821302C09092020129
:101E000080918D01481303C040E2409302013213D8
:101E10000FC022E120930201981761F083E30E9432
:101E2000F8058DE091E00E946C060E94670236C2C0
:101E3000981302C05092020180910201823208F090
:101E40006ECEECCF843009F04BC1809164018823C1
:101E500009F45DC080914401882309F458C0609161
:101E60004101809143010E94291DA0906F01B09013
:101E70007001C0907101D0907201C0918101609198
:101E80006301809161010E94291D8091350190912B
:101E90003601A0913701B091380140915501509120
:101EA00056016091570170915801843F21E09207DB
:101EB000A105B10538F4443F21E0520761057105E1
:101EC00008F0C0EF443F51406105710538F4843F8C
:101ED0009140A105B10510F020928101809181010E
:101EE000C8130EC080916F0190917001A091710193
:101EF000B0917201A816B906CA06DB0618F004C034
:101F0000C81714F48DE001C08CE080930E0180911D
:101F10006401882361F080914401882341F04F9946
:101F200006C090910E0181E0892780930E01809177
:101F30000E018C3051F48EE691E00E946C06809187
:101F40006401882389F080E70DC0F0923301E092AC
:101F500032018AE691E00E946C0680914401882358
:101F600019F08EE60E94F8050E94E701D3D8C82F29
:101F70008530E8F480910E018C3041F481E02091AD
:101F8000420190914301921748F007C081E02091EF
:101F9000620190916301291708F080E0882319F00D
:101FA00087E291E002C083E291E00E946C0643E484
:101FB00062E485E40E94ED010E94580688E791E002
:101FC0000E946C06E0913201F091330160817181D1
:101FD0008281938103E020E04EEF0E9423070E945C
:101FE000E70189E40E94F805E0913201F0913301A4
:101FF000868197818031974270F085E60E94F805CE
:10200000E0913201F09133018681978180519742AE
:102010009783868303C083E60E94F8050E94EB0144
:10202000E0913201F091330122E041E46AEF8681D0
:1020300097810E940C0880E00E94E7068FE591E0FE
:102040000E946C06E0913201F091330163E08481DB
:1020500095810E941708E0913201F091330180854B
:102060009185892B91F080E00E94E7068FEE90E049
:102070000E946C06E0913201F091330123E041E4CB
:102080006AEF808591850E940C08E0913201F09101
:10209000330182859385892B91F080E00E94E706C9
:1020A00089EE90E00E946C06E0913201F0913301DC
:1020B00023E041E46AEF828593850E940C08C530D5
:1020C00008F099C180E00E94E7068C2F0E947902F7
:1020D0008BE591E00E946C068C2F0E94430289C11F
:1020E000853009F0F5C080910E0184FF08C080E5BD
:1020F0000E94F805F0923301E092320103C08EE4B1
:102100000E94F8050E94E90180910E01C82FCF704E
:10211000C43041F481E891E00E946C064FE367E42B
:102120008FE311C085FF02C084E401C085E40E94F2
:10213000F805C33009F0C9C18BE791E00E946C0635
:1021400043E467E485E40E94ED0180910E0185FD82
:1021500018C00E945806E0913201F0913301668563
:1021600084850E94291D0E94F70686E591E00E9461
:102170006C06E0913201F091330162E08285938533
:102180006EC08F70843071F080E00E94CE06E091C6
:102190003201F0913301668584850E94291D0E94D9
:1021A000F7061AC0E0913201F091330184819581E4
:1021B000892B91F080E00E94CE0680E090E00E94A2
:1021C0006C06E0913201F091330122E041E46AEFC4
:1021D000848195810E940C0880E00E94E70689E4D2
:1021E0000E94F8050E94EB01E0913201F091330169
:1021F00022E041E46AEF868197810E940C0881E524
:1022000091E00E946C06E0913201F091330162E0AE
:10221000828593850E941708E0913201F091330185
:1022200080859185803C9241E0F480E00E94E70641
:1022300089E40E94F8050E94EB0122E041E46BEF83
:1022400080E090E00E940C0881E591E00E946C061D
:10225000E0913201F091330162E0808591850E9426
:10226000170880E00E940F07C43009F4C4C0C0E022
:1022700080910D01C81708F0BEC080E00E94E706FB
:102280008C2F0E9479028BE591E00E946C068C2FC6
:102290000E9443020E944506CF5FEACF0E94450696
:1022A00080916B01882309F4A6C067B8809107016B
:1022B000909108010E942B0887B80E9452068091D5
:1022C0000D01805D0E94F8058DE091E00E946C0692
:1022D000D0916B01DD2309F47FC0D130A1F480914E
:1022E00052010E94140220915201213039F42091B0
:1022F0000D01211103C00E947B2284C040E0692FA0
:102300000E940B2178C0909152018091530124E0EA
:10231000829FD0011124AE55BE4F24E0929FF00160
:102320001124EE55FE4F0D911D912D913C91408150
:10233000518162817381401751076207730710F45E
:10234000C82F01C0C92FD23021F4890FC3E0C81BA8
:102350001CC08091540194E0899FD0011124AE5596
:10236000BE4F24E0C29FF0011124EE55FE4F0D91A7
:102370001D912D913C914081518162817381401763
:1023800051076207730708F4C82FDC2FD695092D73
:102390000C1BC11102C011E001C012E08D2F0E9480
:1023A0002D0688E091E00E946C06802F0E942D0689
:1023B00088E091E00E946C06812F0E942D0680E04B
:1023C0000E94CE0681E0C11180E00E941E02892D8C
:1023D0008D1B0E941E020FC08EE592E00E946C06CB
:1023E0000E9458068BE892E00E946C0686E892E014
:1023F000A8CB0E9445068091070190910801A5CBCA
:102400008111AECB8CE00E94300680912D01882393
:1024100009F458C0D2E000E010E080E090E020E154
:10242000422EFC01E00FF11FEA56FE4FC491C0326C
:1024300009F4482E01968131910599F7DD2341F089
:102440008D2F8170B82ED0FD0AC00E94520607C0A1
:1024500080E197E20E942B08882391F32FC060E06F
:102460008B2D0E9435060E944506A895DF5FD1702E
:10247000A12CB12CA414A0F4F801EA0DFB1DEA561E
:10248000FE4FC491CC23D1F0CF3F19F40E94E70155
:1024900003C08C2F0E94F8059FEFA91AB90AEACF52
:1024A000CC2361F0040D111DF801EA56FE4FE491B2
:1024B000E03209F0B2CF0F5F1F4FAFCF80E197E25C
:1024C0000E942B080E94D1084BCB86E891E00E9425
:1024D0006C0644E467E483E536CE0E944A068BE44A
:1024E00092E00E946C068BEC0E94DD020E94D108F3
:1024F00080E090E0CDB7DEB7E2E10C94BC330F93FF
:102500001F93CF93DF9385E00E94150385E00E941F
:1025100011038C01EC01CC0FDD1FCC0FDD1FCA565F
:10252000DF4F10922B01C43883E0D80750F48BE8BA
:1025300091E00E946C060E94C80681E080932B0106
:1025400026C08AE991E00E946C0662E0CE010E94FA
:1025500017080E94E7010A3F86E0180790F403334A
:10256000164060F484E992E00E946C060E94C8065E
:102570008DEC0E94DD020E94D10809C08BE992E037
:1025800002C087E991E00E946C060E94C806DF91B4
:10259000CF911F910F910895CF93DF93DC019C01A0
:1025A000261B370BE0E090E0B901690F711D672F22
:1025B0007727920F260F371FBA016E0F711D672FF5
:1025C0007727E40FEB01CC0FDD1F4C0F5D1F6B3E37
:1025D00028F4A217B30740F7CA0102C080E090E0D8
:1025E000DF91CF910895A8E1B0E0E9EFF2E10C941A
:1025F000A033582E462E342EA895E62FF0E0E05753
:10260000FE4F24912C87220F2B8B339634913A8BDB
:10261000E42FF0E0E057FE4F449149833396549104
:102620005F83E82FF0E0E057FE4F2490822D880F63
:102630008F87339694919B8398609C8338603A830C
:1026400045B9AC84A42AA4B897B9EB81E8B9862F20
:102650000E9411039E878D87FC85F4B9842D0E940A
:1026600011033C0114B80E94C60215B8A4B8842D09
:102670000E9411036D857E850E9473036C012A817F
:1026800027B988E088B9398132293D8335B934B911
:10269000852D0E9411030E9479037C0115B80E94C8
:1026A000C60225B8852D0E9411030E9479038C0172
:1026B00024B8852D0E9411030E947903B82E9987B2
:1026C000B801C7010E947303803241E0940730F4DF
:1026D00050E2C51651E0D50608F4B6C5C00ED11EAD
:1026E000ED85FE858E0F9F1FC816D90620F41E8724
:1026F0000D876B2C79842091440130916401822FE5
:1027000090E0830F911D02974CF0213009F09CC599
:102710009091410180916101981396C5F981FF0F55
:10272000F88FF229FB872D853E852437310508F483
:10273000A5C1C901880F991F44966816790608F04B
:102740009DC13C8137B94B8148B98C85588D852B0B
:1027500084B9842D0E940D038C01832D0E941503E2
:102760007C01888D85B9842D0E940D039801295A1A
:102770003D4F2817390708F0B4C088E088B99A811E
:1027800097B9EB85E4B9E5B9832D0E940D03883430
:102790009F4028F085E080930F0182E204C085E02D
:1027A00080930F0184E280930E0110933A0100930D
:1027B0003901B701C8010E947E03909340018093C4
:1027C0003F019801A0E1B7E20E94F6322091090191
:1027D00030910A0140E050E00E94B83230933C0151
:1027E00020933B018B89288D822B84B915B83C81BD
:1027F00037B94B8148B9832D0E9415038C01842D74
:102800000E940D03B8010E947E039C0190933E013B
:1028100080933D0190910E019F70943081F540911D
:102820003B0150913C0160913F0170914001C90111
:10283000B3DE009701F1588D54B9EA898C81E82BF9
:10284000E7B9842D0E940D038C0188E087B99801B7
:10285000A0E1B7E20E94F63220912E0130912F01C3
:1028600040E050E00E94B832A901B80180913D01DA
:1028700090913E0191DE90933A01809339018091CD
:102880000E018F70843009F4D6C488E088B99F8126
:10289000EA819E2B97B924B8FD81F5B9852D0E9458
:1028A00011038C010E9479039E838D83842D0E94E5
:1028B0001503E0901001F0901101BC01C8010E94C5
:1028C0007E039701DC010E94F632ED81FE819F01BB
:1028D00040E050E00E94B83230933A012093390131
:1028E000AAC488E088B9FA81F7B92B8524B925B93B
:1028F000852D0E940D038C01832D0E9415037C0100
:1029000025B8852D0E940D03895A9D4F8017910788
:1029100008F09AC43B8138B94C8147B9832D0E9495
:102920000D03813D934028F485E080930F0182E3FD
:1029300004C085E080930F0184E380930E01B80109
:10294000C7010E947E039093600180935F01C801DC
:102950000E9479039C01A0E1B7E20E94F632209127
:1029600010013091110140E050E00E94B8323093E4
:102970005C0120935B01F8E0FF2EF8B88A8187B9EB
:102980008F85988D892B84B985B9852D0E94150373
:102990008C01832D0E940D03B8010E947E039C01CF
:1029A00090935E0180935D0190910E019F70943031
:1029B000A1F540915B0150915C0160915F017091C4
:1029C0006001C901E9DD009721F1E88DE5B9E4B9BD
:1029D000FB81F8B9EC812A81E22BE7B9852D0E94B1
:1029E0000D030E9479038C01F7B89C01A0E1B7E2C6
:1029F0000E94F632209127013091280140E050E0FA
:102A00000E94B832A901B80180915D0190915E01E8
:102A1000C3DD90935A018093590180910E018F700C
:102A2000843009F4E0C1EB813F81E32BE8B94C81AC
:102A3000342B37B915B85D8154B9852D0E94110327
:102A40007C01842D0E9415039E838D8300910901D2
:102A500010910A01BC01C7010E947E039801DC01AC
:102A60000E94F632ED81FE819F0140E050E00E941D
:102A7000B83230935A0120935901B5C188E088B922
:102A8000FA81F7B925B82B8524B9852D0E94110349
:102A9000998B888B0E94790398878F83832D0E945E
:102AA00015039A878987430134E6830E911C4F8171
:102AB0005885B30184169506D8F4CA010E947E0396
:102AC0008C01209110013091110140E050E060E84C
:102AD00071EA83E09CE10E94B832D8010E940B3376
:102AE000E985FA858F0120E030E0A901980123C033
:102AF0008F8198850E947E038C01FD81F4B9852D1C
:102B00000E941103998B888B0E94790398878F8389
:102B1000832D0E9415039A878987BC01C8010E94F2
:102B20007E039C01A4E6B0E00E94F632E985FA85B6
:102B30009F0140E050E00E94B83269017A0114B868
:102B400015B8FB81F8B92C8127B981E00E94DD021C
:102B5000A4B8842D0E941103BC84388DB32A8F350C
:102B60009D4008F446C1B4B8842D0E940D038C0129
:102B7000832D0E9415039D8B8C8B852D0E94150340
:102B80009F8B8E8B8C899D89813D974008F4B7C0BF
:102B900084E080930F018DE080930E016016710632
:102BA00030F49801261937093E832D8302C01E8315
:102BB0000D838090090190900A01A12CB12C60E84E
:102BC00071EA83E09CE1A50194010E94B832AD81D5
:102BD000BE810E940B33EC89FD899F0140E050E0EB
:102BE0000E94B83280916401882369F08091550178
:102BF00090915601A0915701B09158018217930707
:102C0000A407B50708F5209355013093560140936A
:102C10005701509358019801A0E1B7E20E94F632A3
:102C2000A50194010E94B83230935C0120935B01AE
:102C30006C897D898E899F890E947E0390935A01B9
:102C40008093590181E001C080E04091550150918D
:102C5000560160915701709158014C155D056E0544
:102C60007F0538F5C0925501D0925601E092570188
:102C7000F092580169857A85888999890E947E0336
:102C800090935A01809359012F813885A0E1B7E2D2
:102C90000E94F632209110013091110140E050E085
:102CA0000E94B832205F384D30935C0120935B0165
:102CB00003C0882309F4B1C3C0900901D0900A0170
:102CC000E12CF12C9301A0E1B7E20E94F632A701BA
:102CD00096010E94B83230935E0120935D012D85EC
:102CE0003E85A0E1B7E20E94F632A70196010E945C
:102CF000B8323093600120935F0181E08EC3F1E62A
:102D00006F16710408F075C0013D27E0120708F442
:102D100070C085E080930F0182E180930E01C801AD
:102D200086509F4F4E895F898417950720F483E171
:102D300080930E0119C08091090190910A019E8330
:102D40008D83B8018E899F890E947E032D813E81EB
:102D5000DC010E94F632980140E050E00E94B83257
:102D600030935A01209359019A899770E92E832D47
:102D7000806480937C00EBE0FE2EE1E0F0E0FE83D7
:102D8000ED830FEF13E0A89561E089817AD5B4B89F
:102D900086B18E21E9F3FC85F4B980917A008064D4
:102DA00080937A0080917A0086FDFCCF8091780034
:102DB000909179009801281B390B4D815E81420F5B
:102DC000531F5E834D83FA94F110DDCFCA01880F43
:102DD000991F880F991F69E070E00E9491327093EB
:102DE000600160935F01809164018F5F8093640153
:102DF00084CFB4B8588D55B9842D0E9411036C014D
:102E0000832D0E94150398878F830E9479039A87E8
:102E100089878C149D04A8F4B301C6010E947E0327
:102E20008C012091090130910A0140E050E060E8F6
:102E300071EA83E09CE10E94B832D8010E940B3312
:102E40001FC0A4B8F981F5B9842D0E9411036C014B
:102E5000832D0E94150398878F830E9479039A8798
:102E60008987C6016C147D0410F486199709698559
:102E70007A850E947E039C01A4E6B0E00E94F632AF
:102E8000E985FA859F0140E050E00E94B83249018F
:102E90005A01FA81F7B988E088B92D8124B925B99A
:102EA000852D0E9411038C01832D0E9415039A87A2
:102EB0008987842D0E9415037C01003331E11307BB
:102EC00008F0BFC125B8852D0E941103998B888B0E
:102ED00024B8852D0E9411039D8B8C8B15B881E041
:102EE0000E94DD0225B8852D0E9411034C895D8961
:102EF0004034564008F05DC08133914108F459C018
:102F0000C8018A569F4F288939892817390708F040
:102F100050C086E080930F01809144018F5F8093C1
:102F20004401B70189859A850E947E0390933A01F6
:102F300080933901B701C8010E947E03909340013C
:102F400080933F0114B815B83A8938B981E00E94DE
:102F5000DD0224B8852D0E941103853F910508F0FC
:102F60006AC24D8144B9832D0E941103813D934073
:102F700008F461C2852D0E9415038D3D924008F42E
:102F80005AC224B8852D0E9411038D3D924008F449
:102F900052C225B881E00E94DD0215B8852D0E943D
:102FA0001103853F910508F046C287E080930F0129
:102FB00042C22A8127B9398134B935B981E00E94EA
:102FC000DD024B8544B945B9852D0E9411038C0162
:102FD0000E947903998B888B832D0E9415039E8311
:102FE0008D830E9479039A878987842D0E94150317
:102FF0007C0189859A858E3F994008F4B2C084E0AF
:1030000080930F018CE080930E01B3018889998928
:103010000E947E038C01209110013091110140E04B
:1030200050E060E871EA83E09CE10E94B832D80188
:103030000E940B33E985FA859F0140E050E00E9431
:10304000B83280914401882369F0809135019091D4
:103050003601A0913701B091380182179307A40778
:10306000B50728F520933501309336014093370199
:1030700050933801B7018D819E810E947E03909309
:103080003A018093390128893989A0E1B7E20E9489
:10309000F632209110013091110140E050E00E9481
:1030A000B83230933C0120933B0181E001C080E0C5
:1030B000409135015091360160913701709138018E
:1030C000481559056A057B0528F5809235019092CF
:1030D0003601A0923701B0923801B6018F819885F0
:1030E0000E947E0390933A01809339019601A0E1FA
:1030F000B7E20E94F6322091090130910A0140E0C6
:1031000050E00E94B832205F384D30933C0120934C
:103110003B0103C0882309F48FC19301A0E1B7E20A
:103120000E94F6322091090130910A0140E050E0FE
:103130000E94B83230933E0120933D012D853E859B
:10314000A0E1B7E20E94F632209110013091110106
:1031500040E050E00E94B8323093400120933F019C
:103160006AC1F1E66F16710408F06BC028893989CD
:1031700029343D4008F465C085E080930F0182E06A
:1031800080930E01C70186509F4F8017910720F44E
:1031900083E080930E0117C0C0901001D090110100
:1031A000B701C8010E947E039601DC010E94F6323D
:1031B000E889F9899F0140E050E00E94B8323093DD
:1031C0003A01209339010B810770832D806480932D
:1031D0007C001BE021E030E03E832D83A89560E079
:1031E00089814FD33B8534B935B986B18023E9F75E
:1031F00024B880917A00806480937A0080917A006C
:1032000086FDFCCF80917800909179004D815E81A0
:10321000480F591F5E834D83115001F7CA01880F73
:10322000991F880F991F69E070E00E949132709396
:10323000400160933F01809144018F5F809344017E
:10324000FAC088E087B988B914B815B888E087B99A
:1032500057EC651651E0750608F4D0C088B98F8523
:1032600084B998EC9D83EC81FA81EF2BEF832F8159
:1032700027B981E00E94DD023A8137B9852D0E948D
:103280001503429728F04D8141504D834111EFCFF6
:103290005F8554B955B961E08981F3D2852D0E94CB
:1032A00011036C018B8984B915B89C8197B9EB81A6
:1032B000E8B960E08981E5D2842D0E9411030E9463
:1032C00079039E838D83FC85F4B9842D0E941503B8
:1032D0008C01852D0E941103B8010E947E037C01A0
:1032E000842D0E9415038C01852D0E941103B801C5
:1032F0000E947E0397012C5E3F4F2817390708F480
:1033000080C088E088B92A8127B924B825B861E04F
:103310008981B7D2842D0E9415038C01852D0E94CE
:103320001103B8010E947E038C01E816F90658F4D7
:103330003F8534B935B9852D0E9411039C01CD829A
:10334000DE82780110C04B8944B915B85C8157B949
:103350008B8188B960E0898194D2842D0E94110309
:103360000E9479039C0198EEE91693E0F90630F487
:10337000C70164E670E00E94913206C0B70154E0D4
:10338000769567955A95E1F7C7018759910989386C
:103390009141A0F52E153F0588F58D819E8143E072
:1033A000969587954A95E1F7893C910510F088EC50
:1033B00090E02D813E81820F931F8E159F05F0F4C2
:1033C00062177307D8F480910F01833018F483E0FB
:1033D00080930F0120910D01822F90E0FC01EB57AB
:1033E000FE4F50824682880F991FFC01EF56FE4F18
:1033F000F182E0822F5F20930D0103C0642D852DA3
:1034000029D088E087B988B914B815B88EE20E942F
:10341000F8056896E2E10C94BC33909164019F5FDB
:1034200090936401882369F33092610140926201B4
:1034300050926301E6CF81E0909144019F5F9093A9
:1034400044018823F1F230924101509242014092AE
:103450004301D7CFA0E0B0E0E0E3FAE10C94A2335F
:10346000A895462F50E0FA01E057FE4F949033960E
:103470009491A82FB0E0FD01E057FE4FE490339601
:10348000F490709164012091440130E0270F311DC8
:10349000232B09F0F1C1A89520911301309114015B
:1034A000220F331F220F331F309326012093250153
:1034B0002091690130916A01220F331F220F331FBF
:1034C00030932401209323012EEB20932101C091FE
:1034D0000D01E5E8F1E070E04A0F5B1F7C1759F041
:1034E0002191A58130E02A0F311D2417350709F4F9
:1034F00056C07F5FF3CFD62FC82F88E088B9E92F59
:10350000E860E7B9E4B8E5B8B8E1BB2EC12CD12C2E
:103510008D2F0E941103782E692E8C2F0E94150387
:103520008C018C199D0997FF03C091958195910994
:10353000039734F0A895BA946801B110E9CF2FC071
:10354000EE0C15B8E4B88C2F0E941103813591055B
:1035500030F5E5B88C2F0E9411036C018F2D886027
:1035600087B9F8B815B894B8A8E18A2EA12CB12C67
:103570008C2F0E941103582E492E8D2F0E94150367
:103580007C018A199B0997FF03C091958195910948
:103590000397CCF0A8958A9457018110E9CF8091C8
:1035A000130190911401909326018093250180913D
:1035B000690190916A01909324018093230189E12C
:1035C0008093210159C1990C94B88D2F0E94110349
:1035D0005C01003C84E4180730F425E8C21621E0C1
:1035E000D206E8F605C080EBC8168DE4D806B8F61A
:1035F00024EAE21622E0F20608F06CC088E9A81678
:10360000B10468F2C6010E947903AC019601A8E9F1
:10361000B7EB0E94F6329A0140E050E00E94B832C7
:1036200029013A01C5010E9479039C01A8E9B7EB81
:103630000E94F632850120E030E0A90198010E9445
:10364000B83288E7C8168FE0D80680F4D301C201EB
:10365000F2E0880F991FAA1FBB1FFA95D1F7BC0192
:10366000CD01620F731F841F951F14C088E7A81631
:103670008FE0B806B0F4DA01C901E2E0880F991FC3
:10368000AA1FBB1FEA95D1F7BC01CD01640D751DC2
:10369000861D971D25E030E040E050E00E94B832E2
:1036A0000CC0D301C201820F931FA41FB51F9C0140
:1036B000AD015695479537952795A4E6B0E00E9451
:1036C0000B332B013C012CEA420E2DE0521E611CF3
:1036D000711C79C0672D762D0617170708F4B801FD
:1036E000C52CD42CCE14DF0408F467010617170785
:1036F00008F48B01A0901001B0901101C8010E9444
:103700007E039501DC010E94F6322B013C01C801C9
:103710000E9479039C0140E050E0C301B2010E9485
:10372000B83229013A01CE14DF0408F47601A090E2
:103730000901B0900A01B701C6010E947E039501FC
:10374000DC010E94F6324701A12CB12CA5019401A5
:103750000E94B83208378FE0180780F4D301C20105
:1037600062E0880F991FAA1FBB1F6A95D1F7BC01A1
:10377000CD01620F731F841F951F14C088E7E816E0
:103780008FE0F806C0F4DA01C90132E0880F991F12
:10379000AA1FBB1F3A95D1F7BC01CD01640D751D61
:1037A000861D971D25E030E040E050E00E94B832D1
:1037B00029013A0108C0420E531E641E751E7694FC
:1037C00067945794479410910F01143008F0E7CE96
:1037D000C1500C2F0D0F202F30E0E901C15BDE4FEF
:1037E0008881220F331F220F331FF901EE55FE4F40
:1037F0008823D9F1C080D180E280F380A3019201B7
:103800002C193D094E095F0957FF07C05095409597
:10381000309521953F4F4F4F5F4FAAE0B0E00E9497
:103820000B3324E6C20ED11CE11CF11CA70196014A
:10383000240D351D461D571D0E94B832232B242B05
:10384000252B09F0ACCE133019F081E080930F01E5
:1038500082E0888380916B01E82FF0E0EE5AFE4F02
:1038600000838F5F80936B019ACE40825182628287
:10387000738281E0888393CECDB7DEB7E0E10C940C
:10388000BE33CF93C82FC09595B160FF02C0982B6F
:1038900001C09C2395B994B1892B84B982E00E9420
:1038A000DD0284B18C2384B985B1C823C5B9CF9119
:1038B0000895A0E0B0E0EFE5FCE10C94A8331AE035
:1038C00008E08FE3C82E99E0D92E07B908B915B8DA
:1038D000C4B880E00E9411037C0181E00E941503BE
:1038E000EC0182E00E9415039C0180910F01893058
:1038F00081F488E087B914B8F0924A01E092490156
:10390000D0934C01C0934B0130934E0120934D0155
:103910005BC084E0E816F10440F4C430D10560F4E3
:103920002430310530F399E00BC088EEE81683E0CF
:10393000F80610F098E001C099E0C83ED34008F4C2
:103940009260283E334008F4946097B9C0E0D0E01C
:10395000A89580E00E9409035C0181E00E941503A4
:103960007C0182E00E94150324E1A21625E0B20644
:1039700008F4389A24E1E21625E0F20608F4399AB0
:10398000843125E0920708F43A9A26E0A216B104A1
:1039900030F426E0E216F10410F4069738F0219690
:1039A000C43F81E0D807A1F6D0920F01E12CF12CA1
:1039B000EC16FD0631F00E94CC022FEFE21AF20A5B
:1039C000F7CF115009F081CFCDB7DEB7EAE00C9404
:1039D000C433CF92DF92EF92FF92CF9320916F0189
:1039E000309170014091710150917201C09181013B
:1039F0008AE0C82ED12CE12CF12C8C2FCF5F213AFC
:103A000096E8390791E04907510538F0CA01B90134
:103A1000A70196010E94B832F0CF80938101A09156
:103A20002501B09126010E940B3328E833E140E0E4
:103A300050E00E94B83220936F01309370014093A0
:103A4000710150937201CF91FF90EF90DF90CF9072
:103A50000895A0E0B0E0EFE2FDE10C94A633982FCA
:103A6000990F980F2FEF260F920F90934601E82F92
:103A7000F0E0E057FE4F1491262F30E0F901E057B7
:103A8000FE4FF490F901ED56FE4FD49190910F0145
:103A9000913009F4A2C220910D01A5E8B1E0FD0129
:103AA00090E0921791F0368163130BC0308183133D
:103AB00008C01C964D915C911D974C3D554008F4F3
:103AC0008CC29F5F31961296ECCF062FC82FD8601C
:103AD00010927C0110927B0181EF80938101109202
:103AE0006F01109270011092710110927201E1DE6B
:103AF00088E088B9D7B9F4B8F5B88C2F0E941503BF
:103B00005C01802F0E941503A81AB90A14B81092FC
:103B10004801109247018091470190914801843FEC
:103B2000914008F0AAC015B914B90E94C60214B891
:103B300015B80E94CD02A8958C2F0E9415037C0118
:103B4000EA18FB0880914701909148018E37910552
:103B500028F08BE4E816F1040CF48FC08091470143
:103B6000909148012DE2E21621E0F20634F401962C
:103B70009093480180934701CECF892B09F0A4C1CF
:103B800085E1E81685E0F8060CF49EC192DE15B8D2
:103B90008FE087B988E088B9F12EFF0CF4B880E493
:103BA00080937B0084E580BF8C2F806480937C00B1
:103BB00086E180937A000E94D00210924801109210
:103BC000470110928000109285001092840087E2D5
:103BD00086BB81E280936F0081E080936C01F5B831
:103BE00090910F0180938100953009F04CC081E0E5
:103BF00090E00C2E01C0880F0A94EAF780958F7030
:103C000087B9F89483B7817F83BF80916C01882343
:103C100089F083B7816083BF7894889583B78E7F5E
:103C200083BFF894A8958091470190914801803412
:103C3000964059F7789410928100E0908600F090B9
:103C4000870010926F0086E980937A0014B815B847
:103C50008C2F0E9415032091290130912A01821B8B
:103C6000930B0C969093840180938301809147017C
:103C7000909148018032934040F088E087B988B93C
:103C800014B815B8AAC1D7B9BCCF8091470190919B
:103C9000480190937A0180937901F0927801E09243
:103CA000770184EF809381018091470190914801D1
:103CB00082349105C8F0609177017091780180910C
:103CC000790190917A0124E630E040E050E00E94D2
:103CD000B832209377013093780140937901509363
:103CE0007A0186EF80938101A0916D01B0916E0100
:103CF00020917701309178014091790150917A01BA
:103D00000E940B3320E233E040E050E00E94B832E2
:103D100020937701309378014093790150937A0191
:103D200020936F01309370014093710150937201A1
:103D300050DE80918101843F09F071C0C0906F0115
:103D4000D0907001E0907101F090720180EAC81685
:103D50008FE0D806E104F104C0F4A70196012C54C9
:103D60003F4F4F4F5F4F60EA7FE080E090E00E945E
:103D7000B832C20ED31EE41EF51EC0926F01D0925F
:103D80007001E0927101F0927201C0906F01D090C9
:103D90007001E0907101F0907201C114D10421E032
:103DA000E206F10428F4D092B301C092B20106C039
:103DB00081E090E09093B3018093B201809146013D
:103DC00090E08C5D9C4F0E94333490E0A0E0B0E026
:103DD000B701A6018C159D05AE05BF0568F4481B0B
:103DE000590B6A0B7B0B40936F01509370016093EA
:103DF00071017093720113C04C5E5F4F6F4F7F4F24
:103E0000481759076A077B0710F40E94C20C1092EA
:103E10006F0110927001109271011092720114B929
:103E200080916F0190917001A0917101B091720128
:103E30004997A105B10508F420CFC12CD12C809160
:103E40000D01882329F080910F01853009F015CFED
:103E500088E080930F0180918101909182019817F1
:103E6000C4F089130ACF80906F0190907001A090E8
:103E70007101B09072014091730150917401609191
:103E8000750170917601481559056A057B0508F0A2
:103E9000F4CE40916F015091700160917101709169
:103EA0007201409373015093740160937501709394
:103EB000760180938201D0927E01C0927D010093B1
:103EC0007F01C0938001D9CEC701C12CD12C209194
:103ED0004701309148012C153D0560F00E94C70252
:103EE0008C2F0E9415038A199B09A8952FEFC21ADF
:103EF000D20AEDCF5701A81AB90A1A141B049CF470
:103F000039ECA316B1040CF0B8CE28EE33E0D5019D
:103F10000E94053397010F2C000C440B550B0E9497
:103F2000B832690102C0C12CD12C80914701909117
:103F300048010196A0E0B0E080937701909378016A
:103F4000A0937901B0937A01C7018A0D9B1D0E944D
:103F5000DF032091770130917801409179015091F0
:103F60007A01DC010E940B33609377017093780132
:103F70008093790190937A0160936F01709370013F
:103F8000809371019093720187EF8093810121DD0D
:103F900080906F0190907001A0907101B0907201BB
:103FA00087E093E00E943334A8EEB3E0A81BB10988
:103FB00087FDB395A50194010E94153324E630E0F6
:103FC00040E050E00E94B83220936F0130937001BE
:103FD000409371015093720132CFCDB7DEB7ECE060
:103FE0000C94C2331F920F920FB60F9211248F932D
:103FF0009F93B59904C080916C01811109C0B59B54
:1040000010C080918600909187008A3F910548F406
:1040100080914701909148010196909348018093C7
:1040200047019F918F910F900FBE0F901F90189591
:104030001F920F920FB60F9211248F939F9310929D
:104040006C01B09B10C080918600909187008A3FE0
:10405000910548F480914701909148010196909311
:104060004801809347019F918F910F900FBE0F9051
:104070001F901895A0E0B0E0E0E4F0E20C94A633C5
:1040800088E893E1909314018093130190932601A3
:10409000809325018EEB80932101C8E0C8B988E1A7
:1040A00087B90E94D502C7B984E00E941103AC0110
:1040B0008B5C9840833F9140A0F481E08093300175
:1040C0002091250130912601AFEBB9E00E94F63234
:1040D0009A0140E050E00E94B832309314012093DE
:1040E0001301809113019091140190932601809304
:1040F00025018EE00E9415038EE00E94110390932B
:104100002A01809329010E948703D3DB88E0F82EDF
:10411000F8B8C9E0C7B985E185B9D1E0D4B980E084
:104120000E9411038C019AE0D92ED7B824E0B22E58
:10413000B4B881E00E941103080F191F3CE0E32E80
:10414000E7B840E1C42EC4B882E00E941103080F12
:10415000191F15B8C8B9C7B9D4B980E00E941103B6
:104160000E947903EC01D8B8D7B8B4B881E00E94B6
:1041700011030E947903C80FD91FE8B8E7B8C4B883
:1041800082E00E9411030E947903C80FD91FF7B87B
:10419000F8B814B820912501309126016901CC0CA2
:1041A000DD1CC20ED31EC01AD10ACC1ADD0AE12CC6
:1041B000F12C9801A0E9BAE10E94F632A70196011C
:1041C0000E94B83249015A0130932F0120932E01E9
:1041D0009E01A0E9BAE10E94F632A70196010E9471
:1041E000B83230932801209327012057354E309361
:1041F00011012093100180E7881A85EE980A9092A9
:104200000A018092090189E180932101CDB7DEB7CF
:10421000ECE00C94C233CF92DF92EF92FF920F93B7
:10422000CF93DF93F82EC62FD42F0E942D0688E05F
:1042300091E00E946C0616D26C2F8F2D0E94AE303A
:10424000C090B601D090B701E090B801F090B901EC
:104250008091150187FD05C0C114D104E104F1046A
:1042600021F084E091E00E946C068C2F0E942D06C4
:10427000C114D104E104F10431F00E94E7018091FE
:1042800052010E941E02DD2351F0809131018D30D8
:1042900030F490E0885D9C4F0E946C0602C00E9442
:1042A000C80680E00E94E706CD28CE28CF28D9F0A6
:1042B0006091B6017091B7018091B8019091B901F8
:1042C00003E028E447EF0E94230787E191E00E9482
:1042D0006C0689E393E00E943B3422E046E464EFFD
:1042E0000E940C081AC0809152010E941E02809107
:1042F00015018E3F94F481E391E00E946C06609179
:104300009D0170919E0180919F019091A00103E019
:1043100028E4409115010E9423078091AE019091FD
:10432000AF01A091B001B091B101892B8A2B8B2BE9
:10433000F1F080E00E94E7066091AE017091AF015C
:104340008091B0019091B10104E028E440E00E9426
:10435000230782E191E00E946C0623E040E26FEFC8
:104360008091B4019091B5010E940C0807C080E0D3
:104370000E94CE0680913401811102C00E94C806BD
:10438000DF91CF910F91FF90EF90DF90CF90089544
:10439000CF92DF92EF92FF920F93CF93C82F0E949C
:1043A0004A0680917F010E942D068DE491E00E94D3
:1043B0006C0690D360917F01809180010E9442043D
:1043C0007C0190937C0180937B01C0907D01D09013
:1043D0007E018AEFE8168FEFF80678F4C114D10455
:1043E00041F081E090E0C11102C080E090E0892BB3
:1043F00021F089E091E00E946C06809180010E948A
:104400002D06CC2359F0909131018DE0891B0E943B
:10441000E60589E690E00E946C0615C080917D015A
:1044200090917E01892B69F084E391E00E946C06F3
:1044300022E045E26FEF80917D0190917E010E9424
:104440000C080E94C8060E94580660917301709182
:104450007401809175019091760104E026E4409109
:1044600082010E9423078AEFE8168FEFF80668F4AE
:104470008CE391E00E946C0622E044EF6EEF8091A5
:104480007B0190917C010E940C080E94C806CC23FD
:1044900091F0CD2881F080E00E94E70685E391E06D
:1044A0000E946C0622E045E26FEF80917D019091C1
:1044B0007E010E940C080E94C806CF910F91FF90C8
:1044C000EF90DF90CF9008958F7051F488EC0E94A8
:1044D000DD020E9458060E947F1288EC0C94DD02D7
:1044E00008958F3021F490912B01913011F08F5F5E
:1044F000089580E00895CF9384E790E002D76AE0C2
:1045000080E00E94350682E393E00E946C06C0E0E2
:104510000E94AE0860E082E00E942A1A62E080E019
:104520000E942A1A0E944A0680916B01882329F072
:1045300041E062E080E06FDE0FC084E790E00E941F
:104540006C0682E393E00E946C060E9458068FE39B
:104550000E94F8050E94C8068C2FB6DF88EE93E013
:104560000E942B08811105C08C2FBBDFC82F8A3F0A
:1045700078F20E945206CF9108950F931F93CF9324
:10458000DF93C0E0D8E012EF0DE00E94AE0860E0DB
:1045900082E05FDAD0930F0180918101843FE1F4E2
:1045A00080916F0190917001A0917101B0917201A1
:1045B00084369105A105B10578F440E060E082E021
:1045C0000E943D2E60936F01709370018093710182
:1045D000909372011093810180918101823FACF030
:1045E0008093820180916F0190917001A09171017F
:1045F000B09172018093730190937401A09375013F
:10460000B093760181E0C4DE18C00E944A068DE6B0
:1046100090E00E946C0680913101902F981B892FA9
:104620000E94E60589E690E00E946C060E9458060A
:104630008FE30E94F8050E94C8068C2F45DF80EDAD
:1046400097E00E942B08811106C08C2F4ADFC82FEB
:104650008A3F08F49ACF0E945206DF91CF911F91B2
:104660000F910895A4E1B0E0E8E3F3E20C94A033E5
:1046700082E08093150180910F01813009F026C2FC
:1046800080916B01813009F021C20091520124E038
:10469000029FF0011124EE55FE4F80819181A2818D
:1046A000B381893032E59307A105B10508F00EC248
:1046B0004C0110E0802F123028F40E941402582E72
:1046C000492E03C00E9414022C01E42DF0E0ED56A7
:1046D000FE4F2490852D90E0FC01E057FE4FE491C1
:1046E00015B828E028B930EF83169104B8F410FD0E
:1046F00015C0A0900901B0900A0120E9A21A2AE190
:10470000B20A21E030E0052C02C0220F331F0A94C8
:10471000E2F7C9018860822987B908C0E4B9822D0F
:10472000886087B9A0900901B0900A01F4E13F2E9A
:10473000852D0E940D033C01842D0E94150334E059
:104740006316710410F4049718F03A943110F0CF06
:1047500080E480937B0094E590BF852D80648093F6
:104760007C0026E120937A00E12CF12C109280004D
:10477000109285001092840087E286BB0E94D002CE
:10478000312F3170332E10FD05C081E880938100F8
:1047900028B808C028B80E94D90280E286BB81E808
:1047A0008093810086B385FF13C098E098B910927A
:1047B000810020E226BB20918600309187006901AC
:1047C00040918400509185002417350770F014C083
:1047D00080FFE8CF31E036BBA89597012F5F3F4FB0
:1047E000790120353105F1F6E0CF80FF05C081E089
:1047F00086BB9FEFE91AF90A86E980937A00E4E123
:104800002E2E852D0E940D033C01842D0E94150340
:1048100024E06216710410F4049718F02A94211011
:10482000F0CF40902E0150902F01480C591C4A0C9B
:104830005B1C20910B0130910C0180E9A8168AE1E4
:10484000B806B0F491EEC916D104E104F10438F4CD
:10485000C60165E070E00E949132645101C069E1D7
:1048600028523109261B310967FD339586E009C0BE
:10487000C20160EB76E30E94913287E0860F285DEB
:104880003F4F90E0A0E0B0E08C159D05AE05BF0560
:1048900028F4C81AD90AEA0AFB0A03C0C12CD12C91
:1048A0007601332029F082E2C80ED11CE11CF11CF4
:1048B00090E5E916F10418F0C12CD12C76018BE0BB
:1048C000C816D104E104F10428F091E0C91AD10816
:1048D000E108F1084091250150912601612C712CCD
:1048E000A8EEB3E00E94F632698B7A8B8B8B9C8B9F
:1048F0009501DA010E94F632A30192010E94B832BA
:104900004427552769897A898B899C890E94B83206
:10491000C9010E941E04FC01A3019201C701B60156
:104920000E9476322B013C01CF01A0E0B0E073E0A1
:10493000880F991FAA1FBB1F7A95D1F7BC01CD0123
:104940006B5F7F4F8F4F9F4F2AE030E040E050E099
:104950000E94B832C301B2010E94B832E12FF0E0E8
:10496000A1E0B0E0AC0FBD1F84E0189FA00DB11D09
:1049700011242D933D934D935C931397311016C0E2
:104980009CE0C916D104E104F10480F03196EE0FE9
:10499000FF1FEE0FFF1F81E090E08C0F9D1FE80FBF
:1049A000F91F20833183428353831F5FA8951F5FC4
:1049B000143008F47FCE88E088B984E00E94DD02DC
:1049C00091E00D811E812F81388549815A816B814B
:1049D0007C81401751076207730708F090E00D854E
:1049E0001E852F85388949855A856B857C854017BA
:1049F00051076207730710F483E001C082E0E92FDA
:104A0000F0E0EE0FFF1FEE0FFF1F21E030E02C0F54
:104A10003D1FE20FF31FD90134E0839FA00DB11DAC
:104A200011240D911D912D913C9140815181628104
:104A30007381041715072607370708F0892FE1E06F
:104A4000F0E0EC0FFD1F94E0899FE00DF11D1124B3
:104A5000408151816281738140939D0150939E01F9
:104A600060939F017093A00180FD08C020EF821623
:104A7000910420F48BEF8093150117C08CEF809385
:104A80001501CB01BA016B5F7F4F8F4F9F4F2AE01B
:104A900030E040E050E00E94B83220939D01309316
:104AA0009E0140939F015093A00180919D019091A0
:104AB0009E01A0919F01B091A001892B8A2B8B2B85
:104AC00011F41092150188E087B914B86496E2E1F8
:104AD0000C94BC33A0E0B0E0E0E7F5E20C94A63320
:104AE00080917D0190917E01892B09F09EC0E0911B
:104AF0007F01F0E0ED56FE4FD491D860E091800147
:104B0000F0E0E057FE4FC4910E94591C88E088B93C
:104B100015B8D7B9C4B9809180010E9415038C01E2
:104B2000D09182018CE08D0F843008F07EC080919E
:104B3000730190917401A0917501B0917601D15FDC
:104B40002AE0822E912CA12CB12CBC01CD016B5FEF
:104B50007F4F8F4F9F4FA50194010E94B83269018A
:104B60007A01DA01C901DF5FD73079F729E8C21687
:104B700023E1D206E104F10408F057C0059708F4D8
:104B800054C0C5B9C4B9C0E0D0E0CC15DD0520F4EF
:104B90000E94D7022296F9CF14B815B8A89585E0DF
:104BA00080932101809180010E9415030817190745
:104BB00020F4EC01C01BD10B02C0C0E0D0E0A12C5E
:104BC000B12CAC14BD0430F40E94D7028FEFA81AA8
:104BD000B80AF7CF809180010E94150329E1209344
:104BE0002101A8950817190718F4801B910B02C022
:104BF00080E090E08C179D0788F49E01281B390BFC
:104C000069F0A4EFB1E00E94F6329E0140E050E06E
:104C10000E94B83230937E0120937D010E94591C7E
:104C200088E087B988B914B815B8CDB7DEB7ECE01D
:104C30000C94C2338B3008F08B50811103C08CE090
:104C400092E031C0813019F480EA91E02CC08230CA
:104C500019F483EE91E027C0833019F488ED91E0D8
:104C600022C0843019F48FE790E01DC0853019F41C
:104C700084E790E018C0863019F48DE690E013C008
:104C8000873019F487EC91E00EC0883019F488EB76
:104C900091E009C0893019F48AEF91E004C08A30AC
:104CA00021F48FEE91E00E946C060E94C8060C94DD
:104CB000450608950F93CF938FE790E022D3C0E08D
:104CC00010920F0160E082E046D580910F0188309C
:104CD000D9F50E944A0683E40E94F8050E94EB0180
:104CE00060917301709174018091750190917601CA
:104CF00003E026E4409182010E9423070E94C80637
:104D000060917F01809180010E94420490937C0118
:104D100080937B010E9458068DE391E00E946C060F
:104D200080917B0190917C018A3F2FEF920730F4B4
:104D300022E044EF6EEF0E940C0803C08FE30E9454
:104D4000F8050E94C8060AC00E944A068FE790E054
:104D50000E946C060E94C8060E94F3068C2FB4DBEA
:104D600088EE93E00E942B08811106C08C2FB9DBDE
:104D7000C82F8A3F08F4A4CFCF910F910895A4E0E3
:104D8000B0E0E5ECF6E20C94A03383EE91E0B9D20A
:104D900080E18093800010926F0081E090E090931A
:104DA00089008093880010928B0010928A0083E023
:104DB00086BB1092820088E08093810015B891E153
:104DC00094B988B989E087B9229A80938100312CFF
:104DD00020E0FAE02F2E31E03B83812C912C54010E
:104DE000839441E14C83832D90E00A966EE170E05C
:104DF0000E94A5326A83062F621781F00E944A063C
:104E000083EE91E00E946C0610E0101728F48EE209
:104E10000E94F8051F5FF9CF0E94C8065C815231DD
:104E2000B8F0C701B601A50194010E94B8326B0128
:104E30007C018B81622D0E948532A92FB0E0A501F3
:104E400094010E940B33C60ED71EE81EF91E0CC03B
:104E50008B81622D0E948532A92FB0E0A5019401BB
:104E60000E940B336B017C010E9458068B818211DA
:104E700009C081E09C81923108F480E0898381112E
:104E800007C001C019822C81263120F082E503C0C1
:104E90008CE301C08EE30E94F8054C81C701B60186
:104EA0000E942108C701B6017E5E85489F4FA70179
:104EB0009601220F331F441F551F0E94B832CA01AA
:104EC0004F3F510539F030F08DE08093810080E054
:104ED00094E01FC04034510530F08CE08093810095
:104EE00080E091E016C04830510530F08BE08093AF
:104EF000810080E490E00DC0892B31F09AE090931E
:104F0000810088E090E005C089E08093810081E025
:104F100090E02C01612C712CCA01B901A30192010E
:104F20000E94B832215031093093890020938800C3
:104F30008091880090918900892B31F421E030E044
:104F40003093890020938800009188001091890097
:104F500060E079E08DE390E0A30192010E94B83215
:104F6000A4E6B0E00E940B3398012F5F3F4F40E072
:104F700050E00E94B83229013A01A4E6B0E0A7014E
:104F800096010E940B33A3019201261B370B480B9D
:104F9000590BCA01B90102E228E44EEF0E9423072F
:104FA0008AE70E94F8050E94C80680ED97E00E94FB
:104FB0002B08882309F449C0883C60F010928100D6
:104FC0001092800088E087B914B822982496E2E114
:104FD0000C94BC33813598F139813323E9F04C814D
:104FE00041504C83C501B4012AE030E040E050E07C
:104FF0000E94B83249015A01C701B6010E94B83275
:10500000CA01B9012AE030E040E050E00E94B83225
:105010006B833AE0232E36C05C81563148F55F5FE2
:105020005C83563111F425E1222EAAE0B0E0A501FF
:1050300094010E940B334B015C011B8223C08B3017
:1050400018F08B818F5F8B83312C2B81822F90E026
:10505000622D70E06F5F7F4F0E94A5328B83832D9E
:1050600040DA382E3FEE381708F4A8CF2A81BBCE9D
:105070008AE0282E41E04B83812C912C54018394AB
:1050800051E15C83312CF2CFA0E0B0E0EAE4F8E239
:105090000C94A23388ED91E034D183E280938000B8
:1050A00010926F008FEF90E090938B0080938A00B6
:1050B00083E086BB1092820015B881E184B988E054
:1050C00088B989E087B9229A21E030E030938900DD
:1050D000209388008093810010E0C0E0D2E300E0DC
:1050E00084E6C82ED12CE12CF12C88248A9493E0FC
:1050F000992EA12CB12CDC17C1F1D43618F0CCE9D3
:10510000CD0F01C0CD2F2C2F30E0AFEFB3E00E94C8
:10511000F6326E5C7F4F8F4F9F4FA70196010E9422
:10512000B83229013A0130938B0020938A000E9403
:105130005806A8EEB3E0A30192010E940B33615020
:105140007E4F8F4F9F4FA50194010E94B832DA0124
:10515000C90125E045E26FEF0E940C080E94C806D5
:10516000093218F08CE30E94DD0280E496E00E9490
:105170002B08082F833868F088E087B910928100E7
:105180001092800014B82298CDB7DEB7E0E10C94FD
:10519000BE33833310F0DAE003C0882321F0D1E07E
:1051A000DC0F10E001C0DC2F812F9BD9182F803F2E
:1051B00008F4A1CFE1CF0F931F93CF93DF9387EC38
:1051C00091E09FD087E093E00E943334C82FD0E075
:1051D0000E9458060C2F0C2E000C110BC7FF0AC0A2
:1051E0000E94E90123E045E26FEF88279927801BA1
:1051F000910B04C023E045E26FEFC8010E940C0848
:105200000E94C80680E496E00E942B08882331F0B3
:10521000823880F48932C0F0CF5FD0E0C13514F01D
:10522000C55603C0CC3E0CF4CB598D2F5AD9D82F7C
:10523000803F70F26C2F87E093E00E944034DF9152
:10524000CF911F910F910895C150E7CF813019F48C
:1052500080E06CC00895823011F491CD08958330C0
:1052600011F412CF0895843011F424CD08958530BF
:1052700011F441C90895863021F40E9452067DC977
:105280000895873011F497CF0895883021F481E193
:105290000C942B090895893011F490C308958A3035
:1052A00011F40C94D1080895CF93DF9387E192E035
:1052B00028D0D0E0C0E00E9458068C2FBBDC80E4F0
:1052C0009FE10E942B088111D0E090912B01913039
:1052D00009F4D0E0823340F0CC2379F08C2FB6DF94
:1052E00087E192E00ED002C08111CF5FDF5FDE3632
:1052F00020F4CB3000F3CB50DECF80E0DF91CF91B4
:105300000895CF93DF93EC010E945206CE010E94D4
:105310006C06C4E682E00E94DD024F9902C0C150D3
:10532000C9F70E945806DF91CF910895A7E0B0E039
:10533000ECE9F9E20C94A03380EA91E0E2DF20EF9F
:105340002B8354980E94CC0214BC16BC109203010B
:1053500010920401109205011092060131E035BB54
:1053600030936E001092800083E19AE790938B0057
:1053700080938A00E1E0F0E0F0938900E0938800F8
:10538000109285001092840083B5816083BDF6E0A1
:10539000F6BBF0936F00789424E02093810032E311
:1053A00039831A820E94C502A8954F9902C061E014
:1053B0006A8385B581111FC015BC86B58093030132
:1053C0000E94520686E60E94F8050E94EB01609159
:1053D000030170910401809105019091060147E05D
:1053E0000E942108549880918100882351F08FE316
:1053F0000E94F80506C08981815089838111D2CF2E
:10540000DBCF1092810010926F0020910301309148
:1054100004014091050150910601DA01C90101978B
:10542000A109B109813F9048A105B10508F00BC160
:10543000AAE0B0E00E940B33DC01CB010896A11D6D
:10544000B11D23E0B695A795979587952A95D1F735
:10545000BC01660F771F70936601609365015498D5
:105460000E94CC0216BC109203011092040110920B
:10547000050110920601F1E0F5BBF0936E00109269
:1054800068011092670124E02BBB80916800846062
:1054900080936800789480916D00806180936D00A6
:1054A00019820E94C502A8954F9902C031E03A8343
:1054B00080916D0084FF05C069816F5F69836A3FD9
:1054C00081F715BC80916D008F7E80936D00809177
:1054D00068008B7F8093680086B5809303010E94EB
:1054E000580684E50E94F8050E94EB0160910301D3
:1054F000709104018091050190910601E091650190
:10550000F0916601FD83EC8328EA31E640E050E04B
:105510000E941B33EC81FD81612C712C43015F01E2
:10552000C12CD12CE12CF12C00E010E00E9444337E
:1055300049014F835E831B012C012C813D81203862
:10554000310530F007E023E745EFB4018F8117C044
:1055500084E6A82EB12CC12CD12CE12CF12C00E03A
:1055600010E094014F815E81C2010E944433F22F0A
:10557000E42F07E023E747EF6F2F732F8E2F952F30
:105580000E94230739813A3F21F48FE30E94F805F6
:105590005AC094014F815E81B101C201263E354B54
:1055A00041055105610571058105910509F008F472
:1055B0004AC00E944A0686E60E94F8050E94EB0156
:1055C00094014F815E81B101C20154012115FAECB1
:1055D0003F07FAE94F07FBE35F07610571058105A6
:1055E0009105A1F098F06A017101820120E030E09C
:1055F0004AE85DE568E775E483E691E00E9444339C
:10560000F22FE42F07E028E44AEF13C0CF80DE80BA
:105610007101820120E030E44AE750E163EF7AE56E
:1056200080E090E00E944433F22FE42F07E028E46A
:105630004DEF6F2F732F8E2F952F0E9423078AE730
:105640000E94F805549810926E0080ED97E00E9439
:105650002B082A81820F29F43B8131503B83311181
:1056600070CE2796E2E10C94BC331F920F920FB6D6
:105670000F9211248F939F93AF93BF93789480914F
:10568000030190910401A0910501B09106019F5F73
:10569000AF4FBF4F8093030190930401A093050186
:1056A000B0930601BF91AF919F918F910F900FBE64
:1056B0000F901F9018951F920F920FB60F92112402
:1056C0008F9386E085BD8F910F900FBE0F901F9036
:1056D00018951F920F920FB60F921124A895109251
:1056E000810015BC0F900FBE0F901F9018951F9250
:1056F0000F920FB60F9211242F933F938F939F9386
:105700008091670190916801892B11F481E085BD3A
:105710002091670130916801809165019091660147
:105720002817390730F015BC80916D008F7E80936B
:105730006D008091670190916801019690936801D6
:10574000809367019F918F913F912F910F900FBE92
:105750000F901F901895A0E0B0E0E0EBFBE2F9C7D6
:10576000182F062F862F90E0FC01ED56FE4FE49196
:10577000E860FE2EE12FF0E0E057FE4FC491FC01FF
:10578000E057FE4FD49110927C0110927B01109251
:105790006F0110927001109271011092720187EFE7
:1057A000809381010E94591C88E088B9F7B8D4B968
:1057B000D5B9812F0E9415037C01802F0E9415030B
:1057C000E81AF90A14B8109248011092470120E033
:1057D00030E05CE2C52EDD24D394DAE064E6B62E38
:1057E0008091470190914801843D904308F06FC03B
:1057F000C5B98091470190914801892B81F0F6014C
:10580000E21BF30B6091470170914801D29FC001E8
:10581000D39F900D112485D6E617F70750F4C4B92D
:105820000E94D00214B880914701909148010196DE
:1058300027C080914701909148010B97C0F060917B
:10584000470170914801B29EC001B39E900D112492
:1058500068D66E177F0758F4C4B90E94C50214B801
:1058600080914701909148018C599F4F09C0C4B95C
:105870000E94CB0214B880914701909148010A968A
:10588000909348018093470115B80E94D202A895D1
:10589000812F0E9415039C012E193F098091470119
:1058A000909148018B31964018F0253231057CF0FB
:1058B0002D3281E038070CF493CF8091470190910D
:1058C0004801019769F4253185E038074CF088E0FC
:1058D00087B988B914B815B8CDB7DEB7E9E055C7B0
:1058E0008091470190914801880F991FA0E0B0E096
:1058F0008093770190937801A0937901B0937A0116
:10590000C90168E270E021D6CB01820F931F0E948B
:10591000DF03209177013091780140917901509116
:105920007A01DC0178D660937701709378018093D7
:10593000790190937A0160936F0170937001809365
:105940007101909372010E94E91CC0906F01D09088
:105950007001E0907101F090720187E093E083D7CD
:10596000A8EEB3E0A81BB10987FDB395A701960186
:105970005CD620E137E240E050E0FAD520936F0199
:1059800030937001409371015093720188E08093CD
:105990000F0120937301309374014093750150936C
:1059A0007601809181018093820110927E01109294
:1059B0007D0100937F011093800189CFCF92DF9208
:1059C000FF920F931F93CF93DF930E94520685EFB0
:1059D00090E00E946C060E94580681EB90E00E94C5
:1059E0006C0685E093E03FD723E040E26EEF90E065
:1059F0000E940C0886E093E036D723E040E26EEF89
:105A000090E00E940C0884E093E02DD723E044EF5F
:105A10006EEF90E00E940C0888E99AE30E942B0840
:105A20000E9452068AEA90E00E946C0623E044EF4E
:105A30006FEF80912701909128010E940C080E942D
:105A4000580683EA90E00E946C0623E044EF6FEF73
:105A500080912E0190912F010E940C0888E99AE311
:105A60000E942B080E9452068FE990E00E946C066B
:105A700089E293E0F8D690E042970E94E6018AE23C
:105A800093E0F1D690E042970E94E60186E293E02F
:105A9000EAD690E023E046E464EF42970E940C08C7
:105AA0000E94580683E00E94E60585E293E0DBD67B
:105AB00090E042970E94E60188E293E0D4D690E01D
:105AC00042970E94E60184E293E0CDD690E023E085
:105AD00046E464EF42970E940C0888E99AE30E942A
