:100000008FC100009FC100009DC100009BC1000086
:1000100099C100000C94FF2795C100000C948C0836
:1000200091C100008FC100000C941B200C94E327A9
:100030000C94F1270C94F51F85C1000083C10000CA
:100040000C94BD277FC100007DC100007BC1000072
:1000500079C100000C948D0875C1000073C10000C7
:1000600071C100006FC10000E62FF72F903009F436
:100070009395E5B8C4B8B6EFB0937A00A5E0A09325
:100080007B00A8E0A093810010928000AFEFA093C6
:100090008500A0938400A6E0A093360010928B0008
:1000A00010928A00B3E0AFE3A91B51E0392F33303F
:1000B0002AF0A05CBC4F53953350F9CFB093890020
:1000C000A0938800A0917A00A4FFFCCFB6EBB09378
:1000D0007A00A2E0A0936F00A9E0A093810062E003
:1000E000A0E0A0937B00A1E0A09353008895E5B821
:1000F000C4B884FF1AC0A8E10000AA95F1F7EF93F5
:10010000FF93E7B1F8B1A4E0C2FCA2E0C0FCA1E01B
:10011000BF2FBA2BAE2BB8B904B9A7B9E7B9F8B954
:10012000FF91EF910BC00C947300ACE10000000054
:10013000AA95F1F725B9E5B8000004B9A0918400AB
:10014000A0918500B0918900A395AB1760F7A091AD
:100150007A00A4FFF3CFB6EBB0937A006A9571F7FB
:100160006091780070917900308186FD630F619312
:10017000308186FD731F80FF7193652F4A9579F753
:1001800010926F0010928100B6E0B0937A0008954B
:10019000010410090A0C4E6F742063616C6962726D
:1001A000617465642120466F72FF63616C696272DD
:1001B0006174696F6E20636C616D70207468652076
:1001C00033FF70696E7320746F67657468657220A1
:1001D000616E64207374617274207769746820742E
:1001E0006865FF6B65792E2041636B6E6F776C6578
:1001F000646765207468652073656C662D7465732B
:1002000074207769746820746865206B657920773D
:10021000697468696EFF32732E20446973636F6E70
:100220006E6563742070696E7320616674657220F8
:10023000746865FF6D657373616765202269736F0C
:100240006C617465FF50726F6265212220697320B2
:1002500073686F776E2E20536F66747761726520B6
:10026000616E6420646F63756D656E746174696F2F
:100270006E2069732061742073766E3A2F2F206D83
:10028000696B726F636F6E74726F6C6C65722E2027
:100290006E65742F7472616E736973746F722074FB
:1002A00065737465722000B903870358032E030732
:1002B00003E402C302A40288020000140029003EE5
:1002C000005300690080009700AE00C600DF00F810
:1002D0000012012D01490165018201A001BE01DE6C
:1002E00001FF012102440268028E02B502DE02090A
:1002F00003350364039403C803FE0337047304B493
:1003000004F90443059305EA054906B3062907AE37
:10031000074808FF08DE09FD0A930C480F991B00E7
:1003200011241FBECFEFD8E0DEBFCDBF21E0A0E09B
:10033000B1E001C01D92AA3BB207E1F70E941E0D79
:100340000C946A345DCE80FD5F9A80FF5F98579A67
:1003500000005D9A559A5C985B985A98599864FD8C
:100360005C9A549A65FD5B9A539A66FD5A9A529A22
:1003700067FD599A519A00005D9819D187FD10C008
:100380005D9A5C985B985A98599860FD5C9A61FDFB
:100390005B9A62FD5A9A63FD599A00005D9807C105
:1003A000089597FF09C08F939F938DE214D49F9176
:1003B0008F91909581959F4F67E171E04AE050E001
:1003C0000E94093481C40895ECDF01C0EADF3CC417
:1003D0000895EF92FF920F931F93182F062FF42E7C
:1003E00084E691E07CD4EE24E0913201F091330177
:1003F0008685E81611F4812F09C08485E81611F46A
:10040000802F04C08585E81611F48F2DE4D3E39482
:100410008E2D833049F71F910F91FF90EF90089533
:10042000682F80E092E0662309F491E0623009F4DD
:1004300081E008950F93082FE2EAF1E0880F880F1A
:10044000E80FF11D608171818281938164367105AD
:100450008105910568F42091150127FD09C0802FC1
:10046000DFDF692F0BD26EEF23E044EFD9D504C054
:100470004FEF04E024EFEAD4E7D30F9108958630DC
:1004800058F4E1E9F1E0E80FF11DE80FF11D80817A
:10049000918163E0D0D5D8C308951F93182F809120
:1004A0006B01882319F0D0D380E095D304D48BE579
:1004B00091E015D4812F82958F70E1DF812F8F70AD
:1004C000DEDF1F9108958091020182958F7019D00F
:1004D0008091020183701CD080910201DECF0895CB
:1004E000E5E8F1E0E80FF11D0895CF93F9DF908181
:1004F000C681C91710F405D001C013D0A5D3CF9180
:100500000895EEDF8F9380819CD38F9101C0089571
:100510008F9387E291E0E3D38F91E2DF868191C3ED
:100520000895DEDF8F9386818CD38F9101C008956B
:100530008F9383E291E0D3D38F91D2DF808181C307
:1005400008958F932F932AE080953B9A089410F496
:10055000439802C0439A000020D027D086952A9560
:10056000B1F72F918F91089503D002D001D000D020
:1005700000D003D002D001D000D000D003D002D0F0
:1005800001D000D000D0A89503D002D001D000D077
:1005900000D003D002D001D000D000D003D002D0D0
:1005A00001D000D000D003D002D001D000D0000094
:1005B000089590E0893C28F0885C48EC849FC00155
:1005C0001124009709F4089520918100277019F0F3
:1005D000DADF0197F6CF8130910519F002973EE3FB
:1005E00003C037E180E090E02091B200230F209318
:1005F000B30042E04093700027E023BF889526E0D7
:1006000023BF10927000A895DCCF8F9384E0D1DFD8
:1006100007C08F9382E0CDDF03C08F9381E0C9DFF5
:100620008F911F93182F106410937C00E12FE078B6
:1006300080912201E81759F0E0932201AEDF8EE9A4
:1006400080937A0083E083BF889582E083BF20E0B7
:1006500030E0A901E0E01FC08EE980937A0083E0DA
:1006600083BF889582E083BF6091780070917900A4
:10067000260F371F411D511DE43061F48091240184
:10068000803041F084E02030380720F417FD02C0AC
:100690001068CACFEF5F80912101E817E8F26091FE
:1006A00025017091260117FF04C06091230170910C
:1006B000240180E090E00E947F322FEF33E040E0A1
:1006C00050E00E94C132B901CA012091210130E0FD
:1006D00040E050E00E94C132C9011F9108959B0182
:1006E000281B390B50F0C9010895BC0180912501E8
:1006F000909126016817790718F4861B970B0895C7
:1007000080E090E008958BE293E00E943C34382F23
:100710008CE293E00E943C3420912901230F309118
:100720002A01381F20930B0130930C0183E0283EEF
:10073000380720F0C901885E934002C080E090E055
:1007400062E370E00E949A32683008F067E0E7EAFE
:10075000F2E0E60FF11DE60FF11D4591559125914F
:10076000359162E3681B421B530B649FC001659F78
:10077000900D1124499662E370E00E949A32620F54
:10078000731F70936E0160936D018DE293E00E9480
:100790003C34992787FD90956091290170912A0139
:1007A000860F971F909324018093230190936A01F1
:1007B000809369010895CF93DF9324E130E0B9017C
:1007C0000E949A32DC01E9EBF2E0E60FF71FE60F38
:1007D000F71FC591D591459155914C1B5D0B4A9FD3
:1007E000C0014B9F900D5A9F900D1124B9010E949A
:1007F0009A326C0F7D1FCB01DF91CF9108950F923C
:1008000021E08C32920710F48CE291E08C529140FE
:1008100069E170E00E949A3299E16B3210F0982FF2
:100820006BE2981BE9EAF2E0E60FF11DE60FF11D1D
:100830009F93CF010E943C34482F3196CF010E94F4
:100840003C34582F3196CF010E943C34282F3196EA
:10085000CF010E943C34382F6F91421B530B649F91
:10086000C001659F900D11240C9669E170E00E9413
:100870009A32620F731FCB010F900895AEE1B0E082
:10088000E4E4F4E00C94A933662EB82E860F898335
:1008900020910F01283059F5209173013091740196
:1008A000409175015091760157FD15C0109182015C
:1008B00009C0CA01B9012AE0312D412D512D0E94F4
:1008C000C1321F5F173FACF391F4243160E036076B
:1008D0004105510518F48FEF9FEF41C1173F39F4DF
:1008E00080E028178DE738074105410510F020E02A
:1008F0003DE72C8B3D8B26EDA22EE3E9F1E0E60DE2
:10090000F11D859188608E87E3E9F1E0EB0DF11D23
:10091000859188608F87E0E9F1E0E60DF11D759023
:10092000E0E9F1E0EB0DF11DC59090EC692AB92AE0
:1009300081E0E82EF12C012D112D8E831F82188667
:1009400019861A861B861C861D86188E198E1B8E8C
:100950001A8E0E945C1C88E088B960927C001DDEC3
:100960003F8537B975B874B852E05A95F1F7000071
:10097000000014B815B8DD243E8537B975B874B8D1
:1009800060927C00A895A0927A0080917A0086FD02
:10099000FCCF2090780030907900B0927C004C2DF4
:1009A000E2D02091780030917900288B398B3F85F7
:1009B00037B9C5B8C4B8A895B0927C00A0927A00A7
:1009C00080917A0086FDFCCF60917800709179006B
:1009D00060927C00472DC7D04091780050917900FB
:1009E00014B8CB01820D931DE80EF91E011D111DD7
:1009F000EA82FB820C831D8388899989840F951F65
:100A00002E813F8168857985280F391F611D711DF1
:100A10002E833F836887798722E32417150648F0E1
:100A200075B874B8C4DD14B815B8888D8395888FEF
:100A300007C0483E73E0570718F08A8D83958A8F68
:100A4000888999892817190658F03E8537B9C5B89D
:100A5000C4B8ADDD14B815B8898D8395898F07C0EA
:100A6000883E73E0970718F08B8D83958B8FD39416
:100A70005D2D5F3F49F05F3731F45C2D550FC50E9A
:100A8000572D550F750E78CF40902E0150902F01A5
:100A9000440C551C9201E4E0240D351DEA95E1F764
:100AA0002901570168016E807F8088849984209194
:100AB0000F012830C1F46C897D89812D912D6550FD
:100AC0007040804090409B01AC010E947F329B01AE
:100AD000AC0160E779E786E190E00E94C132621ADA
:100AE000730A840A950AA614B704C804D90428F422
:100AF0006A187B088C089D0803C06624772443018C
:100B0000B20180E090E09301A4010E947F32950140
:100B1000A6010E94C13283E093E07981870F911D85
:100B20000E943C34682EC90160E170E00E949A3254
:100B3000260F371FC9016816190618F4861991097E
:100B40000EC08C5E9F4F8615910538F48C899D8967
:100B5000843981E1980708F018D7812D912D6E9680
:100B6000E2E10C94C5331092810010928000109243
:100B70006F0010928B0010928A0057E056BB5FEF17
:100B8000509385005093840055E050937B0056EBC2
:100B900050937A0051E05093810058E25A95F1F752
:100BA000000045B944B955E05A95F1F7000014B872
:100BB00015B81092810080917A0084FFFCCF809359
:100BC0007A00089580913101809300018091A10104
:100BD000809301010895CF93C82F809131018F5FD9
:100BE000809331016C2F81E0AEDBD8DCC83050F44B
:100BF000C630C0F4C23071F0C33081F0C130E1F4CE
:100C00008EE30DC0C43E81F0C43F81F0CD32A1F42B
:100C10008DE213C08CE795DC8CE30FC08CE791DC90
:100C20008CE70BC082E509C085E707C08FE489DC4B
:100C300088E687DC8DE601C08C2F83DCA895CF91F8
:100C400008958F5CC8CF089580E2C5CF0895CF93F3
:100C5000C82F1C161CF4F8DFC150FBCFCF910895AC
:100C60008DE3B9CF0895682F80E06DDB97CC0895B0
:100C700060933101813011F480EC01C080E8860F6F
:100C8000F2CF08956091000180910101F1CF0895A4
:100C90008DE057DC8AE055CC08951092A10180E8E0
:100CA000E2DF10923101F4CF089581E0DCDF82E0D1
:100CB00080DCF3CF089581E08093A10180ECD3DF45
:100CC00010923101E5CF0895CF93DF93EC01899124
:100CD000882311F080DFFBCFDF91CF910895CF9370
:100CE000DF93EC01CE010E943C34982F9F7719F0DE
:100CF00072DF2196F7CFDF91CF9108950F931F9365
:100D0000CF93DF93EC0128968C010F5F1F4F0E9459
:100D10003C3461DFC8010C171D07B1F7DF91CF919B
:100D20001F910F91089584E144DC83E39CDF82E30B
:100D30009ADF82E03EDC80E296DF80E294DF8AE2A6
:100D400092DF88E090DF86E08EDF82E08CDFADDF2F
:100D500081E02FDC8CE087DF88E485DF84E590E0AC
:100D6000CDDF80E580DF8CE490E0C8DF88E57BDFC5
:100D70008CE590E0C3DF88E776DF84E490E0BEDFB7
:100D800080E771DF8CE390E0B9DF80E46CDF84E31F
:100D900090E0B4CF08959091310180E1891B57CF45
:100DA0000895CF93C82FF7DF8091A1018F5F8093C3
:100DB000A101823030F081E08093A1018093340161
:100DC00002C0109234016C2F8091A10151DF60DFCD
:100DD000CF910895E6DF7FD18091A101833008F0A3
:100DE00057CF08955ADFD7DF58CF089564DFD3DF98
:100DF00062CF08950F9385E791E071DF4091810103
:100E00004D3F64F460916F017091700180917101A8
:100E10009091720103E026E419D002C08FE3DBDE7B
:100E20000F91089590910E019F70923071F4D2DF6E
:100E300084E690E054DFE0913201F091330122E04A
:100E400044EF6FEF84819581EBC00895AEE0B0E090
:100E5000ECE2F7E00C94A933142F622E702E6B0194
:100E60007C010F7080E389838A838B838C838D83DD
:100E70008E83F7FE0BC08DE2AEDEF094E094D0944A
:100E8000C094C11CD11CE11CF11C04C075FE02C041
:100E90008BE2A1DE033071F0043099F00530C1F02F
:100EA0000630F1F0073021F174E6872E912CA12C49
:100EB000B12C25C068EE862E63E0962EA12CB12CB5
:100EC0001EC050E1852E57E2952EA12CB12C17C0E3
:100ED00040EA842E46E8942EAA24A394B12C0FC095
:100EE00030E4832E32E4932E3FE0A32EB12C07C0D2
:100EF00020E8822E26E9922E28E9A22EB12C9AE033
:100F0000292E312C412C512CC814D904EA04FB049D
:100F100070F0C701B6016B5F7F4F8F4F9F4FA201EB
:100F200091010E94C13269017A011F5FEDCF81E119
:100F3000810F9BEA899F812D1124A82EA69486E01B
:100F4000811B899F112D11241695912F990F190F2F
:100F5000811B182F4E0187E0880E911C2AE0A40106
:100F6000C701B6010E94E833F40101900020E9F7BF
:100F700031977F01E818F9089E2C6701DD24812F45
:100F800090E004968C159D0514F4A3941D5F8A2DA2
:100F900090E0845D9F4F0E943C34A82E74FE04C0F4
:100FA000901610F40E1901C000E08E2C811A800EEC
:100FB000181424F08EE20FDE012F0E19111102C059
:100FC00088EF882E912C10E0C00ED11EE82C082C42
:100FD000000CFF08892D90E08C159D05ACF4FC01F8
:100FE0003696E01BF10B81E090E08C0F9D1FE80F1F
:100FF000F91F8081F0DD9394892D90E08E159F0577
:1010000049F78EE2E8DDE6CFAA2011F08A2DE3DD74
:10101000662011F0862DDFDD2E96E2E10C94C533BB
:101020000F93362FBC0180E090E0022F242F432F36
:101030000DDF0F9108950F93062FBC0180E090E023
:1010400026E54DEF03DF0F9108950F93042F28E459
:1010500040E0FCDE8AE7BFDDF7DD0F910895EF92F7
:10106000FF920F931F93CF93DF93F82EE92EC5E6DF
:10107000489B05C0CF2DDE2D15E500E019C081E0AD
:1010800098DAC150A9F7F6CF82E093DA110F489BA6
:101090001F5F1F731F3379F4011103C0CF2DDE2DA5
:1010A00004E00F5F083C88F4A8951C161D0644F068
:1010B000D7FFEACF0AC01111F7CF0023A9F305C06B
:1010C0002A97B1F7CFEFDFEFF3CF802FCDB7DEB7A1
:1010D000E6E00C94D133CF9375DDC82F80913401B5
:1010E0008823C1F0813049F4C13039F46FE0C0DDAC
:1010F0008BE271DD6FE081E0BBDD80E49FE1AFDF7B
:10110000C13039F480913401813019F460E0B0DDF0
:1011100042DEB8DDCF9108951895189530910D01F4
:10112000A0913201B0913301E5E8F1E080E090E078
:101130008317B0F441911C962C911C97421719F01B
:101140004581241302C00196F3CFFC01EE0FFF1F6F
:10115000EF56FE4F20813181293E334008F4089537
:1011600084E1089510920F0110920D011092640114
:101170001092440110920E011092300110926B01F6
:10118000EFE4F1E0108211821282EFE6F1E0108AC2
:1011900082E0818B109215011786168614821582C3
:1011A0001682178281EF838B08958FE4CAD986E473
:1011B000C8D986E4C6D96CDD5E98D9D980E090E0C4
:1011C0004ECF08951F93CF93DF93162F98E097B9D2
:1011D00098B9E82FF0E0E057FE4F949195B9262F8B
:1011E000281BE20FF11D27FDFA95E491E92BE4B9E4
:1011F00018DAEC01812F15DAAC012091250130912C
:10120000260136952795C9010397BE01625E7F4F7F
:101210008617970778F4255E3F4FC217D30750F41F
:10122000BA01625E7F4F8617970720F481E042176C
:10123000530708F080E014B8DF91CF911F91089513
:10124000CF9361E080E0BEDFC82F62E080E0BADFCC
:10125000C80F62E081E0B6DF8C0FCF910895AFE058
:10126000B0E0E5E3F9E00C94A933B82E10920F0139
:10127000807FA9F4E5DF833009F083C316DD8BE3BB
:1012800092E02DDD18DD8FE3A6DC80ED97E0E7DE50
:101290008B30C0F40ADD85EF90E021DD72C306E9F2
:1012A00010E003DD8AEA91E01ADDCADF833021F421
:1012B0001F5F143010F006C010E088E27AD90150A8
:1012C00081F760C0F8DC0E943D2081EB90E007DDF3
:1012D00060E085E093E00E94493460E086E093E0BE
:1012E0000E94493460E084E093E00E94493460E069
:1012F00082E0C4DA6C019A83898361E082E0BEDA1D
:101300007C019C838B8360E081E0B8DA8C019E8352
:101310008D8323E040E26EEFC60182DE23E040E2EF
:101320006EEFC7017DDE23E044EF6EEFC80178DE8B
:101330002AE5C216D10424F08DE190E09A838983D6
:10134000698185E093E00E9449348AE5E816F1045A
:1013500024F08DE190E09C838B836B8186E093E0A9
:101360000E9449340A35110524F08DE190E09E83F6
:101370008D836D8184E093E00E94493482E0809304
:101380003401A9DEEB2DEF70EF87E13011F018E7A3
:101390003AC1EE24E394F12C78EB872E72ED972E70
:1013A00077E4A72EB12CE2E0DE2E08E0F0E23F2E3B
:1013B000C12C1E2D52E2252E19DD14DD84E50BDC37
:1013C000C7010E94DC0140DC1130B9F484EE90E0EA
:1013D00086DC64E08091290190912A012CDE6BDC8F
:1013E0008FED90E07CDC80916D0190916E010E9408
:1013F000DC018EEB80932101E2C0123079F520915F
:10140000250130912601A8E5BBE10E94FF3224ECC2
:1014100036E340E050E00E94E33229013A0181E0E6
:1014200085B9F5E0F4B980E0F0D8841995099A837C
:10143000898381E184B980E0E8D8841995099C8387
:101440008B8384E085B984E184B981E0DED8841996
:1014500095099E838D8389EC90E09EC0133041F501
:10146000D5B82AE024B980E0D0D820912501309168
:1014700026013695279538872F83821B930B9A83F5
:10148000898324B880E0C1D82F813885821B930BD3
:101490009C838B8305B988E284B981E0B6D82F811B
:1014A0003885821B930B9E838D838BEB90E074C0F9
:1014B000143039F48BE292E012DCC2DE81115EC29C
:1014C0006FC0153099F415B8D4B880E09ED89A83CF
:1014D000898304B981E099D89C838B8334B882E0F6
:1014E00094D89E838D838BED90E056C0163039F5ED
:1014F000D4B8D5B880E089D8209125013091260153
:10150000821B930B9A83898304B905B981E07DD846
:101510002091250130912601821B930B9C838B83A4
:1015200034B835B882E071D8209125013091260178
:10153000821B930B9E838D8387ED90E02DC0173027
:1015400069F52091250130912601A8E5BBE10E94B3
:10155000FF32A50194010E94C13229013A01D5B898
:10156000E3E0E4B980E051D8841995099A8389832E
:1015700005B9FCE0F4B981E048D8841995099C8349
:101580008B8335B820E324B982E03FD884199509CC
:101590009E838D8385EB90E0A2DB02C0113079F051
:1015A0008ADB89819A810E94D1014EDB8B819C81EB
:1015B0000E94D10149DB8D819E810E94D10107B932
:1015C00008B914B815B888EE93E049DD143011F06D
:1015D0008B3020F4C39484E0C812EECE88EE93E002
:1015E0003EDDEFEFEE1AFE0AF8E0EF16F10409F027
:1015F000DFCECDCEFBDB8BE292E071DB84E60E9496
:10160000D902115019F01CDE8111F4CF4EDB8AEAA9
:1016100090E065DB23E044EF6FEF8091270190912C
:101620002801FEDC48DB83EA90E059DB23E044EF4D
:101630006FEF80912E0190912F01F2DC82E0809378
:10164000340149DD10920F0130DB8FE990E047DB78
:1016500060E082E00E942C1D8090770190907801DC
:10166000A0907901B0907A019C868B8661E082E03F
:101670000E942C1DC0907701D0907801E0907901F4
:10168000F0907A01DE86CD8660E081E00E942C1D1C
:1016900000917701109178011E830D8362E080E054
:1016A0000E942C1D80917701909178019C838B83FF
:1016B00062E081E00E942C1D809177019091780179
:1016C0009A87898761E080E00E942C1D80917701D4
:1016D000909178019A8389832F85213021F0209180
:1016E0002D01223021F4029698878F8306C09887B7
:1016F0008F8310922D018CE0B6DAC4010E94E601BE
:10170000C6010E94E601B801110F880B990B03E096
:1017100026E444EF9BDB8E010F5F1F4F6E018FE0CD
:10172000C80ED11CF801819191910A97853B9105D2
:10173000C8F4CE16DF06B9F744E2E42E43E0F42EF7
:10174000F80160810E5F1F4F6E5EC7010E94493431
:10175000FFEFEF1AFF0AC016D10691F7ACDA87E95E
:1017600091E0BDDA82E080933401B5DC0E94242F41
:101770002F85213029F080912D01823009F0E9C0B8
:1017800094DA80E05EDA8DE491E0A9DA82E059DA59
:1017900084E290E0A4DA20E4F22E10E03AE0832E16
:1017A000912CA12CB12CDEDC10920F0160E082E0C4
:1017B0000E942C1D0091810120916F0130917001D8
:1017C0004091710150917201073F44F40F5FCA01CB
:1017D000B901A50194010E94C132F6CF00938101A5
:1017E00020936F0130937001409371015093720107
:1017F000073F09F098C0DA01C90180569109A10993
:10180000B10980399545A105B10508F08CC06091FA
:10181000830170918401CB018B569F4F8B32914095
:1018200008F081C01F5F153008F47EC08BE293E0A2
:101830000E9457343ADA8DE190E051DA80918301C9
:10184000909184010E94D1010E94830388E088B9AD
:1018500089E087B980E284B982E00E941103853D66
:101860009340D4F714B8109224011092230182E01F
:101870000E9411038C018091690190916A019093FB
:1018800024018093230182E00E9411037C01EE0C6D
:10189000FF1C109224011092230182E00E94110388
:1018A000A0906901B0906A01B0922401A092230136
:1018B000800F911F8C010E191F09FDD986E190E060
:1018C0000EDA8DE293E00E943C34D82E9501D801C7
:1018D0000E940E3397010F2C000C440B550B0E94F5
:1018E000E33213E01D0D120F612F8DE293E00E9491
:1018F0004934812F012E000C990B0E94D1010E94C6
:10190000830382E080933401E6DB10922D018CE0AA
:10191000AAD984E293E00E943C34682F87E293E0E6
:101920000E94493416C010E0C6D960916F017091D1
:101930007001809171019091720104E026E4409160
:10194000810184DA28DA88E20E94D902FA94F1103F
:101950002ACF89E18093210180E00E943932A5D904
:1019600085EF90E0BCD9A7D982E292E0B8D9109275
:101970000F0182E080933401AEDB03C082E0C82E09
:101980000FCE2F96E2E10C94C53380912D01811189
:101990000DC084E293E00E943C3461E0680F87E26E
:1019A00093E00E94493481E080932D010895EF92E5
:1019B000FF920F931F93CF93DF93D62FE82FF0E082
:1019C000ED56FE4FE491E8B9E860E7B915B8E62FA7
:1019D000F0E0E057FE4FE491E4B988E8E82E83E1B7
:1019E000F82ECE2FCC0F8D2F0E9405038C01C4B989
:1019F0008E159F0510F47801F6CF892BD1F08BE27C
:101A000091E06DD9D80120EA36E841E050E00E942B
:101A1000143328E937EB40E050E00E94C132DA018C
:101A2000C90122E041E467EFFBDA88E087B988B9B1
:101A300014B8CDB7DEB7E6E00C94D133A0E0B0E047
:101A4000E4E2FDE00C94A93380E48AB98BB9C6E8DE
:101A5000C0937A001092C1000E94B902D4B784B733
:101A6000877F84BF0FB6F894A89580916000886145
:101A700080936000109260000FBEC093640088E302
:101A800080937E001092B00087E08093B10078943C
:101A90004AD9D3FD25C580E185BFC0E0489906C07D
:101AA00082E00E94D902CF5FCC33C1F78FE59DE67B
:101AB0009093080180930701CF3130F080E69DE6D6
:101AC0009093080180930701109222010E943D200B
:101AD0009FE088E10FB6F894A895809360000FBE50
:101AE00090936000CC3399F038E0832E42E0942E3E
:101AF00050E1752E68E1662E75E5E72E71E0F72E50
:101B0000E0EF2E2EF3E33F2EA1E25A2E2CC00E94CE
:101B1000722B8111FCCFE8CF823009F42DC18330C4
:101B200009F457C186E892E0DAD88EE692E0D7D879
:101B3000C2D880910D01805D4ED88AE24CD887E2F0
:101B400091E0CDD884E592E0CAD8A2D880E49FE1A4
:101B500067B8489BFECF83DA823308F454C40E94EE
:101B6000722B8111FCCFA1D887B8FCDA0E943D20EE
:101B700094D8C8D480913001882369F09CD882E43D
:101B800091E0ADD863E0809125019091260153DA70
:101B900088EC0E94D9028FD80E945C1C80910F01B2
:101BA0008930F9F482D887E491E099D884D863E049
:101BB0008091490190914A013EDA46D863E08091D4
:101BC0004B0190914C0137DA3FD863E080914D0191
:101BD00090914E0130DA8AEC0E94D90281E13FDB1C
:101BE0000DC48CE040D887E293E00E943C34C82FBB
:101BF00084E293E00E943C34C81BC0932D01CC23A7
:101C000011F08EE030D880E02ADBF0D880EA92E054
:101C100066D883E00E94A1023BD842E061E080E008
:101C2000E5D442E060E081E0E1D441E062E080E0C0
:101C3000DDD441E060E082E0D9D440E062E081E0C0
:101C4000D5D440E061E082E0D1D480910F018111D0
:101C50000EC00E945C1C60E082E00E942C1D61E0CE
:101C600082E00E942C1D60E081E00E942C1D1DD8A6
:101C700085E391E0909333018093320180910F01CD
:101C8000863039F487E792E02AD841E467E483E4B8
:101C900008C0873099F480E892E021D842E367E4F5
:101CA00081E30E94E90107D88BE591E018D862E052
:101CB0008091390190913A01BED99EC3883081F458
:101CC00020917F018091800190E0820F911D029709
:101CD00019F40E94C12299C380E00E94CB218EC3D7
:101CE000833009F0B1C080910D01813009F014CF2B
:101CF00080E00E9475026091850180918B0157DE22
:101D000080E70E944D0240E06091850180918B0147
:101D10000E94462E60936F01709370018093710151
:101D20009093720180E056D860916F0170917001BC
:101D3000809171019091720102E026E442EF86D811
:101D40008DE20E94EB0541E06091850180918B015D
:101D50000E94462E60936F01709370018093710111
:101D60009093720126E442EF71D88DE191E00E94D8
:101D70006F060E94480695C282E30E94EB058DE043
:101D800091E00E946F069091850130918601931336
:101D900007C080E00E94910281E00E9488020CC08E
:101DA00020918B0180918C01281308C080E00E9453
:101DB000810281E00E94980281E0A3CF321304C027
:101DC00081E08093020133C09813ACCE709202017F
:101DD0002EC03092020180918B019091860189136F
:101DE00003C021E0209302014091850130918C01D4
:101DF000431302C07092020120918701821302C036
:101E00009092020180918D01481303C040E24093FB
:101E1000020132130FC022E120930201981761F0F2
:101E200083E30E94EB058DE091E00E946F060E9423
:101E3000630237C2981302C05092020180910201DE
:101E4000823208F06FCEECCF843009F04BC1809124
:101E50006401882309F45DC080914401882309F45A
:101E600058C060914101809143010E942C1DA090B7
:101E70006F01B0907001C0907101D0907201C0915B
:101E8000810160916301809161010E942C1D80910C
:101E9000350190913601A0913701B0913801409100
:101EA0005501509156016091570170915801843F3E
:101EB00021E09207A105B10538F4443F21E0520723
:101EC0006105710508F0C0EF443F5140610571059F
:101ED00038F4843F9140A105B10510F020928101B2
:101EE00080918101C8130EC080916F0190917001A3
:101EF000A0917101B0917201A816B906CA06DB065D
:101F000018F004C0C81714F48DE001C08CE0809371
:101F10000E0180916401882361F08091440188233F
:101F200041F0489906C090910E0181E08927809385
:101F30000E0180910E018C3051F48EE691E00E94EA
:101F40006F0680916401882389F080E70DC0F092CC
:101F50003301E09232018AE691E00E946F0680919F
:101F60004401882319F08EE60E94EB050E942406A6
:101F7000D5D8C82F8530E8F480910E018C3041F41B
:101F800081E02091420190914301921748F007C0EF
:101F900081E02091620190916301291708F080E0AF
:101FA000882319F087E291E002C083E291E00E9469
:101FB0006F0643E462E485E40E94E9010E945B0647
:101FC00088E791E00E946F06E0913201F0913301C1
:101FD000608171818281938103E020E04EEF0E9455
:101FE00026070E94240689E40E94EB05E091320155
:101FF000F0913301868197818031974270F085E6B8
:102000000E94EB05E0913201F091330186819781C6
:10201000805197429783868303C083E60E94EB0535
:102020000E943006E0913201F091330122E041E458
:102030006AEF868197810E94100880E00E94EA067C
:102040008FE591E00E946F06E0913201F09133013B
:1020500063E0848195810E941B08E0913201F09138
:10206000330180859185892B91F080E00E94EA06FA
:102070008FEE90E00E946F06E0913201F091330103
:1020800023E041E46AEF808591850E941008E09189
:102090003201F091330182859385892B91F080E0A4
:1020A0000E94EA0689EE90E00E946F06E0913201FC
:1020B000F091330123E041E46AEF828593850E9429
:1020C0001008C53008F09AC180E00E94EA068C2F03
:1020D0000E9475028BE591E00E946F068C2F0E9492
:1020E0003F028AC1853009F0F6C080910E0184FF5D
:1020F00008C080E50E94EB05F0923301E0923201C6
:1021000003C08EE40E94EB058DE20E94EB058091F6
:102110000E01C82FCF70C43041F481E891E00E94D5
:102120006F064FE367E48FE311C085FF02C084E4CC
:1021300001C085E40E94EB05C33009F0C9C18BE7FB
:1021400091E00E946F0643E467E485E40E94E901A0
:1021500080910E0185FD18C00E945B06E09132015E
:10216000F0913301668584850E942C1D0E94FA0639
:1021700086E591E00E946F06E0913201F091330113
:1021800062E0828593856EC08F70843071F080E04C
:102190000E94D106E0913201F09133016685848579
:1021A0000E942C1D0E94FA061AC0E0913201F091A3
:1021B000330184819581892B91F080E00E94D106C2
:1021C00080E090E00E946F06E0913201F0913301CF
:1021D00022E041E46AEF848195810E94100880E04A
:1021E0000E94EA0689E40E94EB050E943006E09115
:1021F0003201F091330122E041E46AEF8681978158
:102200000E94100881E591E00E946F06E091320182
:10221000F091330162E0828593850E941B08E09172
:102220003201F091330180859185803C9241E0F448
:1022300080E00E94EA0689E40E94EB050E943006D5
:1022400022E041E46BEF80E090E00E94100881E51D
:1022500091E00E946F06E0913201F091330162E05B
:10226000808591850E941B0880E00E941207C4307F
:1022700009F4C4C0C0E080910D01C81708F0BEC0C9
:1022800080E00E94EA068C2F0E9475028BE591E0A7
:102290000E946F068C2F0E943F020E944806CF5F6B
:1022A000EACF0E94480680916B01882309F4A6C0FA
:1022B00067B880910701909108010E942F0887B8A4
:1022C0000E94550680910D01805D0E94EB058DE016
:1022D00091E00E946F06D0916B01DD2309F47FC06D
:1022E000D130A1F4809152010E941002209152013C
:1022F000213039F420910D01211103C00E947E226A
:1023000084C040E0692F0E940E2178C09091520154
:102310008091530124E0829FD0011124AE55BE4F1D
:1023200024E0929FF0011124EE55FE4F0D911D9176
:102330002D913C91408151816281738140175107F9
:102340006207730710F4C82F01C0C92FD23021F4DF
:10235000890FC3E0C81B1CC08091540194E0899F81
:10236000D0011124AE55BE4F24E0C29FF0011124CC
:10237000EE55FE4F0D911D912D913C914081518163
:1023800062817381401751076207730708F4C82FF1
:10239000DC2FD695092D0C1BC11102C011E001C024
:1023A00012E08D2F0E94210688E091E00E946F06C6
:1023B000802F0E94210688E091E00E946F06812F05
:1023C0000E94210680E00E94D10681E0C11180E0D8
:1023D0000E941A02892D8D1B0E941A020FC08EE5E1
:1023E00092E00E946F060E945B068BE892E00E94DA
:1023F0006F0686E892E0A8CB0E944806809107010C
:1024000090910801A5CB8111AECB8CE00E943306E0
:1024100080912D01882309F458C0D2E000E010E03B
:1024200080E090E020E1422EFC01E00FF11FEA562F
:10243000FE4FC491C03209F4482E019681319105B6
:1024400099F7DD2341F08D2F8170B82ED0FD0AC0A1
:102450000E94550607C080E197E20E942F0888235A
:1024600091F32FC060E08B2D0E9438060E94480631
:10247000A895DF5FD170A12CB12CA414A0F4F801B1
:10248000EA0DFB1DEA56FE4FC491CC23D1F0CF3F9D
:1024900019F40E94240603C08C2F0E94EB059FEFC5
:1024A000A91AB90AEACFCC2361F0040D111DF80175
:1024B000EA56FE4FE491E03209F0B2CF0F5F1F4FB2
:1024C000AFCF80E197E20E942F080E94D5084BCB46
:1024D00086E891E00E946F0644E467E483E536CE27
:1024E0000E944D068BE492E00E946F068BEC0E94E6
:1024F000D9020E94D50880E090E0CDB7DEB7E2E1D6
:102500000C94C5330F931F93CF93DF9385E00E9404
:10251000110385E00E940D038C01EC01CC0FDD1F3F
:10252000CC0FDD1FCA56DF4F10922B01C43883E059
:10253000D80750F48BE891E00E946F060E94CB060A
:1025400081E080932B0126C08AE991E00E946F060A
:1025500062E0CE010E941B080E9424060A3F86E02A
:10256000180790F40333164060F484E992E00E9467
:102570006F060E94CB068DEC0E94D9020E94D508FE
:1025800009C08BE992E002C087E991E00E946F06E2
:102590000E94CB06DF91CF911F910F910895CF93A9
:1025A000DF93DC019C01261B370BE0E090E0B901D2
:1025B000690F711D672F7727920F260F371FBA01FA
:1025C0006E0F711D672F7727E40FEB01CC0FDD1F16
:1025D0004C0F5D1F6B3E28F4A217B30740F7CA01EA
:1025E00002C080E090E0DF91CF910895A8E1B0E0D3
:1025F000ECEFF2E10C94A933582E462E342EA89518
:10260000E62FF0E0E057FE4F24912C87220F2B8B12
:10261000339634913A8BE42FF0E0E057FE4F44912B
:102620004983339654915F83E82FF0E0E057FE4FE3
:102630002490822D880F8F87339694919B83986086
:102640009C8338603A8345B9AC84A42AA4B897B96E
:10265000EB81E8B9862F0E940D039E878D87FC854C
:10266000F4B9842D0E940D033C0114B80E94C202EB
:1026700015B8A4B8842D0E940D036D857E850E9437
:102680006F036C012A8127B988E088B93981322922
:102690003D8335B934B9852D0E940D030E94750321
:1026A0007C0115B80E94C20225B8852D0E940D0339
:1026B0000E9475038C0124B8852D0E940D030E9491
:1026C0007503B82E9987B801C7010E946F03803245
:1026D00041E0940730F450E2C51651E0D50608F405
:1026E000B6C5C00ED11EED85FE858E0F9F1FC81684
:1026F000D90620F41E870D876B2C79842091440124
:1027000030916401822F90E0830F911D02974CF06D
:10271000213009F09CC5909141018091610198138D
:1027200096C5F981FF0FF88FF229FB872D853E852D
:102730002437310508F4A5C1C901880F991F4496B3
:102740006816790608F09DC13C8137B94B8148B9BC
:102750008C85588D852B84B9842D0E9409038C01AA
:10276000832D0E9411037C01888D85B9842D0E94E0
:1027700009039801295A3D4F2817390708F0B4C0BA
:1027800088E088B99A8197B9EB85E4B9E5B9832DDA
:102790000E94090388349F4028F085E080930F0150
:1027A00082E204C085E080930F0184E280930E01F1
:1027B00010933A0100933901B701C8010E947A03CE
:1027C0009093400180933F019801A0E1B7E20E94FD
:1027D000FF322091090130910A0140E050E00E944F
:1027E000C13230933C0120933B018B89288D822B91
:1027F00084B915B83C8137B94B8148B9832D0E9403
:1028000011038C01842D0E940903B8010E947A03F0
:102810009C0190933E0180933D0190910E019F7029
:10282000943081F540913B0150913C0160913F0112
:1028300070914001C901B3DE009701F1588D54B980
:10284000EA898C81E82BE7B9842D0E9409038C0169
:1028500088E087B99801A0E1B7E20E94FF32209199
:102860002E0130912F0140E050E00E94C132A901B9
:10287000B80180913D0190913E0191DE90933A0123
:102880008093390180910E018F70843009F4D6C491
:1028900088E088B99F81EA819E2B97B924B8FD8191
:1028A000F5B9852D0E940D038C010E9475039E834E
:1028B0008D83842D0E941103E0901001F09011018E
:1028C000BC01C8010E947A039701DC010E94FF321B
:1028D000ED81FE819F0140E050E00E94C1323093C3
:1028E0003A0120933901AAC488E088B9FA81F7B97E
:1028F0002B8524B925B9852D0E9409038C01832DD0
:102900000E9411037C0125B8852D0E940903895A74
:102910009D4F8017910708F09AC43B8138B94C81CC
:1029200047B9832D0E940903813D934028F485E037
:1029300080930F0182E304C085E080930F0184E35C
:1029400080930E01B801C7010E947A039093600141
:1029500080935F01C8010E9475039C01A0E1B7E26A
:102960000E94FF32209110013091110140E050E0AF
:102970000E94C13230935C0120935B01F8E0FF2E8E
:10298000F8B88A8187B98F85988D892B84B985B9E4
:10299000852D0E9411038C01832D0E940903B8012B
:1029A0000E947A039C0190935E0180935D01909157
:1029B0000E019F709430A1F540915B0150915C0134
:1029C00060915F0170916001C901E9DD009721F11B
:1029D000E88DE5B9E4B9FB81F8B9EC812A81E22BF5
:1029E000E7B9852D0E9409030E9475038C01F7B891
:1029F0009C01A0E1B7E20E94FF32209127013091B3
:102A0000280140E050E00E94C132A901B801809144
:102A10005D0190915E01C3DD90935A01809359014D
:102A200080910E018F70843009F4E0C1EB813F8109
:102A3000E32BE8B94C81342B37B915B85D8154B913
:102A4000852D0E940D037C01842D0E9411039E831D
:102A50008D830091090110910A01BC01C7010E94F8
:102A60007A039801DC010E94FF32ED81FE819F0113
:102A700040E050E00E94C13230935A012093590146
:102A8000B5C188E088B9FA81F7B925B82B8524B992
:102A9000852D0E940D03998B888B0E947503988762
:102AA0008F83832D0E9411039A878987430134E61F
:102AB000830E911C4F815885B30184169506D8F476
:102AC000CA010E947A038C012091100130911101FA
:102AD00040E050E060E871EA83E09CE10E94C1328E
:102AE000D8010E941433E985FA858F0120E030E097
:102AF000A901980123C08F8198850E947A038C01D7
:102B0000FD81F4B9852D0E940D03998B888B0E945D
:102B1000750398878F83832D0E9411039A87898775
:102B2000BC01C8010E947A039C01A4E6B0E00E94A7
:102B3000FF32E985FA859F0140E050E00E94C132F2
:102B400069017A0114B815B8FB81F8B92C8127B94D
:102B500081E00E94D902A4B8842D0E940D03BC8498
:102B6000388DB32A8F359D4008F446C1B4B8842D02
:102B70000E9409038C01832D0E9411039D8B8C8B75
:102B8000852D0E9411039F8B8E8B8C899D89813DA1
:102B9000974008F4B7C084E080930F018DE08093E4
:102BA0000E016016710630F49801261937093E832C
:102BB0002D8302C01E830D838090090190900A012D
:102BC000A12CB12C60E871EA83E09CE1A50194019D
:102BD0000E94C132AD81BE810E941433EC89FD890F
:102BE0009F0140E050E00E94C1328091640188233F
:102BF00069F08091550190915601A0915701B091D3
:102C0000580182179307A407B50708F520935501CB
:102C10003093560140935701509358019801A0E119
:102C2000B7E20E94FF32A50194010E94C1323093A5
:102C30005C0120935B016C897D898E899F890E944C
:102C40007A0390935A018093590181E001C080E09A
:102C50004091550150915601609157017091580172
:102C60004C155D056E057F0538F5C0925501D09273
:102C70005601E0925701F092580169857A8588895A
:102C800099890E947A0390935A01809359012F8168
:102C90003885A0E1B7E20E94FF3220911001309107
:102CA000110140E050E00E94C132205F384D309366
:102CB0005C0120935B0103C0882309F4B1C3C09079
:102CC0000901D0900A01E12CF12C9301A0E1B7E2B7
:102CD0000E94FF32A70196010E94C13230935E012B
:102CE00020935D012D853E85A0E1B7E20E94FF3271
:102CF000A70196010E94C1323093600120935F01C9
:102D000081E08EC3F1E66F16710408F075C0013DD5
:102D100027E0120708F470C085E080930F0182E17C
:102D200080930E01C80186509F4F4E895F8984179A
:102D3000950720F483E180930E0119C08091090169
:102D400090910A019E838D83B8018E899F890E948C
:102D50007A032D813E81DC010E94FF32980140E020
:102D600050E00E94C13230935A01209359019A8950
:102D70009770E92E832D806480937C00EBE0FE2E1B
:102D8000E1E0F0E0FE83ED830FEF13E0A89561E052
:102D900089817AD5B4B886B18E21E9F3FC85F4B97E
:102DA00080917A00806480937A0080917A0086FD19
:102DB000FCCF80917800909179009801281B390B05
:102DC0004D815E81420F531F5E834D83FA94F11053
:102DD000DDCFCA01880F991F880F991F69E070E045
:102DE0000E949A327093600160935F018091640148
:102DF0008F5F8093640184CFB4B8588D55B9842D0A
:102E00000E940D036C01832D0E94110398878F830C
:102E10000E9475039A8789878C149D04A8F4B301D6
:102E2000C6010E947A038C012091090130910A01A8
:102E300040E050E060E871EA83E09CE10E94C1322A
:102E4000D8010E9414331FC0A4B8F981F5B9842DAC
:102E50000E940D036C01832D0E94110398878F83BC
:102E60000E9475039A878987C6016C147D0410F44B
:102E70008619970969857A850E947A039C01A4E6E0
:102E8000B0E00E94FF32E985FA859F0140E050E002
:102E90000E94C13249015A01FA81F7B988E088B924
:102EA0002D8124B925B9852D0E940D038C01832D18
:102EB0000E9411039A878987842D0E9411037C0147
:102EC000003331E1130708F0BFC125B8852D0E94FA
:102ED0000D03998B888B24B8852D0E940D039D8B43
:102EE0008C8B15B881E00E94D90225B8852D0E94EF
:102EF0000D034C895D894034564008F05DC0813334
:102F0000914108F459C0C8018A569F4F28893989D0
:102F10002817390708F050C086E080930F01809190
:102F200044018F5F80934401B70189859A850E948F
:102F30007A0390933A0180933901B701C8010E9446
:102F40007A039093400180933F0114B815B83A89F1
:102F500038B981E00E94D90224B8852D0E940D0362
:102F6000853F910508F06AC24D8144B9832D0E94C6
:102F70000D03813D934008F461C2852D0E94110329
:102F80008D3D924008F45AC224B8852D0E940D034D
:102F90008D3D924008F452C225B881E00E94D902CA
:102FA00015B8852D0E940D03853F910508F046C296
:102FB00087E080930F0142C22A8127B9398134B951
:102FC00035B981E00E94D9024B8544B945B9852DB8
:102FD0000E940D038C010E947503998B888B832DB1
:102FE0000E9411039E838D830E9475039A878987AF
:102FF000842D0E9411037C0189859A858E3F99401A
:1030000008F4B2C084E080930F018CE080930E013D
:10301000B301888999890E947A038C01209110015B
:103020003091110140E050E060E871EA83E09CE1FA
:103030000E94C132D8010E941433E985FA859F01AC
:1030400040E050E00E94C13280914401882369F041
:103050008091350190913601A0913701B0913801EE
:1030600082179307A407B50728F5209335013093FD
:1030700036014093370150933801B7018D819E810D
:103080000E947A0390933A01809339012889398903
:10309000A0E1B7E20E94FF322091100130911101AE
:1030A00040E050E00E94C13230933C0120933B014C
:1030B00081E001C080E0409135015091360160917E
:1030C000370170913801481559056A057B0528F5C7
:1030D0008092350190923601A0923701B09238016A
:1030E000B6018F8198850E947A0390933A0180936C
:1030F00039019601A0E1B7E20E94FF322091090157
:1031000030910A0140E050E00E94C132205F384D0A
:1031100030933C0120933B0103C0882309F48FC105
:103120009301A0E1B7E20E94FF32209109013091A2
:103130000A0140E050E00E94C13230933E012093EA
:103140003D012D853E85A0E1B7E20E94FF3220912E
:1031500010013091110140E050E00E94C1323093E3
:10316000400120933F016AC1F1E66F16710408F037
:103170006BC02889398929343D4008F465C085E051
:1031800080930F0182E080930E01C70186509F4F0C
:103190008017910720F483E080930E0117C0C09040
:1031A0001001D0901101B701C8010E947A03960165
:1031B000DC010E94FF32E889F9899F0140E050E07C
:1031C0000E94C13230933A01209339010B8107707C
:1031D000832D806480937C001BE021E030E03E83FF
:1031E0002D83A89560E089814FD33B8534B935B9EB
:1031F00086B18023E9F724B880917A0080648093B7
:103200007A0080917A0086FDFCCF809178009091C1
:1032100079004D815E81480F591F5E834D831150A7
:1032200001F7CA01880F991F880F991F69E070E0A4
:103230000E949A327093400160933F018091440153
:103240008F5F80934401FAC088E087B988B914B8C9
:1032500015B888E087B957EC651651E0750608F493
:10326000D0C088B98F8584B998EC9D83EC81FA81B0
:10327000EF2BEF832F8127B981E00E94D9023A8199
:1032800037B9852D0E941103429728F04D81415096
:103290004D834111EFCF5F8554B955B961E0898104
:1032A000F3D2852D0E940D036C018B8984B915B86A
:1032B0009C8197B9EB81E8B960E08981E5D2842DE2
:1032C0000E940D030E9475039E838D83FC85F4B9D3
:1032D000842D0E9411038C01852D0E940D03B801DD
:1032E0000E947A037C01842D0E9411038C01852D9C
:1032F0000E940D03B8010E947A0397012C5E3F4F94
:103300002817390708F480C088E088B92A8127B9CE
:1033100024B825B861E08981B7D2842D0E941103B9
:103320008C01852D0E940D03B8010E947A038C0147
:10333000E816F90658F43F8534B935B9852D0E9451
:103340000D039C01CD82DE82780110C04B8944B907
:1033500015B85C8157B98B8188B960E0898194D2B6
:10336000842D0E940D030E9475039C0198EEE916BE
:1033700093E0F90630F4C70164E670E00E949A32E7
:1033800006C0B70154E0769567955A95E1F7C701F5
:103390008759910989389141A0F52E153F0588F587
:1033A0008D819E8143E0969587954A95E1F7893C0A
:1033B000910510F088EC90E02D813E81820F931FE3
:1033C0008E159F05F0F462177307D8F480910F01F2
:1033D000833018F483E080930F0120910D01822F38
:1033E00090E0FC01EB57FE4F50824682880F991FF8
:1033F000FC01EF56FE4FF182E0822F5F20930D011A
:1034000003C0642D852D29D088E087B988B914B808
:1034100015B88EE20E94EB056896E2E10C94C53384
:10342000909164019F5F90936401882369F33092C7
:1034300061014092620150926301E6CF81E0909178
:1034400044019F5F909344018823F1F2309241013F
:103450005092420140924301D7CFA0E0B0E0E3E3B5
:10346000FAE10C94AB33A895462F50E0FA01E057EF
:10347000FE4F949033969491A82FB0E0FD01E05751
:10348000FE4FE4903396F4907091640120914401D2
:1034900030E0270F311D232B09F0F1C1A8952091B1
:1034A000130130911401220F331F220F331F309369
:1034B0002601209325012091690130916A01220F94
:1034C000331F220F331F30932401209323012EEB4F
:1034D00020932101C0910D01E5E8F1E070E04A0F71
:1034E0005B1F7C1759F02191A58130E02A0F311D17
:1034F0002417350709F456C07F5FF3CFD62FC82FA6
:1035000088E088B9E92FE860E7B9E4B8E5B8B8E140
:10351000BB2EC12CD12C8D2F0E940D03782E692E2D
:103520008C2F0E9411038C018C199D0997FF03C0F9
:10353000919581959109039734F0A895BA94680103
:10354000B110E9CF2FC0EE0C15B8E4B88C2F0E9453
:103550000D038135910530F5E5B88C2F0E940D03E0
:103560006C018F2D886087B9F8B815B894B8A8E1B8
:103570008A2EA12CB12C8C2F0E940D03582E492E7F
:103580008D2F0E9411037C018A199B0997FF03C0AC
:103590009195819591090397CCF0A8958A9457014C
:1035A0008110E9CF8091130190911401909326012D
:1035B000809325018091690190916A019093240183
:1035C0008093230189E18093210159C1990C94B81A
:1035D0008D2F0E940D035C01003C84E4180730F439
:1035E00025E8C21621E0D206E8F605C080EBC81631
:1035F0008DE4D806B8F624EAE21622E0F20608F0D6
:103600006CC088E9A816B10468F2C6010E9475036F
:10361000AC019601A8E9B7EB0E94FF329A0140E0A5
:1036200050E00E94C13229013A01C5010E94750390
:103630009C01A8E9B7EB0E94FF32850120E030E051
:10364000A90198010E94C13288E7C8168FE0D80608
:1036500080F4D301C201F2E0880F991FAA1FBB1F9B
:10366000FA95D1F7BC01CD01620F731F841F951F1E
:1036700014C088E7A8168FE0B806B0F4DA01C901D3
:10368000E2E0880F991FAA1FBB1FEA95D1F7BC0182
:10369000CD01640D751D861D971D25E030E040E0CD
:1036A00050E00E94C1320CC0D301C201820F931FAF
:1036B000A41FB51F9C01AD015695479537952795D9
:1036C000A4E6B0E00E9414332B013C012CEA420E28
:1036D0002DE0521E611C711C79C0672D762D0617D6
:1036E000170708F4B801C52CD42CCE14DF0408F455
:1036F00067010617170708F48B01A0901001B0901E
:103700001101C8010E947A039501DC010E94FF3279
:103710002B013C01C8010E9475039C0140E050E070
:10372000C301B2010E94C13229013A01CE14DF0463
:1037300008F47601A0900901B0900A01B701C60112
:103740000E947A039501DC010E94FF324701A12CFF
:10375000B12CA50194010E94C13208378FE01807EF
:1037600080F4D301C20162E0880F991FAA1FBB1F1A
:103770006A95D1F7BC01CD01620F731F841F951F9D
:1037800014C088E7E8168FE0F806C0F4DA01C90132
:1037900032E0880F991FAA1FBB1F3A95D1F7BC01D1
:1037A000CD01640D751D861D971D25E030E040E0BC
:1037B00050E00E94C13229013A0108C0420E531E56
:1037C000641E751E769467945794479410910F0168
:1037D000143008F0E7CEC1500C2F0D0F202F30E031
:1037E000E901C15BDE4F8881220F331F220F331F97
:1037F000F901EE55FE4F8823D9F1C080D180E280D7
:10380000F380A30192012C193D094E095F0957FF6E
:1038100007C050954095309521953F4F4F4F5F4FD2
:10382000AAE0B0E00E94143324E6C20ED11CE11CD1
:10383000F11CA7019601240D351D461D571D0E9440
:10384000C132232B242B252B09F0ACCE133019F0D9
:1038500081E080930F0182E0888380916B01E82FE3
:10386000F0E0EE5AFE4F00838F5F80936B019ACE9B
:10387000408251826282738281E0888393CECDB789
:10388000DEB7E0E10C94C733CF93C82FC09595B154
:1038900060FF02C0982B01C09C2395B994B1892B7D
:1038A00084B982E00E94D90284B18C2384B985B1A5
:1038B000C823C5B9CF910895A0E0B0E0E2E6FCE1ED
:1038C0000C94B1331AE008E08FE3C82E99E0D92EAA
:1038D00007B908B915B8C4B880E00E940D037C018F
:1038E00081E00E941103EC0182E00E9411039C011F
:1038F00080910F01893081F488E087B914B8F09283
:103900004A01E0924901D0934C01C0934B0130939E
:103910004E0120934D015BC084E0E816F10440F4B1
:10392000C430D10560F42430310530F399E00BC088
:1039300088EEE81683E0F80610F098E001C099E000
:10394000C83ED34008F49260283E334008F49460A7
:1039500097B9C0E0D0E0A89580E00E9405035C0123
:1039600081E00E9411037C0182E00E94110324E1A6
:10397000A21625E0B20608F4389A24E1E21625E002
:10398000F20608F4399A843125E0920708F43A9A4D
:1039900026E0A216B10430F426E0E216F10410F499
:1039A000069738F02196C43F81E0D807A1F6D0925F
:1039B0000F01E12CF12CEC16FD0631F00E94C8023B
:1039C0002FEFE21AF20AF7CF115009F081CFCDB7ED
:1039D000DEB7EAE00C94CD33CF92DF92EF92FF9204
:1039E000CF9320916F0130917001409171015091FE
:1039F0007201C09181018AE0C82ED12CE12CF12CFA
:103A00008C2FCF5F213A96E8390791E0490751059D
:103A100038F0CA01B901A70196010E94C132F0CF66
:103A200080938101A0912501B09126010E94143359
:103A300028E833E140E050E00E94C13220936F015A
:103A4000309370014093710150937201CF91FF90B8
:103A5000EF90DF90CF900895A0E0B0E0E2E3FDE1C9
:103A60000C94AF33982F990F980F2FEF260F920FCA
:103A700090934601E82FF0E0E057FE4F1491262F77
:103A800030E0F901E057FE4FF490F901ED56FE4F9A
:103A9000D49190910F01913009F4A2C220910D01AF
:103AA000A5E8B1E0FD0190E0921791F03681631333
:103AB0000BC03081831308C01C964D915C911D97FB
:103AC0004C3D554008F48CC29F5F31961296ECCF66
:103AD000062FC82FD86010927C0110927B0181EFD5
:103AE0008093810110926F01109270011092710108
:103AF00010927201E1DE88E088B9D7B9F4B8F5B860
:103B00008C2F0E9411035C01802F0E941103A81AC0
:103B1000B90A14B8109248011092470180914701E8
:103B200090914801843F914008F0AAC015B914B99A
:103B30000E94C20214B815B80E94C902A8958C2F21
:103B40000E9411037C01EA18FB08809147019091C3
:103B500048018E37910528F08BE4E816F1040CF447
:103B60008FC080914701909148012DE2E21621E03B
:103B7000F20634F401969093480180934701CECF2A
:103B8000892B09F0A4C185E1E81685E0F8060CF45C
:103B90009EC192DE15B88FE087B988E088B9F12E12
:103BA000FF0CF4B880E480937B0084E580BF8C2F09
:103BB000806480937C0086E180937A000E94CC022E
:103BC00010924801109247011092800010928500D7
:103BD0001092840087E286BB81E280936F0081E0CF
:103BE00080936C01F5B890910F018093810095301E
:103BF00009F04CC081E090E00C2E01C0880F0A94BF
:103C0000EAF780958F7087B9F89483B7817F83BF77
:103C100080916C01882389F083B7816083BF789499
:103C2000889583B78E7F83BFF894A89580914701CC
:103C3000909148018034964059F778941092810011
:103C4000E0908600F090870010926F0086E98093E4
:103C50007A0014B815B88C2F0E9411032091290105
:103C600030912A01821B930B0C96909384018093D0
:103C7000830180914701909148018032934040F048
:103C800088E087B988B914B815B8AAC1D7B9BCCF2C
:103C9000809147019091480190937A018093790136
:103CA000F0927801E092770184EF80938101809116
:103CB00047019091480182349105C8F060917701E5
:103CC000709178018091790190917A0124E630E039
:103CD00040E050E00E94C132209377013093780198
:103CE0004093790150937A0186EF80938101A091EE
:103CF0006D01B0916E012091770130917801409172
:103D0000790150917A010E94143320E233E040E0BF
:103D100050E00E94C13220937701309378014093A4
:103D2000790150937A0120936F0130937001409391
:103D300071015093720150DE80918101843F09F03E
:103D400071C0C0906F01D0907001E0907101F0904F
:103D5000720180EAC8168FE0D806E104F104C0F4CD
:103D6000A70196012C543F4F4F4F5F4F60EA7FE011
:103D700080E090E00E94C132C20ED31EE41EF51E08
:103D8000C0926F01D0927001E0927101F0927201C5
:103D9000C0906F01D0907001E0907101F0907201BD
:103DA000C114D10421E0E206F10428F4D092B30159
:103DB000C092B20106C081E090E09093B30180937D
:103DC000B2018091460190E08C5D9C4F0E943C3492
:103DD00090E0A0E0B0E0B701A6018C159D05AE050E
:103DE000BF0568F4481B590B6A0B7B0B40936F01AE
:103DF00050937001609371017093720113C04C5E17
:103E00005F4F6F4F7F4F481759076A077B0710F4C2
:103E10000E94C50C10926F011092700110927101F6
:103E20001092720114B980916F0190917001A0916C
:103E30007101B09172014997A105B10508F420CF35
:103E4000C12CD12C80910D01882329F080910F0184
:103E5000853009F015CF88E080930F0180918101B2
:103E6000909182019817C4F089130ACF80906F0156
:103E700090907001A0907101B09072014091730117
:103E80005091740160917501709176014815590542
:103E90006A057B0508F0F4CE40916F0150917001E6
:103EA000609171017091720140937301509374019C
:103EB000609375017093760180938201D0927E01A8
:103EC000C0927D0100937F01C0938001D9CEC701CC
:103ED000C12CD12C20914701309148012C153D0572
:103EE00060F00E94C3028C2F0E9411038A199B0963
:103EF000A8952FEFC21AD20AEDCF5701A81AB90A16
:103F00001A141B049CF439ECA316B1040CF0B8CEBF
:103F100028EE33E0D5010E940E3397010F2C000CE0
:103F2000440B550B0E94C132690102C0C12CD12C37
:103F300080914701909148010196A0E0B0E0809304
:103F4000770190937801A0937901B0937A01C7012A
:103F50008A0D9B1D0E94FF0320917701309178010B
:103F60004091790150917A01DC010E9414336093F1
:103F70007701709378018093790190937A0160932F
:103F80006F0170937001809371019093720187EFBC
:103F90008093810121DD80906F0190907001A0904D
:103FA0007101B090720187E093E00E943C34A8EE6A
:103FB000B3E0A81BB10987FDB395A50194010E9448
:103FC0001E3324E630E040E050E00E94C1322093EE
:103FD0006F0130937001409371015093720132CFA1
:103FE000CDB7DEB7ECE00C94CB331F920F920FB637
:103FF0000F9211248F939F93B59904C080916C0107
:10400000811109C0B59B10C08091860090918700F6
:104010008A3F910548F480914701909148010196AB
:1040200090934801809347019F918F910F900FBE0D
:104030000F901F9018951F920F920FB60F92112498
:104040008F939F9310926C01B09B10C0809186005B
:10405000909187008A3F910548F4809147019091A3
:104060004801019690934801809347019F918F9159
:104070000F900FBE0F901F901895A0E0B0E0E3E402
:10408000F0E20C94AF3388E893E1909314018093AD
:10409000130190932601809325018EEB80932101DB
:1040A000C8E0C8B988E187B90E94D102C7B984E0E5
:1040B0000E940D03AC018B5C9840833F9140A0F4BB
:1040C00081E0809330012091250130912601AFEBF2
:1040D000B9E00E94FF329A0140E050E00E94C132F4
:1040E00030931401209313018091130190911401D6
:1040F00090932601809325018EE00E9411038EE0AB
:104100000E940D0390932A01809329010E9483034A
:10411000D3DB88E0F82EF8B8C9E0C7B985E185B9E6
:10412000D1E0D4B980E00E940D038C019AE0D92E31
:10413000D7B824E0B22EB4B881E00E940D03080F76
:10414000191F3CE0E32EE7B840E1C42EC4B882E07A
:104150000E940D03080F191F15B8C8B9C7B9D4B903
:1041600080E00E940D030E947503EC01D8B8D7B817
:10417000B4B881E00E940D030E947503C80FD91FD7
:10418000E8B8E7B8C4B882E00E940D030E94750346
:10419000C80FD91FF7B8F8B814B82091250130918D
:1041A00026016901CC0CDD1CC20ED31EC01AD10A37
:1041B000CC1ADD0AE12CF12C9801A0E9BAE10E94A9
:1041C000FF32A70196010E94C13249015A01309382
:1041D0002F0120932E019E01A0E9BAE10E94FF3237
:1041E000A70196010E94C132309328012093270134
:1041F0002057354E309311012093100180E7881A23
:1042000085EE980A90920A018092090189E18093D3
:104210002101CDB7DEB7ECE00C94CB33CF92DF9227
:10422000EF92FF920F93CF93DF93F82EC62FD42FE8
:104230000E94210688E091E00E946F0617D26C2F41
:104240008F2D0E94B730C090B601D090B701E0909A
:10425000B801F090B9018091150187FD05C0C11426
:10426000D104E104F10421F084E091E00E946F06A2
:104270008C2F0E942106C114D104E104F10431F015
:104280000E942406809152010E941A02DD2351F0FF
:10429000809131018D3030F490E0885D9C4F0E9418
:1042A0006F0602C00E94CB0680E00E94EA06CD287D
:1042B000CE28CF28D9F06091B6017091B7018091D6
:1042C000B8019091B90103E028E447EF0E94260766
:1042D00087E191E00E946F0689E393E00E944434F5
:1042E00022E046E464EF0E9410081AC08091520157
:1042F0000E941A02809115018E3F94F481E391E0AF
:104300000E946F0660919D0170919E0180919F01B6
:104310009091A00103E028E4409115010E94260736
:104320008091AE019091AF01A091B001B091B10127
:10433000892B8A2B8B2BF1F080E00E94EA0660919A
:10434000AE017091AF018091B0019091B10104E094
:1043500028E440E00E94260782E191E00E946F0677
:1043600023E040E26FEF8091B4019091B5010E948B
:10437000100807C080E00E94D106809134018111AD
:1043800002C00E94CB06DF91CF910F91FF90EF907A
:10439000DF90CF900895CF92DF92EF92FF920F932C
:1043A000CF93C82F0E944D0680917F010E94210665
:1043B0008DE491E00E946F0691D360917F0180911E
:1043C00080010E943E047C0190937C0180937B01DC
:1043D000C0907D01D0907E018AEFE8168FEFF8063D
:1043E00078F4C114D10441F081E090E0C11102C021
:1043F00080E090E0892B21F089E091E00E946F0637
:10440000809180010E942106CC2359F090913101C6
:104410008DE0891B0E94270689E690E00E946F06C6
:1044200015C080917D0190917E01892B69F084E314
:1044300091E00E946F0622E045E26FEF80917D01DE
:1044400090917E010E9410080E94CB060E945B069C
:104450006091730170917401809175019091760162
:1044600004E026E4409182010E9426078AEFE816C4
:104470008FEFF80668F48CE391E00E946F0622E06B
:1044800044EF6EEF80917B0190917C010E941008B7
:104490000E94CB06CC2391F0CD2881F080E00E94D1
:1044A000EA0685E391E00E946F0622E045E26FEFA5
:1044B00080917D0190917E010E9410080E94CB06A0
:1044C000CF910F91FF90EF90DF90CF9008958F7074
:1044D00051F488EC0E94D9020E945B060E9482126D
:1044E00088EC0C94D90208958F3021F490912B011F
:1044F000913011F08F5F089580E00895CF9384E7A5
:1045000090E00E949F2B6AE080E00E94380682E3E0
:1045100093E00E946F06C0E00E94B20860E082E073
:104520000E942D1A62E080E00E942D1A0E944D0622
:1045300080916B01882329F041E062E080E06EDE2B
:104540000FC084E790E00E946F0682E393E00E9430
:104550006F060E945B068FE30E94EB050E94CB066C
:104560008C2FB5DF88EE93E00E942F08811105C0E3
:104570008C2FBADFC82F8A3F78F20E945506CF9160
:1045800008950F931F93CF93DF93C0E0D8E012EF0D
:104590000DE00E94B20860E082E05EDAD0930F0185
:1045A00080918101843FE1F480916F0190917001CD
:1045B000A0917101B091720184369105A105B105F8
:1045C00078F440E060E082E00E94462E60936F0144
:1045D0007093700180937101909372011093810127
:1045E00080918101823FACF08093820180916F01C4
:1045F00090917001A0917101B0917201809373014B
:1046000090937401A0937501B093760181E0C3DEAD
:1046100018C00E944D068DE690E00E946F068091C2
:104620003101902F981B892F0E94270689E690E080
:104630000E946F060E945B068FE30E94EB050E94BA
:10464000CB068C2F44DF80ED97E00E942F0881116C
:1046500006C08C2F49DFC82F8A3F08F49ACF0E94EA
:104660005506DF91CF911F910F910895A4E1B0E01D
:10467000ECE3F3E20C94A93382E08093150180917E
:104680000F01813009F026C280916B01813009F061
:1046900021C20091520124E0029FF0011124EE5545
:1046A000FE4F80819181A281B381893032E59307E9
:1046B000A105B10508F00EC24C0110E0802F1230A8
:1046C00028F40E941002582E492E03C00E941002A6
:1046D0002C01E42DF0E0ED56FE4F2490852D90E066
:1046E000FC01E057FE4FE49115B828E028B930EFFF
:1046F00083169104B8F410FD15C0A0900901B09084
:104700000A0120E9A21A2AE1B20A21E030E0052CD0
:1047100002C0220F331F0A94E2F7C9018860822980
:1047200087B908C0E4B9822D886087B9A0900901D3
:10473000B0900A01F4E13F2E852D0E9409033C014F
:10474000842D0E94110334E06316710410F4049761
:1047500018F03A943110F0CF80E480937B0094E518
:1047600090BF852D806480937C0026E120937A00A1
:10477000E12CF12C109280001092850010928400A0
:1047800087E286BB0E94CC02312F3170332E10FDA0
:1047900005C081E88093810028B808C028B80E942D
:1047A000D50280E286BB81E88093810086B385FFD5
:1047B00013C098E098B91092810020E226BB2091A6
:1047C00086003091870069014091840050918500F6
:1047D0002417350770F014C080FFE8CF31E036BBF6
:1047E000A89597012F5F3F4F790120353105F1F6EC
:1047F000E0CF80FF05C081E086BB9FEFE91AF90A90
:1048000086E980937A00E4E12E2E852D0E9409032B
:104810003C01842D0E94110324E06216710410F4FF
:10482000049718F02A942110F0CF40902E01509058
:104830002F01480C591C4A0C5B1C20910B01309134
:104840000C0180E9A8168AE1B806B0F491EEC91609
:10485000D104E104F10438F4C60165E070E00E947F
:104860009A32645101C069E128523109261B31098D
:1048700067FD339586E009C0C20160EB76E30E94D4
:104880009A3287E0860F285D3F4F90E0A0E0B0E0CD
:104890008C159D05AE05BF0528F4C81AD90AEA0A89
:1048A000FB0A03C0C12CD12C7601332029F082E20F
:1048B000C80ED11CE11CF11C90E5E916F10418F0BA
:1048C000C12CD12C76018BE0C816D104E104F1048F
:1048D00028F091E0C91AD108E108F10840912501BA
:1048E00050912601612C712CA8EEB3E00E94FF329A
:1048F000698B7A8B8B8B9C8B9501DA010E94FF323E
:10490000A30192010E94C1324427552769897A89FF
:104910008B899C890E94C132C9010E94DB03FC0182
:10492000A3019201C701B6010E947F322B013C0115
:10493000CF01A0E0B0E073E0880F991FAA1FBB1F52
:104940007A95D1F7BC01CD016B5F7F4F8F4F9F4FA1
:104950002AE030E040E050E00E94C132C301B201E1
:104960000E94C132E12FF0E0A1E0B0E0AC0FBD1F2A
:1049700084E0189FA00DB11D11242D933D934D93FC
:104980005C931397311016C09CE0C916D104E10462
:10499000F10480F03196EE0FFF1FEE0FFF1F81E054
:1049A00090E08C0F9D1FE80FF91F20833183428315
:1049B00053831F5FA8951F5F143008F47FCE88E0F3
:1049C00088B984E00E94D90291E00D811E812F8177
:1049D000388549815A816B817C8140175107620774
:1049E000730708F090E00D851E852F85388949856D
:1049F0005A856B857C85401751076207730710F451
:104A000083E001C082E0E92FF0E0EE0FFF1FEE0F20
:104A1000FF1F21E030E02C0F3D1FE20FF31FD901F3
:104A200034E0839FA00DB11D11240D911D912D9196
:104A30003C914081518162817381041715072607DB
:104A4000370708F0892FE1E0F0E0EC0FFD1F94E05C
:104A5000899FE00DF11D1124408151816281738194
:104A600040939D0150939E0160939F017093A0011C
:104A700080FD08C020EF8216910420F48BEF809314
:104A8000150117C08CEF80931501CB01BA016B5F44
:104A90007F4F8F4F9F4F2AE030E040E050E00E9470
:104AA000C13220939D0130939E0140939F0150930A
:104AB000A00180919D0190919E01A0919F01B091D4
:104AC000A001892B8A2B8B2B11F41092150188E001
:104AD00087B914B86496E2E10C94C533A0E0B0E065
:104AE000E4E7F5E20C94AF3380917D0190917E0173
:104AF000892B09F09EC0E0917F01F0E0ED56FE4F5A
:104B0000D491D860E0918001F0E0E057FE4FC4916D
:104B10000E945C1C88E088B915B8D7B9C4B98091E7
:104B200080010E9411038C01D09182018CE08D0FD5
:104B3000843008F07EC08091730190917401A0913F
:104B40007501B0917601D15F2AE0822E912CA12CC3
:104B5000B12CBC01CD016B5F7F4F8F4F9F4FA501E3
:104B600094010E94C13269017A01DA01C901DF5F53
:104B7000D73079F729E8C21623E1D206E104F1041F
:104B800008F057C0059708F454C0C5B9C4B9C0E0CF
:104B9000D0E0CC15DD0520F40E94D3022296F9CF97
:104BA00014B815B8A89585E0809321018091800103
:104BB0000E9411030817190720F4EC01C01BD10B48
:104BC00002C0C0E0D0E0A12CB12CAC14BD0430F484
:104BD0000E94D3028FEFA81AB80AF7CF8091800104
:104BE0000E94110329E120932101A89508171907B4
:104BF00018F4801B910B02C080E090E08C179D0799
:104C000088F49E01281B390B69F0A4EFB1E00E94E3
:104C1000FF329E0140E050E00E94C13230937E019D
:104C200020937D010E945C1C88E087B988B914B884
:104C300015B8CDB7DEB7ECE00C94CB33A7E0B0E00D
:104C4000E4E2F6E20C94A93380EA91E078D520EF13
:104C50002B8354980E94C80214BC16BC1092030106
:104C600010920401109205011092060131E035BB4B
:104C700030936E001092800083E19AE790938B004E
:104C800080938A00E1E0F0E0F0938900E0938800EF
:104C9000109285001092840083B5816083BDF6E098
:104CA000F6BBF0936F00789424E02093810032E308
:104CB00039831A820E94C102A895489902C061E016
:104CC0006A8385B581111FC015BC86B58093030129
:104CD0000E94550686E60E94EB050E943006609110
:104CE000030170910401809105019091060147E054
:104CF0000E942508549880918100882351F08FE309
:104D00000E94EB0506C08981815089838111D2CF31
:104D1000DBCF1092810010926F002091030130913F
:104D200004014091050150910601DA01C901019782
:104D3000A109B109813F9048A105B10508F00BC157
:104D4000AAE0B0E00E941433DC01CB010896A11D5B
:104D5000B11D23E0B695A795979587952A95D1F72C
:104D6000BC01660F771F70936601609365015498CC
:104D70000E94C80216BC1092030110920401109206
:104D8000050110920601F1E0F5BBF0936E00109260
:104D900068011092670124E02BBB80916800846059
:104DA00080936800789480916D00806180936D009D
:104DB00019820E94C102A895489902C031E03A8345
:104DC00080916D0084FF05C069816F5F69836A3FD0
:104DD00081F715BC80916D008F7E80936D0080916E
:104DE00068008B7F8093680086B5809303010E94E2
:104DF0005B0684E50E94EB050E943006609103018A
:104E0000709104018091050190910601E091650186
:104E1000F0916601FD83EC8328EA31E640E050E042
:104E20000E942433EC81FD81612C712C43015F01D0
:104E3000C12CD12CE12CF12C00E010E00E944D336C
:104E400049014F835E831B012C012C813D81203859
:104E5000310530F007E023E745EFB4018F8117C03B
:104E600084E6A82EB12CC12CD12CE12CF12C00E031
:104E700010E094014F815E81C2010E944D33F22FF8
:104E8000E42F07E023E747EF6F2F732F8E2F952F27
:104E90000E94260739813A3F21F48FE30E94EB05F7
:104EA0005AC094014F815E81B101C201263E354B4B
:104EB00041055105610571058105910509F008F469
:104EC0004AC00E944D0686E60E94EB050E9430060D
:104ED00094014F815E81B101C20154012115FAECA8
:104EE0003F07FAE94F07FBE35F076105710581059D
:104EF0009105A1F098F06A017101820120E030E093
:104F00004AE85DE568E775E483E691E00E944D3389
:104F1000F22FE42F07E028E44AEF13C0CF80DE80B1
:104F20007101820120E030E44AE750E163EF7AE565
:104F300080E090E00E944D33F22FE42F07E028E458
:104F40004DEF6F2F732F8E2F952F0E9426078AE724
:104F50000E94EB05549810926E0080ED97E00E943D
:104F60002F082A81820F29F43B8131503B83311174
:104F700070CE2796E2E10C94C5331F920F920FB6C4
:104F80000F9211248F939F93AF93BF937894809146
:104F9000030190910401A0910501B09106019F5F6A
:104FA000AF4FBF4F8093030190930401A09305017D
:104FB000B0930601BF91AF919F918F910F900FBE5B
:104FC0000F901F9018951F920F920FB60F921124F9
:104FD0008F9386E085BD8F910F900FBE0F901F902D
:104FE00018951F920F920FB60F921124A895109248
:104FF000810015BC0F900FBE0F901F9018951F9247
:105000000F920FB60F9211242F933F938F939F937C
:105010008091670190916801892B11F481E085BD31
:10502000209167013091680180916501909166013E
:105030002817390730F015BC80916D008F7E809362
:105040006D008091670190916801019690936801CD
:10505000809367019F918F913F912F910F900FBE89
:105060000F901F9018958B3008F08B50811103C062
:105070008CE092E031C0813019F480EA91E02CC0DC
:10508000823019F483EE91E027C0833019F488ED63
:1050900091E022C0843019F48FE790E01DC0853084
:1050A00019F484E790E018C0863019F48DE690E09A
:1050B00013C0873019F487EC91E00EC0883019F4E2
:1050C00088EB91E009C0893019F48AEF91E004C0BF
:1050D0008A3021F48FEE91E00E946F060E94CB0689
:1050E0000C94480608950F93CF938FE790E027D351
:1050F000C0E010920F0160E082E036D380910F0192
:105100008830D9F50E944D0683E40E94EB050E9489
:1051100030066091730170917401809175019091D6
:10512000760103E026E4409182010E9426070E9456
:10513000CB0660917F01809180010E943E04909394
:105140007C0180937B010E945B068DE391E00E94CD
:105150006F0680917B0190917C018A3F2FEF92072F
:1051600030F422E044EF6EEF0E94100803C08FE39A
:105170000E94EB050E94CB060AC00E944D068FE7F5
:1051800090E00E946F060E94CB060E94F6068C2FCC
:105190009ED988EE93E00E942F08811106C08C2FC3
:1051A000A3D9C82F8A3F08F4A4CFCF910F910895B7
:1051B000A4E0B0E0EEEDF8E20C94A93383EE91E0C8
:1051C000BED280E18093800010926F0081E090E079
:1051D000909389008093880010928B0010928A002F
:1051E00083E086BB1092820088E08093810015B82E
:1051F00091E194B988B989E087B9229A80938100B6
:10520000312C20E0FAE02F2E31E03B83812C912CD1
:105210005401839441E14C83832D90E00A966EE122
:1052200070E00E94AE326A83062F621781F00E94FE
:105230004D0683EE91E00E946F0610E0101728F4EF
:105240008EE20E94EB051F5FF9CF0E94CB065C81C6
:105250005231B8F0C701B601A50194010E94C132D4
:105260006B017C018B81622D0E948E32A92FB0E0F0
:10527000A50194010E941433C60ED71EE81EF91E24
:105280000CC08B81622D0E948E32A92FB0E0A50147
:1052900094010E9414336B017C010E945B068B8198
:1052A000821109C081E09C81923108F480E08983F9
:1052B000811107C001C019822C81263120F082E5BE
:1052C00003C08CE301C08EE30E94EB054C81C70153
:1052D000B6010E942508C701B6017E5E85489F4F32
:1052E000A7019601220F331F441F551F0E94C13290
:1052F000CA014F3F510539F030F08DE080938100B5
:1053000080E094E01FC04034510530F08CE0809381
:10531000810080E091E016C04830510530F08BE00C
:105320008093810080E490E00DC0892B31F09AE0F9
:105330009093810088E090E005C089E0809381002F
:1053400081E090E02C01612C712CCA01B901A3010C
:1053500092010E94C132215031093093890020937B
:1053600088008091880090918900892B31F421E098
:1053700030E03093890020938800009188001091DC
:10538000890060E079E08DE390E0A30192010E9442
:10539000C132A4E6B0E00E94143398012F5F3F4F62
:1053A00040E050E00E94C13229013A01A4E6B0E099
:1053B000A70196010E941433A3019201261B370B0B
:1053C000480B590BCA01B90102E228E44EEF0E94D2
:1053D00026078AE70E94EB050E94CB0680ED97E046
:1053E0000E942F08882309F449C0883C60F010927D
:1053F00081001092800088E087B914B82298249622
:10540000E2E10C94C533813598F139813323E9F019
:105410004C8141504C83C501B4012AE030E040E0AA
:1054200050E00E94C13249015A01C701B6010E94F1
:10543000C132CA01B9012AE030E040E050E00E94E8
:10544000C1326B833AE0232E36C05C81563148F579
:105450005F5F5C83563111F425E1222EAAE0B0E0B3
:10546000A50194010E9414334B015C011B8223C0EF
:105470008B3018F08B818F5F8B83312C2B81822FA7
:1054800090E0622D70E06F5F7F4F0E94AE328B83A1
:10549000832D2AD8382E3FEE381708F4A8CF2A815A
:1054A000BBCE8AE0282E41E04B83812C912C540105
:1054B000839451E15C83312CF2CFA0E0B0E0E3E6CD
:1054C000FAE20C94AB3388ED91E039D183E280931A
:1054D000800010926F008FEF90E090938B0080938C
:1054E0008A0083E086BB1092820015B881E184B9FE
:1054F00088E088B989E087B9229A21E030E03093CA
:105500008900209388008093810010E0C0E0D2E3FE
:1055100000E084E6C82ED12CE12CF12C88248A945A
:1055200093E0992EA12CB12CDC17C1F1D43618F0E0
:10553000CCE9CD0F01C0CD2F2C2F30E0AFEFB3E081
:105540000E94FF326E5C7F4F8F4F9F4FA7019601E5
:105550000E94C13229013A0130938B0020938A00C6
:105560000E945B06A8EEB3E0A30192010E941433EF
:1055700061507E4F8F4F9F4FA50194010E94C13211
:10558000DA01C90125E045E26FEF0E9410080E9490
:10559000CB06093218F08CE30E94D90280E496E031
:1055A0000E942F08082F833868F088E087B910928E
:1055B00081001092800014B82298CDB7DEB7E0E1E8
:1055C0000C94C733833310F0DAE003C0882321F052
:1055D000D1E0DC0F10E001C0DC2F812F0E9474228B
:1055E000182F803F08F4A0CFE0CF0F931F93CF93E5
:1055F000DF9387EC91E0A3D087E093E00E943C34F6
:10560000C82FD0E00E945B060C2F0C2E000C110B53
:10561000C7FF0BC08DE20E94EB0523E045E26FEF70
:1056200088279927801B910B04C023E045E26FEF88
:10563000C8010E9410080E94CB0680E496E00E94F8
:105640002F08882331F0823888F48932C8F0CF5F80
:10565000D0E0C13514F0C55603C0CC3E0CF4CB5994
:105660008D2F0E947422D82F803F60F26C2F87E02C
:1056700093E00E944934DF91CF911F910F910895DB
:10568000C150E6CF813019F480E0D8CA0895823045
:1056900011F48ECD0895833011F40FCF0895843026
:1056A00011F421CD0895853019F40C947E220895CB
:1056B000863029F40E9455060C94C1220895873043
:1056C00011F493CF0895883021F481E10C942F09CF
:1056D0000895893011F47BC108958A3011F40C9437
:1056E000D5080895CF93DF9387E192E028D0D0E0EA
:1056F000C0E00E945B068C2FB6DC80E49FE10E9434
:105700002F088111D0E090912B01913009F4D0E065
:10571000823340F0CC2379F08C2FB4DF87E192E024
:105720000ED002C08111CF5FDF5FDE3620F4CB30B8
:1057300000F3CB50DECF80E0DF91CF910895CF937F
:10574000DF93EC010E945506CE010E946F06C4E66D
:1057500082E00E94D902489902C0C150C9F70E9454
:105760005B06DF91CF910895A0E0B0E0E9EBFBE2AA
:10577000F9C7182F062F862F90E0FC01ED56FE4F3B
:10578000E491E860FE2EE12FF0E0E057FE4FC49177
:10579000FC01E057FE4FD49110927C0110927B01E6
:1057A00010926F01109270011092710110927201AB
:1057B00087EF809381010E945C1C88E088B9F7B86C
:1057C000D4B9D5B9812F0E9411037C01802F0E948A
:1057D0001103E81AF90A14B810924801109247010F
:1057E00020E030E05CE2C52EDD24D394DAE064E60C
:1057F000B62E8091470190914801843D904308F076
:105800006FC0C5B98091470190914801892B81F003
:10581000F601E21BF30B6091470170914801D29FA2
:10582000C001D39F900D112485D6E617F70750F4D9
:10583000C4B90E94CC0214B88091470190914801EC
:10584000019627C080914701909148010B97C0F0C5
:105850006091470170914801B29EC001B39E900DC6
:10586000112468D66E177F0758F4C4B90E94C1028C
:1058700014B880914701909148018C599F4F09C0FD
:10588000C4B90E94C70214B88091470190914801A1
:105890000A96909348018093470115B80E94CE0262
:1058A000A895812F0E9411039C012E193F09809118
:1058B0004701909148018B31964018F0253231050F
:1058C0007CF02D3281E038070CF493CF80914701B2
:1058D00090914801019769F4253185E038074CF033
:1058E00088E087B988B914B815B8CDB7DEB7E9E054
:1058F00055C78091470190914801880F991FA0E0FA
:10590000B0E08093770190937801A0937901B093F0
:105910007A01C90168E270E021D6CB01820F931FA2
:105920000E94FF0320917701309178014091790125
:1059300050917A01DC0178D66093770170937801F9
:105940008093790190937A0160936F017093700155
:1059500080937101909372010E94EC1CC0906F01C2
:10596000D0907001E0907101F090720187E093E0B7
:1059700083D7A8EEB3E0A81BB10987FDB395A701B3
:1059800096015CD620E137E240E050E0FAD5209362
:105990006F0130937001409371015093720188E060
:1059A00080930F012093730130937401409375012C
:1059B00050937601809181018093820110927E0143
:1059C00010927D0100937F011093800189CFCF92C7
:1059D000DF92FF920F931F93CF93DF930E945506A0
:1059E00085EF90E00E946F060E945B0681EB90E0DD
:1059F0000E946F0685E093E03FD723E040E26EEF20
:105A000090E00E94100886E093E036D723E040E261
:105A10006EEF90E00E94100884E093E02DD723E021
:105A200044EF6EEF90E00E94100888E99AE30E942C
:105A30002F080E9455068AEA90E00E946F0623E034
:105A400044EF6FEF80912701909128010E94100888
:105A50000E945B0683EA90E00E946F0623E044EF19
:105A60006FEF80912E0190912F010E94100888E91C
:105A70009AE30E942F080E9455068FE990E00E9449
:105A80006F0689E293E0F8D690E042970E94E60123
:105A90008AE293E0F1D690E042970E94E60186E226
:105AA00093E0EAD690E023E046E464EF42970E9458
:105AB00010080E945B0683E00E94270685E293E0BF
:105AC000DBD690E042970E94E60188E293E0D4D6CC
:105AD00090E042970E94E60184E293E0CDD690E008
