:100000004CC700005CC700005AC7000058C700007A
:1000100056C700000C943A2A52C700000C946F0E89
:100020004EC700004CC700000C9480200C941E2A80
:100030000C942C2A0C945A2042C7000040C70000A0
:100040000C94F8293CC700003AC7000038C70000EC
:1000500036C700000C94700E32C7000030C7000095
:100060002EC700002CC7000040094209460950096C
:100070004E094A094A094C0956095609E62FF72F35
:10008000903009F49395E5B8C4B8B6EFB0937A0010
:10009000A5E0A0937B00A8E0A093810010928000CF
:1000A000AFEFA0938500A0938400A6E0A093360054
:1000B00010928B0010928A00B3E0AFE3A91B51E0CD
:1000C000392F33302AF0A05CBC4F53953350F9CF11
:1000D000B0938900A0938800A0917A00A4FFFCCF80
:1000E000B6EBB0937A00A2E0A0936F00A9E0A093D2
:1000F000810062E0A0E0A0937B00A1E0A093530008
:100100008895E5B8C4B884FF1AC0A8E10000AA9594
:10011000F1F7EF93FF93E7B1F8B1A4E0C2FCA2E0DE
:10012000C0FCA1E0BF2FBA2BAE2BB8B904B9A7B958
:10013000E7B9F8B9FF91EF910BC00C947D00ACE1E9
:1001400000000000AA95F1F725B9E5B8000004B950
:10015000A0918400A0918500B0918900A395AB1770
:1001600060F7A0917A00A4FFF3CFB6EBB0937A00CA
:100170006A9571F76091780070917900308186FD01
:10018000630F6193308186FD731F80FF7193652F2C
:100190004A9579F710926F0010928100B6E0B09303
:1001A0007A000895EA01E301DC011008407E0101B4
:1001B0003E01013E01013E01017E40401800072042
:1001C000080808F80000002060A03FA0602002029C
:1001D00002FF0202021010101F00000005084281F9
:1001E0008989760508C2A19189860508000402FF65
:1001F0000010100508F878385888091003081C3ECC
:100200007F0D080710FF818181F1E1C1FF4040406F
:100210004743410D080110FFFF11080310F1E1C130
:100220004743410E0008202121122060E0E0E0FE5B
:10023000FE0402010001037F7F21C2C4C4C04094B8
:10024000840007030102040E080210FEFE7F7F00F7
:10025000000000110005202060E0E0E00201000144
:1002600003C2C4C4C0400703010204010410090A08
:100270000C4E6F742063616C6962726174656421F5
:1002800020466F72FF63616C6962726174696F6EA0
:1002900020636C616D70207468652033FF70696E37
:1002A0007320746F67657468657220616E64207373
:1002B00074617274207769746820746865FF6B6577
:1002C000792E2041636B6E6F776C6564676520746F
:1002D00068652073656C662D746573742077697426
:1002E0006820746865206B65792077697468696E29
:1002F000FF32732E20446973636F6E6E65637420E2
:1003000070696E7320616674657220746865FF6D34
:10031000657373616765202269736F6C617465FF33
:1003200050726F626521222069732073686F776E47
:100330002E20536F66747761726520616E6420644D
:100340006F63756D656E746174696F6E206973207B
:1003500061742073766E3A2F2F206D696B726F6314
:100360006F6E74726F6C6C65722E206E65742F7474
:1003700072616E736973746F7220746573746572E1
:100380002000B903870358032E030703E402C302C6
:10039000A40288020000140029003E0053006900F6
:1003A00080009700AE00C600DF00F80012012D01AA
:1003B000490165018201A001BE01DE01FF012102A8
:1003C000440268028E02B502DE02090335036403AB
:1003D0009403C803FE0337047304B404F90443050B
:1003E0009305EA054906B3062907AE074808FF0842
:1003F000DE09FD0A930C480F991B00000000000065
:10040000000000000000000000001E212121120059
:10041000807F0000007E4A4A4A340000000000004D
:10042000FC4020100804020100000001010101014C
:1004300001010101010101017F0488D0E0F0F80011
:1004400000000000000000000000000000000000AC
:1004500000FC94948400000102FC000000000000F5
:100460000000000000001E21212112E0C080402079
:10047000100F000000C020202040000000FC000001
:100480009E9E040303030302000000202023242572
:1004900025232020203F00007B7B2142840480C054
:1004A0000000000000000000000000000000FC94BC
:1004B000948400040607070708F00000000000000D
:1004C00000000000000000803F2121120C0000000D
:1004D00000FF000000F0084848C80000FE0000E7E8
:1004E000818181C1E1F181818101002020202121D0
:1004F000212020203F0000F340404041434740403E
:100500007FC00000000000000000000000000000AC
:10051000489494946400000000FF00000000000074
:10052000000000000000000000003F2121120C002C
:1005300000FF000000F0084848D000000000000064
:10054000FEFE040404040404040700080808090962
:100550000908087F3E1C08087F7F202020202020DB
:1005600020E000000000000000000000000000008B
:10057000000048949494640000FF00000000000014
:100580000000000000FF003C0A090A3C002231295B
:100590002926000082868E9EBEFEFEBEDEEFF6FAA3
:1005A000FEFEFAF2E2C282000000080808040279A6
:1005B00084A4A46800FF0000000000000000000008
:1005C00000000000000000000000000000FF00002C
:1005D000F0282428F0001008FC00000000000000B3
:1005E00000000000003C0A090A3C00FF0000000077
:1005F0000000000000000000000000000000040CEB
:100600001C3C7CFF7C3C1C0C040000000000009E95
:10061000A1A9A99A804323130B0703FF0303030334
:100620000303000000000000000000000078848444
:10063000844800FF000000000000000000F00804F3
:10064000E2110909090909090909091121C2040866
:1006500010E0000000010204040700000000008018
:10066000402010884423100804030000000000000C
:100670000000000000FE0100FC020100000000007C
:10068000000000000000000000000000007949495F
:100690007900000000000000000040F01010101071
:1006A000F040000101010101010040FCF8F0E040D0
:1006B000FC40000703010000070040FC40E0F0F8A8
:1006C000FC40000700000103070040FCFC0000FCA8
:1006D000FC4000070700000707007884820282843C
:1006E0007800060407000704060000FC000000F084
:1006F0001000100F02040207040008080808080888
:10070000F840020202020202030040F8080808084A
:10071000080800030202020202024040404040403A
:1007200040400000000000000000C0000080000009
:10073000800001020201020201020080000080002C
:1007400000C0020102020102020100F80402225468
:100750008800101F100202010000000000000000CD
:100760000000000000000000000000000000000089
:100770000000000000000000000000000000000079
:100780000000000000000000000000000000000069
:10079000000000000000000000000000F80402FE5D
:1007A00002000C06050404070C0002FE020002FE13
:1007B00002000407040404170C0002FE02F002FE0B
:1007C00002000407040704170C000000E01008F8FA
:1007D00008000C06050404070C00804028F8284097
:1007E00080000102141F1402010008F8080008F834
:1007F00008000407040404170C0008F808C008F8EF
:1008000008000407040704170C00001018FCFC186B
:1008100010000001010101010100001018FC181076
:1008200000000000000100000000000000FC0000CB
:10083000000000010101010100004040404050E083
:10084000400000000000010000002070A8202020CF
:1008500020000000000000000000E0000000000098
:10086000000001010101010101002070A82020A861
:100870007020000000000000000000C0F0FCF0C08C
:10088000000000000000000000000C3CFCFCFC3CF0
:100890000C0000000000000000000000000000004C
:1008A00000000000000000000000000000FE00004A
:1008B00000000000000D0000000000160E000016F1
:1008C0000E0000000000000000000010FC1010FCF2
:1008D00010000001070101070100001824FE4488F0
:1008E00000000003040F040300000C12924C2010BF
:1008F000080002010006090906008C5222528C40B1
:10090000C0000102040404010200000000160E00F1
:10091000000000000000000000000000F0080402D9
:10092000000000000102040800000000020408F0BA
:10093000000000000804020100004850E0FCE05004
:1009400048000201000700010200404040F840401A
:100950004000000000030000000000000000000054
:100960000000000000160E000000404040404040E3
:100970004000000000000000000000000000000037
:10098000000000000006060000000000804020106B
:1009900008000201000000000000F8040202020446
:1009A000F8000102040404020100000804FE020031
:1009B000000000040407040400000804028242242A
:1009C0001800040605040404060006020202122AA6
:1009D000C6000102040404020100C0A09E8080FC45
:1009E000800000000000040704003E120A0A0A12F8
:1009F000E6000102040404020100F8442212122459
:100A0000C00001020404040201000E02C262321A94
:100A10000E0000000700000000008854222222542B
:100A20008800010204040402010038448282422446
:100A3000F80000020404040201000000001818007D
:100A4000000000000006060000000000001818006A
:100A50000000000000160E0000000040A010080476
:100A600002000000000102040800002020202020D5
:100A7000200000010101010101000002040810A092
:100A80004000000804020100000018040282422411
:100A900018000000000D00000000F804D252E2042B
:100AA000F800010205050405040200F0080402FE36
:100AB0000200040705010507040002FE2222225459
:100AC00088000407040404020100F804020202047E
:100AD0008E00010204040402010002FE020202046C
:100AE000F800040704040402010002FE222272023C
:100AF0000E00040704040404070002FE222272020E
:100B00000E000407040400000000F80402C242447E
:100B1000DE00010204040201070002FE222022FE80
:100B200002000407040004070400000202FE02029F
:100B3000000000040407040400000000000202FE9C
:100B40000200000304040403000002FE6290080493
:100B50000200040704000106040002FE0200000077
:100B60000000040704040404070002FE38E038FE15
:100B70000200040704000407040002FE1A6082FE5B
:100B800002000407040005070400F804020202043E
:100B9000F800010204040402010002FE4242422461
:100BA00018000407040000000000F8040202820498
:100BB000F800010204040405020402FE42C24224B9
:100BC00018000407040001060400881422222244AD
:100BD0008E0001020404040201000E0202FE020261
:100BE0000E00000404070404000002FE020002FEDE
:100BF0000200000304040403000002FE820082FEDF
:100C00000200000003060300000002FE02F002FEE4
:100C10000200000107030701000002DE722072DEFD
:100C200002000407040004070400027EC280C27EA2
:100C3000020000000407040000000E824222120A93
:100C40000600070404040404070000FE0202020078
:100C50000000000704040400000008102040800089
:100C6000000000000000000102000000020202FE7D
:100C70000000000004040407000010080402040837
:100C80001000000000000000000000000000000054
:100C9000000008080808080808000000000E1600F8
:100CA0000000000000000000000090482828489044
:100CB000E000010204040402070002FE100808100C
:100CC000E0000407020404020100E0100808081014
:100CD00038000102040404020100E010080810FEBC
:100CE00002000102040402070400E0504848485092
:100CF0006000010204040402010020F82422020C16
:100D000000000407040400000000E010080810F8C8
:100D10000800000912120907000002FE100808F07E
:100D200000000407040004070400001016F6000089
:100D3000000000040407040400000000101616F070
:100D40000000000C1010100F000002FEC020100860
:100D50001800040704010204040000000202FE005F
:100D60000000000004040704040008F808F008F07C
:100D70000000040700070007040008F8201008F02E
:100D800000000407040004070400E010080808102D
:100D9000E000010204040402010008F81008081031
:100DA000E000101F120404020100E010080810F80F
:100DB000080001020404121F100008F8201008089F
:100DC0003000040704000000000010284848489044
:100DD000380001020404040201000808FE080800AB
:100DE0000000000003040404020008F8080008F8EA
:100DF0000800000304040207040008F8880088F8CB
:100E00000800000003060300000008F808C008F806
:100E10000800000306030603000008B8E040E0B83D
:100E20000800040700000007040008F8080008F89C
:100E3000080000091212110F00001808884828182D
:100E40000800060504040404060040B01C02020069
:100E500000000001070808000000000000FE00007C
:100E600000000000001F00000000000002021CB093
:100E7000400000000808070100000C0202040808F6
:100E800004020000000000000000C0201008102034
:100E9000C000010101010101010011241FBECFEFBB
:100EA000D8E0DEBFCDBF21E0A0E0B1E001C01D92DF
:100EB000A63CB207E1F70E94B8350C949C3DA0C84F
:100EC0005D98559A80FD599A80FF5998519A539A86
:100ED0005A9867FD5B9A67FF5B985A9A5A9866FD25
:100EE0005B9A66FF5B985A9A5A9865FD5B9A65FF14
:100EF0005B985A9A5A9864FD5B9A64FF5B985A9A79
:100F00005A9863FD5B9A63FF5B985A9A5A9862FD00
:100F10005B9A62FF5B985A9A5A9861FD5B9A61FFEF
:100F20005B985A9A5A9860FD5B9A60FF5B985A9A50
:100F30005D9A5A985B9808956093460180930401E6
:100F400086958093AD01660F660F660F60930F0163
:100F5000089580914601809301018091AD018093B5
:100F6000030108958091030160910101880FE4CF8E
:100F70000895CF93C82F692F81E0A2DF6C2F81E005
:100F80009FDFCF910895682F80E09ACF08958EEA71
:100F9000FADF85EAF8CF08958DE06BD48AE069C462
:100FA00008951092AD0160E080E0C6DFF5CF0895AE
:100FB000CF93DF93C0E080E1E6DF80E0E4DF8C2FB9
:100FC000806BE1DFD4E860E081E07ADFD150D9F7CF
:100FD000CF5FC83081F7E5DFDF91CF910895589852
:100FE0005A985B985D98509A529A539A559A72D42F
:100FF0005D9A559A5998519A84E173D4589A84E12C
:1010000070D48EEAC0DF82EEBEDF82EABCDF80EA07
:10101000BADF80ECB8DF8FE2B6DF84E2B4DF81E8CC
:10102000B2DF8AE293E00E946E3D8F73ACDF80E412
:10103000AADF84EAA8DF86EAA6DFBADF8FEAA3DFA9
:1010400060E080E079CF089581E08093AD0160E0B9
:1010500082E072DFA1CF089582E08093AD0160E06D
:1010600084E06ADF99CF089583E08093AD0160E06A
:1010700086E062DF91CF08950895582F28E030E090
:1010800090E841E080E0652F642309F0892B440F4C
:10109000969521503109B9F70895A0E0B0E0E3E555
:1010A000F8E00C94DC3CEC01302FC02ED12CC601B2
:1010B000860F911D813891050CF06DC0F12CE40E66
:1010C000F11C81E4E816F1040CF065C0742E7694EE
:1010D00076947694E1E0EE1AF10883E0F594E794D3
:1010E0008A95E1F7F22FF2704F2E21FF0DC0C70154
:1010F0009927871991098C9DA0018D9D500D9C9D6C
:10110000500D1124C40FD51F1E2D183008F017E004
:1011100004E8031B061B802F82958F708061382E98
:1011200087E0682E67180F702170522E171568F12E
:10113000862D806B28DF832D26DF802F24DF5E0144
:10114000AC0CBD1CC5014E01C817D907A9F09C0104
:10115000215031097901511002C0F90101C0F40197
:101160008491411001C089DF682F81E0A9DEC701A9
:10117000FFEF8F1A9F0AE8CF442019F05E01AC18E8
:10118000BD0873946A94E501D1CF9091040187E082
:10119000891B806BF8DECDB7DEB7E1E10C94F83C3B
:1011A000EF920F93482F282F2F7380E6289F9001EE
:1011B0001124C90186509C4F46FF02C028E001C09F
:1011C00028E42093100147FF03C01092000108C0DB
:1011D00020E220930001209110012D5E2093100148
:1011E00020E2E22E08E120E0409100016091100130
:1011F00054DF0F91EF900895EF920F93262FFC018B
:10120000649131964491319604913196E4903091F5
:101210000001430F30911001630F04963EDF0F91E0
:10122000EF90089560E0E8CF0895EF920F93CF9389
:10123000C82F809146018F5F809346014091040141
:10124000440F440F440F20E1C29FC001112420E14C
:10125000E22E08E020E060910F018656994F1DDFD5
:1012600080910F01885F80930F018C2F90E0FC012B
:101270003197EA30F105E0F4EC5CFF4F0C942B3C25
:101280008EE305C08CE7F5D28CE313C08CE7F1D276
:101290008CE70FC082E50DC08DE20BC085E709C069
:1012A0008FE4E7D288E6E5D28DE603C08CE401C086
:1012B0008C2FDFD2A895CF910F91EF9008958F5C7E
:1012C000B4CF089580E2B1CF0895CF93C82F1C16F4
:1012D0001CF4F8DFC150FBCFCF91089590914601E7
:1012E00080E1891BF2CF0895CF93C82FF7DF80915B
:1012F000AD018F5F8093AD01843038F083E080933F
:10130000AD0181E08093490102C0109249018091B2
:10131000AD016C2F880F10DE3FDECF910895E4DF22
:1013200039D48091AD01833008F036CE089539DE8E
:10133000D5DF37CE089588DED1DF86CE08958DE3E0
:1013400074CF0895CF93DF93EC018991882311F036
:101350006CDFFBCFDF91CF910895CF93DF93EC014A
:10136000FE018491982F9F7719F05FDF2196F8CFC7
:10137000DF91CF910895CF93DF93EC01CE010E94CE
:101380006E3D982F9F7719F050DF2196F7CFDF91B0
:10139000CF910895EF920F93FC0104913196E49060
:1013A00002967BDE0F91EF9008950F9380E991E014
:1013B000E2DF409191014D3F64F460917F017091B3
:1013C0008001809181019091820103E026E417D190
:1013D00002C08FE32ADF0F910895909124019F703E
:1013E000923071F49CDF84E790E0C5DFE091470123
:1013F000F091480122E044E06FEF84819581E9C1DA
:10140000089597FF09C08F939F938DE20EDF9F9100
:101410008F91909581959F4F6CE271E04AE050E08A
:101420000E943B3D8FCF0895ECDF01C0EADF4ACF39
:101430000895EF92FF920F931F93182F062FF42E0B
:1014400082E791E098DFEE24E0914701F0914801B6
:101450008685E81611F4812F09C08485E81611F4F9
:10146000802F04C08585E81611F48F2DDEDEE3940D
:101470008E2D833049F71F910F91FF90EF900895C3
:10148000EF92FF920F931F93182F062FF42E80E0F8
:1014900046DF88E791E06FDFEE248E2D10DF4FDF0F
:1014A000E0914701F09148018685E81611F4812FFB
:1014B00009C08485E81611F4802F04C08585E816DC
:1014C00011F48F2DB2DEFEDEE3948E2D833029F7EA
:1014D0001F910F91FF90EF900895682F80E092E0A8
:1014E000662309F491E0623009F481E008950F93D6
:1014F000082FEEEAF1E0880F880FE80FF11D6081F8
:10150000718182819381643671058105910570F442
:101510002091020127FD0AC0802FDFDF692F0E9482
:10152000F5256EEF23E044E054D104C04FEF04E012
:1015300024E065D0C7DE0F910895863058F4E1EAC3
:10154000F1E0E80FF11DE80FF11D8081918163E06A
:101550004BD1B8CE08951F93182F80917A0188231C
:1015600019F0B0DE80E061DE6FDD89E691E003DF37
:10157000812F82958F70E1DF812F8F70DEDF1F91C9
:1015800008958091110182958F7019D08091110179
:1015900083701CD080911101DECF0895E5E9F1E060
:1015A000E80FF11D0895CF93F9DF9081C681C91727
:1015B00010F405D001C013D085DECF910895EEDF81
:1015C0008F9380817CDE8F9101C008958F9387E394
:1015D00091E0D1DE8F91E2DF868171CE0895DEDF6A
:1015E0008F9386816CDE8F9101C008958F9383E382
:1015F00091E0C1DE8F91D2DF808161CE0895AEE0AF
:10160000B0E0E5E0FBE00C94DB3C142F622E702E82
:101610006B017C010F7080E389838A838B838C83C9
:101620008D838E83F7FE0BC08DE2FFDDF094E09496
:10163000D094C094C11CD11CE11CF11C04C075FEE7
:1016400002C08BE2F2DD033071F0043099F0053016
:10165000C1F00630F1F0073021F174E6872E912CAD
:10166000A12CB12C25C068EE862E63E0962EA12C0D
:10167000B12C1EC050E1852E57E2952EA12CB12C25
:1016800017C040EA842E46E8942EAA24A394B12CD5
:101690000FC030E4832E32E4932E3FE0A32EB12C12
:1016A00007C020E8822E26E9922E28E9A22EB12C2E
:1016B0009AE0292E312C412C512CC814D904EA046B
:1016C000FB0470F0C701B6016B5F7F4F8F4F9F4FD8
:1016D000A20191010E94ED3B69017A011F5FEDCFEC
:1016E00081E1810F9BEA899F812D1124A82EA69468
:1016F00086E0811B899F112D11241695912F990F3A
:10170000190F811B182F4E0187E0880E911C2AE0CB
:10171000A401C701B6010E941A3DF4010190002006
:10172000E9F731977F01E818F9089E2C6701DD245D
:10173000812F90E004968C159D0514F4A3941D5FF1
:101740008A2D90E0845D9F4F0E946E3DA82E74FE0E
:1017500004C0901610F40E1901C000E08E2C811AFE
:10176000800E181424F08EE260DD012F0E19111185
:1017700002C088EF882E912C10E0C00ED11EE82CFC
:10178000082C000CFF08892D90E08C159D05ACF409
:10179000FC013696E01BF10B81E090E08C0F9D1F61
:1017A000E80FF91F808141DD9394892D90E08E151B
:1017B0009F0549F78EE239DDE6CFAA2011F08A2D88
:1017C00034DD662011F0862D30DD2E96E2E10C949A
:1017D000F73C0F93362FBC0180E090E0022F242FBE
:1017E000432F0DDF0F9108950F93062FBC0180E06A
:1017F00090E026E54DEF03DF0F9108950F93042F3E
:1018000028E440E0FCDE8AE710DD5CDD0F910895FE
:10181000E82FF0E0EE0FFF1FEC55FE4FA591B491BD
:1018200090910001490F90911001690F20E0CD01C6
:10183000B1CD0895CF93DF93C82FD62FE091470104
:10184000F091480148E16EE18685E2DFE0914701D1
:10185000F09148014D2F6C2F8485DADFE09147012C
:10186000F091480140E06EE18585D2DFDF91CF91B4
:1018700008958F932F932AE080953B9A089410F453
:10188000439802C0439A000020D027D086952A951D
:10189000B1F72F918F91089503D002D001D000D0DD
:1018A00000D003D002D001D000D000D003D002D0AD
:1018B00001D000D000D0A89503D002D001D000D034
:1018C00000D003D002D001D000D000D003D002D08D
:1018D00001D000D000D003D002D001D000D0000051
:1018E000089590E0893C28F0885C48EC849FC00112
:1018F0001124009709F4089520918100277019F0B0
:10190000DADF0197F6CF8130910519F002973EE3B7
:1019100003C037E180E090E02091B200230F2093D4
:10192000B30042E04093700027E023BF889526E093
:1019300023BF10927000A895DCCF8F9384E0D1DF95
:1019400007C08F9382E0CDDF03C08F9381E0C9DFB2
:101950008F911F93182F106410937C00E12FE07873
:1019600080913701E81759F0E0933701AEDF8EE937
:1019700080937A0083E083BF889582E083BF20E074
:1019800030E0A901E0E01FC08EE980937A0083E097
:1019900083BF889582E083BF609178007091790061
:1019A000260F371F411D511DE43061F4809139012C
:1019B000803041F084E02030380720F417FD02C069
:1019C0001068CACFEF5F80913601E817E8F26091A6
:1019D0003A0170913B0117FF04C06091380170918A
:1019E000390180E090E00E94AB3B2FEF33E040E014
:1019F00050E00E94ED3BB901CA012091360130E070
:101A000040E050E00E94ED3BC9011F9108959B0109
:101A1000281B390B50F0C9010895BC0180913A018F
:101A200090913B016817790718F4861B970B08956E
:101A300080E090E0089599B193FB992790F9499936
:101A4000926080911C01843050F08EE080931801E8
:101A50009093190110921D0181E080931C018091E7
:101A60001C01E82FF0E0E85EFE4F3081931729F16A
:101A700091111AC0E3E0E80FE37020911D013230AC
:101A800041F4F0E0E85EFE4F3081333069F42F5FBF
:101A900009C0313049F4F0E0E85EFE4F3081333068
:101AA00019F4215020931D01E1E0E80FE370E09369
:101AB0001C01F0E0E85EFE4F908380911D0187FDE0
:101AC000819580931E010895A0E0B0E0EAE6FDE074
:101AD0000C94E43CE82ED92E53985198F1DE1092E4
:101AE0001D01E0911C01F0E03196E370FF27E85EF4
:101AF000FE4F80EF8083C5E6D9E19DDF4F9905C099
:101B0000E3DED150D1F7C150B9F7CE2DDD2DF12C48
:101B100015E500E0BB24B394D7FD36C082E3C82EA0
:101B20008ADFD2DECA94C110FBCF110F4F9B1F5F1B
:101B30001F731F3349F4011103C0CE2DDD2D04E0C6
:101B40000F5F083C28F020C0111102C001111CC019
:101B5000A8951C161D0624F42A9711F4CFEFDFEF89
:101B600080911E01882339F0F39480917B018111CB
:101B700002C0B0927B0184E18F1570F680911D0147
:101B8000811102C0F12CC8CF802FCDB7DEB7E9E0BC
:101B90000C94003DCF93DDD9C82F80914901882353
:101BA00001F1813051F4C33041F46FE086E0C4D9D3
:101BB0008BE23BDB6FE086E0BFD980E49FE184DF0E
:101BC000811104C080911E018111F7CFC33041F40F
:101BD00080914901813021F460E086E0ADD97EDB5F
:101BE000C1D9CF91089583E593E00E946E3D382FCF
:101BF00084E593E00E946E3D20913E01230F3091D9
:101C00003F01381F209321013093220183E0283EB9
:101C1000380720F0C901885E934002C080E090E060
:101C200062E370E00E94C63B683008F067E0E2E8DB
:101C3000F3E0E60FF11DE60FF11D45915591259159
:101C4000359162E3681B421B530B649FC001659F83
:101C5000900D1124499662E370E00E94C63B620F2A
:101C6000731F70937E0160937D0185E593E00E9470
:101C70006E3D992787FD909560913E0170913F01DF
:101C8000860F971F909339018093380190937901C3
:101C9000809378010895CF93DF9324E130E0B90178
:101CA0000E94C63BDC01E4E9F3E0E60FF71FE60F14
:101CB000F71FC591D591459155914C1B5D0B4A9FDE
:101CC000C0014B9F900D5A9F900D1124B9010E94A5
:101CD000C63B6C0F7D1FCB01DF91CF910895189506
:101CE000189530912301A0914701B0914801E5E991
:101CF000F1E080E090E08317B0F441911C962C91C4
:101D00001C97421719F04581241302C00196F3CFA6
:101D1000FC01EE0FFF1FEF55FE4F20813181293E60
:101D2000334008F4089584E108951092250110923B
:101D30002301109273011092590110922401109204
:101D4000450110927A01EEE5F1E0108211821282D3
:101D5000EFE7F1E0108A82E0818B10920201178692
:101D60001686148215821682178281EF838B08955E
:101D70008FE47FDD86E47DDD86E47BDD0DD907D948
:101D80005E988DDD80E090E09FCE08951F93CF9305
:101D9000DF93162F98E097B998B9E82FF0E0E5594E
:101DA000FD4F949195B9262F281BE20FF11D27FDB9
:101DB000FA95E491E92BE4B9CCDDEC01812FC9DD82
:101DC000AC0120913A0130913B0136952795C9012C
:101DD0000397BE01625E7F4F8617970778F4255EF2
:101DE0003F4FC217D30750F4BA01625E7F4F861788
:101DF000970720F481E04217530708F080E014B8F9
:101E0000DF91CF911F910895CF9361E080E0BEDF15
:101E1000C82F62E080E0BADFC80F62E081E0B6DF81
:101E20008C0FCF910895AFE0B0E0E9E1FFE00C94B2
:101E3000DB3CB82E10922501807FA9F4E5DF8330CA
:101E400009F085C3B5D882E692E095DAFDD88FE334
:101E5000ECD980ED97E038DE8B30C0F4A9D885E06E
:101E600091E089DA74C306E910E0A2D881ED91E02F
:101E700082DACADF833021F41F5F143010F006C00D
:101E800010E088E22EDD015081F763C0DDD80E94AA
:101E9000E12081EC90E06FDA60E08DE293E00E9457
:101EA0007B3D60E08EE293E00E947B3D60E08CE24F
:101EB00093E00E947B3D60E082E00E94F5256C018A
:101EC0009A83898361E082E00E94F5257C019C83EE
:101ED0008B8360E081E00E94F5258C019E838D83D9
:101EE00023E040E26EEFC60174DC23E040E26EEFD7
:101EF000C7016FDC23E044E06EEFC8016ADC2AE52D
:101F0000C216D10424F084E190E09A838983698128
:101F10008DE293E00E947B3D8AE5E816F10424F00F
:101F200084E190E09C838B836B818EE293E00E943E
:101F30007B3D0A35110524F084E190E09E838D837A
:101F40006D818CE293E00E947B3D82E080934901A9
:101F500021DEEB2DEF70EF87E13011F018E735C18E
:101F6000EE24E394F12C78EB872E72ED972E77E434
:101F7000A72EB12CE2E0DE2E08E0F0E23F2EC12CCD
:101F80001E2D52E2252ED7D9D2D984E54ED9C701CC
:101F900043DA98D91130B1F484EF90E0ECD964E0E1
:101FA00080913E0190913F011FDC4ED88FEE90E072
:101FB000E2D980917D0190917E012EDA8EEB8093A3
:101FC0003601E0C0123079F520913A0130913B01A1
:101FD000A8E5BBE10E94313C24EC36E340E050E050
:101FE0000E940F3C29013A0181E085B9F5E0F4B97E
:101FF00080E0A3DC841995099A83898381E184B9FF
:1020000080E09BDC841995099C838B8384E085B9EF
:1020100084E184B981E091DC841995099E838D83E4
:1020200089ED90E09EC0133041F5D5B82AE024B97F
:1020300080E083DC20913A0130913B013695279571
:1020400038872F83821B930B9A83898324B880E07F
:1020500074DC2F813885821B930B9C838B8305B99D
:1020600088E284B981E069DC2F813885821B930B7B
:102070009E838D838BEC90E074C0143039F482E53C
:1020800092E079D9C1DE81115FC26FC0153099F439
:1020900015B8D4B880E051DC9A83898304B981E013
:1020A0004CDC9C838B8334B882E047DC9E838D8339
:1020B0008BEE90E056C0163039F5D4B8D5B880E034
:1020C0003CDC20913A0130913B01821B930B9A83B7
:1020D000898304B905B981E030DC20913A0130915F
:1020E0003B01821B930B9C838B8334B835B882E011
:1020F00024DC20913A0130913B01821B930B9E839B
:102100008D8387EE90E02DC0173069F520913A015C
:1021100030913B01A8E5BBE10E94313CA50194014F
:102120000E94ED3B29013A01D5B8E3E0E4B980E033
:1021300004DC841995099A83898305B9FCE0F4B914
:1021400081E0FBDB841995099C838B8335B820E300
:1021500024B982E0F2DB841995099E838D8385EC96
:1021600090E009D902C0113069F00E9424088981E9
:102170009A8147D9A7D88B819C8143D9A3D88D81D7
:102180009E813FD907B908B914B815B888EE93E015
:102190009BDC143011F08B3020F4C39484E0C8121F
:1021A000F2CE88EE93E090DCEFEFEE1AFE0AF8E054
:1021B000EF16F10409F0E3CED1CEBDD882E592E06E
:1021C000DAD884E68EDB115019F01EDE8111F5CFCE
:1021D0000E94D8078AEB90E0CED823E044E06FEF6E
:1021E00080913C0190913D01F4DA0E94240883EB38
:1021F00090E0C1D823E044E06FEF809143019091DB
:102200004401E7DA82E080934901C4DC10922501A1
:102210000E94D8078FEA90E0AED860E082E00E948A
:10222000921D8090870190908801A0908901B090C4
:102230008A019C868B8661E082E00E94921DC0909C
:102240008701D0908801E0908901F0908A01DE86B4
:10225000CD8660E081E00E94921D0091870110917F
:1022600088011E830D8362E080E00E94921D8091B0
:102270008701909188019C838B8362E081E00E94BA
:10228000921D80918701909188019A87898761E0EA
:1022900080E00E94921D80918701909188019A832D
:1022A00089832F85213021F020914201223021F4B1
:1022B000029698878F8304C098878F83109242017B
:1022C000C401B4D8C601B2D8B801110F880B990B5C
:1022D00003E026E444EF93D98E010F5F1F4F6E0198
:1022E0008FE0C80ED11CF801819191910A97853B2E
:1022F0009105D0F4CE16DF06B9F74CE4E42E43E0A6
:10230000F42EF80160810E5F1F4F6E5EC7010E94C0
:102310007B3DFFEFEF1AFF0AC016D10691F70E942E
:10232000240885EB91E027D882E08093490132DCD4
:102330000E9453322F85213029F080914201823052
:1023400009F0E9C00E94D80780E00E945F098BE590
:1023500091E011D882E00E945F0984E290E00BD8FE
:1023600020E4F22E10E03AE0832E912CA12CB12C27
:10237000DCDC1092250160E082E00E94921D009159
:10238000910120917F013091800140918101509114
:102390008201073F44F40F5FCA01B901A50194010E
:1023A0000E94ED3BF6CF0093910120937F01309383
:1023B00080014093810150938201073F09F094C04E
:1023C000DA01C90180569109A109B1098039954501
:1023D000A105B10508F088C0609193017091940146
:1023E000CB018B569F4F8B32914008F07DC01F5F11
:1023F000153008F47AC083E593E00E94893D0E947D
:10240000D8078DE190E00E94BB09809193019091E3
:1024100094010E94010AE7DB88E088B989E087B966
:1024200080E284B982E095DA853D9340DCF714B808
:10243000109239011092380182E08BDA8C01809180
:10244000780190917901909339018093380182E06D
:1024500080DA7C01EE0CFF1C1092390110923801D9
:1024600082E077DAA0907801B0907901B0923901DA
:10247000A0923801800F911F8C010E191F090E9434
:10248000240886E190E00E94BB0985E593E00E9464
:102490006E3DD82E9501D8010E94403C97010F2C2B
:1024A000000C440B550B0E940F3C13E01D0D120F46
:1024B000612F85E593E00E947B3D812F012E000C6A
:1024C000990B0E94010A8FDB82E08093490162DB55
:1024D000109242018CE493E00E946E3D682F8FE4DD
:1024E00093E00E947B3D17C010E00E942408609199
:1024F0007F0170918001809181019091820104E0BF
:1025000026E4409191017BD80E946E0988E2E9D9C6
:10251000FA94F1102DCF89E18093360180E00E947A
:1025200072350E94D80785E091E00E94BB090E94A5
:10253000240889E492E00E94BB091092250182E000
:102540008093490127DB03C082E0C82E0ECE2F9670
:10255000E2E10C94F73C8091420181110DC08CE4C2
:1025600093E00E946E3D61E0680F8FE493E00E946B
:102570007B3D81E0809342010895EF92FF920F939B
:102580001F93CF93DF93D62FE82FF0E0E259FD4F52
:10259000E491E8B9E860E7B915B8E62FF0E0E5594D
:1025A000FD4FE491E4B988E8E82E83E1F82ECE2FC0
:1025B000CC0F8D2FC2D98C01C4B98E159F0510F494
:1025C0007801F7CF892BE9F00E9434088BE391E082
:1025D0000E94BB09D80120EA36E841E050E00E94A1
:1025E000463C28E937EB40E050E00E94ED3BDA0141
:1025F000C90122E041E467EFECD888E087B988B9E7
:1026000014B8CDB7DEB7E6E00C94033D0F931F93EB
:10261000CF93DF9385E09DD985E097D98C01EC01BC
:10262000CC0FDD1FCC0FDD1FCA56DF4F10924001CB
:10263000C43883E0D80750F489EA91E00E94BB09CE
:102640000E946E0981E08093400123C088EB91E0F5
:102650000E94BB0962E0CE01C7D80E9462090A3F0E
:1026600086E0180780F40333164050F48BEB92E0B9
:102670000E94BB090E946E098DEC33D979DB09C039
:1026800082EC92E002C085EB91E00E94BB090E94BF
:102690006E09DF91CF911F910F910895CF93DF9332
:1026A000DC019C01261B370BE0E090E0B901690FCB
:1026B000711D672F7727920F260F371FBA016E0FF4
:1026C000711D672F7727E40FEB01CC0FDD1F4C0F37
:1026D0005D1F6B3E28F4A217B30740F7CA0102C082
:1026E00080E090E0DF91CF910895A8E1B0E0EBE7C2
:1026F000F3E10C94DB3C582E462E342EA895E62FA1
:10270000F0E0E559FD4F24912C87220F2B8B339657
:1027100034913A8BE42FF0E0E559FD4F4491498321
:10272000339654915F83E82FF0E0E559FD4F2490F4
:10273000822D880F8F87339694919B8398609C831A
:1027400038603A8345B9AC84A42AA4B897B9EB8120
:10275000E8B9862FFAD89E878D87FC85F4B9842D39
:10276000F4D83C0114B8A6D815B8A4B8842DEDD877
:102770006D857E854CD96C012A8127B988E088B99E
:10278000398132293D8335B934B9852DDED845D913
:102790007C0115B88FD825B8852DD7D83ED98C01A6
:1027A00024B8852DD2D839D9B82E9987B801C70158
:1027B0002ED9803241E0940730F450E2C51651E042
:1027C000D50608F4AAC5C00ED11EED85FE858E0F74
:1027D0009F1FC816D90620F41E870D876B2C79849D
:1027E0002091590130917301822F90E0830F911D48
:1027F00002974CF0213009F090C5909156018091DC
:10280000700198138AC5F981FF0FF88FF229FB87B1
:102810002D853E852437310508F499C1C901880FFB
:10282000991F44966816790608F091C13C8137B922
:102830004B8148B98C85588D852B84B9842D81D8DE
:102840008C01832D86D87C01888D85B9842D79D81B
:102850009801295A3D4F2817390708F0ACC088E085
:1028600088B99A8197B9EB85E4B9E5B9832D69D820
:1028700088349F4028F085E08093250182E204C0DF
:1028800085E08093250184E28093240110934F0119
:1028900000934E01B701C801C5D8909355018093AC
:1028A00054019801A0E1B7E20E94313C20911F0140
:1028B0003091200140E050E00E94ED3B3093510107
:1028C000209350018B89288D822B84B915B83C81C7
:1028D00037B94B8148B9832D3CD88C01842D31D830
:1028E000B801A0D89C01909353018093520190911C
:1028F00024019F70943079F540915001509151011D
:102900006091540170915501C901C8DE0097F9F03A
:10291000588D54B9EA898C81E82BE7B9842D11D8F8
:102920008C0188E087B99801A0E1B7E20E94313CB0
:10293000209143013091440140E050E00E94ED3B82
:10294000A901B8018091520190915301A7DE9093A3
:102950004F0180934E01809124018F70843009F4DF
:10296000D3C488E088B99F81EA819E2B97B924B8A7
:10297000FD81F5B9852D0E94A50C8C014ED89E8352
:102980008D83842D0E94A90CE0902601F0902701F0
:10299000BC01C80147D89701DC010E94313CED81A0
:1029A000FE819F0140E050E00E94ED3B30934F01DB
:1029B00020934E01A9C488E088B9FA81F7B92B8524
:1029C00024B925B9852D0E94A10C8C01832D0E946C
:1029D000A90C7C0125B8852D0E94A10C895A9D4F18
:1029E0008017910708F099C43B8138B94C8147B9E9
:1029F000832D0E94A10C813D934028F485E08093B3
:102A0000250182E304C085E08093250184E380935F
:102A10002401B801C70106D890936F0180936E011D
:102A2000C8010E940D0D9C01A0E1B7E20E94313C5B
:102A3000209126013091270140E050E00E94ED3BBB
:102A400030936B0120936A01F8E0FF2EF8B88A8179
:102A500087B98F85988D892B84B985B9852D0E947A
:102A6000A90C8C01832D0E94A10CB8010E94120DAB
:102A70009C0190936D0180936C01909124019F7053
:102A80009430A1F540916A0150916B0160916E0103
:102A900070916F01C90102DE009721F1E88DE5B95F
:102AA000E4B9FB81F8B9EC812A81E22BE7B9852DE5
:102AB0000E94A10C0E940D0D8C01F7B89C01A0E1B1
:102AC000B7E20E94313C20913C0130913D0140E051
:102AD00050E00E94ED3BA901B80180916C019091FA
:102AE0006D01DCDD90936901809368018091240180
:102AF0008F70843009F4E0C1EB813F81E32BE8B9AA
:102B00004C81342B37B915B85D8154B9852D0E949D
:102B1000A50C7C01842D0E94A90C9E838D830091BD
:102B20001F0110912001BC01C7010E94120D9801E4
:102B3000DC010E94313CED81FE819F0140E050E0CC
:102B40000E94ED3B3093690120936801B5C188E094
:102B500088B9FA81F7B925B82B8524B9852D0E944B
:102B6000A50C998B888B0E940D0D98878F83832DE0
:102B70000E94A90C9A878987430134E6830E911C31
:102B80004F815885B30184169506D8F4CA010E9476
:102B9000120D8C01209126013091270140E050E078
:102BA00060E871EA83E09CE10E94ED3BD8010E945D
:102BB000463CE985FA858F0120E030E0A9019801C3
:102BC00023C08F8198850E94120D8C01FD81F4B97C
:102BD000852D0E94A50C998B888B0E940D0D9887DE
:102BE0008F83832D0E94A90C9A878987BC01C80115
:102BF0000E94120D9C01A4E6B0E00E94313CE985E0
:102C0000FA859F0140E050E00E94ED3B69017A01A6
:102C100014B815B8FB81F8B92C8127B981E00E945E
:102C2000710CA4B8842D0E94A50CBC84388DB32AE5
:102C30008F359D4008F446C1B4B8842D0E94A10C84
:102C40008C01832D0E94A90C9D8B8C8B852D0E945D
:102C5000A90C9F8B8E8B8C899D89813D974008F4B0
:102C6000B7C084E0809325018DE080932401601635
:102C7000710630F49801261937093E832D8302C06E
:102C80001E830D8380901F0190902001A12CB12CF8
:102C900060E871EA83E09CE1A50194010E94ED3BAC
:102CA000AD81BE810E94463CEC89FD899F0140E0D8
:102CB00050E00E94ED3B80917301882369F0809180
:102CC000640190916501A0916601B091670182173E
:102CD0009307A407B50708F52093640130936501B5
:102CE00040936601509367019801A0E1B7E20E940A
:102CF000313CA50194010E94ED3B30936B01209380
:102D00006A016C897D898E899F890E94120D90933A
:102D100069018093680181E001C080E04091640115
:102D20005091650160916601709167014C155D05D8
:102D30006E057F0538F5C0926401D0926501E0927E
:102D40006601F092670169857A85888999890E9470
:102D5000120D90936901809368012F813885A0E15D
:102D6000B7E20E94313C209126013091270140E0DA
:102D700050E00E94ED3B205F384D30936B01209373
:102D80006A0103C0882309F4B1C3C0901F01D09029
:102D90002001E12CF12C9301A0E1B7E20E94313C2B
:102DA000A70196010E94ED3B30936D0120936C01C9
:102DB0002D853E85A0E1B7E20E94313CA701960136
:102DC0000E94ED3B30936F0120936E0181E08EC332
:102DD000F1E66F16710408F075C0013D27E0120797
:102DE00008F470C085E08093250182E1809324017E
:102DF000C80186509F4F4E895F898417950720F43C
:102E000083E18093240119C080911F0190912001DA
:102E10009E838D83B8018E899F890E94120D2D811A
:102E20003E81DC010E94313C980140E050E00E946C
:102E3000ED3B30936901209368019A899770E92EE0
:102E4000832D806480937C00EBE0FE2EE1E0F0E0D7
:102E5000FE83ED830FEF13E0A89561E089817AD5B9
:102E6000B4B886B18E21E9F3FC85F4B980917A007B
:102E7000806480937A0080917A0086FDFCCF8091F7
:102E80007800909179009801281B390B4D815E8163
:102E9000420F531F5E834D83FA94F110DDCFCA01B8
:102EA000880F991F880F991F69E070E00E94C63B48
:102EB00070936F0160936E01809173018F5F8093B7
:102EC000730184CFB4B8588D55B9842D0E94A50CD8
:102ED0006C01832D0E94A90C98878F830E940D0D91
:102EE0009A8789878C149D04A8F4B301C6010E94B7
:102EF000120D8C0120911F013091200140E050E023
:102F000060E871EA83E09CE10E94ED3BD8010E94F9
:102F1000463C1FC0A4B8F981F5B9842D0E94A50CC8
:102F20006C01832D0E94A90C98878F830E940D0D40
:102F30009A878987C6016C147D0410F48619970955
:102F400069857A850E94120D9C01A4E6B0E00E947A
:102F5000313CE985FA859F0140E050E00E94ED3B5D
:102F600049015A01FA81F7B988E088B92D8124B95D
:102F700025B9852D0E94A50C8C01832D0E94A90CDA
:102F80009A878987842D0E94A90C7C01003331E146
:102F9000130708F0BFC125B8852D0E94A50C998B99
:102FA000888B24B8852D0E94A50C9D8B8C8B15B821
:102FB00081E00E94710C25B8852D0E94A50C4C89DA
:102FC0005D894034564008F05DC08133914108F47A
:102FD00059C0C8018A569F4F28893989281739074F
:102FE00008F050C086E080932501809159018F5FE1
:102FF00080935901B70189859A850E94120D90939B
:103000004F0180934E01B701C8010E94120D9093A9
:1030100055018093540114B815B83A8938B981E044
:103020000E94710C24B8852D0E94A50C853F910546
:1030300008F06AC24D8144B9832D0E94A50C813DE0
:10304000934008F461C2852D0E94A90C8D3D9240E9
:1030500008F45AC224B8852D0E94A50C8D3D9240DB
:1030600008F452C225B881E00E94710C15B8852D74
:103070000E94A50C853F910508F046C287E0809329
:10308000250142C22A8127B9398134B935B981E095
:103090000E94710C4B8544B945B9852D0E94A50C41
:1030A0008C010E940D0D998B888B832D0E94A90C99
:1030B0009E838D830E940D0D9A878987842D0E949F
:1030C000A90C7C0189859A858E3F994008F4B2C08D
:1030D00084E0809325018CE080932401B3018889EA
:1030E00099890E94120D8C012091260130912701AF
:1030F00040E050E060E871EA83E09CE10E94ED3B33
:10310000D8010E94463CE985FA859F0140E050E0E5
:103110000E94ED3B80915901882369F080914A011A
:1031200090914B01A0914C01B0914D0182179307F2
:10313000A407B50728F520934A0130934B0140932B
:103140004C0150934D01B7018D819E810E94120D5B
:1031500090934F0180934E0128893989A0E1B7E20D
:103160000E94313C209126013091270140E050E03F
:103170000E94ED3B309351012093500181E001C04A
:1031800080E040914A0150914B0160914C01709157
:103190004D01481559056A057B0528F580924A01BD
:1031A00090924B01A0924C01B0924D01B6018F81DB
:1031B00098850E94120D90934F0180934E019601C5
:1031C000A0E1B7E20E94313C20911F013091200123
:1031D00040E050E00E94ED3B205F384D30935101BC
:1031E0002093500103C0882309F48FC19301A0E10B
:1031F000B7E20E94313C20911F013091200140E054
:1032000050E00E94ED3B30935301209352012D85F5
:103210003E85A0E1B7E20E94313C20912601309129
:10322000270140E050E00E94ED3B30935501209390
:1032300054016AC1F1E66F16710408F06BC0288969
:10324000398929343D4008F465C085E08093250123
:1032500082E080932401C70186509F4F8017910719
:1032600020F483E08093240117C0C0902601D09001
:103270002701B701C8010E94120D9601DC010E94CE
:10328000313CE889F9899F0140E050E00E94ED3B24
:1032900030934F0120934E010B810770832D806482
:1032A00080937C001BE021E030E03E832D83A895D5
:1032B00060E089814FD33B8534B935B986B180232D
:1032C000E9F724B880917A00806480937A00809135
:1032D0007A0086FDFCCF80917800909179004D8135
:1032E0005E81480F591F5E834D83115001F7CA015B
:1032F000880F991F880F991F69E070E00E94C63BF4
:103300007093550160935401809159018F5F8093B0
:103310005901FAC088E087B988B914B815B888E0AF
:1033200087B957EC651651E0750608F4D0C088B926
:103330008F8584B998EC9D83EC81FA81EF2BEF8324
:103340002F8127B981E00E94710C3A8137B9852D10
:103350000E94A90C429728F04D8141504D834111A4
:10336000EFCF5F8554B955B961E08981F3D2852DDE
:103370000E94A50C6C018B8984B915B89C8197B902
:10338000EB81E8B960E08981E5D2842D0E94A50C2B
:103390000E940D0D9E838D83FC85F4B9842D0E94BF
:1033A000A90C8C01852D0E94A50CB8010E94120D5C
:1033B0007C01842D0E94A90C8C01852D0E94A50CF6
:1033C000B8010E94120D97012C5E3F4F2817390754
:1033D00008F480C088E088B92A8127B924B825B8C4
:1033E00061E08981B7D2842D0E94A90C8C01852DC2
:1033F0000E94A50CB8010E94120D8C01E816F90676
:1034000058F43F8534B935B9852D0E94A50C9C012F
:10341000CD82DE82780110C04B8944B915B85C8139
:1034200057B98B8188B960E0898194D2842D0E943C
:10343000A50C0E940D0D9C0198EEE91693E0F9068B
:1034400030F4C70164E670E00E94C63B06C0B701D5
:1034500054E0769567955A95E1F7C7018759910928
:1034600089389141A0F52E153F0588F58D819E8103
:1034700043E0969587954A95E1F7893C910510F0D0
:1034800088EC90E02D813E81820F931F8E159F0561
:10349000F0F462177307D8F480912501833018F493
:1034A00083E08093250120912301822F90E0FC018D
:1034B000EB56FE4F50824682880F991FFC01EF5554
:1034C000FE4FF182E0822F5F2093230103C0642D21
:1034D000852D29D088E087B988B914B815B88EE24F
:1034E0000E9415096896E2E10C94F73C90917301F3
:1034F0009F5F90937301882369F33092700140922B
:10350000710150927201E6CF81E0909159019F5F65
:10351000909359018823F1F230925601509257014D
:1035200040925801D7CFA0E0B0E0E9E9FAE10C946D
:10353000DD3CA895462F50E0FA01E559FD4F9490E7
:1035400033969491A82FB0E0FD01E559FD4FE4902A
:103550003396F490709173012091590130E0270F58
:10356000311D232B09F0F1C1A8952091290130913B
:103570002A01220F331F220F331F30933B01209368
:103580003A012091780130917901220F331F220FE7
:10359000331F30933901209338012EEB20933601ED
:1035A000C0912301E5E9F1E070E04A0F5B1F7C1751
:1035B00059F02191A58130E02A0F311D24173507DC
:1035C00009F456C07F5FF3CFD62FC82F88E088B9A3
:1035D000E92FE860E7B9E4B8E5B8B8E1BB2EC12C43
:1035E000D12C8D2F0E94A50C782E692E8C2F0E9435
:1035F000A90C8C018C199D0997FF03C091958195A9
:103600009109039734F0A895BA946801B110E9CFF5
:103610002FC0EE0C15B8E4B88C2F0E94A50C813594
:10362000910530F5E5B88C2F0E94A50C6C018F2D0B
:10363000886087B9F8B815B894B8A8E18A2EA12C8B
:10364000B12C8C2F0E94A50C582E492E8D2F0E9434
:10365000A90C7C018A199B0997FF03C0919581955C
:1036600091090397CCF0A8958A9457018110E9CF6E
:103670008091290190912A0190933B0180933A0116
:10368000809178019091790190933901809338016C
:1036900089E18093360159C1990C94B88D2F0E940D
:1036A000A50C5C01003C84E4180730F425E8C21640
:1036B00021E0D206E8F605C080EBC8168DE4D806F6
:1036C000B8F624EAE21622E0F20608F06CC088E9B7
:1036D000A816B10468F2C6010E940D0DAC01960156
:1036E000A8E9B7EB0E94313C9A0140E050E00E940B
:1036F000ED3B29013A01C5010E940D0D9C01A8E98D
:10370000B7EB0E94313C850120E030E0A90198012F
:103710000E94ED3B88E7C8168FE0D80680F4D301FD
:10372000C201F2E0880F991FAA1FBB1FFA95D1F7BB
:10373000BC01CD01620F731F841F951F14C088E761
:10374000A8168FE0B806B0F4DA01C901E2E0880FEC
:10375000991FAA1FBB1FEA95D1F7BC01CD01640DCB
:10376000751D861D971D25E030E040E050E00E9469
:10377000ED3B0CC0D301C201820F931FA41FB51FE4
:103780009C01AD015695479537952795A4E6B0E085
:103790000E94463C2B013C012CEA420E2DE0521EB9
:1037A000611C711C79C0672D762D0617170708F468
:1037B000B801C52CD42CCE14DF0408F46701061719
:1037C000170708F48B01A0902601B0902701C801CB
:1037D0000E94120D9501DC010E94313C2B013C013D
:1037E000C8010E940D0D9C0140E050E0C301B201F0
:1037F0000E94ED3B29013A01CE14DF0408F4760162
:10380000A0901F01B0902001B701C6010E94120DC7
:103810009501DC010E94313C4701A12CB12CA5018E
:1038200094010E94ED3B08378FE0180780F4D30124
:10383000C20162E0880F991FAA1FBB1F6A95D1F7CA
:10384000BC01CD01620F731F841F951F14C088E750
:10385000E8168FE0F806C0F4DA01C90132E0880FFB
:10386000991FAA1FBB1F3A95D1F7BC01CD01640D6A
:10387000751D861D971D25E030E040E050E00E9458
:10388000ED3B29013A0108C0420E531E641E751E0D
:10389000769467945794479410912501143008F05A
:1038A000E7CEC1500C2F0D0F202F30E0E901C25A96
:1038B000DE4F8881220F331F220F331FF901E2559B
:1038C000FE4F8823D9F1C080D180E280F380A3012C
:1038D00092012C193D094E095F0957FF07C0509509
:1038E0004095309521953F4F4F4F5F4FAAE0B0E094
:1038F0000E94463C24E6C20ED11CE11CF11CA7012B
:103900009601240D351D461D571D0E94ED3B232BAE
:10391000242B252B09F0ACCE133019F081E08093D5
:10392000250182E0888380917A01E82FF0E0EF5949
:10393000FE4F00838F5F80937A019ACE408251823E
:103940006282738281E0888393CECDB7DEB7E0E1F7
:103950000C94F93CCF93C82FC09595B160FF02C07D
:10396000982B01C09C2395B994B1892B84B982E02E
:103970000E94710C84B18C2384B985B1C823C5B968
:10398000CF910895A0E0B0E0E8ECFCE10C94E33CBA
:103990001AE008E08FE3C82E99E0D92E07B908B9DC
:1039A00015B8C4B880E00E94A50C7C0181E00E949B
:1039B000A90CEC0182E00E94A90C9C0180912501D8
:1039C000893081F488E087B914B8F0920601E0925A
:1039D0000501D0930801C093070130930A01209399
:1039E00009015BC084E0E816F10440F4C430D1055D
:1039F00060F42430310530F399E00BC088EEE8160E
:103A000083E0F80610F098E001C099E0C83ED3408A
:103A100008F49260283E334008F4946097B9C0E0FF
:103A2000D0E0A89580E00E949D0C5C0181E00E949E
:103A3000A90C7C0182E00E94A90C24E1A21625E0D9
:103A4000B20608F4389A24E1E21625E0F20608F4FA
:103A5000399A843125E0920708F43A9A26E0A216B2
:103A6000B10430F426E0E216F10410F4069738F0C1
:103A70002196C43F81E0D807A1F6D0922501E12C20
:103A8000F12CEC16FD0631F00E94600C2FEFE21ACB
:103A9000F20AF7CF115009F081CFCDB7DEB7EAE0D7
:103AA0000C94FF3CCF92DF92EF92FF92CF93209144
:103AB0007F01309180014091810150918201C0913C
:103AC00091018AE0C82ED12CE12CF12C8C2FCF5FF4
:103AD000213A96E8390791E04907510538F0CA01C3
:103AE000B901A70196010E94ED3BF0CF80939101AF
:103AF000A0913A01B0913B010E94463C28E833E195
:103B000040E050E00E94ED3B20937F013093800124
:103B10004093810150938201CF91FF90EF90DF900D
:103B2000CF900895A0E0B0E0E8E9FDE10C94E13C1D
:103B3000982F990F980F2FEF260F920F90935B01FC
:103B4000E82FF0E0E559FD4F1491262F30E0F90100
:103B5000E559FD4FF490F901E259FD4FD491909150
:103B60002501913009F4A1C220912301A5E9B1E01A
:103B7000FD0190E0921791F0368163130BC0308104
:103B8000831308C01C964D915C911D974C3D554088
:103B900008F48BC29F5F31961296ECCF062FC82F88
:103BA000D86010928C0110928B0181EF809391016B
:103BB00010927F0110928001109281011092820177
:103BC000E1DE88E088B9D7B9F4B8F5B88C2F0E9447
:103BD000A90C5C01802F0E94A90CA81AB90A14B87C
:103BE00010925D0110925C0180915C0190915D01E9
:103BF000843F914008F0AAC015B914B90E945A0C2C
:103C000014B815B80E94610CA8958C2F0E94A90CBD
:103C10007C01EA18FB0880915C0190915D018E3770
:103C2000910528F08BE4E816F1040CF48FC0809124
:103C30005C0190915D012DE2E21621E0F20634F480
:103C4000019690935D0180935C01CECF892B09F0A2
:103C5000A4C185E1E81685E0F8060CF49EC192DE69
:103C600015B88FE087B988E088B9F12EFF0CF4B859
:103C700080E480937B0084E580BF8C2F80648093F8
:103C80007C0086E180937A000E94640C10925D01B2
:103C900010925C01109280001092850010928400B6
:103CA00087E286BB81E280936F0081E080937C0194
:103CB000F5B89091250180938100953009F04CC0B2
:103CC00081E090E00C2E01C0880F0A94EAF78095FD
:103CD0008F7087B9F89483B7817F83BF80917C010F
:103CE000882389F083B7816083BF7894889583B7F0
:103CF0008E7F83BFF894A89580915C0190915D01BF
:103D00008034964059F7789410928100E0908600B4
:103D1000F090870010926F0086E980937A0014B8C3
:103D200015B88C2F0E94A90C20913E0130913F01C3
:103D3000821B930B0C969093940180939301809136
:103D40005C0190915D018032934040F088E087B93A
:103D500088B914B815B8A9C1D7B9BCCF80915C0196
:103D600090915D0190938A0180938901F09288017E
:103D7000E092870184EF8093910180915C019091A2
:103D80005D0182349105C8F06091870170918801CE
:103D90008091890190918A0124E630E040E050E072
:103DA0000E94ED3B20938701309388014093890165
:103DB00050938A0186EF80939101A0917D01B0918B
:103DC0007E012091870130918801409189015091B5
:103DD0008A010E94463C20E233E040E050E00E942D
:103DE000ED3B2093870130938801409389015093E4
:103DF0008A0120937F013093800140938101509389
:103E0000820150DE80919101843F09F071C0C09021
:103E10007F01D0908001E0908101F090820180EAE2
:103E2000C8168FE0D806E104F104C0F4A70196019A
:103E30002C543F4F4F4F5F4F60EA7FE080E090E0AF
:103E40000E94ED3BC20ED31EE41EF51EC0927F0100
:103E5000D0928001E0928101F0928201C0907F01B6
:103E6000D0908001E0908101F0908201C114D104D2
:103E700021E0E206F10428F4D092BF01C092BE0115
:103E800006C081E090E09093BF018093BE018091D5
:103E90005B0190E0845B9C4F0E946E3D90E0A0E04F
:103EA000B0E0B701A6018C159D05AE05BF0568F40D
:103EB000481B590B6A0B7B0B40937F015093800189
:103EC000609381017093820113C04C5E5F4F6F4F0E
:103ED0007F4F481759076A077B0710F40E94AB12FF
:103EE00010927F0110928001109281011092820144
:103EF00014B980917F0190918001A0918101B091CE
:103F000082014997A105B10508F420CFC12CD12C1D
:103F100080912301882329F080912501853009F0C3
:103F200015CF88E0809325018091910190919201B5
:103F30009817C4F089130ACF80907F019090800178
:103F4000A0908101B0908201409183015091840141
:103F50006091850170918601481559056A057B05B8
:103F600008F0F4CE40917F01509180016091810171
:103F70007091820140938301509384016093850185
:103F80007093860180939201D0928E01C0928D0130
:103F900000938F01C0939001D9CEC701C12CD12CC1
:103FA00020915C0130915D012C153D0560F00E946F
:103FB0005B0C8C2F0E94A90C8A199B09A8952FEFE6
:103FC000C21AD20AEDCF5701A81AB90A1A141B0453
:103FD0009CF439ECA316B1040CF0B8CE28EE33E013
:103FE000D5010E94403C97010F2C000C440B550B4F
:103FF0000E94ED3B690102C0C12CD12C80915C0173
:1040000090915D010196A0E0B0E0809387019093CC
:104010008801A0938901B0938A01C7018A0D9B1D75
:1040200091D0209187013091880140918901509170
:104030008A01DC010E94463C6093870170938801ED
:104040008093890190938A0160937F01709380012E
:10405000809381019093820187EF8093910122DD0B
:1040600080907F0190908001A0908101B0908201AA
:104070008FE293E00E946E3DA8EEB3E0A81BB10969
:1040800087FDB395A50194010E94503C24E630E0E1
:1040900040E050E00E94ED3B20937F01309380018F
:1040A000409381015093820133CFCDB7DEB7ECE06E
:1040B0000C94FD3C1F920F920FB60F9211248F9318
:1040C0009F93B59904C080917C01811109C0B59B73
:1040D00010C080918600909187008A3F910548F436
:1040E00080915C0190915D01019690935D018093B8
:1040F0005C019F918F910F900FBE0F901F901895AC
:104100001F920F920FB60F9211248F939F931092CC
:104110007C01B09B10C080918600909187008A3FFF
:10412000910548F480915C0190915D010196909316
:104130005D0180935C019F918F910F900FBE0F9056
:104140001F9018950F9221E08C32920710F48CE2A8
:1041500091E08C52914069E170E00E94C63B99E188
:104160006B3210F0982F6BE2981BE0EDF2E0E60F57
:10417000F11DE60FF11D9F93CF010E946E3D482F68
:104180003196CF010E946E3D582F3196CF010E948B
:104190006E3D282F3196CF010E946E3D382F6F91D2
:1041A000421B530B649FC001659F900D11240C9618
:1041B00069E170E00E94C63B620F731FCB010F9054
:1041C0000895A0E0B0E0E7EEF0E20C94E13C88E86E
:1041D00093E190932A018093290190933B0180936E
:1041E0003A018EEB80933601C8E0C8B988E187B9FF
:1041F0000E94690CC7B984E00E94A50CAC018B5CDD
:104200009840833F9140A0F481E080934501209144
:104210003A0130913B01AFEBB9E00E94313C9A0189
:1042200040E050E00E94ED3B30932A0120932901A9
:104230008091290190912A0190933B0180933A014A
:104240008EE00E94A90C8EE00E94A50C90933F0185
:1042500080933E010E94F30D95DB88E0F82EF8B8BC
:10426000C9E0C7B985E185B9D1E0D4B980E00E9441
:10427000A50C8C019AE0D92ED7B824E0B22EB4B8A0
:1042800081E00E94A50C080F191F3CE0E32EE7B85F
:1042900040E1C42EC4B882E00E94A50C080F191F8B
:1042A00015B8C8B9C7B9D4B980E00E94A50C0E945E
:1042B0000D0DEC01D8B8D7B8B4B881E00E94A50CB8
:1042C0000E940D0DC80FD91FE8B8E7B8C4B882E046
:1042D0000E94A50C0E940D0DC80FD91FF7B8F8B8A1
:1042E00014B820913A0130913B016901CC0CDD1CDE
:1042F000C20ED31EC01AD10ACC1ADD0AE12CF12C51
:104300009801A0E9BAE10E94313CA70196010E9400
:10431000ED3B49015A0130934401209343019E0132
:10432000A0E9BAE10E94313CA70196010E94ED3B51
:1043300030933D0120933C012057354E30932701A7
:104340002093260180E7881A85EE980A9092200132
:1043500080921F0189E180933601CDB7DEB7ECE092
:104360000C94FD3CCF92DF92EF92FF920F93CF938C
:10437000DF93F82ED62FC42F0E945F0988E191E0C9
:104380000E94BB09FAD16D2F8F2D0E94EE33C09091
:10439000C201D090C301E090C401F090C5018091AA
:1043A000020187FD05C0C114D104E104F10421F02C
:1043B00084E191E00E94BB098D2F0E945F09C11426
:1043C000D104E104F104A1F10E946209809161012C
:1043D0000E94770ACC2309F47EC0809146018D307B
:1043E00028F490E0805B9C4F0E94BB0980E00E9413
:1043F0008F09CD28CE28CF2801F16091C20170919C
:10440000C3018091C4019091C50103E028E447EF06
:104410000E94FF0A87E291E00E94BB0981E693E0D7
:104420000E94763D23E046E464EF0E94E90B1FC042
:10443000C111D3CF80E00E948F09809161010E9459
:10444000770A809102018E3F94F48FE391E00E94FD
:10445000BB0960910B0170910C0180910D0190914D
:104460000E0103E028E4409102010E94FF0A8091BE
:10447000BA019091BB01A091BC01B091BD01892B03
:104480008A2B8B2BF1F080E00E948F096091BA019A
:104490007091BB018091BC019091BD0104E028E4C2
:1044A00040E00E94FF0A82E291E00E94BB0923E003
:1044B00040E26FEF8091C0019091C1010E94E90B31
:1044C00007C080E00E94740980914901811107C0F2
:1044D0000E946E0904C080E00E948F098ECFDF9198
:1044E000CF910F91FF90EF90DF90CF900895EF92D2
:1044F000FF920F931F93CF93DF93182F0E94D10742
:1045000080918F010E945F098BE591E00E94BB09B9
:1045100014D560918F018091900167D3EC01909345
:104520008C0180938B01E0908D01F0908E01CA3F49
:104530008FEFD80720F489E191E00E94BB098091B8
:1045400090010E945F09112359F0909146018DE07E
:10455000891B0E94650989E790E00E94BB0902C09F
:104560000E946E090E942408609183017091840169
:10457000809185019091860104E026E440919201AA
:104580000E94FF0ACA3FDF4F68F48AE491E00E946C
:10459000BB0922E044E06EEF80918B0190918C0189
:1045A0000E94E90B0E946E090E942C08E114F1049C
:1045B00069F083E491E00E94BB0922E045E26FEFDD
:1045C00080918D0190918E010E94E90B0E946E09ED
:1045D000CDB7DEB7E6E00C94033D8F7021F40E9466
:1045E00034080C94061308958F3021F49091400103
:1045F000913011F08F5F089580E00895CF9384E8A3
:1046000090E00E949E2EC0E00E94950E60E082E045
:104610000E94931A62E080E00E94931A0E94D107E0
:1046200080917A01882329F041E062E080E09ADEFF
:1046300012C084E890E00E94BB098AE593E00E94E2
:10464000BB090E9424088FE30E94150980E00E94A4
:1046500074090E946E098C2FC0DF88EE93E00E94DF
:10466000640D811109C080911E01843028F48C2FC3
:10467000BBDFC82F8A3F40F20E94D807CF91089530
:104680000F931F93CF93DF93C0E0D8E012EF0DE0BC
:104690000E94950E60E082E045DAD093250180917A
:1046A0009101843FE1F480917F0190918001A0917C
:1046B0008101B091820184369105A105B10578F49C
:1046C00040E060E082E00E946E3160937F01709371
:1046D00080018093810190938201109391018091D8
:1046E0009101823FACF08093920180917F01909183
:1046F0008001A0918101B091820180938301909308
:104700008401A0938501B093860181E0F0DE1CC096
:104710000E94D1078DE790E00E94BB09809146017D
:10472000902F981B892F0E94650989E790E00E94CD
:10473000BB090E9424088FE30E9415090E946E099C
:104740000E942C080E946E098C2F47DF88EE93E0B0
:104750000E94640D81110AC080911E01843030F4E2
:104760008C2F42DFC82F8A3F08F492CF0E94D807CF
:10477000DF91CF911F910F910895A4E1B0E0E3EC98
:10478000F3E20C94DB3C82E08093020180912501EE
:10479000813009F026C280917A01813009F021C26E
:1047A0000091610124E0029FF0011124E255FE4FC7
:1047B00080819181A281B381893032E59307A1057F
:1047C000B10508F00EC24C0110E0802F123028F421
:1047D0000E946D0A582E492E03C00E946D0A2C01BA
:1047E000E42DF0E0E259FD4F2490852D90E0FC018E
:1047F000E559FD4FE49115B828E028B930EF83164C
:104800009104B8F410FD15C0A0901F01B0902001D4
:1048100020E9A21A2AE1B20A21E030E0052C02C008
:10482000220F331F0A94E2F7C9018860822987B9F1
:1048300008C0E4B9822D886087B9A0901F01B090AC
:104840002001F4E13F2E852D0E94A10C3C01842D16
:104850000E94A90C34E06316710410F4049718F058
:104860003A943110F0CF80E480937B0094E590BFC0
:10487000852D806480937C0026E120937A00E12CD2
:10488000F12C10928000109285001092840087E233
:1048900086BB0E94640C312F3170332E10FD05C091
:1048A00081E88093810028B808C028B80E946D0C68
:1048B00080E286BB81E88093810086B385FF13C0C8
:1048C00098E098B91092810020E226BB20918600E2
:1048D0003091870069014091840050918500241730
:1048E000350770F014C080FFE8CF31E036BBA895E3
:1048F00097012F5F3F4F790120353105F1F6E0CF69
:1049000080FF05C081E086BB9FEFE91AF90A86E9BE
:1049100080937A00E4E12E2E852D0E94A10C3C01AB
:10492000842D0E94A90C24E06216710410F40497EF
:1049300018F02A942110F0CF409043015090440188
:10494000480C591C4A0C5B1C20912101309122011A
:1049500080E9A8168AE1B806B0F491EEC916D10430
:10496000E104F10438F4C60165E070E00E94C63B42
:10497000645101C069E128523109261B310967FDE4
:10498000339586E009C0C20160EB76E30E94C63B26
:1049900087E0860F285D3F4F90E0A0E0B0E08C15E7
:1049A0009D05AE05BF0528F4C81AD90AEA0AFB0A14
:1049B00003C0C12CD12C7601332029F082E2C80E2D
:1049C000D11CE11CF11C90E5E916F10418F0C12C92
:1049D000D12C76018BE0C816D104E104F10428F053
:1049E00091E0C91AD108E108F10840913A015091CB
:1049F0003B01612C712CA8EEB3E00E94313C698B25
:104A00007A8B8B8B9C8B9501DA010E94313CA30140
:104A100092010E94ED3B4427552769897A898B8949
:104A20009C890E94ED3BC9010E944B0EFC01A30131
:104A30009201C701B6010E94AB3B2B013C01CF01A3
:104A4000A0E0B0E073E0880F991FAA1FBB1F7A9502
:104A5000D1F7BC01CD016B5F7F4F8F4F9F4F2AE095
:104A600030E040E050E00E94ED3BC301B2010E9403
:104A7000ED3BE12FF0E0A1E0B0E0AC0FBD1F84E022
:104A8000189FA00DB11D11242D933D934D935C9360
:104A90001397311016C09CE0C916D104E104F1044B
:104AA00080F03196EE0FFF1FEE0FFF1F81E090E0C8
:104AB0008C0F9D1FE80FF91F20833183428353839E
:104AC0001F5FA8951F5F143008F47FCE88E088B977
:104AD00084E00E94710C91E00D811E812F81388548
:104AE00049815A816B817C814017510762077307A6
:104AF00008F090E00D851E852F85388949855A85F7
:104B00006B857C85401751076207730710F483E0BB
:104B100001C082E0E92FF0E0EE0FFF1FEE0FFF1F54
:104B200021E030E02C0F3D1FE20FF31FD90134E0EC
:104B3000839FA00DB11D11240D911D912D913C91CC
:104B40004081518162817381041715072607370759
:104B500008F0892FE1E0F0E0EC0FFD1F94E0899F61
:104B6000E00DF11D112440815181628173814093D8
:104B70000B0150930C0160930D0170930E0180FDA9
:104B800008C020EF8216910420F48BEF809302017D
:104B900017C08CEF80930201CB01BA016B5F7F4F8E
:104BA0008F4F9F4F2AE030E040E050E00E94ED3B05
:104BB00020930B0130930C0140930D0150930E0193
:104BC00080910B0190910C01A0910D01B0910E010B
:104BD000892B8A2B8B2B11F41092020188E087B964
:104BE00014B86496E2E10C94F73CAEE1B0E0EBEF70
:104BF000F5E20C94DB3C662EB82E860F898320915B
:104C00002501283059F5209183013091840140918C
:104C100085015091860157FD15C01091920109C080
:104C2000CA01B9012AE0312D412D512D0E94ED3BE1
:104C30001F5F173FACF391F4243160E03607410564
:104C4000510518F48FEF9FEF45C1173F39F480E00D
:104C500028178DE738074105410510F020E03DE7B2
:104C60002C8B3D8B26EDA22EEEE6F2E0E60DF11D3B
:104C7000859188608E87EEE6F2E0EB0DF11D85915F
:104C800088608F87EBE6F2E0E60DF11D7590EBE6AC
:104C9000F2E0EB0DF11DC59090EC692AB92A81E094
:104CA000E82EF12C012D112D8E831F821886198676
:104CB0001A861B861C861D86188E198E1B8E1A8ED0
:104CC0000E94C21C88E088B960927C000E94650C3A
:104CD0003F8537B975B874B852E05A95F1F70000BE
:104CE000000014B815B8DD243E8537B975B874B81E
:104CF00060927C00A895A0927A0080917A0086FD4F
:104D0000FCCF2090780030907900B0927C004C2D40
:104D1000E5D02091780030917900288B398B3F8540
:104D200037B9C5B8C4B8A895B0927C00A0927A00F3
:104D300080917A0086FDFCCF6091780070917900B7
:104D400060927C00472DCAD0409178005091790044
:104D500014B8CB01820D931DE80EF91E011D111D23
:104D6000EA82FB820C831D8388899989840F951FB1
:104D70002E813F8168857985280F391F611D711D3E
:104D80002E833F836887798722E32417150650F026
:104D900075B874B80E946F0C14B815B8888D8395D7
:104DA000888F07C0483E73E0570718F08A8D8395B7
:104DB0008A8F888999892817190660F03E8537B946
:104DC000C5B8C4B80E946F0C14B815B8898D839506
:104DD000898F07C0883E73E0970718F08B8D839505
:104DE0008B8FD3945D2D5F3F49F05F3731F45C2D9D
:104DF000550FC50E572D550F750E76CF40904301B8
:104E000050904401440C551C9201E4E0240D351DE2
:104E1000EA95E1F72901570168016E807F80888457
:104E20009984209125012830C1F46C897D89812DD8
:104E3000912D65507040804090409B01AC010E94D4
:104E4000AB3B9B01AC0160E779E786E190E00E9413
:104E5000ED3B621A730A840A950AA614B704C804C3
:104E6000D90428F46A187B088C089D0803C06624BE
:104E700077244301B20180E090E09301A4010E94F5
:104E8000AB3B9501A6010E94ED3B8BE293E079815B
:104E9000870F911D0E946E3D682EC90160E170E090
:104EA0000E94C63B260F371FC9016816190618F461
:104EB000861991090FC08C5E9F4F8615910540F4AD
:104EC0008C899D89843981E1980710F00E94AB128A
:104ED000812D912D6E96E2E10C94F73C10928100A9
:104EE0001092800010926F0010928B0010928A0036
:104EF00057E056BB5FEF509385005093840055E018
:104F000050937B0056EB50937A0051E05093810010
:104F100058E25A95F1F7000045B944B955E05A9561
:104F2000F1F7000014B815B81092810080917A0052
:104F300084FFFCCF80937A000895A0E0B0E0E3EA1C
:104F4000F7E20C94E13C80918D0190918E01892BC8
:104F500009F09EC0E0918F01F0E0E259FD4FD4913D
:104F6000D860E0919001F0E0E559FD4FC4910E94B6
:104F7000C21C88E088B915B8D7B9C4B9809190012E
:104F80000E94A90C8C01D09192018CE08D0F84308D
:104F900008F07EC08091830190918401A0918501E9
:104FA000B0918601D15F2AE0822E912CA12CB12CE8
:104FB000BC01CD016B5F7F4F8F4F9F4FA5019401C7
:104FC0000E94ED3B69017A01DA01C901DF5FD73048
:104FD00079F729E8C21623E1D206E104F10408F0CA
:104FE00057C0059708F454C0C5B9C4B9C0E0D0E0B3
:104FF000CC15DD0520F40E946B0C2296F9CF14B875
:1050000015B8A89585E080933601809190010E94A3
:10501000A90C0817190720F4EC01C01BD10B02C022
:10502000C0E0D0E0A12CB12CAC14BD0430F40E943F
:105030006B0C8FEFA81AB80AF7CF809190010E94ED
:10504000A90C29E120933601A8950817190718F42F
:10505000801B910B02C080E090E08C179D0788F4C4
:105060009E01281B390B69F0A4EFB1E00E94313C8E
:105070009E0140E050E00E94ED3B30938E01209372
:105080008D010E94C21C88E087B988B914B815B890
:10509000CDB7DEB7ECE00C94FD3CA7E0B0E0E3E573
:1050A000F8E20C94DB3C87EC91E048D620EF2B83B0
:1050B00054980E94600C14BC16BC109212011092FD
:1050C0001301109214011092150131E035BB309399
:1050D0006E001092800083E19AE790938B0080939A
:1050E0008A00E1E0F0E0F0938900E09388001092FC
:1050F00085001092840083B5816083BDF6E0F6BB25
:10510000F0936F00789424E02093810032E3398398
:105110001A820E94590CA8954F9902C061E06A83D7
:1051200085B5811127C015BC86B5809312010E94F8
:105130002C080E946E090E9434080E946E090E9489
:105140009B0986E60E9415090E949F096091120141
:1051500070911301809114019091150147E00E9414
:10516000FE0B549880918100882351F08FE30E94B8
:10517000150906C08981815089838111CACFD3CF97
:105180001092810010926F00209112013091130152
:105190004091140150911501DA01C9010197A1094B
:1051A000B109813F9048A105B10508F00BC1AAE003
:1051B000B0E00E94463CDC01CB010896A11DB11D68
:1051C00023E0B695A795979587952A95D1F7BC01C9
:1051D000660F771F709375016093740154980E9455
:1051E000600C16BC1092120110921301109214015F
:1051F00010921501F1E0F5BBF0936E00109277016B
:105200001092760124E02BBB80916800846080932B
:105210006800789480916D00806180936D001982A0
:105220000E94590CA8954F9902C031E03A838091B1
:105230006D0084FF05C069816F5F69836A3F81F7F4
:1052400015BC80916D008F7E80936D008091680009
:105250008B7F8093680086B5809312010E942C0892
:1052600084E50E9415090E949F09609112017091C6
:1052700013018091140190911501E0917401F09156
:105280007501FD83EC8328EA31E640E050E00E949E
:10529000563CEC81FD81612C712C43015F01C12CD6
:1052A000D12CE12CF12C00E010E00E947F3C490160
:1052B0004F835E831B012C012C813D8120383105F9
:1052C00030F007E023E745EFB4018F8117C084E693
:1052D000A82EB12CC12CD12CE12CF12C00E010E037
:1052E00094014F815E81C2010E947F3CF22FE42F26
:1052F00007E023E747EF6F2F732F8E2F952F0E9424
:10530000FF0A39813A3F21F48FE30E9415095AC000
:1053100094014F815E81B101C201263E354B4105AA
:105320005105610571058105910509F008F44AC030
:105330000E94340886E60E9415090E949F09940184
:105340004F815E81B101C20154012115FAEC3F0782
:10535000FAE94F07FBE35F076105710581059105D8
:10536000A1F098F06A017101820120E030E04AE882
:105370005DE568E775E483E691E00E947F3CF22FEB
:10538000E42F07E028E44AEF13C0CF80DE807101EC
:10539000820120E030E44AE750E163EF7AE580E003
:1053A00090E00E947F3CF22FE42F07E028E44DEFCD
:1053B0006F2F732F8E2F952F0E94FF0A8AE70E946E
:1053C0001509549810926E0080ED97E00E94640DCC
:1053D0002A81820F49F480911E01833028F43B8199
:1053E00031503B83311164CE2796E2E10C94F73CB7
:1053F0001F920F920FB60F9211248F939F93AF932A
:10540000BF9378948091120190911301A09114019F
:10541000B09115019F5FAF4FBF4F809312019093E2
:105420001301A0931401B0931501BF91AF919F9107
:105430008F910F900FBE0F901F9018951F920F9293
:105440000FB60F9211248F9386E085BD8F910F9038
:105450000FBE0F901F9018951F920F920FB60F92CC
:105460001124A8951092810015BC0F900FBE0F90CB
:105470001F9018951F920F920FB60F9211242F9321
:105480003F938F939F938091760190917701892B21
:1054900011F481E085BD20917601309177018091F2
:1054A0007401909175012817390730F015BC80916F
:1054B0006D008F7E80936D008091760190917701D1
:1054C000019690937701809376019F918F913F9100
:1054D0002F910F900FBE0F901F9018958C3008F0F1
:1054E0008C50811103C083E392E036C0813019F4FF
:1054F00087EC91E031C0823019F48AE092E02CC050
:10550000833019F48FEF91E027C0843019F48FE8CD
:1055100090E022C0853019F484E890E01DC0863008
:1055200019F48DE790E018C0873019F48EEE91E001
:1055300013C0883019F48FED91E00EC0893019F452
:105540008EEB91E009C08A3019F481E292E004C048
:105550008B3021F486E192E00E94BB090E946E0923
:105560000C94CC0708950F93CF938FE890E0E6D387
:10557000C0E01092250160E082E0F5D38091250122
:105580008830C1F50E94240883E40E9415090E9416
:105590009F096091830170918401809185019091B0
:1055A000860103E026E4409192010E94FF0A0E94D6
:1055B0006E0960918F018091900117DB90938C01AF
:1055C00080938B010E942C088BE491E00E94BB0920
:1055D00080918B0190918C018A3F2FEF920730F4DC
:1055E00022E044E06EEF0E94E90B08C08FE30E94C6
:1055F000150904C00E949B090E942C080E946E0994
:105600008C2F0E94ED2288EE93E00E94640D8111A0
:105610000BC080911E01843038F48C2F0E94F4223C
:10562000C82F8A3F08F4A5CFCF910F910895089510
:10563000A4E0B0E0EEE1FBE20C94DB3C8AE092E017
:105640007DD380E18093800010926F0081E090E034
:10565000909389008093880010928B0010928A00AA
:1056600083E086BB1092820088E08093810015B8A9
:1056700091E194B988B989E087B9229A8093810031
:10568000312C20E0FAE02F2E31E03B83812C912C4D
:105690005401839441E14C83832D90E00A966EE19E
:1056A00070E00E94DA3B6A83062F621781F00E9445
:1056B000D1078AE092E00E94BB0910E0101728F49D
:1056C0008EE20E9415091F5FF9CF0E946E095C816E
:1056D0005231B8F0C701B601A50194010E94ED3B1B
:1056E0006B017C018B81622D0E94BA3BA92FB0E037
:1056F000A50194010E94463CC60ED71EE81EF91E65
:105700000CC08B81622D0E94BA3BA92FB0E0A5018D
:1057100094010E94463C6B017C010E9424088B810D
:10572000281209C081E09C81923108F480E08983CD
:10573000811107C001C019822C81263120F082E539
:1057400003C08CE301C08EE30E9415090E94620928
:105750004C81C701B6010E94FE0BC701B6017E5EF7
:1057600085489F4FA7019601220F331F441F551FE5
:105770000E94ED3BCA014F3F510539F030F08DE0FA
:105780008093810080E094E01FC04034510530F0E8
:105790008CE08093810080E091E016C04830510594
:1057A00030F08BE08093810080E490E00DC0892B85
:1057B00031F09AE09093810088E090E005C089E0A4
:1057C0008093810081E090E02C01612C712CCA0152
:1057D000B901A30192010E94ED3B215031093093A0
:1057E0008900209388008091880090918900892BFE
:1057F00031F421E030E030938900209388000E944A
:105800006E090E942C0886E60E9415090E94620912
:10581000009188001091890060E079E08DE390E0CC
:10582000A30192010E94ED3BA4E6B0E00E94463C39
:1058300098012F5F3F4F40E050E00E94ED3B29016F
:105840003A01A4E6B0E0A70196010E94463CA301FC
:105850009201261B370B480B590BCA01B90105E20F
:1058600028E44EEF0E94FF0A8AE70E9415090E9471
:105870006E0980ED97E00E94640D811105C0809152
:105880001E01811149C049C0883C60F0109281001E
:105890001092800088E087B914B822982496E2E13B
:1058A0000C94F73C813598F139813323E9F04C8130
:1058B00041504C83C501B4012AE030E040E050E0A3
:1058C0000E94ED3B49015A01C701B6010E94ED3B20
:1058D000CA01B9012AE030E040E050E00E94ED3B0F
:1058E0006B833AE0232E45C05C815631C0F55F5F83
:1058F0005C83563111F425E1222EAAE0B0E0A50127
:1059000094010E94463C4B015C011B8232C08B30EB
:1059100018F08B818F5F8B83312C80911E018B302F
:1059200008F0B4CF80911D0187FD03C09B81890FD2
:1059300004C08F5F820D2B81820F90E0622D70E09A
:105940006F5F7F4F0E94DA3B8B83832D0E94F4228E
:10595000382E3FEE381708F499CF2A819DCE8AE081
:10596000282E41E04B83812C912C5401839451E1EA
:105970005C83312CF2CFA0E0B0E0E1ECFCE20C94CF
:10598000DD3C8FEF91E0DAD183E2809380001092CA
:105990006F008FEF90E090938B0080938A0083E0FC
:1059A00086BB1092820015B881E184B988E088B97D
:1059B00089E087B9229A21E030E030938900209372
:1059C00088008093810000E080E0D2E310E094E65C
:1059D000C92ED12CE12CF12C88248A9423E0922E1C
:1059E000A12CB12C8D17A9F1D43608F0D4562D2F47
:1059F00030E0AFEFB3E00E94313C6E5C7F4F8F4FE1
:105A00009F4FA70196010E94ED3B29013A01309377
:105A10008B0020938A000E942408A8EEB3E0A30123
:105A200092010E94463C61507E4F8F4F9F4FA501CF
:105A300094010E94ED3BDA01C90125E045E26FEFD8
:105A40000E94E90B0E946E09193218F08CE30E9443
:105A5000710C80E496E00E94640D182F833868F082
:105A600088E087B9109281001092800014B82298C3
:105A7000CDB7DEB7E0E10C94F93C80911E018B308C
:105A800078F7C0911D01C7FDCC59CD0F133310F02D
:105A9000C65F03C0112359F0CF5F00E0802F0E9442
:105AA000F422082F803FE0F68D2FDC2F9BCF811151
:105AB000F4CFF4CFCF93DF938EEB91E03FD18AE226
:105AC00093E00E946E3DC82FD0E081E80E94C3079A
:105AD0008C2F0E94C3070E94240824E040E260E06B
