:1000000043C3000053C3000051C300004FC30000AE
:100010004DC300000C94892F49C3000047C3000062
:1000200045C300000C94D90A41C300003FC300003F
:100030000C94E7220C946D2F0C947B2F0C94C1220E
:1000400035C3000033C300000C94472F2FC30000BA
:100050002DC300002BC3000029C3000027C30000EC
:100060000C94DA0A23C3000021C300001FC3000060
:100070001DC300001BC3000019C3000017C300000C
:1000800015C3000013C3000011C30000E62FF72FB3
:10009000903009F49395EBB8CAB8B6EFB0937A00F4
:1000A000A5E0A0937B00A8E0A093810010928000BF
:1000B000AFEFA0938500A0938400A6E0A093360044
:1000C00010928B0010928A00B3E0AFE3A91B51E0BD
:1000D000392F33302AF0A05CBC4F53953350F9CF01
:1000E000B0938900A0938800A0917A00A4FFFCCF70
:1000F000B6EBB0937A00A2E0A0936F00A9E0A093C2
:10010000810062E0A0E0A0937B00A1E0A0935300F7
:100110008895EBB8CAB884FF1AC0A8E10000AA9578
:10012000F1F7EF93FF93E1B1F2B1A4E0C4FCA2E0D8
:10013000C2FCA1E0BF2FBA2BAE2BB2B90AB9A1B94C
:10014000E1B9F2B9FF91EF910BC00C948500ACE1DD
:1001500000000000AA95F1F72BB9EBB800000AB92E
:10016000A0918400A0918500B0918900A395AB1760
:1001700060F7A0917A00A4FFF3CFB6EBB0937A00BA
:100180006A9571F76091780070917900308186FDF1
:10019000630F6193308186FD731F80FF7193652F1C
:1001A0004A9579F710926F0010928100B6E0B093F3
:1001B0007A000895496473733D00206574613D00C1
:1001C000554A540050555400312D042D3320342D00
:1001D00033306E46284C29005245465F523D00524E
:1001E00045465F433D0066706EE46D006B4D041044
:1001F00040010204041F111111111F04001E02030B
:10020000021E0000000F0818080F00001113171F2E
:100210001713110011191D1F1D1911001B1B1B1B8A
:100220001B1B1B005244533D005B435D00312D04FA
:100230002D332000312D06072D77772D33200043F5
:100240002B455352405450313A3300433073616D63
:100250007020004330200052695F4C6F3D005269AE
:100260005F48693D0052303D0052482F524C002BF0
:1002700052482D203132203133203233002B524C62
:100280002D2031322031332032330052482B00529E
:10029000482D005248663D005265663D0049434581
:1002A000733D00494345303D0056657273696F6E7A
:1002B00020312E31336B002D77772D002D06072D41
:1002C000002A012020007A20513D0020696620008C
:1002D0002040302D3556002D022D002D012D004ED1
:1002E0006F742063616C6962726174656421204679
:1002F0006F72FF63616C6962726174696F6E206313
:100300006C616D70207468652033FF70696E7320B6
:10031000746F67657468657220616E6420737461C0
:100320007274207769746820746865FF6B65792E34
:100330002041636B6E6F776C6564676520746865D8
:100340002073656C662D74657374207769746820FA
:10035000746865206B65792077697468696EFF320F
:10036000732E20446973636F6E6E656374207069C9
:100370006E7320616674657220746865FF6D6573C5
:1003800073616765202269736F6C617465FF5072D9
:100390006F626521222069732073686F776E2E204B
:1003A000536F66747761726520616E6420646F6359
:1003B000756D656E746174696F6E20697320617408
:1003C0002073766E3A2F2F206D696B726F636F6E9C
:1003D00074726F6C6C65722E206E65742F7472610E
:1003E0006E736973746F7220746573746572200024
:1003F000566578743D0049723D004C3D0020566CB6
:100400006F73733D00204553523D005643433D00FA
:1004100043656C6C21002D042D004056673D002083
:1004200056743D0055663D005562653D00203132F1
:10043000333D00504E50004E504E0043673D006823
:1004400046453D002D49474254004A464554002D3B
:100450004D4F5300444320507772204D6F64650028
:100460004F4B004261742E20004C46207175617222
:10047000747A0048462071756172747A004672651C
:100480007175656E6379203E20324D487A00467260
:10049000657175656E63790073686F727420507250
:1004A0006F626573210053656C66746573740074C4
:1004B00075726E21004328E446292D636F727265C0
:1004C0006374696F6E00726F7461727920656E6318
:1004D0006F6465720031302D6269742050574D0091
:1004E000662D47656E657261746F7200537769742B
:1004F0006368206F66660053686F7720646174617B
:1005000000566F6C74616765005472616E73697335
:10051000746F720053656C656374696F6E3A005452
:1005200065737420456E640069736F6C6174652037
:1005300050726F626573210053656C6674657374E5
:10054000206D6F64652E2E0054696D656F75742182
:1005500000206465746563746564004E6F2C2075BB
:100560006E6B6E6F776E2C206F720020756E6B6EE7
:100570006F776E00546879726973742E00547269D3
:10058000616300706172740064616D61676564200D
:1005900000656D70747921007765616B0054657337
:1005A00074696E672E00B903870358032E0307038F
:1005B000E402C302A40288020000140029003E00E5
:1005C0005300690080009700AE00C600DF00F8000D
:1005D00012012D01490165018201A001BE01DE0168
:1005E000FF012102440268028E02B502DE02090305
:1005F000350364039403C803FE0337047304B4048F
:10060000F90443059305EA054906B3062907AE0731
:100610004808FF08DE09FD0A930C480F991B705724
:1006200080508D4A6645E340E83C5E3933365A33A4
:10063000C6306D2E492C532A8428DA264E25DF2316
:1006400089224A212020081F011E091D201C431B4E
:10065000731AAD19F1183F189517F4165A16C615E6
:100660003A15B3143214B7134013CE126112F811B5
:1006700093113111D3107810202020202020202029
:1006800020205B524C5D000011241FBECFEFD0E450
:10069000DEBFCDBF21E0A0E0B1E001C01D92A23CD1
:1006A000B207E1F70E94600F0C94733CA9CC80FD67
:1006B0002A9A80FF2A98229A00002B9A239A2C9833
:1006C0002D982E982F9864FD2C9A249A65FD2D9ACA
:1006D000259A66FD2E9A269A67FD2F9A279A000082
:1006E0002B981DD187FD10C02B9A2C982D982E98F1
:1006F0002F9860FD2C9A61FD2D9A62FD2E9A63FD64
:100700002F9A00002B980BC1089597FF09C08F9373
:100710009F938DE212D49F918F91909581959F4FD9
:100720006EE171E04AE050E00E94123C8BC40895F3
:10073000ECDF01C0EADF80E200C48DE2FEC38DE39E
:10074000FCC3EF92FF920F931F93182F062FF42EE6
:100750008DE294E082D4EE24E0913901F0913A01E7
:100760008685E81611F4812F09C08485E81611F4F6
:10077000802F04C08585E81611F48F2DDED3E39415
:100780008E2D833049F71F910F91FF90EF900895C0
:10079000682F80E092E0662309F491E0623009F46A
:1007A00081E008950F93082FEAEAF1E0880F880F9F
:1007B000E80FF11D6081718182819381643671053A
:1007C0008105910568F420911C0127FD09C0802F47
:1007D000DFDF692FFCD16EEF23E044EFDFD504C0EB
:1007E0004FEF04E024EFF3D4A6DF0F910895863095
:1007F00058F4E9E9F1E0E80FF11DE80FF11D8081FF
:10080000918163E0D6D597CF08951F93182F8091DB
:100810007201882319F08FDF80E08FD3F8D384E250
:1008200094E01BD4812F82958F70E1DF812F8F7030
:10083000DEDF1F9108958091020182958F7019D09B
:100840008091020183701CD080910201DECF089557
:10085000EDE8F1E0E80FF11D0895CF93F9DF908105
:10086000C681C91710F405D001C013D064DFCF9141
:100870000895EEDF8F93808196D38F9101C0089504
:100880008F938BED92E0E9D38F91E2DF86818BC36A
:100890000895DEDF8F93868186D38F9101C00895FE
:1008A0008F9387ED92E0D9D38F91D2DF80817BC384
:1008B00008958F932F932AE08095519A089410F40D
:1008C000599802C0599A000020D027D086952A95C1
:1008D000B1F72F918F91089503D002D001D000D0AD
:1008E00000D003D002D001D000D000D003D002D07D
:1008F00001D000D000D0A89503D002D001D000D004
:1009000000D003D002D001D000D000D003D002D05C
:1009100001D000D000D003D002D001D000D0000020
:10092000089590E0893C28F0885C48EC849FC001E1
:100930001124009709F4089520918100277019F07F
:10094000DADF0197F6CF8130910519F002973EE387
:1009500003C037E180E090E02091B200230F2093A4
:10096000B30042E04093700027E023BF889526E063
:1009700023BF10927000A895DCCF8F9384E0D1DF65
:1009800007C08F9382E0CDDF03C08F9381E0C9DF82
:100990008F911F93182F106410937C00E12FE07843
:1009A00080912901E81759F0E0932901AEDF8EE923
:1009B00080937A0083E083BF889582E083BF20E044
:1009C00030E0A901E0E020C08EE980937A0083E066
:1009D00083BF889582E083BF609178007091790031
:1009E000260F371F411D511DE43069F480912B0102
:1009F000803049F084E02030380728F417FD03C028
:100A000010681F7BC9CFEF5F80912801E817E0F2E3
:100A100060912C0170912D0117FF04C060912A0193
:100A200070912B0180E090E00E946A3A2FEF33E052
:100A300040E050E00E94AC3AB901CA01209128017F
:100A400030E040E050E00E94AC3AC9011F910895A7
:100A50009B01281B390B50F0C9010895BC018091FE
:100A60002C0190912D016817790718F4861B970BBC
:100A7000089580E090E0089588E290E00E94453C6F
:100A8000382F89E290E00E94453C20913001230FED
:100A900030913101381F209312013093130183E00C
:100AA000283E380720F0C901885E934002C080E0EC
:100AB00090E062E370E00E94853A683008F067E0F9
:100AC000E6EAF5E0E60FF11DE60FF11D45915591BF
:100AD0002591359162E3681B421B530B649FC00153
:100AE000659F900D1124499662E370E00E94853A5B
:100AF000620F731F70937601609375018AE290E034
:100B00000E94453C992787FD909560913001709136
:100B10003101860F971F90932B0180932A019093A8
:100B200071018093700108950F9221E08C32920739
:100B300010F48CE291E08C52914069E170E00E94E7
:100B4000853A99E16B3210F0982F6BE2981BEEE139
:100B5000F6E0E60FF11DE60FF11D45915591259147
:100B60003591692F421B530B649FC001659F900D07
:100B700011240C9669E170E00E94853A620F731FA0
:100B8000CB010F900895CF93DF9324E130E0B901BA
:100B90000E94853ADC01E8EBF5E0E60FF71FE60F6F
:100BA000F71FC591D591459155914C1B5D0B4A9FFF
:100BB000C0014B9F900D5A9F900D1124B9010E94C6
:100BC000853A6C0F7D1FCB01DF91CF910895AEE187
:100BD000B0E0EDEEF5E00C94943B662EB82E860F57
:100BE000898320911601283059F520917B0130919D
:100BF0007C0140917D0150917E0157FD15C01091FF
:100C00008A0109C0CA01B9012AE0312D412D512DB7
:100C10000E94AC3A1F5F173FACF391F4243160E0BF
:100C200036074105510518F48FEF9FEF41C1173F7B
:100C300039F480E028178DE738074105410510F0A9
:100C400020E03DE72C8B3D8B26EDA22EE1EFF1E07D
:100C5000E60DF11D859180608E87E1EFF1E0EB0DEF
:100C6000F11D859180608F87EEEEF1E0E60DF11DBC
:100C70007590EEEEF1E0EB0DF11DC59090EC692A58
:100C8000B92A81E0E82EF12C012D112D8E831F82CF
:100C9000188619861A861B861C861D86188E198E44
:100CA0001B8E1A8E0E941B1F80E082B960927C000E
:100CB0002CDE3F8531B97BB87AB852E05A95F1F70E
:100CC000000000001AB81BB8DD243E8531B97BB89E
:100CD0007AB860927C00A895A0927A0080917A0000
:100CE00086FDFCCF2090780030907900B0927C0097
:100CF0004C2DE2D02091780030917900288B398BEF
:100D00003F8531B9CBB8CAB8A895B0927C00A09203
:100D10007A0080917A0086FDFCCF60917800709116
:100D2000790060927C00472DC7D0409178005091A7
:100D300079001AB8CB01820D931DE80EF91E011D32
:100D4000111DEA82FB820C831D8388899989840F97
:100D5000951F2E813F8168857985280F391F611D78
:100D6000711D2E833F836887798722E32417150638
:100D700048F07BB87AB8D3DD1AB81BB8888D839554
:100D8000888F07C0483E73E0570718F08A8D839517
:100D90008A8F888999892817190658F03E8531B9B4
:100DA000CBB8CAB8BCDD1AB81BB8898D8395898FBA
:100DB00007C0883E73E0970718F08B8D83958B8F63
:100DC000D3945D2D5F3F49F05F3731F45C2D550FB3
:100DD000C50E572D550F750E78CF409035015090A8
:100DE0003601440C551C9201E4E0240D351DEA95B2
:100DF000E1F72901570168016E807F80888499841A
:100E0000209116012830C1F46C897D89812D912DA6
:100E100065507040804090409B01AC010E946A3A4E
:100E20009B01AC0160EF7FE080E090E00E94AC3A73
:100E3000621A730A840A950AA614B704C804D9046E
:100E400028F46A187B088C089D0803C06624772460
:100E50004301B20180E090E09301A4010E946A3A4C
:100E60009501A6010E94AC3A80E090E07981870F5D
:100E7000911D0E94453C682EC90160E170E00E940E
:100E8000853A260F371FC9016816190618F4861906
:100E900091090EC08C5E9F4F8615910538F48C89A0
:100EA0009D89843981E1980708F0B2D7812D912D71
:100EB0006E96E2E10C94B03B10928100109280009B
:100EC00010926F0010928B0010928A0057E056BB70
:100ED0005FEF509385005093840055E050937B0062
:100EE00056EB50937A0051E05093810058E25A95A6
:100EF000F1F700004BB94AB955E05A95F1F70000F7
:100F00001AB81BB81092810080917A0084FFFCCF40
:100F100080937A000895CF93C82F1C161CF40BDC25
:100F2000C150FBCFCF91089580913801809300018B
:100F30008091A901809301010895CF93C82F8091DA
:100F400038018F5F809338016C2F81E0B0DBDEDCED
:100F5000C83050F4C630C0F4C23071F0C43081F0F3
:100F6000C130E1F48EE30DC0C43E81F0C43F81F096
:100F7000CD32A1F48DE213C08CE79BDC8CE30FC073
:100F80008CE797DC8CE70BC082E509C085E707C0DA
:100F90008FE48FDC88E68DDC8DE601C08C2F89DC48
:100FA000A895CF9108958F5CC8CF0895682F80E0F1
:100FB0007EDBACCC0895982F862F6093380191305A
:100FC00011F4805409C0923011F48C5605C093304E
:100FD00011F48C5201C08058E9CF0895609100014E
:100FE00080910101E8CF08958DE063DC8AE061CC57
:100FF00008951092A90180E8D9DF10923801F4CF4A
:10100000089581E0D3DF82E08CDCF3CF089581E0A6
:101010008093A90180ECCADF10923801E5CF0895D2
:1010200082E08093A90184E9C1DF10923801DCCF0E
:10103000089583E08093A90184EDB8DF1092380110
:10104000D3CF0895CF93DF93EC018991882311F0DA
:1010500074DFFBCFDF91CF910895CF93DF93EC0145
:10106000FE018491982F9F7719F067DF2196F8CFC2
:10107000DF91CF9108950F931F93CF93DF938C014E
:10108000085F1F4FEC01FE01849157DF2196C017C6
:10109000D107C9F7DF91CF911F910F91089584E196
:1010A00040DC83E383DF82E381DF82E03ADC80E2BD
:1010B0007DDF80E27BDF88E679DF89E077DF8AE227
:1010C00075DF88E073DF86E071DF82E06FDF99DF34
:1010D00081E027DC8CE06ADF88E468DF84E192E06D
:1010E000CADF80E563DF8CE092E0C5DF80E65EDF8B
:1010F0008CE192E0C0DF80E759DF84E092E0BBDF63
:1011000088E754DF8CEF91E0B6DF80E44FDF84EFB7
:1011100091E0B1CF08959091380184E1891BFBCE15
:101120000895CF93C82FF7DF8091A9018F5F809337
:10113000A901843038F083E08093A90181E0809395
:101140003B0102C010923B016C2F8091A90133DF5B
:101150004BDFCF910895E5DF03D28091A901833061
:1011600008F042CF089545DFD6DF43CF08954FDF23
:10117000D2DF4DCF08950F938BE394E06EDF409163
:1011800089014D3F64F460917701709178018091FD
:10119000790190917A0103E026E419D002C08FE32F
:1011A000CCDE0F910895909115019F70923071F4EB
:1011B000D2DF84E292E051DFE0913901F0913A010F
:1011C00022E044EF6FEF84819581E8C00895AEE09E
:1011D000B0E0EDEEF8E00C94943B142F322E202E6C
:1011E0006B017C010F7080E389838A838B838C83FE
:1011F0008D838E83F7FE0AC0A0DAF094E094D09439
:10120000C094C11CD11CE11CF11C04C025FE02C00D
:101210008BE293DE033071F0043099F00530C1F0B9
:101220000630F1F0073021F174E6472E512C612C85
:10123000712C25C068EE462E63E0562E612C712C71
:101240001EC050E1452E57E2552E612C712C17C05F
:1012500040EA442E46E8542E66246394712C0FC055
:1012600030E4432E32E4532E3FE0632E712C07C04E
:1012700020E8422E26E9522E28E9622E712C9AE0AF
:10128000892E912CA12CB12CC414D504E604F704AA
:1012900070F0C701B6016B5F7F4F8F4F9F4FA50165
:1012A00094010E94AC3A69017A011F5FEDCFE1E140
:1012B000E10F9BEAE99FE12D11247E2E769486E0D2
:1012C000811B899F112D11241695912F990F190FAC
:1012D000811B182F5E0187E0A80EB11C2AE0A50132
:1012E000C701B6010E94F13BF50101900020E9F72A
:1012F00031976F01CA18DB082C2D5601BB24812FB2
:1013000090E004968A159B0514F473941D5FE72DF5
:10131000F0E0EA51FE4FF49024FE04C0201710F4D0
:101320000C1901C000E08C2C811A800E181424F0D6
:101330008EE203DE012F0C19111102C088EF882EF6
:10134000E12C10E0A00EB11EC82C082C000CDD080A
:101350008E2D90E08A159B05ACF4FC013696E01BBF
:10136000F10B81E090E08C0F9D1FE80FF91F808149
:10137000E4DDE3948E2D90E08C159D0549F78EE217
:10138000DCDDE6CFFF2011F08F2DD7DD332011F00B
:10139000832DD3DD2E96E2E10C94B03B0F93362FD4
:1013A000BC0180E090E0022F242F432F10DF0F912B
:1013B00008950F93062FBC0180E090E026E54DEFE5
:1013C00006DF0F9108950F93042F28E440E0FFDE1D
:1013D0008AE7B3DDB0D90F91089523B1221F2227E8
:1013E000221F1D99226080910D01843050F08EE003
:1013F0008093090120930A0110920E0181E08093ED
:101400000D0190910D01E92FF0E0E75FFE4F308173
:10141000231781F1E3E0E90FE37080910E012111C0
:1014200009C0323071F5F0E0E75FFE4F30813330B4
:10143000C1F414C02330A9F4323041F4F0E0E75F86
:10144000FE4F308131110DC0815009C0313049F457
:10145000F0E0E75FFE4F3081311103C08F5F809372
:101460000E01E1E0E90FE370E0930D01F0E0E75FCA
:10147000FE4F208380910E0187FD819580930F019F
:101480000895313071F7F0E0E75FFE4F308133307F
:1014900041F7DACFA0E0B0E0E0E5FAE00C949D3B44
:1014A000E82ED92E279825982BDA10920E01E0917C
:1014B0000D01F0E03196E370FF27E75FFE4F80EF0C
:1014C0008083C5E6D9E189DF379905C01DDAD1509F
:1014D000D1F7C150B9F7CE2DDD2DF12C15E500E087
:1014E000BB24B394D7FD36C082E3C82E76DF0CDA76
:1014F000CA94C110FBCF110F379B1F5F1F731F339F
:1015000049F4011103C0CE2DDD2D04E00F5F083C2E
:1015100028F020C0111102C001111CC0A8951C1692
:101520001D0624F42A9711F4CFEFDFEF80910F010D
:10153000882339F0F39480917301811102C0B09235
:10154000730184E18F1570F680910E01811102C044
:10155000F12CC8CF802FCDB7DEB7E9E00C94B93BB2
:10156000CF93E2DCC82F80913B01882301F18130C9
:1015700051F4C33041F463E183E01DDD8BE2DDDC37
:1015800063E183E018DD80E49FE184DF811104C022
:1015900080910F018111F7CFC33041F480913B015D
:1015A000813021F460E083E006DDB5DD17DDCF9109
:1015B00008951895189530911401A0913901B091B2
:1015C0003A01EDE8F1E080E090E08317B0F441915A
:1015D0001C962C911C97421719F04581241302C0C8
:1015E0000196F3CFFC01EE0FFF1FE756FE4F20815F
:1015F0003181293E334008F4089584E10895109222
:1016000016011092140110926B0110924B0110926E
:1016100015011092370110927201E6E5F1E0108297
:1016200011821282E7E7F1E0108A82E0818B10924A
:101630001C0117861686148215821682178281EF86
:10164000838B08958FE435D986E433D986E431D984
:10165000CBDC299844D980E090E01CCF08951F93FB
:10166000CF93DF93162F11B812B8E82FF0E0E251B4
:10167000FE4F94919BB9262F281BE20FF11D27FDE9
:10168000FA95E491E92BEAB984D9EC01812F81D94B
:10169000AC0120912C0130912D0136952795C9017F
:1016A0000397BE01625E7F4F8617970778F4255E29
:1016B0003F4FC217D30750F4BA01625E7F4F8617BF
:1016C000970720F481E04217530708F080E01AB82A
:1016D000DF91CF911F910895CF9361E080E0BFDF4C
:1016E000C82F62E080E0BBDFC80F62E081E0B7DFB7
:1016F0008C0FCF910895AFE0B0E0E1E8FBE00C94EF
:10170000943BB82E10921601807FA9F4E5DF833058
:1017100009F07AC376DC88E395E09FDC78DC8FE320
:101720000CDC80ED97E0B6DE8B30C0F46ADC89EA31
:1017300092E093DC69C306E910E063DC88E994E099
:101740008CDCCADF833021F41F5F143010F006C038
:1017500010E088E2E6D8015081F760C058DC0E94B2
:10176000092385E692E079DC60E082E090E00E9467
:10177000523C60E083E090E00E94523C60E081E0F7
:1017800090E00E94523C60E082E021DA6C019A8392
:10179000898361E082E01BDA7C019C838B8360E0BB
:1017A00081E015DA8C019E838D8323E040E26EEFA9
:1017B000C601F4DD23E040E26EEFC701EFDD23E078
:1017C00044EF6EEFC801EADD2AE5C216D10424F029
:1017D00084E190E09A838983698182E090E00E94AD
:1017E000523C8AE5E816F10424F084E190E09C8301
:1017F0008B836B8183E090E00E94523C0A35110597
:1018000024F084E190E09E838D836D8181E090E0FF
:101810000E94523C82E080933B01A2DEEB2DEF70F0
:10182000EF87E13011F018E744C1EE24E394F12C86
:1018300078EB872E72ED972E77E4A72EB12C08E077
:10184000E0E2DE2EF0E83F2EC12C1E2D58E8252EBA
:101850008EDC89DC84E571DBC7010E9490030E9465
:101860009B031130B9F488E992E0F7DB64E08091E2
:101870003001909131019DDDCADB83E992E0EDDB1F
:1018800080917501909176010E9490038EEB809378
:101890002801EBC0123079F520912C0130912D01F7
:1018A000A8E5BBE10E94EA3A24EC36E340E050E0D0
:1018B0000E94CE3A29013A01F4E0FBB984E18AB9E9
:1018C00080E05BD8841995099A83898384E48AB976
:1018D00080E053D8841995099C838B8380E18BB970
:1018E00080E58AB981E049D8841995099E838D8362
:1018F0008DE792E0A5C0133041F50BB928E22AB973
:1019000080E03BD820912C0130912D013695279510
:1019100038872F83821B930B9A8389832AB880E0B0
:101920002CD82F813885821B930B9C838B83DBB84B
:1019300080EA8AB981E021D82F813885821B930BF8
:101940009E838D838FE692E07BC0143039F488E269
:1019500095E083DBC1DE811154C276C01530A1F45D
:101960001BB80AB980E009D89A838983DAB881E084
:1019700004D89C838B833AB882E00E94BD049E8386
:101980008D838FE892E05CC0163051F50AB90BB92F
:1019900080E00E94BD0420912C0130912D01821B1A
:1019A000930B9A838983DAB8DBB881E00E94BD0487
:1019B00020912C0130912D01821B930B9C838B83F2
:1019C0003AB83BB882E00E94BD0420912C013091CE
:1019D0002D01821B930B9E838D838BE892E030C098
:1019E000173081F520912C0130912D01A8E5BBE144
:1019F0000E94EA3AA50194010E94AC3A29013A01F9
:101A00000BB9ECE0EAB980E00E94BD0484199509A5
:101A10009A838983DBB8F0E3FAB981E00E94BD04C0
:101A2000841995099C838B833BB820EC2AB982E00A
:101A30000E94BD04841995099E838D8389E692E0F6
:101A40000CDB02C0113089F0E2DA89819A810E94B0
:101A500085030E949B038B819C810E9485030E94C9
:101A60009B038D819E810E94850311B812B81AB81C
:101A70001BB888EE93E00EDD143011F08B3020F4AB
:101A8000C39484E0C812E4CE88EE93E003DDEFEF68
:101A9000EE1AFE0AF8E0EF16F10409F0D5CEC3CE37
:101AA00066DB88E295E0D9DA84E60E949104115061
:101AB00019F012DE8111F4CFA4DA8EE592E0CDDACE
:101AC00023E044EF6FEF80912E0190912F0166DCAF
:101AD0009EDA87E592E0C1DA23E044EF6FEF809170
:101AE0003501909136015ADC82E080933B0138DD6C
:101AF0001092160186DA83E592E0AFDA60E082E0C8
:101B00000E94F11F80907F0190908001A090810140
:101B1000B09082019C868B8661E082E00E94F11F7A
:101B2000C0907F01D0908001E0908101F09082010F
:101B3000DE86CD8660E081E00E94F11F00917F018A
:101B4000109180011E830D8362E080E00E94F11FEE
:101B500080917F01909180019C838B8362E081E082
:101B60000E94F11F80917F01909180019A8789875F
:101B700061E080E00E94F11F80917F0190918001DF
:101B80009A8389832F85213021F0209134012230DE
:101B900021F4029698878F8306C098878F831092CE
:101BA00034018CE003DAC4010E949A03C6010E944A
:101BB0009A03B801110F880B990B03E026E444EF58
:101BC00006DB8E010F5F1F4F6E018FE0C80ED11C28
:101BD000F801819191910A97853B9105C8F4CE1641
:101BE000DF06B9F741E2E42E40E0F42EF80160810F
:101BF0000E5F1F4F6E5EC7010E94523CFFEFEF1A4F
:101C0000FF0AC016D10691F702DA80E694E025DAE1
:101C100082E080933B01A4DC0E9411372F852130A4
:101C200029F080913401823009F0D6C020E4F22EF0
:101C300010E03AE0832E912CA12CB12CE0DC0E9424
:101C400043320091890120917701309178014091D0
:101C5000790150917A01073F44F40F5FCA01B9013D
:101C6000A50194010E94AC3AF6CF0093890120931C
:101C70007701309378014093790150937A01073FBF
:101C800009F094C0DA01C90180569109A109B1098E
:101C900080399545A105B10508F088C060918B0198
:101CA00070918C01CB018B569F4F8B32914008F085
:101CB0007DC01F5F153008F47AC088E290E00E9472
:101CC000603C9FD98FED91E0C8D980918B019091B4
:101CD0008C010E9485030E943C0546983E9A87E04D
:101CE0000E94C904853D9340D4F73E9810922B0181
:101CF00010922A0187E00E94C9048C018091700132
:101D00009091710190932B0180932A0187E00E94AA
:101D1000C9047C01EE0CFF1C10922B0110922A01C9
:101D200087E00E94C904A0907001B0907101B09248
:101D30002B01A0922A01800F911F8C010E191F09FF
:101D400066D988ED91E089D98AE290E00E94453C0D
:101D5000D82E9501D8010E94F93A97010F2C000C5A
:101D6000440B550B0E94CE3A13E01D0D120F612F4C
:101D70008AE290E00E94523C812F012E000C990BC8
:101D80000E9485030E943C0582E080933B01E8DBD2
:101D9000109234018CE00AD981E290E00E94453C27
:101DA000682F84E290E00E94523C16C010E02FD9C8
:101DB00060917701709178018091790190917A0119
:101DC00004E026E44091890102DAA5D988E20E9464
:101DD0009104FA94F11032CF89E18093280180E0D8
:101DE0000E94243A0ED989EA92E037D910D98FE1BE
:101DF00095E033D91092160182E080933B01B0DB6D
:101E000003C082E0C82E20CE2F96E2E10C94B03BB6
:101E10008091340181110DC081E290E00E94453C27
:101E200061E0680F84E290E00E94523C81E0809380
:101E300034010895EF92FF920F931F93CF93DF9396
:101E4000D62FE82FF0E0EF50FE4FE491E2B9E1B970
:101E50001BB8E62FF0E0E251FE4FE491EAB988E8C2
:101E6000E82E83E1F82ECE2FCC0F8D2F0E94BD04DB
:101E70008C01CAB98E159F0510F47801F6CF892B15
:101E8000D1F0D7D886EF93E0E8D8D80120EA36E839
:101E900041E050E00E94FF3A28E937EB40E050E093
:101EA0000E94AC3ADA01C90122E041E467EF76DA38
:101EB00011B812B81AB8CDB7DEB7E6E00C94BC3B47
:101EC000A0E0B0E0E6E6FFE00C94983B82E084B945
:101ED00085B986E880937A001092C1000E9471044F
:101EE000599A519AC4B784B7877F84BF0FB6F894C4
:101EF000A8958091600088618093600010926000D6
:101F00000FBE84E98093640088E380937E00109282
:101F1000B00087E08093B1007894C1D8C3FDC2C5FA
:101F200080E185BF0E94723584E080930D01C0E09E
:101F3000379906C082E00E949104CF5FCC33C1F78D
:101F40008FE59DE69093080180930701CF3130F033
:101F500080E69DE690930801809307011092290185
:101F60000E9409239FE088E10FB6F894A89580931A
:101F700060000FBE90936000CC3361F06AE0D62E13
:101F800010E17CE3E72E71E0F72ECCE5D1E0EDE047
:101F9000CE2E31C00E94992C8111FCCFEFCF823020
:101FA00009F4BCC1833009F4E6C183E895E055D853
:101FB0008BE695E052D82BD880911401805D0E9469
:101FC0009D078AE20E949D078BED92E046D881E54D
:101FD00095E043D809D830E4A32E3FE1B32E11B9E0
:101FE000379BFECFC50156DA823308F4DFC40E9466
:101FF000992C8111FCCF05D811B801DB0E9409236F
:102000000E94F90761D580913701882371F00E9401
:1020100007088BE094E021D863E080912C01909137
:102020002D01C7D988EC0E949104379914C09FD81C
:1020300080EF93E012D811B883E00E94C5045C01E0
:102040000E94F40763E0DA9CC001DB9C900D112430
:10205000B0D98CE3E8CF0E9407080E941B1F809133
:102060001601893021F50E94010880E194E00E9468
:102070002D080E94070863E0809150019091510162
:1020800098D90E949B0363E0809152019091530183
:1020900090D90E949B0363E0809154019091550177
:1020A00088D98AEC0E94910481E125DB7AC48CE016
:1020B0000E94D60784E290E00E94453CB82E81E25F
:1020C00090E00E94453CB81AB0923401BB2019F050
:1020D0008EE00E94D60780E00EDB49D88DE995E0BE
:1020E0000E942D0883E00E9459040E94F40742E0F8
:1020F00061E080E05FD542E060E081E05BD541E0F7
:1021000062E080E057D541E060E082E053D540E0F6
:1021100062E081E04FD540E061E082E04BD5809104
:10212000160181110EC00E941B1F60E082E00E9418
:10213000F11F61E082E00E94F11F60E081E00E94F7
:10214000F11F80911601833061F480911401823077
:1021500041F490918D0180918E01981302C00E94EC
:10216000AB330E940108F0923A01E092390180916C
:102170001601863041F484E795E00E942D0841E481
:1021800067E483E417C0873041F48DE795E00E944F
:102190002D0842E367E481E30DC08A30E1F484EC6A
:1021A00091E00E942D08D0933A01C093390143E495
:1021B00067E481E40E94A1030E94070884E294E09E
:1021C0000E942D08E0913901F0913A0162E084818A
:1021D0009581EFD8E4C3823009F040C080EC91E0F3
:1021E0000E942D0842E365E481E30E94A10380E0A0
:1021F0000E94910860914A0180914901E62FF0E028
:10220000EA5AFE4FE80FF11D319710820E94F11C2F
:1022100080914A01E0914901F0E0E80FF11DEE0FD5
:10222000FF1FEE0FFF1FEA55FE4F60817181828113
:10223000938102E024EF4FEF0E94E7088AEB91E0E0
:102240000E942D08609146017091470180E090E066
:1022500003E025E240E00E94E708A3C3883081F450
:10226000209187018091880190E0820F911D029753
:1022700019F40E946425A3C380E00E94932491C3B3
:10228000833009F0B6C080911401813009F087CE07
:1022900080E00E942D0460918D0180919301CADD40
:1022A00080E70E94050440E060918D0180919301D8
:1022B0000E9434366093770170937801809379019E
:1022C00090937A0180E00E94AB0860917701709151
:1022D00078018091790190917A0102E026E442EF41
:1022E0000E94E7080E949D0341E060918D0180916A
:1022F00093010E9434366093770170937801809344
:10230000790190937A0126E442EF0E94E70880ED7C
:1023100092E00E942D080E94F407A1C282E30E946D
:102320009D0781EC92E00E942D0890918D013091E3
:102330008E01931307C080E00E94490481E00E944F
:1023400040040CC02091930180919401281308C08F
:1023500080E00E94390481E00E94500481E0A1CF16
:10236000321304C081E08093020135C098131DCE62
:102370001093020130C083E38093020180919301A6
:1023800090918E01891303C021E0209302014091B6
:102390008D0130919401431302C0109302012091EA
:1023A0008F01821303C082E0809302018091950126
:1023B000481303C040E24093020132130FC022E1F0
:1023C00020930201981761F083E30E949D0781EC3E
:1023D00092E00E942D080E941B0441C2981303C082
:1023E00081E28093020180910201823208F0DDCD0A
:1023F000EBCF843009F04FC180916B01882309F441
:102400005FC080914B01882309F45AC06091480154
:1024100080914A010E94F11F80907701909078018D
:10242000A0907901B0907A010091890160916A01D0
:10243000809168010E94F11F80913C0190913D01C3
:10244000A0913E01B0913F0140915C0150915D012E
:1024500060915E0170915F01843F21E09207A105C8
:10246000B10538F4443F31E053076105710508F0C8
:1024700000EF443F51406105710540F4843F9140B5
:10248000A105B10518F080EF809389018091890141
:1024900008130EC08091770190917801A091790185
:1024A000B0917A0188169906AA06BB0618F005C0F5
:1024B00008171CF4C092150103C08CE0809315012D
:1024C00080916B01882361F080914B01882341F05A
:1024D000379906C09091150181E0892780931501F5
:1024E000809115018C3051F487E394E00E942D080F
:1024F00080916B01882389F080E70DC0D0933A0169
:10250000C093390183E394E00E942D0880914B0130
:10251000882319F08EE60E949D070E949B034BD8EA
:10252000B82E84E08B15E8F0809115018C3041F4D1
:1025300081E02091490190914A01921748F007C02B
:1025400081E02091690190916A01291708F080E0EB
:10255000882319F08BED92E002C087ED92E00E9493
:102560002D0843E462E485E40E94A1030E94070869
:102570008FE394E00E942D08E0913901F0913A0137
:10258000608171818281938103E020E04EEF0E949F
:10259000E7080E949B0389E40E949D07E0913901AE
:1025A000F0913A01868197818031974270F085E6FB
:1025B0000E949D07E0913901F0913A01868197814F
:1025C000805197429783868303C083E60E949D07CC
:1025D0000E949F03E0913901F0913A0122E041E429
:1025E0006AEF868197810E94CE0980E00E94AB0845
:1025F00088E294E00E942D08E0913901F0913A01BF
:1026000063E0848195810E94D909E0913901F091BC
:102610003A0180859185892B91F080E00E94AB087A
:1026200083EA92E00E942D08E0913901F0913A018D
:1026300023E041E46AEF808591850E94CE09E09114
:102640003901F0913A0182859385892B91F080E0E0
:102650000E94AB088DE992E00E942D08E0913901BB
:10266000F0913A0123E041E46AEF828593850E946C
:10267000CE0934E03B1508F494C180E00E94AB0819
:102680008B2D0E942D0484E294E00E942D088B2D56
:102690000E94F70384C1853009F0EDC080911501D7
:1026A00084FF08C080E50E949D07D0933A01C09343
:1026B000390103C08EE40E949D070E949D03809112
:1026C0001501082F0F70043041F48AE494E00E9451
:1026D0002D084FE367E48FE311C085FF02C084E457
:1026E00001C085E40E949D07033009F0D3C184E452
:1026F00094E00E942D0843E467E485E40E94A1036E
:102700008091150185FD18C00E940708E0913901EC
:10271000F0913A01668584850E94F11F0E94BB08F2
:102720008FE194E00E942D08E0913901F0913A0187
:1027300062E08285938574C08F70843071F080E090
:102740000E949108E0913901F0913A0166858485F3
:102750000E94F11F0E94BB081AC0E0913901F0915C
:102760003A0184819581892B91F080E00E94910843
:1027700084EB91E00E942D08E0913901F0913A013B
:1027800022E041E46AEF848195810E94CE0980E0D5
:102790000E94AB0889E40E949D0784E60E949D0781
:1027A0000E949F03E0913901F0913A0122E041E457
:1027B0006AEF868197810E94CE098AE194E00E94A7
:1027C0002D08E0913901F0913A0162E0828593850C
:1027D0000E94D909E0913901F0913A0180859185F3
:1027E000803C9241F8F480E00E94AB0889E40E94AA
:1027F0009D0784E60E949D070E949F0322E041E41A
:102800006BEF80E090E00E94CE098AE194E00E94A4
:102810002D08E0913901F0913A0162E080859185BF
:102820000E94D90980E00E94D308043009F4B9C09D
:10283000B12C80911401B81608F0B3C080E00E945A
:10284000AB088B2D0E942D0484E294E00E942D0899
:102850008B2D0E94F7030E94F407B394EACF0E94E5
:10286000F40780917201882309F49BC011B911B853
:1028700080E00E94AB0820917201222309F482C0FB
:102880002130A1F4809159010E94C803209159017F
:10289000213039F420911401211103C00E941B251D
:1028A0008EC040E0692F0E94D6237BC090915901D1
:1028B00080915A0134E0839FD0011124A655BE4F68
:1028C00034E0939FF0011124E655FE4F8D909D90CA
:1028D000AD90BC904081518162817381481559054A
:1028E0006A057B0510F4082F01C0092F223021F45E
:1028F000890F03E0081B1CC080915B0194E0899F55
:10290000D0011124A655BE4F24E0029FF0011124EE
:10291000E655FE4F8D909D90AD90BC9040815181C9
:1029200062817381481559056A057B0508F4082FF3
:10293000A02EA69482E0B82EB01A011103C09924EB
:10294000939402C042E0942E8A2D0E94D3078CEB10
:1029500092E00E942D088B2D0E94D3078CEB92E011
:102960000E942D08892D0E94D30780E00E949108C3
:1029700081E0011180E00E94D20382E08A190E9466
:10298000D2030FC08BE595E00E942D080E94070836
:1029900088E895E00E942D0883E895E01ACB0E9414
:1029A000F407A0900701B090080119CB90910F0196
:1029B000933008F01CCB81111ECB911113CB8CE00E
:1029C0000E94D60780913401811142C00E94220BDF
:1029D00012CB802F8370982E11F40E94010860E0C2
:1029E000892D0E94DB070E94F407A8950F5F0370F2
:1029F000812C912C871480F1662009F442C0A70C29
:102A0000B11CF501E152FD4FE491E03219F43FEFC2
:102A1000A31AB30A80E090E024E1722EFC01EA0DD3
:102A2000FB1DE152FD4F649030E2631201C0782E2D
:102A300001968531910591F70111CBCF80E29EE49B
:102A40000E944A0A81111DC080910E0187FFC1CFEB
:102A500004E0A12CB12CDECFF501E80DF91DE15207
:102A6000FD4F6490662069F09FEF691203C00E94D9
:102A70009B0303C0862D0E949D072FEF821A920AA6
:102A8000B9CF80E29EE40E944A0A80910E0187FD40
:102A9000DFCF9CCF8FE494E00E942D0844E467E4EC
:102AA00083E52CCE0E94F90788E495E00E942D086A
:102AB0008BEC0E9491040E94220B80E090E0CDB745
:102AC000DEB7EEE00C94B43B0F931F93CF93DF93EC
:102AD00085E00E94C90485E00E94C504EC018C01D8
:102AE000000F111F000F111F10923201C8018E5EDE
:102AF00092408138954250F084E594E00E942D0880
:102B00000E948B0881E08093320128C083E694E024
:102B10000E942D0862E0C8018A569F4F0E94D90981
:102B20000E949B03CA3F86E0D80790F4C333D64087
:102B300060F481E995E00E942D080E948B088DECDD
:102B40000E9491040E94220B09C088E995E002C00E
:102B500080E694E00E942D080E948B08DF91CF91BF
:102B60001F910F910895CF93DF93DC019C01261BE9
:102B7000370BE0E090E0B901690F711D672F7727EF
:102B8000920F260F371FBA016E0F711D672F77271F
:102B9000E40FEB01CC0FDD1F4C0F5D1F6B3E28F4E3
:102BA000A217B30740F7CA0102C080E090E0DF91AE
:102BB000CF910895A7E1B0E0E0EEF5E10C94943BED
:102BC0008E8B162F042FA895E62FF0E0E251FE4FD2
:102BD00024912D87220F2D8B339634913A83E42F45
:102BE000F0E0E251FE4F44914B83E42EEE0C33961D
:102BF000F490E82FF0E0E251FE4F84918983880F32
:102C00008E87339694919F8B4BB94D84442A4AB852
:102C100091B992B9862F0E94C5049C878B878B81BE
:102C20008E298BB95D845E285AB8812F0E94C50415
:102C3000ED85EAB9812F0E94C5041C011AB80E94D3
:102C40007A041BB84AB8812F0E94C5046B857C8525
:102C50000E9428054C01FA81F1B912B82B81398103
:102C6000232B2C832BB92AB98E890E94C5040E947C
:102C70002E055C011BB80E947A0449814BB98E89EC
:102C80000E94C5040E942E056C0189818AB98E8933
:102C90000E94C5040E942E053C01B601C5010E9498
:102CA00028058032E1E09E0730F4F0E28F16F1E073
:102CB0009F0608F49CC58C0C9D1C2B853C85820FBF
:102CC000931F8816990618F4DC86CB861301209191
:102CD0004B0130916B01822F90E0830F911D029781
:102CE0004CF0213009F083C5909148018091680132
:102CF00098137DC539813E293A878B859C85843719
:102D0000910508F489C1880F991F44962816390641
:102D100008F082C19F8991B992B95AB8812F0E9457
:102D2000C1046C01802F0E94C9045C01EBB8812FA3
:102D30000E94C1049601295A3D4F12B8281739073D
:102D400008F0AAC0EA81E1B9FA85FAB9FBB9802F87
:102D50000E94C10488349F4028F085E080931601CA
:102D600082E204C085E08093160184E2809315011D
:102D7000D0924101C0924001B501C6010E943305C5
:102D800090934701809346019601A0E1B7E20E942B
:102D9000EA3A209110013091110140E050E00E9488
:102DA000AC3A30934301209342018D898E298AB930
:102DB0001BB83F8931B932B9802F0E94C9046C0118
:102DC000812F0E94C104B6010E9433059C0190939B
:102DD000450180934401909115019F70943071F5E5
:102DE0004091420150914301609146017091470129
:102DF000C901B9DE0097F1F0EAB84F898A81482B02
:102E000041B9812F0E94C1046C0111B89C01A0E15D
:102E1000B7E20E94EA3A209135013091360140E054
:102E200050E00E94AC3AA901B60180914401909112
:102E3000450199DE909341018093400180911501F5
:102E40008F70843009F4CBC412B89A81F92AF1B892
:102E5000E981EAB9FC81FBB98E890E94C5046C0145
:102E60000E942E057C01812F0E94C904A0901701A9
:102E7000B0901801BC01C6010E9433059501DC0128
:102E80000E94EA3A970140E050E00E94AC3A309349
:102E9000410120934001A3C42A8121B93A853AB95E
:102EA0003BB98E890E94C1046C01802F0E94C90425
:102EB0005C0149814BB98E890E94C104895A9D4F9A
:102EC0008C159D0508F093C48F8982B981B9802F34
:102ED0000E94C104813D934028F485E0809316014F
:102EE00082E304C085E08093160184E3809315019A
:102EF000B601C5010E943305909367018093660176
:102F0000C6010E942E059C01A0E1B7E20E94EA3AA8
:102F1000209117013091180140E050E00E94AC3A36
:102F2000309363012093620112B8FA81F1B98E8562
:102F30008E298AB98BB98E890E94C9046C01802FB1
:102F40000E94C104B6010E9433059C019093650163
:102F500080936401909115019F70943091F5409198
:102F60006201509163016091660170916701C9012E
:102F7000FADD009711F1EBB8EAB82F8922B9EA819E
:102F8000E22BE1B98E890E94C1040E942E056C01DA
:102F900011B89C01A0E1B7E20E94EA3A20912E010B
:102FA00030912F0140E050E00E94AC3AA901B601F7
:102FB0008091640190916501D6DD909361018093C9
:102FC0006001809115018F70843009F4E6C13F895A
:102FD0003F2932B931B91BB84C814AB98E890E9458
:102FE000C5045C01812F0E94C9047C01C0901001BE
:102FF000D0901101BC01C5010E9433059601DC018E
:103000000E94EA3A970140E050E00E94AC3A3093C7
:10301000610120936001C1C112B88A8181B999818F
:103020009BB9EA85EAB98E890E94C504988B8F877F
:103030000E942E059F838E83802F0E94C90499874A
:1030400088873101F4E66F0E711C2E813F81B1013A
:1030500062167306D8F4C9010E9433056C012091F1
:1030600017013091180140E050E060E871EA83E018
:103070009CE10E94AC3AD6010E94FF3AE885F985AE
:103080004F01A12CB12CA501940123C08E819F81F9
:103090000E9433056C01FC81FAB98E890E94C50437
:1030A000988B8F870E942E059F838E83802F0E948E
:1030B000C90499878887BC01C6010E9433059C0119
:1030C000A4E6B0E00E94EA3AE885F9859F0140E075
:1030D00050E00E94AC3A49015A011AB81BB8FF8966
:1030E000F2B9F1B981E00E9491044AB8812F0E949F
:1030F000C5048F359D4008F456C15AB8812F0E94EF
:10310000C1046C01802F0E94C9049A8B898B8E891F
:103110000E94C9049C8B8B8B89899A89813D974039
:1031200008F4CAC0EBB8812F0E94C10481159440F5
:1031300098F080911601843078F48AE0809316012B
:1031400069897A898B899C890E94330590936101F2
:103150008093600181E026C484E0809316018DE0B5
:103160008093150176012C143D0410F4E218F30845
:103170004090100150901101612C712C60E871EAAF
:1031800083E09CE1A30192010E94AC3AD7010E9426
:10319000FF3AE989FA899F0140E050E00E94AC3A89
:1031A00080916B01882369F080915C0190915D01B1
:1031B000A0915E01B0915F0182179307A407B50744
:1031C00008F520935C0130935D0140935E015093BC
:1031D0005F019601A0E1B7E20E94EA3AA3019201E1
:1031E0000E94AC3A309363012093620169897A8925
:1031F0008B899C890E9433059093610180936001C3
:1032000081E001C080E040915C0150915D016091DE
:103210005E0170915F01481559056A057B0538F517
:1032200080925C0190925D01A0925E01B0925F017C
:10323000688579858F8598890E943305909361010F
:10324000809360012E813F81A0E1B7E20E94EA3ABB
:10325000209117013091180140E050E00E94AC3AF3
:10326000205F384D309363012093620103C08823AF
:1032700009F498C3C0901001D0901101E12CF12CF9
:103280009101A0E1B7E20E94EA3AA70196010E94EB
:10329000AC3A30936501209364012B853C85A0E115
:1032A000B7E20E94EA3AA70196010E94AC3A309335
:1032B0006701209366014ECFF1E62F16310408F026
:1032C00072C021EDC21627E0D20608F46CC085E07A
:1032D0008093160182E180931501C60186509F4FAD
:1032E000EB89FC898E179F0720F483E180931501F9
:1032F00016C0E0901001F0901101B6018B899C89F5
:103300000E9433059701DC010E94EA3A960140E0F1
:1033100050E00E94AC3A3093610120936001FA8141
:10332000F770BF2E802F806480937C002BE0298370
:10333000CC24C394D12CEE24EA94A3E0FA2EA895D1
:1033400061E08B8160D55AB880B18B21E9F33D856E
:103350003AB980917A00806480937A0080917A00F3
:1033600086FDFCCF8091780090917900F701E81BF1
:10337000F90BCE0EDF1EF981F150F983F111DFCF89
:10338000C601880F991F880F991F69E070E00E949D
:10339000853A709367016093660180916B018F5F3E
:1033A00080936B01D7CE5AB8EBB8812F0E94C50429
:1033B0005C01802F0E94C9049F838E830E942E058A
:1033C0007C016A147B04A8F4B101C5010E94330595
:1033D0006C01209110013091110140E050E060E853
:1033E00071EA83E09CE10E94AC3AD6010E94FF3A68
:1033F0001DC04AB82B812BB9812F0E94C5045C01E6
:10340000802F0E94C9049F838E830E942E057C0119
:10341000C5012A143B0410F482199309B7010E94D4
:1034200033059C01A4E6B0E00E94EA3A970140E02F
:1034300050E00E94AC3A29013A013A8131B912B800
:103440004C814AB94BB98E890E94C5046C01802F0A
:103450000E94C9044C01812F0E94C9047C0180E3B1
:10346000C81681E1D80608F0C0C199819BB98E8940
:103470000E94C50499878887E981EAB98E890E94EC
:10348000C504988B8F871BB881E00E949104F98155
:10349000FBB98E890E94C5042F85388920343640B7
:1034A00008F05FC08133914108F45BC0C6018A56C1
:1034B0009F4F288539852817390708F052C086E0C4
:1034C0008093160180914B018F5F80934B01B70170
:1034D000C4010E9433059093410180934001B701DC
:1034E000C6010E94330590934701809346011AB8A4
:1034F0001BB83A8132B981E00E94910449814AB9EE
:103500008E890E94C504853F910508F05AC28C81BE
:103510008AB9802F0E94C504813D934008F451C2AE
:103520008E890E94C9048D3D924008F44AC22981C7
:103530002AB98E890E94C5048D3D924008F441C28B
:1035400049814BB981E00E9491041BB88E890E9489
:10355000C504853F910508F034C287E080931601C9
:1035600030C28A8181B99B819AB99BB981E00E945E
:103570009104EA85EAB9EBB98E890E94C5046C0111
:103580000E942E057C01802F0E94C9049D838C839C
:103590000E942E0599878887812F0E94C9044C01BB
:1035A000288539852E3F394008F4B0C084E08093E7
:1035B00016018CE080931501B101C7010E9433050B
:1035C0006C01209117013091180140E050E060E853
:1035D00071EA83E09CE10E94AC3AD6010E94FF3A76
:1035E000E885F9859F0140E050E00E94AC3A809167
:1035F0004B01882369F080913C0190913D01A0919D
:103600003E01B0913F0182179307A407B50720F54B
:1036100020933C0130933D0140933E0150933F0184
:10362000B4018C819D810E94330590934101809368
:1036300040019701A0E1B7E20E94EA3A2091170108
:103640003091180140E050E00E94AC3A30934301C1
:103650002093420181E001C080E040913C01509103
:103660003D0160913E0170913F014415550566058D
:10367000770528F540923C0150923D0160923E0151
:1036800070923F01B5018E819F810E943305909316
:103690004101809340019501A0E1B7E20E94EA3A1E
:1036A000209110013091110140E050E00E94AC3AAD
:1036B000205F384D309343012093420103C088239B
:1036C00009F480C19101A0E1B7E20E94EA3A209199
:1036D00010013091110140E050E00E94AC3A30936B
:1036E0004501209344012B853C85A0E1B7E20E946F
:1036F000EA3A209117013091180140E050E00E9411
:10370000AC3A30934701209346015BC1F1E62F1696
:10371000310408F06AC029E4E2162DE0F20608F44C
:1037200064C085E08093160182E080931501C40196
:1037300086509F4F8C159D0520F483E080931501E2
:1037400015C0A0901701B0901801B401C6010E94E5
:1037500033059501DC010E94EA3A970140E050E010
:103760000E94AC3A30934101209340013F89377069
:10377000D32E802F806480937C004BE04A83EE241C
:10378000E394F12CA89560E08B813DD38A858AB9BA
:103790008BB980B18D21E9F799819AB980917A002E
:1037A000806480937A0080917A0086FDFCCF8091BE
:1037B000780090917900E80EF91EEA81E150EA83E1
:1037C000E111E0CFC701880F991F880F991F69E0A9
:1037D00070E00E94853A70934701609346018091A2
:1037E0004B018F5F80934B01ECC011B812B81AB82F
:1037F0001BB811B8F7EC2F16F1E03F0608F4C4C06F
:1038000012B82E852AB908ECEA803F89E32AE1B88C
:1038100081E00E9491044A8141B98E890E94C904C5
:10382000429710F0015099F78E858AB98BB961E003
:103830008B81E9D28E890E94C5044C019D899AB979
:103840001BB8EF89E1B9E2B960E08B81DCD2812F4E
:103850000E94C5040E942E056C01FD85FAB9812FD6
:103860000E94C9047C018E890E94C504B7010E9490
:1038700033057C01812F0E94C9045C018E890E945E
:10388000C504B5010E94330597012C5E3F4F2817F0
:10389000390708F47CC012B82A8121B939813AB9B4
:1038A0003BB961E08B81AFD2812F0E94C9045C01DA
:1038B0008E890E94C504B5010E9433055C01E8169B
:1038C000F90650F44E854AB94BB98E890E94C50459
:1038D0009C01640175010FC08D898AB91BB89F894D
:1038E00091B992B960E08B818ED2812F0E94C5047C
:1038F0000E942E059C01E8EEEE16E3E0FE0630F491
:10390000C70164E670E00E94853A06C0B70154E042
:10391000769567955A95E1F7C701875991098938D6
:10392000914190F52E153F0578F5C60143E0969537
:1039300087954A95E1F7893C910510F088EC90E075
:103940008C0D9D1D8E159F05F8F46C157D05E0F41A
:1039500080911601833018F483E080931601209142
:103960001401822F90E0FC01E357FE4F3E89308323
:103970001683880F991FFC01E756FE4FF182E08203
:103980002F5F2093140103C0612F8E892AD011B8B4
:1039900012B81AB81BB88EE20E949D076796E2E142
:1039A0000C94B03B90916B019F5F90936B018823C7
:1039B00071F300936801109369014E8940936A0185
:1039C000E6CF81E090914B019F5F90934B0188235C
:1039D000F1F2009348018E898093490110934A01C6
:1039E000D6CFA0E0B0E0E7EFFCE10C94963BA895C1
:1039F000462F50E0FA01E251FE4F94903396949195
:103A0000A82FB0E0FD01E251FE4FE4903396F49010
:103A100070916B0120914B0130E0270F311D232B5A
:103A200009F0ECC1A89520911A0130911B01220FD9
:103A3000331F220F331F30932D0120932C0120912F
:103A4000700130917101220F331F220F331F309309
:103A50002B0120932A012EEB20932801C091140101
:103A6000EDE8F1E070E04A0F5B1F7C1759F02191FF
:103A7000A58130E02A0F311D2417350709F451C004
:103A80007F5FF3CFD62FC82F12B891B9EAB8EBB841
:103A9000B8E1BB2EC12CD12C8D2F0E94C504782EED
:103AA000692E8C2F0E94C9048C018C199D0997FFE7
:103AB00003C0919581959109039734F0A895BA9424
:103AC0006801B110E9CF2DC0EE0C1BB8EAB88C2FFD
:103AD0000E94C5048135910520F5EBB88C2F0E941A
:103AE000C5046C01F1B8F2B81BB89AB8A8E18A2EE7
:103AF000A12CB12C8C2F0E94C504582E492E8D2F3D
:103B00000E94C9047C018A199B0997FF03C0919503
:103B1000819591090397CCF0A8958A94570181105B
:103B2000E9CF80911A0190911B0190932D01809310
:103B30002C01809170019091710190932B018093E1
:103B40002A0189E18093280159C1990C9AB88D2FD7
:103B50000E94C5045C01003C84E4180730F425E8A9
:103B6000C21621E0D206E8F605C080EBC8168DE447
:103B7000D806B8F624EAE21622E0F20608F06CC095
:103B800088E9A816B10468F2C6010E942E05AC01AE
:103B90009601A8E9B7EB0E94EA3A9A0140E050E0AA
:103BA0000E94AC3A29013A01C5010E942E059C01F0
:103BB000A8E9B7EB0E94EA3A850120E030E0A901CC
:103BC00098010E94AC3A88E7C8168FE0D80680F4C6
:103BD000D301C201F2E0880F991FAA1FBB1FFA95FB
:103BE000D1F7BC01CD01620F731F841F951F14C054
:103BF00088E7A8168FE0B806B0F4DA01C901E2E060
:103C0000880F991FAA1FBB1FEA95D1F7BC01CD01F0
:103C1000640D751D861D971D25E030E040E050E0E5
:103C20000E94AC3A0CC0D301C201820F931FA41FA3
:103C3000B51F9C01AD015695479537952795A4E68C
:103C4000B0E00E94FF3A2B013C012CEA420E2DE02D
:103C5000521E611C711C79C0672D762D061717073F
:103C600008F4B801C52CD42CCE14DF0408F4670185
:103C70000617170708F48B01A0901701B0901801E0
:103C8000C8010E9433059501DC010E94EA3A2B012C
:103C90003C01C8010E942E059C0140E050E0C30198
:103CA000B2010E94AC3A29013A01CE14DF0408F4B3
:103CB0007601A0901001B0901101B701C6010E94D9
:103CC00033059501DC010E94EA3A4701A12CB12C91
:103CD000A50194010E94AC3A08378FE0180780F4E0
:103CE000D301C20162E0880F991FAA1FBB1F6A950A
:103CF000D1F7BC01CD01620F731F841F951F14C043
:103D000088E7E8168FE0F806C0F4DA01C90132E06E
:103D1000880F991FAA1FBB1F3A95D1F7BC01CD018F
:103D2000640D751D861D971D25E030E040E050E0D4
:103D30000E94AC3A29013A0108C0420E531E641E8B
:103D4000751E769467945794479410911601143019
:103D500008F0E7CEC1500C2F0D0F202F30E0E90105
:103D6000CA5ADE4F8881220F331F220F331FF901F9
:103D7000E655FE4F8823D9F1C080D180E280F380E0
:103D8000A30192012C193D094E095F0957FF07C095
:103D900050954095309521953F4F4F4F5F4FAAE08A
:103DA000B0E00E94FF3A24E6C20ED11CE11CF11CD7
:103DB000A7019601240D351D461D571D0E94AC3AE2
:103DC000232B242B252B09F0ACCE133019F081E0E6
:103DD0008093160182E0888380917201E82FF0E0E1
:103DE000E75AFE4F00838F5F809372019ACE408224
:103DF00051826282738281E0888393CECDB7DEB731
:103E0000E0E10C94B23BCF93C82FC0959BB160FF0B
:103E100002C0982B01C09C239BB99AB1892B8AB907
:103E200082E00E9491048AB18C238AB98BB1C823A5
:103E3000CBB9CF910895AF92BF92DF92EF92FF92EC
:103E40000F931F93CF93DF931AE08CEFD82E09E0E6
:103E500011B812B81BB8DAB880E00E94C5047C0122
:103E600081E00E94C904EC0182E00E94C9049C0127
:103E700080911601893079F411B81AB8F092510185
:103E8000E0925001D0935301C093520130935501F9
:103E9000209354015CC084E0E816F10440F4C4307F
:103EA000D10568F42430310538F391E00CC091E07D
:103EB00088EEE81683E0F80618F090E001C091E083
:103EC000C83ED34008F49260283E334008F4946022
:103ED00091B9C0E0D0E0A89580E00E94BD045C01EB
:103EE00081E00E94C9047C0182E00E94C90424E1AF
:103EF000A21625E0B20608F4089A24E1E21625E0AD
:103F0000F20608F4099A843125E0920708F40A9A27
:103F100026E0A216B10430F426E0E216F10410F413
:103F2000069738F02196C43F81E0D807A1F60093A8
:103F30001601E12CF12CEC16FD0631F00E948004F4
:103F40002FEFE21AF20AF7CF115009F081CFDF917B
:103F5000CF911F910F91FF90EF90DF90BF90AF90A6
:103F60000895CF92DF92EF92FF92CF932091770145
:103F7000309178014091790150917A01C091890185
:103F80008AE0C82ED12CE12CF12C8C2FCF5F213A66
:103F900096E8390791E04907510538F0CA01B9019F
:103FA000A70196010E94AC3AF0CF80938901A091BD
:103FB0002C01B0912D010E94FF3A28E833E140E046
:103FC00050E00E94AC3A20937701309378014093FF
:103FD000790150937A01CF91FF90EF90DF90CF90CD
:103FE00008958F929F92AF92BF92CF92DF92EF92FD
:103FF000FF921F93CF93DF93982F990F980F2FEF76
:10400000260F920F90934D01E82FF0E0E251FE4F02
:10401000D491262F30E0F901E251FE4FF490F901DE
:10402000EF50FE4FD49090911601913009F49DC24B
:1040300020911401EDE8F1E0DF0190E0921791F09A
:1040400016963C911697631309C03C91831306C0E2
:10405000448555854C3D554008F487C29F5F1196B5
:104060003296ECCF162FC82F109284011092830144
:1040700081EF80938901109277011092780110925C
:10408000790110927A01D7DE12B8D1B8FAB8FBB82C
:104090008C2F0E94C9045C01812F0E94C904A81AB8
:1040A000B90A1AB810924F0110924E0180914E0138
:1040B00090914F01843F914008F0A9C0DBB9DAB973
:1040C0000E947A041AB81BB80E948104A8958C2F0C
:1040D0000E94C9047C01EA18FB0880914E0190916E
:1040E0004F018E37910528F08BE4E816F1040CF4AB
:1040F0008EC080914E0190914F012DE2E21621E099
:10410000F20634F4019690934F0180934E01CECF86
:10411000892B09F0A1C185E1E81685E0F8060CF4C9
:104120009BC189DE1BB887E081B912B8FD2EFF0C58
:10413000FAB880E480937B0084E580BF8C2F806494
:1041400080937C0086E180937A000E948404109220
:104150004F0110924E011092800010928500109233
:10416000840087E286BB81E280936F0081E08093C8
:104170007401FBB89091160180938100953009F08D
:104180004BC081E090E00C2E01C0880F0A94EAF742
:104190008095877081B9F89483B7817F83BF8091C0
:1041A0007401882389F083B7816083BF78948895F0
:1041B00083B78E7F83BFF894A89580914E0190912C
:1041C0004F018034964059F7789410928100E09026
:1041D0008600F090870010926F0086E980937A0045
:1041E0001AB81BB88C2F0E94C9042091300130915D
:1041F0003101821B930B0C9690938C0180938B0161
:1042000080914E0190914F018032934038F011B867
:1042100012B81AB81BB8A9C1D1B8BDCF80914E0150
:1042200090914F019093820180938101F0928001DF
:10423000E0927F0184EF8093890180914E019091FB
:104240004F0182349105C8F060917F017091800127
:10425000809181019091820124E630E040E050E0BD
:104260000E94AC3A20937F013093800140938101FA
:104270005093820186EF80938901A0917501B091DE
:10428000760120917F013091800140918101509110
:1042900082010E94FF3A20E233E040E050E00E94B9
:1042A000AC3A20937F013093800140938101509379
:1042B00082012093770130937801409379015093E4
:1042C0007A014FDE80918901843F09F070C0C0906F
:1042D0007701D0907801E0907901F0907A0180EA3E
:1042E000C8168FE0D806E104F104C0F4A7019601D6
:1042F0002C543F4F4F4F5F4F60EA7FE080E090E0EB
:104300000E94AC3AC20ED31EE41EF51EC092770185
:10431000D0927801E0927901F0927A01C090770111
:10432000D0907801E0907901F0907A01C114D10425
:1043300021E0E206F10428F4D092BB01C092BA0158
:1043400006C081E090E09093BB018093BA01809118
:104350004D0190E08F5D9F4F0E94453C90E0A0E0B2
:10436000B0E08C159D05AE05BF0568F4C81AD90AE2
:10437000EA0AFB0AC0927701D0927801E0927901B3
:10438000F0927A0114C034E1C30ED11CE11CF11C7F
:10439000C816D906EA06FB0610F40E94080F109210
:1043A0007701109278011092790110927A01DAB9AE
:1043B0008091770190917801A0917901B0917A0173
:1043C0004997A105B10508F422CFC12CD12C8091C9
:1043D0001401882329F080911601853009F017CF48
:1043E00088E0809316018091890190918A01981745
:1043F000C4F089130CCF8090770190907801A09041
:104400007901B0907A0140917B0150917C016091DB
:104410007D0170917E01481559056A057B0508F0FC
:10442000F6CE4091770150917801609179017091B9
:104430007A0140937B0150937C0160937D017093DE
:104440007E0180938A01D0928601C09285011093EB
:104450008701C0938801DBCEC701C12CD12C2091EC
:104460004E0130914F012C153D0560F00E947B04F8
:104470008C2F0E94C9048A199B09A8952FEFC21A94
:10448000D20AEDCF5701A81AB90A1A141B049CF4DA
:1044900039ECA316B1040CF0BACE28EE33E0D50106
:1044A0000E94F93A97010F2C000C440B550B0E9407
:1044B000AC3A690102C0C12CD12C80914E0190917F
:1044C0004F010196A0E0B0E080937F0190938001BE
:1044D000A0938101B0938201C7018A0D9B1D0E94A8
:1044E000940520917F01309180014091810150918C
:1044F0008201DC010E94FF3A60937F01709380018A
:104500008093810190938201609377017093780189
:104510008093790190937A0187EF8093890121DD5F
:104520008090770190907801A0907901B0907A0105
:1045300084E090E00E94453CA8EEB3E0A81BB109DE
:1045400087FDB395A50194010E94093B24E630E064
:1045500040E050E00E94AC3A20937701309378011C
:104560004093790150937A0132CFDF91CF911F911F
:10457000FF90EF90DF90CF90BF90AF909F908F9083
:1045800008951F920F920FB60F9211248F939F934D
:10459000B59904C080917401811109C0B59B10C008
:1045A00080918600909187008A3F910548F4809120
:1045B0004E0190914F01019690934F0180934E01CF
:1045C0009F918F910F900FBE0F901F9018951F9283
:1045D0000F920FB60F9211248F939F931092740134
:1045E000B09B10C080918600909187008A3F910512
:1045F00048F480914E0190914F01019690934F01A4
:1046000080934E019F918F910F900FBE0F901F903E
:104610001895A0E0B0E0EFE0F3E20C949A3B88E854
:1046200093E190931B0180931A0190932D01809345
:104630002C018EEB8093280112B880E181B90E9491
:10464000890411B884E00E94C504AC018B5C9840D9
:10465000833F9140A0F481E08093370120912C01A9
:1046600030912D01AFEBB9E00E94EA3A9A0140E0A7
:1046700050E00E94AC3A30931B0120931A018091C4
:104680001A0190911B0190932D0180932C018EE1D2
:104690000E94C9048EE10E94C50490933101809369
:1046A00030010E943C05C7DB12B8FF24F394F1B837
:1046B00084E58BB9D4E0DAB980E00E94C5048C01AE
:1046C000C2E0C1B980E1C82ECAB881E00E94C50429
:1046D000080F191FD1B990E4D92EDAB882E00E94F0
:1046E000C504080F191F1BB8F2B8F1B8DAB980E099
:1046F0000E94C5040E942E057C01C2B9C1B9CAB886
:1047000081E00E94C5040E942E05E80EF91ED2B970
:10471000D1B9DAB882E00E94C5040E942E05E701F3
:10472000C80FD91F11B812B81AB820912C013091B6
:104730002D016901CC0CDD1CC20ED31EC01AD10A9A
:10474000CC1ADD0AE12CF12C9801A0E9BAE10E9413
:10475000EA3AA70196010E94AC3A49015A01309306
:104760003601209335019E01A0E9BAE10E94EA3AA0
:10477000A70196010E94AC3A30932F0120932E019D
:104780002057354E309318012093170180E7881A7F
:1047900085EE980A909211018092100189E1809330
:1047A0002801CDB7DEB7ECE00C94B63BCF92DF9298
:1047B000EF92FF920F93CF93DF93F82EC62FD42F53
:1047C0000E94D3078CEB92E00E942D08FAD16C2F47
:1047D0008F2D0E94A438C090BE01D090BF01E09000
:1047E000C001F090C10180911C0187FD05C0C1147A
:1047F000D104E104F10421F088EB92E00E942D083D
:104800008C2F0E94D307C114D104E104F10431F0CC
:104810000E949B03809159010E94D203DD2351F035
:1048200080913801813130F490E08E58994F0E9488
:104830002D0802C00E948B0880E00E94AB08CD28A2
:10484000CE28CF28D9F06091BE017091BF01809130
:10485000C0019091C10103E028E447EF0E94E708FE
:104860008BEC92E00E942D088BE290E00E944D3C80
:1048700023E046E464EF0E94CE091AC080915901FA
:104880000E94D20380911C018E3F94F48AEF93E042
:104890000E942D086091A5017091A6018091A70149
:1048A0009091A80103E028E440911C010E94E708D0
:1048B0008091B6019091B701A091B801B091B90172
:1048C000892B8A2B8B2BF1F080E00E94AB08609142
:1048D000B6017091B7018091B8019091B90104E0DF
:1048E00028E440E00E94E70886EC92E00E942D0850
:1048F00023E040E26FEF8091BC019091BD010E94E6
:10490000CE0907C080E00E94910880913B0181118F
:1049100002C00E948B08DF91CF910F91FF90EF9022
:10492000DF90CF900895EF92FF920F931F93CF9354
:10493000DF93182F0E94F907809187010E94D30707
:1049400086E194E00E942D086DD3609187018091EB
:1049500088010E94E705EC01909384018093830114
:10496000E0908501F0908601CA3F8FEFD80720F4D0
:104970008DEB92E00E942D08809188010E94D30760
:10498000112359F09091380181E1891B0E948B0716
:1049900089E292E00E942D0802C00E948B080E94CA
:1049A000070860917B0170917C0180917D0190915D
:1049B0007E0104E026E440918A010E94E708CA3F94
:1049C000DF4F68F485E094E00E942D0822E044EF78
:1049D0006EEF80918301909184010E94CE090E9424
:1049E0008B080E941008E114F10469F08EEF93E047
:1049F0000E942D0822E045E26FEF809185019091A1
:104A000086010E94CE090E948B08CDB7DEB7E6E092
:104A10000C94BC3B8F7021F40E9419080C9464150F
:104A200008958F3021F490913201913011F08F5F11
:104A3000089580E00895CF9384E392E0E4D76AE09C
:104A400080E00E94DB078CE796E00E942D08C0E022
:104A50000E94FF0A60E082E00E94F11C62E080E0B8
:104A60000E94F11C0E94F90780917201882329F0AD
:104A700041E062E080E09ADE12C084E392E00E94AE
:104A80002D088CE796E00E942D080E9407088FE30E
:104A90000E949D0780E00E9491080E948B088C2F45
:104AA000B9DF88EE93E00E944A0A811109C0809123
:104AB0000F01843028F48C2FB4DFC82F8A3F40F2D6
:104AC0000E940108CF9108950F931F93CF93DF9316
:104AD000C0E0D8E012EF01E10E94FF0A60E082E04E
:104AE00080DAD093160180918901843FE1F48091AE
:104AF000770190917801A0917901B0917A01843683
:104B00009105A105B10578F440E060E082E00E94E3
:104B10003436609377017093780180937901909394
:104B20007A011093890180918901823FACF08093D2
:104B30008A018091770190917801A0917901B091DB
:104B40007A0180937B0190937C01A0937D01B093C7
:104B50007E0181E0E8DE1CC00E94F9078DE292E050
:104B60000E942D0880913801902F981B892F0E9458
:104B70008B0789E292E00E942D080E9407088FE3CC
:104B80000E949D070E948B080E9410080E948B08BB
:104B90008C2F40DF88EE93E00E944A0A81110AC000
:104BA00080910F01843030F48C2F3BDFC82F8A3F77
:104BB00008F492CF0E940108DF91CF911F910F91CD
:104BC0000895A4E1B0E0E7EEF5E20C94943B82E0B6
:104BD00080931C0180911601813009F01FC28091E1
:104BE0007201813009F01AC20091590124E0029F3C
:104BF000F0011124E655FE4F80819181A281B3819D
:104C0000893032E59307A105B10508F007C24C01D0
:104C100010E0802F123028F40E94C803582E492E2D
:104C200003C00E94C8032C01E42DF0E0EF50FE4FBA
:104C30002490852D90E0FC01E251FE4FE4911BB8D9
:104C400012B820EF82169104B0F410FD14C0A090A9
:104C50001001B090110130E9A31A3AE1B30A21E042
:104C600030E0052C02C0220F331F0A94E2F7C9017D
:104C7000822981B906C0EAB921B8A0901001B0908C
:104C80001101F4E13F2E852D0E94C1043C01842DC9
:104C90000E94C90434E06316710410F4049718F0FC
:104CA0003A943110F0CF80E480937B0094E590BF7C
:104CB000852D806480937C0026E120937A00E12C8E
:104CC000F12C10928000109285001092840037E23F
:104CD00036BB0E948404812F8170382E10FD05C0E0
:104CE00081E88093810022B808C022B80E948D0418
:104CF00090E296BB81E88093810086B385FF12C065
:104D000012B81092810020E226BB209186003091DB
:104D10008700690140918400509185002417350770
:104D200070F014C080FFE9CF31E036BBA895970141
:104D30002F5F3F4F790120353105F9F6E1CF80FF34
:104D400005C081E086BB9FEFE91AF90A86E98093E6
:104D50007A00E4E12E2E852D0E94C1043C01842DB1
:104D60000E94C90424E06216710410F4049718F03C
:104D70002A942110F0CF4090350150903601480C14
:104D8000591C4A0C5B1C209112013091130180E9DF
:104D9000A8168AE1B806B0F491EEC916D104E10470
:104DA000F10438F4C60165E070E00E94853A645170
:104DB00001C069E128523109261B310967FD33958D
:104DC00086E009C0C20160EB76E30E94853A87E085
:104DD000860F285D3F4F90E0A0E0B0E08C159D0568
:104DE000AE05BF0528F4C81AD90AEA0AFB0A03C0AF
:104DF000C12CD12C7601332029F082E2C80ED11CBF
:104E0000E11CF11C90E5E916F10418F0C12CD12C3D
:104E100076018BE0C816D104E104F10428F091E09A
:104E2000C91AD108E108F10840912C0150912D01D7
:104E3000612C712CA8EEB3E00E94EA3A698B7A8B60
:104E40008B8B9C8B9501DA010E94EA3AA3019201B7
:104E50000E94AC3A4427552769897A898B899C89B5
:104E60000E94AC3AC9010E94C305FC01A301920152
:104E7000C701B6010E946A3A2B013C01CF01A0E0B4
:104E8000B0E073E0880F991FAA1FBB1F7A95D1F776
:104E9000BC01CD016B5F7F4F8F4F9F4F2AE030E009
:104EA00040E050E00E94AC3AC301B2010E94AC3A2B
:104EB000E12FF0E0A1E0B0E0AC0FBD1F84E0189F4F
:104EC000A00DB11D11242D933D934D935C93139729
:104ED000311016C09CE0C916D104E104F10480F041
:104EE0003196EE0FFF1FEE0FFF1F81E090E08C0F59
:104EF0009D1FE80FF91F20833183428353831F5F77
:104F0000A8951F5F143008F484CE12B884E00E9484
:104F1000910491E00D811E812F81388549815A814C
:104F20006B817C81401751076207730708F090E09E
:104F30000D851E852F85388949855A856B857C8529
:104F4000401751076207730710F483E001C082E045
:104F5000E92FF0E0EE0FFF1FEE0FFF1F21E030E022
:104F60002C0F3D1FE20FF31FD90134E0839FA00DEA
:104F7000B11D11240D911D912D913C9140815181C4
:104F800062817381041715072607370708F0892FF8
:104F9000E1E0F0E0EC0FFD1F94E0899FE00DF11DD2
:104FA000112440815181628173814093A501509306
:104FB000A6016093A7017093A80180FD08C020EFAF
:104FC0008216910420F48BEF80931C0117C08CEFA4
:104FD00080931C01CB01BA016B5F7F4F8F4F9F4FB6
:104FE0002AE030E040E050E00E94AC3A2093A50176
:104FF0003093A6014093A7015093A8018091A50189
:105000009091A601A091A701B091A801892B8A2BAC
:105010008B2B11F410921C0111B81AB86496E2E1BE
:105020000C94B03BA0E0B0E0E8E1F8E20C949A3BCD
:105030008091850190918601892B09F09BC0E091B8
:105040008701F0E0EF50FE4FD491E0918801F0E04D
:10505000E251FE4FC4910E941B1F12B81BB8D1B978
:10506000CAB9809188010E94C9048C01D0918A013B
:105070008CE08D0F843008F07DC080917B01909191
:105080007C01A0917D01B0917E01D15F2AE0822E4A
:10509000912CA12CB12CBC01CD016B5F7F4F8F4FA8
:1050A0009F4FA50194010E94AC3A69017A01DA018F
:1050B000C901DF5FD73079F729E8C21623E1D206AC
:1050C000E104F10408F056C0059708F453C0CBB9C9
:1050D000CAB9C0E0D0E0CC15DD0520F40E948B04F5
:1050E0002296F9CF1AB81BB8A89585E080932801BD
:1050F000809188010E94C9040817190720F4EC0167
:10510000C01BD10B02C0C0E0D0E0A12CB12CAC146C
:10511000BD0430F40E948B048FEFA81AB80AF7CFB1
:10512000809188010E94C90429E120932801A89553
:105130000817190718F4801B910B02C080E090E05B
:105140008C179D0788F49E01281B390B69F0A4EF8A
:10515000B1E00E94EA3A9E0140E050E00E94AC3A81
:1051600030938601209385010E941B1F11B812B84D
:105170001AB81BB8CDB7DEB7ECE00C94B63B803163
:1051800008F08051811103C089E095E04AC0813068
:1051900019F48EE894E045C0823019F48DE794E06C
:1051A00040C08A3019F483E794E03BC08B3019F497
:1051B00089E694E036C0833019F480EE94E031C083
:1051C000843019F485ED94E02CC0853019F48FE318
:1051D00092E027C0863019F484E392E022C0873041
:1051E00019F48DE292E01DC0883019F486EC94E049
:1051F00018C0893019F485EB94E013C08C3019F491
:1052000086EA94E00EC08D3019F481E095E009C083
:105210008E3019F487EF94E004C08F3021F48CEEC7
:1052200094E00E942D080E948B080C94F4070895C6
:105230000F93CF938FE392E0E6D3C0E01092160174
:1052400060E082E09AD6809116018830C9F50E940C
:10525000070883E40E949D070E949F0360917B01E1
:1052600070917C0180917D0190917E0103E026E4A4
:1052700040918A010E94E7080E948B086091870193
:10528000809188010E94E7059093840180938301B7
:105290000E94100886E094E00E942D08809183010E
:1052A000909184018A3F2FEF920730F422E044EF7F
:1052B0006EEF0E94CE0908C08FE30E949D0704C0D4
:1052C0000E94B7080E9410080E948B088C2FA2DB56
:1052D00088EE93E00E944A0A81110AC080910F0172
:1052E000843030F48C2F9DDBC82F8A3F08F4A6CF82
:1052F000CF910F9108951F93CF93DF9381E095E0B5
:1053000082D3C0E0D0E01AE00E9407080E94F407B0
:105310000E94F40780EF93E00E942D0883E00E9432
:10532000C50463E09C01129FC001139F900D1124DE
:105330000E94D9090E948B088C2F6CDB88EE93E0C9
:105340000E944A0A90910F01811102C0992361F0D5
:10535000C0E0963078F48F3510F0DF5F02C088230C
:1053600019F0D53010F006C0D0E08C2F5ADBC82FD2
:10537000803F50F2DF91CF911F910895A4E0B0E0FB
:10538000E4ECF9E20C94943B80EE94E03CD380E1B1
:105390008093800010926F0081E090E090938900EC
:1053A0008093880010928B0010928A0083E086BB65
:1053B0001092820088E0809381001BB884E58AB94E
:1053C00012B881E081B9229A89E080938100312C62
:1053D00020E0FAE02F2E31E03B83812C912C540108
:1053E000839441E14C83832D90E00A966EE170E056
:1053F0000E94993A6A83062F621781F00E94F9078A
:1054000080EE94E00E942D0810E0101728F48EE240
:105410000E949D071F5FF9CF0E948B085C8152316B
:10542000B8F0C701B601A50194010E94AC3A6B0126
:105430007C018B81622D0E94793AA92FB0E0A501F1
:1054400094010E94FF3AC60ED71EE81EF91E0CC03A
:105450008B81622D0E94793AA92FB0E0A5019401B9
:105460000E94FF3A6B017C010E9407088B81281281
:1054700009C081E09C81923108F480E08983811128
:1054800007C001C019822C81263120F082E503C0BB
:105490008CE301C08EE30E949D070E949B034C8118
:1054A000C701B6010E94E309C701B6017E5E8548C7
:1054B0009F4FA7019601220F331F441F551F0E94C3
:1054C000AC3ACA014F3F510539F030F08DE080937E
:1054D000810080E094E01FC04034510530F08CE042
:1054E0008093810080E091E016C04830510530F093
:1054F0008BE08093810080E490E00DC0892B31F037
:105500009AE09093810088E090E005C089E0809364
:10551000810081E090E02C01612C712CCA01B9015D
:10552000A30192010E94AC3A2150310930938900C5
:10553000209388008091880090918900892B31F414
:1055400021E030E030938900209388000E948B088E
:105550000E94100886E60E949D070E949B0300910E
:1055600088001091890060E079E08DE390E0A3016C
:1055700092010E94AC3AA4E6B0E00E94FF3A980182
:105580002F5F3F4F40E050E00E94AC3A29013A01C2
:10559000A4E6B0E0A70196010E94FF3AA3019201A0
:1055A000261B370B480B590BCA01B90105E228E449
:1055B0004EEF0E94E7088AE70E949D070E948B0831
:1055C00080ED97E00E944A0A811105C080910F0189
:1055D000811148C048C0883C58F010928100109258
:1055E000800011B81AB822982496E2E10C94B03BDE
:1055F000813598F139813323E9F04C8141504C8356
:10560000C501B4012AE030E040E050E00E94AC3A2D
:1056100049015A01C701B6010E94AC3ACA01B90159
:105620002AE030E040E050E00E94AC3A6B833AE080
:10563000232E44C05C815631B8F55F5F5C835631E0
:1056400011F425E1222EAAE0B0E0A50194010E9408
:10565000FF3A4B015C011B8231C08B3018F08B810B
:105660008F5F8B83312C80910F018B3008F0B5CF89
:1056700080910E0187FD03C09B81890F04C08F5F5D
:10568000820D2B81820F90E0622D70E06F5F7F4F63
:105690000E94993A8B83832DC4D9382E3FEE381758
:1056A00008F49BCF2A819FCE8AE0282E41E04B83CD
:1056B000812C912C5401839451E15C83312CF2CFE5
:1056C000A0E0B0E0E6E6FBE20C94963B85ED94E0CA
:1056D0009AD183E28093800010926F008FEF90E068
:1056E00090938B0080938A0083E086BB10928200A7
:1056F0001BB884E58AB912B881E081B9229A81E0A9
:1057000090E0909389008093880089E080938100E5
:1057100000E080E0D2E310E094E6C92ED12CE12C29
:10572000F12C88248A9423E0922EA12CB12C8D1781
:10573000A9F1D43608F0D4562D2F30E0AFEFB3E006
:105740000E94EA3A6E5C7F4F8F4F9F4FA7019601F0
:105750000E94AC3A29013A0130938B0020938A00D1
:105760000E940708A8EEB3E0A30192010E94FF3A4D
:1057700061507E4F8F4F9F4FA50194010E94AC3A1C
:10578000DA01C90125E045E26FEF0E94CE090E94CF
:105790008B08193218F08CE30E94910480E496E0A3
:1057A0000E944A0A182F833860F011B810928100C5
:1057B000109280001AB82298CDB7DEB7E0E10C94C1
:1057C000B23B80910F018B3080F7C0910E01C7FD75
:1057D000CC59CD0F133310F0C65F03C0112351F025
:1057E000CF5F00E0802F1DD9082F803FF0F68D2F6E
:1057F000DC2F9DCF8111F5CFF5CF0F931F93CF9362
:10580000DF9385EB94E0FFD084E090E00E94453C7C
:10581000C82FD0E00E9407080C2F0C2E000C110B93
:10582000C7FF0AC00E949D0323E045E26FEF88276F
:105830009927801B910B04C023E045E26FEFC8015C
:105840000E94CE090E948B0880E496E00E944A0ADA
:10585000811105C090910F01911103C003C08238DE
:10586000E0F4D0E090910F019B30B8F490910E01DC
:10587000C90F882329F0893210F0CF5F01C0C150D1
:10588000C13514F0C55603C0CC3E0CF4CB598D2F56
:10589000C8D8D82F803F08F4BDCF6C2F84E090E0AB
:1058A0000E94523CDF91CF911F910F91089581305A
:1058B00011F480E00BC0823011F481E007C08A301F
:1058C00011F485E003C08B3019F486E0B1C008956F
:1058D000833011F453CD0895843011F4F1CE08953E
:1058E000853011F4A5CC0895863011F4A4C808952C
:1058F000873021F40E940108E7C80895883011F428
:1059000074C40895893011F478CF08958C3021F44F
:1059100081E10C947B0B08958D3011F4ECCC08954B
:105920008E3011F4CAC708958F3011F40C94220BF5
:105930000895FF920F931F93CF93DF9384E195E037
:1059400062D0D0E0C0E01FE01C0F00E0FF24F39421
:10595000F00E60E08F2D0E94DB07013021F48EE312
:105960000E949D0702C00E949B03103118F080EF37
:10597000810F01C0812F03DC0F2D1F5F033031F732
:1059800080E49FE10E944A0A8111D0E090913201A7
:10599000913009F4D0E0823330F49091730199236F
:1059A00071F0882361F0CC2341F18C2F80DF1092BD
:1059B0000F0110920E0184E195E025D080E09091D6
:1059C0000F019A30D0F490910E01992319F097FDB0
:1059D00005C0D0E0C90F81110CC00CC0905FC90F89
:1059E000811106C0D1E0C03108F4ADCFC051ABCFBA
:1059F000D0E0CF5FDF5FD03AB0F380E0CDB7DEB765
:105A0000E5E00C94BD3BCF93DF93EC010E940108CD
:105A1000CE010E942D08C4E682E00E9491043799CD
:105A200002C0C150C9F70E940708DF91CF910895C5
:105A3000ACE0B0E0EEE1FDE20C94943B389A282F04
:105A400021702A8780FD02C0409801C0409A97B11A
:105A5000966097B941984298811106C08EE894E00B
:105A6000D2DF30EF3F8342C1813019F48DE794E0FB
:105A7000F7CF843018F4419A4298F3CF863028F457
:105A80004198429A83E794E0EBCF419A429A89E6A3
:105A900094E0E6CF998191509983992351F00E9427
:105AA0007904A895379902C021E02A8385B5811130
:105AB000F1CF15BC86B580930301809103019091CD
:105AC0000401A0910501B09106018B839C83AD83F5
:105AD000BE830E9410080E948B080E9419080E9431
