:100000004EC300005EC300005CC300005AC3000082
:1000100058C300000C94152554C3000052C30000BF
:1000200050C300000C9416094CC300004AC30000E2
:100030000C94F51A0C94F9240C9407250C94CF1AFF
:1000400040C300003EC300000C94D3243AC3000018
:1000500038C3000036C3000034C3000032C30000C0
:100060000C9417092EC300002CC300002AC3000003
:1000700028C3000026C3000024C3000022C30000E0
:1000800020C300001EC300001CC30000E62FF72F92
:10009000903009F49395EBB8CAB8B6EFB0937A00F4
:1000A000A5E0A0937B00A8E0A093810010928000BF
:1000B000AFEFA0938500A0938400A6E0A093360044
:1000C00010928B0010928A00B3E0AFE3A91B51E0BD
:1000D000392F33302AF0A05CBC4F53953350F9CF01
:1000E000B0938900A0938800A0917A00A4FFFCCF70
:1000F000B6EBB0937A00A2E0A0936F00A9E0A093C2
:10010000810062E0A0E0A0937B00A1E0A0935300F7
:100110008895EBB8CAB884FF1AC0A8E10000AA9578
:10012000F1F7EF93FF93E1B1F2B1A4E0C4FCA2E0D8
:10013000C2FCA1E0BF2FBA2BAE2BB2B90AB9A1B94C
:10014000E1B9F2B9FF91EF910BC00C948500ACE1DD
:1001500000000000AA95F1F72BB9EBB800000AB92E
:10016000A0918400A0918500B0918900A395AB1760
:1001700060F7A0917A00A4FFF3CFB6EBB0937A00BA
:100180006A9571F76091780070917900308186FDF1
:10019000630F6193308186FD731F80FF7193652F1C
:1001A0004A9579F710926F0010928100B6E0B093F3
:1001B0007A000895496473733D00206574613D00C1
:1001C000554A540050555400312D032D3320342D01
:1001D00033306E46284C29005245465F523D00524E
:1001E00045465F433D00203E3130306E460066702C
:1001F0006EE46D006B4D041040010204041F1111E8
:1002000011111F04001E0203021E0000000F081837
:10021000080F00001113171F1713110011191D1FCC
:100220001D1911001B1B1B1B1B1B1B005244533DA4
:10023000005B435D00312D032D332000312D070677
:100240002D77772D332000432B45535240545031A6
:100250003A3300664054503200203530487A00432B
:100260003073616D7020004330200052695F4C6F25
:100270003D0052695F48693D0052303D0052482FB1
:10028000524C002B52482D20313220313320323352
:10029000002B524C2D20313220313320323300528A
:1002A000482B0052482D005248663D005265663D7D
:1002B00000494345733D00494345303D0056657252
:1002C00073696F6E20312E31336B002D77772D00DF
:1002D0002D07062D002A012020007A20513D002004
:1002E000696620002040302D3556002D022D002D4E
:1002F000012D004E6F742063616C696272617465D8
:10030000642120466F72FF63616C69627261746977
:100310006F6E20636C616D70207468652033FF70B0
:10032000696E7320746F67657468657220616E64AE
:10033000207374617274207769746820746865FF33
:100340006B65792E2041636B6E6F776C65646765B2
:10035000207468652073656C662D746573742077EE
:1003600069746820746865206B65792077697468A2
:10037000696EFF32732E20446973636F6E6E65631E
:10038000742070696E73206166746572207468658C
:10039000FF6D657373616765202269736F6C6174AB
:1003A00065FF50726F626521222069732073686F48
:1003B000776E2E20536F66747761726520616E646C
:1003C00020646F63756D656E746174696F6E20690A
:1003D000732061742073766E3A2F2F206D696B72D3
:1003E0006F636F6E74726F6C6C65722E206E6574C5
:1003F0002F7472616E736973746F72207465737495
:1004000065722000566578743D0049723D004C3D90
:100410000020566C6F73733D00204553523D0056CB
:1004200043433D0043656C6C21002D032D00405675
:10043000673D002056743D0055663D005562653DA0
:1004400000203132333D00504E50004E504E00439C
:100450003D0043673D006846453D002D49474254F5
:10046000004A464554002D4D4F53004443205077D9
:1004700072204D6F6465004F4B004261742E200066
:100480004C462071756172747A004846207175611E
:1004900072747A004672657175656E6379203E20CC
:1004A000324D487A004672657175656E63790073E6
:1004B000686F72742050726F626573210053656CAF
:1004C0006674657374007475726E21004328E44687
:1004D000292D636F7272656374696F6E00726F7439
:1004E00061727920656E636F6465720031302D62D0
:1004F00069742050574D00662D47656E65726174B2
:100500006F7200537769746368206F666600536882
:100510006F77206461746100566F6C746167650069
:100520005472616E736973746F720053656C6563A6
:1005300074696F6E3A005465737420456E64006987
:10054000736F6C6174652050726F62657321005324
:10055000656C6674657374206D6F64652E2E00542F
:10056000696D656F757421002064657465637465D9
:1005700064004E6F2C20756E6B6E6F776E2C206F43
:10058000720020756E6B6E6F776E005468797269B9
:1005900073742E0054726961630070617274006438
:1005A000616D616765642000656D70747921007705
:1005B00065616B0054657374696E672E00B90387BB
:1005C0000358032E030703E402C302A402880200B7
:1005D00000140029003E005300690080009700AE1F
:1005E00000C600DF00F80012012D014901650182FB
:1005F00001A001BE01DE01FF012102440268028E5A
:1006000002B502DE020903350364039403C803FE46
:100610000337047304B404F90443059305EA054958
:1006200006B3062907AE074808FF08DE09FD0A934E
:100630000C480F991B705780508D4A6645E340E87F
:100640003C5E3933365A33C6306D2E492C532A84DA
:1006500028DA264E25DF2389224A212020081F017F
:100660001E091D201C431B731AAD19F1183F189564
:1006700017F4165A16C6153A15B3143214B71340A8
:1006800013CE126112F81193113111D3107810208A
:100690002020202020202020205B524C5D001124AF
:1006A0001FBECFEFD0E4DEBFCDBF21E0A0E0B1E0C0
:1006B00001C01D92A23CB207E1F70E948E340C9457
:1006C000AB3C9ECC80FD2A9A80FF2A98229A00009B
:1006D0002B9A239A2C982D982E982F9864FD2C9A5B
:1006E000249A65FD2D9A259A66FD2E9A269A67FD15
:1006F0002F9A279A00002B9884D387FD10C02B9A3D
:100700002C982D982E982F9860FD2C9A61FD2D9A8B
:1007100062FD2E9A63FD2F9A00002B9872C30895F4
:1007200080914201809300018091A9018093020190
:100730000895CF93C82F809142018F5F809342012B
:100740006C2F81E0BFDF54D3C83050F4C630C0F402
:10075000C23071F0C33081F0C130E1F48EE30DC0DE
:10076000C43E81F0C43F81F0CD32A1F48DE213C0CC
:100770008CE711D38CE30FC08CE70DD38CE70BC053
:1007800082E509C085E707C08FE405D388E603D377
:100790008DE601C08C2FFFD2A895CF9108958F5C74
:1007A000C8CF089580E2C5CF0895CF93C82F1C16F7
:1007B0001CF4F8DFC150FBCFCF9108958DE3B9CF82
:1007C0000895682F80E07EDF13C30895982F862F49
:1007D00060934201913011F4805409C0923011F4B9
:1007E0008C5605C0933011F48C5201C08058E9CF6B
:1007F00008956091000180910201E8CF08958DE095
:10080000CAD28AE0C8C208951092A90180E8D9DF4F
:1008100010924201F4CF089581E0D3DF82E0F3D259
:10082000F3CF089581E08093A90180ECCADF109294
:100830004201E5CF089582E08093A90184E9C1DFF8
:1008400010924201DCCF089583E08093A90184EDEA
:10085000B8DF10924201D3CF0895CF93DF93EC011C
:100860008991882311F065DFFBCFDF91CF91089547
:10087000CF93DF93EC01FE018491982F9F7719F0BD
:1008800058DF2196F8CFDF91CF9108950F931F93F2
:10089000CF93DF938C01085F1F4FEC01FE01849121
:1008A00048DF2196C017D107C9F7DF91CF911F917B
:1008B0000F91089584E1A7D283E383DF82E381DF90
:1008C00082E0A1D280E27DDF80E27BDF88E679DF13
:1008D00089E077DF8AE275DF88E073DF86E071DF29
:1008E00082E06FDF99DF81E08ED28CE06ADF88E4FE
:1008F00068DF8CE192E0CADF80E563DF84E192E0AB
:10090000C5DF88E55EDF84E292E0C0DF88E759DF7B
:100910008CE092E0BBDF80E754DF84E092E0B6DF5A
:1009200080E44FDF8CEF91E0B1CF089590914201C8
:1009300084E1891B3ACF0895CF93C82FF7DF8091C8
:10094000A9018F5F8093A901843038F083E0809300
:10095000A90181E08093450102C0109245016C2FEE
:100960008091A90133DF4BDFCF910895E5DFB9D343
:100970008091A901833008F042CF089545DFD6DF8A
:1009800043CF08954FDFD2DF4DCF089508950F93E1
:1009900082E594E06DDF40918D014D3F64F46091FC
:1009A0007B0170917C0180917D0190917E0103E03B
:1009B00026E4EAD002C08FE3BCDE0F910895909147
:1009C00020019F70923071F4D1DF8CE292E050DF11
:1009D000E0914301F091440122E044EF6FEF848104
:1009E0009581BAC1089597FF09C08F939F938DE2B7
:1009F000A0DE9F918F91909581959F4F68E271E065
:100A00004AE050E00E944A3C28CF0895ECDF01C044
:100A1000EADFC8CE0895EF92FF920F931F93182F2D
:100A2000062FF42E81E494E023DFEE24E0914301CD
:100A3000F09144018685E81611F4812F09C0848560
:100A4000E81611F4802F04C08585E81611F48F2D67
:100A500070DEE3948E2D833049F71F910F91FF9044
:100A6000EF900895682F80E092E0662309F491E00A
:100A7000623009F481E008950F93082FEAEAF1E06B
:100A8000880F880FE80FF11D608171818281938149
:100A9000643671058105910570F42091010127FDEF
:100AA0000AC0802FDFDF692F0E944F206EEF23E006
:100AB00044EF52D104C04FEF04E024EF65D072DE62
:100AC0000F910895863058F4EDE9F1E0E80FF11D3B
:100AD000E80FF11D8081918163E049D163CE0895D3
:100AE0001F93182F80917601882319F05BDE80E038
:100AF00020DE98DE88E394E0BBDE812F82958F7044
:100B0000E1DF812F8F70DEDF1F91089580910D014D
:100B100082958F7019D080910D0183701CD08091C7
:100B20000D01DECF0895E1E9F1E0E80FF11D089530
:100B3000CF93F9DF9081C681C91710F405D001C0A9
:100B400013D030DECF910895EEDF8F93808127DEC2
:100B50008F9101C008958F938FEE92E089DE8F917F
:100B6000E2DF86811CCE0895DEDF8F93868117DE5B
:100B70008F9101C008958F938BEE92E079DE8F9173
:100B8000D2DF80810CCE0895AEE0B0E0EAECF5E073
:100B90000C94CC3B142F322E202E6B017C010F7055
:100BA00080E389838A838B838C838D838E83F7FE96
:100BB0000BC08DE2BEDDF094E094D094C094C11CD3
:100BC000D11CE11CF11C04C025FE02C08BE2B1DD8A
:100BD000033071F0043099F00530C1F00630F1F0C7
:100BE000073021F174E6472E512C612C712C25C061
:100BF00068EE462E63E0562E612C712C1EC050E12B
:100C0000452E57E2552E612C712C17C040EA442E18
:100C100046E8542E66246394712C0FC030E4432EB2
:100C200032E4532E3FE0632E712C07C020E8422EA1
:100C300026E9522E28E9622E712C9AE0892E912CF9
:100C4000A12CB12CC414D504E604F70470F0C7013C
:100C5000B6016B5F7F4F8F4F9F4FA50194010E949C
:100C6000E43A69017A011F5FEDCFE1E1E10F9BEA10
:100C7000E99FE12D11247E2E769486E0811B899FC9
:100C8000112D11241695912F990F190F811B182FD3
:100C90005E0187E0A80EB11C2AE0A501C701B601DC
:100CA0000E94293CF50101900020E9F731976F017E
:100CB000CA18DB082C2D5601BB24812F90E0049626
:100CC0008A159B0514F473941D5FE72DF0E0E25143
:100CD000FE4FF49024FE04C0201710F40C1901C03C
:100CE00000E08C2C811A800E181424F08EE221DD95
:100CF000012F0C19111102C088EF882EE12C10E091
:100D0000A00EB11EC82C082C000CDD088E2D90E022
:100D10008A159B05ACF4FC013696E01BF10B81E0D3
:100D200090E08C0F9D1FE80FF91F808102DDE39496
:100D30008E2D90E08C159D0549F78EE2FADCE6CF0A
:100D4000FF2011F08F2DF5DC332011F0832DF1DC25
:100D50002E96E2E10C94E83B0F93362FBC0180E025
:100D600090E0022F242F432F0FDF0F9108950F9350
:100D7000062FBC0180E090E026E54DEF05DF0F91E6
:100D800008950F93042F28E440E0FEDE8AE7D1DCCB
:100D900009DD0F9108958F932F932AE08095519A42
:100DA000089410F4599802C0599A000020D027D016
:100DB00086952A95B1F72F918F91089503D002D08F
:100DC00001D000D000D003D002D001D000D000D09C
:100DD00003D002D001D000D000D0A89503D002D01B
:100DE00001D000D000D003D002D001D000D000D07C
:100DF00003D002D001D000D000D003D002D001D067
:100E000000D00000089590E0893C28F0885C48EC10
:100E1000849FC0011124009709F408952091810056
:100E2000277019F0DADF0197F6CF8130910519F0BC
:100E300002973EE303C037E180E090E02091B200EA
:100E4000230F2093B30042E04093700027E023BFBC
:100E5000889526E023BF10927000A895DCCF8F9371
:100E600084E0D1DF07C08F9382E0CDDF03C08F9392
:100E700081E0C9DF8F911F93182F106410937C00BD
:100E8000E12FE07880913301E81759F0E0933301C6
:100E9000AEDF8EE980937A0083E083BF889582E09D
:100EA00083BF20E030E0A901E0E020C08EE980931C
:100EB0007A0083E083BF889582E083BF60917800E9
:100EC00070917900260F371F411D511DE43069F4E0
:100ED00080913501803049F084E02030380728F4D3
:100EE00017FD03C010681F7BC9CFEF5F80913201EF
:100EF000E817E0F2609136017091370117FF04C0E6
:100F0000609134017091350180E090E00E94A23A36
:100F10002FEF33E040E050E00E94E43AB901CA010B
:100F20002091320130E040E050E00E94E43AC901F3
:100F30001F9108959B01281B390B50F0C90108959A
:100F4000BC0180913601909137016817790718F438
:100F5000861B970B089580E090E0089523B1221F2F
:100F60002227221F1D99226080911801843050F0A1
:100F70008EE080931401209315011092190181E0F5
:100F80008093180190911801E92FF0E0EC5EFE4F7C
:100F90003081231781F1E3E0E90FE37080911901BB
:100FA000211109C0323071F5F0E0EC5EFE4F308166
:100FB0003330C1F414C02330A9F4323041F4F0E0EE
:100FC000EC5EFE4F308131110DC0815009C03130CF
:100FD00049F4F0E0EC5EFE4F3081311103C08F5FC9
:100FE00080931901E1E0E90FE370E0931801F0E06C
:100FF000EC5EFE4F20838091190187FD81958093DF
:101000001A010895313071F7F0E0EC5EFE4F308147
:10101000333041F7DACFA0E0B0E0E1E1F8E00C9442
:10102000D53BE82ED92E27982598DCDE10921901A1
:10103000E0911801F0E03196E370FF27EC5EFE4F7F
:1010400080EF8083C5E6D9E189DF379905C0CEDE20
:10105000D150D1F7C150B9F7CE2DDD2DF12C15E5CA
:1010600000E0BB24B394D7FD36C082E3C82E76DF00
:10107000BDDECA94C110FBCF110F379B1F5F1F73DA
:101080001F3349F4011103C0CE2DDD2D04E00F5FA5
:10109000083C28F020C0111102C001111CC0A89505
:1010A0001C161D0624F42A9711F4CFEFDFEF809170
:1010B0001A01882339F0F39480917701811102C0DD
:1010C000B092770184E18F1570F68091190181113A
:1010D00002C0F12CC8CF802FCDB7DEB7E9E00C9469
:1010E000F13BCF931DDBC82F80914501882301F18F
:1010F000813051F4C33041F463E183E067DB8BE27C
:1011000018DB63E183E062DB80E49FE184DF81112F
:1011100004C080911A018111F7CFC33041F480914E
:101120004501813021F460E083E050DBFFDB61DBCF
:10113000CF91089588E290E00E947D3C382F89E2AB
:1011400090E00E947D3C20913A01230F30913B01B9
:10115000381F20931D0130931E0183E0283E38077D
:1011600020F0C901885E934002C080E090E062E315
:1011700070E00E94BD3A683008F067E0EDEBF5E002
:10118000E60FF11DE60FF11D459155912591359121
:1011900062E3681B421B530B649FC001659F900D67
:1011A0001124499662E370E00E94BD3A620F731FFA
:1011B00070937A01609379018AE290E00E947D3C0D
:1011C000992787FD909560913A0170913B01860FB8
:1011D000971F90933501809334019093750180930C
:1011E00074010895CF93DF9324E130E0B9010E94A8
:1011F000BD3ADC01EFECF5E0E60FF71FE60FF71F55
:10120000C591D591459155914C1B5D0B4A9FC001ED
:101210004B9F900D5A9F900D1124B9010E94BD3A29
:101220006C0F7D1FCB01DF91CF9108951895189514
:1012300030911F01A0914301B0914401E1E9F1E037
:1012400080E090E08317B0F441911C962C911C979C
:10125000421719F04581241302C00196F3CFFC0117
:10126000EE0FFF1FE356FE4F20813181293E3340B0
:1012700008F4089584E108951092210110921F014D
:1012800010926F01109255011092200110924101AD
:1012900010927601EAE5F1E0108211821282EBE70A
:1012A000F1E0108A82E0818B109201011786168688
:1012B000148215821682178281EF838B08958FE442
:1012C0006ADD86E468DD86E466DD99DA299879DDF1
:1012D00080E090E0A0CE08951F93CF93DF93162F68
:1012E00011B812B8E82FF0E0EA50FE4F94919BB984
:1012F000262F281BE20FF11D27FDFA95E491E92B1B
:10130000EAB9B9DDEC01812FB6DDAC0120913601DF
:101310003091370136952795C9010397BE01625E6A
:101320007F4F8617970778F4255E3F4FC217D30784
:1013300050F4BA01625E7F4F8617970720F481E070
:101340004217530708F080E01AB8DF91CF911F9140
:101350000895CF9361E080E0BFDFC82F62E080E0B6
:10136000BBDFC80F62E081E0B7DF8C0FCF9108953B
:10137000AFE0B0E0EEEBF9E00C94CC3BB82E10926D
:101380002101807FA9F4E5DF833009F06FC344DADF
:101390008FE495E06DDA46DA8FE3CBD980ED97E004
:1013A0003ADE8B30C0F438DA8DEB92E061DA5EC35E
:1013B00006E910E031DA8FEA94E05ADACADF8330C6
:1013C00021F41F5F143010F006C010E088E21BDD2E
:1013D000015081F763C026DA0E94461B89E792E03C
:1013E00047DA60E082E090E00E948A3C60E083E0BF
:1013F00090E00E948A3C60E081E090E00E948A3C9C
:1014000060E082E00E944F206C019A83898361E052
:1014100082E00E944F207C019C838B8360E081E00E
:101420000E944F208C019E838D8323E040E26EEF6B
:10143000C60192DC23E040E26EEFC7018DDC23E0C1
:1014400044EF6EEFC80188DC2AE5C216D10424F00F
:1014500084E190E09A838983698182E090E00E9430
:101460008A3C8AE5E816F10424F084E190E09C834C
:101470008B836B8183E090E00E948A3C0A351105E2
:1014800024F084E190E09E838D836D8181E090E083
:101490000E948A3C82E08093450123DEEB2DEF70B1
:1014A000EF87E13011F018E734C1EE24E394F12C1A
:1014B00078EB872E72ED972E77E4A72EB12C08E0FB
:1014C000E0E2DE2EF0E83F2EC12C1E2D58E8252E3E
:1014D00059DA54DA84E52DD9C70190DA63D911308D
:1014E000B1F48CEA92E0C4D964E080913A01909121
:1014F0003B013DDC97D987EA92E0BAD98091790126
:1015000090917A017BDA8EEB80933201DFC012304A
:1015100079F52091360130913701A8E5BBE10E94B1
:10152000223B24EC36E340E050E00E94063B2901D8
:101530003A01F4E0FBB984E18AB980E090DC8419D7
:1015400095099A83898384E48AB980E088DC8419C8
:1015500095099C838B8380E18BB980E58AB981E012
:101560007EDC841995099E838D8381E992E09EC07B
:10157000133041F50BB928E22AB980E070DC2091E4
:101580003601309137013695279538872F83821B96
:10159000930B9A8389832AB880E061DC2F81388598
:1015A000821B930B9C838B83DBB880EA8AB981E032
:1015B00056DC2F813885821B930B9E838D8383E8B5
:1015C00092E074C0143039F48FE395E051D9C1DE54
:1015D000811149C26FC0153099F41BB80AB980E077
:1015E0003EDC9A838983DAB881E039DC9C838B8383
:1015F0003AB882E034DC9E838D8383EA92E056C061
:10160000163039F50AB90BB980E029DC2091360192
:1016100030913701821B930B9A838983DAB8DBB848
:1016200081E01DDC2091360130913701821B930B44
:101630009C838B833AB83BB882E011DC2091360161
:1016400030913701821B930B9E838D838FE992E04B
:101650002DC0173069F52091360130913701A8E58A
:10166000BBE10E94223BA50194010E94E43A2901BA
:101670003A010BB9ECE0EAB980E0F1DB8419950995
:101680009A838983DBB8F0E3FAB981E0E8DB841957
:1016900095099C838B833BB820EC2AB982E0DFDB81
:1016A000841995099E838D838DE792E0E1D802C06D
:1016B000113061F0B7D889819A8195D973D88B811F
:1016C0009C8191D96FD88D819E818DD911B812B826
:1016D0001AB81BB888EE93E09EDC143011F08B3002
:1016E00020F4C39484E0C812F3CE88EE93E093DC38
:1016F000EFEFEE1AFE0AF8E0EF16F10409F0E4CE7F
:10170000D2CE40D98FE395E0B3D884E67CDB11508C
:1017100019F01FDE8111F5CF7FD882E792E0A8D8BB
:1017200023E044EF6FEF809138019091390114DB91
:1017300079D88BE692E09CD823E044EF6FEF80915C
:101740003F019091400108DB82E080934501C9DCB4
:101750001092210161D887E692E08AD860E082E0A9
:101760000E9400188090830190908401A0908501D0
:10177000B09086019C868B8661E082E00E94001812
:10178000C0908301D0908401E0908501F0908601A3
:10179000DE86CD8660E081E00E9400180091830122
:1017A000109184011E830D8362E080E00E94001886
:1017B00080918301909184019C838B8362E081E01E
:1017C0000E94001880918301909184019A878987F3
:1017D00061E080E00E940018809183019091840173
:1017E0009A8389832F85213021F020913E01223078
:1017F00021F4029698878F8307C098878F83109271
:101800003E018CE00E94E103C40102D9C60100D967
:10181000B801110F880B990B03E026E444EFB4D90B
:101820008E010F5F1F4F6E018FE0C80ED11CF801B3
:10183000819191910A97853B9105D0F4CE16DF06F0
:10184000B9F741E2E42E40E0F42EF80160810E5F2A
:101850001F4F6E5EC7010E948A3CFFEFEF1AFF0A1E
:10186000C016D10691F70E94120487E794E000D8D1
:1018700082E08093450135DC0E9429312F8521309B
:1018800029F080913E01823009F0D4C020E4F22E8C
:1018900010E03AE0832E912CA12CB12CEDDC0E94BB
:1018A000322C00918D0120917B0130917C0140917F
:1018B0007D0150917E01073F44F40F5FCA01B901D9
:1018C000A50194010E94E43AF6CF00938D01209384
:1018D0007B0130937C0140937D0150937E01073F53
:1018E00009F091C0DA01C90180569109A109B10935
:1018F00080399545A105B10508F085C060918F013B
:1019000070919001CB018B569F4F8B32914008F024
:101910007AC01F5F153008F477C088E290E00E941B
:10192000983C0E940C048FED91E00E943804809155
:101930008F019091900157D8FDDB46983E9A87E041
:101940009ADA853D9340DCF73E981092350110926B
:10195000340187E090DA8C018091740190917501D7
:10196000909335018093340187E085DA7C01EE0C99
:10197000FF1C109235011092340187E07CDAA090B0
:101980007401B0907501B0923501A0923401800FBE
:10199000911F8C010E191F090E94120488ED91E01D
:1019A0000E9438048AE290E00E947D3CD82E950186
:1019B000D8010E94313B97010F2C000C440B550BB2
:1019C0000E94063B13E01D0D120F612F8AE290E08A
:1019D0000E948A3C812F012E000C990B04D8AADBAF
:1019E00082E0809345017DDB10923E018CE00E94F5
:1019F000E10381E290E00E947D3C682F84E290E068
:101A00000E948A3C17C010E00E94120460917B0182
:101A100070917C0180917D0190917E0104E026E42B
:101A200040918D01B1D80E94960488E2ECD9FA94D5
:101A3000F11034CF89E18093320180E00E94473475
:101A40000E940C048DEB92E00E9438040E94120464
:101A500086E395E00E9438041092210182E0809391
:101A600045013FDB03C082E0C82E24CE2F96E2E181
:101A70000C94E83B80913E0181110DC081E290E021
:101A80000E947D3C61E0680F84E290E00E948A3C05
:101A900081E080933E010895EF92FF920F931F9390
:101AA000CF93DF93D62FE82FF0E0E750FE4FE4917D
:101AB000E2B9E1B91BB8E62FF0E0EA50FE4FE4913D
:101AC000EAB988E8E82E83E1F82ECE2FCC0F8D2FCF
:101AD000C6D98C01CAB98E159F0510F47801F7CFCD
:101AE000892BE1F00E9424048AE094E00E943804EB
:101AF000D80120EA36E841E050E00E94373B28E96F
:101B000037EB40E050E00E94E43ADA01C90122E0FC
:101B100041E467EF21D911B812B81AB8CDB7DEB7D2
:101B2000E6E00C94F43B0F931F93CF93DF9385E093
:101B3000A2D985E09CD9EC018C01000F111F000F88
:101B4000111F10923C01C8018E5E9240813895426F
:101B500050F08BE694E00E9438040E94960481E0E5
:101B600080933C0125C08AE794E00E94380462E03B
:101B7000C8018A569F4FFBD80E94D203CA3F86E015
:101B8000D80780F4C333D64050F488EA95E00E9429
:101B900038040E9496048DEC36D991DB09C08FEA97
:101BA00095E002C087E794E00E9438040E94960402
:101BB000DF91CF911F910F910895CF93DF93DC01B7
:101BC0009C01261B370BE0E090E0B901690F711D05
:101BD000672F7727920F260F371FBA016E0F711DDF
:101BE000672F7727E40FEB01CC0FDD1F4C0F5D1F34
:101BF0006B3E28F4A217B30740F7CA0102C080E089
:101C000090E0DF91CF910895A7E1B0E0EAE0FEE037
:101C10000C94CC3B8E8B162F042FA895E62FF0E06A
:101C2000EA50FE4F24912D87220F2D8B339634914D
:101C30003A83E42FF0E0EA50FE4F44914B83E42EC8
:101C4000EE0C3396F490E82FF0E0EA50FE4F8491CA
:101C50008983880F8E87339694919F8B4BB94D84DF
:101C6000442A4AB891B992B9862F01D99C878B87AB
:101C70008B818E298BB95D845E285AB8812FF7D865
:101C8000ED85EAB9812FF3D81C011AB8A5D81BB885
:101C90004AB8812FECD86B857C854CD94C01FA81F0
:101CA000F1B912B82B813981232B2C832BB92AB996
:101CB0008E89DDD845D95C011BB88ED849814BB9D6
:101CC0008E89D5D83DD96C0189818AB98E89CFD8C2
:101CD00037D93C01B601C5012DD98032E1E09E071C
:101CE00030F4F0E28F16F1E09F0608F48FC58C0CFB
:101CF0009D1C2B853C85820F931F8816990618F42E
:101D0000DC86CB8613012091550130916F01822F23
:101D100090E0830F911D02974CF0213009F076C5B9
:101D20009091520180916C01981370C539813E29C0
:101D30003A878B859C858437910508F47CC1880F90
:101D4000991F44962816390608F075C19F8991B9E4
:101D500092B95AB8812F87D86C01802F8CD85C013A
:101D6000EBB8812F80D89601295A3D4F12B8281719
:101D7000390708F0A2C0EA81E1B9FA85FAB9FBB9DE
:101D8000802F71D888349F4028F085E0809321010E
:101D900082E204C085E08093210184E280932001E7
:101DA000D0924B01C0924A01B501C601CED89093A2
:101DB0005101809350019601A0E1B7E20E94223BBD
:101DC00020911B0130911C0140E050E00E94E43A58
:101DD00030934D0120934C018D898E298AB91BB80F
:101DE0003F8931B932B9802F46D86C01812F3BD859
:101DF000B601ABD89C0190934F0180934E01909116
:101E000020019F70943069F540914C0150914D0133
:101E10006091500170915101C901CFDE0097E9F046
:101E2000EAB84F898A81482B41B9812F1CD86C01AF
:101E300011B89C01A0E1B7E20E94223B20913F0132
:101E40003091400140E050E00E94E43AA901B6011F
:101E500080914E0190914F01B0DE90934B018093A1
:101E60004A01809120018F70843009F4C7C412B8F0
:101E70009A81F92AF1B8E981EAB9FC81FBB98E8926
:101E80000E9437076C015CD87C01812F0E943B07C0
:101E9000A0902201B0902301BC01C60156D8950143
:101EA000DC010E94223B970140E050E00E94E43AAE
:101EB00030934B0120934A01A1C42A8121B93A856C
:101EC0003AB93BB98E890E9433076C01802F0E947A
:101ED0003B075C0149814BB98E890E943307895ABF
:101EE0009D4F8C159D0508F091C48F8982B981B9E9
:101EF000802F0E943307813D934028F485E0809332
:101F0000210182E304C085E08093210184E3809372
:101F10002001B601C50119D890936B0180936A0125
:101F2000C6010ED89C01A0E1B7E20E94223B20919D
:101F300022013091230140E050E00E94E43A3093C6
:101F400067012093660112B8FA81F1B98E858E2956
:101F50008AB98BB98E890E943B076C01802F0E9441
:101F60003307B6010E94A5079C01909369018093F5
:101F70006801909120019F70943091F54091660125
:101F80005091670160916A0170916B01C90115DE82
:101F9000009711F1EBB8EAB82F8922B9EA81E22B58
:101FA000E1B98E890E9433070E94A0076C0111B825
:101FB0009C01A0E1B7E20E94223B209138013091C0
:101FC000390140E050E00E94E43AA901B601809155
:101FD000680190916901F1DD90936501809364013E
:101FE000809120018F70843009F4E6C13F893F2938
:101FF00032B931B91BB84C814AB98E890E94370772
:102000005C01812F0E943B077C01C0901B01D09096
:102010001C01BC01C5010E94A5079601DC010E94BC
:10202000223B970140E050E00E94E43A3093650182
:1020300020936401C1C112B88A8181B999819BB989
:10204000EA85EAB98E890E943707988B8F870E94AC
:10205000A0079F838E83802F0E943B0799878887E4
:102060003101F4E66F0E711C2E813F81B1016216C1
:102070007306D8F4C9010E94A5076C0120912201C2
:102080003091230140E050E060E871EA83E09CE198
:102090000E94E43AD6010E94373BE885F9854F015A
:1020A000A12CB12CA501940123C08E819F810E9497
:1020B000A5076C01FC81FAB98E890E943707988BBD
:1020C0008F870E94A0079F838E83802F0E943B07EB
:1020D00099878887BC01C6010E94A5079C01A4E6D8
:1020E000B0E00E94223BE885F9859F0140E050E086
:1020F0000E94E43A49015A011AB81BB8FF89F2B9A3
:10210000F1B981E00E9403074AB8812F0E94370786
:102110008F359D4008F456C15AB8812F0E9433076D
:102120006C01802F0E943B079A8B898B8E890E94BD
:102130003B079C8B8B8B89899A89813D974008F45A
:10214000CAC0EBB8812F0E9433078115944098F0E4
:1021500080912101843078F48AE08093210169899B
:102160007A898B899C890E94A50790936501809349
:10217000640181E026C484E0809321018DE0809396
:10218000200176012C143D0410F4E218F30840906D
:102190001B0150901C01612C712C60E871EA83E0F6
:1021A0009CE1A30192010E94E43AD7010E94373BCF
:1021B000E989FA899F0140E050E00E94E43A809169
:1021C0006F01882369F08091600190916101A09175
:1021D0006201B091630182179307A407B50708F560
:1021E0002093600130936101409362015093630139
:1021F0009601A0E1B7E20E94223BA30192010E9456
:10220000E43A309367012093660169897A898B8962
:102210009C890E94A507909365018093640181E0E9
:1022200001C080E0409160015091610160916201C4
:1022300070916301481559056A057B0538F5809250
:10224000600190926101A0926201B0926301688581
:1022500079858F8598890E94A50790936501809361
:1022600064012E813F81A0E1B7E20E94223B2091D0
:1022700022013091230140E050E00E94E43A205FC7
:10228000384D309367012093660103C0882309F419
:1022900098C3C0901B01D0901C01E12CF12C91013E
:1022A000A0E1B7E20E94223BA70196010E94E43A16
:1022B00030936901209368012B853C85A0E1B7E24A
:1022C0000E94223BA70196010E94E43A30936B01E1
:1022D00020936A014ECFF1E62F16310408F072C048
:1022E00021EDC21627E0D20608F46CC085E0809389
:1022F000210182E180932001C60186509F4FEB8926
:10230000FC898E179F0720F483E18093200116C07B
:10231000E0901B01F0901C01B6018B899C890E9402
:10232000A5079701DC010E94223B960140E050E0A6
:102330000E94E43A3093650120936401FA81F770BA
:10234000BF2E802F806480937C002BE02983CC24D7
:10235000C394D12CEE24EA94A3E0FA2EA89561E070
:102360008B8160D55AB880B18B21E9F33D853AB9AC
:1023700080917A00806480937A0080917A0086FD53
:10238000FCCF8091780090917900F701E81BF90B60
:10239000CE0EDF1EF981F150F983F111DFCFC601B6
:1023A000880F991F880F991F69E070E00E94BD3A5D
:1023B00070936B0160936A0180916F018F5F8093CE
:1023C0006F01D7CE5AB8EBB8812F0E9437075C0156
:1023D000802F0E943B079F838E830E94A0077C0171
:1023E0006A147B04A8F4B101C5010E94A5076C0121
:1023F00020911B0130911C0140E050E060E871EA3F
:1024000083E09CE10E94E43AD6010E94373B1DC064
:102410004AB82B812BB9812F0E9437075C01802F8E
:102420000E943B079F838E830E94A0077C01C50109
:102430002A143B0410F482199309B7010E94A507DE
:102440009C01A4E6B0E00E94223B970140E050E0EE
:102450000E94E43A29013A013A8131B912B84C811B
:102460004AB94BB98E890E9437076C01802F0E94B0
:102470003B074C01812F0E943B077C0180E3C8167B
:1024800081E1D80608F0C0C199819BB98E890E946C
:10249000370799878887E981EAB98E890E943707CB
:1024A000988B8F871BB881E00E940307F981FBB9E5
:1024B0008E890E9437072F8538892034364008F0EE
:1024C0005FC08133914108F45BC0C6018A569F4FBB
:1024D000288539852817390708F052C086E080938F
:1024E0002101809155018F5F80935501B701C4018F
:1024F0000E94A50790934B0180934A01B701C60142
:102500000E94A50790935101809350011AB81BB8FF
:102510003A8132B981E00E94030749814AB98E8924
:102520000E943707853F910508F05AC28C818AB90D
:10253000802F0E943707813D934008F451C28E8955
:102540000E943B078D3D924008F44AC229812AB976
:102550008E890E9437078D3D924008F441C249811F
:102560004BB981E00E9403071BB88E890E94370790
:10257000853F910508F034C287E08093210130C285
:102580008A8181B99B819AB99BB981E00E94030736
:10259000EA85EAB9EBB98E890E9437076C010E947F
:1025A000A0077C01802F0E943B079D838C830E94A3
:1025B000A00799878887812F0E943B074C012885B7
:1025C00039852E3F394008F4B0C084E08093210162
:1025D0008CE080932001B101C7010E94A5076C0126
:1025E000209122013091230140E050E060E871EA3F
:1025F00083E09CE10E94E43AD6010E94373BE885E3
:10260000F9859F0140E050E00E94E43A8091550135
:10261000882369F08091460190914701A09148017B
:10262000B091490182179307A407B50720F52093BD
:102630004601309347014093480150934901B4014A
:102640008C819D810E94A50790934B0180934A0144
:102650009701A0E1B7E20E94223B20912201309134
:10266000230140E050E00E94E43A30934D01209372
:102670004C0181E001C080E040914601509147014A
:10268000609148017091490144155505660577052B
:1026900028F540924601509247016092480170929D
:1026A0004901B5018E819F810E94A50790934B013E
:1026B00080934A019501A0E1B7E20E94223B20915C
:1026C0001B0130911C0140E050E00E94E43A205F81
:1026D000384D30934D0120934C0103C0882309F4F9
:1026E00080C19101A0E1B7E20E94223B20911B0131
:1026F00030911C0140E050E00E94E43A30934F01D9
:1027000020934E012B853C85A0E1B7E20E94223B3D
:10271000209122013091230140E050E00E94E43AF0
:1027200030935101209350015BC1F1E62F16310423
:1027300008F06AC029E4E2162DE0F20608F464C04D
:1027400085E08093210182E080932001C4018650BE
:102750009F4F8C159D0520F483E08093200115C0C8
:10276000A0902201B0902301B401C6010E94A507E8
:102770009501DC010E94223B970140E050E00E945D
:10278000E43A30934B0120934A013F893770D32EAE
:10279000802F806480937C004BE04A83EE24E39496
:1027A000F12CA89560E08B813DD38A858AB98BB9DD
:1027B00080B18D21E9F799819AB980917A0080647E
:1027C00080937A0080917A0086FDFCCF809178001A
:1027D00090917900E80EF91EEA81E150EA83E11157
:1027E000E0CFC701880F991F880F991F69E070E03B
:1027F0000E94BD3A70935101609350018091550140
:102800008F5F80935501ECC011B812B81AB81BB88D
:1028100011B8F7EC2F16F1E03F0608F4C4C012B867
:102820002E852AB908ECEA803F89E32AE1B881E0E5
:102830000E9403074A8141B98E890E943B07429753
:1028400010F0015099F78E858AB98BB961E08B81C0
:10285000E9D28E890E9437074C019D899AB91BB82D
:10286000EF89E1B9E2B960E08B81DCD2812F0E946F
:1028700037070E94A0076C01FD85FAB9812F0E94DD
:102880003B077C018E890E943707B7010E94A5078C
:102890007C01812F0E943B075C018E890E943707D3
:1028A000B5010E94A50797012C5E3F4F28173907F5
:1028B00008F47CC012B82A8121B939813AB93BB9F0
:1028C00061E08B81AFD2812F0E943B075C018E8932
:1028D0000E943707B5010E94A5075C01E816F906BA
:1028E00050F44E854AB94BB98E890E9437079C0136
:1028F000640175010FC08D898AB91BB89F8991B990
:1029000092B960E08B818ED2812F0E9437070E949E
:10291000A0079C01E8EEEE16E3E0FE0630F4C701E6
:1029200064E670E00E94BD3A06C0B70154E07695B7
:1029300067955A95E1F7C7018759910989389141FF
:1029400090F52E153F0578F5C60143E096958795DD
:102950004A95E1F7893C910510F088EC90E08C0DE8
:102960009D1D8E159F05F8F46C157D05E0F4809192
:102970002101833018F483E08093210120911F010D
:10298000822F90E0FC01EF56FE4F3E893083168384
:10299000880F991FFC01E356FE4FF182E0822F5F02
:1029A00020931F0103C0612F8E892AD011B812B85D
:1029B0001AB81BB88EE20E9499036796E2E10C9464
:1029C000E83B90916F019F5F90936F01882371F3B3
:1029D00000936C0110936D014E8940936E01E6CF18
:1029E00081E0909155019F5F909355018823F1F20A
:1029F000009352018E898093530110935401D6CFD6
:102A0000A0E0B0E0E6E0F5E10C94CE3BA895462FBF
:102A100050E0FA01EA50FE4F949033969491A82F1B
:102A2000B0E0FD01EA50FE4FE4903396F4907091CF
:102A30006F012091550130E0270F311D232B09F044
:102A4000ECC1A8952091250130912601220F331F5A
:102A5000220F331F309337012093360120917401E8
:102A600030917501220F331F220F331F3093350130
:102A7000209334012EEB20933201C0911F01E1E934
:102A8000F1E070E04A0F5B1F7C1759F02191A5819E
:102A900030E02A0F311D2417350709F451C07F5F3C
:102AA000F3CFD62FC82F12B891B9EAB8EBB8B8E176
:102AB000BB2EC12CD12C8D2F0E943707782E692E6A
:102AC0008C2F0E943B078C018C199D0997FF03C036
:102AD000919581959109039734F0A895BA9468016E
:102AE000B110E9CF2DC0EE0C1BB8EAB88C2F0E94B4
:102AF00037078135910520F5EBB88C2F0E943707F9
:102B00006C01F1B8F2B81BB89AB8A8E18A2EA12CD2
:102B1000B12C8C2F0E943707582E492E8D2F0E94E2
:102B20003B077C018A199B0997FF03C0919581950A
:102B300091090397CCF0A8958A9457018110E9CFA9
:102B40008091250190912601909337018093360161
:102B500080917401909175019093350180933401B7
:102B600089E18093320159C1990C9AB88D2F0E9446
:102B700037075C01003C84E4180730F425E8C216EE
:102B800021E0D206E8F605C080EBC8168DE4D80631
:102B9000B8F624EAE21622E0F20608F06CC088E9F2
:102BA000A816B10468F2C6010E94A007AC01960104
:102BB000A8E9B7EB0E94223B9A0140E050E00E9456
:102BC000E43A29013A01C5010E94A0079C01A8E945
:102BD000B7EB0E94223B850120E030E0A90198017B
:102BE0000E94E43A88E7C8168FE0D80680F4D30143
:102BF000C201F2E0880F991FAA1FBB1FFA95D1F7F7
:102C0000BC01CD01620F731F841F951F14C088E79C
:102C1000A8168FE0B806B0F4DA01C901E2E0880F27
:102C2000991FAA1FBB1FEA95D1F7BC01CD01640D06
:102C3000751D861D971D25E030E040E050E00E94A4
:102C4000E43A0CC0D301C201820F931FA41FB51F29
:102C50009C01AD015695479537952795A4E6B0E0C0
:102C60000E94373B2B013C012CEA420E2DE0521E04
:102C7000611C711C79C0672D762D0617170708F4A3
:102C8000B801C52CD42CCE14DF0408F46701061754
:102C9000170708F48B01A0902201B0902301C8010E
:102CA0000E94A5079501DC010E94223B2B013C01FB
:102CB000C8010E94A0079C0140E050E0C301B2019E
:102CC0000E94E43A29013A01CE14DF0408F47601A7
:102CD000A0901B01B0901C01B701C6010E94A5077E
:102CE0009501DC010E94223B4701A12CB12CA501DA
:102CF00094010E94E43A08378FE0180780F4D3016A
:102D0000C20162E0880F991FAA1FBB1F6A95D1F705
:102D1000BC01CD01620F731F841F951F14C088E78B
:102D2000E8168FE0F806C0F4DA01C90132E0880F36
:102D3000991FAA1FBB1F3A95D1F7BC01CD01640DA5
:102D4000751D861D971D25E030E040E050E00E9493
:102D5000E43A29013A0108C0420E531E641E751E52
:102D6000769467945794479410912101143008F099
:102D7000E7CEC1500C2F0D0F202F30E0E901C65ACD
:102D8000DE4F8881220F331F220F331FF901E655D2
:102D9000FE4F8823D9F1C080D180E280F380A30167
:102DA00092012C193D094E095F0957FF07C0509544
:102DB0004095309521953F4F4F4F5F4FAAE0B0E0CF
:102DC0000E94373B24E6C20ED11CE11CF11CA70176
:102DD0009601240D351D461D571D0E94E43A232BF4
:102DE000242B252B09F0ACCE133019F081E0809311
:102DF000210182E0888380917601E82FF0E0E35A98
:102E0000FE4F00838F5F809376019ACE408251827D
:102E10006282738281E0888393CECDB7DEB7E0E132
:102E20000C94EA3BCF93C82FC0959BB160FF02C0C2
:102E3000982B01C09C239BB99AB1892B8AB982E057
:102E40000E9403078AB18C238AB98BB1C823CBB9FE
:102E5000CF910895AF92BF92DF92EF92FF920F93BE
:102E60001F93CF93DF931AE08CEFD82E09E011B8AF
:102E700012B81BB8DAB880E00E9437077C0181E005
:102E80000E943B07EC0182E00E943B079C0180917D
:102E90002101893079F411B81AB8F0920401E09256
:102EA0000301D0930601C0930501309308012093DC
:102EB00007015CC084E0E816F10440F4C430D10599
:102EC00068F42430310538F391E00CC091E088EECD
:102ED000E81683E0F80618F090E001C091E0C83EE3
:102EE000D34008F49260283E334008F4946091B9CE
:102EF000C0E0D0E0A89580E00E942F075C0181E04F
:102F00000E943B077C0182E00E943B0724E1A2165D
:102F100025E0B20608F4089A24E1E21625E0F2065C
:102F200008F4099A843125E0920708F40A9A26E009
:102F3000A216B10430F426E0E216F10410F406976C
:102F400038F02196C43F81E0D807A1F60093210113
:102F5000E12CF12CEC16FD0631F00E94F2062FEF69
:102F6000E21AF20AF7CF115009F081CFDF91CF9129
:102F70001F910F91FF90EF90DF90BF90AF90089559
:102F8000CF92DF92EF92FF92CF9320917B0130910D
:102F90007C0140917D0150917E01C0918D018AE0BC
:102FA000C82ED12CE12CF12C8C2FCF5F213A96E842
:102FB000390791E04907510538F0CA01B901A70165
:102FC00096010E94E43AF0CF80938D01A0913601E2
:102FD000B09137010E94373B28E833E140E050E0F0
:102FE0000E94E43A20937B0130937C0140937D0161
:102FF00050937E01CF91FF90EF90DF90CF90089596
:103000008F929F92AF92BF92CF92DF92EF92FF92F8
:103010001F93CF93DF93982F990F980F2FEF260FC1
:10302000920F90935701E82FF0E0EA50FE4FD491B1
:10303000262F30E0F901EA50FE4FF490F901E750F5
:10304000FE4FD49090912101913009F49CC22091BF
:103050001F01E1E9F1E0DF0190E0921791F016968F
:103060003C911697631309C03C91831306C04485B5
:1030700055854C3D554008F486C29F5F11963296A7
:10308000ECCF162FC82F109288011092870181EF84
:1030900080938D0110927B0110927C0110927D0132
:1030A00010927E01D7DE12B8D1B8FAB8FBB88C2FD7
:1030B0000E943B075C01812F0E943B07A81AB90AB6
:1030C0001AB81092590110925801809158019091AC
:1030D0005901843F914008F0A9C0DBB9DAB90E94D8
:1030E000EC061AB81BB80E94F306A8958C2F0E9414
:1030F0003B077C01EA18FB08809158019091590127
:103100008E37910528F08BE4E816F1040CF48EC09C
:1031100080915801909159012DE2E21621E0F206CA
:1031200034F401969093590180935801CECF892BA6
:1031300009F0A1C185E1E81685E0F8060CF49BC111
:1031400089DE1BB887E081B912B8FD2EFF0CFAB8F2
:1031500080E480937B0084E580BF8C2F8064809323
:103160007C0086E180937A000E94F6061092590155
:1031700010925801109280001092850010928400E5
:1031800087E286BB81E280936F0081E080937801C3
:10319000FBB89091210180938100953009F04BC0DC
:1031A00081E090E00C2E01C0880F0A94EAF7809528
:1031B000877081B9F89483B7817F83BF809178014C
:1031C000882389F083B7816083BF7894889583B71B
:1031D0008E7F83BFF894A8958091580190915901F2
:1031E0008034964059F7789410928100E0908600E0
:1031F000F090870010926F0086E980937A001AB8E9
:103200001BB88C2F0E943B0720913A0130913B0163
:10321000821B930B0C969093900180938F01809169
:103220005801909159018032934038F011B812B88A
:103230001AB81BB8A8C1D1B8BDCF809158019091E0
:1032400059019093860180938501F0928401E09268
:10325000830184EF80938D018091580190915901F1
:1032600082349105C8F0609183017091840180914E
:1032700085019091860124E630E040E050E00E9414
:10328000E43A209383013093840140938501509365
:10329000860186EF80938D01A0917901B0917A012A
:1032A00020918301309184014091850150918601E4
:1032B0000E94373B20E233E040E050E00E94E43AD5
:1032C00020938301309384014093850150938601BC
:1032D00020937B0130937C0140937D0150937E01CC
:1032E0004FDE80918D01843F09F070C0C0907B015A
:1032F000D0907C01E0907D01F0907E0180EAC816BC
:103300008FE0D806E104F104C0F4A70196012C5423
:103310003F4F4F4F5F4F60EA7FE080E090E00E94B8
:10332000E43AC20ED31EE41EF51EC0927B01D09279
:103330007C01E0927D01F0927E01C0907B01D090F3
:103340007C01E0907D01F0907E01C114D10421E068
:10335000E206F10428F4D092BB01C092BA0106C083
:1033600081E090E09093BB018093BA018091570176
:1033700090E08F5D9F4F0E947D3C90E0A0E0B0E028
:103380008C159D05AE05BF0568F4C81AD90AEA0A6E
:10339000FB0AC0927B01D0927C01E0927D01F09209
:1033A0007E0114C034E1C30ED11CE11CF11CC8160F
:1033B000D906EA06FB0610F40E943A0D10927B0132
:1033C00010927C0110927D0110927E01DAB98091F9
:1033D0007B0190917C01A0917D01B0917E01499784
:1033E000A105B10508F422CFC12CD12C80911F0179
:1033F000882329F080912101853009F017CF88E0DA
:103400008093210180918D0190918E019817C4F0D5
:1034100089130CCF80907B0190907C01A0907D015E
:10342000B0907E0140917F015091800160918101B7
:1034300070918201481559056A057B0508F0F6CEA2
:1034400040917B0150917C0160917D0170917E01E2
:1034500040937F01509380016093810170938201BA
:1034600080938E01D0928A01C092890110938B01C2
:10347000C0938C01DBCEC701C12CD12C2091580107
:10348000309159012C153D0560F00E94ED068C2FFE
:103490000E943B078A199B09A8952FEFC21AD20AEE
:1034A000EDCF5701A81AB90A1A141B049CF439EC81
:1034B000A316B1040CF0BACE28EE33E0D5010E9479
:1034C000313B97010F2C000C440B550B0E94E43A42
:1034D000690102C0C12CD12C8091580190915901F1
:1034E0000196A0E0B0E08093830190938401A093C3
:1034F0008501B0938601C7018A0D9B1D98D020914C
:103500008301309184014091850150918601DC0155
:103510000E94373B609383017093840180938501FF
:103520009093860160937B0170937C0180937D0171
:1035300090937E0187EF80938D0122DD80907B0147
:1035400090907C01A0907D01B0907E0184E090E09D
:103550000E947D3CA8EEB3E0A81BB10987FDB3959E
:10356000A50194010E94413B24E630E040E050E098
:103570000E94E43A20937B0130937C0140937D01CB
:1035800050937E0133CFDF91CF911F91FF90EF9049
:10359000DF90CF90BF90AF909F908F9008951F9233
:1035A0000F920FB60F9211248F939F93B59904C079
:1035B00080917801811109C0B59B10C0809186006F
:1035C000909187008A3F910548F48091580190912D
:1035D0005901019690935901809358019F918F91C1
:1035E0000F900FBE0F901F9018951F920F920FB65D
:1035F0000F9211248F939F9310927801B09B10C06B
:1036000080918600909187008A3F910548F48091CF
:103610005801909159010196909359018093580156
:103620009F918F910F900FBE0F901F9018950F9242
:1036300021E08C32920710F48CE291E08C529140A0
:1036400069E170E00E94BD3A99E16B3210F0982F69
:103650006BE2981BE5E3F6E0E60FF11DE60FF11DC6
:103660004591559125913591692F421B530B649FCC
:10367000C001659F900D11240C9669E170E00E94D5
:10368000BD3A620F731FCB010F900895A0E0B0E028
:10369000ECE4FBE10C94D23B88E893E190932601A3
:1036A0008093250190933701809336018EEB8093B0
:1036B000320112B880E181B90E94FB0611B884E0A2
:1036C0000E943707AC018B5C9840833F9140A0F487
:1036D00081E0809341012091360130913701AFEBB9
:1036E000B9E00E94223B9A0140E050E00E94E43A97
:1036F0003093260120932501809125019091260188
:1037000090933701809336018EE10E943B078EE152
:103710000E94370790933B0180933A010E949A08D8
:1037200099DB12B8FF24F394F1B884E58BB9D4E0A7
:10373000DAB980E00E9437078C01C2E0C1B980E1AC
:10374000C82ECAB881E00E943707080F191FD1B9E7
:1037500090E4D92EDAB882E00E943707080F191FCB
:103760001BB8F2B8F1B8DAB980E00E9437070E94BE
:10377000A0077C01C2B9C1B9CAB881E00E9437076D
:103780000E94A007E80EF91ED2B9D1B9DAB882E0DA
:103790000E9437070E94A007E701C80FD91F11B880
:1037A00012B81AB820913601309137016901CC0C5A
:1037B000DD1CC20ED31EC01AD10ACC1ADD0AE12CC0
:1037C000F12C9801A0E9BAE10E94223BA7019601E1
:1037D0000E94E43A49015A013093400120933F018D
:1037E0009E01A0E9BAE10E94223BA70196010E9436
:1037F000E43A30933901209338012057354E309305
:1038000023012093220180E7881A85EE980A90927E
:103810001C0180921B0189E180933201CDB7DEB794
:10382000ECE00C94EE3BCF92DF92EF92FF920F937D
:10383000CF93DF93F82ED62FC42F0E94CF0380EDB5
:1038400092E00E943804FAD16D2F8F2D0E94C5326C
:10385000C090BE01D090BF01E090C001F090C101C6
:103860008091010187FD05C0C114D104E104F10478
:1038700021F08CEC92E00E9438048D2F0E94CF033F
:10388000C114D104E104F104A1F10E94D20380919A
:103890005D010E943C05CC2309F47EC08091420169
:1038A000813128F490E08757994F0E94380480E0D6
:1038B0000E94B604CD28CE28CF2801F16091BE0128
:1038C0007091BF018091C0019091C10103E028E493
:1038D00047EF0E94C4058FED92E00E9438048BE20E
:1038E00090E00E94853C23E046E464EF0E94AC0631
:1038F0001FC0C111D3CF80E00E94B60480915D014A
:103900000E943C05809101018E3F94F48EE094E08A
:103910000E9438046091090170910A0180910B01A5
:1039200090910C0103E028E4409101010E94C4053C
:103930008091B6019091B701A091B801B091B90101
:10394000892B8A2B8B2BF1F080E00E94B6046091CA
:10395000B6017091B7018091B8019091B90104E06E
:1039600028E440E00E94C4058AED92E00E943804F9
:1039700023E040E26FEF8091BC019091BD010E9475
:10398000AC0607C080E00E949C0480914501811133
:1039900007C00E94960404C080E00E94B6048ECF47
:1039A000DF91CF910F91FF90EF90DF90CF9008952E
:1039B000EF92FF920F931F93CF93DF93182F0E94E4
:1039C000040480918B010E94CF038AE294E00E945C
:1039D00038040DD560918B0180918C0160D3EC018E
:1039E0009093880180938701E0908901F0908A018B
:1039F000CA3F8FEFD80720F481ED92E00E9438048F
:103A000080918C010E94CF03112359F090914201C3
:103A100081E1891B0E94D50381E392E00E94380472
:103A200002C00E9496040E94120460917F0170916E
:103A30008001809181019091820104E026E440910F
:103A40008E010E94C405CA3FDF4F68F489E194E00B
:103A50000E94380422E044EF6EEF8091870190913C
:103A600088010E94AC060E9496040E941B04E11487
:103A7000F10469F082E194E00E94380422E045E21A
:103A80006FEF8091890190918A010E94AC060E949B
:103A90009604CDB7DEB7E6E00C94F43B8F7021F4CA
:103AA0000E9424040C94930D08958F3021F490917A
:103AB0003C01913011F08F5F089580E00895CF931D
:103AC0008CE392E00E949629C0E00E943C0960E0ED
:103AD00082E00E94001562E080E00E9400150E94D2
:103AE000040480917601882329F041E062E080E0BF
:103AF0009ADE12C08CE392E00E94380483E996E0DB
:103B00000E9438040E9412048FE30E94990380E00F
:103B10000E949C040E9496048C2FC0DF88EE93E0E4
:103B20000E940B08811109C080911A01843028F489
:103B30008C2FBBDFC82F8A3F40F20E940C04CF912C
:103B400008950F931F93CF93DF93C0E0D8E012EF57
:103B500001E10E943C0960E082E052DAD093210149
:103B600080918D01843FE1F480917B0190917C01F3
:103B7000A0917D01B0917E0184369105A105B1052A
:103B800078F440E060E082E00E94453060937B0181
:103B900070937C0180937D0190937E0110938D0141
:103BA00080918D01823FACF080938E0180917B01EA
:103BB00090917C01A0917D01B0917E0180937F0165
:103BC00090938001A0938101B093820181E0F0DEA7
:103BD0001CC00E94040485E392E00E943804809196
:103BE0004201902F981B892F0E94D50381E392E018
:103BF0000E9438040E9412048FE30E9499030E94DD
:103C000096040E941B040E9496048C2F47DF88EEC6
:103C100093E00E940B0881110AC080911A01843040
:103C200030F48C2F42DFC82F8A3F08F492CF0E94D5
:103C30000C04DF91CF911F910F910895A4E1B0E0A2
:103C4000E4E2FEE10C94CC3B82E0809301018091A0
:103C50002101813009F01FC280917601813009F085
:103C60001AC200915D0124E0029FF0011124E65583
:103C7000FE4F80819181A281B381893032E5930723
:103C8000A105B10508F007C24C0110E0802F1230E9
:103C900028F40E943205582E492E03C00E94320596
:103CA0002C01E42DF0E0E750FE4F2490852D90E0AC
:103CB000FC01EA50FE4FE4911BB812B820EF8216C7
:103CC0009104B0F410FD14C0A0901B01B0901C0131
:103CD00030E9A31A3AE1B30A21E030E0052C02C032
:103CE000220F331F0A94E2F7C901822981B906C065
:103CF000EAB921B8A0901B01B0901C01F4E13F2E5D
:103D0000852D0E9433073C01842D0E943B0734E03F
:103D10006316710410F4049718F03A943110F0CF40
:103D200080E480937B0094E590BF852D8064809330
:103D30007C0026E120937A00E12CF12C1092800087
:103D4000109285001092840037E236BB0E94F6067E
:103D5000812F8170382E10FD05C081E8809381008D
:103D600022B808C022B80E94FF0690E296BB81E804
:103D70008093810086B385FF12C012B81092810033
:103D800020E226BB20918600309187006901409196
:103D90008400509185002417350770F014C080FF0F
:103DA000E9CF31E036BBA89597012F5F3F4F7901EE
:103DB00020353105F9F6E1CF80FF05C081E086BBF3
:103DC0009FEFE91AF90A86E980937A00E4E12E2E42
:103DD000852D0E9433073C01842D0E943B0724E07F
:103DE0006216710410F4049718F02A942110F0CF91
:103DF00040903F0150904001480C591C4A0C5B1CFC
:103E000020911D0130911E0180E9A8168AE1B806B3
:103E1000B0F491EEC916D104E104F10438F4C601FE
:103E200065E070E00E94BD3A645101C069E128522A
:103E30003109261B310967FD339586E009C0C201AF
:103E400060EB76E30E94BD3A87E0860F285D3F4F26
:103E500090E0A0E0B0E08C159D05AE05BF0528F40C
:103E6000C81AD90AEA0AFB0A03C0C12CD12C760170
:103E7000332029F082E2C80ED11CE11CF11C90E530
:103E8000E916F10418F0C12CD12C76018BE0C8168C
:103E9000D104E104F10428F091E0C91AD108E10845
:103EA000F1084091360150913701612C712CA8EE38
:103EB000B3E00E94223B698B7A8B8B8B9C8B9501A4
:103EC000DA010E94223BA30192010E94E43A4427B6
:103ED000552769897A898B899C890E94E43AC901AE
:103EE0000E94F208FC01A3019201C701B6010E94E1
:103EF000A23A2B013C01CF01A0E0B0E073E0880FB3
:103F0000991FAA1FBB1F7A95D1F7BC01CD016B5F2A
:103F10007F4F8F4F9F4F2AE030E040E050E00E94FB
:103F2000E43AC301B2010E94E43AE12FF0E0A1E0DB
:103F3000B0E0AC0FBD1F84E0189FA00DB11D11248F
:103F40002D933D934D935C931397311016C09CE0D5
:103F5000C916D104E104F10480F03196EE0FFF1F81
:103F6000EE0FFF1F81E090E08C0F9D1FE80FF91FFF
:103F700020833183428353831F5FA8951F5F1430D2
:103F800008F484CE12B884E00E94030791E00D810A
:103F90001E812F81388549815A816B817C81401730
:103FA00051076207730708F090E00D851E852F8585
:103FB000388949855A856B857C854017510762078A
:103FC000730710F483E001C082E0E92FF0E0EE0F08
:103FD000FF1FEE0FFF1F21E030E02C0F3D1FE20F0F
:103FE000F31FD90134E0839FA00DB11D11240D9161
:103FF0001D912D913C914081518162817381041703
:1040000015072607370708F0892FE1E0F0E0EC0FED
:10401000FD1F94E0899FE00DF11D11244081518125
:10402000628173814093090150930A0160930B01EF
:1040300070930C0180FD08C020EF8216910420F4DB
:104040008BEF8093010117C08CEF80930101CB01AE
:10405000BA016B5F7F4F8F4F9F4F2AE030E040E007
:1040600050E00E94E43A2093090130930A01409302
:104070000B0150930C018091090190910A01A091CC
:104080000B01B0910C01892B8A2B8B2B11F4109210
:10409000010111B81AB86496E2E10C94E83BAEE174
:1040A000B0E0E5E5F0E20C94CC3B662EB82E860F2E
:1040B000898320912101283059F520917F01309189
:1040C0008001409181015091820157FD15C01091EE
:1040D0008E0109C0CA01B9012AE0312D412D512DAF
:1040E0000E94E43A1F5F173FACF391F4243160E083
:1040F00036074105510518F48FEF9FEF45C1173F73
:1041000039F480E028178DE738074105410510F0A4
:1041100020E03DE72C8B3D8B26EDA22EE9EFF1E070
:10412000E60DF11D859180608E87E9EFF1E0EB0DE2
:10413000F11D859180608F87E6EFF1E0E60DF11DBE
:104140007590E6EFF1E0EB0DF11DC59090EC692A5A
:10415000B92A81E0E82EF12C012D112D8E831F82CA
:10416000188619861A861B861C861D86188E198E3F
:104170001B8E1A8E0E942A1780E082B960927C0002
:104180000E94F7063F8531B97BB87AB852E05A955C
:10419000F1F7000000001AB81BB8DD243E8531B9E4
:1041A0007BB87AB860927C00A895A0927A00809142
:1041B0007A0086FDFCCF2090780030907900B09294
:1041C0007C004C2DE5D02091780030917900288B2F
:1041D000398B3F8531B9CBB8CAB8A895B0927C006D
:1041E000A0927A0080917A0086FDFCCF60917800E1
:1041F0007091790060927C00472DCAD04091780080
:10420000509179001AB8CB01820D931DE80EF91E6A
:10421000011D111DEA82FB820C831D838889998907
:10422000840F951F2E813F8168857985280F391F5E
:10423000611D711D2E833F836887798722E32417D0
:10424000150650F07BB87AB80E9401071AB81BB85F
:10425000888D8395888F07C0483E73E0570718F014
:104260008A8D83958A8F888999892817190660F025
:104270003E8531B9CBB8CAB80E9401071AB81BB83D
:10428000898D8395898F07C0883E73E0970718F062
:104290008B8D83958B8FD3945D2D5F3F49F05F3776
:1042A00031F45C2D550FC50E572D550F750E76CF79
:1042B00040903F0150904001440C551C9201E4E0B5
:1042C000240D351DEA95E1F72901570168016E803B
:1042D0007F8088849984209121012830C1F46C89E1
:1042E0007D89812D912D65507040804090409B01CB
:1042F000AC010E94A23A9B01AC0160EF7FE080E03C
:1043000090E00E94E43A621A730A840A950AA6149D
:10431000B704C804D90428F46A187B088C089D08DF
:1043200003C0662477244301B20180E090E093014A
:10433000A4010E94A23A9501A6010E94E43A80E0FD
:1043400090E07981870F911D0E947D3C682EC90104
:1043500060E170E00E94BD3A260F371FC901681660
:10436000190618F4861991090FC08C5E9F4F8615A7
:10437000910540F48C899D89843981E1980710F07A
:104380000E943A0D812D912D6E96E2E10C94E83B4E
:10439000109281001092800010926F0010928B009A
:1043A00010928A0057E056BB5FEF50938500509300
:1043B000840055E050937B0056EB50937A0051E017
:1043C0005093810058E25A95F1F700004BB94AB971
:1043D00055E05A95F1F700001AB81BB81092810009
:1043E00080917A0084FFFCCF80937A000895A0E04A
:1043F000B0E0EDEFF1E20C94D23B80918901909115
:104400008A01892B09F09BC0E0918B01F0E0E75015
:10441000FE4FD491E0918C01F0E0EA50FE4FC49140
:104420000E942A1712B81BB8D1B9CAB980918C0161
:104430000E943B078C01D0918E018CE08D0F84305F
:1044400008F07DC080917F0190918001A091810151
:10445000B0918201D15F2AE0822E912CA12CB12C47
:10446000BC01CD016B5F7F4F8F4F9F4FA501940122
:104470000E94E43A69017A01DA01C901DF5FD730AD
:1044800079F729E8C21623E1D206E104F10408F025
:1044900056C0059708F453C0CBB9CAB9C0E0D0E004
:1044A000CC15DD0520F40E94FD062296F9CF1AB83E
:1044B0001BB8A89585E08093320180918C010E9401
:1044C0003B070817190720F4EC01C01BD10B02C0F1
:1044D000C0E0D0E0A12CB12CAC14BD0430F40E949B
:1044E000FD068FEFA81AB80AF7CF80918C010E94C1
:1044F0003B0729E120933201A8950817190718F402
:10450000801B910B02C080E090E08C179D0788F41F
:104510009E01281B390B69F0A4EFB1E00E94223BF9
:104520009E0140E050E00E94E43A30938A012093DB
:1045300089010E942A1711B812B81AB81BB8CDB752
:10454000DEB7ECE00C94EE3BACE0B0E0EAEAF2E27D
:104550000C94CC3B389A282F21702A8780FD02C00A
:10456000409801C0409A97B1966097B94198429897
:10457000811106C085EA94E0D9D630EF3F8342C16D
:10458000813019F484E994E0F7CF843018F4419A2B
:104590004298F3CF863028F44198429A8AE894E012
:1045A000EBCF419A429A80E894E0E6CF998191500E
:1045B0009983992351F00E94EB06A895379902C080
:1045C00021E02A8385B58111F1CF15BC86B5809392
:1045D0000E0180910E0190910F01A0911001B091F8
:1045E00011018B839C83AD83BE830E941B040E94B8
:1045F00096040E9424040E9496040E94C20486E647
:104600000E9499030E94DE0360910E0170910F01D8
:104610008091100190911101409926C147E00E94BC
:10462000C1060E94D2030E94D2032098809181008B
:10463000882319F08FE30E94990310928100109251
:104640006F0020910E0130910F01409110015091A7
:104650001101DA01C9010197A109B109813F90480F
:10466000A105B10508F09FC0AAE0B0E00E94373B69
:10467000DC01CB010896A11DB11D23E0B695A795DD
:10468000979587952A95D1F7BC01660F771F709390
:1046900071016093700120980E94F20616BC10927E
:1046A0000E0110920F011092100110921101F1E011
:1046B000F5BBF0936E00109273011092720122E02C
:1046C0002BBB809168008260809368007894809111
:1046D0006C00816080936C0019820E94EB06A895A3
:1046E000379902C031E03A8380916C0080FDCAC0E6
:1046F00015BC80916C008E7F80936C008091680067
:104700008D7F8093680086B580930E010E941B0404
:1047100084E50E9499030E94DE0360910E0170916E
:104720000F018091100190911101A0917001B09141
:104730007101B987A88728EA31E640E050E00E947D
:10474000473BE885F985612C712C43015F01C12C41
:10475000D12CE12CF12C00E010E00E94703B4901CB
:104760004C875B872B011C01409B08C004E00E9422
:10477000053C49014C875B872B011C012885398545
:104780002038310508F485C007E023E745EFB40180
:104790008C859B850E94C40539813A3F09F093C0FE
:1047A0008FE30E9499034099EBC08B819C81AD817E
:1047B000BE81825F9048A109B1098E329E48A74010
:1047C000B10508F4DBC08B819C81AD81BE81813253
:1047D0009449AE41B10508F0D1C010926E0080ED51
:1047E00097E00E940B082A81820F09F0D8C08091BF
:1047F0001A01833008F0D3C03F8131503F83332307
:1048000009F4CDC020980E94F20614BC16BC109288
:104810000E0110920F01109210011092110161E02F
:1048200065BB60936E001092800083E19AE79093DD
:104830008B0080938A00A1E0B0E0B0938900A09340
:104840008800109285001092840083B5816083BD3A
:10485000B6E0B6BBB0936F007894E4E0E0938100DB
:10486000F2E3F9831A82A7CE44E0660F771F881F10
:10487000991F4A95D1F747E00E94C1068FE20E9436
:104880009903D1CE69816F5F69836A3F09F025CFB3
:104890002FCF84E6A82EB12CC12CD12CE12CF12CE9
:1048A00000E010E094014C855B85B201C1010E94DB
:1048B000703BF22FE42F07E023E747EF6F2F732FB2
:1048C0008E2F952F67CF94014C855B85B201C10176
:1048D000263E354B41055105610571058105910560
:1048E00009F008F460CF0E94240486E60E94990330
:1048F0000E94DE0394014C855B85B201C101540125
:104900002115BAEC3B07BAE94B07BBE35B0761052E
:10491000710581059105A1F098F06A01720181018C
:1049200020E030E04AE85DE568E775E483E691E081
:104930000E94703BF22FE42F07E028E44AEF13C0F7
:10494000CC84DB847201810120E030E44AE750E14D
:1049500063EF7AE580E090E00E94703BF22FE42F55
:1049600007E028E44DEF6F2F732F8E2F952F0E94B5
:10497000C4058AE70E949903209815CF409A2DCF4D
:104980008B819C81AD81BE818F309840A105B1059E
:1049900008F023CFFA85F11120CF40981ECF2C9636
:1049A000E2E10C94E83B1F920F920FB60F92112494
:1049B0008F939F93AF93BF93789480910E019091C2
:1049C0000F01A0911001B09111019F5FAF4FBF4F38
:1049D00080930E0190930F01A0931001B0931101E9
:1049E000BF91AF919F918F910F900FBE0F901F902D
:1049F00018951F920F920FB60F9211248F9386E095
:104A000085BD8F910F900FBE0F901F9018951F922C
:104A10000F920FB60F921124A8951092810015BC29
:104A20000F900FBE0F901F9018951F920F920FB608
:104A30000F9211242F933F938F939F938091720134
:104A400090917301892B11F481E085BD2091720151
:104A5000309173018091700190917101281739078D
:104A600030F015BC80916C008E7F80936C0080913B
:104A7000720190917301019690937301809372017A
:104A80009F918F913F912F910F900FBE0F901F908C
:104A90001895803108F08051811103C080E295E0C3
:104AA0004AC0813019F485EA94E045C0823019F497
:104AB00084E994E040C08A3019F48AE894E03BC06D
:104AC0008B3019F480E894E036C0833019F487EF16
:104AD00094E031C0843019F48CEE94E02CC0853021
:104AE00019F487E492E027C0863019F48CE392E051
:104AF00022C0873019F485E392E01DC0883019F494
:104B00008DED94E018C0893019F48CEC94E013C05A
:104B10008C3019F48DEB94E00EC08D3019F488E1DF
:104B200095E009C08E3019F48EE095E004C08F3016
:104B300021F483E095E00E9438040E9496040C94CE
:104B4000FF0308950F93CF9387E492E0EFD3C0E083
:104B50001092210160E082E0FED380912101883033
:104B6000C1F50E94120483E40E9499030E94DE03AF
:104B700060917F017091800180918101909182010B
:104B800003E026E440918E010E94C4050E94960431
:104B900060918B0180918C0182DA909388018093DF
:104BA00087010E941B048AE194E00E9438048091EE
:104BB0008701909188018A3F2FEF920730F422E01D
:104BC00044EF6EEF0E94AC0608C08FE30E94990389
:104BD00004C00E94C2040E941B040E9496048C2FF1
:104BE0000E944E1D88EE93E00E940B0881110BC0BD
:104BF00080911A01843038F48C2F0E94551DC82FE3
:104C00008A3F08F4A5CFCF910F9108951F93CF93BA
:104C1000DF9388E195E08AD3C0E0D0E01AE00E94FB
:104C200012040E94FF030E94FF0384E094E00E94AC
:104C3000380483E00E94370763E09C01129FC001A3
:104C4000139F900D11240E94B7060E9496048C2F8A
:104C50000E944E1D88EE93E00E940B0890911A016D
:104C6000811102C0992361F0C0E0963080F48F3545
:104C700010F0DF5F02C0882319F0D53010F007C0B4
:104C8000D0E08C2F0E94551DC82F803F40F2DF914D
:104C9000CF911F910895A4E0B0E0E1E5F6E20C9415
:104CA000CC3B87EF94E042D380E180938000109268
:104CB0006F0081E090E090938900809388001092CB
:104CC0008B0010928A0083E086BB1092820088E0FD
:104CD000809381001BB884E58AB912B881E081B95C
:104CE000229A89E080938100312C20E0FAE02F2E77
:104CF00031E03B83812C912C5401839441E14C831E
:104D0000832D90E00A966EE170E00E94D13A6A83AA
:104D1000062F621781F00E94040487EF94E00E943E
:104D2000380410E0101728F48EE20E9499031F5FE8
:104D3000F9CF0E9496045C815231B8F0C701B601E8
:104D4000A50194010E94E43A6B017C018B81622DE4
:104D50000E94B13AA92FB0E0A50194010E94373B0F
:104D6000C60ED71EE81EF91E0CC08B81622D0E9454
:104D7000B13AA92FB0E0A50194010E94373B6B0125
:104D80007C010E9412048B81281209C081E09C8161
:104D9000923108F480E08983811107C001C0198233
:104DA0002C81263120F082E503C08CE301C08EE324
:104DB0000E9499030E94D2034C81C701B6010E9450
:104DC000C106C701B6017E5E85489F4FA7019601C7
:104DD000220F331F441F551F0E94E43ACA014F3F60
:104DE000510539F030F08DE08093810080E094E04F
:104DF0001FC04034510530F08CE08093810080E08A
:104E000091E016C04830510530F08BE0809381006E
:104E100080E490E00DC0892B31F09AE090938100FE
:104E200088E090E005C089E08093810081E090E017
:104E30002C01612C712CCA01B901A30192010E94BD
:104E4000E43A215031093093890020938800809101
:104E5000880090918900892B31F421E030E0309373
:104E60008900209388000E9496040E941B0486E615
:104E70000E9499030E94D20300918800109189003A
:104E800060E079E08DE390E0A30192010E94E43AB2
:104E9000A4E6B0E00E94373B98012F5F3F4F40E00F
:104EA00050E00E94E43A29013A01A4E6B0E0A701EB
:104EB00096010E94373BA3019201261B370B480B3A
:104EC000590BCA01B90105E228E44EEF0E94C4055E
:104ED0008AE70E9499030E94960480ED97E00E9461
:104EE0000B08811105C080911A01811148C048C08A
:104EF000883C58F0109281001092800011B81AB8C6
:104F000022982496E2E10C94E83B813598F13981AE
:104F10003323E9F04C8141504C83C501B4012AE0B0
:104F200030E040E050E00E94E43A49015A01C701F4
:104F3000B6010E94E43ACA01B9012AE030E040E03B
:104F400050E00E94E43A6B833AE0232E45C05C8136
:104F50005631C0F55F5F5C83563111F425E1222E96
:104F6000AAE0B0E0A50194010E94373B4B015C012F
:104F70001B8232C08B3018F08B818F5F8B83312C7A
:104F800080911A018B3008F0B5CF8091190187FD0F
:104F900003C09B81890F04C08F5F820D2B81820F1C
:104FA00090E0622D70E06F5F7F4F0E94D13A8B835B
:104FB000832D0E94551D382E3FEE381708F49ACFE6
:104FC0002A819ECE8AE0282E41E04B83812C912CB1
:104FD0005401839451E15C83312CF2CFA0E0B0E026
:104FE000E4EFF7E20C94CE3B8CEE94E09FD183E2A9
:104FF0008093800010926F008FEF90E090938B0071
:1050000080938A0083E086BB109282001BB884E5FF
:105010008AB912B881E081B9229A81E090E0909338
:1050200089008093880089E08093810000E080E01F
:10503000D2E310E094E6C92ED12CE12CF12C882487
:105040008A9423E0922EA12CB12C8D17A9F1D4368D
:1050500008F0D4562D2F30E0AFEFB3E00E94223B92
:105060006E5C7F4F8F4F9F4FA70196010E94E43ADD
:1050700029013A0130938B0020938A000E94120488
:10508000A8EEB3E0A30192010E94373B61507E4F2E
:105090008F4F9F4FA50194010E94E43ADA01C901A4
:1050A00025E045E26FEF0E94AC060E94960419329B
:1050B00018F08CE30E94030780E496E00E940B083E
:1050C000182F833860F011B8109281001092800080
:1050D0001AB82298CDB7DEB7E0E10C94EA3B809194
:1050E0001A018B3080F7C0911901C7FDCC59CD0F43
:1050F000133310F0C65F03C0112359F0CF5F00E0F7
:10510000802F0E94551D082F803FE8F68D2FDC2F41
:105110009CCF8111F4CFF4CF0F931F93CF93DF93E4
:105120008CEC94E003D184E090E00E947D3CC82F99
:10513000D0E00E9412040C2F0C2E000C110BC7FFA4
:105140000BC08DE20E94990323E045E26FEF8827B0
:105150009927801B910B04C023E045E26FEFC80143
:105160000E94AC060E94960480E496E00E940B0820
:10517000811105C090911A01911103C003C08238BA
:10518000E8F4D0E090911A019B30C0F4909119019D
:10519000C90F882329F0893210F0CF5F01C0C150B8
:1051A000C13514F0C55603C0CC3E0CF4CB598D2F3D
:1051B0000E94551DD82F803F08F4BBCF6C2F84E090
:1051C00090E00E948A3CDF91CF911F910F9108954A
:1051D000813011F480E00BC0823011F481E007C00F
:1051E0008A3011F485E003C08B3019F486E0ACC935
:1051F0000895833011F44FCD0895843011F4EECE2C
:105200000895853011F49ECC0895863019F40C94DD
:105210005F1D0895873029F40E940C040C94A11D91
:105220000895883011F4CFC10895893011F474CFF6
:1052300008958C3021F481E10C94B80908958D30E3
:1052400011F4E4CC08958E3011F477C408958F30B2
:1052500011F40C945F090895FF920F931F93CF935D
:10526000DF938BE295E062D0D0E0C0E01FE01C0F3E
:1052700000E0FF24F394F00E60E08F2D0E94E6031F
:10528000013021F48EE30E94990302C00E94D203F0
:10529000103118F080EF810F01C0812FFADB0F2D44
:1052A0001F5F033031F780E49FE10E940B088111FA
:1052B000D0E090913C01913009F4D0E0823330F499
:1052C00090917701992371F0882361F0CC2341F10B
:1052D0008C2F7EDF10921A01109219018BE295E05B
:1052E00025D080E090911A019A30D0F49091190164
:1052F000992319F097FD05C0D0E0C90F81110CC0AA
:105300000CC0905FC90F811106C0D1E0C03108F414
:10531000ADCFC051ABCFD0E0CF5FDF5FD03AB0F3BD
:1053200080E0CDB7DEB7E5E00C94F53BCF93DF939B
:10533000EC010E940C04CE010E943804C4E682E015
:105340000E940307379902C0C150C9F70E94120496
:10535000DF91CF910895A0E0B0E0E1EBF9E20C9489
:10536000D53B182F062F862F90E0FC01E750FE4F0B
:10537000F490E12FF0E0EA50FE4FC491FC01EA50B6
:10538000FE4FD491109288011092870110927B01F8
:1053900010927C0110927D0110927E0187EF809324
:1053A0008D010E942A1712B8F1B8DAB9DBB9812F42
:1053B0000E943B077C01802F0E943B07E81AF90AF4
:1053C0001AB8109259011092580120E030E05CE2C6
:1053D000C52EDD24D394DAE064E6B62E8091580120
:1053E00090915901843D904308F071C0CBB98091F0
:1053F000580190915901892B89F0F601E21BF30BBA
:105400006091580170915901D29FC001D39F900DB6
:1054100011240E94BD3AE617F70750F4CAB90E945A
:10542000F6061AB88091580190915901019628C04A
:1054300080915801909159010B97C8F060915801E3
:1054400070915901B29EC001B39E900D11240E942B
:10545000BD3A6E177F0758F4CAB90E94EB061AB816
:1054600080915801909159018C599F4F09C0CAB938
:105470000E94F1061AB880915801909159010A963C
:1054800090935901809358011BB80E94F806A89583
:10549000812F0E943B079C012E193F0980915801E2
:1054A000909159018B31964018F0253231057CF0EE
:1054B0002D3281E038070CF491CF80915801909102
:1054C0005901019769F4253185E038074CF011B88E
:1054D00012B81AB81BB8CDB7DEB7E9E00C94F13BAF
:1054E0008091580190915901880F991FA0E0B0E078
:1054F0008093830190938401A0938501B0938601EA
:10550000C90168E270E00E94D13ACB01820F931F7B
:105510000E94171B209183013091840140918501E5
:1055200050918601DC010E94373B609383017093A8
:105530008401809385019093860160937B01709331
:105540007C0180937D0190937E010E94C017C090E2
:105550007B01D0907C01E0907D01F0907E0184E0A1
:1055600090E00E947D3CA8EEB3E0A81BB10987FD46
:10557000B395A70196010E94413B20E137E240E04C
:1055800050E00E94E43A20937B0130937C014093E9
:105590007D0150937E0188E08093210120937F015B
:1055A00030938001409381015093820180918D015D
:1055B00080938E0110928A011092890100938B01D1
:1055C00010938C0184CFA8E1B0E0E9EEFAE20C94EC
:1055D000D43B8DED94E0AADE0E94120486EC94E0A8
:1055E0000E943804DE015196CE010996AE014F5F4C
:1055F0005F4F9E01275E3F4F042FD52E1D921D92B7
:10560000FC0111921192CF01FA0111921192AF0196
:105610002A173B0799F784E58BB98AB9E12CF12C5D
:1056200010E0CC24C39434E0B32E42E0A42E12B890
:10563000C1B80E94000790B191FB882780F992FDC4
:105640008E5FE114F10471F0811771F0E02FFD2DF0
:10565000E80FF11DE80FF11D808591850196918776
:10566000808703C0182F01C014E0A1B80E94000772
:1056700090B1892F817092FD8E5F143059F4E02F24
:10568000FD2DE80FF11DE80FF11D8089918901962C
:10569000918B808BB1B80E94000790B1892F8170E7
:1056A00091FD8E5F143059F4E02FFD2DE80FF11DB0
:1056B000E80FF11D80819181019691838083A895E7
:1056C0000E94F206379904C01BB81AB811B8C6C0B8
:1056D00049895A894531510508F16B897C896531C1
:1056E0007105E0F08D899E8985319105B8F02F898B
:1056F000388D2531310590F0860F971F01E0841712
:10570000950708F000E0FF24F3948217930708F050
:10571000F12CCC24C39422E0E22E4CC049855A855A
:105720004531510510F16B857C8565317105E8F0D7
:105730008D859E8585319105C0F02F85388925316D
:10574000310598F0860F971F01E08417950708F040
:1057500000E0FF24F3948217930708F0F12CC12C8A
:1057600092E0E92EDD24D39431C049815A8145313C
:10577000510510F16B817C8165317105E8F08D81F7
:105780009E8185319105C0F02F8138852531310505
:1057900098F0860F971F01E08417950708F000E046
:1057A000FF24F3948217930708F0F12C82E0C82EAF
:1057B000EE24E394D12C0AC0FFEFEF1AFF0A89E12F
:1057C000E81686EFF80609F032CF48C00E94C204FE
:1057D00010E00E9412048D2D0E94CF038DE20E94E2
:1057E000990310FD02C08DE201C08FE20E9499036F
:1057F0008DE20E9499038C2D0E94CF038DE20E94BE
:10580000990311FD02C08DE201C08FE20E9499034D
:105810008DE20E9499038E2D0E94CF030E94D20335
:10582000812F837021F4002361F083E405C083306D
:1058300041F4FF2031F08FE60E94990380ED97E05C
:1058400004C00E94D20380E991E00E940B088111FC
:105850003BCF1F5F183709F0BCCF36CF6896EAE020
:105860000C94F03BCF92DF92EF92FF92CF93DF93B5
:10587000C4E1D0E812B8D1B984E00E94030711B89E
:1058800087E00E943B07049710F0C15099F7C1E0F0
:10589000C09357011BB880E881B912B846983E9A68
:1058A00080E480937B0084E580BF87E480937C0064
:1058B00086E180937A000E94F606109259011092B8
:1058C000580110928000109285001092840087E2A7
:1058D00086BB81E280936F00C0937801469AC093A3
:1058E00081000F98F89483B7817F83BF80917801FE
:1058F000882389F083B7816083BF7894889583B7C4
:105900008E7F83BFF894A89580915801909159019A
:105910008034964059F7789410928100E090860088
:10592000F090870010926F0086E980937A003E988D
:10593000469887E00E943B0720913A0130913B0155
:10594000821B930B0C969093900180938F01809112
:105950005801909159018032934008F0E3C0809142
:105960005801909159019093860180938501F0929E
:105970008401E092830184EF80938D01809158012E
:105980009091590182349105C8F060918301709122
:105990008401809185019091860124E630E040E009
:1059A00050E00E94E43A20938301309384014093B5
:1059B00085015093860186EF80938D01A091790136
:1059C000B0917A0120918301309184014091850149
:1059D000509186010E94373B20E233E040E050E0E6
:1059E0000E94E43A2093830130938401409385011F
:1059F0005093860120937B0130937C0140937D017D
:105A000050937E010E94C017C0918D01C43F09F0E0
:105A100053C0C0907B01D0907C01E0907D01F0905C
:105A20007E0180EAC8168FE0D806E104F104C0F4D4
:105A3000A70196012C543F4F4F4F5F4F60EA7FE024
:105A400080E090E00E94E43AC20ED31EE41EF51EF0
:105A5000C0927B01D0927C01E0927D01F0927E01A8
:105A60008091570190E08F5D9F4F0E947D3C409157
:105A70007B0150917C0160917D0170917E0190E0ED
:105A8000A0E0B0E084179507A607B70768F4481BA5
:105A9000590B6A0B7B0B40937B0150937C01609305
:105AA0007D0170937E0108C010927B0110927C01F1
:105AB00010927D0110927E0180917B0190917C017A
:105AC000A0917D01B0917E0189319105A105B105BB
:105AD00048F128E02093210120918E012C177CF0C1
