:10000000B1C60000C1C60000BFC60000BDC60000EA
:10001000BBC600000C94B028B7C600000C94F80DC5
:10002000B3C60000B1C600000C94B91F0C9494280C
:100030000C94A2280C94931FA7C60000A5C600002C
:100040000C946E28A1C600009FC600009DC600004B
:100050009BC600000C94F90D97C6000095C60000E1
:1000600093C6000091C60000B200A900A0001008CD
:10007000407E01013E01013E01013E01017E404002
:1000800018000720080808F80000002060A03FA022
:100090006020020202FF0202021010101F00000086
:1000A0000708FFDBBDB5B5CBFF0708FFBB9DADADB6
:1000B000B3FF0708FFFFF7FB81FFFF10100508F8EB
:1000C00078385888091003081C3E7F0D080710FF78
:1000D000818181F1E1C1FF4040404743410D08016A
:1000E00010FFFF11080310F1E1C14743410E000862
:1000F000202121122060E0E0E0FEFE040201000168
:10010000037F7F21C2C4C4C040948400070301025E
:10011000040E080210FEFE7F7F00000000110005A3
:10012000202060E0E0E00201000103C2C4C4C0403E
:1001300007030102040104100102044E6F742063DE
:10014000616C696272617465642120466F72FF633D
:10015000616C6962726174696F6E20636C616D704D
:10016000207468652033FF70696E7320746F676553
:100170007468657220616E64207374617274207794
:1001800069746820746865FF6B65792E2041636B24
:100190006E6F776C65646765207468652073656C45
:1001A000662D74657374207769746820746865209F
:1001B0006B65792077697468696EFF32732E20440D
:1001C0006973636F6E6E6563742070696E7320610E
:1001D0006674657220746865FF6D65737361676529
:1001E000202269736F6C617465FF50726F626521C4
:1001F000222069732073686F776E2E20536F6674A8
:100200007761726520616E6420646F63756D656EE1
:10021000746174696F6E2069732061742073766EE7
:100220003A2F2F206D696B726F636F6E74726F6CF3
:100230006C65722E206E65742F7472616E736973B3
:10024000746F72207465737465722000B90387033C
:1002500058032E030703E402C302A402880200002D
:10026000140029003E005300690080009700AE0092
:10027000C600DF00F80012012D014901650182016D
:10028000A001BE01DE01FF012102440268028E02CC
:10029000B502DE020903350364039403C803FE03B9
:1002A00037047304B404F90443059305EA054906C9
:1002B000B3062907AE074808FF08DE09FD0A930CBC
:1002C000480F991B00000000000000000000000023
:1002D000000000001E2121211200807F0000007E0E
:1002E0004A4A4A34000000000000FC402010080484
:1002F00002010000000101010101010101010101F0
:1003000001017F0488D0E0F0F80000000000000048
:100310000000000000000000000000FC9494840035
:10032000000102FC000000000000000000000000CE
:100330001E21212112E0C0804020100F000000C0CB
:1003400020202040000000FC00009E9E04030303C8
:100350000302000000202023242525232020203F05
:1003600000007B7B2142840480C00000000000006C
:100370000000000000000000FC94948400040607C4
:10038000070708F000000000000000000000000067
:1003900000803F2121120C00000000FF000000F04F
:1003A000084848C80000FE0000E7818181C1E1F1F2
:1003B00081818101002020202121212020203F0057
:1003C00000F340404041434740407FC000000000F0
:1003D00000000000000000000000489494946400B5
:1003E000000000FF0000000000000000000000000E
:1003F000000000003F2121120C0000FF000000F06F
:10040000084848D0000000000000FEFE0404040478
:10041000040404070008080809090908087F3E1CAD
:1004200008087F7F20202020202020E000000000FE
:1004300000000000000000000000000048949494B8
:10044000640000FF0000000000000000000000FF4A
:10045000003C0A090A3C0022312929260000828634
:100460008E9EBEFEFEBEDEEFF6FAFEFEFAF2E2C29F
:100470008200000008080804027984A4A46800FF30
:10048000000000000000000000000000000000006C
:1004900000000000000000FF0000F0282428F00009
:1004A0001008FC0000000000000000000000003CFC
:1004B0000A090A3C00FF00000000000000000000E4
:1004C0000000000000000000040C1C3C7CFF7C3C91
:1004D0001C0C040000000000009EA1A9A99A804302
:1004E00023130B0703FF03030303030300000000B0
:1004F00000000000000000788484844800FF0000B1
:1005000000000000000000F00804E21109090909D8
:1005100009090909091121C2040810E000000001BD
:1005200002040407000000000080402010884423DB
:10053000100804030000000000000000000000FE9E
:100540000100FC02010000000000000000000000AB
:100550000000000000000079494979000000000017
:100560000000000060FC0C0C0C0CFC60000303039A
:1005700003030300FEFCF8F060FEFE6007030100C9
:100580000007070060FEFE60F0F8FCFE00070700B1
:100590000001030760FEFE0000FEFE60000707008A
:1005A0000007070070F88C0C8CF870000606070036
:1005B0000706060000FEFE0000F8F800101F0F02FC
:1005C000040307060C0C0C0C0CFCFC600303030377
:1005D0000303030060FCFC0C0C0C0C0C0003030375
:1005E00003030303606060606060606000000000FF
:1005F00000000000E00000C00000C0000306060389
:100600000606030600C00000C00000E00603060660
:100610000306060300FCFE0121DE8C00101F0F0004
:1006200004070300000000000000000000000000BC
:1006300000000000000000000000000000000000BA
:1006400000000000000000000000000000000000AA
:10065000000000000000000000000000000000009A
:10066000000000000001FF0101FFFF001C0605045F
:100670000407071CFFFF0000FFFF0000070704043A
:1006800007071C00FFFF00FFFF00FFFF070704072D
:1006900007040F1F00C0F01808F8F8001C0F07042B
:1006A00004070F1CC0E028F8F828E0C00307141F57
:1006B0001F140703F8F80000F8F800000707040407
:1006C00007071C00F8F800F800F8F800070704070F
:1006D00004070F1C000000000000000000000000E4
:1006E000000000000000000000000000000000000A
:1006F00000000000000000000000000000000000FA
:1007000000000000000000000000000000000000E9
:1007100000000000000000000000000000000000D9
:1007200000000000000000000000000000000000C9
:1007300000000000000000000000000000000000B9
:1007400000000000000000000000000000000000A9
:100750000000000000000000000000000000000099
:100760000000000000000000000000000000000089
:100770000000000000001EFFFF1E00000000000C33
:100780000C00000000030700000703000000000049
:100790000000000088FEFE88FEFE880000030300C3
:1007A000030300001C3E222323C68C000307041C05
:1007B0001C0703000C8CC06030180C000301000003
:1007C00000030300E0F31F18A7C0A000000103030B
:1007D000010000000004070300000000000000000A
:1007E000000000000000F0FC060300000000000311
:1007F000060C000000000306FCF0000000000C06E0
:100800000300000020A8F87070F8A8200000000085
:1008100000000000006060F8F86060000000000167
:100820000100000000000000000000000000080FB0
:100830000700000060606060606060000000000011
:1008400000000000000000000000000000000006A2
:10085000060000000080C06030180C00030100009A
:1008600000000000FCFE030103FEFC00010306047F
:1008700006030100000406FFFF0100000004040756
:10088000070404000687C161311F0E000707040436
:10089000040606000203212121FFDE0002060404F3
:1008A000040703006070584CFEFF40000000000485
:1008B000070704001F1F111111F1E10002060404D3
:1008C00004070300FCFE131111F0E0000307040409
:1008D000040703000303C1E1311F0F0000000707F5
:1008E00000000000EEFF111111FFEE0003070404E9
:1008F000040703001E3F212121FFFE000004040421
:1009000006030100000000181800000000000003AA
:100910000300000000000018180000000000080F8D
:1009200007000000002070D88C06020000000000C4
:100930000103020000484848484848000000000001
:10094000000000000002068CD870200000020301A5
:1009500000000000000607E1F11F0E000000000685
:1009600006000000FC02F1C979C27C000102040407
:1009700004000000F8FC868381FFFF0007070000E9
:100980000007070001FFFF2121FFDE000407070425
:1009900004070300FCFE030101020F00010306042B
:1009A0000406030001FFFF0103FEFC000407070427
:1009B0000603010001FFFF21F901070004070704F6
:1009C0000404070001FFFF21F9030F0004070704D7
:1009D00000000000FCFE030141C2CF4001030604F9
:1009E00004030700FFFF202020FFFF00070700008F
:1009F00000070700000001FFFF01000000000407DE
:100A00000704000000000001FFFF010003070404C9
:100A10000703000001FFFF30EEC1030004070700D9
:100A20000007070001FFFF01000080000407070422
:100A300004060700FFFE18E018FEFF00070700008D
:100A400000070700FFFF1C70C0FFFF000707000042
:100A500001070700FCFE030103FEFC00010306047E
:100A60000603010001FFFF21213F1E0004070704C8
:100A700000000000FCFE038103FEFC0001030604ED
:100A80000502050001FFFF41C1FF3E000407070406
:100A9000000707008E1F113121E2C700070204047E
:100AA00004070300000F01FFFF010F00000004070F
:100AB00007040000FFFF000000FFFF00030704041D
:100AC00004070300FFFF000000FFFF000001030612
:100AD00003010000FFFF008000FFFF000107060385
:100AE00006070100038FFC70FC8F0300060701005E
:100AF00001070600001F3FE0E03F1F000000000765
:100B0000070000008FC36131190F87000707040435
:100B1000040607000000FFFF0101000000000707B6
:100B2000040400000E1C3870E0C0800000000000CB
:100B30000001030700000101FFFF000000000404A2
:100B4000070700000203010001030200000000008B
:100B50000000000000000000000000000808080875
:100B60000808080800000001010000000000000063
:100B700000000000C0E82828F8F000000307040483
:100B80000307040001FFFF0808F8F000040707044A
:100B900004070300E0F01808081810000103060419
:100BA00004060300F0F80809FFFF0000030704042F
:100BB00003070400E0F05848587060000103060481
:100BC0000406020010FEFF111306000004070704CC
:100BD00000000000F0F80808F0F80800091B1212E5
:100BE0001F0F000001FFFF1008F8F00004070700C6
:100BF00000070700000008FBFB00000000000407DE
:100C0000070400000000000008FBFB00000C1C10A3
:100C1000101F0F0001FFFF60F09808000407070095
:100C200000070700000001FFFF00000000000407AC
:100C300007040000F8F008F018F8F00007070003B8
:100C40000007070008F8F00808F8F000040707009C
:100C500000070700E0F0180818F0E00001030604A0
:100C60000603010008F8F00808F8F000101F1F1430
:100C700004070300F0F80808F0F800000307041464
:100C80001F1F100008F8F018083830000407070488
:100C90000000000010386848C898100003070404DA
:100CA000040703000808FEFF08080000000003070F
:100CB00004060300F8F80000F8F800000307040435
:100CC0000307040000F8F80000F8F800000103062C
:100CD00006030100F8F800E000F8F800010307013E
:100CE000070301001838E0C0E038180006070100CB
:100CF00001070600F8F80000F8F80000091B1212BE
:100D00001F0F00001898C868381808000707040467
:100D100004060700002020FEDF01010000000003A0
:100D200007040400000000FFFF0000000000001F97
:100D30001F000000000101DFFE2020000004040766
:100D40000300000002030103020301000000000091
:100D500000000000E0F0180C18F0E00001010101B3
:100D60000101010011241FBECFEFD8E0DEBFCDBFCF
:100D700021E0A0E0B1E001C01D92A23BB207E1F783
:100D80000E94E32E0C94A7363BC95D98559A80FDCE
:100D9000599A80FF5998519A549A5B9867FD5C9ACA
:100DA00067FF5C985B9A5B9866FD5C9A66FF5C984F
:100DB0005B9A5B9865FD5C9A65FF5C985B9A5B98B3
:100DC00064FD5C9A64FF5C985B9A5B9863FD5C9A37
:100DD00063FF5C985B9A5B9862FD5C9A62FF5C982B
:100DE0005B9A5B9861FD5C9A61FF5C985B9A5B988B
:100DF00060FD5C9A60FF5C985B9A5D9A5B985C987A
:100E0000089560933F018093040186958093A50126
:100E1000660F660F660F60930F0108951092A5018B
:100E200060E080E0EECF089581E08093A50160E06E
:100E300082E0E7CF089582E08093A50160E084E03E
:100E4000E0CF089583E08093A50160E086E0D9CFEC
:100E5000089580913F01809301018091A5018093C5
:100E6000030108958091030160910101880FC9CFAA
:100E70000895CF93C82F692F81E087DF6C2F81E021
:100E800084DFCF910895682F80E07FCF08958EEAA8
:100E9000FADF85EAF8CF0895CF93DF93C0E080E1D1
:100EA000F2DF80E0F0DF8C2F806BEDDFD4E860E0D4
:100EB00081E06BDFD150D9F7CF5FC83081F7AEDF6B
:100EC000DF91CF9108955A985B985C985D98529AFB
:100ED000539A549A559A00D55D9A559A5998519AB1
:100EE00084E101D55A9A84E1FED48EEACCDF82EE09
:100EF000CADF82EAC8DF80EAC6DF80ECC4DF8FE2A7
:100F0000C2DF83E2C0DF81E8BEDF87E093E00E94BA
:100F100079368F73B8DF80E4B6DF84EAB4DF86EA1F
:100F2000B2DFBADF8FEAAFDF60E080E06ACF08951A
:100F30000895582F28E030E090E841E080E0652FE8
:100F4000642309F0892B440F969521503109B9F794
:100F50000895A0E0B0E0EFEAF7E00C94E735EC018B
:100F600010E0C801860F911D813891050CF06CC00E
:100F7000F12CE40EF11C31E4E316F1040CF064C032
:100F8000742E76947694769481E0E81AF10893E0D2
:100F9000F594E7949A95E1F7E22FE2704E2E21FF47
:100FA0000DC0C701992787199109809FA001819FD2
:100FB000500D909F500D1124C40FD51FF7E0FE1562
:100FC00010F487E0E82E862F82958F708061382E8E
:100FD00087E0F82EF7186F70662E2170522EE714F6
:100FE00068F18F2D806B4FDF832D4DDF862D4BDF1A
:100FF0005E01A00EB11EC5014E01C817D907A9F0A8
:101000009C01215031096901552011F0F90101C0FD
:10101000F4018491411001C08CDF682F81E0B5DEBE
:10102000C601FFEF8F1A9F0AE8CF442019F05E0136
:10103000A01AB10A7394FA94E501D1CF90910401FA
:1010400087E0891B806B1FDFCDB7DEB7E1E10C9431
:101050000336EF920F93482F282F2F7380E6289F97
:1010600090011124C9018C539D4F46FF02C028E016
:1010700001C028E42093100147FF03C01092000133
:1010800008C020E220930001209110012D5E2093E2
:10109000100120E2E22E08E120E040910001609181
:1010A000100157DF0F91EF900895EF920F93262FC5
:1010B000FC01649131964491319604913196E4900B
:1010C00030910001430F30911001630F049641DF0E
:1010D0000F91EF90089560E0E8CF0895EF920F939D
:1010E00090913F019F5F90933F0140910401440F15
:1010F000440F440F20E1829FC001112420E1E22E21
:1011000008E020E060910F018C599A4F22DF809116
:101110000F01885F80930F01A8950F91EF900895BC
:101120008F5CDCCF089580E2D9CF0895CF93C82F8C
:101130001C161CF4F8DFC150FBCFCF91089590919D
:101140003F0180E1891BF2CF0895CF93C82FF7DFCD
:101150008091A5018F5F8093A501843038F083E0F2
:101160008093A50181E08093420102C01092420168
:101170008091A5016C2F880F44DECF910895E5DFA3
:1011800098C408954BDEDBDF49CE08954DDED7DFEE
:101190004BCE08958DE3A2CF0895CF93DF93EC015A
:1011A0008991882311F09ADFFBCFDF91CF910895C9
:1011B000CF93DF93EC01FE018491982F9F7719F074
:1011C0008DDF2196F8CFDF91CF910895CF93DF93F4
:1011D000EC01CE010E947936982F9F7719F07EDFBF
:1011E0002196F7CFDF91CF910895EF920F93FC01F5
:1011F00004913196E4900296ACDE0F91EF90089541
:101200000F938DE691E0E2DF409189014D3F64F458
:1012100060917701709178018091790190917A01C4
:1012200003E026E400D102C08FE358DF0F91089558
:1012300090911D019F70923071F4A1DF84E690E0DF
:10124000C5DFE0914001F091410122E044E06FEF01
:1012500084819581D2C1089597FF09C08F939F9390
:101260008DE23CDF9F918F91909581959F4F65E234
:1012700071E04AE050E00E9446368FCF0895ECDFDF
:1012800001C0EADF50CF0895EF92FF920F931F93B2
:10129000182F062FF42E8FE491E098DFEE24E091D2
:1012A0004001F09141018685E81611F4812F09C0B3
:1012B0008485E81611F4802F04C08585E81611F4A2
:1012C0008F2D0CDFE3948E2D833049F71F910F9102
:1012D000FF90EF900895EF92FF920F931F93182FB6
:1012E000062FF42E80E04BDF1EDF85E591E06EDFF8
:1012F0004F2D602F812FC8DF1F910F91FF90EF902E
:101300000895682F80E092E0662309F491E062304E
:1013100009F481E008950F93082FE6EAF1E0880FC1
:10132000880FE80FF11D608171818281938164369D
:1013300071058105910570F42091020127FD0AC015
:10134000802FDFDF692F0E9472246EEF23E044E0DC
:1013500054D104C04FEF04E024E065D0E4DE0F91E7
:101360000895863058F4E9E9F1E0E80FF11DE80F3F
:10137000F11D8081918163E04BD1D5CE08951F93FB
:10138000182F80917301882319F0CDDE80E0A6DE4E
:101390004BDD86E491E01ADF812F82958F70E1DFCB
:1013A000812F8F70DEDF1F9108958091110182954A
:1013B0008F7019D08091110183701CD08091110120
:1013C000DECF0895EDE8F1E0E80FF11D0895CF9329
:1013D000F9DF9081C681C91710F405D001C013D080
:1013E000A2DECF910895EEDF8F93808199DE8F91F9
:1013F00001C008958F938EE091E0E8DE8F91E2DFE7
:1014000086818ECE0895DEDF8F93868189DE8F916F
:1014100001C008958F938AE091E0D8DE8F91D2DFEA
:1014200080817ECE0895AEE0B0E0E9E1FAE00C9470
:10143000E635142F622E702E6B017C010F7080E355
:1014400089838A838B838C838D838E83F7FE0BC085
:101450008DE244DEF094E094D094C094C11CD11C81
:10146000E11CF11C04C075FE02C08BE237DE0330C4
:1014700071F0043099F00530C1F00630F1F007301A
:1014800021F174E6872E912CA12CB12C25C068EE99
:10149000862E63E0962EA12CB12C1EC050E1852E25
:1014A00057E2952EA12CB12C17C040EA842E46E8B5
:1014B000942EAA24A394B12C0FC030E4832E32E4DE
:1014C000932E3FE0A32EB12C07C020E8822E26E900
:1014D000922E28E9A22EB12C9AE0292E312C412CF3
:1014E000512CC814D904EA04FB0470F0C701B601FA
:1014F0006B5F7F4F8F4F9F4FA20191010E94FE347F
:1015000069017A011F5FEDCF81E1810F9BEA899F1D
:10151000812D1124A82EA69486E0811B899F112D70
:1015200011241695912F990F190F811B182F4E0119
:1015300087E0880E911C2AE0A401C701B6010E9431
:101540002536F40101900020E9F731977F01E81872
:10155000F9089E2C6701DD24812F90E004968C15FC
:101560009D0514F4A3941D5F8A2D90E0845E9F4F27
:101570000E947936A82E74FE04C0901610F40E193D
:1015800001C000E08E2C811A800E181424F08EE227
:10159000A5DD012F0E19111102C088EF882E912CA4
:1015A00010E0C00ED11EE82C082C000CFF08892D7D
:1015B00090E08C159D05ACF4FC013696E01BF10B18
:1015C00081E090E08C0F9D1FE80FF91F808186DD80
:1015D0009394892D90E08E159F0549F78EE27EDD6C
:1015E000E6CFAA2011F08A2D79DD662011F0862D34
:1015F00075DD2E96E2E10C9402360F93362FBC0176
:1016000080E090E0022F242F432F0DDF0F910895EB
:101610000F93062FBC0180E090E026E54DEF03DF3D
:101620000F9108950F93042F28E440E0FCDE8AE731
:1016300055DD79DD0F910895E82FF0E0EE0FFF1FE3
:10164000E859FF4FA591B49190910001490F9091F5
:101650001001690F20E0CD01C8CD0895CF93DF932D
:10166000C82FD62FE0914001F091410148E16EE191
:101670008685E2DFE0914001F09141014D2F6C2F12
:101680008485DADFE0914001F091410140E06EE1B4
:101690008585D2DFDF91CF910895CF93DF93FCDB77
:1016A00080ECD7DC62E080E890E0FFDC80E8D1DC11
:1016B0008BEB90E010DD60E085E0A3DB82E691E05B
:1016C00085DD68E085E09DDB8AE591E07FDD88E9E6
:1016D0009AE3B3D1E1DB83E4BCDC83E0BADC84ECE5
:1016E00090E0F9DC61E082E08CDB8EE4F7DC8DE2F7
:1016F000F5DC8CE791E06ADD69E082E082DB80E581
:10170000EDDC8DE2EBDC8CE791E060DD88E99AE3CB
:1017100094D1C2DB81EC9DDC81E89BDC8DE191E022
:10172000DADC60E085E06DDB8EE4D8DC8DE2D6DCCF
:1017300085E4D4DC86E791E049DD68E086E061DBA2
:1017400080E5CCDC8DE2CADC85E4C8DC86E791E08C
:101750003DDD88E99AE371D19FDB81E47ADC81E1A8
:1017600091E0B9DC81E075DC8DEE90E0B4DC60E006
:1017700081E047DB8EE4B2DC8DE2B0DC84E4AEDCF9
:1017800086E791E023DD68E082E03BDB80E5A6DCD4
:101790008DE2A4DC84E4A2DC86E791E017DD88E931
:1017A0009AE34BD179DB82EC54DC82E852DC83EEA5
:1017B00090E091DC60E085E024DB8EE48FDC8DE25C
:1017C0008DDC85E48BDC81E891E000DD68E086E07B
:1017D00018DB80E583DC8DE281DC85E47FDC81E859
:1017E00091E0F4DC88E99AE328D156DB82E431DC2D
:1017F0008DED90E070DC82E02CDC8BEC90E06BDC1B
:1018000061E081E0FEDA8EE469DC8DE267DC84E48D
:1018100065DC81E891E0DADC69E082E0F2DA80E51B
:101820005DDC8DE25BDC84E459DC81E891E0CEDCB8
:1018300088E99AE302D130DBF1DA80E091E0C6DC9E
:10184000F3DA8BEF90E0C2DCF6DA88E391E0BEDCFD
:10185000F9DA8EE091E0BADC66DC8AE091E0B6DC91
:10186000C0E08C2F8F7061F4DC2FD295D37021F4FF
:1018700088E99AE3E2D010DB60E08D2F880FC1DAAF
:1018800080E28C0F2BDCCF5FCF3559F788E99AE3E4
:10189000D4D002DBDF91CF910895089503D002D018
:1018A00001D000D000D003D002D001D000D000D0B1
:1018B00003D002D001D000D000D0A89503D002D030
:1018C00001D000D000D003D002D001D000D000D091
:1018D00003D002D001D000D000D003D002D001D07C
:1018E00000D00000089590E0893C28F0885C48EC26
:1018F000849FC0011124009709F40895209181006C
:10190000277019F0DADF0197F6CF8130910519F0D1
:1019100002973EE303C037E180E090E02091B200FF
:10192000230F2093B30042E04093700027E023BFD1
:10193000889526E023BF10927000A895DCCF8F9386
:1019400084E0D1DF07C08F9382E0CDDF03C08F93A7
:1019500081E0C9DF8F911F93182F106410937C00D2
:10196000E12FE07880913001E81759F0E0933001E1
:10197000AEDF8EE980937A0083E083BF889582E0B2
:1019800083BF20E030E0A901E0E01FC08EE9809332
:101990007A0083E083BF889582E083BF60917800FE
:1019A00070917900260F371F411D511DE43061F4FD
:1019B00080913201803041F084E02030380720F4FB
:1019C00017FD02C01068CACFEF5F80912F01E817A2
:1019D000E8F2609133017091340117FF04C0609107
:1019E00031017091320180E090E00E94BC342FEF11
:1019F00033E040E050E00E94FE34B901CA0120917A
:101A00002F0130E040E050E00E94FE34C9011F91F8
:101A100008959B01281B390B50F0C9010895BC01A2
:101A200080913301909134016817790718F4861B6F
:101A3000970B089580E090E00895EF92FF920F9346
:101A40001F93CF93DF93F82EE92EC5E64F9B05C079
:101A5000CF2DDE2D15E500E019C081E044DFC15037
:101A6000A9F7F6CF82E03FDF110F4F9B1F5F1F7377
:101A70001F3379F4011103C0CF2DDE2D04E00F5F79
:101A8000083C88F4A8951C161D0644F0D7FFEACF41
:101A90000AC01111F7CF0023A9F305C02A97B1F7A7
:101AA000CFEFDFEFF3CF802FCDB7DEB7E6E00C94BA
:101AB0000E36CF93CED9C82F809142018823D1F022
:101AC000813051F4C33041F46FE086E09AD98BE263
:101AD00005DB6FE086E095D980E49FE1AEDFC3309F
:101AE00041F480914201813021F460E086E089D99F
:101AF00026DBB8D9CF91089584E193E00E9479362E
:101B0000382F85E193E00E94793620913701230F29
:101B100030913801381F20931A0130931B0183E064
:101B2000283E380720F0C901885E934002C080E05B
:101B300090E062E370E00E94D734683008F067E01C
:101B4000ECE4F2E0E60FF11DE60FF11D4591559131
:101B50002591359162E3681B421B530B649FC001C2
:101B6000659F900D1124499662E370E00E94D7347E
:101B7000620F731F709376016093750186E193E0A5
:101B80000E947936992787FD909560913701709171
:101B90003801860F971F9093320180933101909303
:101BA0007201809371010895CF93DF9324E130E0B7
:101BB000B9010E94D734DC01EEE5F2E0E60FF71F31
:101BC000E60FF71FC591D591459155914C1B5D0BC3
:101BD0004A9FC0014B9F900D5A9F900D1124B9014F
:101BE0000E94D7346C0F7D1FCB01DF91CF910895F8
:101BF0001895189530911C01A0914001B0914101B8
:101C0000EDE8F1E080E090E08317B0F441911C969C
:101C10002C911C97421719F04581241302C001969C
:101C2000F3CFFC01EE0FFF1FE756FE4F20813181FD
:101C3000293E334008F4089584E1089510921E016E
:101C400010921C0110926C011092520110921D0111
:101C500010923E0110927301E7E5F1E010821182CB
:101C60001282E7E7F1E0108A82E0818B1092020194
:101C700017861686148215821682178281EF838B4F
:101C8000089505D95E980DDE80E090E0D6CE0895E7
:101C90001F93CF93DF93162F17B818B8E82FF0E0F3
:101CA000EB5CFE4F949195B9262F281BE20FF11D96
:101CB00027FDFA95E491E92BE4B94DDEEC01812F83
:101CC0004ADEAC01209133013091340136952795DD
:101CD000C9010397BE01625E7F4F8617970778F4AC
:101CE000255E3F4FC217D30750F4BA01625E7F4FA3
:101CF0008617970720F481E04217530708F080E029
:101D000014B8DF91CF911F910895CF9361E080E0E7
:101D1000BFDFC82F62E080E0BBDFC80F62E081E078
:101D2000B7DF8C0FCF910895AFE0B0E0EAE9FEE0B5
:101D30000C94E635B82E10921E01807FA9F4E5DFE1
:101D4000833009F083C3A8D88FE392E03FDA6CD8E0
:101D50008FE3C4D980ED97E070DE8B30C0F49CD85F
:101D60008DEE90E033DA72C306E910E095D88EEA82
:101D700091E02CDACADF833021F41F5F143010F0B9
:101D800006C010E088E2AFDD015081F763C04CD897
:101D90000E941A2089EA90E019DA60E08AE093E074
:101DA0000E94863660E08BE093E00E94863660E019
:101DB00089E093E00E94863660E082E00E9472240F
:101DC0006C019A83898361E082E00E9472247C0125
:101DD0009C838B8360E081E00E9472248C019E834F
:101DE0008D8323E040E26EEFC60107DC23E040E292
:101DF0006EEFC70102DC23E044E06EEFC801FDDBBB
:101E00002AE5C216D10424F084E190E09A83898304
:101E100069818AE093E00E9486368AE5E816F1043B
:101E200024F084E190E09C838B836B818BE093E0D2
:101E30000E9486360A35110524F084E190E09E83E5
:101E40008D836D8189E093E00E94863682E08093E5
:101E500042012FDEEB2DEF70EF87E13011F018E734
:101E600036C1EE24E394F12C78EB872E72ED972E99
:101E700077E4A72EB12C02E0E8E0DE2EF0E23F2E60
:101E8000C12C1E2D52E2252E81D97CD984E526D97C
:101E9000C701EDD948D91130B9F48CED90E096D94D
:101EA00064E08091370190913801B2DB0E94140701
:101EB00087ED90E08BD98091750190917601D7D90B
:101EC0008EEB80932F01E0C0123079F52091330121
:101ED00030913401A8E5BBE10E943C3524EC36E3A7
:101EE00040E050E00E94203529013A0181E085B9A7
:101EF000F5E0F4B980E023DD841995099A8389839C
:101F000081E184B980E01BDD841995099C838B8372
:101F100084E085B984E184B981E011DD84199509F3
:101F20009E838D8381EC90E09EC0133041F505B90E
:101F30002AE024B980E003DD20913301309134019F
:101F40003695279538872F83821B930B9A83898335
:101F500024B880E0F4DC2F813885821B930B9C83AE
:101F60008B83D5B888E284B981E0E9DC2F8138859C
:101F7000821B930B9E838D8383EB90E074C014309F
:101F800039F48FE292E022D9C0DE81115CC26FC0C9
:101F9000153099F415B804B980E0D1DC9A838983AF
:101FA000D4B881E0CCDC9C838B8334B882E0C7DC7E
:101FB0009E838D8383ED90E056C0163039F504B9C9
:101FC00005B980E0BCDC2091330130913401821BE3
:101FD000930B9A838983D4B8D5B881E0B0DC209183
:101FE000330130913401821B930B9C838B8334B873
:101FF00035B882E0A4DC2091330130913401821B9A
:10200000930B9E838D838FEC90E02DC0173069F584
:102010002091330130913401A8E5BBE10E943C35A9
:10202000A50194010E94FE3429013A0105B9E3E0BB
:10203000E4B980E084DC841995099A838983D5B852
:10204000FCE0F4B981E07BDC841995099C838B83E7
:1020500035B820E324B982E072DC841995099E83A7
:102060008D838DEA90E0B2D802C0113069F00E94F1
:10207000140789819A81F0D856D88B819C81ECD83D
:1020800052D88D819E81E8D817B818B814B815B801
:1020900088EE93E0D2DC143011F08B3020F4C3943E
:1020A00084E0C812F1CE88EE93E0C7DCEFEFEE1AC1
:1020B000FE0AF8E0EF16F10409F0E2CED0CE66D8C1
:1020C0008FE292E083D884E60EDC115019F01DDE19
:1020D0008111F5CF0E944C0782EA90E077D823E087
:1020E00044E06FEF809135019091360186DA0E94CD
:1020F00014078BE990E06AD823E044E06FEF809109
:102100003C0190913D0179DA82E080934201D1DC7B
:1021100010921E010E944C0787E990E057D860E0BA
:1021200082E00E94D51C80907F0190908001A09059
:102130008101B09082019C868B8661E082E00E94E2
:10214000D51CC0907F01D0908001E0908101F0907B
:102150008201DE86CD8660E081E00E94D51C009180
:102160007F01109180011E830D8362E080E00E9458
:10217000D51C80917F01909180019C838B8362E0CC
:1021800081E00E94D51C80917F01909180019A8707
:10219000898761E080E00E94D51C80917F01909149
:1021A00080019A8389832F85213021F020913B0182
:1021B000223021F4029698878F8304C098878F83FA
:1021C00010923B01C4015DD8C6015BD8B801110F64
:1021D000880B990B03E026E444EF25D98E010F5FAD
:1021E0001F4F6E018FE0C80ED11CF80181919191B3
:1021F0000A97853B9105D8F4CE16DF06B9F74DE076
:10220000E42E43E0F42EF80160810E5F1F4F6E5EF6
:10221000C7010E948636FFEFEF1AFF0AC016D106EB
:1022200091F70E94140782E991E00E94E60882E09B
:10223000809342013EDC2F85213029F080913B01C3
:10224000823009F0EAC00E944C0780E00E949008AA
:1022500088E391E00E94E60882E00E94900884E111
:1022600090E00E94E60820E4F22E10E03AE0832E8F
:10227000912CA12CB12CE2DC10921E0160E082E0D6
:102280000E94D51C0091890120917701309178013D
:102290004091790150917A01073F44F40F5FCA01E0
:1022A000B901A50194010E94FE34F6CF0093890183
:1022B00020937701309378014093790150937A010C
:1022C000073F09F093C0DA01C90180569109A109BD
:1022D000B10980399545A105B10508F087C0609125
:1022E0008B0170918C01CB018B569F4F8B329140AB
:1022F00008F07CC01F5F153008F479C084E193E0DA
:102300000E9494360E944C078DE090E00E94E608FF
:1023100080918B0190918C010E942C09EDDB18B803
:1023200081E087B980E284B982E015DB853D934086
:10233000DCF714B8109232011092310182E00BDB0D
:102340008C01809171019091720190933201809380
:10235000310182E000DB7C01EE0CFF1C10923201A7
:102360001092310182E0F7DAA0907101B090720111
:10237000B0923201A0923101800F911F8C010E1991
:102380001F090E94140786E090E00E94E60886E19B
:1023900093E00E947936D82E9501D8010E944B35E2
:1023A00097010F2C000C440B550B0E94203513E0B5
:1023B0001D0D120F612F86E193E00E948636812F5A
:1023C000012E000C990B0E942C0996DB82E0809371
:1023D00042016FDB10923B018DE093E00E94793661
:1023E000682F80E193E00E94863617C010E00E94BB
:1023F0001407609177017091780180917901909133
:102400007A0104E026E4409189010DD80E949F08DA
:1024100088E269DAFA94F1102ECF87E380932F01D6
:102420000E944C078DEE90E00E94E6080E9414077F
:1024300086E292E00E94E60810921E0182E08093FC
:10244000420137DB03C082E0C82E11CE2F96E2E1B5
:102450000C94023680913B0181110DC08DE093E018
:102460000E94793661E0680F80E193E00E94863631
:1024700081E080933B010895EF92FF920F931F93A9
:10248000CF93DF93D62FE82FF0E0E85CFE4FE49186
:10249000E8B9E7B915B8E62FF0E0EB5CFE4FE49140
:1024A000E4B988E8E82E83E1F82ECE2FCC0F8D2FEB
:1024B00046DA8C01C4B98E159F0510F47801F7CF68
:1024C000892BE1F00E94220788E191E00E94E60852
:1024D000D80120EA36E841E050E00E94513528E971
:1024E00037EB40E050E00E94FE34DA01C90122E0FF
:1024F00041E467EF82D817B818B814B8CDB7DEB783
:10250000E6E00C940E36CF92DF92EF92FF92CF93DB
:10251000DF9385E020DA85E01ADAEC019C01A1E284
:10252000B0E00E943C3521E230E040E050E00E9403
:10253000FE3469017A0110923901C9018C5593402A
:10254000893F914150F086E891E00E94E6080E94A0
:102550009F0881E08093390124C085E991E00E94C1
:10256000E608C601889662E053D80E949308C437F3
:102570008EE0D80780F4C43EDC4050F488E992E055
:102580000E94E6080E949F088DECADD97ADB09C055
:102590008FE992E002C082E991E00E94E6080E9481
:1025A0009F08DF91CF91FF90EF90DF90CF9008953B
:1025B000CF93DF93DC019C01261B370BE0E090E01A
:1025C000B901690F711D672F7727920F260F371FEB
:1025D000BA016E0F711D672F7727E40FEB01CC0F47
:1025E000DD1F4C0F5D1F6B3E28F4A217B30740F7A9
:1025F000CA0102C080E090E0DF91CF910895A7E189
:10260000B0E0E5E0F3E10C94E6358E8B162F042F55
:10261000A895E62FF0E0EB5CFE4F24912B87220F6C
:10262000298B339634913A83E42FF0E0EB5CFE4F34
:1026300044914B833396F490E82FF0E0EB5CFE4F2F
:1026400084918983880F8E87339694919F8B45B9A7
:102650006B84642A64B897B998B9862F78D99D8716
:102660008C87EB85E4B9812F72D91C0114B824D969
:1026700015B864B8812F6BD96C857D85CAD94C019A
:10268000FA81F7B918B82B813981232B2C8325B90E
:1026900024B98E895CD9C3D95C0115B80DD949819B
:1026A00045B98E8954D9BBD96C01898184B98E8989
:1026B0004ED9B5D9782EE92EB601C501AAD98032F6
:1026C000E1E09E0730F4F0E28F16F1E09F0608F497
:1026D00072C58C0C9D1C2C853D85820F931F88161E
:1026E000990620F4DD86CC86272C3E2C20915201C1
:1026F00030916C01822F90E0830F911D02974CF076
:10270000213009F058C590914F01809169019813CB
:1027100052C5EB80EE0C39813E293A878C859D8528
:102720008437910508F473C1880F991F44962816C1
:10273000390608F06CC19F8997B998B98B858E29A5
:1027400084B9812F00D96C01802F05D95C01E5B8CF
:10275000812FF9D89601295A3D4F18B82817390703
:1027600008F0A0C0EA81E7B9FA85F4B9F5B9802F7D
:10277000EAD888349F4028F085E080931E0182E2E9
:1027800004C085E080931E0184E280931D01D092F5
:102790004801C0924701B501C60146D990934E0148
:1027A00080934D019601A0E1B7E20E943C35209153
:1027B00018013091190140E050E00E94FE3430933E
:1027C0004A012093490189898E2984B915B83F8926
:1027D00037B938B9802FBFD86C01812FB4D8B60172
:1027E00023D99C0190934C0180934B0190911D0142
:1027F0009F70943069F54091490150914A01609170
:102800004D0170914E01C901D3DE0097E9F0E4B8A3
:102810004F898A81482B47B9812F95D86C0117B809
:102820009C01A0E1B7E20E943C3520913C0130912F
:102830003D0140E050E00E94FE34A901B6018091C4
:102840004B0190914C01B4DE909348018093470175
:1028500080911D018F70843009F4A5C418B89A8145
:10286000F92AF7B8E981E4B9FC81F5B98E896FD806
:102870006C01D5D87C01812F6ED8A0901F01B0903B
:102880002001BC01C601D0D89501DC010E943C3575
:10289000970140E050E00E94FE34309348012093BD
:1028A000470181C42A8127B93A8534B935B98E895F
:1028B0004AD86C01802F4FD85C01498145B98E8977
:1028C00042D8895A9D4F8C159D0508F074C48F8994
:1028D00088B987B9802F37D8813D934028F485E0A7
:1028E00080931E0182E304C085E080931E0184E38F
:1028F00080931D01B601C50197D89093680180931C
:102900006701C6018CD89C01A0E1B7E20E943C356A
:1029100020911F013091200140E050E00E94FE34E0
:10292000309364012093630118B8FA81F7B98E855A
:102930008E2984B985B98E890ED86C01802F03D871
:10294000B60172D89C0190936601809365019091C5
:102950001D019F70943089F540916301509164018D
:102960006091670170916801C90122DE009709F149
:10297000E5B8E4B82F8928B92A80222A27B88E8999
:102980000E94A30C4CD86C0117B89C01A0E1B7E2DF
:102990000E943C35209135013091360140E050E0F5
:1029A0000E94FE34A901B6018091650190916601F3
:1029B000FFDD909362018093610180911D018F7012
:1029C000843009F4CEC13F893F2938B937B915B8E9
:1029D0004C8144B98E890E94A70C5C01812F0E9412
:1029E000AB0C7C01C0901801D0901901BC01C5014D
:1029F0001BD89601DC010E943C35970140E050E075
:102A00000E94FE343093620120936101AAC118B87C
:102A10008A8187B9998195B9EA85E4B98E890E943E
:102A2000A70C988B8F870E940F0D9F838E83802F1A
:102A30000E94AB0C998788872101F4E64F0E511C48
:102A40002E813F81B10142165306D8F4C9010E947C
:102A5000140D6C0120911F013091200140E050E0E5
:102A600060E871EA83E09CE10E94FE34D6010E9496
:102A70005135E885F9854F01A12CB12CA5019401B0
:102A800023C08E819F810E94140D6C01FC81F4B9DA
:102A90008E890E94A70C988B8F870E940F0D9F83B1
:102AA0008E83802F0E94AB0C99878887BC01C6015A
:102AB0000E94140D9C01A4E6B0E00E943C35E8851C
:102AC000F9859F0140E050E00E94FE3449015A011F
:102AD00014B815B8FF89F8B9F7B981E00E94730CF2
:102AE00064B8812F0E94A70C7B847E288F359D407F
:102AF00008F43DC174B8812F0E94A30C6C01802F93
:102B00000E94AB0C9B8B8A8B8E890E94AB0C9D8B99
:102B10008C8B8A899B89813D974008F4B1C084E001
:102B200080931E018DE080931D0176012C143D04DD
:102B300010F4E218F3084090180150901901612C2C
:102B4000712C60E871EA83E09CE1A30192010E948C
:102B5000FE34D7010E945135EA89FB899F0140E08C
:102B600050E00E94FE3480916C01882369F08091CE
:102B70005D0190915E01A0915F01B09160018217AB
:102B80009307A407B50708F520935D0130935E0114
:102B900040935F01509360019601A0E1B7E20E946B
:102BA0003C35A30192010E94FE34309364012093CE
:102BB00063016A897B898C899D890E94140D909399
:102BC00062018093610181E001C080E040915D017C
:102BD00050915E0160915F01709160014815590547
:102BE0006A057B0538F580925D0190925E01A092A6
:102BF0005F01B0926001688579858F8598890E9410
:102C0000140D90936201809361012E813F81A0E1B8
:102C1000B7E20E943C3520911F013091200140E035
:102C200050E00E94FE34205F384D309364012093C1
:102C3000630103C0882309F499C3C0901801D090A0
:102C40001901E12CF12C9101A0E1B7E20E943C3581
:102C5000A70196010E94FE3430936601209365011E
:102C60002C853D85A0E1B7E20E943C35A701960185
:102C70000E94FE34309368012093670181E076C39F
:102C8000F1E62F16310408F072C021EDC21627E0DC
:102C9000D20608F46CC085E080931E0182E1809327
:102CA0001D01C60186509F4FEC89FD898E179F0735
:102CB00020F483E180931D0116C0E0901801F0908C
:102CC0001901B6018C899D890E94140D9701DC01C0
:102CD0000E943C35960140E050E00E94FE34309363
:102CE000620120936101FA81F7702F2E802F80649A
:102CF00080937C002BE02983CC24C394D12CEE2438
:102D0000EA94A3E0FA2EA89561E08B8160D574B8AF
:102D100086B18221E9F33B8534B980917A008064E1
:102D200080937A0080917A0086FDFCCF80917800B4
:102D300090917900F701E81BF90BCE0EDF1EF981A7
:102D4000F150F983F111DFCFC601880F991F880F69
:102D5000991F69E070E00E94D73470936801609316
:102D6000670180916C018F5F80936C0187CF74B88D
:102D7000E5B8812F0E94A70C5C01802F0E94AB0C4C
:102D80009F838E830E940F0D7C014A145B04A8F47C
:102D9000B101C5010E94140D6C0120911801309100
:102DA000190140E050E060E871EA83E09CE10E9494
:102DB000FE34D6010E9451351DC064B82B8125B95F
:102DC000812F0E94A70C5C01802F0E94AB0C9F8377
:102DD0008E830E940F0D7C01C5012A143B0410F460
:102DE00082199309B7010E94140D9C01A4E6B0E07A
:102DF0000E943C35970140E050E00E94FE342901DA
:102E00003A013A8137B918B84C8144B945B98E892D
:102E10000E94A70C6C01802F0E94AB0C4C01812FEB
:102E20000E94AB0C7C0180E3C81681E1D80608F053
:102E3000C0C1998195B98E890E94A70C998788870E
:102E4000E981E4B98E890E94A70C988B8F8715B809
:102E500081E00E94730CF981F5B98E890E94A70C5C
:102E60002F8538892034364008F05FC08133914186
:102E700008F45BC0C6018A569F4F288539852817FC
:102E8000390708F052C086E080931E0180915201FC
:102E90008F5F80935201B701C4010E94140D90937B
:102EA000480180934701B701C6010E94140D909319
:102EB0004E0180934D0114B815B83A8138B981E0BC
:102EC0000E94730C498144B98E890E94A70C853FEA
:102ED000910508F05AC28C8184B9802F0E94A70CFA
:102EE000813D934008F451C28E890E94AB0C8D3D08
:102EF000924008F44AC2298124B98E890E94A70C05
:102F00008D3D924008F441C2498145B981E00E945B
:102F1000730C15B88E890E94A70C853F910508F0A7
:102F200034C287E080931E0130C28A8187B99B81B9
:102F300094B995B981E00E94730CEA85E4B9E5B9CA
:102F40008E890E94A70C6C010E940F0D7C01802FBE
:102F50000E94AB0C9D838C830E940F0D99878887FC
:102F6000812F0E94AB0C4C01288539852E3F3940BA
:102F700008F4B0C084E080931E018CE080931D01B2
:102F8000B101C7010E94140D6C0120911F01309105
:102F9000200140E050E060E871EA83E09CE10E949B
:102FA000FE34D6010E945135E885F9859F0140E045
:102FB00050E00E94FE3480915201882369F0809194
:102FC000430190914401A0914501B09146018217BF
:102FD0009307A407B50720F52093430130934401DC
:102FE0004093450150934601B4018C819D810E941C
:102FF000140D90934801809347019701A0E1B7E237
:103000000E943C3520911F013091200140E050E0AA
:103010000E94FE3430934A012093490181E001C0AF
:1030200080E04091430150914401609145017091CD
:103030004601441555056605770528F5409243017C
:10304000509244016092450170924601B5018E8113
:103050009F810E94140D9093480180934701950130
:10306000A0E1B7E20E943C3520911801309119018E
:1030700040E050E00E94FE34205F384D30934A011A
:103080002093490103C0882309F480C19101A0E184
:10309000B7E20E943C35209118013091190140E0BF
:1030A00050E00E94FE3430934C0120934B012C855C
:1030B0003D85A0E1B7E20E943C3520911F0130918F
:1030C000200140E050E00E94FE3430934E012093F6
:1030D0004D015BC1F1E62F16310408F06AC029E406
:1030E000E2162DE0F20608F464C085E080931E012C
:1030F00082E080931D01C40186509F4F8C159D0571
:1031000020F483E080931D0115C0A0901F01B090B2
:103110002001B401C6010E94140D9501DC010E943A
:103120003C35970140E050E00E94FE343093480166
:10313000209347013F893770D32E802F806480937E
:103140007C004BE04A83EE24E394F12CA89560E0E8
:103150008B813DD38A8584B985B986B18D21E9F704
:10316000998194B980917A00806480937A008091EB
:103170007A0086FDFCCF8091780090917900E80E6E
:10318000F91EEA81E150EA83E111E0CFC701880F1F
:10319000991F880F991F69E070E00E94D7347093DF
:1031A0004E0160934D01809152018F5F80935201D7
:1031B000ECC017B818B814B815B817B8F7EC2F1634
:1031C000F1E03F0608F4C4C018B82E8524B908EC15
:1031D000EA803F89E32AE7B881E00E94730C4A81C4
:1031E00047B98E890E94AB0C429710F0015099F7B5
:1031F0008E8584B985B961E08B81E9D28E890E9480
:10320000A70C4C01998994B915B8EF89E7B9E8B9C9
:1032100060E08B81DCD2812F0E94A70C0E940F0DF1
:103220006C01FB85F4B9812F0E94AB0C7C018E8967
:103230000E94A70CB7010E94140D7C01812F0E94EF
:10324000AB0C5C018E890E94A70CB5010E94140D85
:1032500097012C5E3F4F2817390708F47CC018B837
:103260002A8127B9398134B935B961E08B81AFD270
:10327000812F0E94AB0C5C018E890E94A70CB501C6
:103280000E94140D5C01E816F90650F44E8544B90D
:1032900045B98E890E94A70C9C01640175010FC07D
:1032A000898984B915B89F8997B998B960E08B81ED
:1032B0008ED2812F0E94A70C0E940F0D9C01E8EE78
:1032C000EE16E3E0FE0630F4C70164E670E00E940B
:1032D000D73406C0B70154E0769567955A95E1F763
:1032E000C701875991098938914190F52E153F05FD
:1032F00078F5C60143E0969587954A95E1F7893CB4
:10330000910510F088EC90E08C0D9D1D8E159F05A9
:10331000F8F46C157D05E0F480911E01833018F4FB
:1033200083E080931E0120911C01822F90E0FC011C
:10333000E357FE4F3E8930831683880F991FFC01A7
:10334000E756FE4FF182E0822F5F20931C0103C0FD
:10335000612F8E892AD017B818B814B815B88EE224
:103360000E946E086796E2E10C94023690916C011F
:103370009F5F90936C01882371F300936901109310
:103380006A014E8940936B01E6CF81E09091520132
:103390009F5F909352018823F1F200934F018E8931
:1033A0008093500110935101D6CFA0E0B0E0EBED37
:1033B000F9E10C94E835A895462F50E0FA01EB5C52
:1033C000FE4F949033969491A82FB0E0FD01EB5CF2
:1033D000FE4FE4903396F49070916C01209152016D
:1033E00030E0270F311D232B09F0ECC1A895209167
:1033F000220130912301220F331F220F331F3093FC
:103400003401209333012091710130917201220F18
:10341000331F220F331F30933201209331012EEBE3
:1034200020932F01C0911C01EDE8F1E070E04A0FFC
:103430005B1F7C1759F02191A58130E02A0F311DC7
:103440002417350709F451C07F5FF3CFD62FC82F5B
:1034500018B897B9E4B8E5B8B8E1BB2EC12CD12CA7
:103460008D2F0E94A70C782E692E8C2F0E94AB0CFA
:103470008C018C199D0997FF03C091958195910945
:10348000039734F0A895BA946801B110E9CF2DC024
:10349000EE0C15B8E4B88C2F0E94A70C813591056D
:1034A00020F5E5B88C2F0E94A70C6C01F7B8F8B88E
:1034B00015B894B8A8E18A2EA12CB12C8C2F0E94AB
:1034C000A70C582E492E8D2F0E94AB0C7C018A1917
:1034D0009B0997FF03C09195819591090397CCF0C3
:1034E000A8958A9457018110E9CF8091220190918B
:1034F0002301909334018093330180917101909165
:103500007201909332018093310187E380932F0100
:1035100059C1990C94B88D2F0E94A70C5C01003CF6
:1035200084E4180730F425E8C21621E0D206E8F654
:1035300005C080EBC8168DE4D806B8F624EAE2167A
:1035400022E0F20608F06CC088E9A816B10468F21F
:10355000C6010E940F0DAC019601A8E9B7EB0E94CD
:103560003C359A0140E050E00E94FE3429013A01C6
:10357000C5010E940F0D9C01A8E9B7EB0E943C35E4
:10358000850120E030E0A90198010E94FE3488E71F
:10359000C8168FE0D80680F4D301C201F2E0880F8C
:1035A000991FAA1FBB1FFA95D1F7BC01CD01620F6D
:1035B000731F841F951F14C088E7A8168FE0B806F4
:1035C000B0F4DA01C901E2E0880F991FAA1FBB1FFE
:1035D000EA95D1F7BC01CD01640D751D861D971DBF
:1035E00025E030E040E050E00E94FE340CC0D30102
:1035F000C201820F931FA41FB51F9C01AD015695F8
:10360000479537952795A4E6B0E00E9451352B01E8
:103610003C012CEA420E2DE0521E611C711C79C047
:10362000672D762D0617170708F4B801C52CD42C82
:10363000CE14DF0408F467010617170708F48B019E
:10364000A0901F01B0902001C8010E94140D9501A7
:10365000DC010E943C352B013C01C8010E940F0D8A
:103660009C0140E050E0C301B2010E94FE342901F8
:103670003A01CE14DF0408F47601A0901801B0904E
:103680001901B701C6010E94140D9501DC010E94C9
:103690003C354701A12CB12CA50194010E94FE34B8
:1036A00008378FE0180780F4D301C20162E0880F69
:1036B000991FAA1FBB1F6A95D1F7BC01CD01620FEC
:1036C000731F841F951F14C088E7E8168FE0F80663
:1036D000C0F4DA01C90132E0880F991FAA1FBB1F8D
:1036E0003A95D1F7BC01CD01640D751D861D971D5E
:1036F00025E030E040E050E00E94FE3429013A012C
:1037000008C0420E531E641E751E7694679457942B
:10371000479410911E01143008F0E7CEC1500C2FD1
:103720000D0F202F30E0E901C95ADE4F8881220FAA
:10373000331F220F331FF901EA55FE4F8823D9F1B9
:10374000C080D180E280F380A30192012C193D0951
:103750004E095F0957FF07C0509540953095219558
:103760003F4F4F4F5F4FAAE0B0E00E94513524E633
:10377000C20ED11CE11CF11CA7019601240D351DC0
:10378000461D571D0E94FE34232B242B252B09F0A8
:10379000ACCE133019F081E080931E0182E0888363
:1037A00080917301E82FF0E0E65AFE4F00838F5FAF
:1037B000809373019ACE408251826282738281E04B
:1037C000888393CECDB7DEB7E0E10C940436CF9377
:1037D000C82FC09595B160FF02C0982B01C09C23F3
:1037E00095B994B1892B84B982E00E94730C84B19D
:1037F0008C2384B985B1C823C5B9CF910895AF9200
:10380000BF92DF92EF92FF920F931F93CF93DF93BC
:103810001AE08FE3D82E09E017B818B815B8D4B855
:1038200080E00E94A70C7C0181E00E94AB0CEC01BF
:1038300082E00E94AB0C9C0180911E01893079F4DA
:1038400017B814B8F0920601E0920501D093080170
:10385000C093070130930A01209309015CC084E002
:10386000E816F10440F4C430D10568F42430310581
:1038700038F391E00CC091E088EEE81683E0F8069A
:1038800018F090E001C091E0C83ED34008F4926087
:10389000283E334008F4946097B9C0E0D0E0A89582
:1038A00080E00E949F0C5C0181E00E94AB0C7C01D7
:1038B00082E00E94AB0C24E1A21625E0B20608F4D7
:1038C000389A24E1E21625E0F20608F4399A8431A8
:1038D00025E0920708F43A9A26E0A216B10430F4E3
:1038E00026E0E216F10410F4069738F02196C43F62
:1038F00081E0D807A1F600931E01E12CF12CEC1613
:10390000FD0631F00E94620C2FEFE21AF20AF7CFA7
:10391000115009F081CFDF91CF911F910F91FF904E
:10392000EF90DF90BF90AF900895CF92DF92EF922B
:10393000FF92CF93209177013091780140917901E6
:1039400050917A01C09189018AE0C82ED12CE12CD6
:10395000F12C8C2FCF5F213A96E8390791E0490787
:10396000510538F0CA01B901A70196010E94FE3441
:10397000F0CF80938901A0913301B09134010E946E
:10398000513528E833E140E050E00E94FE342093B6
:103990007701309378014093790150937A01CF9168
:1039A000FF90EF90DF90CF9008958F929F92AF920B
:1039B000BF92CF92DF92FF920F931F93CF93DF932B
:1039C000982F990F980F2FEF260F920F9093540175
:1039D000E82FF0E0EB5CFE4FD491262F30E0F901A8
:1039E000EB5CFE4F1491F901E85CFE4FD49090918E
:1039F0001E01913009F48BC220911C01EDE8F1E029
:103A0000DF0190E0921791F016963C9116976313A0
:103A100009C03C91831306C0448555854C3D5540F3
:103A200008F475C29F5F11963296ECCFF62EC82F20
:103A3000109284011092830181EF8093890110928A
:103A40007701109278011092790110927A01D7DEF5
:103A500018B8D7B814B915B98C2F0E94AB0C5C01FB
:103A60008F2D0E94AB0CA81AB90A14B810925601F7
:103A7000109255018091550190915601843F9140DB
:103A800008F0AAC0D5B9D4B90E945C0C14B815B816
:103A90000E94630CA8958C2F0E94AB0C8C010A1914
:103AA0001B0980915501909156018E37910520F0A8
:103AB0000B3411050CF490C00D3281E0180754F45A
:103AC00080915501909156010196909356018093F3
:103AD0005501D0CF8091550190915601892B09F065
:103AE0008EC1053135E013070CF489C188DE15B8A5
:103AF00087E087B918B81D2F110F14B980E480939F
:103B00007B0084E580BF8C2F806480937C0086E1FD
:103B100080937A000E94660C109256011092550113
:103B200010928000109285001092840087E286BB7C
:103B300081E280936F0081E08093740115B99091C8
:103B40001E0180938100953009F04BC081E090E028
:103B50000C2E01C0880F0A94EAF78095877087B908
:103B6000F89483B7817F83BF80917401882389F0A3
:103B700083B7816083BF7894889583B78E7F83BF36
:103B8000F894A89580915501909156018034964003
:103B900059F7789410928100009186001091870067
:103BA00010926F0086E980937A0014B815B88C2FB4
:103BB0000E94AB0C2091370130913801821B930B8E
:103BC0000C9690938C0180938B018091550190917C
:103BD00056018032934038F017B818B814B815B8A9
:103BE00096C1D7B8BDCF8091550190915601909361
:103BF0008201809381011093800100937F0184EF03
:103C000080938901809155019091560182349105EC
:103C1000C8F060917F017091800180918101909145
:103C2000820124E630E040E050E00E94FE34209320
:103C30007F0130938001409381015093820186EF90
:103C400080938901A0917501B091760120917F0147
:103C50003091800140918101509182010E94513543
:103C600020E233E040E050E00E94FE3420937F01E8
:103C7000309380014093810150938201209377011A
:103C8000309378014093790150937A014EDE809110
:103C90008901843F09F05EC080907701909078019F
:103CA000A0907901B0907A0180EA88168FE098069A
:103CB000A104B104C0F4A50194012C543F4F4F4F0F
:103CC0005F4F60EA7FE080E090E00E94FE34820E69
:103CD000931EA41EB51E8092770190927801A09247
:103CE0007901B0927A018091540190E0835F9C4FFA
:103CF0000E94793640917701509178016091790165
:103D000070917A0190E0A0E0B0E084179507A607D3
:103D1000B70768F4481B590B6A0B7B0B409377017C
:103D2000509378016093790170937A0113C04C5ECF
:103D30005F4F6F4F7F4F481759076A077B0710F493
:103D40000E942A1210927701109278011092790144
:103D500010927A01D4B98091770190917801A09165
:103D60007901B0917A014997A105B10508F434CFE2
:103D7000C12CD12C80911C01882329F080911E0137
:103D8000853009F029CF88E080931E018091890158
:103D900090918A019817C4F089131ECF0091770182
:103DA000109178012091790130917A0140917B0145
:103DB00050917C0160917D0170917E014017510707
:103DC0006207730708F008CF40917701509178019E
:103DD0006091790170917A0140937B0150937C014D
:103DE00060937D0170937E0180938A01D092860159
:103DF000C0928501F0928701C0938801EDCEC80181
:103E0000C12CD12C20915501309156012C153D0526
:103E100060F00E945D0C8C2F0E94AB0C8A199B09EC
:103E2000A8952FEFC21AD20AEDCF5801A81AB90AE5
:103E30001A141B049CF439ECA316B1040CF0CCCE7C
:103E400028EE33E0D5010E944B359801012E000C7D
:103E5000440B550B0E94FE34690102C0C12CD12CC9
:103E600080915501909156010196A0E0B0E08093B9
:103E70007F0190938001A0938101B0938201C801DA
:103E80008A0D9B1D98D020917F0130918001409137
:103E9000810150918201DC010E94513560937F01C4
:103EA00070938001809381019093820160937701E8
:103EB000709378018093790190937A0187EF8093D2
:103EC000890133DD8090770190907801A09079018D
:103ED000B0907A018CE093E00E947936A8EEB3E0CE
:103EE000A81BB10987FDB395A50194010E945B351C
:103EF00024E630E040E050E00E94FE342093770159
:103F0000309378014093790150937A0133CFDF9158
:103F1000CF911F910F91FF90DF90CF90BF90AF9006
:103F20009F908F9008951F920F920FB60F921124B9
:103F30008F939F93B59904C080917401811109C03A
:103F4000B59B10C080918600909187008A3F9105B3
:103F500048F4809155019091560101969093560135
:103F6000809355019F918F910F900FBE0F901F90DE
:103F700018951F920F920FB60F9211248F939F9353
:103F800010927401B09B10C08091860090918700C0
:103F90008A3F910548F48091550190915601019610
:103FA00090935601809355019F918F910F900FBE72
:103FB0000F901F9018950F9221E08C32920710F409
:103FC0008CE291E08C52914069E170E00E94D7341C
:103FD00099E16B3210F0982F6BE2981BEDEAF2E05A
:103FE000E60FF11DE60FF11D9F93CF010E94793678
:103FF000482F3196CF010E947936582F3196CF0144
:104000000E947936282F3196CF010E947936382FB9
:104010006F91421B530B649FC001659F900D11244B
:104020000C9669E170E00E94D734620F731FCB01D8
:104030000F900895A0E0B0E0E0E2F0E20C94EC35DF
:1040400088E893E1909323018093220190933401B7
:10405000809333018EEB80932F0118B880E187B9EC
:104060000E946B0C17B884E00E94A70CAC018B5C1B
:104070009840833F9140A0F481E080933E012091DD
:10408000330130913401AFEBB9E00E943C359A0125
:1040900040E050E00E94FE3430932301209322013F
:1040A00080912201909123019093340180933301F8
:1040B0008EE00E94AB0C8EE00E94A70C909338011A
:1040C000809337010E947C0D9ADB18B8C1E0C7B914
:1040D00085E185B9C4B980E00E94A70C8C0182E01B
:1040E000D82ED7B8D4E0D4B981E00E94A70C080F2D
:1040F000191FD7B990E1C92EC4B882E00E94A70C5D
:10410000080F191F15B8C8B9C7B9C4B980E00E9413
:10411000A70C0E940F0D7C01D8B8D7B8D4B981E0A4
:104120000E94A70C0E940F0DE80EF91ED8B9D7B94E
:10413000C4B882E00E94A70C0E940F0DE701C80FCF
:10414000D91F17B818B814B8209133013091340131
:104150006901CC0CDD1CC20ED31EC01AD10ACC1AC8
:10416000DD0AE12CF12C9801A0E9BAE10E943C356E
:10417000A70196010E94FE3449015A0130933D0186
:1041800020933C019E01A0E9BAE10E943C35A701C1
:1041900096010E94FE34309336012093350120575A
:1041A000354E3093200120931F0180E7881A85EE59
:1041B000980A909219018092180187E380932F0149
:1041C000CDB7DEB7ECE00C9408360F93CF93DF93B6
:1041D000D62FC42F0E94900880E091E00E94E6084C
:1041E00050D18091020187FF04C08CEF90E00E94C3
:1041F000E6088D2F0E949008CC2349F080913F0162
:104200008D3028F490E08F5E9C4F0E94E60880E09D
:104210000E94BF0880915A010E948B09809102017F
:104220008E3F94F48CE191E00E94E60860910B01CE
:1042300070910C0180910D0190910E0103E028E432
:10424000409102010E94130ADF91CF910F910895CE
:10425000EF92FF920F931F93CF93DF93182F0E943B
:104260000E07809187010E94900888E391E00E94E8
:10427000E608E0D4609187018091880133D3EC0196
:104280009093840180938301E0908501F0908601F2
:10429000CA3F8FEFD80720F481E091E00E94E60842
:1042A000809188010E949008112359F090913F015C
:1042B0008DE0891B0E94960889E690E00E94E6083E
:1042C00002C00E949F080E94140760917B017091B8
:1042D0007C0180917D0190917E0104E026E4409173
:1042E0008A010E94130ACA3FDF4F68F487E291E017
:1042F0000E94E60822E044E06EEF809183019091F5
:1043000084010E94FD0A0E949F080E941B07E1147D
:10431000F10469F080E291E00E94E60822E045E2C3
:104320006FEF80918501909186010E94FD0A0E94A5
:104330009F08CDB7DEB7E6E00C940E368F7021F4FF
:104340000E9422070C94831208958F3021F49091DB
:104350003901913011F08F5F089580E00895CF9377
:1043600084E790E00E94F42CC0E00E941E0E60E002
:1043700082E01BD862E080E018D80E940E0780918E
:104380007301882329F041E062E080E01EDF12C063
:1043900084E790E00E94E6088BE193E00E94E60843
:1043A0000E9414078FE30E946E0880E00E94A50817
:1043B0000E949F088C2FC2DF88EE93E00E941D0DA3
:1043C000811105C08C2FC1DFC82F8A3F70F20E9477
:1043D0004C07CF9108951F93CF93DF93C0E0D8E0AF
:1043E0001DE00E941E0E60E082E0DFDAD0931E0125
:1043F00080918901823FACF080938A01809177019E
:1044000090917801A0917901B0917A0180937B011C
:1044100090937C01A0937D01B0937E0181E018DF31
:104420001CC00E940E078DE690E00E94E608809175
:104430003F01912F981B892F0E94960889E690E0F2
:104440000E94E6080E9414078FE30E946E080E94F3
:104450009F080E941B070E949F088C2F6FDF88EE29
:1044600093E00E941D0D811106C08C2F6EDFC82FB6
:104470008A3F08F4B6CF0E944C07DF91CF911F917D
:104480000895A4E1B0E0E7E4F2E20C94E63582E0BE
:104490008093020180911E01813009F01FC280913A
:1044A0007301813009F01AC200915A0124E0029F81
:1044B000F0011124EA55FE4F80819181A281B381E0
:1044C000893032E59307A105B10508F007C24C0118
:1044D00010E0802F123028F40E948109582E492EB6
:1044E00003C00E9481092C01E42DF0E0E85CFE4F3E
:1044F0002490852D90E0FC01EB5CFE4FE49115B813
:1045000018B820EF82169104B0F410FD14C0A090EA
:104510001801B090190130E9A31A3AE1B30A21E079
:1045200030E0052C02C0220F331F0A94E2F7C901C4
:10453000822987B906C0E4B927B8A0901801B090C5
:104540001901F4E13F2E852D0E94A30C3C01842D1E
:104550000E94AB0C34E06316710410F4049718F059
:104560003A943110F0CF80E480937B0094E590BFC3
:10457000852D806480937C0026E120937A00E12CD5
:10458000F12C10928000109285001092840037E286
:1045900036BB0E94660C812F8170382E10FD05C03D
:1045A00081E88093810028B808C028B80E946F0C69
:1045B00090E296BB81E88093810086B385FF12C0AC
:1045C00018B81092810020E226BB2091860030911D
:1045D00087006901409184005091850024173507B8
:1045E00070F014C080FFE9CF31E036BBA895970189
:1045F0002F5F3F4F790120353105F9F6E1CF80FF7C
:1046000005C081E086BB9FEFE91AF90A86E980932D
:104610007A00E4E12E2E852D0E94A30C3C01842D0E
:104620000E94AB0C24E06216710410F4049718F099
:104630002A942110F0CF40903C0150903D01480C4D
:10464000591C4A0C5B1C20911A0130911B0180E916
:10465000A8168AE1B806B0F491EEC916D104E104B7
:10466000F10438F4C60165E070E00E94D73464516B
:1046700001C069E128523109261B310967FD3395D4
:1046800086E009C0C20160EB76E30E94D73487E080
:10469000860F285D3F4F90E0A0E0B0E08C159D05AF
:1046A000AE05BF0528F4C81AD90AEA0AFB0A03C0F6
:1046B000C12CD12C7601332029F082E2C80ED11C06
:1046C000E11CF11C90E5E916F10418F0C12CD12C85
:1046D00076018BE0C816D104E104F10428F091E0E2
:1046E000C91AD108E108F108409133015091340111
:1046F000612C712CA8EEB3E00E943C35698B7A8B5B
:104700008B8B9C8B9501DA010E943C35A3019201B1
:104710000E94FE344427552769897A898B899C89B0
:104720000E94FE34C9010E94D40DFC01A301920134
:10473000C701B6010E94BC342B013C01CF01A0E0AF
:10474000B0E073E0880F991FAA1FBB1F7A95D1F7BD
:10475000BC01CD016B5F7F4F8F4F9F4F2AE030E050
:1047600040E050E00E94FE34C301B2010E94FE34DA
:10477000E12FF0E0A1E0B0E0AC0FBD1F84E0189F96
:10478000A00DB11D11242D933D934D935C93139770
:10479000311016C09CE0C916D104E104F10480F088
:1047A0003196EE0FFF1FEE0FFF1F81E090E08C0FA0
:1047B0009D1FE80FF91F20833183428353831F5FBE
:1047C000A8951F5F143008F484CE18B884E00E94C6
:1047D000730C91E00D811E812F81388549815A81AA
:1047E0006B817C81401751076207730708F090E0E6
:1047F0000D851E852F85388949855A856B857C8571
:10480000401751076207730710F483E001C082E08C
:10481000E92FF0E0EE0FFF1FEE0FFF1F21E030E069
:104820002C0F3D1FE20FF31FD90134E0839FA00D31
:10483000B11D11240D911D912D913C91408151810B
:1048400062817381041715072607370708F0892F3F
:10485000E1E0F0E0EC0FFD1F94E0899FE00DF11D19
:104860001124408151816281738140930B015093E7
:104870000C0160930D0170930E0180FD08C020EFC4
:104880008216910420F48BEF8093020117C08CEF05
:1048900080930201CB01BA016B5F7F4F8F4F9F4F17
:1048A0002AE030E040E050E00E94FE3420930B010B
:1048B00030930C0140930D0150930E0180910B0138
:1048C00090910C01A0910D01B0910E01892B8A2BC2
:1048D0008B2B11F41092020117B814B86496E2E120
:1048E0000C940236AEE1B0E0E8E7F4E20C94E63571
:1048F000662EB82E860F898320911E01283059F527
:1049000020917B0130917C0140917D0150917E018D
:1049100057FD15C010918A0109C0CA01B9012AE0EA
:10492000312D412D512D0E94FE341F5F173FACF3F6
:1049300091F4243160E036074105510518F48FEFFA
:104940009FEF45C1173F39F480E028178DE73807FE
:104950004105410510F020E03DE72C8B3D8B26ED15
:10496000A22EE8E3F1E0E60DF11D859180608E87CF
:10497000E8E3F1E0EB0DF11D859180608F87E5E3C1
:10498000F1E0E60DF11D7590E5E3F1E0EB0DF11DB1
:10499000C59090EC692AB92A81E0E82EF12C012D0E
:1049A000112D8E831F82188619861A861B861C86F7
:1049B0001D86188E198E1B8E1A8E0E94FF1B80E09A
:1049C00088B960927C000E94670C3F8537B975B842
:1049D00074B852E05A95F1F70000000014B815B809
:1049E000DD243E8537B975B874B860927C00A8950F
:1049F000A0927A0080917A0086FDFCCF209078000A
:104A000030907900B0927C004C2DE5D02091780058
:104A100030917900288B398B3F8537B9C5B8C4B838
:104A2000A895B0927C00A0927A0080917A0086FDD1
:104A3000FCCF609178007091790060927C00472DE6
:104A4000CAD0409178005091790014B8CB01820D02
:104A5000931DE80EF91E011D111DEA82FB820C83D5
:104A60001D8388899989840F951F2E813F816885D0
:104A70007985280F391F611D711D2E833F8368873B
:104A8000798722E32417150650F075B874B80E9490
:104A9000710C14B815B8888D8395888F07C0483E6F
:104AA00073E0570718F08A8D83958A8F88899989D2
:104AB0002817190660F03E8537B9C5B8C4B80E94FA
:104AC000710C14B815B8898D8395898F07C0883EFD
:104AD00073E0970718F08B8D83958B8FD3945D2DA2
:104AE0005F3F49F05F3731F45C2D550FC50E572DF0
:104AF000550F750E76CF40903C0150903D01440C0F
:104B0000551C9201E4E0240D351DEA95E1F72901D9
:104B1000570168016E807F808884998420911E01EE
:104B20002830C1F46C897D89812D912D65507040AC
:104B3000804090409B01AC010E94BC349B01AC01C1
:104B400060E779E786E190E00E94FE34621A730A1A
:104B5000840A950AA614B704C804D90428F46A186C
:104B60007B088C089D0803C0662477244301B201AA
:104B700080E090E09301A4010E94BC349501A6015D
:104B80000E94FE3488E093E07981870F911D0E9496
:104B90007936682EC90160E170E00E94D734260F93
:104BA000371FC9016816190618F4861991090FC034
:104BB0008C5E9F4F8615910540F48C899D898439C0
:104BC00081E1980710F00E942A12812D912D6E9696
:104BD000E2E10C9402361092810010928000109253
:104BE0006F0010928B0010928A0057E056BB5FEF67
:104BF000509385005093840055E050937B0056EB12
:104C000050937A0051E05093810058E25A95F1F7A1
:104C1000000045B944B955E05A95F1F7000014B8C1
:104C200015B81092810080917A0084FFFCCF8093A8
:104C30007A000895A0E0B0E0E0E2F6E20C94EC35F2
:104C40008091850190918601892B09F09BC0E091AC
:104C50008701F0E0E85CFE4FD491E0918801F0E03C
:104C6000EB5CFE4FC4910E94FF1B18B815B8D7B972
:104C7000C4B9809188010E94AB0C8C01D0918A014B
:104C80008CE08D0F843008F07DC080917B01909185
:104C90007C01A0917D01B0917E01D15F2AE0822E3E
:104CA000912CA12CB12CBC01CD016B5F7F4F8F4F9C
:104CB0009F4FA50194010E94FE3469017A01DA0137
:104CC000C901DF5FD73079F729E8C21623E1D206A0
:104CD000E104F10408F056C0059708F453C0C5B9C3
:104CE000C4B9C0E0D0E0CC15DD0520F40E946D0C05
:104CF0002296F9CF14B815B8A89585E080932F01B6
:104D0000809188010E94AB0C0817190720F4EC0170
:104D1000C01BD10B02C0C0E0D0E0A12CB12CAC1460
:104D2000BD0430F40E946D0C8FEFA81AB80AF7CFBB
:104D3000809188010E94AB0C27E320932F01A89556
:104D40000817190718F4801B910B02C080E090E04F
:104D50008C179D0788F49E01281B390B69F0A4EF7E
:104D6000B1E00E943C359E0140E050E00E94FE34DC
:104D700030938601209385010E94FF1B17B818B855
:104D800014B815B8CDB7DEB7ECE00C940836A7E040
:104D9000B0E0EDECF6E20C94E63584EA91E024D63E
:104DA00020EF2B8354980E94620C14BC16BC109206
:104DB000120110921301109214011092150131E0AA
:104DC00035BB30936E001092800083E19AE7909398
:104DD0008B0080938A00E1E0F0E0F0938900E0939B
:104DE0008800109285001092840083B5816083BD95
:104DF000F6E0F6BBF0936F00789424E020938100F6
:104E000032E339831A820E945B0CA8954F9902C045
:104E100061E06A8385B5811127C015BC86B5809392
:104E200012010E941B070E949F080E9422070E94F5
:104E30009F080E94C60886E60E946E080E94CA0863
:104E400060911201709113018091140190911501EC
:104E500047E00E94120B549880918100882351F002
:104E60008FE30E946E0806C0898181508983811179
:104E7000CACFD3CF1092810010926F0020911201FF
:104E8000309113014091140150911501DA01C901CB
:104E90000197A109B109813F9048A105B10508F02A
:104EA0000BC1AAE0B0E00E945135DC01CB010896AD
:104EB000A11DB11D23E0B695A795979587952A95D5
:104EC000D1F7BC01660F771F70936E0160936D017F
:104ED00054980E94620C16BC109212011092130199
:104EE0001092140110921501F1E0F5BBF0936E00E1
:104EF0001092700110926F0124E02BBB809168002A
:104F0000846080936800789480916D0080618093C4
:104F10006D0019820E945B0CA8954F9902C031E088
:104F20003A8380916D0084FF05C069816F5F69835A
:104F30006A3F81F715BC80916D008F7E80936D0074
:104F4000809168008B7F8093680086B58093120102
:104F50000E941B0784E50E946E080E94CA086091A7
:104F60001201709113018091140190911501E0914B
:104F70006D01F0916E01FD83EC8328EA31E640E09B
:104F800050E00E946135EC81FD81612C712C430160
:104F90005F01C12CD12CE12CF12C00E010E00E942B
:104FA0008A3549014F835E831B012C012C813D8191
:104FB0002038310530F007E023E745EFB4018F8159
:104FC00017C084E6A82EB12CC12CD12CE12CF12CD9
:104FD00000E010E094014F815E81C2010E948A3599
:104FE000F22FE42F07E023E747EF6F2F732F8E2F69
:104FF000952F0E94130A39813A3F21F48FE30E94D2
:105000006E085AC094014F815E81B101C201263EF3
:10501000354B41055105610571058105910509F083
:1050200008F44AC00E94220786E60E946E080E9489
:10503000CA0894014F815E81B101C201540121155A
:10504000FAEC3F07FAE94F07FBE35F0761057105DB
:1050500081059105A1F098F06A017101820120E0BB
:1050600030E04AE85DE568E775E483E691E00E9498
:105070008A35F22FE42F07E028E44AEF13C0CF80EF
:10508000DE807101820120E030E44AE750E163EF05
:105090007AE580E090E00E948A35F22FE42F07E065
:1050A00028E44DEF6F2F732F8E2F952F0E94130A38
:1050B0008AE70E946E08549810926E0080ED97E087
:1050C0000E941D0D2A81820F29F43B8131503B83C0
:1050D000311168CE2796E2E10C9402361F920F92AE
:1050E0000FB60F9211248F939F93AF93BF93789431
:1050F0008091120190911301A0911401B0911501BA
:105100009F5FAF4FBF4F8093120190931301A09305
:105110001401B0931501BF91AF919F918F910F90A2
:105120000FBE0F901F9018951F920F920FB60F92FF
:1051300011248F9386E085BD8F910F900FBE0F9045
:105140001F9018951F920F920FB60F921124A895D9
:105150001092810015BC0F900FBE0F901F901895F4
:105160001F920F920FB60F9211242F933F938F939C
:105170009F9380916F0190917001892B11F481E0D0
:1051800085BD20916F013091700180916D019091EA
:105190006E012817390730F015BC80916D008F7EA5
:1051A00080936D0080916F019091700101969093B2
:1051B000700180936F019F918F913F912F910F907C
:1051C0000FBE0F901F9018958D3008F08D508111F3
:1051D00003C080E192E03BC0813019F484EA91E0A1
:1051E00036C0823019F487EE91E031C0833019F473
:1051F0008CED91E02CC0843019F48FE790E027C04B
:10520000853019F484E790E022C0863019F48DE6E9
:1052100090E01DC0873019F48BEC91E018C0883005
:1052200019F48CEB91E013C0893019F488E092E016
:105230000EC08A3019F48BE991E009C08B3019F463
:105240008EEF91E004C08C3021F483EF91E00E9456
:10525000E6080C949F0808950F93CF938FE790E092
:10526000C3D3C0E010921E0160E082E0D2D38091EF
:105270001E018830C1F50E94140783E40E946E0865
:105280000E94CA0860917B0170917C0180917D0130
:1052900090917E0103E026E440918A010E94130A66
:1052A0000E949F0860918701809188011BDB909389
:1052B0008401809383010E941B0788E291E00E9491
:1052C000E60880918301909184018A3F2FEF920735
:1052D00030F422E044E06EEF0E94FD0A08C08FE344
:1052E0000E946E0804C00E94C6080E941B070E940C
:1052F0009F088C2F23D888EE93E00E941D0D81110A
:1053000006C08C2F22D8C82F8A3F08F4ABCFCF918C
:105310000F9108951F93CF93DF9388E092E064D3B9
:10532000C0E0D0E01AE00E94140782E191E00E9400
:10533000E60883E00E94A70C63E09C01129FC00175
:10534000139F900D11240E94080B0E949F088C2F20
:105350000E949E2188EE93E00E941D0D882339F063
:105360008F3508F0DF5FD53048F4C0E001C0D0E0F1
:105370008C2F0E94A521C82F803FA8F2DF91CF91EA
:105380001F910895A4E0B0E0E8ECF9E20C94E63552
:1053900087EE91E029D380E18093800010926F0026
:1053A00081E090E0909389008093880010928B00B8
:1053B00010928A0083E086BB1092820088E080937E
:1053C000810015B881E184B918B881E087B9229AC3
:1053D00089E080938100312C20E0FAE02F2E31E02B
:1053E0003B83812C912C5401839441E14C83832D88
:1053F00090E00A966EE170E00E94EB346A83062F1B
:10540000621781F00E940E0787EE91E00E94E60885
:1054100010E0101728F48EE20E946E081F5FF9CF8B
:105420000E949F085C815231B8F0C701B601A50106
:1054300094010E94FE346B017C018B81622D0E94DD
:10544000CB34A92FB0E0A50194010E945135C60EBE
:10545000D71EE81EF91E0CC08B81622D0E94CB3432
:10546000A92FB0E0A50194010E9451356B017C0188
:105470000E9414078B81821109C081E09C819231C6
:1054800008F480E08983811107C001C019822C8152
:10549000263120F082E503C08CE301C08EE30E9438
:1054A0006E080E9493084C81C701B6010E94120B3E
:1054B000C701B6017E5E85489F4FA7019601220F66
:1054C000331F441F551F0E94FE34CA014F3F510530
:1054D00039F030F08DE08093810080E094E01FC0CF
:1054E0004034510530F08CE08093810080E091E001
:1054F00016C04830510530F08BE08093810080E485
:1055000090E00DC0892B31F09AE09093810088E003
:1055100090E005C089E08093810081E090E02C015B
:10552000612C712CCA01B901A30192010E94FE34C1
:1055300021503109309389002093880080918800A0
:1055400090918900892B31F421E030E0309389007B
:10555000209388000E949F080E941B0786E60E94F5
:105560006E080E949308009188001091890060E005
:1055700079E08DE390E0A30192010E94FE34A4E65D
:10558000B0E00E94513598012F5F3F4F40E050E05E
:105590000E94FE3429013A01A4E6B0E0A701960179
:1055A0000E945135A3019201261B370B480B590B62
:1055B000CA01B90105E228E44EEF0E94130A8AE706
:1055C0000E946E080E949F0880ED97E00E941D0DCA
:1055D000882309F448C0883C58F01092810010924A
:1055E000800017B814B822982496E2E10C94023691
:1055F000813598F139813323E9F04C8141504C8356
:10560000C501B4012AE030E040E050E00E94FE34E1
:1056100049015A01C701B6010E94FE34CA01B9010D
:105620002AE030E040E050E00E94FE346B833AE034
:10563000232E37C05C81563150F55F5F5C83563155
:1056400011F425E1222EAAE0B0E0A50194010E9408
:1056500051354B015C011B8224C08B3018F08B81CB
:105660008F5F8B83312C2B81822F90E0622D70E035
:105670006F5F7F4F0E94EB348B83832D0E94A521A7
:10568000382E3FEE381708F4A8CF2A81B0CE8AE032
:10569000282E41E04B83812C912C5401839451E1BD
:1056A0005C83312CF2CFA0E0B0E0E9E5FBE20C94A2
:1056B000E8358CED91E098D183E2809380001092E0
:1056C0006F008FEF90E090938B0080938A0083E0CF
:1056D00086BB1092820015B881E184B918B881E0C8
:1056E00087B9229A81E090E09093890080938800A6
:1056F00089E08093810010E0C0E0D2E300E084E61E
:10570000C82ED12CE12CF12C88248A9493E0992E78
:10571000A12CB12CDC17C1F1D43618F0CCE9CD0F97
:1057200001C0CD2F2C2F30E0AFEFB3E00E943C350D
:105730006E5C7F4F8F4F9F4FA70196010E94FE34F2
:1057400029013A0130938B0020938A000E941407AC
:10575000A8EEB3E0A30192010E94513561507E4F43
:105760008F4F9F4FA50194010E94FE34DA01C901B9
:1057700025E045E26FEF0E94FD0A0E949F08093272
:1057800018F08CE30E94730C80E496E00E941D0DDB
:10579000082F833860F017B81092810010928000B3
:1057A00014B82298CDB7DEB7E0E10C940436833309
:1057B00010F0DAE003C0882321F0D1E0DC0F10E024
:1057C00001C0DC2F812F0E94A521182F803F08F4F3
:1057D000A1CFE1CFCF93DF938BE991E005D187E0B3
:1057E00093E00E947936C82FD0E081E80E944307F9
:1057F0008C2F0E9443070E94140724E040E260E0DF
:105800008C2F90E00E94FD0A0E949F0880E496E0A1
:105810000E941D0D882331F0823858F4893288F0B7
:10582000CF5FD0E0CF778D2F0E94A521D82F803F6A
:10583000E0F26C2F87E093E00E948636DF91CF91F3
:105840000895C158EECF0F931F93CF93DF938BEC46
:1058500091E0CAD08CE093E00E947936C82FD0E066
:105860000E9414070C2F0C2E000C110BC7FF0BC04D
:105870008DE20E946E0823E045E26FEF88279927AA
:10588000801B910B04C023E045E26FEFC8010E942A
:10589000FD0A0E949F0880E496E00E941D0D882367
:1058A00031F0823888F48932C8F0CF5FD0E0C1355A
:1058B00014F0C55603C0CC3E0CF4CB598D2F0E947A
:1058C000A521D82F803F60F26C2F8CE093E00E94DE
:1058D0008636DF91CF911F910F910895C150E6CF89
:1058E000813019F480E053CA0895823011F44ACD12
:1058F0000895833011F4D7CE0895843011F4ACCCE0
:105900000895853019F40C94AF210895863029F458
:105910000E944C070C94EB210895873011F493CF2B
:105920000895883021F481E10C94940E0895893013
:1059300011F4F0CC08958A3011F44CCF08958B30D7
:1059400011F499C108958C3011F40C94410E08950E
:10595000FF920F931F93CF93DF938BE192E044D09C
:10596000D0E0C0E01CE01C0F00E0FF24F394F00E38
:1059700060E08F2D880F0E940107013021F48EE333
:105980000E946E0802C00E9493081D3018F083EF39
:10599000810F01C0812F18DC0F2D1F5F033029F705
:1059A00080E49FE10E941D0D8111D0E090913901AA
:1059B000913009F4D0E0823340F0CC2379F08C2F81
:1059C0008FDF8BE192E010D002C08111CF5FDF5FEB
:1059D000D23820F4CD3030F2CD50C4CF80E0CDB7F6
:1059E000DEB7E5E00C940F36CF93DF93EC010E9415
:1059F0004C07CE010E94E608C4E682E00E94730CC8
:105A00004F9902C0C150C9F70E941407DF91CF918E
:105A10000895A0E0B0E0EFE0FDE20C94EF35182F20
:105A2000062F862F90E0FC01E85CFE4FF490E12FFA
:105A3000F0E0EB5CFE4FC491FC01EB5CFE4FD491B7
:105A400010928401109283011092770110927801D4
:105A50001092790110927A0187EF809389010E9458
:105A6000FF1B18B8F7B8D4B9D5B9812F0E94AB0C79
:105A70007C01802F0E94AB0CE81AF90A14B810922E
:105A800056011092550120E030E05CE2C52EDD2485
:105A9000D394DAE064E6B62E8091550190915601D8
:105AA000843D904308F06FC0C5B980915501909135
:105AB0005601892B81F0F601E21BF30B6091550131
:105AC00070915601D29FC001D39F900D11246FD7C2
:105AD000E617F70750F4C4B90E94660C14B8809119
